{"contracts/Radiohead.sol":{"Radiohead":{"abi":[{"inputs":[{"internalType":"address","name":"_escrow","type":"address"}],"stateMutability":"nonpayable","type":"constructor"},{"anonymous":false,"inputs":[{"indexed":true,"internalType":"address","name":"account","type":"address"},{"indexed":true,"internalType":"address","name":"operator","type":"address"},{"indexed":false,"internalType":"bool","name":"approved","type":"bool"}],"name":"ApprovalForAll","type":"event"},{"anonymous":false,"inputs":[{"indexed":true,"internalType":"address","name":"operator","type":"address"},{"indexed":true,"internalType":"address","name":"from","type":"address"},{"indexed":true,"internalType":"address","name":"to","type":"address"},{"indexed":false,"internalType":"uint256[]","name":"ids","type":"uint256[]"},{"indexed":false,"internalType":"uint256[]","name":"values","type":"uint256[]"}],"name":"TransferBatch","type":"event"},{"anonymous":false,"inputs":[{"indexed":true,"internalType":"address","name":"operator","type":"address"},{"indexed":true,"internalType":"address","name":"from","type":"address"},{"indexed":true,"internalType":"address","name":"to","type":"address"},{"indexed":false,"internalType":"uint256","name":"id","type":"uint256"},{"indexed":false,"internalType":"uint256","name":"value","type":"uint256"}],"name":"TransferSingle","type":"event"},{"anonymous":false,"inputs":[{"indexed":false,"internalType":"string","name":"value","type":"string"},{"indexed":true,"internalType":"uint256","name":"id","type":"uint256"}],"name":"URI","type":"event"},{"anonymous":false,"inputs":[{"indexed":false,"internalType":"uint256","name":"id","type":"uint256"},{"indexed":false,"internalType":"address","name":"superfan","type":"address"}],"name":"limitedSongBought","type":"event"},{"anonymous":false,"inputs":[{"indexed":false,"internalType":"uint256","name":"id","type":"uint256"},{"indexed":false,"internalType":"address","name":"buyer","type":"address"}],"name":"regularSongBought","type":"event"},{"anonymous":false,"inputs":[{"indexed":false,"internalType":"uint256","name":"songId","type":"uint256"},{"indexed":false,"internalType":"uint256","name":"ltdSongId","type":"uint256"},{"indexed":false,"internalType":"address","name":"artist","type":"address"},{"indexed":false,"internalType":"uint256","name":"limitedSupply","type":"uint256"},{"indexed":false,"internalType":"uint256","name":"regularPrice","type":"uint256"},{"indexed":false,"internalType":"uint256","name":"limitedPrice","type":"uint256"},{"indexed":false,"internalType":"uint256","name":"platformRoyality","type":"uint256"},{"indexed":false,"internalType":"uint256","name":"superfanRoyality","type":"uint256"}],"name":"songCreated","type":"event"},{"anonymous":false,"inputs":[{"indexed":false,"internalType":"address","name":"caller","type":"address"}],"name":"withdrawnFunds","type":"event"},{"inputs":[],"name":"Owner","outputs":[{"internalType":"address","name":"","type":"address"}],"stateMutability":"view","type":"function"},{"inputs":[{"internalType":"address","name":"account","type":"address"},{"internalType":"uint256","name":"id","type":"uint256"}],"name":"balanceOf","outputs":[{"internalType":"uint256","name":"","type":"uint256"}],"stateMutability":"view","type":"function"},{"inputs":[{"internalType":"address[]","name":"accounts","type":"address[]"},{"internalType":"uint256[]","name":"ids","type":"uint256[]"}],"name":"balanceOfBatch","outputs":[{"internalType":"uint256[]","name":"","type":"uint256[]"}],"stateMutability":"view","type":"function"},{"inputs":[{"internalType":"uint256","name":"songId","type":"uint256"}],"name":"buyLimitedSong","outputs":[],"stateMutability":"payable","type":"function"},{"inputs":[{"internalType":"uint256","name":"songId","type":"uint256"}],"name":"buyRegularSong","outputs":[],"stateMutability":"payable","type":"function"},{"inputs":[{"internalType":"uint256","name":"_limitedSupply","type":"uint256"},{"internalType":"uint256","name":"_regularSongPrice","type":"uint256"},{"internalType":"uint256","name":"_limitedSongPrice","type":"uint256"},{"internalType":"string","name":"_songURI","type":"string"},{"internalType":"uint256","name":"_platformRoyality","type":"uint256"},{"internalType":"uint256","name":"_superfanRoyality","type":"uint256"}],"name":"createSong","outputs":[{"internalType":"uint256","name":"songId","type":"uint256"}],"stateMutability":"nonpayable","type":"function"},{"inputs":[{"internalType":"uint256","name":"id","type":"uint256"}],"name":"exists","outputs":[{"internalType":"bool","name":"","type":"bool"}],"stateMutability":"view","type":"function"},{"inputs":[],"name":"getCurrentSongId","outputs":[{"internalType":"uint256","name":"current","type":"uint256"}],"stateMutability":"view","type":"function"},{"inputs":[{"internalType":"uint256","name":"id","type":"uint256"}],"name":"getSong","outputs":[{"components":[{"internalType":"address","name":"artist","type":"address"},{"internalType":"uint256","name":"songId","type":"uint256"},{"internalType":"uint256","name":"ltdSongId","type":"uint256"},{"internalType":"uint256","name":"limitedSupply","type":"uint256"},{"internalType":"uint256","name":"limitedSongMinted","type":"uint256"},{"internalType":"uint256","name":"regularPrice","type":"uint256"},{"internalType":"uint256","name":"limitedPrice","type":"uint256"},{"internalType":"uint256","name":"regularRevenue","type":"uint256"},{"internalType":"uint256","name":"ltdRevenue","type":"uint256"},{"internalType":"uint256","name":"platformRoyality","type":"uint256"},{"internalType":"uint256","name":"superfanRoyality","type":"uint256"},{"internalType":"address[]","name":"superfans","type":"address[]"}],"internalType":"struct Radiohead.Song","name":"song","type":"tuple"}],"stateMutability":"view","type":"function"},{"inputs":[],"name":"getSongs","outputs":[{"components":[{"internalType":"address","name":"artist","type":"address"},{"internalType":"uint256","name":"songId","type":"uint256"},{"internalType":"uint256","name":"ltdSongId","type":"uint256"},{"internalType":"uint256","name":"limitedSupply","type":"uint256"},{"internalType":"uint256","name":"limitedSongMinted","type":"uint256"},{"internalType":"uint256","name":"regularPrice","type":"uint256"},{"internalType":"uint256","name":"limitedPrice","type":"uint256"},{"internalType":"uint256","name":"regularRevenue","type":"uint256"},{"internalType":"uint256","name":"ltdRevenue","type":"uint256"},{"internalType":"uint256","name":"platformRoyality","type":"uint256"},{"internalType":"uint256","name":"superfanRoyality","type":"uint256"},{"internalType":"address[]","name":"superfans","type":"address[]"}],"internalType":"struct Radiohead.Song[]","name":"gaane","type":"tuple[]"}],"stateMutability":"view","type":"function"},{"inputs":[{"internalType":"address","name":"account","type":"address"},{"internalType":"address","name":"operator","type":"address"}],"name":"isApprovedForAll","outputs":[{"internalType":"bool","name":"","type":"bool"}],"stateMutability":"view","type":"function"},{"inputs":[],"name":"name","outputs":[{"internalType":"string","name":"","type":"string"}],"stateMutability":"view","type":"function"},{"inputs":[{"internalType":"address","name":"from","type":"address"},{"internalType":"address","name":"to","type":"address"},{"internalType":"uint256[]","name":"ids","type":"uint256[]"},{"internalType":"uint256[]","name":"amounts","type":"uint256[]"},{"internalType":"bytes","name":"data","type":"bytes"}],"name":"safeBatchTransferFrom","outputs":[],"stateMutability":"nonpayable","type":"function"},{"inputs":[{"internalType":"address","name":"from","type":"address"},{"internalType":"address","name":"to","type":"address"},{"internalType":"uint256","name":"id","type":"uint256"},{"internalType":"uint256","name":"amount","type":"uint256"},{"internalType":"bytes","name":"data","type":"bytes"}],"name":"safeTransferFrom","outputs":[],"stateMutability":"nonpayable","type":"function"},{"inputs":[{"internalType":"address","name":"operator","type":"address"},{"internalType":"bool","name":"approved","type":"bool"}],"name":"setApprovalForAll","outputs":[],"stateMutability":"nonpayable","type":"function"},{"inputs":[{"internalType":"uint256","name":"","type":"uint256"}],"name":"songIndex","outputs":[{"internalType":"uint256","name":"","type":"uint256"}],"stateMutability":"view","type":"function"},{"inputs":[{"internalType":"uint256","name":"","type":"uint256"}],"name":"songsArray","outputs":[{"internalType":"address","name":"artist","type":"address"},{"internalType":"uint256","name":"songId","type":"uint256"},{"internalType":"uint256","name":"ltdSongId","type":"uint256"},{"internalType":"uint256","name":"limitedSupply","type":"uint256"},{"internalType":"uint256","name":"limitedSongMinted","type":"uint256"},{"internalType":"uint256","name":"regularPrice","type":"uint256"},{"internalType":"uint256","name":"limitedPrice","type":"uint256"},{"internalType":"uint256","name":"regularRevenue","type":"uint256"},{"internalType":"uint256","name":"ltdRevenue","type":"uint256"},{"internalType":"uint256","name":"platformRoyality","type":"uint256"},{"internalType":"uint256","name":"superfanRoyality","type":"uint256"}],"stateMutability":"view","type":"function"},{"inputs":[{"internalType":"bytes4","name":"interfaceId","type":"bytes4"}],"name":"supportsInterface","outputs":[{"internalType":"bool","name":"","type":"bool"}],"stateMutability":"view","type":"function"},{"inputs":[{"internalType":"uint256","name":"id","type":"uint256"}],"name":"totalSupply","outputs":[{"internalType":"uint256","name":"","type":"uint256"}],"stateMutability":"view","type":"function"},{"inputs":[{"internalType":"uint256","name":"tokenId","type":"uint256"}],"name":"uri","outputs":[{"internalType":"string","name":"","type":"string"}],"stateMutability":"view","type":"function"},{"inputs":[],"name":"withdrawRoyalities","outputs":[],"stateMutability":"nonpayable","type":"function"},{"stateMutability":"payable","type":"receive"}],"evm":{"bytecode":{"linkReferences":{},"object":"6080604052604051806020016040528060008152506003908162000024919062000430565b506040518060400160405280600981526020017f526164696f686561640000000000000000000000000000000000000000000000815250600690816200006b919062000430565b503480156200007957600080fd5b5060405162006e2738038062006e2783398181016040528101906200009f919062000581565b60405180602001604052806000815250620000c0816200019e60201b60201c565b50620000dd67ffc9b28a70c09b0360c01b620001b360201b60201c565b620000f9676d9f30719e44a7f360c01b620001b360201b60201c565b80600860006101000a81548173ffffffffffffffffffffffffffffffffffffffff021916908373ffffffffffffffffffffffffffffffffffffffff1602179055506200015667e818275445e97a6c60c01b620001b360201b60201c565b33600960006101000a81548173ffffffffffffffffffffffffffffffffffffffff021916908373ffffffffffffffffffffffffffffffffffffffff16021790555050620005b3565b8060029081620001af919062000430565b5050565b50565b600081519050919050565b7f4e487b7100000000000000000000000000000000000000000000000000000000600052604160045260246000fd5b7f4e487b7100000000000000000000000000000000000000000000000000000000600052602260045260246000fd5b600060028204905060018216806200023857607f821691505b6020821081036200024e576200024d620001f0565b5b50919050565b60008190508160005260206000209050919050565b60006020601f8301049050919050565b600082821b905092915050565b600060088302620002b87fffffffffffffffffffffffffffffffffffffffffffffffffffffffffffffffff8262000279565b620002c4868362000279565b95508019841693508086168417925050509392505050565b6000819050919050565b6000819050919050565b6000620003116200030b6200030584620002dc565b620002e6565b620002dc565b9050919050565b6000819050919050565b6200032d83620002f0565b620003456200033c8262000318565b84845462000286565b825550505050565b600090565b6200035c6200034d565b6200036981848462000322565b505050565b5b8181101562000391576200038560008262000352565b6001810190506200036f565b5050565b601f821115620003e057620003aa8162000254565b620003b58462000269565b81016020851015620003c5578190505b620003dd620003d48562000269565b8301826200036e565b50505b505050565b600082821c905092915050565b60006200040560001984600802620003e5565b1980831691505092915050565b6000620004208383620003f2565b9150826002028217905092915050565b6200043b82620001b6565b67ffffffffffffffff811115620004575762000456620001c1565b5b6200046382546200021f565b6200047082828562000395565b600060209050601f831160018114620004a8576000841562000493578287015190505b6200049f858262000412565b8655506200050f565b601f198416620004b88662000254565b60005b82811015620004e257848901518255600182019150602085019450602081019050620004bb565b86831015620005025784890151620004fe601f891682620003f2565b8355505b6001600288020188555050505b505050505050565b600080fd5b600073ffffffffffffffffffffffffffffffffffffffff82169050919050565b600062000549826200051c565b9050919050565b6200055b816200053c565b81146200056757600080fd5b50565b6000815190506200057b8162000550565b92915050565b6000602082840312156200059a576200059962000517565b5b6000620005aa848285016200056a565b91505092915050565b61686480620005c36000396000f3fe60806040526004361061012d5760003560e01c80635fe34985116100ab578063b9414d311161006f578063b9414d3114610436578063bd85b0391461047d578063e985e9c5146104ba578063eea7eaf6146104f7578063f242432a14610513578063fad00ac21461053c57610134565b80635fe34985146103635780637c76c2321461038e5780637d048509146103a5578063a22cb465146103e2578063b4a99a4e1461040b57610134565b80632eb2c2d6116100f25780632eb2c2d61461025857806342acaa66146102815780634e1273f4146102be5780634f558e79146102fb5780635565f6601461033857610134565b8062fdd58e1461013957806301ffc9a71461017657806306fdde03146101b35780630e89341c146101de5780632b9c27601461021b57610134565b3661013457005b600080fd5b34801561014557600080fd5b50610160600480360381019061015b919061456f565b610558565b60405161016d91906145be565b60405180910390f35b34801561018257600080fd5b5061019d60048036038101906101989190614631565b610620565b6040516101aa9190614679565b60405180910390f35b3480156101bf57600080fd5b506101c8610702565b6040516101d59190614724565b60405180910390f35b3480156101ea57600080fd5b5061020560048036038101906102009190614746565b610790565b6040516102129190614724565b60405180910390f35b34801561022757600080fd5b50610242600480360381019061023d9190614746565b6107de565b60405161024f91906145be565b60405180910390f35b34801561026457600080fd5b5061027f600480360381019061027a9190614970565b6107f6565b005b34801561028d57600080fd5b506102a860048036038101906102a39190614746565b610897565b6040516102b59190614c10565b60405180910390f35b3480156102ca57600080fd5b506102e560048036038101906102e09190614cf5565b610da8565b6040516102f29190614e1c565b60405180910390f35b34801561030757600080fd5b50610322600480360381019061031d9190614746565b610ec1565b60405161032f9190614679565b60405180910390f35b34801561034457600080fd5b5061034d610ed5565b60405161035a9190615004565b60405180910390f35b34801561036f57600080fd5b506103786110a5565b60405161038591906145be565b60405180910390f35b34801561039a57600080fd5b506103a36110de565b005b3480156103b157600080fd5b506103cc60048036038101906103c791906150c7565b611ded565b6040516103d991906145be565b60405180910390f35b3480156103ee57600080fd5b506104096004803603810190610404919061519c565b61237e565b005b34801561041757600080fd5b50610420612394565b60405161042d91906151eb565b60405180910390f35b34801561044257600080fd5b5061045d60048036038101906104589190614746565b6123ba565b6040516104749b9a99989796959493929190615206565b60405180910390f35b34801561048957600080fd5b506104a4600480360381019061049f9190614746565b612444565b6040516104b191906145be565b60405180910390f35b3480156104c657600080fd5b506104e160048036038101906104dc91906152b1565b612461565b6040516104ee9190614679565b60405180910390f35b610511600480360381019061050c9190614746565b6124f5565b005b34801561051f57600080fd5b5061053a600480360381019061053591906152f1565b612b07565b005b61055660048036038101906105519190614746565b612ba8565b005b60008073ffffffffffffffffffffffffffffffffffffffff168373ffffffffffffffffffffffffffffffffffffffff16036105c8576040517f08c379a00000000000000000000000000000000000000000000000000000000081526004016105bf906153fa565b60405180910390fd5b60008083815260200190815260200160002060008473ffffffffffffffffffffffffffffffffffffffff1673ffffffffffffffffffffffffffffffffffffffff16815260200190815260200160002054905092915050565b60007fd9b67a26000000000000000000000000000000000000000000000000000000007bffffffffffffffffffffffffffffffffffffffffffffffffffffffff1916827bffffffffffffffffffffffffffffffffffffffffffffffffffffffff191614806106eb57507f0e89341c000000000000000000000000000000000000000000000000000000007bffffffffffffffffffffffffffffffffffffffffffffffffffffffff1916827bffffffffffffffffffffffffffffffffffffffffffffffffffffffff1916145b806106fb57506106fa82613279565b5b9050919050565b6006805461070f90615449565b80601f016020809104026020016040519081016040528092919081815260200182805461073b90615449565b80156107885780601f1061075d57610100808354040283529160200191610788565b820191906000526020600020905b81548152906001019060200180831161076b57829003601f168201915b505050505081565b60606107a667e96f58d0016641f060c01b6132e3565b6107ba67df160e88d7d1f3f960c01b6132e3565b6107ce6792bdf2785829703f60c01b6132e3565b6107d7826132e6565b9050919050565b600b6020528060005260406000206000915090505481565b6107fe6133cb565b73ffffffffffffffffffffffffffffffffffffffff168573ffffffffffffffffffffffffffffffffffffffff16148061084457506108438561083e6133cb565b612461565b5b610883576040517f08c379a000000000000000000000000000000000000000000000000000000000815260040161087a906154ec565b60405180910390fd5b61089085858585856133d3565b5050505050565b61089f614450565b6108b36743165df8c5a51b2760c01b6132e3565b6108c76743963916d9ae029960c01b6132e3565b6108db67072f04dff343dbbc60c01b6132e3565b60006002836108ea919061553b565b14610b3f57610903670166d6dc7098514660c01b6132e3565b61091767a01affc48b48bf9860c01b6132e3565b61092b676bd771cbc19179b460c01b6132e3565b61093f673739fae9c51dc38160c01b6132e3565b61094882610ec1565b610987576040517f08c379a000000000000000000000000000000000000000000000000000000000815260040161097e906155b8565b60405180910390fd5b61099b67ddc7de8fc1036a8f60c01b6132e3565b6109af67d982758cf333f89160c01b6132e3565b600a600b600084815260200190815260200160002054815481106109d6576109d56155d8565b5b90600052602060002090600c0201604051806101800160405290816000820160009054906101000a900473ffffffffffffffffffffffffffffffffffffffff1673ffffffffffffffffffffffffffffffffffffffff1673ffffffffffffffffffffffffffffffffffffffff168152602001600182015481526020016002820154815260200160038201548152602001600482015481526020016005820154815260200160068201548152602001600782015481526020016008820154815260200160098201548152602001600a8201548152602001600b8201805480602002602001604051908101604052809291908181526020018280548015610b2f57602002820191906000526020600020905b8160009054906101000a900473ffffffffffffffffffffffffffffffffffffffff1673ffffffffffffffffffffffffffffffffffffffff1681526020019060010190808311610ae5575b5050505050815250509050610da3565b610b53676bf80ac86d4e0fe260c01b6132e3565b610b6767eee4128e080c33f960c01b6132e3565b610b7b67d6691f227afcd41660c01b6132e3565b610b8f67c37378237b00549360c01b6132e3565b610ba4600183610b9f9190615636565b610ec1565b610be3576040517f08c379a0000000000000000000000000000000000000000000000000000000008152600401610bda906155b8565b60405180910390fd5b610bf7672a7e9247eb2c962a60c01b6132e3565b610c0b674efa88f7b1a804a460c01b6132e3565b600a600b6000600185610c1e9190615636565b81526020019081526020016000205481548110610c3e57610c3d6155d8565b5b90600052602060002090600c0201604051806101800160405290816000820160009054906101000a900473ffffffffffffffffffffffffffffffffffffffff1673ffffffffffffffffffffffffffffffffffffffff1673ffffffffffffffffffffffffffffffffffffffff168152602001600182015481526020016002820154815260200160038201548152602001600482015481526020016005820154815260200160068201548152602001600782015481526020016008820154815260200160098201548152602001600a8201548152602001600b8201805480602002602001604051908101604052809291908181526020018280548015610d9757602002820191906000526020600020905b8160009054906101000a900473ffffffffffffffffffffffffffffffffffffffff1673ffffffffffffffffffffffffffffffffffffffff1681526020019060010190808311610d4d575b50505050508152505090505b919050565b60608151835114610dee576040517f08c379a0000000000000000000000000000000000000000000000000000000008152600401610de5906156dc565b60405180910390fd5b6000835167ffffffffffffffff811115610e0b57610e0a614778565b5b604051908082528060200260200182016040528015610e395781602001602082028036833780820191505090505b50905060005b8451811015610eb657610e86858281518110610e5e57610e5d6155d8565b5b6020026020010151858381518110610e7957610e786155d8565b5b6020026020010151610558565b828281518110610e9957610e986155d8565b5b60200260200101818152505080610eaf906156fc565b9050610e3f565b508091505092915050565b600080610ecd83612444565b119050919050565b6060610eeb67b950bb99f005fec860c01b6132e3565b610eff67e4b3048ce3c0f5d360c01b6132e3565b600a805480602002602001604051908101604052809291908181526020016000905b8282101561109c57838290600052602060002090600c0201604051806101800160405290816000820160009054906101000a900473ffffffffffffffffffffffffffffffffffffffff1673ffffffffffffffffffffffffffffffffffffffff1673ffffffffffffffffffffffffffffffffffffffff168152602001600182015481526020016002820154815260200160038201548152602001600482015481526020016005820154815260200160068201548152602001600782015481526020016008820154815260200160098201548152602001600a8201548152602001600b820180548060200260200160405190810160405280929190818152602001828054801561108457602002820191906000526020600020905b8160009054906101000a900473ffffffffffffffffffffffffffffffffffffffff1673ffffffffffffffffffffffffffffffffffffffff168152602001906001019080831161103a575b50505050508152505081526020019060010190610f21565b50505050905090565b60006110bb67353af7ea390c79fb60c01b6132e3565b6110cf675efa0cb9f4a6dcba60c01b6132e3565b6110d960076136f4565b905090565b6110f166192c17e2367ff660c01b6132e3565b61110567effb976d2081988c60c01b6132e3565b61111967fde77f3317bb46bf60c01b6132e3565b61112d67f1a88dca251ad6b360c01b6132e3565b6000611143674b4bcb740e7cc10c60c01b6132e3565b611157674cec375e903ac5a760c01b6132e3565b60005b600a805490508110156114275761117b67d9c2fac3b1f3d92560c01b6132e3565b61118f6727df76b7759e4f3760c01b6132e3565b6000600a82815481106111a5576111a46155d8565b5b90600052602060002090600c0201604051806101800160405290816000820160009054906101000a900473ffffffffffffffffffffffffffffffffffffffff1673ffffffffffffffffffffffffffffffffffffffff1673ffffffffffffffffffffffffffffffffffffffff168152602001600182015481526020016002820154815260200160038201548152602001600482015481526020016005820154815260200160068201548152602001600782015481526020016008820154815260200160098201548152602001600a8201548152602001600b82018054806020026020016040519081016040528092919081815260200182805480156112fe57602002820191906000526020600020905b8160009054906101000a900473ffffffffffffffffffffffffffffffffffffffff1673ffffffffffffffffffffffffffffffffffffffff16815260200190600101908083116112b4575b505050505081525050905061131d67fbcd188630cf497760c01b6132e3565b611331674db8aaf403998a8260c01b6132e3565b6000611341338360400151610558565b11801561135e575061135d6762c41d757b33d36a60c01b613702565b5b806113b457503373ffffffffffffffffffffffffffffffffffffffff16816000015173ffffffffffffffffffffffffffffffffffffffff161480156113b357506113b267d381e7714c91505960c01b613702565b5b5b156113ff576113cd67c8a2ac060b93360860c01b6132e3565b6113e1676a6b03fc10f4f3db60c01b6132e3565b600192506113f9670e07fad35a71fdf660c01b6132e3565b50611427565b6114136715829547a2bce3ac60c01b6132e3565b50808061141f906156fc565b91505061115a565b5061143c670374012503295f1d60c01b6132e3565b6114506784c3697e87283ce160c01b6132e3565b600960009054906101000a900473ffffffffffffffffffffffffffffffffffffffff1673ffffffffffffffffffffffffffffffffffffffff163373ffffffffffffffffffffffffffffffffffffffff16036114d6576114b967a02f5ba6c5a1532560c01b6132e3565b6114cd67e3efd31073b3ee5860c01b6132e3565b600190506114eb565b6114ea670b456bac688ff1ee60c01b6132e3565b5b6114ff67d3827f5c46deb19260c01b6132e3565b61151367f6f5dfe2625bd53660c01b6132e3565b61152767e33a4690d748f25060c01b6132e3565b80611567576040517f08c379a000000000000000000000000000000000000000000000000000000000815260040161155e906157b6565b60405180910390fd5b61157b67c9812391a1fec41e60c01b6132e3565b61158f6787f852e2f748bc2b60c01b6132e3565b6115a36739a203d4fe88e16a60c01b6132e3565b6115b76740c143d08573337e60c01b6132e3565b6115cb67f05d98e25128e6aa60c01b6132e3565b6115df678c0b7e8d0887d1d060c01b6132e3565b60005b600a80549050811015611c435761160367d5e06e7a3074958660c01b6132e3565b61161767fd7a8c993978227d60c01b6132e3565b600061162d674f8e8664aa6ee8ee60c01b6132e3565b600a8281548110611641576116406155d8565b5b90600052602060002090600c020190506116656740a9fdf1dfd4fe6a60c01b6132e3565b6116796726b0ab715b4abb0960c01b6132e3565b600081600901546064836007015461169191906157d6565b61169b9190615807565b90506116b1679930b9b7ce2dbc6e60c01b6132e3565b6116c5674511ad7431708c3660c01b6132e3565b60008183600701546116d79190615636565b90506116ed67ae7e718f5705a4b160c01b6132e3565b611701673f1c070a945b97ae60c01b6132e3565b600083600901546064856008015461171991906157d6565b6117239190615807565b905061173967ca0bf1ac407ccb1c60c01b6132e3565b61174d67086b740c548bc01f60c01b6132e3565b600081856008015461175f9190615636565b905061177567829fbd331b07dfc160c01b6132e3565b61178967806a0231c36fe5a160c01b6132e3565b600085600b0180548060200260200160405190810160405280929190818152602001828054801561180f57602002820191906000526020600020905b8160009054906101000a900473ffffffffffffffffffffffffffffffffffffffff1673ffffffffffffffffffffffffffffffffffffffff16815260200190600101908083116117c5575b5050505050905061182a67d48077c04fdb4dc160c01b6132e3565b61183e679594313ecbdd1f5360c01b6132e3565b6000866003015487600a01546064896007015461185b91906157d6565b6118659190615807565b61186f91906157d6565b905061188567e8cb1e86e79dc60060c01b6132e3565b61189967dc3c9bbacca826d160c01b6132e3565b60008251826118a89190615807565b90506118be672676dcaa08245e8560c01b6132e3565b6118d2673f12f6f642c645d760c01b6132e3565b60008185886118e19190615849565b6118eb9190615636565b905061190167fbe2f9732c7273f260c01b6132e3565b6000896007018190555061191f6762bbd5f608d6dfb360c01b6132e3565b6000896008018190555061193d678bfd98e46216275360c01b6132e3565b61195167d49b176be94928c160c01b6132e3565b60008960000160009054906101000a900473ffffffffffffffffffffffffffffffffffffffff1673ffffffffffffffffffffffffffffffffffffffff168260405161199b906158ae565b60006040518083038185875af1925050503d80600081146119d8576040519150601f19603f3d011682016040523d82523d6000602084013e6119dd565b606091505b505090506119f5678c66edd5a7648e7a60c01b6132e3565b611a09676f62ee41cbbd85b060c01b6132e3565b611a1d67760cb2cde59cb57760c01b6132e3565b80611a5d576040517f08c379a0000000000000000000000000000000000000000000000000000000008152600401611a5490615935565b60405180910390fd5b611a7167f94805a6da7bd28660c01b6132e3565b611a8567648ba9be4514367060c01b6132e3565b611a99674f2620572167df2660c01b6132e3565b60005b8551811015611c2557611ab967dd4e95344dca50d960c01b6132e3565b611acd677cd96d163f6382df60c01b6132e3565b6000868d81518110611ae257611ae16155d8565b5b60200260200101519050611b006744638c7ac7307f6160c01b6132e3565b611b14674a49a8a91cc5207060c01b6132e3565b60008173ffffffffffffffffffffffffffffffffffffffff1687604051611b3a906158ae565b60006040518083038185875af1925050503d8060008114611b77576040519150601f19603f3d011682016040523d82523d6000602084013e611b7c565b606091505b50509050611b9467c7d438d6a3b7fb9060c01b6132e3565b611ba86799b1b67148338b5760c01b6132e3565b611bbc67443d26f67adb6f9460c01b6132e3565b80611bfc576040517f08c379a0000000000000000000000000000000000000000000000000000000008152600401611bf3906159c7565b60405180910390fd5b611c1067f337743df2786e2360c01b6132e3565b50508080611c1d906156fc565b915050611a9c565b50505050505050505050508080611c3b906156fc565b9150506115e2565b50611c58671d53049d0a2b554c60c01b6132e3565b611c6c67235d1367b062030f60c01b6132e3565b6000600960009054906101000a900473ffffffffffffffffffffffffffffffffffffffff1673ffffffffffffffffffffffffffffffffffffffff1647604051611cb4906158ae565b60006040518083038185875af1925050503d8060008114611cf1576040519150601f19603f3d011682016040523d82523d6000602084013e611cf6565b606091505b50509050611d0e6737d22de4c1e8c1a060c01b6132e3565b611d226752c799b6bb10d79460c01b6132e3565b611d36675eaa3970c426b1a860c01b6132e3565b80611d76576040517f08c379a0000000000000000000000000000000000000000000000000000000008152600401611d6d90615a59565b60405180910390fd5b611d8a67873e31988971c6d760c01b6132e3565b611d9e6758060c29e4e3c45060c01b6132e3565b611db26760516e49e37cc78260c01b6132e3565b7f0d6b85ae024a6a6596815f1c1c2f8d5bf382f93d8e56c3c88b3b58bbbca20b7d33604051611de191906151eb565b60405180910390a15050565b6000611e036792a2745dc2e6805060c01b6132e3565b611e17675ece8b6556f2221560c01b6132e3565b611e2b67d9181de005aeb1d560c01b6132e3565b611e3f67ac0e33e1dbd513a360c01b6132e3565b60008711611e82576040517f08c379a0000000000000000000000000000000000000000000000000000000008152600401611e7990615aeb565b60405180910390fd5b611e96671ef6bc2f9483a5f960c01b6132e3565b611eaa67aa3c40bdb3b97eca60c01b6132e3565b611ebe675661676ec4837fcf60c01b6132e3565b611ec8600761370d565b611edc67c98111812f61186d60c01b6132e3565b611ee660076136f4565b9050611efc67d83a4d16d7442ed260c01b6132e3565b611f1067379d3146e460a20560c01b6132e3565b611f30338264e8d4a5100060405180602001604052806000815250613723565b611f4467723df66318159d2760c01b6132e3565b611f5867f280b0b3997c954460c01b6132e3565b611f6281856138d3565b611f7667daf5f0d81ae7f22f60c01b6132e3565b611f8a677dc375642deeba7560c01b6132e3565b6000600a6001816001815401808255809150500390600052602060002090600c02019050611fc2677f2035a04b9933b060c01b6132e3565b338160000160006101000a81548173ffffffffffffffffffffffffffffffffffffffff021916908373ffffffffffffffffffffffffffffffffffffffff160217905550612019675b21f2e83ae6b53060c01b6132e3565b81816001018190555061203667b617baa9a918489260c01b6132e3565b87816003018190555061205367e91e688ae01ca9a360c01b6132e3565b86816005018190555061207067beaa40fb3518dae360c01b6132e3565b85816006018190555061208d67b863bf816919114060c01b6132e3565b8381600901819055506120aa6766e0a6abc7dd6d7760c01b6132e3565b8281600a01819055506120c7676f6e91a22d154c4660c01b6132e3565b6120db6708937e0071fbf82f60c01b6132e3565b6120e5600761370d565b6120f967ab85e291e5e1a1f660c01b6132e3565b61210d6786ce907338e04f0560c01b6132e3565b600061211960076136f4565b905061212f6762db5de87b53fe1560c01b6132e3565b61214367d30f2aa2808ea05560c01b6132e3565b61215e33828b60405180602001604052806000815250613723565b61217267dc20eb4ec86187d960c01b6132e3565b61218667427b704e5f78fc2c60c01b6132e3565b61219081876138d3565b6121a467b7749ded1f0967a260c01b6132e3565b8082600201819055506121c1672265e3181768cfc160c01b6132e3565b6121d5677760f06dbd0e86b660c01b6132e3565b61220133600860009054906101000a900473ffffffffffffffffffffffffffffffffffffffff16612461565b61227357612219671a1c9901dc6b6d8960c01b6132e3565b61222d67ed9844dece3c263f60c01b6132e3565b612241673cfb66b7eae94d8060c01b6132e3565b61226e600860009054906101000a900473ffffffffffffffffffffffffffffffffffffffff16600161237e565b612288565b61228767324ff9f0deed9bf160c01b6132e3565b5b61229c67cbde9fcdb46db22a60c01b6132e3565b6001600a805490506122ae9190615636565b600b6000858152602001908152602001600020819055506122d967a4c3252dbd848be260c01b6132e3565b6122ed6739e315a8569a79dd60c01b6132e3565b7fe44a95d90db666eec698ee335d929af1295456ef22acf300487f3b13cee736f1826001015483600201548460000160009054906101000a900473ffffffffffffffffffffffffffffffffffffffff16856003015486600501548760060154886009015489600a015460405161236a989796959493929190615b0b565b60405180910390a150509695505050505050565b6123906123896133cb565b8383613938565b5050565b600960009054906101000a900473ffffffffffffffffffffffffffffffffffffffff1681565b600a81815481106123ca57600080fd5b90600052602060002090600c02016000915090508060000160009054906101000a900473ffffffffffffffffffffffffffffffffffffffff169080600101549080600201549080600301549080600401549080600501549080600601549080600701549080600801549080600901549080600a015490508b565b600060056000838152602001908152602001600020549050919050565b6000600160008473ffffffffffffffffffffffffffffffffffffffff1673ffffffffffffffffffffffffffffffffffffffff16815260200190815260200160002060008373ffffffffffffffffffffffffffffffffffffffff1673ffffffffffffffffffffffffffffffffffffffff16815260200190815260200160002060009054906101000a900460ff16905092915050565b61250967cbc5dc593e42170060c01b6132e3565b61251d67aa3dd0eea74114d260c01b6132e3565b61253167bc367073cd61dc8560c01b6132e3565b6000612547676f09fe0f77f61c6560c01b6132e3565b61255b671f703ac2938fd11760c01b6132e3565b600060028361256a919061553b565b1461266b5761258367aae81522c0ba085260c01b6132e3565b61259767a4c283132665090760c01b6132e3565b6125ab67be584df4c1cf925360c01b6132e3565b6125bf679201726977ead2c760c01b6132e3565b6125c882610ec1565b612607576040517f08c379a00000000000000000000000000000000000000000000000000000000081526004016125fe906155b8565b60405180910390fd5b61261b6719c32e589d33709a60c01b6132e3565b61262f67638e4643a2d9304060c01b6132e3565b600a600b60008481526020019081526020016000205481548110612656576126556155d8565b5b90600052602060002090600c0201905061277b565b61267f67a3cb02afad33fa8860c01b6132e3565b612693672a5102f4f5f6c95660c01b6132e3565b6126a767a0aee647d1c3a45760c01b6132e3565b6126bb67e30f2b0319daf33360c01b6132e3565b6126d06001836126cb9190615636565b610ec1565b61270f576040517f08c379a0000000000000000000000000000000000000000000000000000000008152600401612706906155b8565b60405180910390fd5b612723673516787904b0961660c01b6132e3565b6127376721b23cdfb1896bd060c01b6132e3565b600a600b600060018561274a9190615636565b8152602001908152602001600020548154811061276a576127696155d8565b5b90600052602060002090600c020190505b61278f670633f46a9d75c30860c01b6132e3565b6127a367badd8399308ccb0e60c01b6132e3565b6127b76738c8dd228f979d5760c01b6132e3565b6127c48160010154610ec1565b612803576040517f08c379a00000000000000000000000000000000000000000000000000000000081526004016127fa90615bfb565b60405180910390fd5b6128176766aec134cc8c4ebb60c01b6132e3565b61282b67849393d87a59aad360c01b6132e3565b61283f671510b2f2e3857ee260c01b6132e3565b612853671b1a1e04a23ca69b60c01b6132e3565b806005015434101561289a576040517f08c379a000000000000000000000000000000000000000000000000000000000815260040161289190615c67565b60405180910390fd5b6128ae673597d9fcf93b61af60c01b6132e3565b6128c267b2d4d6001b1add8160c01b6132e3565b6128d667becc514ead58539a60c01b6132e3565b6128ea67383c80d190a20d5c60c01b6132e3565b3373ffffffffffffffffffffffffffffffffffffffff168160000160009054906101000a900473ffffffffffffffffffffffffffffffffffffffff1673ffffffffffffffffffffffffffffffffffffffff160361297c576040517f08c379a000000000000000000000000000000000000000000000000000000000815260040161297390615cd3565b60405180910390fd5b612990672bc94c012fbf01f860c01b6132e3565b6129a4674c67d033924ebf5160c01b6132e3565b348160070160008282546129b89190615849565b925050819055506129d367eed5017854f126b260c01b6132e3565b6129e767239680b0bb08f0e060c01b6132e3565b600860009054906101000a900473ffffffffffffffffffffffffffffffffffffffff1673ffffffffffffffffffffffffffffffffffffffff166313f2da7b8260010154308460000160009054906101000a900473ffffffffffffffffffffffffffffffffffffffff16336040518563ffffffff1660e01b8152600401612a709493929190615d14565b600060405180830381600087803b158015612a8a57600080fd5b505af1158015612a9e573d6000803e3d6000fd5b50505050612ab667aec73f59d72ca6b460c01b6132e3565b612aca672438c7389d1ce4a960c01b6132e3565b7f04d30d6ef2c1b6dc4fb27350a8a71229ea6d6a3220be9db153486f9bbda5e6ec8233604051612afb929190615d59565b60405180910390a15050565b612b0f6133cb565b73ffffffffffffffffffffffffffffffffffffffff168573ffffffffffffffffffffffffffffffffffffffff161480612b555750612b5485612b4f6133cb565b612461565b5b612b94576040517f08c379a0000000000000000000000000000000000000000000000000000000008152600401612b8b906154ec565b60405180910390fd5b612ba18585858585613aa4565b5050505050565b612bbc67b315505e7f8edf2f60c01b6132e3565b612bd067bc817a9af908c42260c01b6132e3565b612be46766f3ea1057b5aed260c01b6132e3565b6000612bfa672a1deaccedbeb0f860c01b6132e3565b612c0e676735774716e90e0d60c01b6132e3565b6000600283612c1d919061553b565b14612d1e57612c3667512003d972a85b4260c01b6132e3565b612c4a678b556179cf7f789b60c01b6132e3565b612c5e673ab08e229d61eba660c01b6132e3565b612c726731bf4ec739bc43aa60c01b6132e3565b612c7b82610ec1565b612cba576040517f08c379a0000000000000000000000000000000000000000000000000000000008152600401612cb1906155b8565b60405180910390fd5b612cce672c4f7c4561ae053560c01b6132e3565b612ce2671be370c3df35b08f60c01b6132e3565b600a600b60008481526020019081526020016000205481548110612d0957612d086155d8565b5b90600052602060002090600c02019050612e2e565b612d32672a7ad7ce69b3147660c01b6132e3565b612d4667e4521d445797800660c01b6132e3565b612d5a67fcb334abdf297bcf60c01b6132e3565b612d6e67142a8f720c38690c60c01b6132e3565b612d83600183612d7e9190615636565b610ec1565b612dc2576040517f08c379a0000000000000000000000000000000000000000000000000000000008152600401612db9906155b8565b60405180910390fd5b612dd667959c05d4c9c02bcf60c01b6132e3565b612dea6759e0c2e35c3a277660c01b6132e3565b600a600b6000600185612dfd9190615636565b81526020019081526020016000205481548110612e1d57612e1c6155d8565b5b90600052602060002090600c020190505b612e42679a84cf8fa2ceae7e60c01b6132e3565b612e566769cfc76c299c0f6d60c01b6132e3565b612e6a67fc800a711402719960c01b6132e3565b8060030154816004015410612eb4576040517f08c379a0000000000000000000000000000000000000000000000000000000008152600401612eab90615da5565b60405180910390fd5b612ec8679ae1c59aed43b88360c01b6132e3565b612edc67aa45e6dc6b14537860c01b6132e3565b612ef0679bf6407f256f407860c01b6132e3565b612f046775eeb231bf088e4c60c01b6132e3565b8060060154341015612f4b576040517f08c379a0000000000000000000000000000000000000000000000000000000008152600401612f4290615c67565b60405180910390fd5b612f5f671b4f98a704ce0c7260c01b6132e3565b612f7367ac668d02f7d9b4c860c01b6132e3565b612f8767db50abc52dcb8e7b60c01b6132e3565b612f9b671e0d461a4b88a8a460c01b6132e3565b3373ffffffffffffffffffffffffffffffffffffffff168160000160009054906101000a900473ffffffffffffffffffffffffffffffffffffffff1673ffffffffffffffffffffffffffffffffffffffff160361302d576040517f08c379a000000000000000000000000000000000000000000000000000000000815260040161302490615cd3565b60405180910390fd5b6130416765f5a0a5c4c7a60160c01b6132e3565b61305567115bf3d415dea83060c01b6132e3565b600181600401600082825461306a9190615849565b9250508190555061308567b2fa9ffbd07e86db60c01b6132e3565b348160080160008282546130999190615849565b925050819055506130b4675b621284e53355fb60c01b6132e3565b6130c867d39429b623d1db3e60c01b6132e3565b80600b01339080600181540180825580915050600190039060005260206000200160009091909190916101000a81548173ffffffffffffffffffffffffffffffffffffffff021916908373ffffffffffffffffffffffffffffffffffffffff16021790555061314167761fbc309b47830f60c01b6132e3565b61315567e9138225f481c91d60c01b6132e3565b600860009054906101000a900473ffffffffffffffffffffffffffffffffffffffff1673ffffffffffffffffffffffffffffffffffffffff166313f2da7b8260020154308460000160009054906101000a900473ffffffffffffffffffffffffffffffffffffffff16336040518563ffffffff1660e01b81526004016131de9493929190615d14565b600060405180830381600087803b1580156131f857600080fd5b505af115801561320c573d6000803e3d6000fd5b505050506132246773d9f5531d13095b60c01b6132e3565b613238679388c02c18f0915360c01b6132e3565b7f535d4bf1d4fd06876e3bed38c167c7631c9c1c0f1bab9b408655c7a724e4b2f781600201543360405161326d929190615d59565b60405180910390a15050565b60007f01ffc9a7000000000000000000000000000000000000000000000000000000007bffffffffffffffffffffffffffffffffffffffffffffffffffffffff1916827bffffffffffffffffffffffffffffffffffffffffffffffffffffffff1916149050919050565b50565b6060600060046000848152602001908152602001600020805461330890615449565b80601f016020809104026020016040519081016040528092919081815260200182805461333490615449565b80156133815780601f1061335657610100808354040283529160200191613381565b820191906000526020600020905b81548152906001019060200180831161336457829003601f168201915b50505050509050600081511161339f5761339a83613d3f565b6133c3565b6003816040516020016133b3929190615e99565b6040516020818303038152906040525b915050919050565b600033905090565b8151835114613417576040517f08c379a000000000000000000000000000000000000000000000000000000000815260040161340e90615f2f565b60405180910390fd5b600073ffffffffffffffffffffffffffffffffffffffff168473ffffffffffffffffffffffffffffffffffffffff1603613486576040517f08c379a000000000000000000000000000000000000000000000000000000000815260040161347d90615fc1565b60405180910390fd5b60006134906133cb565b90506134a0818787878787613dd3565b60005b84518110156136515760008582815181106134c1576134c06155d8565b5b6020026020010151905060008583815181106134e0576134df6155d8565b5b60200260200101519050600080600084815260200190815260200160002060008b73ffffffffffffffffffffffffffffffffffffffff1673ffffffffffffffffffffffffffffffffffffffff16815260200190815260200160002054905081811015613581576040517f08c379a000000000000000000000000000000000000000000000000000000000815260040161357890616053565b60405180910390fd5b81810360008085815260200190815260200160002060008c73ffffffffffffffffffffffffffffffffffffffff1673ffffffffffffffffffffffffffffffffffffffff168152602001908152602001600020819055508160008085815260200190815260200160002060008b73ffffffffffffffffffffffffffffffffffffffff1673ffffffffffffffffffffffffffffffffffffffff16815260200190815260200160002060008282546136369190615849565b925050819055505050508061364a906156fc565b90506134a3565b508473ffffffffffffffffffffffffffffffffffffffff168673ffffffffffffffffffffffffffffffffffffffff168273ffffffffffffffffffffffffffffffffffffffff167f4a39dc06d4c0dbc64b70af90fd698a233a518aa5d07e595d983b8c0526c8f7fb87876040516136c8929190616073565b60405180910390a46136de818787878787613e25565b6136ec818787878787613e2d565b505050505050565b600081600001549050919050565b600060019050919050565b6001816000016000828254019250508190555050565b600073ffffffffffffffffffffffffffffffffffffffff168473ffffffffffffffffffffffffffffffffffffffff1603613792576040517f08c379a00000000000000000000000000000000000000000000000000000000081526004016137899061611c565b60405180910390fd5b600061379c6133cb565b905060006137a985614004565b905060006137b685614004565b90506137c783600089858589613dd3565b8460008088815260200190815260200160002060008973ffffffffffffffffffffffffffffffffffffffff1673ffffffffffffffffffffffffffffffffffffffff16815260200190815260200160002060008282546138269190615849565b925050819055508673ffffffffffffffffffffffffffffffffffffffff16600073ffffffffffffffffffffffffffffffffffffffff168473ffffffffffffffffffffffffffffffffffffffff167fc3d58168c5ae7397731d063d5bbf3d657854427343f4c083240f7aacaa2d0f6289896040516138a492919061613c565b60405180910390a46138bb83600089858589613e25565b6138ca8360008989898961407e565b50505050505050565b806004600084815260200190815260200160002090816138f391906162fc565b50817f6bb7ff708619ba0610cba295a58592e0451dee2622938c8755667688daf3529b61391f84610790565b60405161392c9190614724565b60405180910390a25050565b8173ffffffffffffffffffffffffffffffffffffffff168373ffffffffffffffffffffffffffffffffffffffff16036139a6576040517f08c379a000000000000000000000000000000000000000000000000000000000815260040161399d90616440565b60405180910390fd5b80600160008573ffffffffffffffffffffffffffffffffffffffff1673ffffffffffffffffffffffffffffffffffffffff16815260200190815260200160002060008473ffffffffffffffffffffffffffffffffffffffff1673ffffffffffffffffffffffffffffffffffffffff16815260200190815260200160002060006101000a81548160ff0219169083151502179055508173ffffffffffffffffffffffffffffffffffffffff168373ffffffffffffffffffffffffffffffffffffffff167f17307eab39ab6107e8899845ad3d59bd9653f200f220920489ca2b5937696c3183604051613a979190614679565b60405180910390a3505050565b600073ffffffffffffffffffffffffffffffffffffffff168473ffffffffffffffffffffffffffffffffffffffff1603613b13576040517f08c379a0000000000000000000000000000000000000000000000000000000008152600401613b0a90615fc1565b60405180910390fd5b6000613b1d6133cb565b90506000613b2a85614004565b90506000613b3785614004565b9050613b47838989858589613dd3565b600080600088815260200190815260200160002060008a73ffffffffffffffffffffffffffffffffffffffff1673ffffffffffffffffffffffffffffffffffffffff16815260200190815260200160002054905085811015613bde576040517f08c379a0000000000000000000000000000000000000000000000000000000008152600401613bd590616053565b60405180910390fd5b85810360008089815260200190815260200160002060008b73ffffffffffffffffffffffffffffffffffffffff1673ffffffffffffffffffffffffffffffffffffffff168152602001908152602001600020819055508560008089815260200190815260200160002060008a73ffffffffffffffffffffffffffffffffffffffff1673ffffffffffffffffffffffffffffffffffffffff1681526020019081526020016000206000828254613c939190615849565b925050819055508773ffffffffffffffffffffffffffffffffffffffff168973ffffffffffffffffffffffffffffffffffffffff168573ffffffffffffffffffffffffffffffffffffffff167fc3d58168c5ae7397731d063d5bbf3d657854427343f4c083240f7aacaa2d0f628a8a604051613d1092919061613c565b60405180910390a4613d26848a8a86868a613e25565b613d34848a8a8a8a8a61407e565b505050505050505050565b606060028054613d4e90615449565b80601f0160208091040260200160405190810160405280929190818152602001828054613d7a90615449565b8015613dc75780601f10613d9c57610100808354040283529160200191613dc7565b820191906000526020600020905b815481529060010190602001808311613daa57829003601f168201915b50505050509050919050565b613de76784143e9761c7959260c01b6132e3565b613dfb67ddcfb583bfb3417c60c01b6132e3565b613e0f670e8e8567ef4e514260c01b6132e3565b613e1d868686868686614255565b505050505050565b505050505050565b613e4c8473ffffffffffffffffffffffffffffffffffffffff16614425565b15613ffc578373ffffffffffffffffffffffffffffffffffffffff1663bc197c8187878686866040518663ffffffff1660e01b8152600401613e929594939291906164b5565b6020604051808303816000875af1925050508015613ece57506040513d601f19601f82011682018060405250810190613ecb9190616532565b60015b613f7357613eda61656c565b806308c379a003613f365750613eee61658e565b80613ef95750613f38565b806040517f08c379a0000000000000000000000000000000000000000000000000000000008152600401613f2d9190614724565b60405180910390fd5b505b6040517f08c379a0000000000000000000000000000000000000000000000000000000008152600401613f6a90616690565b60405180910390fd5b63bc197c8160e01b7bffffffffffffffffffffffffffffffffffffffffffffffffffffffff1916817bffffffffffffffffffffffffffffffffffffffffffffffffffffffff191614613ffa576040517f08c379a0000000000000000000000000000000000000000000000000000000008152600401613ff190616722565b60405180910390fd5b505b505050505050565b60606000600167ffffffffffffffff81111561402357614022614778565b5b6040519080825280602002602001820160405280156140515781602001602082028036833780820191505090505b5090508281600081518110614069576140686155d8565b5b60200260200101818152505080915050919050565b61409d8473ffffffffffffffffffffffffffffffffffffffff16614425565b1561424d578373ffffffffffffffffffffffffffffffffffffffff1663f23a6e6187878686866040518663ffffffff1660e01b81526004016140e3959493929190616742565b6020604051808303816000875af192505050801561411f57506040513d601f19601f8201168201806040525081019061411c9190616532565b60015b6141c45761412b61656c565b806308c379a003614187575061413f61658e565b8061414a5750614189565b806040517f08c379a000000000000000000000000000000000000000000000000000000000815260040161417e9190614724565b60405180910390fd5b505b6040517f08c379a00000000000000000000000000000000000000000000000000000000081526004016141bb90616690565b60405180910390fd5b63f23a6e6160e01b7bffffffffffffffffffffffffffffffffffffffffffffffffffffffff1916817bffffffffffffffffffffffffffffffffffffffffffffffffffffffff19161461424b576040517f08c379a000000000000000000000000000000000000000000000000000000000815260040161424290616722565b60405180910390fd5b505b505050505050565b614263868686868686614448565b600073ffffffffffffffffffffffffffffffffffffffff168573ffffffffffffffffffffffffffffffffffffffff16036143145760005b8351811015614312578281815181106142b6576142b56155d8565b5b6020026020010151600560008684815181106142d5576142d46155d8565b5b6020026020010151815260200190815260200160002060008282546142fa9190615849565b925050819055508061430b906156fc565b905061429a565b505b600073ffffffffffffffffffffffffffffffffffffffff168473ffffffffffffffffffffffffffffffffffffffff160361441d5760005b835181101561441b576000848281518110614369576143686155d8565b5b602002602001015190506000848381518110614388576143876155d8565b5b60200260200101519050600060056000848152602001908152602001600020549050818110156143ed576040517f08c379a00000000000000000000000000000000000000000000000000000000081526004016143e49061680e565b60405180910390fd5b818103600560008581526020019081526020016000208190555050505080614414906156fc565b905061434b565b505b505050505050565b6000808273ffffffffffffffffffffffffffffffffffffffff163b119050919050565b505050505050565b604051806101800160405280600073ffffffffffffffffffffffffffffffffffffffff16815260200160008152602001600081526020016000815260200160008152602001600081526020016000815260200160008152602001600081526020016000815260200160008152602001606081525090565b6000604051905090565b600080fd5b600080fd5b600073ffffffffffffffffffffffffffffffffffffffff82169050919050565b6000614506826144db565b9050919050565b614516816144fb565b811461452157600080fd5b50565b6000813590506145338161450d565b92915050565b6000819050919050565b61454c81614539565b811461455757600080fd5b50565b60008135905061456981614543565b92915050565b60008060408385031215614586576145856144d1565b5b600061459485828601614524565b92505060206145a58582860161455a565b9150509250929050565b6145b881614539565b82525050565b60006020820190506145d360008301846145af565b92915050565b60007fffffffff0000000000000000000000000000000000000000000000000000000082169050919050565b61460e816145d9565b811461461957600080fd5b50565b60008135905061462b81614605565b92915050565b600060208284031215614647576146466144d1565b5b60006146558482850161461c565b91505092915050565b60008115159050919050565b6146738161465e565b82525050565b600060208201905061468e600083018461466a565b92915050565b600081519050919050565b600082825260208201905092915050565b60005b838110156146ce5780820151818401526020810190506146b3565b60008484015250505050565b6000601f19601f8301169050919050565b60006146f682614694565b614700818561469f565b93506147108185602086016146b0565b614719816146da565b840191505092915050565b6000602082019050818103600083015261473e81846146eb565b905092915050565b60006020828403121561475c5761475b6144d1565b5b600061476a8482850161455a565b91505092915050565b600080fd5b7f4e487b7100000000000000000000000000000000000000000000000000000000600052604160045260246000fd5b6147b0826146da565b810181811067ffffffffffffffff821117156147cf576147ce614778565b5b80604052505050565b60006147e26144c7565b90506147ee82826147a7565b919050565b600067ffffffffffffffff82111561480e5761480d614778565b5b602082029050602081019050919050565b600080fd5b6000614837614832846147f3565b6147d8565b9050808382526020820190506020840283018581111561485a5761485961481f565b5b835b81811015614883578061486f888261455a565b84526020840193505060208101905061485c565b5050509392505050565b600082601f8301126148a2576148a1614773565b5b81356148b2848260208601614824565b91505092915050565b600080fd5b600067ffffffffffffffff8211156148db576148da614778565b5b6148e4826146da565b9050602081019050919050565b82818337600083830152505050565b600061491361490e846148c0565b6147d8565b90508281526020810184848401111561492f5761492e6148bb565b5b61493a8482856148f1565b509392505050565b600082601f83011261495757614956614773565b5b8135614967848260208601614900565b91505092915050565b600080600080600060a0868803121561498c5761498b6144d1565b5b600061499a88828901614524565b95505060206149ab88828901614524565b945050604086013567ffffffffffffffff8111156149cc576149cb6144d6565b5b6149d88882890161488d565b935050606086013567ffffffffffffffff8111156149f9576149f86144d6565b5b614a058882890161488d565b925050608086013567ffffffffffffffff811115614a2657614a256144d6565b5b614a3288828901614942565b9150509295509295909350565b614a48816144fb565b82525050565b614a5781614539565b82525050565b600081519050919050565b600082825260208201905092915050565b6000819050602082019050919050565b6000614a958383614a3f565b60208301905092915050565b6000602082019050919050565b6000614ab982614a5d565b614ac38185614a68565b9350614ace83614a79565b8060005b83811015614aff578151614ae68882614a89565b9750614af183614aa1565b925050600181019050614ad2565b5085935050505092915050565b600061018083016000830151614b256000860182614a3f565b506020830151614b386020860182614a4e565b506040830151614b4b6040860182614a4e565b506060830151614b5e6060860182614a4e565b506080830151614b716080860182614a4e565b5060a0830151614b8460a0860182614a4e565b5060c0830151614b9760c0860182614a4e565b5060e0830151614baa60e0860182614a4e565b50610100830151614bbf610100860182614a4e565b50610120830151614bd4610120860182614a4e565b50610140830151614be9610140860182614a4e565b50610160830151848203610160860152614c038282614aae565b9150508091505092915050565b60006020820190508181036000830152614c2a8184614b0c565b905092915050565b600067ffffffffffffffff821115614c4d57614c4c614778565b5b602082029050602081019050919050565b6000614c71614c6c84614c32565b6147d8565b90508083825260208201905060208402830185811115614c9457614c9361481f565b5b835b81811015614cbd5780614ca98882614524565b845260208401935050602081019050614c96565b5050509392505050565b600082601f830112614cdc57614cdb614773565b5b8135614cec848260208601614c5e565b91505092915050565b60008060408385031215614d0c57614d0b6144d1565b5b600083013567ffffffffffffffff811115614d2a57614d296144d6565b5b614d3685828601614cc7565b925050602083013567ffffffffffffffff811115614d5757614d566144d6565b5b614d638582860161488d565b9150509250929050565b600081519050919050565b600082825260208201905092915050565b6000819050602082019050919050565b6000614da58383614a4e565b60208301905092915050565b6000602082019050919050565b6000614dc982614d6d565b614dd38185614d78565b9350614dde83614d89565b8060005b83811015614e0f578151614df68882614d99565b9750614e0183614db1565b925050600181019050614de2565b5085935050505092915050565b60006020820190508181036000830152614e368184614dbe565b905092915050565b600081519050919050565b600082825260208201905092915050565b6000819050602082019050919050565b600061018083016000830151614e836000860182614a3f565b506020830151614e966020860182614a4e565b506040830151614ea96040860182614a4e565b506060830151614ebc6060860182614a4e565b506080830151614ecf6080860182614a4e565b5060a0830151614ee260a0860182614a4e565b5060c0830151614ef560c0860182614a4e565b5060e0830151614f0860e0860182614a4e565b50610100830151614f1d610100860182614a4e565b50610120830151614f32610120860182614a4e565b50610140830151614f47610140860182614a4e565b50610160830151848203610160860152614f618282614aae565b9150508091505092915050565b6000614f7a8383614e6a565b905092915050565b6000602082019050919050565b6000614f9a82614e3e565b614fa48185614e49565b935083602082028501614fb685614e5a565b8060005b85811015614ff25784840389528151614fd38582614f6e565b9450614fde83614f82565b925060208a01995050600181019050614fba565b50829750879550505050505092915050565b6000602082019050818103600083015261501e8184614f8f565b905092915050565b600067ffffffffffffffff82111561504157615040614778565b5b61504a826146da565b9050602081019050919050565b600061506a61506584615026565b6147d8565b905082815260208101848484011115615086576150856148bb565b5b6150918482856148f1565b509392505050565b600082601f8301126150ae576150ad614773565b5b81356150be848260208601615057565b91505092915050565b60008060008060008060c087890312156150e4576150e36144d1565b5b60006150f289828a0161455a565b965050602061510389828a0161455a565b955050604061511489828a0161455a565b945050606087013567ffffffffffffffff811115615135576151346144d6565b5b61514189828a01615099565b935050608061515289828a0161455a565b92505060a061516389828a0161455a565b9150509295509295509295565b6151798161465e565b811461518457600080fd5b50565b60008135905061519681615170565b92915050565b600080604083850312156151b3576151b26144d1565b5b60006151c185828601614524565b92505060206151d285828601615187565b9150509250929050565b6151e5816144fb565b82525050565b600060208201905061520060008301846151dc565b92915050565b60006101608201905061521c600083018e6151dc565b615229602083018d6145af565b615236604083018c6145af565b615243606083018b6145af565b615250608083018a6145af565b61525d60a08301896145af565b61526a60c08301886145af565b61527760e08301876145af565b6152856101008301866145af565b6152936101208301856145af565b6152a16101408301846145af565b9c9b505050505050505050505050565b600080604083850312156152c8576152c76144d1565b5b60006152d685828601614524565b92505060206152e785828601614524565b9150509250929050565b600080600080600060a0868803121561530d5761530c6144d1565b5b600061531b88828901614524565b955050602061532c88828901614524565b945050604061533d8882890161455a565b935050606061534e8882890161455a565b925050608086013567ffffffffffffffff81111561536f5761536e6144d6565b5b61537b88828901614942565b9150509295509295909350565b7f455243313135353a2061646472657373207a65726f206973206e6f742061207660008201527f616c6964206f776e657200000000000000000000000000000000000000000000602082015250565b60006153e4602a8361469f565b91506153ef82615388565b604082019050919050565b60006020820190508181036000830152615413816153d7565b9050919050565b7f4e487b7100000000000000000000000000000000000000000000000000000000600052602260045260246000fd5b6000600282049050600182168061546157607f821691505b6020821081036154745761547361541a565b5b50919050565b7f455243313135353a2063616c6c6572206973206e6f7420746f6b656e206f776e60008201527f6572206f7220617070726f766564000000000000000000000000000000000000602082015250565b60006154d6602e8361469f565b91506154e18261547a565b604082019050919050565b60006020820190508181036000830152615505816154c9565b9050919050565b7f4e487b7100000000000000000000000000000000000000000000000000000000600052601260045260246000fd5b600061554682614539565b915061555183614539565b9250826155615761556061550c565b5b828206905092915050565b7f74686520736f6e6720646f65736e277420657869737473000000000000000000600082015250565b60006155a260178361469f565b91506155ad8261556c565b602082019050919050565b600060208201905081810360008301526155d181615595565b9050919050565b7f4e487b7100000000000000000000000000000000000000000000000000000000600052603260045260246000fd5b7f4e487b7100000000000000000000000000000000000000000000000000000000600052601160045260246000fd5b600061564182614539565b915061564c83614539565b925082820390508181111561566457615663615607565b5b92915050565b7f455243313135353a206163636f756e747320616e6420696473206c656e67746860008201527f206d69736d617463680000000000000000000000000000000000000000000000602082015250565b60006156c660298361469f565b91506156d18261566a565b604082019050919050565b600060208201905081810360008301526156f5816156b9565b9050919050565b600061570782614539565b91507fffffffffffffffffffffffffffffffffffffffffffffffffffffffffffffffff820361573957615738615607565b5b600182019050919050565b7f4f6e6c79206172746973747320616e6420737570657266616e732063616e206960008201527f6e746974696174652077697468647261772070726f6365737300000000000000602082015250565b60006157a060398361469f565b91506157ab82615744565b604082019050919050565b600060208201905081810360008301526157cf81615793565b9050919050565b60006157e182614539565b91506157ec83614539565b9250826157fc576157fb61550c565b5b828204905092915050565b600061581282614539565b915061581d83614539565b925082820261582b81614539565b9150828204841483151761584257615841615607565b5b5092915050565b600061585482614539565b915061585f83614539565b925082820190508082111561587757615876615607565b5b92915050565b600081905092915050565b50565b600061589860008361587d565b91506158a382615888565b600082019050919050565b60006158b98261588b565b9150819050919050565b7f6661696c656420746f2064697372696275746520726f79616c6974696573207460008201527f6f20746865206172746973740000000000000000000000000000000000000000602082015250565b600061591f602c8361469f565b915061592a826158c3565b604082019050919050565b6000602082019050818103600083015261594e81615912565b9050919050565b7f6661696c656420746f2064697372696275746520726f79616c6974696573207460008201527f6f2074686520737570657266616e000000000000000000000000000000000000602082015250565b60006159b1602e8361469f565b91506159bc82615955565b604082019050919050565b600060208201905081810360008301526159e0816159a4565b9050919050565b7f6661696c656420746f2064697372696275746520726f79616c6974696573207460008201527f6f2074686520706c61666f726d204f776e657200000000000000000000000000602082015250565b6000615a4360338361469f565b9150615a4e826159e7565b604082019050919050565b60006020820190508181036000830152615a7281615a36565b9050919050565b7f4c696d6974656420737570706c79206d7573742062652067726561746572207460008201527f68616e2030000000000000000000000000000000000000000000000000000000602082015250565b6000615ad560258361469f565b9150615ae082615a79565b604082019050919050565b60006020820190508181036000830152615b0481615ac8565b9050919050565b600061010082019050615b21600083018b6145af565b615b2e602083018a6145af565b615b3b60408301896151dc565b615b4860608301886145af565b615b5560808301876145af565b615b6260a08301866145af565b615b6f60c08301856145af565b615b7c60e08301846145af565b9998505050505050505050565b7f74686520736f6e67496420646f65736e277420657869737473206f72206e6f7460008201527f2076616c69640000000000000000000000000000000000000000000000000000602082015250565b6000615be560268361469f565b9150615bf082615b89565b604082019050919050565b60006020820190508181036000830152615c1481615bd8565b9050919050565b7f506c6561736520706179207468652066756c6c20616d6f756e74000000000000600082015250565b6000615c51601a8361469f565b9150615c5c82615c1b565b602082019050919050565b60006020820190508181036000830152615c8081615c44565b9050919050565b7f796f752063616e6e6f742062757920796f7572206f776e20736f6e6700000000600082015250565b6000615cbd601c8361469f565b9150615cc882615c87565b602082019050919050565b60006020820190508181036000830152615cec81615cb0565b9050919050565b6000615cfe826144db565b9050919050565b615d0e81615cf3565b82525050565b6000608082019050615d2960008301876145af565b615d366020830186615d05565b615d4360408301856151dc565b615d5060608301846151dc565b95945050505050565b6000604082019050615d6e60008301856145af565b615d7b60208301846151dc565b9392505050565b6000615d8f60008361469f565b9150615d9a82615888565b600082019050919050565b60006020820190508181036000830152615dbe81615d82565b9050919050565b600081905092915050565b60008190508160005260206000209050919050565b60008154615df281615449565b615dfc8186615dc5565b94506001821660008114615e175760018114615e2c57615e5f565b60ff1983168652811515820286019350615e5f565b615e3585615dd0565b60005b83811015615e5757815481890152600182019150602081019050615e38565b838801955050505b50505092915050565b6000615e7382614694565b615e7d8185615dc5565b9350615e8d8185602086016146b0565b80840191505092915050565b6000615ea58285615de5565b9150615eb18284615e68565b91508190509392505050565b7f455243313135353a2069647320616e6420616d6f756e7473206c656e6774682060008201527f6d69736d61746368000000000000000000000000000000000000000000000000602082015250565b6000615f1960288361469f565b9150615f2482615ebd565b604082019050919050565b60006020820190508181036000830152615f4881615f0c565b9050919050565b7f455243313135353a207472616e7366657220746f20746865207a65726f20616460008201527f6472657373000000000000000000000000000000000000000000000000000000602082015250565b6000615fab60258361469f565b9150615fb682615f4f565b604082019050919050565b60006020820190508181036000830152615fda81615f9e565b9050919050565b7f455243313135353a20696e73756666696369656e742062616c616e636520666f60008201527f72207472616e7366657200000000000000000000000000000000000000000000602082015250565b600061603d602a8361469f565b915061604882615fe1565b604082019050919050565b6000602082019050818103600083015261606c81616030565b9050919050565b6000604082019050818103600083015261608d8185614dbe565b905081810360208301526160a18184614dbe565b90509392505050565b7f455243313135353a206d696e7420746f20746865207a65726f2061646472657360008201527f7300000000000000000000000000000000000000000000000000000000000000602082015250565b600061610660218361469f565b9150616111826160aa565b604082019050919050565b60006020820190508181036000830152616135816160f9565b9050919050565b600060408201905061615160008301856145af565b61615e60208301846145af565b9392505050565b60006020601f8301049050919050565b600082821b905092915050565b6000600883026161b27fffffffffffffffffffffffffffffffffffffffffffffffffffffffffffffffff82616175565b6161bc8683616175565b95508019841693508086168417925050509392505050565b6000819050919050565b60006161f96161f46161ef84614539565b6161d4565b614539565b9050919050565b6000819050919050565b616213836161de565b61622761621f82616200565b848454616182565b825550505050565b600090565b61623c61622f565b61624781848461620a565b505050565b5b8181101561626b57616260600082616234565b60018101905061624d565b5050565b601f8211156162b05761628181615dd0565b61628a84616165565b81016020851015616299578190505b6162ad6162a585616165565b83018261624c565b50505b505050565b600082821c905092915050565b60006162d3600019846008026162b5565b1980831691505092915050565b60006162ec83836162c2565b9150826002028217905092915050565b61630582614694565b67ffffffffffffffff81111561631e5761631d614778565b5b6163288254615449565b61633382828561626f565b600060209050601f8311600181146163665760008415616354578287015190505b61635e85826162e0565b8655506163c6565b601f19841661637486615dd0565b60005b8281101561639c57848901518255600182019150602085019450602081019050616377565b868310156163b957848901516163b5601f8916826162c2565b8355505b6001600288020188555050505b505050505050565b7f455243313135353a2073657474696e6720617070726f76616c2073746174757360008201527f20666f722073656c660000000000000000000000000000000000000000000000602082015250565b600061642a60298361469f565b9150616435826163ce565b604082019050919050565b600060208201905081810360008301526164598161641d565b9050919050565b600081519050919050565b600082825260208201905092915050565b600061648782616460565b616491818561646b565b93506164a18185602086016146b0565b6164aa816146da565b840191505092915050565b600060a0820190506164ca60008301886151dc565b6164d760208301876151dc565b81810360408301526164e98186614dbe565b905081810360608301526164fd8185614dbe565b90508181036080830152616511818461647c565b90509695505050505050565b60008151905061652c81614605565b92915050565b600060208284031215616548576165476144d1565b5b60006165568482850161651d565b91505092915050565b60008160e01c9050919050565b600060033d111561658b5760046000803e61658860005161655f565b90505b90565b600060443d1061661b576165a06144c7565b60043d036004823e80513d602482011167ffffffffffffffff821117156165c857505061661b565b808201805167ffffffffffffffff8111156165e6575050505061661b565b80602083010160043d03850181111561660357505050505061661b565b616612826020018501866147a7565b82955050505050505b90565b7f455243313135353a207472616e7366657220746f206e6f6e2d4552433131353560008201527f526563656976657220696d706c656d656e746572000000000000000000000000602082015250565b600061667a60348361469f565b91506166858261661e565b604082019050919050565b600060208201905081810360008301526166a98161666d565b9050919050565b7f455243313135353a204552433131353552656365697665722072656a6563746560008201527f6420746f6b656e73000000000000000000000000000000000000000000000000602082015250565b600061670c60288361469f565b9150616717826166b0565b604082019050919050565b6000602082019050818103600083015261673b816166ff565b9050919050565b600060a08201905061675760008301886151dc565b61676460208301876151dc565b61677160408301866145af565b61677e60608301856145af565b8181036080830152616790818461647c565b90509695505050505050565b7f455243313135353a206275726e20616d6f756e74206578636565647320746f7460008201527f616c537570706c79000000000000000000000000000000000000000000000000602082015250565b60006167f860288361469f565b91506168038261679c565b604082019050919050565b60006020820190508181036000830152616827816167eb565b905091905056fea26469706673582212204d791876292b5eb3db9188e22204bb86c5a3b24d05fff6a502f9dbbaaef0aa9c64736f6c63430008110033","opcodes":"PUSH1 0x80 PUSH1 0x40 MSTORE PUSH1 0x40 MLOAD DUP1 PUSH1 0x20 ADD PUSH1 0x40 MSTORE DUP1 PUSH1 0x0 DUP2 MSTORE POP PUSH1 0x3 SWAP1 DUP2 PUSH3 0x24 SWAP2 SWAP1 PUSH3 0x430 JUMP JUMPDEST POP PUSH1 0x40 MLOAD DUP1 PUSH1 0x40 ADD PUSH1 0x40 MSTORE DUP1 PUSH1 0x9 DUP2 MSTORE PUSH1 0x20 ADD PUSH32 0x526164696F686561640000000000000000000000000000000000000000000000 DUP2 MSTORE POP PUSH1 0x6 SWAP1 DUP2 PUSH3 0x6B SWAP2 SWAP1 PUSH3 0x430 JUMP JUMPDEST POP CALLVALUE DUP1 ISZERO PUSH3 0x79 JUMPI PUSH1 0x0 DUP1 REVERT JUMPDEST POP PUSH1 0x40 MLOAD PUSH3 0x6E27 CODESIZE SUB DUP1 PUSH3 0x6E27 DUP4 CODECOPY DUP2 DUP2 ADD PUSH1 0x40 MSTORE DUP2 ADD SWAP1 PUSH3 0x9F SWAP2 SWAP1 PUSH3 0x581 JUMP JUMPDEST PUSH1 0x40 MLOAD DUP1 PUSH1 0x20 ADD PUSH1 0x40 MSTORE DUP1 PUSH1 0x0 DUP2 MSTORE POP PUSH3 0xC0 DUP2 PUSH3 0x19E PUSH1 0x20 SHL PUSH1 0x20 SHR JUMP JUMPDEST POP PUSH3 0xDD PUSH8 0xFFC9B28A70C09B03 PUSH1 0xC0 SHL PUSH3 0x1B3 PUSH1 0x20 SHL PUSH1 0x20 SHR JUMP JUMPDEST PUSH3 0xF9 PUSH8 0x6D9F30719E44A7F3 PUSH1 0xC0 SHL PUSH3 0x1B3 PUSH1 0x20 SHL PUSH1 0x20 SHR JUMP JUMPDEST DUP1 PUSH1 0x8 PUSH1 0x0 PUSH2 0x100 EXP DUP2 SLOAD DUP2 PUSH20 0xFFFFFFFFFFFFFFFFFFFFFFFFFFFFFFFFFFFFFFFF MUL NOT AND SWAP1 DUP4 PUSH20 0xFFFFFFFFFFFFFFFFFFFFFFFFFFFFFFFFFFFFFFFF AND MUL OR SWAP1 SSTORE POP PUSH3 0x156 PUSH8 0xE818275445E97A6C PUSH1 0xC0 SHL PUSH3 0x1B3 PUSH1 0x20 SHL PUSH1 0x20 SHR JUMP JUMPDEST CALLER PUSH1 0x9 PUSH1 0x0 PUSH2 0x100 EXP DUP2 SLOAD DUP2 PUSH20 0xFFFFFFFFFFFFFFFFFFFFFFFFFFFFFFFFFFFFFFFF MUL NOT AND SWAP1 DUP4 PUSH20 0xFFFFFFFFFFFFFFFFFFFFFFFFFFFFFFFFFFFFFFFF AND MUL OR SWAP1 SSTORE POP POP PUSH3 0x5B3 JUMP JUMPDEST DUP1 PUSH1 0x2 SWAP1 DUP2 PUSH3 0x1AF SWAP2 SWAP1 PUSH3 0x430 JUMP JUMPDEST POP POP JUMP JUMPDEST POP JUMP JUMPDEST PUSH1 0x0 DUP2 MLOAD SWAP1 POP SWAP2 SWAP1 POP JUMP JUMPDEST PUSH32 0x4E487B7100000000000000000000000000000000000000000000000000000000 PUSH1 0x0 MSTORE PUSH1 0x41 PUSH1 0x4 MSTORE PUSH1 0x24 PUSH1 0x0 REVERT JUMPDEST PUSH32 0x4E487B7100000000000000000000000000000000000000000000000000000000 PUSH1 0x0 MSTORE PUSH1 0x22 PUSH1 0x4 MSTORE PUSH1 0x24 PUSH1 0x0 REVERT JUMPDEST PUSH1 0x0 PUSH1 0x2 DUP3 DIV SWAP1 POP PUSH1 0x1 DUP3 AND DUP1 PUSH3 0x238 JUMPI PUSH1 0x7F DUP3 AND SWAP2 POP JUMPDEST PUSH1 0x20 DUP3 LT DUP2 SUB PUSH3 0x24E JUMPI PUSH3 0x24D PUSH3 0x1F0 JUMP JUMPDEST JUMPDEST POP SWAP2 SWAP1 POP JUMP JUMPDEST PUSH1 0x0 DUP2 SWAP1 POP DUP2 PUSH1 0x0 MSTORE PUSH1 0x20 PUSH1 0x0 KECCAK256 SWAP1 POP SWAP2 SWAP1 POP JUMP JUMPDEST PUSH1 0x0 PUSH1 0x20 PUSH1 0x1F DUP4 ADD DIV SWAP1 POP SWAP2 SWAP1 POP JUMP JUMPDEST PUSH1 0x0 DUP3 DUP3 SHL SWAP1 POP SWAP3 SWAP2 POP POP JUMP JUMPDEST PUSH1 0x0 PUSH1 0x8 DUP4 MUL PUSH3 0x2B8 PUSH32 0xFFFFFFFFFFFFFFFFFFFFFFFFFFFFFFFFFFFFFFFFFFFFFFFFFFFFFFFFFFFFFFFF DUP3 PUSH3 0x279 JUMP JUMPDEST PUSH3 0x2C4 DUP7 DUP4 PUSH3 0x279 JUMP JUMPDEST SWAP6 POP DUP1 NOT DUP5 AND SWAP4 POP DUP1 DUP7 AND DUP5 OR SWAP3 POP POP POP SWAP4 SWAP3 POP POP POP JUMP JUMPDEST PUSH1 0x0 DUP2 SWAP1 POP SWAP2 SWAP1 POP JUMP JUMPDEST PUSH1 0x0 DUP2 SWAP1 POP SWAP2 SWAP1 POP JUMP JUMPDEST PUSH1 0x0 PUSH3 0x311 PUSH3 0x30B PUSH3 0x305 DUP5 PUSH3 0x2DC JUMP JUMPDEST PUSH3 0x2E6 JUMP JUMPDEST PUSH3 0x2DC JUMP JUMPDEST SWAP1 POP SWAP2 SWAP1 POP JUMP JUMPDEST PUSH1 0x0 DUP2 SWAP1 POP SWAP2 SWAP1 POP JUMP JUMPDEST PUSH3 0x32D DUP4 PUSH3 0x2F0 JUMP JUMPDEST PUSH3 0x345 PUSH3 0x33C DUP3 PUSH3 0x318 JUMP JUMPDEST DUP5 DUP5 SLOAD PUSH3 0x286 JUMP JUMPDEST DUP3 SSTORE POP POP POP POP JUMP JUMPDEST PUSH1 0x0 SWAP1 JUMP JUMPDEST PUSH3 0x35C PUSH3 0x34D JUMP JUMPDEST PUSH3 0x369 DUP2 DUP5 DUP5 PUSH3 0x322 JUMP JUMPDEST POP POP POP JUMP JUMPDEST JUMPDEST DUP2 DUP2 LT ISZERO PUSH3 0x391 JUMPI PUSH3 0x385 PUSH1 0x0 DUP3 PUSH3 0x352 JUMP JUMPDEST PUSH1 0x1 DUP2 ADD SWAP1 POP PUSH3 0x36F JUMP JUMPDEST POP POP JUMP JUMPDEST PUSH1 0x1F DUP3 GT ISZERO PUSH3 0x3E0 JUMPI PUSH3 0x3AA DUP2 PUSH3 0x254 JUMP JUMPDEST PUSH3 0x3B5 DUP5 PUSH3 0x269 JUMP JUMPDEST DUP2 ADD PUSH1 0x20 DUP6 LT ISZERO PUSH3 0x3C5 JUMPI DUP2 SWAP1 POP JUMPDEST PUSH3 0x3DD PUSH3 0x3D4 DUP6 PUSH3 0x269 JUMP JUMPDEST DUP4 ADD DUP3 PUSH3 0x36E JUMP JUMPDEST POP POP JUMPDEST POP POP POP JUMP JUMPDEST PUSH1 0x0 DUP3 DUP3 SHR SWAP1 POP SWAP3 SWAP2 POP POP JUMP JUMPDEST PUSH1 0x0 PUSH3 0x405 PUSH1 0x0 NOT DUP5 PUSH1 0x8 MUL PUSH3 0x3E5 JUMP JUMPDEST NOT DUP1 DUP4 AND SWAP2 POP POP SWAP3 SWAP2 POP POP JUMP JUMPDEST PUSH1 0x0 PUSH3 0x420 DUP4 DUP4 PUSH3 0x3F2 JUMP JUMPDEST SWAP2 POP DUP3 PUSH1 0x2 MUL DUP3 OR SWAP1 POP SWAP3 SWAP2 POP POP JUMP JUMPDEST PUSH3 0x43B DUP3 PUSH3 0x1B6 JUMP JUMPDEST PUSH8 0xFFFFFFFFFFFFFFFF DUP2 GT ISZERO PUSH3 0x457 JUMPI PUSH3 0x456 PUSH3 0x1C1 JUMP JUMPDEST JUMPDEST PUSH3 0x463 DUP3 SLOAD PUSH3 0x21F JUMP JUMPDEST PUSH3 0x470 DUP3 DUP3 DUP6 PUSH3 0x395 JUMP JUMPDEST PUSH1 0x0 PUSH1 0x20 SWAP1 POP PUSH1 0x1F DUP4 GT PUSH1 0x1 DUP2 EQ PUSH3 0x4A8 JUMPI PUSH1 0x0 DUP5 ISZERO PUSH3 0x493 JUMPI DUP3 DUP8 ADD MLOAD SWAP1 POP JUMPDEST PUSH3 0x49F DUP6 DUP3 PUSH3 0x412 JUMP JUMPDEST DUP7 SSTORE POP PUSH3 0x50F JUMP JUMPDEST PUSH1 0x1F NOT DUP5 AND PUSH3 0x4B8 DUP7 PUSH3 0x254 JUMP JUMPDEST PUSH1 0x0 JUMPDEST DUP3 DUP2 LT ISZERO PUSH3 0x4E2 JUMPI DUP5 DUP10 ADD MLOAD DUP3 SSTORE PUSH1 0x1 DUP3 ADD SWAP2 POP PUSH1 0x20 DUP6 ADD SWAP5 POP PUSH1 0x20 DUP2 ADD SWAP1 POP PUSH3 0x4BB JUMP JUMPDEST DUP7 DUP4 LT ISZERO PUSH3 0x502 JUMPI DUP5 DUP10 ADD MLOAD PUSH3 0x4FE PUSH1 0x1F DUP10 AND DUP3 PUSH3 0x3F2 JUMP JUMPDEST DUP4 SSTORE POP JUMPDEST PUSH1 0x1 PUSH1 0x2 DUP9 MUL ADD DUP9 SSTORE POP POP POP JUMPDEST POP POP POP POP POP POP JUMP JUMPDEST PUSH1 0x0 DUP1 REVERT JUMPDEST PUSH1 0x0 PUSH20 0xFFFFFFFFFFFFFFFFFFFFFFFFFFFFFFFFFFFFFFFF DUP3 AND SWAP1 POP SWAP2 SWAP1 POP JUMP JUMPDEST PUSH1 0x0 PUSH3 0x549 DUP3 PUSH3 0x51C JUMP JUMPDEST SWAP1 POP SWAP2 SWAP1 POP JUMP JUMPDEST PUSH3 0x55B DUP2 PUSH3 0x53C JUMP JUMPDEST DUP2 EQ PUSH3 0x567 JUMPI PUSH1 0x0 DUP1 REVERT JUMPDEST POP JUMP JUMPDEST PUSH1 0x0 DUP2 MLOAD SWAP1 POP PUSH3 0x57B DUP2 PUSH3 0x550 JUMP JUMPDEST SWAP3 SWAP2 POP POP JUMP JUMPDEST PUSH1 0x0 PUSH1 0x20 DUP3 DUP5 SUB SLT ISZERO PUSH3 0x59A JUMPI PUSH3 0x599 PUSH3 0x517 JUMP JUMPDEST JUMPDEST PUSH1 0x0 PUSH3 0x5AA DUP5 DUP3 DUP6 ADD PUSH3 0x56A JUMP JUMPDEST SWAP2 POP POP SWAP3 SWAP2 POP POP JUMP JUMPDEST PUSH2 0x6864 DUP1 PUSH3 0x5C3 PUSH1 0x0 CODECOPY PUSH1 0x0 RETURN INVALID PUSH1 0x80 PUSH1 0x40 MSTORE PUSH1 0x4 CALLDATASIZE LT PUSH2 0x12D JUMPI PUSH1 0x0 CALLDATALOAD PUSH1 0xE0 SHR DUP1 PUSH4 0x5FE34985 GT PUSH2 0xAB JUMPI DUP1 PUSH4 0xB9414D31 GT PUSH2 0x6F JUMPI DUP1 PUSH4 0xB9414D31 EQ PUSH2 0x436 JUMPI DUP1 PUSH4 0xBD85B039 EQ PUSH2 0x47D JUMPI DUP1 PUSH4 0xE985E9C5 EQ PUSH2 0x4BA JUMPI DUP1 PUSH4 0xEEA7EAF6 EQ PUSH2 0x4F7 JUMPI DUP1 PUSH4 0xF242432A EQ PUSH2 0x513 JUMPI DUP1 PUSH4 0xFAD00AC2 EQ PUSH2 0x53C JUMPI PUSH2 0x134 JUMP JUMPDEST DUP1 PUSH4 0x5FE34985 EQ PUSH2 0x363 JUMPI DUP1 PUSH4 0x7C76C232 EQ PUSH2 0x38E JUMPI DUP1 PUSH4 0x7D048509 EQ PUSH2 0x3A5 JUMPI DUP1 PUSH4 0xA22CB465 EQ PUSH2 0x3E2 JUMPI DUP1 PUSH4 0xB4A99A4E EQ PUSH2 0x40B JUMPI PUSH2 0x134 JUMP JUMPDEST DUP1 PUSH4 0x2EB2C2D6 GT PUSH2 0xF2 JUMPI DUP1 PUSH4 0x2EB2C2D6 EQ PUSH2 0x258 JUMPI DUP1 PUSH4 0x42ACAA66 EQ PUSH2 0x281 JUMPI DUP1 PUSH4 0x4E1273F4 EQ PUSH2 0x2BE JUMPI DUP1 PUSH4 0x4F558E79 EQ PUSH2 0x2FB JUMPI DUP1 PUSH4 0x5565F660 EQ PUSH2 0x338 JUMPI PUSH2 0x134 JUMP JUMPDEST DUP1 PUSH3 0xFDD58E EQ PUSH2 0x139 JUMPI DUP1 PUSH4 0x1FFC9A7 EQ PUSH2 0x176 JUMPI DUP1 PUSH4 0x6FDDE03 EQ PUSH2 0x1B3 JUMPI DUP1 PUSH4 0xE89341C EQ PUSH2 0x1DE JUMPI DUP1 PUSH4 0x2B9C2760 EQ PUSH2 0x21B JUMPI PUSH2 0x134 JUMP JUMPDEST CALLDATASIZE PUSH2 0x134 JUMPI STOP JUMPDEST PUSH1 0x0 DUP1 REVERT JUMPDEST CALLVALUE DUP1 ISZERO PUSH2 0x145 JUMPI PUSH1 0x0 DUP1 REVERT JUMPDEST POP PUSH2 0x160 PUSH1 0x4 DUP1 CALLDATASIZE SUB DUP2 ADD SWAP1 PUSH2 0x15B SWAP2 SWAP1 PUSH2 0x456F JUMP JUMPDEST PUSH2 0x558 JUMP JUMPDEST PUSH1 0x40 MLOAD PUSH2 0x16D SWAP2 SWAP1 PUSH2 0x45BE JUMP JUMPDEST PUSH1 0x40 MLOAD DUP1 SWAP2 SUB SWAP1 RETURN JUMPDEST CALLVALUE DUP1 ISZERO PUSH2 0x182 JUMPI PUSH1 0x0 DUP1 REVERT JUMPDEST POP PUSH2 0x19D PUSH1 0x4 DUP1 CALLDATASIZE SUB DUP2 ADD SWAP1 PUSH2 0x198 SWAP2 SWAP1 PUSH2 0x4631 JUMP JUMPDEST PUSH2 0x620 JUMP JUMPDEST PUSH1 0x40 MLOAD PUSH2 0x1AA SWAP2 SWAP1 PUSH2 0x4679 JUMP JUMPDEST PUSH1 0x40 MLOAD DUP1 SWAP2 SUB SWAP1 RETURN JUMPDEST CALLVALUE DUP1 ISZERO PUSH2 0x1BF JUMPI PUSH1 0x0 DUP1 REVERT JUMPDEST POP PUSH2 0x1C8 PUSH2 0x702 JUMP JUMPDEST PUSH1 0x40 MLOAD PUSH2 0x1D5 SWAP2 SWAP1 PUSH2 0x4724 JUMP JUMPDEST PUSH1 0x40 MLOAD DUP1 SWAP2 SUB SWAP1 RETURN JUMPDEST CALLVALUE DUP1 ISZERO PUSH2 0x1EA JUMPI PUSH1 0x0 DUP1 REVERT JUMPDEST POP PUSH2 0x205 PUSH1 0x4 DUP1 CALLDATASIZE SUB DUP2 ADD SWAP1 PUSH2 0x200 SWAP2 SWAP1 PUSH2 0x4746 JUMP JUMPDEST PUSH2 0x790 JUMP JUMPDEST PUSH1 0x40 MLOAD PUSH2 0x212 SWAP2 SWAP1 PUSH2 0x4724 JUMP JUMPDEST PUSH1 0x40 MLOAD DUP1 SWAP2 SUB SWAP1 RETURN JUMPDEST CALLVALUE DUP1 ISZERO PUSH2 0x227 JUMPI PUSH1 0x0 DUP1 REVERT JUMPDEST POP PUSH2 0x242 PUSH1 0x4 DUP1 CALLDATASIZE SUB DUP2 ADD SWAP1 PUSH2 0x23D SWAP2 SWAP1 PUSH2 0x4746 JUMP JUMPDEST PUSH2 0x7DE JUMP JUMPDEST PUSH1 0x40 MLOAD PUSH2 0x24F SWAP2 SWAP1 PUSH2 0x45BE JUMP JUMPDEST PUSH1 0x40 MLOAD DUP1 SWAP2 SUB SWAP1 RETURN JUMPDEST CALLVALUE DUP1 ISZERO PUSH2 0x264 JUMPI PUSH1 0x0 DUP1 REVERT JUMPDEST POP PUSH2 0x27F PUSH1 0x4 DUP1 CALLDATASIZE SUB DUP2 ADD SWAP1 PUSH2 0x27A SWAP2 SWAP1 PUSH2 0x4970 JUMP JUMPDEST PUSH2 0x7F6 JUMP JUMPDEST STOP JUMPDEST CALLVALUE DUP1 ISZERO PUSH2 0x28D JUMPI PUSH1 0x0 DUP1 REVERT JUMPDEST POP PUSH2 0x2A8 PUSH1 0x4 DUP1 CALLDATASIZE SUB DUP2 ADD SWAP1 PUSH2 0x2A3 SWAP2 SWAP1 PUSH2 0x4746 JUMP JUMPDEST PUSH2 0x897 JUMP JUMPDEST PUSH1 0x40 MLOAD PUSH2 0x2B5 SWAP2 SWAP1 PUSH2 0x4C10 JUMP JUMPDEST PUSH1 0x40 MLOAD DUP1 SWAP2 SUB SWAP1 RETURN JUMPDEST CALLVALUE DUP1 ISZERO PUSH2 0x2CA JUMPI PUSH1 0x0 DUP1 REVERT JUMPDEST POP PUSH2 0x2E5 PUSH1 0x4 DUP1 CALLDATASIZE SUB DUP2 ADD SWAP1 PUSH2 0x2E0 SWAP2 SWAP1 PUSH2 0x4CF5 JUMP JUMPDEST PUSH2 0xDA8 JUMP JUMPDEST PUSH1 0x40 MLOAD PUSH2 0x2F2 SWAP2 SWAP1 PUSH2 0x4E1C JUMP JUMPDEST PUSH1 0x40 MLOAD DUP1 SWAP2 SUB SWAP1 RETURN JUMPDEST CALLVALUE DUP1 ISZERO PUSH2 0x307 JUMPI PUSH1 0x0 DUP1 REVERT JUMPDEST POP PUSH2 0x322 PUSH1 0x4 DUP1 CALLDATASIZE SUB DUP2 ADD SWAP1 PUSH2 0x31D SWAP2 SWAP1 PUSH2 0x4746 JUMP JUMPDEST PUSH2 0xEC1 JUMP JUMPDEST PUSH1 0x40 MLOAD PUSH2 0x32F SWAP2 SWAP1 PUSH2 0x4679 JUMP JUMPDEST PUSH1 0x40 MLOAD DUP1 SWAP2 SUB SWAP1 RETURN JUMPDEST CALLVALUE DUP1 ISZERO PUSH2 0x344 JUMPI PUSH1 0x0 DUP1 REVERT JUMPDEST POP PUSH2 0x34D PUSH2 0xED5 JUMP JUMPDEST PUSH1 0x40 MLOAD PUSH2 0x35A SWAP2 SWAP1 PUSH2 0x5004 JUMP JUMPDEST PUSH1 0x40 MLOAD DUP1 SWAP2 SUB SWAP1 RETURN JUMPDEST CALLVALUE DUP1 ISZERO PUSH2 0x36F JUMPI PUSH1 0x0 DUP1 REVERT JUMPDEST POP PUSH2 0x378 PUSH2 0x10A5 JUMP JUMPDEST PUSH1 0x40 MLOAD PUSH2 0x385 SWAP2 SWAP1 PUSH2 0x45BE JUMP JUMPDEST PUSH1 0x40 MLOAD DUP1 SWAP2 SUB SWAP1 RETURN JUMPDEST CALLVALUE DUP1 ISZERO PUSH2 0x39A JUMPI PUSH1 0x0 DUP1 REVERT JUMPDEST POP PUSH2 0x3A3 PUSH2 0x10DE JUMP JUMPDEST STOP JUMPDEST CALLVALUE DUP1 ISZERO PUSH2 0x3B1 JUMPI PUSH1 0x0 DUP1 REVERT JUMPDEST POP PUSH2 0x3CC PUSH1 0x4 DUP1 CALLDATASIZE SUB DUP2 ADD SWAP1 PUSH2 0x3C7 SWAP2 SWAP1 PUSH2 0x50C7 JUMP JUMPDEST PUSH2 0x1DED JUMP JUMPDEST PUSH1 0x40 MLOAD PUSH2 0x3D9 SWAP2 SWAP1 PUSH2 0x45BE JUMP JUMPDEST PUSH1 0x40 MLOAD DUP1 SWAP2 SUB SWAP1 RETURN JUMPDEST CALLVALUE DUP1 ISZERO PUSH2 0x3EE JUMPI PUSH1 0x0 DUP1 REVERT JUMPDEST POP PUSH2 0x409 PUSH1 0x4 DUP1 CALLDATASIZE SUB DUP2 ADD SWAP1 PUSH2 0x404 SWAP2 SWAP1 PUSH2 0x519C JUMP JUMPDEST PUSH2 0x237E JUMP JUMPDEST STOP JUMPDEST CALLVALUE DUP1 ISZERO PUSH2 0x417 JUMPI PUSH1 0x0 DUP1 REVERT JUMPDEST POP PUSH2 0x420 PUSH2 0x2394 JUMP JUMPDEST PUSH1 0x40 MLOAD PUSH2 0x42D SWAP2 SWAP1 PUSH2 0x51EB JUMP JUMPDEST PUSH1 0x40 MLOAD DUP1 SWAP2 SUB SWAP1 RETURN JUMPDEST CALLVALUE DUP1 ISZERO PUSH2 0x442 JUMPI PUSH1 0x0 DUP1 REVERT JUMPDEST POP PUSH2 0x45D PUSH1 0x4 DUP1 CALLDATASIZE SUB DUP2 ADD SWAP1 PUSH2 0x458 SWAP2 SWAP1 PUSH2 0x4746 JUMP JUMPDEST PUSH2 0x23BA JUMP JUMPDEST PUSH1 0x40 MLOAD PUSH2 0x474 SWAP12 SWAP11 SWAP10 SWAP9 SWAP8 SWAP7 SWAP6 SWAP5 SWAP4 SWAP3 SWAP2 SWAP1 PUSH2 0x5206 JUMP JUMPDEST PUSH1 0x40 MLOAD DUP1 SWAP2 SUB SWAP1 RETURN JUMPDEST CALLVALUE DUP1 ISZERO PUSH2 0x489 JUMPI PUSH1 0x0 DUP1 REVERT JUMPDEST POP PUSH2 0x4A4 PUSH1 0x4 DUP1 CALLDATASIZE SUB DUP2 ADD SWAP1 PUSH2 0x49F SWAP2 SWAP1 PUSH2 0x4746 JUMP JUMPDEST PUSH2 0x2444 JUMP JUMPDEST PUSH1 0x40 MLOAD PUSH2 0x4B1 SWAP2 SWAP1 PUSH2 0x45BE JUMP JUMPDEST PUSH1 0x40 MLOAD DUP1 SWAP2 SUB SWAP1 RETURN JUMPDEST CALLVALUE DUP1 ISZERO PUSH2 0x4C6 JUMPI PUSH1 0x0 DUP1 REVERT JUMPDEST POP PUSH2 0x4E1 PUSH1 0x4 DUP1 CALLDATASIZE SUB DUP2 ADD SWAP1 PUSH2 0x4DC SWAP2 SWAP1 PUSH2 0x52B1 JUMP JUMPDEST PUSH2 0x2461 JUMP JUMPDEST PUSH1 0x40 MLOAD PUSH2 0x4EE SWAP2 SWAP1 PUSH2 0x4679 JUMP JUMPDEST PUSH1 0x40 MLOAD DUP1 SWAP2 SUB SWAP1 RETURN JUMPDEST PUSH2 0x511 PUSH1 0x4 DUP1 CALLDATASIZE SUB DUP2 ADD SWAP1 PUSH2 0x50C SWAP2 SWAP1 PUSH2 0x4746 JUMP JUMPDEST PUSH2 0x24F5 JUMP JUMPDEST STOP JUMPDEST CALLVALUE DUP1 ISZERO PUSH2 0x51F JUMPI PUSH1 0x0 DUP1 REVERT JUMPDEST POP PUSH2 0x53A PUSH1 0x4 DUP1 CALLDATASIZE SUB DUP2 ADD SWAP1 PUSH2 0x535 SWAP2 SWAP1 PUSH2 0x52F1 JUMP JUMPDEST PUSH2 0x2B07 JUMP JUMPDEST STOP JUMPDEST PUSH2 0x556 PUSH1 0x4 DUP1 CALLDATASIZE SUB DUP2 ADD SWAP1 PUSH2 0x551 SWAP2 SWAP1 PUSH2 0x4746 JUMP JUMPDEST PUSH2 0x2BA8 JUMP JUMPDEST STOP JUMPDEST PUSH1 0x0 DUP1 PUSH20 0xFFFFFFFFFFFFFFFFFFFFFFFFFFFFFFFFFFFFFFFF AND DUP4 PUSH20 0xFFFFFFFFFFFFFFFFFFFFFFFFFFFFFFFFFFFFFFFF AND SUB PUSH2 0x5C8 JUMPI PUSH1 0x40 MLOAD PUSH32 0x8C379A000000000000000000000000000000000000000000000000000000000 DUP2 MSTORE PUSH1 0x4 ADD PUSH2 0x5BF SWAP1 PUSH2 0x53FA JUMP JUMPDEST PUSH1 0x40 MLOAD DUP1 SWAP2 SUB SWAP1 REVERT JUMPDEST PUSH1 0x0 DUP1 DUP4 DUP2 MSTORE PUSH1 0x20 ADD SWAP1 DUP2 MSTORE PUSH1 0x20 ADD PUSH1 0x0 KECCAK256 PUSH1 0x0 DUP5 PUSH20 0xFFFFFFFFFFFFFFFFFFFFFFFFFFFFFFFFFFFFFFFF AND PUSH20 0xFFFFFFFFFFFFFFFFFFFFFFFFFFFFFFFFFFFFFFFF AND DUP2 MSTORE PUSH1 0x20 ADD SWAP1 DUP2 MSTORE PUSH1 0x20 ADD PUSH1 0x0 KECCAK256 SLOAD SWAP1 POP SWAP3 SWAP2 POP POP JUMP JUMPDEST PUSH1 0x0 PUSH32 0xD9B67A2600000000000000000000000000000000000000000000000000000000 PUSH28 0xFFFFFFFFFFFFFFFFFFFFFFFFFFFFFFFFFFFFFFFFFFFFFFFFFFFFFFFF NOT AND DUP3 PUSH28 0xFFFFFFFFFFFFFFFFFFFFFFFFFFFFFFFFFFFFFFFFFFFFFFFFFFFFFFFF NOT AND EQ DUP1 PUSH2 0x6EB JUMPI POP PUSH32 0xE89341C00000000000000000000000000000000000000000000000000000000 PUSH28 0xFFFFFFFFFFFFFFFFFFFFFFFFFFFFFFFFFFFFFFFFFFFFFFFFFFFFFFFF NOT AND DUP3 PUSH28 0xFFFFFFFFFFFFFFFFFFFFFFFFFFFFFFFFFFFFFFFFFFFFFFFFFFFFFFFF NOT AND EQ JUMPDEST DUP1 PUSH2 0x6FB JUMPI POP PUSH2 0x6FA DUP3 PUSH2 0x3279 JUMP JUMPDEST JUMPDEST SWAP1 POP SWAP2 SWAP1 POP JUMP JUMPDEST PUSH1 0x6 DUP1 SLOAD PUSH2 0x70F SWAP1 PUSH2 0x5449 JUMP JUMPDEST DUP1 PUSH1 0x1F ADD PUSH1 0x20 DUP1 SWAP2 DIV MUL PUSH1 0x20 ADD PUSH1 0x40 MLOAD SWAP1 DUP2 ADD PUSH1 0x40 MSTORE DUP1 SWAP3 SWAP2 SWAP1 DUP2 DUP2 MSTORE PUSH1 0x20 ADD DUP3 DUP1 SLOAD PUSH2 0x73B SWAP1 PUSH2 0x5449 JUMP JUMPDEST DUP1 ISZERO PUSH2 0x788 JUMPI DUP1 PUSH1 0x1F LT PUSH2 0x75D JUMPI PUSH2 0x100 DUP1 DUP4 SLOAD DIV MUL DUP4 MSTORE SWAP2 PUSH1 0x20 ADD SWAP2 PUSH2 0x788 JUMP JUMPDEST DUP3 ADD SWAP2 SWAP1 PUSH1 0x0 MSTORE PUSH1 0x20 PUSH1 0x0 KECCAK256 SWAP1 JUMPDEST DUP2 SLOAD DUP2 MSTORE SWAP1 PUSH1 0x1 ADD SWAP1 PUSH1 0x20 ADD DUP1 DUP4 GT PUSH2 0x76B JUMPI DUP3 SWAP1 SUB PUSH1 0x1F AND DUP3 ADD SWAP2 JUMPDEST POP POP POP POP POP DUP2 JUMP JUMPDEST PUSH1 0x60 PUSH2 0x7A6 PUSH8 0xE96F58D0016641F0 PUSH1 0xC0 SHL PUSH2 0x32E3 JUMP JUMPDEST PUSH2 0x7BA PUSH8 0xDF160E88D7D1F3F9 PUSH1 0xC0 SHL PUSH2 0x32E3 JUMP JUMPDEST PUSH2 0x7CE PUSH8 0x92BDF2785829703F PUSH1 0xC0 SHL PUSH2 0x32E3 JUMP JUMPDEST PUSH2 0x7D7 DUP3 PUSH2 0x32E6 JUMP JUMPDEST SWAP1 POP SWAP2 SWAP1 POP JUMP JUMPDEST PUSH1 0xB PUSH1 0x20 MSTORE DUP1 PUSH1 0x0 MSTORE PUSH1 0x40 PUSH1 0x0 KECCAK256 PUSH1 0x0 SWAP2 POP SWAP1 POP SLOAD DUP2 JUMP JUMPDEST PUSH2 0x7FE PUSH2 0x33CB JUMP JUMPDEST PUSH20 0xFFFFFFFFFFFFFFFFFFFFFFFFFFFFFFFFFFFFFFFF AND DUP6 PUSH20 0xFFFFFFFFFFFFFFFFFFFFFFFFFFFFFFFFFFFFFFFF AND EQ DUP1 PUSH2 0x844 JUMPI POP PUSH2 0x843 DUP6 PUSH2 0x83E PUSH2 0x33CB JUMP JUMPDEST PUSH2 0x2461 JUMP JUMPDEST JUMPDEST PUSH2 0x883 JUMPI PUSH1 0x40 MLOAD PUSH32 0x8C379A000000000000000000000000000000000000000000000000000000000 DUP2 MSTORE PUSH1 0x4 ADD PUSH2 0x87A SWAP1 PUSH2 0x54EC JUMP JUMPDEST PUSH1 0x40 MLOAD DUP1 SWAP2 SUB SWAP1 REVERT JUMPDEST PUSH2 0x890 DUP6 DUP6 DUP6 DUP6 DUP6 PUSH2 0x33D3 JUMP JUMPDEST POP POP POP POP POP JUMP JUMPDEST PUSH2 0x89F PUSH2 0x4450 JUMP JUMPDEST PUSH2 0x8B3 PUSH8 0x43165DF8C5A51B27 PUSH1 0xC0 SHL PUSH2 0x32E3 JUMP JUMPDEST PUSH2 0x8C7 PUSH8 0x43963916D9AE0299 PUSH1 0xC0 SHL PUSH2 0x32E3 JUMP JUMPDEST PUSH2 0x8DB PUSH8 0x72F04DFF343DBBC PUSH1 0xC0 SHL PUSH2 0x32E3 JUMP JUMPDEST PUSH1 0x0 PUSH1 0x2 DUP4 PUSH2 0x8EA SWAP2 SWAP1 PUSH2 0x553B JUMP JUMPDEST EQ PUSH2 0xB3F JUMPI PUSH2 0x903 PUSH8 0x166D6DC70985146 PUSH1 0xC0 SHL PUSH2 0x32E3 JUMP JUMPDEST PUSH2 0x917 PUSH8 0xA01AFFC48B48BF98 PUSH1 0xC0 SHL PUSH2 0x32E3 JUMP JUMPDEST PUSH2 0x92B PUSH8 0x6BD771CBC19179B4 PUSH1 0xC0 SHL PUSH2 0x32E3 JUMP JUMPDEST PUSH2 0x93F PUSH8 0x3739FAE9C51DC381 PUSH1 0xC0 SHL PUSH2 0x32E3 JUMP JUMPDEST PUSH2 0x948 DUP3 PUSH2 0xEC1 JUMP JUMPDEST PUSH2 0x987 JUMPI PUSH1 0x40 MLOAD PUSH32 0x8C379A000000000000000000000000000000000000000000000000000000000 DUP2 MSTORE PUSH1 0x4 ADD PUSH2 0x97E SWAP1 PUSH2 0x55B8 JUMP JUMPDEST PUSH1 0x40 MLOAD DUP1 SWAP2 SUB SWAP1 REVERT JUMPDEST PUSH2 0x99B PUSH8 0xDDC7DE8FC1036A8F PUSH1 0xC0 SHL PUSH2 0x32E3 JUMP JUMPDEST PUSH2 0x9AF PUSH8 0xD982758CF333F891 PUSH1 0xC0 SHL PUSH2 0x32E3 JUMP JUMPDEST PUSH1 0xA PUSH1 0xB PUSH1 0x0 DUP5 DUP2 MSTORE PUSH1 0x20 ADD SWAP1 DUP2 MSTORE PUSH1 0x20 ADD PUSH1 0x0 KECCAK256 SLOAD DUP2 SLOAD DUP2 LT PUSH2 0x9D6 JUMPI PUSH2 0x9D5 PUSH2 0x55D8 JUMP JUMPDEST JUMPDEST SWAP1 PUSH1 0x0 MSTORE PUSH1 0x20 PUSH1 0x0 KECCAK256 SWAP1 PUSH1 0xC MUL ADD PUSH1 0x40 MLOAD DUP1 PUSH2 0x180 ADD PUSH1 0x40 MSTORE SWAP1 DUP2 PUSH1 0x0 DUP3 ADD PUSH1 0x0 SWAP1 SLOAD SWAP1 PUSH2 0x100 EXP SWAP1 DIV PUSH20 0xFFFFFFFFFFFFFFFFFFFFFFFFFFFFFFFFFFFFFFFF AND PUSH20 0xFFFFFFFFFFFFFFFFFFFFFFFFFFFFFFFFFFFFFFFF AND PUSH20 0xFFFFFFFFFFFFFFFFFFFFFFFFFFFFFFFFFFFFFFFF AND DUP2 MSTORE PUSH1 0x20 ADD PUSH1 0x1 DUP3 ADD SLOAD DUP2 MSTORE PUSH1 0x20 ADD PUSH1 0x2 DUP3 ADD SLOAD DUP2 MSTORE PUSH1 0x20 ADD PUSH1 0x3 DUP3 ADD SLOAD DUP2 MSTORE PUSH1 0x20 ADD PUSH1 0x4 DUP3 ADD SLOAD DUP2 MSTORE PUSH1 0x20 ADD PUSH1 0x5 DUP3 ADD SLOAD DUP2 MSTORE PUSH1 0x20 ADD PUSH1 0x6 DUP3 ADD SLOAD DUP2 MSTORE PUSH1 0x20 ADD PUSH1 0x7 DUP3 ADD SLOAD DUP2 MSTORE PUSH1 0x20 ADD PUSH1 0x8 DUP3 ADD SLOAD DUP2 MSTORE PUSH1 0x20 ADD PUSH1 0x9 DUP3 ADD SLOAD DUP2 MSTORE PUSH1 0x20 ADD PUSH1 0xA DUP3 ADD SLOAD DUP2 MSTORE PUSH1 0x20 ADD PUSH1 0xB DUP3 ADD DUP1 SLOAD DUP1 PUSH1 0x20 MUL PUSH1 0x20 ADD PUSH1 0x40 MLOAD SWAP1 DUP2 ADD PUSH1 0x40 MSTORE DUP1 SWAP3 SWAP2 SWAP1 DUP2 DUP2 MSTORE PUSH1 0x20 ADD DUP3 DUP1 SLOAD DUP1 ISZERO PUSH2 0xB2F JUMPI PUSH1 0x20 MUL DUP3 ADD SWAP2 SWAP1 PUSH1 0x0 MSTORE PUSH1 0x20 PUSH1 0x0 KECCAK256 SWAP1 JUMPDEST DUP2 PUSH1 0x0 SWAP1 SLOAD SWAP1 PUSH2 0x100 EXP SWAP1 DIV PUSH20 0xFFFFFFFFFFFFFFFFFFFFFFFFFFFFFFFFFFFFFFFF AND PUSH20 0xFFFFFFFFFFFFFFFFFFFFFFFFFFFFFFFFFFFFFFFF AND DUP2 MSTORE PUSH1 0x20 ADD SWAP1 PUSH1 0x1 ADD SWAP1 DUP1 DUP4 GT PUSH2 0xAE5 JUMPI JUMPDEST POP POP POP POP POP DUP2 MSTORE POP POP SWAP1 POP PUSH2 0xDA3 JUMP JUMPDEST PUSH2 0xB53 PUSH8 0x6BF80AC86D4E0FE2 PUSH1 0xC0 SHL PUSH2 0x32E3 JUMP JUMPDEST PUSH2 0xB67 PUSH8 0xEEE4128E080C33F9 PUSH1 0xC0 SHL PUSH2 0x32E3 JUMP JUMPDEST PUSH2 0xB7B PUSH8 0xD6691F227AFCD416 PUSH1 0xC0 SHL PUSH2 0x32E3 JUMP JUMPDEST PUSH2 0xB8F PUSH8 0xC37378237B005493 PUSH1 0xC0 SHL PUSH2 0x32E3 JUMP JUMPDEST PUSH2 0xBA4 PUSH1 0x1 DUP4 PUSH2 0xB9F SWAP2 SWAP1 PUSH2 0x5636 JUMP JUMPDEST PUSH2 0xEC1 JUMP JUMPDEST PUSH2 0xBE3 JUMPI PUSH1 0x40 MLOAD PUSH32 0x8C379A000000000000000000000000000000000000000000000000000000000 DUP2 MSTORE PUSH1 0x4 ADD PUSH2 0xBDA SWAP1 PUSH2 0x55B8 JUMP JUMPDEST PUSH1 0x40 MLOAD DUP1 SWAP2 SUB SWAP1 REVERT JUMPDEST PUSH2 0xBF7 PUSH8 0x2A7E9247EB2C962A PUSH1 0xC0 SHL PUSH2 0x32E3 JUMP JUMPDEST PUSH2 0xC0B PUSH8 0x4EFA88F7B1A804A4 PUSH1 0xC0 SHL PUSH2 0x32E3 JUMP JUMPDEST PUSH1 0xA PUSH1 0xB PUSH1 0x0 PUSH1 0x1 DUP6 PUSH2 0xC1E SWAP2 SWAP1 PUSH2 0x5636 JUMP JUMPDEST DUP2 MSTORE PUSH1 0x20 ADD SWAP1 DUP2 MSTORE PUSH1 0x20 ADD PUSH1 0x0 KECCAK256 SLOAD DUP2 SLOAD DUP2 LT PUSH2 0xC3E JUMPI PUSH2 0xC3D PUSH2 0x55D8 JUMP JUMPDEST JUMPDEST SWAP1 PUSH1 0x0 MSTORE PUSH1 0x20 PUSH1 0x0 KECCAK256 SWAP1 PUSH1 0xC MUL ADD PUSH1 0x40 MLOAD DUP1 PUSH2 0x180 ADD PUSH1 0x40 MSTORE SWAP1 DUP2 PUSH1 0x0 DUP3 ADD PUSH1 0x0 SWAP1 SLOAD SWAP1 PUSH2 0x100 EXP SWAP1 DIV PUSH20 0xFFFFFFFFFFFFFFFFFFFFFFFFFFFFFFFFFFFFFFFF AND PUSH20 0xFFFFFFFFFFFFFFFFFFFFFFFFFFFFFFFFFFFFFFFF AND PUSH20 0xFFFFFFFFFFFFFFFFFFFFFFFFFFFFFFFFFFFFFFFF AND DUP2 MSTORE PUSH1 0x20 ADD PUSH1 0x1 DUP3 ADD SLOAD DUP2 MSTORE PUSH1 0x20 ADD PUSH1 0x2 DUP3 ADD SLOAD DUP2 MSTORE PUSH1 0x20 ADD PUSH1 0x3 DUP3 ADD SLOAD DUP2 MSTORE PUSH1 0x20 ADD PUSH1 0x4 DUP3 ADD SLOAD DUP2 MSTORE PUSH1 0x20 ADD PUSH1 0x5 DUP3 ADD SLOAD DUP2 MSTORE PUSH1 0x20 ADD PUSH1 0x6 DUP3 ADD SLOAD DUP2 MSTORE PUSH1 0x20 ADD PUSH1 0x7 DUP3 ADD SLOAD DUP2 MSTORE PUSH1 0x20 ADD PUSH1 0x8 DUP3 ADD SLOAD DUP2 MSTORE PUSH1 0x20 ADD PUSH1 0x9 DUP3 ADD SLOAD DUP2 MSTORE PUSH1 0x20 ADD PUSH1 0xA DUP3 ADD SLOAD DUP2 MSTORE PUSH1 0x20 ADD PUSH1 0xB DUP3 ADD DUP1 SLOAD DUP1 PUSH1 0x20 MUL PUSH1 0x20 ADD PUSH1 0x40 MLOAD SWAP1 DUP2 ADD PUSH1 0x40 MSTORE DUP1 SWAP3 SWAP2 SWAP1 DUP2 DUP2 MSTORE PUSH1 0x20 ADD DUP3 DUP1 SLOAD DUP1 ISZERO PUSH2 0xD97 JUMPI PUSH1 0x20 MUL DUP3 ADD SWAP2 SWAP1 PUSH1 0x0 MSTORE PUSH1 0x20 PUSH1 0x0 KECCAK256 SWAP1 JUMPDEST DUP2 PUSH1 0x0 SWAP1 SLOAD SWAP1 PUSH2 0x100 EXP SWAP1 DIV PUSH20 0xFFFFFFFFFFFFFFFFFFFFFFFFFFFFFFFFFFFFFFFF AND PUSH20 0xFFFFFFFFFFFFFFFFFFFFFFFFFFFFFFFFFFFFFFFF AND DUP2 MSTORE PUSH1 0x20 ADD SWAP1 PUSH1 0x1 ADD SWAP1 DUP1 DUP4 GT PUSH2 0xD4D JUMPI JUMPDEST POP POP POP POP POP DUP2 MSTORE POP POP SWAP1 POP JUMPDEST SWAP2 SWAP1 POP JUMP JUMPDEST PUSH1 0x60 DUP2 MLOAD DUP4 MLOAD EQ PUSH2 0xDEE JUMPI PUSH1 0x40 MLOAD PUSH32 0x8C379A000000000000000000000000000000000000000000000000000000000 DUP2 MSTORE PUSH1 0x4 ADD PUSH2 0xDE5 SWAP1 PUSH2 0x56DC JUMP JUMPDEST PUSH1 0x40 MLOAD DUP1 SWAP2 SUB SWAP1 REVERT JUMPDEST PUSH1 0x0 DUP4 MLOAD PUSH8 0xFFFFFFFFFFFFFFFF DUP2 GT ISZERO PUSH2 0xE0B JUMPI PUSH2 0xE0A PUSH2 0x4778 JUMP JUMPDEST JUMPDEST PUSH1 0x40 MLOAD SWAP1 DUP1 DUP3 MSTORE DUP1 PUSH1 0x20 MUL PUSH1 0x20 ADD DUP3 ADD PUSH1 0x40 MSTORE DUP1 ISZERO PUSH2 0xE39 JUMPI DUP2 PUSH1 0x20 ADD PUSH1 0x20 DUP3 MUL DUP1 CALLDATASIZE DUP4 CALLDATACOPY DUP1 DUP3 ADD SWAP2 POP POP SWAP1 POP JUMPDEST POP SWAP1 POP PUSH1 0x0 JUMPDEST DUP5 MLOAD DUP2 LT ISZERO PUSH2 0xEB6 JUMPI PUSH2 0xE86 DUP6 DUP3 DUP2 MLOAD DUP2 LT PUSH2 0xE5E JUMPI PUSH2 0xE5D PUSH2 0x55D8 JUMP JUMPDEST JUMPDEST PUSH1 0x20 MUL PUSH1 0x20 ADD ADD MLOAD DUP6 DUP4 DUP2 MLOAD DUP2 LT PUSH2 0xE79 JUMPI PUSH2 0xE78 PUSH2 0x55D8 JUMP JUMPDEST JUMPDEST PUSH1 0x20 MUL PUSH1 0x20 ADD ADD MLOAD PUSH2 0x558 JUMP JUMPDEST DUP3 DUP3 DUP2 MLOAD DUP2 LT PUSH2 0xE99 JUMPI PUSH2 0xE98 PUSH2 0x55D8 JUMP JUMPDEST JUMPDEST PUSH1 0x20 MUL PUSH1 0x20 ADD ADD DUP2 DUP2 MSTORE POP POP DUP1 PUSH2 0xEAF SWAP1 PUSH2 0x56FC JUMP JUMPDEST SWAP1 POP PUSH2 0xE3F JUMP JUMPDEST POP DUP1 SWAP2 POP POP SWAP3 SWAP2 POP POP JUMP JUMPDEST PUSH1 0x0 DUP1 PUSH2 0xECD DUP4 PUSH2 0x2444 JUMP JUMPDEST GT SWAP1 POP SWAP2 SWAP1 POP JUMP JUMPDEST PUSH1 0x60 PUSH2 0xEEB PUSH8 0xB950BB99F005FEC8 PUSH1 0xC0 SHL PUSH2 0x32E3 JUMP JUMPDEST PUSH2 0xEFF PUSH8 0xE4B3048CE3C0F5D3 PUSH1 0xC0 SHL PUSH2 0x32E3 JUMP JUMPDEST PUSH1 0xA DUP1 SLOAD DUP1 PUSH1 0x20 MUL PUSH1 0x20 ADD PUSH1 0x40 MLOAD SWAP1 DUP2 ADD PUSH1 0x40 MSTORE DUP1 SWAP3 SWAP2 SWAP1 DUP2 DUP2 MSTORE PUSH1 0x20 ADD PUSH1 0x0 SWAP1 JUMPDEST DUP3 DUP3 LT ISZERO PUSH2 0x109C JUMPI DUP4 DUP3 SWAP1 PUSH1 0x0 MSTORE PUSH1 0x20 PUSH1 0x0 KECCAK256 SWAP1 PUSH1 0xC MUL ADD PUSH1 0x40 MLOAD DUP1 PUSH2 0x180 ADD PUSH1 0x40 MSTORE SWAP1 DUP2 PUSH1 0x0 DUP3 ADD PUSH1 0x0 SWAP1 SLOAD SWAP1 PUSH2 0x100 EXP SWAP1 DIV PUSH20 0xFFFFFFFFFFFFFFFFFFFFFFFFFFFFFFFFFFFFFFFF AND PUSH20 0xFFFFFFFFFFFFFFFFFFFFFFFFFFFFFFFFFFFFFFFF AND PUSH20 0xFFFFFFFFFFFFFFFFFFFFFFFFFFFFFFFFFFFFFFFF AND DUP2 MSTORE PUSH1 0x20 ADD PUSH1 0x1 DUP3 ADD SLOAD DUP2 MSTORE PUSH1 0x20 ADD PUSH1 0x2 DUP3 ADD SLOAD DUP2 MSTORE PUSH1 0x20 ADD PUSH1 0x3 DUP3 ADD SLOAD DUP2 MSTORE PUSH1 0x20 ADD PUSH1 0x4 DUP3 ADD SLOAD DUP2 MSTORE PUSH1 0x20 ADD PUSH1 0x5 DUP3 ADD SLOAD DUP2 MSTORE PUSH1 0x20 ADD PUSH1 0x6 DUP3 ADD SLOAD DUP2 MSTORE PUSH1 0x20 ADD PUSH1 0x7 DUP3 ADD SLOAD DUP2 MSTORE PUSH1 0x20 ADD PUSH1 0x8 DUP3 ADD SLOAD DUP2 MSTORE PUSH1 0x20 ADD PUSH1 0x9 DUP3 ADD SLOAD DUP2 MSTORE PUSH1 0x20 ADD PUSH1 0xA DUP3 ADD SLOAD DUP2 MSTORE PUSH1 0x20 ADD PUSH1 0xB DUP3 ADD DUP1 SLOAD DUP1 PUSH1 0x20 MUL PUSH1 0x20 ADD PUSH1 0x40 MLOAD SWAP1 DUP2 ADD PUSH1 0x40 MSTORE DUP1 SWAP3 SWAP2 SWAP1 DUP2 DUP2 MSTORE PUSH1 0x20 ADD DUP3 DUP1 SLOAD DUP1 ISZERO PUSH2 0x1084 JUMPI PUSH1 0x20 MUL DUP3 ADD SWAP2 SWAP1 PUSH1 0x0 MSTORE PUSH1 0x20 PUSH1 0x0 KECCAK256 SWAP1 JUMPDEST DUP2 PUSH1 0x0 SWAP1 SLOAD SWAP1 PUSH2 0x100 EXP SWAP1 DIV PUSH20 0xFFFFFFFFFFFFFFFFFFFFFFFFFFFFFFFFFFFFFFFF AND PUSH20 0xFFFFFFFFFFFFFFFFFFFFFFFFFFFFFFFFFFFFFFFF AND DUP2 MSTORE PUSH1 0x20 ADD SWAP1 PUSH1 0x1 ADD SWAP1 DUP1 DUP4 GT PUSH2 0x103A JUMPI JUMPDEST POP POP POP POP POP DUP2 MSTORE POP POP DUP2 MSTORE PUSH1 0x20 ADD SWAP1 PUSH1 0x1 ADD SWAP1 PUSH2 0xF21 JUMP JUMPDEST POP POP POP POP SWAP1 POP SWAP1 JUMP JUMPDEST PUSH1 0x0 PUSH2 0x10BB PUSH8 0x353AF7EA390C79FB PUSH1 0xC0 SHL PUSH2 0x32E3 JUMP JUMPDEST PUSH2 0x10CF PUSH8 0x5EFA0CB9F4A6DCBA PUSH1 0xC0 SHL PUSH2 0x32E3 JUMP JUMPDEST PUSH2 0x10D9 PUSH1 0x7 PUSH2 0x36F4 JUMP JUMPDEST SWAP1 POP SWAP1 JUMP JUMPDEST PUSH2 0x10F1 PUSH7 0x192C17E2367FF6 PUSH1 0xC0 SHL PUSH2 0x32E3 JUMP JUMPDEST PUSH2 0x1105 PUSH8 0xEFFB976D2081988C PUSH1 0xC0 SHL PUSH2 0x32E3 JUMP JUMPDEST PUSH2 0x1119 PUSH8 0xFDE77F3317BB46BF PUSH1 0xC0 SHL PUSH2 0x32E3 JUMP JUMPDEST PUSH2 0x112D PUSH8 0xF1A88DCA251AD6B3 PUSH1 0xC0 SHL PUSH2 0x32E3 JUMP JUMPDEST PUSH1 0x0 PUSH2 0x1143 PUSH8 0x4B4BCB740E7CC10C PUSH1 0xC0 SHL PUSH2 0x32E3 JUMP JUMPDEST PUSH2 0x1157 PUSH8 0x4CEC375E903AC5A7 PUSH1 0xC0 SHL PUSH2 0x32E3 JUMP JUMPDEST PUSH1 0x0 JUMPDEST PUSH1 0xA DUP1 SLOAD SWAP1 POP DUP2 LT ISZERO PUSH2 0x1427 JUMPI PUSH2 0x117B PUSH8 0xD9C2FAC3B1F3D925 PUSH1 0xC0 SHL PUSH2 0x32E3 JUMP JUMPDEST PUSH2 0x118F PUSH8 0x27DF76B7759E4F37 PUSH1 0xC0 SHL PUSH2 0x32E3 JUMP JUMPDEST PUSH1 0x0 PUSH1 0xA DUP3 DUP2 SLOAD DUP2 LT PUSH2 0x11A5 JUMPI PUSH2 0x11A4 PUSH2 0x55D8 JUMP JUMPDEST JUMPDEST SWAP1 PUSH1 0x0 MSTORE PUSH1 0x20 PUSH1 0x0 KECCAK256 SWAP1 PUSH1 0xC MUL ADD PUSH1 0x40 MLOAD DUP1 PUSH2 0x180 ADD PUSH1 0x40 MSTORE SWAP1 DUP2 PUSH1 0x0 DUP3 ADD PUSH1 0x0 SWAP1 SLOAD SWAP1 PUSH2 0x100 EXP SWAP1 DIV PUSH20 0xFFFFFFFFFFFFFFFFFFFFFFFFFFFFFFFFFFFFFFFF AND PUSH20 0xFFFFFFFFFFFFFFFFFFFFFFFFFFFFFFFFFFFFFFFF AND PUSH20 0xFFFFFFFFFFFFFFFFFFFFFFFFFFFFFFFFFFFFFFFF AND DUP2 MSTORE PUSH1 0x20 ADD PUSH1 0x1 DUP3 ADD SLOAD DUP2 MSTORE PUSH1 0x20 ADD PUSH1 0x2 DUP3 ADD SLOAD DUP2 MSTORE PUSH1 0x20 ADD PUSH1 0x3 DUP3 ADD SLOAD DUP2 MSTORE PUSH1 0x20 ADD PUSH1 0x4 DUP3 ADD SLOAD DUP2 MSTORE PUSH1 0x20 ADD PUSH1 0x5 DUP3 ADD SLOAD DUP2 MSTORE PUSH1 0x20 ADD PUSH1 0x6 DUP3 ADD SLOAD DUP2 MSTORE PUSH1 0x20 ADD PUSH1 0x7 DUP3 ADD SLOAD DUP2 MSTORE PUSH1 0x20 ADD PUSH1 0x8 DUP3 ADD SLOAD DUP2 MSTORE PUSH1 0x20 ADD PUSH1 0x9 DUP3 ADD SLOAD DUP2 MSTORE PUSH1 0x20 ADD PUSH1 0xA DUP3 ADD SLOAD DUP2 MSTORE PUSH1 0x20 ADD PUSH1 0xB DUP3 ADD DUP1 SLOAD DUP1 PUSH1 0x20 MUL PUSH1 0x20 ADD PUSH1 0x40 MLOAD SWAP1 DUP2 ADD PUSH1 0x40 MSTORE DUP1 SWAP3 SWAP2 SWAP1 DUP2 DUP2 MSTORE PUSH1 0x20 ADD DUP3 DUP1 SLOAD DUP1 ISZERO PUSH2 0x12FE JUMPI PUSH1 0x20 MUL DUP3 ADD SWAP2 SWAP1 PUSH1 0x0 MSTORE PUSH1 0x20 PUSH1 0x0 KECCAK256 SWAP1 JUMPDEST DUP2 PUSH1 0x0 SWAP1 SLOAD SWAP1 PUSH2 0x100 EXP SWAP1 DIV PUSH20 0xFFFFFFFFFFFFFFFFFFFFFFFFFFFFFFFFFFFFFFFF AND PUSH20 0xFFFFFFFFFFFFFFFFFFFFFFFFFFFFFFFFFFFFFFFF AND DUP2 MSTORE PUSH1 0x20 ADD SWAP1 PUSH1 0x1 ADD SWAP1 DUP1 DUP4 GT PUSH2 0x12B4 JUMPI JUMPDEST POP POP POP POP POP DUP2 MSTORE POP POP SWAP1 POP PUSH2 0x131D PUSH8 0xFBCD188630CF4977 PUSH1 0xC0 SHL PUSH2 0x32E3 JUMP JUMPDEST PUSH2 0x1331 PUSH8 0x4DB8AAF403998A82 PUSH1 0xC0 SHL PUSH2 0x32E3 JUMP JUMPDEST PUSH1 0x0 PUSH2 0x1341 CALLER DUP4 PUSH1 0x40 ADD MLOAD PUSH2 0x558 JUMP JUMPDEST GT DUP1 ISZERO PUSH2 0x135E JUMPI POP PUSH2 0x135D PUSH8 0x62C41D757B33D36A PUSH1 0xC0 SHL PUSH2 0x3702 JUMP JUMPDEST JUMPDEST DUP1 PUSH2 0x13B4 JUMPI POP CALLER PUSH20 0xFFFFFFFFFFFFFFFFFFFFFFFFFFFFFFFFFFFFFFFF AND DUP2 PUSH1 0x0 ADD MLOAD PUSH20 0xFFFFFFFFFFFFFFFFFFFFFFFFFFFFFFFFFFFFFFFF AND EQ DUP1 ISZERO PUSH2 0x13B3 JUMPI POP PUSH2 0x13B2 PUSH8 0xD381E7714C915059 PUSH1 0xC0 SHL PUSH2 0x3702 JUMP JUMPDEST JUMPDEST JUMPDEST ISZERO PUSH2 0x13FF JUMPI PUSH2 0x13CD PUSH8 0xC8A2AC060B933608 PUSH1 0xC0 SHL PUSH2 0x32E3 JUMP JUMPDEST PUSH2 0x13E1 PUSH8 0x6A6B03FC10F4F3DB PUSH1 0xC0 SHL PUSH2 0x32E3 JUMP JUMPDEST PUSH1 0x1 SWAP3 POP PUSH2 0x13F9 PUSH8 0xE07FAD35A71FDF6 PUSH1 0xC0 SHL PUSH2 0x32E3 JUMP JUMPDEST POP PUSH2 0x1427 JUMP JUMPDEST PUSH2 0x1413 PUSH8 0x15829547A2BCE3AC PUSH1 0xC0 SHL PUSH2 0x32E3 JUMP JUMPDEST POP DUP1 DUP1 PUSH2 0x141F SWAP1 PUSH2 0x56FC JUMP JUMPDEST SWAP2 POP POP PUSH2 0x115A JUMP JUMPDEST POP PUSH2 0x143C PUSH8 0x374012503295F1D PUSH1 0xC0 SHL PUSH2 0x32E3 JUMP JUMPDEST PUSH2 0x1450 PUSH8 0x84C3697E87283CE1 PUSH1 0xC0 SHL PUSH2 0x32E3 JUMP JUMPDEST PUSH1 0x9 PUSH1 0x0 SWAP1 SLOAD SWAP1 PUSH2 0x100 EXP SWAP1 DIV PUSH20 0xFFFFFFFFFFFFFFFFFFFFFFFFFFFFFFFFFFFFFFFF AND PUSH20 0xFFFFFFFFFFFFFFFFFFFFFFFFFFFFFFFFFFFFFFFF AND CALLER PUSH20 0xFFFFFFFFFFFFFFFFFFFFFFFFFFFFFFFFFFFFFFFF AND SUB PUSH2 0x14D6 JUMPI PUSH2 0x14B9 PUSH8 0xA02F5BA6C5A15325 PUSH1 0xC0 SHL PUSH2 0x32E3 JUMP JUMPDEST PUSH2 0x14CD PUSH8 0xE3EFD31073B3EE58 PUSH1 0xC0 SHL PUSH2 0x32E3 JUMP JUMPDEST PUSH1 0x1 SWAP1 POP PUSH2 0x14EB JUMP JUMPDEST PUSH2 0x14EA PUSH8 0xB456BAC688FF1EE PUSH1 0xC0 SHL PUSH2 0x32E3 JUMP JUMPDEST JUMPDEST PUSH2 0x14FF PUSH8 0xD3827F5C46DEB192 PUSH1 0xC0 SHL PUSH2 0x32E3 JUMP JUMPDEST PUSH2 0x1513 PUSH8 0xF6F5DFE2625BD536 PUSH1 0xC0 SHL PUSH2 0x32E3 JUMP JUMPDEST PUSH2 0x1527 PUSH8 0xE33A4690D748F250 PUSH1 0xC0 SHL PUSH2 0x32E3 JUMP JUMPDEST DUP1 PUSH2 0x1567 JUMPI PUSH1 0x40 MLOAD PUSH32 0x8C379A000000000000000000000000000000000000000000000000000000000 DUP2 MSTORE PUSH1 0x4 ADD PUSH2 0x155E SWAP1 PUSH2 0x57B6 JUMP JUMPDEST PUSH1 0x40 MLOAD DUP1 SWAP2 SUB SWAP1 REVERT JUMPDEST PUSH2 0x157B PUSH8 0xC9812391A1FEC41E PUSH1 0xC0 SHL PUSH2 0x32E3 JUMP JUMPDEST PUSH2 0x158F PUSH8 0x87F852E2F748BC2B PUSH1 0xC0 SHL PUSH2 0x32E3 JUMP JUMPDEST PUSH2 0x15A3 PUSH8 0x39A203D4FE88E16A PUSH1 0xC0 SHL PUSH2 0x32E3 JUMP JUMPDEST PUSH2 0x15B7 PUSH8 0x40C143D08573337E PUSH1 0xC0 SHL PUSH2 0x32E3 JUMP JUMPDEST PUSH2 0x15CB PUSH8 0xF05D98E25128E6AA PUSH1 0xC0 SHL PUSH2 0x32E3 JUMP JUMPDEST PUSH2 0x15DF PUSH8 0x8C0B7E8D0887D1D0 PUSH1 0xC0 SHL PUSH2 0x32E3 JUMP JUMPDEST PUSH1 0x0 JUMPDEST PUSH1 0xA DUP1 SLOAD SWAP1 POP DUP2 LT ISZERO PUSH2 0x1C43 JUMPI PUSH2 0x1603 PUSH8 0xD5E06E7A30749586 PUSH1 0xC0 SHL PUSH2 0x32E3 JUMP JUMPDEST PUSH2 0x1617 PUSH8 0xFD7A8C993978227D PUSH1 0xC0 SHL PUSH2 0x32E3 JUMP JUMPDEST PUSH1 0x0 PUSH2 0x162D PUSH8 0x4F8E8664AA6EE8EE PUSH1 0xC0 SHL PUSH2 0x32E3 JUMP JUMPDEST PUSH1 0xA DUP3 DUP2 SLOAD DUP2 LT PUSH2 0x1641 JUMPI PUSH2 0x1640 PUSH2 0x55D8 JUMP JUMPDEST JUMPDEST SWAP1 PUSH1 0x0 MSTORE PUSH1 0x20 PUSH1 0x0 KECCAK256 SWAP1 PUSH1 0xC MUL ADD SWAP1 POP PUSH2 0x1665 PUSH8 0x40A9FDF1DFD4FE6A PUSH1 0xC0 SHL PUSH2 0x32E3 JUMP JUMPDEST PUSH2 0x1679 PUSH8 0x26B0AB715B4ABB09 PUSH1 0xC0 SHL PUSH2 0x32E3 JUMP JUMPDEST PUSH1 0x0 DUP2 PUSH1 0x9 ADD SLOAD PUSH1 0x64 DUP4 PUSH1 0x7 ADD SLOAD PUSH2 0x1691 SWAP2 SWAP1 PUSH2 0x57D6 JUMP JUMPDEST PUSH2 0x169B SWAP2 SWAP1 PUSH2 0x5807 JUMP JUMPDEST SWAP1 POP PUSH2 0x16B1 PUSH8 0x9930B9B7CE2DBC6E PUSH1 0xC0 SHL PUSH2 0x32E3 JUMP JUMPDEST PUSH2 0x16C5 PUSH8 0x4511AD7431708C36 PUSH1 0xC0 SHL PUSH2 0x32E3 JUMP JUMPDEST PUSH1 0x0 DUP2 DUP4 PUSH1 0x7 ADD SLOAD PUSH2 0x16D7 SWAP2 SWAP1 PUSH2 0x5636 JUMP JUMPDEST SWAP1 POP PUSH2 0x16ED PUSH8 0xAE7E718F5705A4B1 PUSH1 0xC0 SHL PUSH2 0x32E3 JUMP JUMPDEST PUSH2 0x1701 PUSH8 0x3F1C070A945B97AE PUSH1 0xC0 SHL PUSH2 0x32E3 JUMP JUMPDEST PUSH1 0x0 DUP4 PUSH1 0x9 ADD SLOAD PUSH1 0x64 DUP6 PUSH1 0x8 ADD SLOAD PUSH2 0x1719 SWAP2 SWAP1 PUSH2 0x57D6 JUMP JUMPDEST PUSH2 0x1723 SWAP2 SWAP1 PUSH2 0x5807 JUMP JUMPDEST SWAP1 POP PUSH2 0x1739 PUSH8 0xCA0BF1AC407CCB1C PUSH1 0xC0 SHL PUSH2 0x32E3 JUMP JUMPDEST PUSH2 0x174D PUSH8 0x86B740C548BC01F PUSH1 0xC0 SHL PUSH2 0x32E3 JUMP JUMPDEST PUSH1 0x0 DUP2 DUP6 PUSH1 0x8 ADD SLOAD PUSH2 0x175F SWAP2 SWAP1 PUSH2 0x5636 JUMP JUMPDEST SWAP1 POP PUSH2 0x1775 PUSH8 0x829FBD331B07DFC1 PUSH1 0xC0 SHL PUSH2 0x32E3 JUMP JUMPDEST PUSH2 0x1789 PUSH8 0x806A0231C36FE5A1 PUSH1 0xC0 SHL PUSH2 0x32E3 JUMP JUMPDEST PUSH1 0x0 DUP6 PUSH1 0xB ADD DUP1 SLOAD DUP1 PUSH1 0x20 MUL PUSH1 0x20 ADD PUSH1 0x40 MLOAD SWAP1 DUP2 ADD PUSH1 0x40 MSTORE DUP1 SWAP3 SWAP2 SWAP1 DUP2 DUP2 MSTORE PUSH1 0x20 ADD DUP3 DUP1 SLOAD DUP1 ISZERO PUSH2 0x180F JUMPI PUSH1 0x20 MUL DUP3 ADD SWAP2 SWAP1 PUSH1 0x0 MSTORE PUSH1 0x20 PUSH1 0x0 KECCAK256 SWAP1 JUMPDEST DUP2 PUSH1 0x0 SWAP1 SLOAD SWAP1 PUSH2 0x100 EXP SWAP1 DIV PUSH20 0xFFFFFFFFFFFFFFFFFFFFFFFFFFFFFFFFFFFFFFFF AND PUSH20 0xFFFFFFFFFFFFFFFFFFFFFFFFFFFFFFFFFFFFFFFF AND DUP2 MSTORE PUSH1 0x20 ADD SWAP1 PUSH1 0x1 ADD SWAP1 DUP1 DUP4 GT PUSH2 0x17C5 JUMPI JUMPDEST POP POP POP POP POP SWAP1 POP PUSH2 0x182A PUSH8 0xD48077C04FDB4DC1 PUSH1 0xC0 SHL PUSH2 0x32E3 JUMP JUMPDEST PUSH2 0x183E PUSH8 0x9594313ECBDD1F53 PUSH1 0xC0 SHL PUSH2 0x32E3 JUMP JUMPDEST PUSH1 0x0 DUP7 PUSH1 0x3 ADD SLOAD DUP8 PUSH1 0xA ADD SLOAD PUSH1 0x64 DUP10 PUSH1 0x7 ADD SLOAD PUSH2 0x185B SWAP2 SWAP1 PUSH2 0x57D6 JUMP JUMPDEST PUSH2 0x1865 SWAP2 SWAP1 PUSH2 0x5807 JUMP JUMPDEST PUSH2 0x186F SWAP2 SWAP1 PUSH2 0x57D6 JUMP JUMPDEST SWAP1 POP PUSH2 0x1885 PUSH8 0xE8CB1E86E79DC600 PUSH1 0xC0 SHL PUSH2 0x32E3 JUMP JUMPDEST PUSH2 0x1899 PUSH8 0xDC3C9BBACCA826D1 PUSH1 0xC0 SHL PUSH2 0x32E3 JUMP JUMPDEST PUSH1 0x0 DUP3 MLOAD DUP3 PUSH2 0x18A8 SWAP2 SWAP1 PUSH2 0x5807 JUMP JUMPDEST SWAP1 POP PUSH2 0x18BE PUSH8 0x2676DCAA08245E85 PUSH1 0xC0 SHL PUSH2 0x32E3 JUMP JUMPDEST PUSH2 0x18D2 PUSH8 0x3F12F6F642C645D7 PUSH1 0xC0 SHL PUSH2 0x32E3 JUMP JUMPDEST PUSH1 0x0 DUP2 DUP6 DUP9 PUSH2 0x18E1 SWAP2 SWAP1 PUSH2 0x5849 JUMP JUMPDEST PUSH2 0x18EB SWAP2 SWAP1 PUSH2 0x5636 JUMP JUMPDEST SWAP1 POP PUSH2 0x1901 PUSH8 0xFBE2F9732C7273F2 PUSH1 0xC0 SHL PUSH2 0x32E3 JUMP JUMPDEST PUSH1 0x0 DUP10 PUSH1 0x7 ADD DUP2 SWAP1 SSTORE POP PUSH2 0x191F PUSH8 0x62BBD5F608D6DFB3 PUSH1 0xC0 SHL PUSH2 0x32E3 JUMP JUMPDEST PUSH1 0x0 DUP10 PUSH1 0x8 ADD DUP2 SWAP1 SSTORE POP PUSH2 0x193D PUSH8 0x8BFD98E462162753 PUSH1 0xC0 SHL PUSH2 0x32E3 JUMP JUMPDEST PUSH2 0x1951 PUSH8 0xD49B176BE94928C1 PUSH1 0xC0 SHL PUSH2 0x32E3 JUMP JUMPDEST PUSH1 0x0 DUP10 PUSH1 0x0 ADD PUSH1 0x0 SWAP1 SLOAD SWAP1 PUSH2 0x100 EXP SWAP1 DIV PUSH20 0xFFFFFFFFFFFFFFFFFFFFFFFFFFFFFFFFFFFFFFFF AND PUSH20 0xFFFFFFFFFFFFFFFFFFFFFFFFFFFFFFFFFFFFFFFF AND DUP3 PUSH1 0x40 MLOAD PUSH2 0x199B SWAP1 PUSH2 0x58AE JUMP JUMPDEST PUSH1 0x0 PUSH1 0x40 MLOAD DUP1 DUP4 SUB DUP2 DUP6 DUP8 GAS CALL SWAP3 POP POP POP RETURNDATASIZE DUP1 PUSH1 0x0 DUP2 EQ PUSH2 0x19D8 JUMPI PUSH1 0x40 MLOAD SWAP2 POP PUSH1 0x1F NOT PUSH1 0x3F RETURNDATASIZE ADD AND DUP3 ADD PUSH1 0x40 MSTORE RETURNDATASIZE DUP3 MSTORE RETURNDATASIZE PUSH1 0x0 PUSH1 0x20 DUP5 ADD RETURNDATACOPY PUSH2 0x19DD JUMP JUMPDEST PUSH1 0x60 SWAP2 POP JUMPDEST POP POP SWAP1 POP PUSH2 0x19F5 PUSH8 0x8C66EDD5A7648E7A PUSH1 0xC0 SHL PUSH2 0x32E3 JUMP JUMPDEST PUSH2 0x1A09 PUSH8 0x6F62EE41CBBD85B0 PUSH1 0xC0 SHL PUSH2 0x32E3 JUMP JUMPDEST PUSH2 0x1A1D PUSH8 0x760CB2CDE59CB577 PUSH1 0xC0 SHL PUSH2 0x32E3 JUMP JUMPDEST DUP1 PUSH2 0x1A5D JUMPI PUSH1 0x40 MLOAD PUSH32 0x8C379A000000000000000000000000000000000000000000000000000000000 DUP2 MSTORE PUSH1 0x4 ADD PUSH2 0x1A54 SWAP1 PUSH2 0x5935 JUMP JUMPDEST PUSH1 0x40 MLOAD DUP1 SWAP2 SUB SWAP1 REVERT JUMPDEST PUSH2 0x1A71 PUSH8 0xF94805A6DA7BD286 PUSH1 0xC0 SHL PUSH2 0x32E3 JUMP JUMPDEST PUSH2 0x1A85 PUSH8 0x648BA9BE45143670 PUSH1 0xC0 SHL PUSH2 0x32E3 JUMP JUMPDEST PUSH2 0x1A99 PUSH8 0x4F2620572167DF26 PUSH1 0xC0 SHL PUSH2 0x32E3 JUMP JUMPDEST PUSH1 0x0 JUMPDEST DUP6 MLOAD DUP2 LT ISZERO PUSH2 0x1C25 JUMPI PUSH2 0x1AB9 PUSH8 0xDD4E95344DCA50D9 PUSH1 0xC0 SHL PUSH2 0x32E3 JUMP JUMPDEST PUSH2 0x1ACD PUSH8 0x7CD96D163F6382DF PUSH1 0xC0 SHL PUSH2 0x32E3 JUMP JUMPDEST PUSH1 0x0 DUP7 DUP14 DUP2 MLOAD DUP2 LT PUSH2 0x1AE2 JUMPI PUSH2 0x1AE1 PUSH2 0x55D8 JUMP JUMPDEST JUMPDEST PUSH1 0x20 MUL PUSH1 0x20 ADD ADD MLOAD SWAP1 POP PUSH2 0x1B00 PUSH8 0x44638C7AC7307F61 PUSH1 0xC0 SHL PUSH2 0x32E3 JUMP JUMPDEST PUSH2 0x1B14 PUSH8 0x4A49A8A91CC52070 PUSH1 0xC0 SHL PUSH2 0x32E3 JUMP JUMPDEST PUSH1 0x0 DUP2 PUSH20 0xFFFFFFFFFFFFFFFFFFFFFFFFFFFFFFFFFFFFFFFF AND DUP8 PUSH1 0x40 MLOAD PUSH2 0x1B3A SWAP1 PUSH2 0x58AE JUMP JUMPDEST PUSH1 0x0 PUSH1 0x40 MLOAD DUP1 DUP4 SUB DUP2 DUP6 DUP8 GAS CALL SWAP3 POP POP POP RETURNDATASIZE DUP1 PUSH1 0x0 DUP2 EQ PUSH2 0x1B77 JUMPI PUSH1 0x40 MLOAD SWAP2 POP PUSH1 0x1F NOT PUSH1 0x3F RETURNDATASIZE ADD AND DUP3 ADD PUSH1 0x40 MSTORE RETURNDATASIZE DUP3 MSTORE RETURNDATASIZE PUSH1 0x0 PUSH1 0x20 DUP5 ADD RETURNDATACOPY PUSH2 0x1B7C JUMP JUMPDEST PUSH1 0x60 SWAP2 POP JUMPDEST POP POP SWAP1 POP PUSH2 0x1B94 PUSH8 0xC7D438D6A3B7FB90 PUSH1 0xC0 SHL PUSH2 0x32E3 JUMP JUMPDEST PUSH2 0x1BA8 PUSH8 0x99B1B67148338B57 PUSH1 0xC0 SHL PUSH2 0x32E3 JUMP JUMPDEST PUSH2 0x1BBC PUSH8 0x443D26F67ADB6F94 PUSH1 0xC0 SHL PUSH2 0x32E3 JUMP JUMPDEST DUP1 PUSH2 0x1BFC JUMPI PUSH1 0x40 MLOAD PUSH32 0x8C379A000000000000000000000000000000000000000000000000000000000 DUP2 MSTORE PUSH1 0x4 ADD PUSH2 0x1BF3 SWAP1 PUSH2 0x59C7 JUMP JUMPDEST PUSH1 0x40 MLOAD DUP1 SWAP2 SUB SWAP1 REVERT JUMPDEST PUSH2 0x1C10 PUSH8 0xF337743DF2786E23 PUSH1 0xC0 SHL PUSH2 0x32E3 JUMP JUMPDEST POP POP DUP1 DUP1 PUSH2 0x1C1D SWAP1 PUSH2 0x56FC JUMP JUMPDEST SWAP2 POP POP PUSH2 0x1A9C JUMP JUMPDEST POP POP POP POP POP POP POP POP POP POP POP DUP1 DUP1 PUSH2 0x1C3B SWAP1 PUSH2 0x56FC JUMP JUMPDEST SWAP2 POP POP PUSH2 0x15E2 JUMP JUMPDEST POP PUSH2 0x1C58 PUSH8 0x1D53049D0A2B554C PUSH1 0xC0 SHL PUSH2 0x32E3 JUMP JUMPDEST PUSH2 0x1C6C PUSH8 0x235D1367B062030F PUSH1 0xC0 SHL PUSH2 0x32E3 JUMP JUMPDEST PUSH1 0x0 PUSH1 0x9 PUSH1 0x0 SWAP1 SLOAD SWAP1 PUSH2 0x100 EXP SWAP1 DIV PUSH20 0xFFFFFFFFFFFFFFFFFFFFFFFFFFFFFFFFFFFFFFFF AND PUSH20 0xFFFFFFFFFFFFFFFFFFFFFFFFFFFFFFFFFFFFFFFF AND SELFBALANCE PUSH1 0x40 MLOAD PUSH2 0x1CB4 SWAP1 PUSH2 0x58AE JUMP JUMPDEST PUSH1 0x0 PUSH1 0x40 MLOAD DUP1 DUP4 SUB DUP2 DUP6 DUP8 GAS CALL SWAP3 POP POP POP RETURNDATASIZE DUP1 PUSH1 0x0 DUP2 EQ PUSH2 0x1CF1 JUMPI PUSH1 0x40 MLOAD SWAP2 POP PUSH1 0x1F NOT PUSH1 0x3F RETURNDATASIZE ADD AND DUP3 ADD PUSH1 0x40 MSTORE RETURNDATASIZE DUP3 MSTORE RETURNDATASIZE PUSH1 0x0 PUSH1 0x20 DUP5 ADD RETURNDATACOPY PUSH2 0x1CF6 JUMP JUMPDEST PUSH1 0x60 SWAP2 POP JUMPDEST POP POP SWAP1 POP PUSH2 0x1D0E PUSH8 0x37D22DE4C1E8C1A0 PUSH1 0xC0 SHL PUSH2 0x32E3 JUMP JUMPDEST PUSH2 0x1D22 PUSH8 0x52C799B6BB10D794 PUSH1 0xC0 SHL PUSH2 0x32E3 JUMP JUMPDEST PUSH2 0x1D36 PUSH8 0x5EAA3970C426B1A8 PUSH1 0xC0 SHL PUSH2 0x32E3 JUMP JUMPDEST DUP1 PUSH2 0x1D76 JUMPI PUSH1 0x40 MLOAD PUSH32 0x8C379A000000000000000000000000000000000000000000000000000000000 DUP2 MSTORE PUSH1 0x4 ADD PUSH2 0x1D6D SWAP1 PUSH2 0x5A59 JUMP JUMPDEST PUSH1 0x40 MLOAD DUP1 SWAP2 SUB SWAP1 REVERT JUMPDEST PUSH2 0x1D8A PUSH8 0x873E31988971C6D7 PUSH1 0xC0 SHL PUSH2 0x32E3 JUMP JUMPDEST PUSH2 0x1D9E PUSH8 0x58060C29E4E3C450 PUSH1 0xC0 SHL PUSH2 0x32E3 JUMP JUMPDEST PUSH2 0x1DB2 PUSH8 0x60516E49E37CC782 PUSH1 0xC0 SHL PUSH2 0x32E3 JUMP JUMPDEST PUSH32 0xD6B85AE024A6A6596815F1C1C2F8D5BF382F93D8E56C3C88B3B58BBBCA20B7D CALLER PUSH1 0x40 MLOAD PUSH2 0x1DE1 SWAP2 SWAP1 PUSH2 0x51EB JUMP JUMPDEST PUSH1 0x40 MLOAD DUP1 SWAP2 SUB SWAP1 LOG1 POP POP JUMP JUMPDEST PUSH1 0x0 PUSH2 0x1E03 PUSH8 0x92A2745DC2E68050 PUSH1 0xC0 SHL PUSH2 0x32E3 JUMP JUMPDEST PUSH2 0x1E17 PUSH8 0x5ECE8B6556F22215 PUSH1 0xC0 SHL PUSH2 0x32E3 JUMP JUMPDEST PUSH2 0x1E2B PUSH8 0xD9181DE005AEB1D5 PUSH1 0xC0 SHL PUSH2 0x32E3 JUMP JUMPDEST PUSH2 0x1E3F PUSH8 0xAC0E33E1DBD513A3 PUSH1 0xC0 SHL PUSH2 0x32E3 JUMP JUMPDEST PUSH1 0x0 DUP8 GT PUSH2 0x1E82 JUMPI PUSH1 0x40 MLOAD PUSH32 0x8C379A000000000000000000000000000000000000000000000000000000000 DUP2 MSTORE PUSH1 0x4 ADD PUSH2 0x1E79 SWAP1 PUSH2 0x5AEB JUMP JUMPDEST PUSH1 0x40 MLOAD DUP1 SWAP2 SUB SWAP1 REVERT JUMPDEST PUSH2 0x1E96 PUSH8 0x1EF6BC2F9483A5F9 PUSH1 0xC0 SHL PUSH2 0x32E3 JUMP JUMPDEST PUSH2 0x1EAA PUSH8 0xAA3C40BDB3B97ECA PUSH1 0xC0 SHL PUSH2 0x32E3 JUMP JUMPDEST PUSH2 0x1EBE PUSH8 0x5661676EC4837FCF PUSH1 0xC0 SHL PUSH2 0x32E3 JUMP JUMPDEST PUSH2 0x1EC8 PUSH1 0x7 PUSH2 0x370D JUMP JUMPDEST PUSH2 0x1EDC PUSH8 0xC98111812F61186D PUSH1 0xC0 SHL PUSH2 0x32E3 JUMP JUMPDEST PUSH2 0x1EE6 PUSH1 0x7 PUSH2 0x36F4 JUMP JUMPDEST SWAP1 POP PUSH2 0x1EFC PUSH8 0xD83A4D16D7442ED2 PUSH1 0xC0 SHL PUSH2 0x32E3 JUMP JUMPDEST PUSH2 0x1F10 PUSH8 0x379D3146E460A205 PUSH1 0xC0 SHL PUSH2 0x32E3 JUMP JUMPDEST PUSH2 0x1F30 CALLER DUP3 PUSH5 0xE8D4A51000 PUSH1 0x40 MLOAD DUP1 PUSH1 0x20 ADD PUSH1 0x40 MSTORE DUP1 PUSH1 0x0 DUP2 MSTORE POP PUSH2 0x3723 JUMP JUMPDEST PUSH2 0x1F44 PUSH8 0x723DF66318159D27 PUSH1 0xC0 SHL PUSH2 0x32E3 JUMP JUMPDEST PUSH2 0x1F58 PUSH8 0xF280B0B3997C9544 PUSH1 0xC0 SHL PUSH2 0x32E3 JUMP JUMPDEST PUSH2 0x1F62 DUP2 DUP6 PUSH2 0x38D3 JUMP JUMPDEST PUSH2 0x1F76 PUSH8 0xDAF5F0D81AE7F22F PUSH1 0xC0 SHL PUSH2 0x32E3 JUMP JUMPDEST PUSH2 0x1F8A PUSH8 0x7DC375642DEEBA75 PUSH1 0xC0 SHL PUSH2 0x32E3 JUMP JUMPDEST PUSH1 0x0 PUSH1 0xA PUSH1 0x1 DUP2 PUSH1 0x1 DUP2 SLOAD ADD DUP1 DUP3 SSTORE DUP1 SWAP2 POP POP SUB SWAP1 PUSH1 0x0 MSTORE PUSH1 0x20 PUSH1 0x0 KECCAK256 SWAP1 PUSH1 0xC MUL ADD SWAP1 POP PUSH2 0x1FC2 PUSH8 0x7F2035A04B9933B0 PUSH1 0xC0 SHL PUSH2 0x32E3 JUMP JUMPDEST CALLER DUP2 PUSH1 0x0 ADD PUSH1 0x0 PUSH2 0x100 EXP DUP2 SLOAD DUP2 PUSH20 0xFFFFFFFFFFFFFFFFFFFFFFFFFFFFFFFFFFFFFFFF MUL NOT AND SWAP1 DUP4 PUSH20 0xFFFFFFFFFFFFFFFFFFFFFFFFFFFFFFFFFFFFFFFF AND MUL OR SWAP1 SSTORE POP PUSH2 0x2019 PUSH8 0x5B21F2E83AE6B530 PUSH1 0xC0 SHL PUSH2 0x32E3 JUMP JUMPDEST DUP2 DUP2 PUSH1 0x1 ADD DUP2 SWAP1 SSTORE POP PUSH2 0x2036 PUSH8 0xB617BAA9A9184892 PUSH1 0xC0 SHL PUSH2 0x32E3 JUMP JUMPDEST DUP8 DUP2 PUSH1 0x3 ADD DUP2 SWAP1 SSTORE POP PUSH2 0x2053 PUSH8 0xE91E688AE01CA9A3 PUSH1 0xC0 SHL PUSH2 0x32E3 JUMP JUMPDEST DUP7 DUP2 PUSH1 0x5 ADD DUP2 SWAP1 SSTORE POP PUSH2 0x2070 PUSH8 0xBEAA40FB3518DAE3 PUSH1 0xC0 SHL PUSH2 0x32E3 JUMP JUMPDEST DUP6 DUP2 PUSH1 0x6 ADD DUP2 SWAP1 SSTORE POP PUSH2 0x208D PUSH8 0xB863BF8169191140 PUSH1 0xC0 SHL PUSH2 0x32E3 JUMP JUMPDEST DUP4 DUP2 PUSH1 0x9 ADD DUP2 SWAP1 SSTORE POP PUSH2 0x20AA PUSH8 0x66E0A6ABC7DD6D77 PUSH1 0xC0 SHL PUSH2 0x32E3 JUMP JUMPDEST DUP3 DUP2 PUSH1 0xA ADD DUP2 SWAP1 SSTORE POP PUSH2 0x20C7 PUSH8 0x6F6E91A22D154C46 PUSH1 0xC0 SHL PUSH2 0x32E3 JUMP JUMPDEST PUSH2 0x20DB PUSH8 0x8937E0071FBF82F PUSH1 0xC0 SHL PUSH2 0x32E3 JUMP JUMPDEST PUSH2 0x20E5 PUSH1 0x7 PUSH2 0x370D JUMP JUMPDEST PUSH2 0x20F9 PUSH8 0xAB85E291E5E1A1F6 PUSH1 0xC0 SHL PUSH2 0x32E3 JUMP JUMPDEST PUSH2 0x210D PUSH8 0x86CE907338E04F05 PUSH1 0xC0 SHL PUSH2 0x32E3 JUMP JUMPDEST PUSH1 0x0 PUSH2 0x2119 PUSH1 0x7 PUSH2 0x36F4 JUMP JUMPDEST SWAP1 POP PUSH2 0x212F PUSH8 0x62DB5DE87B53FE15 PUSH1 0xC0 SHL PUSH2 0x32E3 JUMP JUMPDEST PUSH2 0x2143 PUSH8 0xD30F2AA2808EA055 PUSH1 0xC0 SHL PUSH2 0x32E3 JUMP JUMPDEST PUSH2 0x215E CALLER DUP3 DUP12 PUSH1 0x40 MLOAD DUP1 PUSH1 0x20 ADD PUSH1 0x40 MSTORE DUP1 PUSH1 0x0 DUP2 MSTORE POP PUSH2 0x3723 JUMP JUMPDEST PUSH2 0x2172 PUSH8 0xDC20EB4EC86187D9 PUSH1 0xC0 SHL PUSH2 0x32E3 JUMP JUMPDEST PUSH2 0x2186 PUSH8 0x427B704E5F78FC2C PUSH1 0xC0 SHL PUSH2 0x32E3 JUMP JUMPDEST PUSH2 0x2190 DUP2 DUP8 PUSH2 0x38D3 JUMP JUMPDEST PUSH2 0x21A4 PUSH8 0xB7749DED1F0967A2 PUSH1 0xC0 SHL PUSH2 0x32E3 JUMP JUMPDEST DUP1 DUP3 PUSH1 0x2 ADD DUP2 SWAP1 SSTORE POP PUSH2 0x21C1 PUSH8 0x2265E3181768CFC1 PUSH1 0xC0 SHL PUSH2 0x32E3 JUMP JUMPDEST PUSH2 0x21D5 PUSH8 0x7760F06DBD0E86B6 PUSH1 0xC0 SHL PUSH2 0x32E3 JUMP JUMPDEST PUSH2 0x2201 CALLER PUSH1 0x8 PUSH1 0x0 SWAP1 SLOAD SWAP1 PUSH2 0x100 EXP SWAP1 DIV PUSH20 0xFFFFFFFFFFFFFFFFFFFFFFFFFFFFFFFFFFFFFFFF AND PUSH2 0x2461 JUMP JUMPDEST PUSH2 0x2273 JUMPI PUSH2 0x2219 PUSH8 0x1A1C9901DC6B6D89 PUSH1 0xC0 SHL PUSH2 0x32E3 JUMP JUMPDEST PUSH2 0x222D PUSH8 0xED9844DECE3C263F PUSH1 0xC0 SHL PUSH2 0x32E3 JUMP JUMPDEST PUSH2 0x2241 PUSH8 0x3CFB66B7EAE94D80 PUSH1 0xC0 SHL PUSH2 0x32E3 JUMP JUMPDEST PUSH2 0x226E PUSH1 0x8 PUSH1 0x0 SWAP1 SLOAD SWAP1 PUSH2 0x100 EXP SWAP1 DIV PUSH20 0xFFFFFFFFFFFFFFFFFFFFFFFFFFFFFFFFFFFFFFFF AND PUSH1 0x1 PUSH2 0x237E JUMP JUMPDEST PUSH2 0x2288 JUMP JUMPDEST PUSH2 0x2287 PUSH8 0x324FF9F0DEED9BF1 PUSH1 0xC0 SHL PUSH2 0x32E3 JUMP JUMPDEST JUMPDEST PUSH2 0x229C PUSH8 0xCBDE9FCDB46DB22A PUSH1 0xC0 SHL PUSH2 0x32E3 JUMP JUMPDEST PUSH1 0x1 PUSH1 0xA DUP1 SLOAD SWAP1 POP PUSH2 0x22AE SWAP2 SWAP1 PUSH2 0x5636 JUMP JUMPDEST PUSH1 0xB PUSH1 0x0 DUP6 DUP2 MSTORE PUSH1 0x20 ADD SWAP1 DUP2 MSTORE PUSH1 0x20 ADD PUSH1 0x0 KECCAK256 DUP2 SWAP1 SSTORE POP PUSH2 0x22D9 PUSH8 0xA4C3252DBD848BE2 PUSH1 0xC0 SHL PUSH2 0x32E3 JUMP JUMPDEST PUSH2 0x22ED PUSH8 0x39E315A8569A79DD PUSH1 0xC0 SHL PUSH2 0x32E3 JUMP JUMPDEST PUSH32 0xE44A95D90DB666EEC698EE335D929AF1295456EF22ACF300487F3B13CEE736F1 DUP3 PUSH1 0x1 ADD SLOAD DUP4 PUSH1 0x2 ADD SLOAD DUP5 PUSH1 0x0 ADD PUSH1 0x0 SWAP1 SLOAD SWAP1 PUSH2 0x100 EXP SWAP1 DIV PUSH20 0xFFFFFFFFFFFFFFFFFFFFFFFFFFFFFFFFFFFFFFFF AND DUP6 PUSH1 0x3 ADD SLOAD DUP7 PUSH1 0x5 ADD SLOAD DUP8 PUSH1 0x6 ADD SLOAD DUP9 PUSH1 0x9 ADD SLOAD DUP10 PUSH1 0xA ADD SLOAD PUSH1 0x40 MLOAD PUSH2 0x236A SWAP9 SWAP8 SWAP7 SWAP6 SWAP5 SWAP4 SWAP3 SWAP2 SWAP1 PUSH2 0x5B0B JUMP JUMPDEST PUSH1 0x40 MLOAD DUP1 SWAP2 SUB SWAP1 LOG1 POP POP SWAP7 SWAP6 POP POP POP POP POP POP JUMP JUMPDEST PUSH2 0x2390 PUSH2 0x2389 PUSH2 0x33CB JUMP JUMPDEST DUP4 DUP4 PUSH2 0x3938 JUMP JUMPDEST POP POP JUMP JUMPDEST PUSH1 0x9 PUSH1 0x0 SWAP1 SLOAD SWAP1 PUSH2 0x100 EXP SWAP1 DIV PUSH20 0xFFFFFFFFFFFFFFFFFFFFFFFFFFFFFFFFFFFFFFFF AND DUP2 JUMP JUMPDEST PUSH1 0xA DUP2 DUP2 SLOAD DUP2 LT PUSH2 0x23CA JUMPI PUSH1 0x0 DUP1 REVERT JUMPDEST SWAP1 PUSH1 0x0 MSTORE PUSH1 0x20 PUSH1 0x0 KECCAK256 SWAP1 PUSH1 0xC MUL ADD PUSH1 0x0 SWAP2 POP SWAP1 POP DUP1 PUSH1 0x0 ADD PUSH1 0x0 SWAP1 SLOAD SWAP1 PUSH2 0x100 EXP SWAP1 DIV PUSH20 0xFFFFFFFFFFFFFFFFFFFFFFFFFFFFFFFFFFFFFFFF AND SWAP1 DUP1 PUSH1 0x1 ADD SLOAD SWAP1 DUP1 PUSH1 0x2 ADD SLOAD SWAP1 DUP1 PUSH1 0x3 ADD SLOAD SWAP1 DUP1 PUSH1 0x4 ADD SLOAD SWAP1 DUP1 PUSH1 0x5 ADD SLOAD SWAP1 DUP1 PUSH1 0x6 ADD SLOAD SWAP1 DUP1 PUSH1 0x7 ADD SLOAD SWAP1 DUP1 PUSH1 0x8 ADD SLOAD SWAP1 DUP1 PUSH1 0x9 ADD SLOAD SWAP1 DUP1 PUSH1 0xA ADD SLOAD SWAP1 POP DUP12 JUMP JUMPDEST PUSH1 0x0 PUSH1 0x5 PUSH1 0x0 DUP4 DUP2 MSTORE PUSH1 0x20 ADD SWAP1 DUP2 MSTORE PUSH1 0x20 ADD PUSH1 0x0 KECCAK256 SLOAD SWAP1 POP SWAP2 SWAP1 POP JUMP JUMPDEST PUSH1 0x0 PUSH1 0x1 PUSH1 0x0 DUP5 PUSH20 0xFFFFFFFFFFFFFFFFFFFFFFFFFFFFFFFFFFFFFFFF AND PUSH20 0xFFFFFFFFFFFFFFFFFFFFFFFFFFFFFFFFFFFFFFFF AND DUP2 MSTORE PUSH1 0x20 ADD SWAP1 DUP2 MSTORE PUSH1 0x20 ADD PUSH1 0x0 KECCAK256 PUSH1 0x0 DUP4 PUSH20 0xFFFFFFFFFFFFFFFFFFFFFFFFFFFFFFFFFFFFFFFF AND PUSH20 0xFFFFFFFFFFFFFFFFFFFFFFFFFFFFFFFFFFFFFFFF AND DUP2 MSTORE PUSH1 0x20 ADD SWAP1 DUP2 MSTORE PUSH1 0x20 ADD PUSH1 0x0 KECCAK256 PUSH1 0x0 SWAP1 SLOAD SWAP1 PUSH2 0x100 EXP SWAP1 DIV PUSH1 0xFF AND SWAP1 POP SWAP3 SWAP2 POP POP JUMP JUMPDEST PUSH2 0x2509 PUSH8 0xCBC5DC593E421700 PUSH1 0xC0 SHL PUSH2 0x32E3 JUMP JUMPDEST PUSH2 0x251D PUSH8 0xAA3DD0EEA74114D2 PUSH1 0xC0 SHL PUSH2 0x32E3 JUMP JUMPDEST PUSH2 0x2531 PUSH8 0xBC367073CD61DC85 PUSH1 0xC0 SHL PUSH2 0x32E3 JUMP JUMPDEST PUSH1 0x0 PUSH2 0x2547 PUSH8 0x6F09FE0F77F61C65 PUSH1 0xC0 SHL PUSH2 0x32E3 JUMP JUMPDEST PUSH2 0x255B PUSH8 0x1F703AC2938FD117 PUSH1 0xC0 SHL PUSH2 0x32E3 JUMP JUMPDEST PUSH1 0x0 PUSH1 0x2 DUP4 PUSH2 0x256A SWAP2 SWAP1 PUSH2 0x553B JUMP JUMPDEST EQ PUSH2 0x266B JUMPI PUSH2 0x2583 PUSH8 0xAAE81522C0BA0852 PUSH1 0xC0 SHL PUSH2 0x32E3 JUMP JUMPDEST PUSH2 0x2597 PUSH8 0xA4C2831326650907 PUSH1 0xC0 SHL PUSH2 0x32E3 JUMP JUMPDEST PUSH2 0x25AB PUSH8 0xBE584DF4C1CF9253 PUSH1 0xC0 SHL PUSH2 0x32E3 JUMP JUMPDEST PUSH2 0x25BF PUSH8 0x9201726977EAD2C7 PUSH1 0xC0 SHL PUSH2 0x32E3 JUMP JUMPDEST PUSH2 0x25C8 DUP3 PUSH2 0xEC1 JUMP JUMPDEST PUSH2 0x2607 JUMPI PUSH1 0x40 MLOAD PUSH32 0x8C379A000000000000000000000000000000000000000000000000000000000 DUP2 MSTORE PUSH1 0x4 ADD PUSH2 0x25FE SWAP1 PUSH2 0x55B8 JUMP JUMPDEST PUSH1 0x40 MLOAD DUP1 SWAP2 SUB SWAP1 REVERT JUMPDEST PUSH2 0x261B PUSH8 0x19C32E589D33709A PUSH1 0xC0 SHL PUSH2 0x32E3 JUMP JUMPDEST PUSH2 0x262F PUSH8 0x638E4643A2D93040 PUSH1 0xC0 SHL PUSH2 0x32E3 JUMP JUMPDEST PUSH1 0xA PUSH1 0xB PUSH1 0x0 DUP5 DUP2 MSTORE PUSH1 0x20 ADD SWAP1 DUP2 MSTORE PUSH1 0x20 ADD PUSH1 0x0 KECCAK256 SLOAD DUP2 SLOAD DUP2 LT PUSH2 0x2656 JUMPI PUSH2 0x2655 PUSH2 0x55D8 JUMP JUMPDEST JUMPDEST SWAP1 PUSH1 0x0 MSTORE PUSH1 0x20 PUSH1 0x0 KECCAK256 SWAP1 PUSH1 0xC MUL ADD SWAP1 POP PUSH2 0x277B JUMP JUMPDEST PUSH2 0x267F PUSH8 0xA3CB02AFAD33FA88 PUSH1 0xC0 SHL PUSH2 0x32E3 JUMP JUMPDEST PUSH2 0x2693 PUSH8 0x2A5102F4F5F6C956 PUSH1 0xC0 SHL PUSH2 0x32E3 JUMP JUMPDEST PUSH2 0x26A7 PUSH8 0xA0AEE647D1C3A457 PUSH1 0xC0 SHL PUSH2 0x32E3 JUMP JUMPDEST PUSH2 0x26BB PUSH8 0xE30F2B0319DAF333 PUSH1 0xC0 SHL PUSH2 0x32E3 JUMP JUMPDEST PUSH2 0x26D0 PUSH1 0x1 DUP4 PUSH2 0x26CB SWAP2 SWAP1 PUSH2 0x5636 JUMP JUMPDEST PUSH2 0xEC1 JUMP JUMPDEST PUSH2 0x270F JUMPI PUSH1 0x40 MLOAD PUSH32 0x8C379A000000000000000000000000000000000000000000000000000000000 DUP2 MSTORE PUSH1 0x4 ADD PUSH2 0x2706 SWAP1 PUSH2 0x55B8 JUMP JUMPDEST PUSH1 0x40 MLOAD DUP1 SWAP2 SUB SWAP1 REVERT JUMPDEST PUSH2 0x2723 PUSH8 0x3516787904B09616 PUSH1 0xC0 SHL PUSH2 0x32E3 JUMP JUMPDEST PUSH2 0x2737 PUSH8 0x21B23CDFB1896BD0 PUSH1 0xC0 SHL PUSH2 0x32E3 JUMP JUMPDEST PUSH1 0xA PUSH1 0xB PUSH1 0x0 PUSH1 0x1 DUP6 PUSH2 0x274A SWAP2 SWAP1 PUSH2 0x5636 JUMP JUMPDEST DUP2 MSTORE PUSH1 0x20 ADD SWAP1 DUP2 MSTORE PUSH1 0x20 ADD PUSH1 0x0 KECCAK256 SLOAD DUP2 SLOAD DUP2 LT PUSH2 0x276A JUMPI PUSH2 0x2769 PUSH2 0x55D8 JUMP JUMPDEST JUMPDEST SWAP1 PUSH1 0x0 MSTORE PUSH1 0x20 PUSH1 0x0 KECCAK256 SWAP1 PUSH1 0xC MUL ADD SWAP1 POP JUMPDEST PUSH2 0x278F PUSH8 0x633F46A9D75C308 PUSH1 0xC0 SHL PUSH2 0x32E3 JUMP JUMPDEST PUSH2 0x27A3 PUSH8 0xBADD8399308CCB0E PUSH1 0xC0 SHL PUSH2 0x32E3 JUMP JUMPDEST PUSH2 0x27B7 PUSH8 0x38C8DD228F979D57 PUSH1 0xC0 SHL PUSH2 0x32E3 JUMP JUMPDEST PUSH2 0x27C4 DUP2 PUSH1 0x1 ADD SLOAD PUSH2 0xEC1 JUMP JUMPDEST PUSH2 0x2803 JUMPI PUSH1 0x40 MLOAD PUSH32 0x8C379A000000000000000000000000000000000000000000000000000000000 DUP2 MSTORE PUSH1 0x4 ADD PUSH2 0x27FA SWAP1 PUSH2 0x5BFB JUMP JUMPDEST PUSH1 0x40 MLOAD DUP1 SWAP2 SUB SWAP1 REVERT JUMPDEST PUSH2 0x2817 PUSH8 0x66AEC134CC8C4EBB PUSH1 0xC0 SHL PUSH2 0x32E3 JUMP JUMPDEST PUSH2 0x282B PUSH8 0x849393D87A59AAD3 PUSH1 0xC0 SHL PUSH2 0x32E3 JUMP JUMPDEST PUSH2 0x283F PUSH8 0x1510B2F2E3857EE2 PUSH1 0xC0 SHL PUSH2 0x32E3 JUMP JUMPDEST PUSH2 0x2853 PUSH8 0x1B1A1E04A23CA69B PUSH1 0xC0 SHL PUSH2 0x32E3 JUMP JUMPDEST DUP1 PUSH1 0x5 ADD SLOAD CALLVALUE LT ISZERO PUSH2 0x289A JUMPI PUSH1 0x40 MLOAD PUSH32 0x8C379A000000000000000000000000000000000000000000000000000000000 DUP2 MSTORE PUSH1 0x4 ADD PUSH2 0x2891 SWAP1 PUSH2 0x5C67 JUMP JUMPDEST PUSH1 0x40 MLOAD DUP1 SWAP2 SUB SWAP1 REVERT JUMPDEST PUSH2 0x28AE PUSH8 0x3597D9FCF93B61AF PUSH1 0xC0 SHL PUSH2 0x32E3 JUMP JUMPDEST PUSH2 0x28C2 PUSH8 0xB2D4D6001B1ADD81 PUSH1 0xC0 SHL PUSH2 0x32E3 JUMP JUMPDEST PUSH2 0x28D6 PUSH8 0xBECC514EAD58539A PUSH1 0xC0 SHL PUSH2 0x32E3 JUMP JUMPDEST PUSH2 0x28EA PUSH8 0x383C80D190A20D5C PUSH1 0xC0 SHL PUSH2 0x32E3 JUMP JUMPDEST CALLER PUSH20 0xFFFFFFFFFFFFFFFFFFFFFFFFFFFFFFFFFFFFFFFF AND DUP2 PUSH1 0x0 ADD PUSH1 0x0 SWAP1 SLOAD SWAP1 PUSH2 0x100 EXP SWAP1 DIV PUSH20 0xFFFFFFFFFFFFFFFFFFFFFFFFFFFFFFFFFFFFFFFF AND PUSH20 0xFFFFFFFFFFFFFFFFFFFFFFFFFFFFFFFFFFFFFFFF AND SUB PUSH2 0x297C JUMPI PUSH1 0x40 MLOAD PUSH32 0x8C379A000000000000000000000000000000000000000000000000000000000 DUP2 MSTORE PUSH1 0x4 ADD PUSH2 0x2973 SWAP1 PUSH2 0x5CD3 JUMP JUMPDEST PUSH1 0x40 MLOAD DUP1 SWAP2 SUB SWAP1 REVERT JUMPDEST PUSH2 0x2990 PUSH8 0x2BC94C012FBF01F8 PUSH1 0xC0 SHL PUSH2 0x32E3 JUMP JUMPDEST PUSH2 0x29A4 PUSH8 0x4C67D033924EBF51 PUSH1 0xC0 SHL PUSH2 0x32E3 JUMP JUMPDEST CALLVALUE DUP2 PUSH1 0x7 ADD PUSH1 0x0 DUP3 DUP3 SLOAD PUSH2 0x29B8 SWAP2 SWAP1 PUSH2 0x5849 JUMP JUMPDEST SWAP3 POP POP DUP2 SWAP1 SSTORE POP PUSH2 0x29D3 PUSH8 0xEED5017854F126B2 PUSH1 0xC0 SHL PUSH2 0x32E3 JUMP JUMPDEST PUSH2 0x29E7 PUSH8 0x239680B0BB08F0E0 PUSH1 0xC0 SHL PUSH2 0x32E3 JUMP JUMPDEST PUSH1 0x8 PUSH1 0x0 SWAP1 SLOAD SWAP1 PUSH2 0x100 EXP SWAP1 DIV PUSH20 0xFFFFFFFFFFFFFFFFFFFFFFFFFFFFFFFFFFFFFFFF AND PUSH20 0xFFFFFFFFFFFFFFFFFFFFFFFFFFFFFFFFFFFFFFFF AND PUSH4 0x13F2DA7B DUP3 PUSH1 0x1 ADD SLOAD ADDRESS DUP5 PUSH1 0x0 ADD PUSH1 0x0 SWAP1 SLOAD SWAP1 PUSH2 0x100 EXP SWAP1 DIV PUSH20 0xFFFFFFFFFFFFFFFFFFFFFFFFFFFFFFFFFFFFFFFF AND CALLER PUSH1 0x40 MLOAD DUP6 PUSH4 0xFFFFFFFF AND PUSH1 0xE0 SHL DUP2 MSTORE PUSH1 0x4 ADD PUSH2 0x2A70 SWAP5 SWAP4 SWAP3 SWAP2 SWAP1 PUSH2 0x5D14 JUMP JUMPDEST PUSH1 0x0 PUSH1 0x40 MLOAD DUP1 DUP4 SUB DUP2 PUSH1 0x0 DUP8 DUP1 EXTCODESIZE ISZERO DUP1 ISZERO PUSH2 0x2A8A JUMPI PUSH1 0x0 DUP1 REVERT JUMPDEST POP GAS CALL ISZERO DUP1 ISZERO PUSH2 0x2A9E JUMPI RETURNDATASIZE PUSH1 0x0 DUP1 RETURNDATACOPY RETURNDATASIZE PUSH1 0x0 REVERT JUMPDEST POP POP POP POP PUSH2 0x2AB6 PUSH8 0xAEC73F59D72CA6B4 PUSH1 0xC0 SHL PUSH2 0x32E3 JUMP JUMPDEST PUSH2 0x2ACA PUSH8 0x2438C7389D1CE4A9 PUSH1 0xC0 SHL PUSH2 0x32E3 JUMP JUMPDEST PUSH32 0x4D30D6EF2C1B6DC4FB27350A8A71229EA6D6A3220BE9DB153486F9BBDA5E6EC DUP3 CALLER PUSH1 0x40 MLOAD PUSH2 0x2AFB SWAP3 SWAP2 SWAP1 PUSH2 0x5D59 JUMP JUMPDEST PUSH1 0x40 MLOAD DUP1 SWAP2 SUB SWAP1 LOG1 POP POP JUMP JUMPDEST PUSH2 0x2B0F PUSH2 0x33CB JUMP JUMPDEST PUSH20 0xFFFFFFFFFFFFFFFFFFFFFFFFFFFFFFFFFFFFFFFF AND DUP6 PUSH20 0xFFFFFFFFFFFFFFFFFFFFFFFFFFFFFFFFFFFFFFFF AND EQ DUP1 PUSH2 0x2B55 JUMPI POP PUSH2 0x2B54 DUP6 PUSH2 0x2B4F PUSH2 0x33CB JUMP JUMPDEST PUSH2 0x2461 JUMP JUMPDEST JUMPDEST PUSH2 0x2B94 JUMPI PUSH1 0x40 MLOAD PUSH32 0x8C379A000000000000000000000000000000000000000000000000000000000 DUP2 MSTORE PUSH1 0x4 ADD PUSH2 0x2B8B SWAP1 PUSH2 0x54EC JUMP JUMPDEST PUSH1 0x40 MLOAD DUP1 SWAP2 SUB SWAP1 REVERT JUMPDEST PUSH2 0x2BA1 DUP6 DUP6 DUP6 DUP6 DUP6 PUSH2 0x3AA4 JUMP JUMPDEST POP POP POP POP POP JUMP JUMPDEST PUSH2 0x2BBC PUSH8 0xB315505E7F8EDF2F PUSH1 0xC0 SHL PUSH2 0x32E3 JUMP JUMPDEST PUSH2 0x2BD0 PUSH8 0xBC817A9AF908C422 PUSH1 0xC0 SHL PUSH2 0x32E3 JUMP JUMPDEST PUSH2 0x2BE4 PUSH8 0x66F3EA1057B5AED2 PUSH1 0xC0 SHL PUSH2 0x32E3 JUMP JUMPDEST PUSH1 0x0 PUSH2 0x2BFA PUSH8 0x2A1DEACCEDBEB0F8 PUSH1 0xC0 SHL PUSH2 0x32E3 JUMP JUMPDEST PUSH2 0x2C0E PUSH8 0x6735774716E90E0D PUSH1 0xC0 SHL PUSH2 0x32E3 JUMP JUMPDEST PUSH1 0x0 PUSH1 0x2 DUP4 PUSH2 0x2C1D SWAP2 SWAP1 PUSH2 0x553B JUMP JUMPDEST EQ PUSH2 0x2D1E JUMPI PUSH2 0x2C36 PUSH8 0x512003D972A85B42 PUSH1 0xC0 SHL PUSH2 0x32E3 JUMP JUMPDEST PUSH2 0x2C4A PUSH8 0x8B556179CF7F789B PUSH1 0xC0 SHL PUSH2 0x32E3 JUMP JUMPDEST PUSH2 0x2C5E PUSH8 0x3AB08E229D61EBA6 PUSH1 0xC0 SHL PUSH2 0x32E3 JUMP JUMPDEST PUSH2 0x2C72 PUSH8 0x31BF4EC739BC43AA PUSH1 0xC0 SHL PUSH2 0x32E3 JUMP JUMPDEST PUSH2 0x2C7B DUP3 PUSH2 0xEC1 JUMP JUMPDEST PUSH2 0x2CBA JUMPI PUSH1 0x40 MLOAD PUSH32 0x8C379A000000000000000000000000000000000000000000000000000000000 DUP2 MSTORE PUSH1 0x4 ADD PUSH2 0x2CB1 SWAP1 PUSH2 0x55B8 JUMP JUMPDEST PUSH1 0x40 MLOAD DUP1 SWAP2 SUB SWAP1 REVERT JUMPDEST PUSH2 0x2CCE PUSH8 0x2C4F7C4561AE0535 PUSH1 0xC0 SHL PUSH2 0x32E3 JUMP JUMPDEST PUSH2 0x2CE2 PUSH8 0x1BE370C3DF35B08F PUSH1 0xC0 SHL PUSH2 0x32E3 JUMP JUMPDEST PUSH1 0xA PUSH1 0xB PUSH1 0x0 DUP5 DUP2 MSTORE PUSH1 0x20 ADD SWAP1 DUP2 MSTORE PUSH1 0x20 ADD PUSH1 0x0 KECCAK256 SLOAD DUP2 SLOAD DUP2 LT PUSH2 0x2D09 JUMPI PUSH2 0x2D08 PUSH2 0x55D8 JUMP JUMPDEST JUMPDEST SWAP1 PUSH1 0x0 MSTORE PUSH1 0x20 PUSH1 0x0 KECCAK256 SWAP1 PUSH1 0xC MUL ADD SWAP1 POP PUSH2 0x2E2E JUMP JUMPDEST PUSH2 0x2D32 PUSH8 0x2A7AD7CE69B31476 PUSH1 0xC0 SHL PUSH2 0x32E3 JUMP JUMPDEST PUSH2 0x2D46 PUSH8 0xE4521D4457978006 PUSH1 0xC0 SHL PUSH2 0x32E3 JUMP JUMPDEST PUSH2 0x2D5A PUSH8 0xFCB334ABDF297BCF PUSH1 0xC0 SHL PUSH2 0x32E3 JUMP JUMPDEST PUSH2 0x2D6E PUSH8 0x142A8F720C38690C PUSH1 0xC0 SHL PUSH2 0x32E3 JUMP JUMPDEST PUSH2 0x2D83 PUSH1 0x1 DUP4 PUSH2 0x2D7E SWAP2 SWAP1 PUSH2 0x5636 JUMP JUMPDEST PUSH2 0xEC1 JUMP JUMPDEST PUSH2 0x2DC2 JUMPI PUSH1 0x40 MLOAD PUSH32 0x8C379A000000000000000000000000000000000000000000000000000000000 DUP2 MSTORE PUSH1 0x4 ADD PUSH2 0x2DB9 SWAP1 PUSH2 0x55B8 JUMP JUMPDEST PUSH1 0x40 MLOAD DUP1 SWAP2 SUB SWAP1 REVERT JUMPDEST PUSH2 0x2DD6 PUSH8 0x959C05D4C9C02BCF PUSH1 0xC0 SHL PUSH2 0x32E3 JUMP JUMPDEST PUSH2 0x2DEA PUSH8 0x59E0C2E35C3A2776 PUSH1 0xC0 SHL PUSH2 0x32E3 JUMP JUMPDEST PUSH1 0xA PUSH1 0xB PUSH1 0x0 PUSH1 0x1 DUP6 PUSH2 0x2DFD SWAP2 SWAP1 PUSH2 0x5636 JUMP JUMPDEST DUP2 MSTORE PUSH1 0x20 ADD SWAP1 DUP2 MSTORE PUSH1 0x20 ADD PUSH1 0x0 KECCAK256 SLOAD DUP2 SLOAD DUP2 LT PUSH2 0x2E1D JUMPI PUSH2 0x2E1C PUSH2 0x55D8 JUMP JUMPDEST JUMPDEST SWAP1 PUSH1 0x0 MSTORE PUSH1 0x20 PUSH1 0x0 KECCAK256 SWAP1 PUSH1 0xC MUL ADD SWAP1 POP JUMPDEST PUSH2 0x2E42 PUSH8 0x9A84CF8FA2CEAE7E PUSH1 0xC0 SHL PUSH2 0x32E3 JUMP JUMPDEST PUSH2 0x2E56 PUSH8 0x69CFC76C299C0F6D PUSH1 0xC0 SHL PUSH2 0x32E3 JUMP JUMPDEST PUSH2 0x2E6A PUSH8 0xFC800A7114027199 PUSH1 0xC0 SHL PUSH2 0x32E3 JUMP JUMPDEST DUP1 PUSH1 0x3 ADD SLOAD DUP2 PUSH1 0x4 ADD SLOAD LT PUSH2 0x2EB4 JUMPI PUSH1 0x40 MLOAD PUSH32 0x8C379A000000000000000000000000000000000000000000000000000000000 DUP2 MSTORE PUSH1 0x4 ADD PUSH2 0x2EAB SWAP1 PUSH2 0x5DA5 JUMP JUMPDEST PUSH1 0x40 MLOAD DUP1 SWAP2 SUB SWAP1 REVERT JUMPDEST PUSH2 0x2EC8 PUSH8 0x9AE1C59AED43B883 PUSH1 0xC0 SHL PUSH2 0x32E3 JUMP JUMPDEST PUSH2 0x2EDC PUSH8 0xAA45E6DC6B145378 PUSH1 0xC0 SHL PUSH2 0x32E3 JUMP JUMPDEST PUSH2 0x2EF0 PUSH8 0x9BF6407F256F4078 PUSH1 0xC0 SHL PUSH2 0x32E3 JUMP JUMPDEST PUSH2 0x2F04 PUSH8 0x75EEB231BF088E4C PUSH1 0xC0 SHL PUSH2 0x32E3 JUMP JUMPDEST DUP1 PUSH1 0x6 ADD SLOAD CALLVALUE LT ISZERO PUSH2 0x2F4B JUMPI PUSH1 0x40 MLOAD PUSH32 0x8C379A000000000000000000000000000000000000000000000000000000000 DUP2 MSTORE PUSH1 0x4 ADD PUSH2 0x2F42 SWAP1 PUSH2 0x5C67 JUMP JUMPDEST PUSH1 0x40 MLOAD DUP1 SWAP2 SUB SWAP1 REVERT JUMPDEST PUSH2 0x2F5F PUSH8 0x1B4F98A704CE0C72 PUSH1 0xC0 SHL PUSH2 0x32E3 JUMP JUMPDEST PUSH2 0x2F73 PUSH8 0xAC668D02F7D9B4C8 PUSH1 0xC0 SHL PUSH2 0x32E3 JUMP JUMPDEST PUSH2 0x2F87 PUSH8 0xDB50ABC52DCB8E7B PUSH1 0xC0 SHL PUSH2 0x32E3 JUMP JUMPDEST PUSH2 0x2F9B PUSH8 0x1E0D461A4B88A8A4 PUSH1 0xC0 SHL PUSH2 0x32E3 JUMP JUMPDEST CALLER PUSH20 0xFFFFFFFFFFFFFFFFFFFFFFFFFFFFFFFFFFFFFFFF AND DUP2 PUSH1 0x0 ADD PUSH1 0x0 SWAP1 SLOAD SWAP1 PUSH2 0x100 EXP SWAP1 DIV PUSH20 0xFFFFFFFFFFFFFFFFFFFFFFFFFFFFFFFFFFFFFFFF AND PUSH20 0xFFFFFFFFFFFFFFFFFFFFFFFFFFFFFFFFFFFFFFFF AND SUB PUSH2 0x302D JUMPI PUSH1 0x40 MLOAD PUSH32 0x8C379A000000000000000000000000000000000000000000000000000000000 DUP2 MSTORE PUSH1 0x4 ADD PUSH2 0x3024 SWAP1 PUSH2 0x5CD3 JUMP JUMPDEST PUSH1 0x40 MLOAD DUP1 SWAP2 SUB SWAP1 REVERT JUMPDEST PUSH2 0x3041 PUSH8 0x65F5A0A5C4C7A601 PUSH1 0xC0 SHL PUSH2 0x32E3 JUMP JUMPDEST PUSH2 0x3055 PUSH8 0x115BF3D415DEA830 PUSH1 0xC0 SHL PUSH2 0x32E3 JUMP JUMPDEST PUSH1 0x1 DUP2 PUSH1 0x4 ADD PUSH1 0x0 DUP3 DUP3 SLOAD PUSH2 0x306A SWAP2 SWAP1 PUSH2 0x5849 JUMP JUMPDEST SWAP3 POP POP DUP2 SWAP1 SSTORE POP PUSH2 0x3085 PUSH8 0xB2FA9FFBD07E86DB PUSH1 0xC0 SHL PUSH2 0x32E3 JUMP JUMPDEST CALLVALUE DUP2 PUSH1 0x8 ADD PUSH1 0x0 DUP3 DUP3 SLOAD PUSH2 0x3099 SWAP2 SWAP1 PUSH2 0x5849 JUMP JUMPDEST SWAP3 POP POP DUP2 SWAP1 SSTORE POP PUSH2 0x30B4 PUSH8 0x5B621284E53355FB PUSH1 0xC0 SHL PUSH2 0x32E3 JUMP JUMPDEST PUSH2 0x30C8 PUSH8 0xD39429B623D1DB3E PUSH1 0xC0 SHL PUSH2 0x32E3 JUMP JUMPDEST DUP1 PUSH1 0xB ADD CALLER SWAP1 DUP1 PUSH1 0x1 DUP2 SLOAD ADD DUP1 DUP3 SSTORE DUP1 SWAP2 POP POP PUSH1 0x1 SWAP1 SUB SWAP1 PUSH1 0x0 MSTORE PUSH1 0x20 PUSH1 0x0 KECCAK256 ADD PUSH1 0x0 SWAP1 SWAP2 SWAP1 SWAP2 SWAP1 SWAP2 PUSH2 0x100 EXP DUP2 SLOAD DUP2 PUSH20 0xFFFFFFFFFFFFFFFFFFFFFFFFFFFFFFFFFFFFFFFF MUL NOT AND SWAP1 DUP4 PUSH20 0xFFFFFFFFFFFFFFFFFFFFFFFFFFFFFFFFFFFFFFFF AND MUL OR SWAP1 SSTORE POP PUSH2 0x3141 PUSH8 0x761FBC309B47830F PUSH1 0xC0 SHL PUSH2 0x32E3 JUMP JUMPDEST PUSH2 0x3155 PUSH8 0xE9138225F481C91D PUSH1 0xC0 SHL PUSH2 0x32E3 JUMP JUMPDEST PUSH1 0x8 PUSH1 0x0 SWAP1 SLOAD SWAP1 PUSH2 0x100 EXP SWAP1 DIV PUSH20 0xFFFFFFFFFFFFFFFFFFFFFFFFFFFFFFFFFFFFFFFF AND PUSH20 0xFFFFFFFFFFFFFFFFFFFFFFFFFFFFFFFFFFFFFFFF AND PUSH4 0x13F2DA7B DUP3 PUSH1 0x2 ADD SLOAD ADDRESS DUP5 PUSH1 0x0 ADD PUSH1 0x0 SWAP1 SLOAD SWAP1 PUSH2 0x100 EXP SWAP1 DIV PUSH20 0xFFFFFFFFFFFFFFFFFFFFFFFFFFFFFFFFFFFFFFFF AND CALLER PUSH1 0x40 MLOAD DUP6 PUSH4 0xFFFFFFFF AND PUSH1 0xE0 SHL DUP2 MSTORE PUSH1 0x4 ADD PUSH2 0x31DE SWAP5 SWAP4 SWAP3 SWAP2 SWAP1 PUSH2 0x5D14 JUMP JUMPDEST PUSH1 0x0 PUSH1 0x40 MLOAD DUP1 DUP4 SUB DUP2 PUSH1 0x0 DUP8 DUP1 EXTCODESIZE ISZERO DUP1 ISZERO PUSH2 0x31F8 JUMPI PUSH1 0x0 DUP1 REVERT JUMPDEST POP GAS CALL ISZERO DUP1 ISZERO PUSH2 0x320C JUMPI RETURNDATASIZE PUSH1 0x0 DUP1 RETURNDATACOPY RETURNDATASIZE PUSH1 0x0 REVERT JUMPDEST POP POP POP POP PUSH2 0x3224 PUSH8 0x73D9F5531D13095B PUSH1 0xC0 SHL PUSH2 0x32E3 JUMP JUMPDEST PUSH2 0x3238 PUSH8 0x9388C02C18F09153 PUSH1 0xC0 SHL PUSH2 0x32E3 JUMP JUMPDEST PUSH32 0x535D4BF1D4FD06876E3BED38C167C7631C9C1C0F1BAB9B408655C7A724E4B2F7 DUP2 PUSH1 0x2 ADD SLOAD CALLER PUSH1 0x40 MLOAD PUSH2 0x326D SWAP3 SWAP2 SWAP1 PUSH2 0x5D59 JUMP JUMPDEST PUSH1 0x40 MLOAD DUP1 SWAP2 SUB SWAP1 LOG1 POP POP JUMP JUMPDEST PUSH1 0x0 PUSH32 0x1FFC9A700000000000000000000000000000000000000000000000000000000 PUSH28 0xFFFFFFFFFFFFFFFFFFFFFFFFFFFFFFFFFFFFFFFFFFFFFFFFFFFFFFFF NOT AND DUP3 PUSH28 0xFFFFFFFFFFFFFFFFFFFFFFFFFFFFFFFFFFFFFFFFFFFFFFFFFFFFFFFF NOT AND EQ SWAP1 POP SWAP2 SWAP1 POP JUMP JUMPDEST POP JUMP JUMPDEST PUSH1 0x60 PUSH1 0x0 PUSH1 0x4 PUSH1 0x0 DUP5 DUP2 MSTORE PUSH1 0x20 ADD SWAP1 DUP2 MSTORE PUSH1 0x20 ADD PUSH1 0x0 KECCAK256 DUP1 SLOAD PUSH2 0x3308 SWAP1 PUSH2 0x5449 JUMP JUMPDEST DUP1 PUSH1 0x1F ADD PUSH1 0x20 DUP1 SWAP2 DIV MUL PUSH1 0x20 ADD PUSH1 0x40 MLOAD SWAP1 DUP2 ADD PUSH1 0x40 MSTORE DUP1 SWAP3 SWAP2 SWAP1 DUP2 DUP2 MSTORE PUSH1 0x20 ADD DUP3 DUP1 SLOAD PUSH2 0x3334 SWAP1 PUSH2 0x5449 JUMP JUMPDEST DUP1 ISZERO PUSH2 0x3381 JUMPI DUP1 PUSH1 0x1F LT PUSH2 0x3356 JUMPI PUSH2 0x100 DUP1 DUP4 SLOAD DIV MUL DUP4 MSTORE SWAP2 PUSH1 0x20 ADD SWAP2 PUSH2 0x3381 JUMP JUMPDEST DUP3 ADD SWAP2 SWAP1 PUSH1 0x0 MSTORE PUSH1 0x20 PUSH1 0x0 KECCAK256 SWAP1 JUMPDEST DUP2 SLOAD DUP2 MSTORE SWAP1 PUSH1 0x1 ADD SWAP1 PUSH1 0x20 ADD DUP1 DUP4 GT PUSH2 0x3364 JUMPI DUP3 SWAP1 SUB PUSH1 0x1F AND DUP3 ADD SWAP2 JUMPDEST POP POP POP POP POP SWAP1 POP PUSH1 0x0 DUP2 MLOAD GT PUSH2 0x339F JUMPI PUSH2 0x339A DUP4 PUSH2 0x3D3F JUMP JUMPDEST PUSH2 0x33C3 JUMP JUMPDEST PUSH1 0x3 DUP2 PUSH1 0x40 MLOAD PUSH1 0x20 ADD PUSH2 0x33B3 SWAP3 SWAP2 SWAP1 PUSH2 0x5E99 JUMP JUMPDEST PUSH1 0x40 MLOAD PUSH1 0x20 DUP2 DUP4 SUB SUB DUP2 MSTORE SWAP1 PUSH1 0x40 MSTORE JUMPDEST SWAP2 POP POP SWAP2 SWAP1 POP JUMP JUMPDEST PUSH1 0x0 CALLER SWAP1 POP SWAP1 JUMP JUMPDEST DUP2 MLOAD DUP4 MLOAD EQ PUSH2 0x3417 JUMPI PUSH1 0x40 MLOAD PUSH32 0x8C379A000000000000000000000000000000000000000000000000000000000 DUP2 MSTORE PUSH1 0x4 ADD PUSH2 0x340E SWAP1 PUSH2 0x5F2F JUMP JUMPDEST PUSH1 0x40 MLOAD DUP1 SWAP2 SUB SWAP1 REVERT JUMPDEST PUSH1 0x0 PUSH20 0xFFFFFFFFFFFFFFFFFFFFFFFFFFFFFFFFFFFFFFFF AND DUP5 PUSH20 0xFFFFFFFFFFFFFFFFFFFFFFFFFFFFFFFFFFFFFFFF AND SUB PUSH2 0x3486 JUMPI PUSH1 0x40 MLOAD PUSH32 0x8C379A000000000000000000000000000000000000000000000000000000000 DUP2 MSTORE PUSH1 0x4 ADD PUSH2 0x347D SWAP1 PUSH2 0x5FC1 JUMP JUMPDEST PUSH1 0x40 MLOAD DUP1 SWAP2 SUB SWAP1 REVERT JUMPDEST PUSH1 0x0 PUSH2 0x3490 PUSH2 0x33CB JUMP JUMPDEST SWAP1 POP PUSH2 0x34A0 DUP2 DUP8 DUP8 DUP8 DUP8 DUP8 PUSH2 0x3DD3 JUMP JUMPDEST PUSH1 0x0 JUMPDEST DUP5 MLOAD DUP2 LT ISZERO PUSH2 0x3651 JUMPI PUSH1 0x0 DUP6 DUP3 DUP2 MLOAD DUP2 LT PUSH2 0x34C1 JUMPI PUSH2 0x34C0 PUSH2 0x55D8 JUMP JUMPDEST JUMPDEST PUSH1 0x20 MUL PUSH1 0x20 ADD ADD MLOAD SWAP1 POP PUSH1 0x0 DUP6 DUP4 DUP2 MLOAD DUP2 LT PUSH2 0x34E0 JUMPI PUSH2 0x34DF PUSH2 0x55D8 JUMP JUMPDEST JUMPDEST PUSH1 0x20 MUL PUSH1 0x20 ADD ADD MLOAD SWAP1 POP PUSH1 0x0 DUP1 PUSH1 0x0 DUP5 DUP2 MSTORE PUSH1 0x20 ADD SWAP1 DUP2 MSTORE PUSH1 0x20 ADD PUSH1 0x0 KECCAK256 PUSH1 0x0 DUP12 PUSH20 0xFFFFFFFFFFFFFFFFFFFFFFFFFFFFFFFFFFFFFFFF AND PUSH20 0xFFFFFFFFFFFFFFFFFFFFFFFFFFFFFFFFFFFFFFFF AND DUP2 MSTORE PUSH1 0x20 ADD SWAP1 DUP2 MSTORE PUSH1 0x20 ADD PUSH1 0x0 KECCAK256 SLOAD SWAP1 POP DUP2 DUP2 LT ISZERO PUSH2 0x3581 JUMPI PUSH1 0x40 MLOAD PUSH32 0x8C379A000000000000000000000000000000000000000000000000000000000 DUP2 MSTORE PUSH1 0x4 ADD PUSH2 0x3578 SWAP1 PUSH2 0x6053 JUMP JUMPDEST PUSH1 0x40 MLOAD DUP1 SWAP2 SUB SWAP1 REVERT JUMPDEST DUP2 DUP2 SUB PUSH1 0x0 DUP1 DUP6 DUP2 MSTORE PUSH1 0x20 ADD SWAP1 DUP2 MSTORE PUSH1 0x20 ADD PUSH1 0x0 KECCAK256 PUSH1 0x0 DUP13 PUSH20 0xFFFFFFFFFFFFFFFFFFFFFFFFFFFFFFFFFFFFFFFF AND PUSH20 0xFFFFFFFFFFFFFFFFFFFFFFFFFFFFFFFFFFFFFFFF AND DUP2 MSTORE PUSH1 0x20 ADD SWAP1 DUP2 MSTORE PUSH1 0x20 ADD PUSH1 0x0 KECCAK256 DUP2 SWAP1 SSTORE POP DUP2 PUSH1 0x0 DUP1 DUP6 DUP2 MSTORE PUSH1 0x20 ADD SWAP1 DUP2 MSTORE PUSH1 0x20 ADD PUSH1 0x0 KECCAK256 PUSH1 0x0 DUP12 PUSH20 0xFFFFFFFFFFFFFFFFFFFFFFFFFFFFFFFFFFFFFFFF AND PUSH20 0xFFFFFFFFFFFFFFFFFFFFFFFFFFFFFFFFFFFFFFFF AND DUP2 MSTORE PUSH1 0x20 ADD SWAP1 DUP2 MSTORE PUSH1 0x20 ADD PUSH1 0x0 KECCAK256 PUSH1 0x0 DUP3 DUP3 SLOAD PUSH2 0x3636 SWAP2 SWAP1 PUSH2 0x5849 JUMP JUMPDEST SWAP3 POP POP DUP2 SWAP1 SSTORE POP POP POP POP DUP1 PUSH2 0x364A SWAP1 PUSH2 0x56FC JUMP JUMPDEST SWAP1 POP PUSH2 0x34A3 JUMP JUMPDEST POP DUP5 PUSH20 0xFFFFFFFFFFFFFFFFFFFFFFFFFFFFFFFFFFFFFFFF AND DUP7 PUSH20 0xFFFFFFFFFFFFFFFFFFFFFFFFFFFFFFFFFFFFFFFF AND DUP3 PUSH20 0xFFFFFFFFFFFFFFFFFFFFFFFFFFFFFFFFFFFFFFFF AND PUSH32 0x4A39DC06D4C0DBC64B70AF90FD698A233A518AA5D07E595D983B8C0526C8F7FB DUP8 DUP8 PUSH1 0x40 MLOAD PUSH2 0x36C8 SWAP3 SWAP2 SWAP1 PUSH2 0x6073 JUMP JUMPDEST PUSH1 0x40 MLOAD DUP1 SWAP2 SUB SWAP1 LOG4 PUSH2 0x36DE DUP2 DUP8 DUP8 DUP8 DUP8 DUP8 PUSH2 0x3E25 JUMP JUMPDEST PUSH2 0x36EC DUP2 DUP8 DUP8 DUP8 DUP8 DUP8 PUSH2 0x3E2D JUMP JUMPDEST POP POP POP POP POP POP JUMP JUMPDEST PUSH1 0x0 DUP2 PUSH1 0x0 ADD SLOAD SWAP1 POP SWAP2 SWAP1 POP JUMP JUMPDEST PUSH1 0x0 PUSH1 0x1 SWAP1 POP SWAP2 SWAP1 POP JUMP JUMPDEST PUSH1 0x1 DUP2 PUSH1 0x0 ADD PUSH1 0x0 DUP3 DUP3 SLOAD ADD SWAP3 POP POP DUP2 SWAP1 SSTORE POP POP JUMP JUMPDEST PUSH1 0x0 PUSH20 0xFFFFFFFFFFFFFFFFFFFFFFFFFFFFFFFFFFFFFFFF AND DUP5 PUSH20 0xFFFFFFFFFFFFFFFFFFFFFFFFFFFFFFFFFFFFFFFF AND SUB PUSH2 0x3792 JUMPI PUSH1 0x40 MLOAD PUSH32 0x8C379A000000000000000000000000000000000000000000000000000000000 DUP2 MSTORE PUSH1 0x4 ADD PUSH2 0x3789 SWAP1 PUSH2 0x611C JUMP JUMPDEST PUSH1 0x40 MLOAD DUP1 SWAP2 SUB SWAP1 REVERT JUMPDEST PUSH1 0x0 PUSH2 0x379C PUSH2 0x33CB JUMP JUMPDEST SWAP1 POP PUSH1 0x0 PUSH2 0x37A9 DUP6 PUSH2 0x4004 JUMP JUMPDEST SWAP1 POP PUSH1 0x0 PUSH2 0x37B6 DUP6 PUSH2 0x4004 JUMP JUMPDEST SWAP1 POP PUSH2 0x37C7 DUP4 PUSH1 0x0 DUP10 DUP6 DUP6 DUP10 PUSH2 0x3DD3 JUMP JUMPDEST DUP5 PUSH1 0x0 DUP1 DUP9 DUP2 MSTORE PUSH1 0x20 ADD SWAP1 DUP2 MSTORE PUSH1 0x20 ADD PUSH1 0x0 KECCAK256 PUSH1 0x0 DUP10 PUSH20 0xFFFFFFFFFFFFFFFFFFFFFFFFFFFFFFFFFFFFFFFF AND PUSH20 0xFFFFFFFFFFFFFFFFFFFFFFFFFFFFFFFFFFFFFFFF AND DUP2 MSTORE PUSH1 0x20 ADD SWAP1 DUP2 MSTORE PUSH1 0x20 ADD PUSH1 0x0 KECCAK256 PUSH1 0x0 DUP3 DUP3 SLOAD PUSH2 0x3826 SWAP2 SWAP1 PUSH2 0x5849 JUMP JUMPDEST SWAP3 POP POP DUP2 SWAP1 SSTORE POP DUP7 PUSH20 0xFFFFFFFFFFFFFFFFFFFFFFFFFFFFFFFFFFFFFFFF AND PUSH1 0x0 PUSH20 0xFFFFFFFFFFFFFFFFFFFFFFFFFFFFFFFFFFFFFFFF AND DUP5 PUSH20 0xFFFFFFFFFFFFFFFFFFFFFFFFFFFFFFFFFFFFFFFF AND PUSH32 0xC3D58168C5AE7397731D063D5BBF3D657854427343F4C083240F7AACAA2D0F62 DUP10 DUP10 PUSH1 0x40 MLOAD PUSH2 0x38A4 SWAP3 SWAP2 SWAP1 PUSH2 0x613C JUMP JUMPDEST PUSH1 0x40 MLOAD DUP1 SWAP2 SUB SWAP1 LOG4 PUSH2 0x38BB DUP4 PUSH1 0x0 DUP10 DUP6 DUP6 DUP10 PUSH2 0x3E25 JUMP JUMPDEST PUSH2 0x38CA DUP4 PUSH1 0x0 DUP10 DUP10 DUP10 DUP10 PUSH2 0x407E JUMP JUMPDEST POP POP POP POP POP POP POP JUMP JUMPDEST DUP1 PUSH1 0x4 PUSH1 0x0 DUP5 DUP2 MSTORE PUSH1 0x20 ADD SWAP1 DUP2 MSTORE PUSH1 0x20 ADD PUSH1 0x0 KECCAK256 SWAP1 DUP2 PUSH2 0x38F3 SWAP2 SWAP1 PUSH2 0x62FC JUMP JUMPDEST POP DUP2 PUSH32 0x6BB7FF708619BA0610CBA295A58592E0451DEE2622938C8755667688DAF3529B PUSH2 0x391F DUP5 PUSH2 0x790 JUMP JUMPDEST PUSH1 0x40 MLOAD PUSH2 0x392C SWAP2 SWAP1 PUSH2 0x4724 JUMP JUMPDEST PUSH1 0x40 MLOAD DUP1 SWAP2 SUB SWAP1 LOG2 POP POP JUMP JUMPDEST DUP2 PUSH20 0xFFFFFFFFFFFFFFFFFFFFFFFFFFFFFFFFFFFFFFFF AND DUP4 PUSH20 0xFFFFFFFFFFFFFFFFFFFFFFFFFFFFFFFFFFFFFFFF AND SUB PUSH2 0x39A6 JUMPI PUSH1 0x40 MLOAD PUSH32 0x8C379A000000000000000000000000000000000000000000000000000000000 DUP2 MSTORE PUSH1 0x4 ADD PUSH2 0x399D SWAP1 PUSH2 0x6440 JUMP JUMPDEST PUSH1 0x40 MLOAD DUP1 SWAP2 SUB SWAP1 REVERT JUMPDEST DUP1 PUSH1 0x1 PUSH1 0x0 DUP6 PUSH20 0xFFFFFFFFFFFFFFFFFFFFFFFFFFFFFFFFFFFFFFFF AND PUSH20 0xFFFFFFFFFFFFFFFFFFFFFFFFFFFFFFFFFFFFFFFF AND DUP2 MSTORE PUSH1 0x20 ADD SWAP1 DUP2 MSTORE PUSH1 0x20 ADD PUSH1 0x0 KECCAK256 PUSH1 0x0 DUP5 PUSH20 0xFFFFFFFFFFFFFFFFFFFFFFFFFFFFFFFFFFFFFFFF AND PUSH20 0xFFFFFFFFFFFFFFFFFFFFFFFFFFFFFFFFFFFFFFFF AND DUP2 MSTORE PUSH1 0x20 ADD SWAP1 DUP2 MSTORE PUSH1 0x20 ADD PUSH1 0x0 KECCAK256 PUSH1 0x0 PUSH2 0x100 EXP DUP2 SLOAD DUP2 PUSH1 0xFF MUL NOT AND SWAP1 DUP4 ISZERO ISZERO MUL OR SWAP1 SSTORE POP DUP2 PUSH20 0xFFFFFFFFFFFFFFFFFFFFFFFFFFFFFFFFFFFFFFFF AND DUP4 PUSH20 0xFFFFFFFFFFFFFFFFFFFFFFFFFFFFFFFFFFFFFFFF AND PUSH32 0x17307EAB39AB6107E8899845AD3D59BD9653F200F220920489CA2B5937696C31 DUP4 PUSH1 0x40 MLOAD PUSH2 0x3A97 SWAP2 SWAP1 PUSH2 0x4679 JUMP JUMPDEST PUSH1 0x40 MLOAD DUP1 SWAP2 SUB SWAP1 LOG3 POP POP POP JUMP JUMPDEST PUSH1 0x0 PUSH20 0xFFFFFFFFFFFFFFFFFFFFFFFFFFFFFFFFFFFFFFFF AND DUP5 PUSH20 0xFFFFFFFFFFFFFFFFFFFFFFFFFFFFFFFFFFFFFFFF AND SUB PUSH2 0x3B13 JUMPI PUSH1 0x40 MLOAD PUSH32 0x8C379A000000000000000000000000000000000000000000000000000000000 DUP2 MSTORE PUSH1 0x4 ADD PUSH2 0x3B0A SWAP1 PUSH2 0x5FC1 JUMP JUMPDEST PUSH1 0x40 MLOAD DUP1 SWAP2 SUB SWAP1 REVERT JUMPDEST PUSH1 0x0 PUSH2 0x3B1D PUSH2 0x33CB JUMP JUMPDEST SWAP1 POP PUSH1 0x0 PUSH2 0x3B2A DUP6 PUSH2 0x4004 JUMP JUMPDEST SWAP1 POP PUSH1 0x0 PUSH2 0x3B37 DUP6 PUSH2 0x4004 JUMP JUMPDEST SWAP1 POP PUSH2 0x3B47 DUP4 DUP10 DUP10 DUP6 DUP6 DUP10 PUSH2 0x3DD3 JUMP JUMPDEST PUSH1 0x0 DUP1 PUSH1 0x0 DUP9 DUP2 MSTORE PUSH1 0x20 ADD SWAP1 DUP2 MSTORE PUSH1 0x20 ADD PUSH1 0x0 KECCAK256 PUSH1 0x0 DUP11 PUSH20 0xFFFFFFFFFFFFFFFFFFFFFFFFFFFFFFFFFFFFFFFF AND PUSH20 0xFFFFFFFFFFFFFFFFFFFFFFFFFFFFFFFFFFFFFFFF AND DUP2 MSTORE PUSH1 0x20 ADD SWAP1 DUP2 MSTORE PUSH1 0x20 ADD PUSH1 0x0 KECCAK256 SLOAD SWAP1 POP DUP6 DUP2 LT ISZERO PUSH2 0x3BDE JUMPI PUSH1 0x40 MLOAD PUSH32 0x8C379A000000000000000000000000000000000000000000000000000000000 DUP2 MSTORE PUSH1 0x4 ADD PUSH2 0x3BD5 SWAP1 PUSH2 0x6053 JUMP JUMPDEST PUSH1 0x40 MLOAD DUP1 SWAP2 SUB SWAP1 REVERT JUMPDEST DUP6 DUP2 SUB PUSH1 0x0 DUP1 DUP10 DUP2 MSTORE PUSH1 0x20 ADD SWAP1 DUP2 MSTORE PUSH1 0x20 ADD PUSH1 0x0 KECCAK256 PUSH1 0x0 DUP12 PUSH20 0xFFFFFFFFFFFFFFFFFFFFFFFFFFFFFFFFFFFFFFFF AND PUSH20 0xFFFFFFFFFFFFFFFFFFFFFFFFFFFFFFFFFFFFFFFF AND DUP2 MSTORE PUSH1 0x20 ADD SWAP1 DUP2 MSTORE PUSH1 0x20 ADD PUSH1 0x0 KECCAK256 DUP2 SWAP1 SSTORE POP DUP6 PUSH1 0x0 DUP1 DUP10 DUP2 MSTORE PUSH1 0x20 ADD SWAP1 DUP2 MSTORE PUSH1 0x20 ADD PUSH1 0x0 KECCAK256 PUSH1 0x0 DUP11 PUSH20 0xFFFFFFFFFFFFFFFFFFFFFFFFFFFFFFFFFFFFFFFF AND PUSH20 0xFFFFFFFFFFFFFFFFFFFFFFFFFFFFFFFFFFFFFFFF AND DUP2 MSTORE PUSH1 0x20 ADD SWAP1 DUP2 MSTORE PUSH1 0x20 ADD PUSH1 0x0 KECCAK256 PUSH1 0x0 DUP3 DUP3 SLOAD PUSH2 0x3C93 SWAP2 SWAP1 PUSH2 0x5849 JUMP JUMPDEST SWAP3 POP POP DUP2 SWAP1 SSTORE POP DUP8 PUSH20 0xFFFFFFFFFFFFFFFFFFFFFFFFFFFFFFFFFFFFFFFF AND DUP10 PUSH20 0xFFFFFFFFFFFFFFFFFFFFFFFFFFFFFFFFFFFFFFFF AND DUP6 PUSH20 0xFFFFFFFFFFFFFFFFFFFFFFFFFFFFFFFFFFFFFFFF AND PUSH32 0xC3D58168C5AE7397731D063D5BBF3D657854427343F4C083240F7AACAA2D0F62 DUP11 DUP11 PUSH1 0x40 MLOAD PUSH2 0x3D10 SWAP3 SWAP2 SWAP1 PUSH2 0x613C JUMP JUMPDEST PUSH1 0x40 MLOAD DUP1 SWAP2 SUB SWAP1 LOG4 PUSH2 0x3D26 DUP5 DUP11 DUP11 DUP7 DUP7 DUP11 PUSH2 0x3E25 JUMP JUMPDEST PUSH2 0x3D34 DUP5 DUP11 DUP11 DUP11 DUP11 DUP11 PUSH2 0x407E JUMP JUMPDEST POP POP POP POP POP POP POP POP POP JUMP JUMPDEST PUSH1 0x60 PUSH1 0x2 DUP1 SLOAD PUSH2 0x3D4E SWAP1 PUSH2 0x5449 JUMP JUMPDEST DUP1 PUSH1 0x1F ADD PUSH1 0x20 DUP1 SWAP2 DIV MUL PUSH1 0x20 ADD PUSH1 0x40 MLOAD SWAP1 DUP2 ADD PUSH1 0x40 MSTORE DUP1 SWAP3 SWAP2 SWAP1 DUP2 DUP2 MSTORE PUSH1 0x20 ADD DUP3 DUP1 SLOAD PUSH2 0x3D7A SWAP1 PUSH2 0x5449 JUMP JUMPDEST DUP1 ISZERO PUSH2 0x3DC7 JUMPI DUP1 PUSH1 0x1F LT PUSH2 0x3D9C JUMPI PUSH2 0x100 DUP1 DUP4 SLOAD DIV MUL DUP4 MSTORE SWAP2 PUSH1 0x20 ADD SWAP2 PUSH2 0x3DC7 JUMP JUMPDEST DUP3 ADD SWAP2 SWAP1 PUSH1 0x0 MSTORE PUSH1 0x20 PUSH1 0x0 KECCAK256 SWAP1 JUMPDEST DUP2 SLOAD DUP2 MSTORE SWAP1 PUSH1 0x1 ADD SWAP1 PUSH1 0x20 ADD DUP1 DUP4 GT PUSH2 0x3DAA JUMPI DUP3 SWAP1 SUB PUSH1 0x1F AND DUP3 ADD SWAP2 JUMPDEST POP POP POP POP POP SWAP1 POP SWAP2 SWAP1 POP JUMP JUMPDEST PUSH2 0x3DE7 PUSH8 0x84143E9761C79592 PUSH1 0xC0 SHL PUSH2 0x32E3 JUMP JUMPDEST PUSH2 0x3DFB PUSH8 0xDDCFB583BFB3417C PUSH1 0xC0 SHL PUSH2 0x32E3 JUMP JUMPDEST PUSH2 0x3E0F PUSH8 0xE8E8567EF4E5142 PUSH1 0xC0 SHL PUSH2 0x32E3 JUMP JUMPDEST PUSH2 0x3E1D DUP7 DUP7 DUP7 DUP7 DUP7 DUP7 PUSH2 0x4255 JUMP JUMPDEST POP POP POP POP POP POP JUMP JUMPDEST POP POP POP POP POP POP JUMP JUMPDEST PUSH2 0x3E4C DUP5 PUSH20 0xFFFFFFFFFFFFFFFFFFFFFFFFFFFFFFFFFFFFFFFF AND PUSH2 0x4425 JUMP JUMPDEST ISZERO PUSH2 0x3FFC JUMPI DUP4 PUSH20 0xFFFFFFFFFFFFFFFFFFFFFFFFFFFFFFFFFFFFFFFF AND PUSH4 0xBC197C81 DUP8 DUP8 DUP7 DUP7 DUP7 PUSH1 0x40 MLOAD DUP7 PUSH4 0xFFFFFFFF AND PUSH1 0xE0 SHL DUP2 MSTORE PUSH1 0x4 ADD PUSH2 0x3E92 SWAP6 SWAP5 SWAP4 SWAP3 SWAP2 SWAP1 PUSH2 0x64B5 JUMP JUMPDEST PUSH1 0x20 PUSH1 0x40 MLOAD DUP1 DUP4 SUB DUP2 PUSH1 0x0 DUP8 GAS CALL SWAP3 POP POP POP DUP1 ISZERO PUSH2 0x3ECE JUMPI POP PUSH1 0x40 MLOAD RETURNDATASIZE PUSH1 0x1F NOT PUSH1 0x1F DUP3 ADD AND DUP3 ADD DUP1 PUSH1 0x40 MSTORE POP DUP2 ADD SWAP1 PUSH2 0x3ECB SWAP2 SWAP1 PUSH2 0x6532 JUMP JUMPDEST PUSH1 0x1 JUMPDEST PUSH2 0x3F73 JUMPI PUSH2 0x3EDA PUSH2 0x656C JUMP JUMPDEST DUP1 PUSH4 0x8C379A0 SUB PUSH2 0x3F36 JUMPI POP PUSH2 0x3EEE PUSH2 0x658E JUMP JUMPDEST DUP1 PUSH2 0x3EF9 JUMPI POP PUSH2 0x3F38 JUMP JUMPDEST DUP1 PUSH1 0x40 MLOAD PUSH32 0x8C379A000000000000000000000000000000000000000000000000000000000 DUP2 MSTORE PUSH1 0x4 ADD PUSH2 0x3F2D SWAP2 SWAP1 PUSH2 0x4724 JUMP JUMPDEST PUSH1 0x40 MLOAD DUP1 SWAP2 SUB SWAP1 REVERT JUMPDEST POP JUMPDEST PUSH1 0x40 MLOAD PUSH32 0x8C379A000000000000000000000000000000000000000000000000000000000 DUP2 MSTORE PUSH1 0x4 ADD PUSH2 0x3F6A SWAP1 PUSH2 0x6690 JUMP JUMPDEST PUSH1 0x40 MLOAD DUP1 SWAP2 SUB SWAP1 REVERT JUMPDEST PUSH4 0xBC197C81 PUSH1 0xE0 SHL PUSH28 0xFFFFFFFFFFFFFFFFFFFFFFFFFFFFFFFFFFFFFFFFFFFFFFFFFFFFFFFF NOT AND DUP2 PUSH28 0xFFFFFFFFFFFFFFFFFFFFFFFFFFFFFFFFFFFFFFFFFFFFFFFFFFFFFFFF NOT AND EQ PUSH2 0x3FFA JUMPI PUSH1 0x40 MLOAD PUSH32 0x8C379A000000000000000000000000000000000000000000000000000000000 DUP2 MSTORE PUSH1 0x4 ADD PUSH2 0x3FF1 SWAP1 PUSH2 0x6722 JUMP JUMPDEST PUSH1 0x40 MLOAD DUP1 SWAP2 SUB SWAP1 REVERT JUMPDEST POP JUMPDEST POP POP POP POP POP POP JUMP JUMPDEST PUSH1 0x60 PUSH1 0x0 PUSH1 0x1 PUSH8 0xFFFFFFFFFFFFFFFF DUP2 GT ISZERO PUSH2 0x4023 JUMPI PUSH2 0x4022 PUSH2 0x4778 JUMP JUMPDEST JUMPDEST PUSH1 0x40 MLOAD SWAP1 DUP1 DUP3 MSTORE DUP1 PUSH1 0x20 MUL PUSH1 0x20 ADD DUP3 ADD PUSH1 0x40 MSTORE DUP1 ISZERO PUSH2 0x4051 JUMPI DUP2 PUSH1 0x20 ADD PUSH1 0x20 DUP3 MUL DUP1 CALLDATASIZE DUP4 CALLDATACOPY DUP1 DUP3 ADD SWAP2 POP POP SWAP1 POP JUMPDEST POP SWAP1 POP DUP3 DUP2 PUSH1 0x0 DUP2 MLOAD DUP2 LT PUSH2 0x4069 JUMPI PUSH2 0x4068 PUSH2 0x55D8 JUMP JUMPDEST JUMPDEST PUSH1 0x20 MUL PUSH1 0x20 ADD ADD DUP2 DUP2 MSTORE POP POP DUP1 SWAP2 POP POP SWAP2 SWAP1 POP JUMP JUMPDEST PUSH2 0x409D DUP5 PUSH20 0xFFFFFFFFFFFFFFFFFFFFFFFFFFFFFFFFFFFFFFFF AND PUSH2 0x4425 JUMP JUMPDEST ISZERO PUSH2 0x424D JUMPI DUP4 PUSH20 0xFFFFFFFFFFFFFFFFFFFFFFFFFFFFFFFFFFFFFFFF AND PUSH4 0xF23A6E61 DUP8 DUP8 DUP7 DUP7 DUP7 PUSH1 0x40 MLOAD DUP7 PUSH4 0xFFFFFFFF AND PUSH1 0xE0 SHL DUP2 MSTORE PUSH1 0x4 ADD PUSH2 0x40E3 SWAP6 SWAP5 SWAP4 SWAP3 SWAP2 SWAP1 PUSH2 0x6742 JUMP JUMPDEST PUSH1 0x20 PUSH1 0x40 MLOAD DUP1 DUP4 SUB DUP2 PUSH1 0x0 DUP8 GAS CALL SWAP3 POP POP POP DUP1 ISZERO PUSH2 0x411F JUMPI POP PUSH1 0x40 MLOAD RETURNDATASIZE PUSH1 0x1F NOT PUSH1 0x1F DUP3 ADD AND DUP3 ADD DUP1 PUSH1 0x40 MSTORE POP DUP2 ADD SWAP1 PUSH2 0x411C SWAP2 SWAP1 PUSH2 0x6532 JUMP JUMPDEST PUSH1 0x1 JUMPDEST PUSH2 0x41C4 JUMPI PUSH2 0x412B PUSH2 0x656C JUMP JUMPDEST DUP1 PUSH4 0x8C379A0 SUB PUSH2 0x4187 JUMPI POP PUSH2 0x413F PUSH2 0x658E JUMP JUMPDEST DUP1 PUSH2 0x414A JUMPI POP PUSH2 0x4189 JUMP JUMPDEST DUP1 PUSH1 0x40 MLOAD PUSH32 0x8C379A000000000000000000000000000000000000000000000000000000000 DUP2 MSTORE PUSH1 0x4 ADD PUSH2 0x417E SWAP2 SWAP1 PUSH2 0x4724 JUMP JUMPDEST PUSH1 0x40 MLOAD DUP1 SWAP2 SUB SWAP1 REVERT JUMPDEST POP JUMPDEST PUSH1 0x40 MLOAD PUSH32 0x8C379A000000000000000000000000000000000000000000000000000000000 DUP2 MSTORE PUSH1 0x4 ADD PUSH2 0x41BB SWAP1 PUSH2 0x6690 JUMP JUMPDEST PUSH1 0x40 MLOAD DUP1 SWAP2 SUB SWAP1 REVERT JUMPDEST PUSH4 0xF23A6E61 PUSH1 0xE0 SHL PUSH28 0xFFFFFFFFFFFFFFFFFFFFFFFFFFFFFFFFFFFFFFFFFFFFFFFFFFFFFFFF NOT AND DUP2 PUSH28 0xFFFFFFFFFFFFFFFFFFFFFFFFFFFFFFFFFFFFFFFFFFFFFFFFFFFFFFFF NOT AND EQ PUSH2 0x424B JUMPI PUSH1 0x40 MLOAD PUSH32 0x8C379A000000000000000000000000000000000000000000000000000000000 DUP2 MSTORE PUSH1 0x4 ADD PUSH2 0x4242 SWAP1 PUSH2 0x6722 JUMP JUMPDEST PUSH1 0x40 MLOAD DUP1 SWAP2 SUB SWAP1 REVERT JUMPDEST POP JUMPDEST POP POP POP POP POP POP JUMP JUMPDEST PUSH2 0x4263 DUP7 DUP7 DUP7 DUP7 DUP7 DUP7 PUSH2 0x4448 JUMP JUMPDEST PUSH1 0x0 PUSH20 0xFFFFFFFFFFFFFFFFFFFFFFFFFFFFFFFFFFFFFFFF AND DUP6 PUSH20 0xFFFFFFFFFFFFFFFFFFFFFFFFFFFFFFFFFFFFFFFF AND SUB PUSH2 0x4314 JUMPI PUSH1 0x0 JUMPDEST DUP4 MLOAD DUP2 LT ISZERO PUSH2 0x4312 JUMPI DUP3 DUP2 DUP2 MLOAD DUP2 LT PUSH2 0x42B6 JUMPI PUSH2 0x42B5 PUSH2 0x55D8 JUMP JUMPDEST JUMPDEST PUSH1 0x20 MUL PUSH1 0x20 ADD ADD MLOAD PUSH1 0x5 PUSH1 0x0 DUP7 DUP5 DUP2 MLOAD DUP2 LT PUSH2 0x42D5 JUMPI PUSH2 0x42D4 PUSH2 0x55D8 JUMP JUMPDEST JUMPDEST PUSH1 0x20 MUL PUSH1 0x20 ADD ADD MLOAD DUP2 MSTORE PUSH1 0x20 ADD SWAP1 DUP2 MSTORE PUSH1 0x20 ADD PUSH1 0x0 KECCAK256 PUSH1 0x0 DUP3 DUP3 SLOAD PUSH2 0x42FA SWAP2 SWAP1 PUSH2 0x5849 JUMP JUMPDEST SWAP3 POP POP DUP2 SWAP1 SSTORE POP DUP1 PUSH2 0x430B SWAP1 PUSH2 0x56FC JUMP JUMPDEST SWAP1 POP PUSH2 0x429A JUMP JUMPDEST POP JUMPDEST PUSH1 0x0 PUSH20 0xFFFFFFFFFFFFFFFFFFFFFFFFFFFFFFFFFFFFFFFF AND DUP5 PUSH20 0xFFFFFFFFFFFFFFFFFFFFFFFFFFFFFFFFFFFFFFFF AND SUB PUSH2 0x441D JUMPI PUSH1 0x0 JUMPDEST DUP4 MLOAD DUP2 LT ISZERO PUSH2 0x441B JUMPI PUSH1 0x0 DUP5 DUP3 DUP2 MLOAD DUP2 LT PUSH2 0x4369 JUMPI PUSH2 0x4368 PUSH2 0x55D8 JUMP JUMPDEST JUMPDEST PUSH1 0x20 MUL PUSH1 0x20 ADD ADD MLOAD SWAP1 POP PUSH1 0x0 DUP5 DUP4 DUP2 MLOAD DUP2 LT PUSH2 0x4388 JUMPI PUSH2 0x4387 PUSH2 0x55D8 JUMP JUMPDEST JUMPDEST PUSH1 0x20 MUL PUSH1 0x20 ADD ADD MLOAD SWAP1 POP PUSH1 0x0 PUSH1 0x5 PUSH1 0x0 DUP5 DUP2 MSTORE PUSH1 0x20 ADD SWAP1 DUP2 MSTORE PUSH1 0x20 ADD PUSH1 0x0 KECCAK256 SLOAD SWAP1 POP DUP2 DUP2 LT ISZERO PUSH2 0x43ED JUMPI PUSH1 0x40 MLOAD PUSH32 0x8C379A000000000000000000000000000000000000000000000000000000000 DUP2 MSTORE PUSH1 0x4 ADD PUSH2 0x43E4 SWAP1 PUSH2 0x680E JUMP JUMPDEST PUSH1 0x40 MLOAD DUP1 SWAP2 SUB SWAP1 REVERT JUMPDEST DUP2 DUP2 SUB PUSH1 0x5 PUSH1 0x0 DUP6 DUP2 MSTORE PUSH1 0x20 ADD SWAP1 DUP2 MSTORE PUSH1 0x20 ADD PUSH1 0x0 KECCAK256 DUP2 SWAP1 SSTORE POP POP POP POP DUP1 PUSH2 0x4414 SWAP1 PUSH2 0x56FC JUMP JUMPDEST SWAP1 POP PUSH2 0x434B JUMP JUMPDEST POP JUMPDEST POP POP POP POP POP POP JUMP JUMPDEST PUSH1 0x0 DUP1 DUP3 PUSH20 0xFFFFFFFFFFFFFFFFFFFFFFFFFFFFFFFFFFFFFFFF AND EXTCODESIZE GT SWAP1 POP SWAP2 SWAP1 POP JUMP JUMPDEST POP POP POP POP POP POP JUMP JUMPDEST PUSH1 0x40 MLOAD DUP1 PUSH2 0x180 ADD PUSH1 0x40 MSTORE DUP1 PUSH1 0x0 PUSH20 0xFFFFFFFFFFFFFFFFFFFFFFFFFFFFFFFFFFFFFFFF AND DUP2 MSTORE PUSH1 0x20 ADD PUSH1 0x0 DUP2 MSTORE PUSH1 0x20 ADD PUSH1 0x0 DUP2 MSTORE PUSH1 0x20 ADD PUSH1 0x0 DUP2 MSTORE PUSH1 0x20 ADD PUSH1 0x0 DUP2 MSTORE PUSH1 0x20 ADD PUSH1 0x0 DUP2 MSTORE PUSH1 0x20 ADD PUSH1 0x0 DUP2 MSTORE PUSH1 0x20 ADD PUSH1 0x0 DUP2 MSTORE PUSH1 0x20 ADD PUSH1 0x0 DUP2 MSTORE PUSH1 0x20 ADD PUSH1 0x0 DUP2 MSTORE PUSH1 0x20 ADD PUSH1 0x0 DUP2 MSTORE PUSH1 0x20 ADD PUSH1 0x60 DUP2 MSTORE POP SWAP1 JUMP JUMPDEST PUSH1 0x0 PUSH1 0x40 MLOAD SWAP1 POP SWAP1 JUMP JUMPDEST PUSH1 0x0 DUP1 REVERT JUMPDEST PUSH1 0x0 DUP1 REVERT JUMPDEST PUSH1 0x0 PUSH20 0xFFFFFFFFFFFFFFFFFFFFFFFFFFFFFFFFFFFFFFFF DUP3 AND SWAP1 POP SWAP2 SWAP1 POP JUMP JUMPDEST PUSH1 0x0 PUSH2 0x4506 DUP3 PUSH2 0x44DB JUMP JUMPDEST SWAP1 POP SWAP2 SWAP1 POP JUMP JUMPDEST PUSH2 0x4516 DUP2 PUSH2 0x44FB JUMP JUMPDEST DUP2 EQ PUSH2 0x4521 JUMPI PUSH1 0x0 DUP1 REVERT JUMPDEST POP JUMP JUMPDEST PUSH1 0x0 DUP2 CALLDATALOAD SWAP1 POP PUSH2 0x4533 DUP2 PUSH2 0x450D JUMP JUMPDEST SWAP3 SWAP2 POP POP JUMP JUMPDEST PUSH1 0x0 DUP2 SWAP1 POP SWAP2 SWAP1 POP JUMP JUMPDEST PUSH2 0x454C DUP2 PUSH2 0x4539 JUMP JUMPDEST DUP2 EQ PUSH2 0x4557 JUMPI PUSH1 0x0 DUP1 REVERT JUMPDEST POP JUMP JUMPDEST PUSH1 0x0 DUP2 CALLDATALOAD SWAP1 POP PUSH2 0x4569 DUP2 PUSH2 0x4543 JUMP JUMPDEST SWAP3 SWAP2 POP POP JUMP JUMPDEST PUSH1 0x0 DUP1 PUSH1 0x40 DUP4 DUP6 SUB SLT ISZERO PUSH2 0x4586 JUMPI PUSH2 0x4585 PUSH2 0x44D1 JUMP JUMPDEST JUMPDEST PUSH1 0x0 PUSH2 0x4594 DUP6 DUP3 DUP7 ADD PUSH2 0x4524 JUMP JUMPDEST SWAP3 POP POP PUSH1 0x20 PUSH2 0x45A5 DUP6 DUP3 DUP7 ADD PUSH2 0x455A JUMP JUMPDEST SWAP2 POP POP SWAP3 POP SWAP3 SWAP1 POP JUMP JUMPDEST PUSH2 0x45B8 DUP2 PUSH2 0x4539 JUMP JUMPDEST DUP3 MSTORE POP POP JUMP JUMPDEST PUSH1 0x0 PUSH1 0x20 DUP3 ADD SWAP1 POP PUSH2 0x45D3 PUSH1 0x0 DUP4 ADD DUP5 PUSH2 0x45AF JUMP JUMPDEST SWAP3 SWAP2 POP POP JUMP JUMPDEST PUSH1 0x0 PUSH32 0xFFFFFFFF00000000000000000000000000000000000000000000000000000000 DUP3 AND SWAP1 POP SWAP2 SWAP1 POP JUMP JUMPDEST PUSH2 0x460E DUP2 PUSH2 0x45D9 JUMP JUMPDEST DUP2 EQ PUSH2 0x4619 JUMPI PUSH1 0x0 DUP1 REVERT JUMPDEST POP JUMP JUMPDEST PUSH1 0x0 DUP2 CALLDATALOAD SWAP1 POP PUSH2 0x462B DUP2 PUSH2 0x4605 JUMP JUMPDEST SWAP3 SWAP2 POP POP JUMP JUMPDEST PUSH1 0x0 PUSH1 0x20 DUP3 DUP5 SUB SLT ISZERO PUSH2 0x4647 JUMPI PUSH2 0x4646 PUSH2 0x44D1 JUMP JUMPDEST JUMPDEST PUSH1 0x0 PUSH2 0x4655 DUP5 DUP3 DUP6 ADD PUSH2 0x461C JUMP JUMPDEST SWAP2 POP POP SWAP3 SWAP2 POP POP JUMP JUMPDEST PUSH1 0x0 DUP2 ISZERO ISZERO SWAP1 POP SWAP2 SWAP1 POP JUMP JUMPDEST PUSH2 0x4673 DUP2 PUSH2 0x465E JUMP JUMPDEST DUP3 MSTORE POP POP JUMP JUMPDEST PUSH1 0x0 PUSH1 0x20 DUP3 ADD SWAP1 POP PUSH2 0x468E PUSH1 0x0 DUP4 ADD DUP5 PUSH2 0x466A JUMP JUMPDEST SWAP3 SWAP2 POP POP JUMP JUMPDEST PUSH1 0x0 DUP2 MLOAD SWAP1 POP SWAP2 SWAP1 POP JUMP JUMPDEST PUSH1 0x0 DUP3 DUP3 MSTORE PUSH1 0x20 DUP3 ADD SWAP1 POP SWAP3 SWAP2 POP POP JUMP JUMPDEST PUSH1 0x0 JUMPDEST DUP4 DUP2 LT ISZERO PUSH2 0x46CE JUMPI DUP1 DUP3 ADD MLOAD DUP2 DUP5 ADD MSTORE PUSH1 0x20 DUP2 ADD SWAP1 POP PUSH2 0x46B3 JUMP JUMPDEST PUSH1 0x0 DUP5 DUP5 ADD MSTORE POP POP POP POP JUMP JUMPDEST PUSH1 0x0 PUSH1 0x1F NOT PUSH1 0x1F DUP4 ADD AND SWAP1 POP SWAP2 SWAP1 POP JUMP JUMPDEST PUSH1 0x0 PUSH2 0x46F6 DUP3 PUSH2 0x4694 JUMP JUMPDEST PUSH2 0x4700 DUP2 DUP6 PUSH2 0x469F JUMP JUMPDEST SWAP4 POP PUSH2 0x4710 DUP2 DUP6 PUSH1 0x20 DUP7 ADD PUSH2 0x46B0 JUMP JUMPDEST PUSH2 0x4719 DUP2 PUSH2 0x46DA JUMP JUMPDEST DUP5 ADD SWAP2 POP POP SWAP3 SWAP2 POP POP JUMP JUMPDEST PUSH1 0x0 PUSH1 0x20 DUP3 ADD SWAP1 POP DUP2 DUP2 SUB PUSH1 0x0 DUP4 ADD MSTORE PUSH2 0x473E DUP2 DUP5 PUSH2 0x46EB JUMP JUMPDEST SWAP1 POP SWAP3 SWAP2 POP POP JUMP JUMPDEST PUSH1 0x0 PUSH1 0x20 DUP3 DUP5 SUB SLT ISZERO PUSH2 0x475C JUMPI PUSH2 0x475B PUSH2 0x44D1 JUMP JUMPDEST JUMPDEST PUSH1 0x0 PUSH2 0x476A DUP5 DUP3 DUP6 ADD PUSH2 0x455A JUMP JUMPDEST SWAP2 POP POP SWAP3 SWAP2 POP POP JUMP JUMPDEST PUSH1 0x0 DUP1 REVERT JUMPDEST PUSH32 0x4E487B7100000000000000000000000000000000000000000000000000000000 PUSH1 0x0 MSTORE PUSH1 0x41 PUSH1 0x4 MSTORE PUSH1 0x24 PUSH1 0x0 REVERT JUMPDEST PUSH2 0x47B0 DUP3 PUSH2 0x46DA JUMP JUMPDEST DUP2 ADD DUP2 DUP2 LT PUSH8 0xFFFFFFFFFFFFFFFF DUP3 GT OR ISZERO PUSH2 0x47CF JUMPI PUSH2 0x47CE PUSH2 0x4778 JUMP JUMPDEST JUMPDEST DUP1 PUSH1 0x40 MSTORE POP POP POP JUMP JUMPDEST PUSH1 0x0 PUSH2 0x47E2 PUSH2 0x44C7 JUMP JUMPDEST SWAP1 POP PUSH2 0x47EE DUP3 DUP3 PUSH2 0x47A7 JUMP JUMPDEST SWAP2 SWAP1 POP JUMP JUMPDEST PUSH1 0x0 PUSH8 0xFFFFFFFFFFFFFFFF DUP3 GT ISZERO PUSH2 0x480E JUMPI PUSH2 0x480D PUSH2 0x4778 JUMP JUMPDEST JUMPDEST PUSH1 0x20 DUP3 MUL SWAP1 POP PUSH1 0x20 DUP2 ADD SWAP1 POP SWAP2 SWAP1 POP JUMP JUMPDEST PUSH1 0x0 DUP1 REVERT JUMPDEST PUSH1 0x0 PUSH2 0x4837 PUSH2 0x4832 DUP5 PUSH2 0x47F3 JUMP JUMPDEST PUSH2 0x47D8 JUMP JUMPDEST SWAP1 POP DUP1 DUP4 DUP3 MSTORE PUSH1 0x20 DUP3 ADD SWAP1 POP PUSH1 0x20 DUP5 MUL DUP4 ADD DUP6 DUP2 GT ISZERO PUSH2 0x485A JUMPI PUSH2 0x4859 PUSH2 0x481F JUMP JUMPDEST JUMPDEST DUP4 JUMPDEST DUP2 DUP2 LT ISZERO PUSH2 0x4883 JUMPI DUP1 PUSH2 0x486F DUP9 DUP3 PUSH2 0x455A JUMP JUMPDEST DUP5 MSTORE PUSH1 0x20 DUP5 ADD SWAP4 POP POP PUSH1 0x20 DUP2 ADD SWAP1 POP PUSH2 0x485C JUMP JUMPDEST POP POP POP SWAP4 SWAP3 POP POP POP JUMP JUMPDEST PUSH1 0x0 DUP3 PUSH1 0x1F DUP4 ADD SLT PUSH2 0x48A2 JUMPI PUSH2 0x48A1 PUSH2 0x4773 JUMP JUMPDEST JUMPDEST DUP2 CALLDATALOAD PUSH2 0x48B2 DUP5 DUP3 PUSH1 0x20 DUP7 ADD PUSH2 0x4824 JUMP JUMPDEST SWAP2 POP POP SWAP3 SWAP2 POP POP JUMP JUMPDEST PUSH1 0x0 DUP1 REVERT JUMPDEST PUSH1 0x0 PUSH8 0xFFFFFFFFFFFFFFFF DUP3 GT ISZERO PUSH2 0x48DB JUMPI PUSH2 0x48DA PUSH2 0x4778 JUMP JUMPDEST JUMPDEST PUSH2 0x48E4 DUP3 PUSH2 0x46DA JUMP JUMPDEST SWAP1 POP PUSH1 0x20 DUP2 ADD SWAP1 POP SWAP2 SWAP1 POP JUMP JUMPDEST DUP3 DUP2 DUP4 CALLDATACOPY PUSH1 0x0 DUP4 DUP4 ADD MSTORE POP POP POP JUMP JUMPDEST PUSH1 0x0 PUSH2 0x4913 PUSH2 0x490E DUP5 PUSH2 0x48C0 JUMP JUMPDEST PUSH2 0x47D8 JUMP JUMPDEST SWAP1 POP DUP3 DUP2 MSTORE PUSH1 0x20 DUP2 ADD DUP5 DUP5 DUP5 ADD GT ISZERO PUSH2 0x492F JUMPI PUSH2 0x492E PUSH2 0x48BB JUMP JUMPDEST JUMPDEST PUSH2 0x493A DUP5 DUP3 DUP6 PUSH2 0x48F1 JUMP JUMPDEST POP SWAP4 SWAP3 POP POP POP JUMP JUMPDEST PUSH1 0x0 DUP3 PUSH1 0x1F DUP4 ADD SLT PUSH2 0x4957 JUMPI PUSH2 0x4956 PUSH2 0x4773 JUMP JUMPDEST JUMPDEST DUP2 CALLDATALOAD PUSH2 0x4967 DUP5 DUP3 PUSH1 0x20 DUP7 ADD PUSH2 0x4900 JUMP JUMPDEST SWAP2 POP POP SWAP3 SWAP2 POP POP JUMP JUMPDEST PUSH1 0x0 DUP1 PUSH1 0x0 DUP1 PUSH1 0x0 PUSH1 0xA0 DUP7 DUP9 SUB SLT ISZERO PUSH2 0x498C JUMPI PUSH2 0x498B PUSH2 0x44D1 JUMP JUMPDEST JUMPDEST PUSH1 0x0 PUSH2 0x499A DUP9 DUP3 DUP10 ADD PUSH2 0x4524 JUMP JUMPDEST SWAP6 POP POP PUSH1 0x20 PUSH2 0x49AB DUP9 DUP3 DUP10 ADD PUSH2 0x4524 JUMP JUMPDEST SWAP5 POP POP PUSH1 0x40 DUP7 ADD CALLDATALOAD PUSH8 0xFFFFFFFFFFFFFFFF DUP2 GT ISZERO PUSH2 0x49CC JUMPI PUSH2 0x49CB PUSH2 0x44D6 JUMP JUMPDEST JUMPDEST PUSH2 0x49D8 DUP9 DUP3 DUP10 ADD PUSH2 0x488D JUMP JUMPDEST SWAP4 POP POP PUSH1 0x60 DUP7 ADD CALLDATALOAD PUSH8 0xFFFFFFFFFFFFFFFF DUP2 GT ISZERO PUSH2 0x49F9 JUMPI PUSH2 0x49F8 PUSH2 0x44D6 JUMP JUMPDEST JUMPDEST PUSH2 0x4A05 DUP9 DUP3 DUP10 ADD PUSH2 0x488D JUMP JUMPDEST SWAP3 POP POP PUSH1 0x80 DUP7 ADD CALLDATALOAD PUSH8 0xFFFFFFFFFFFFFFFF DUP2 GT ISZERO PUSH2 0x4A26 JUMPI PUSH2 0x4A25 PUSH2 0x44D6 JUMP JUMPDEST JUMPDEST PUSH2 0x4A32 DUP9 DUP3 DUP10 ADD PUSH2 0x4942 JUMP JUMPDEST SWAP2 POP POP SWAP3 SWAP6 POP SWAP3 SWAP6 SWAP1 SWAP4 POP JUMP JUMPDEST PUSH2 0x4A48 DUP2 PUSH2 0x44FB JUMP JUMPDEST DUP3 MSTORE POP POP JUMP JUMPDEST PUSH2 0x4A57 DUP2 PUSH2 0x4539 JUMP JUMPDEST DUP3 MSTORE POP POP JUMP JUMPDEST PUSH1 0x0 DUP2 MLOAD SWAP1 POP SWAP2 SWAP1 POP JUMP JUMPDEST PUSH1 0x0 DUP3 DUP3 MSTORE PUSH1 0x20 DUP3 ADD SWAP1 POP SWAP3 SWAP2 POP POP JUMP JUMPDEST PUSH1 0x0 DUP2 SWAP1 POP PUSH1 0x20 DUP3 ADD SWAP1 POP SWAP2 SWAP1 POP JUMP JUMPDEST PUSH1 0x0 PUSH2 0x4A95 DUP4 DUP4 PUSH2 0x4A3F JUMP JUMPDEST PUSH1 0x20 DUP4 ADD SWAP1 POP SWAP3 SWAP2 POP POP JUMP JUMPDEST PUSH1 0x0 PUSH1 0x20 DUP3 ADD SWAP1 POP SWAP2 SWAP1 POP JUMP JUMPDEST PUSH1 0x0 PUSH2 0x4AB9 DUP3 PUSH2 0x4A5D JUMP JUMPDEST PUSH2 0x4AC3 DUP2 DUP6 PUSH2 0x4A68 JUMP JUMPDEST SWAP4 POP PUSH2 0x4ACE DUP4 PUSH2 0x4A79 JUMP JUMPDEST DUP1 PUSH1 0x0 JUMPDEST DUP4 DUP2 LT ISZERO PUSH2 0x4AFF JUMPI DUP2 MLOAD PUSH2 0x4AE6 DUP9 DUP3 PUSH2 0x4A89 JUMP JUMPDEST SWAP8 POP PUSH2 0x4AF1 DUP4 PUSH2 0x4AA1 JUMP JUMPDEST SWAP3 POP POP PUSH1 0x1 DUP2 ADD SWAP1 POP PUSH2 0x4AD2 JUMP JUMPDEST POP DUP6 SWAP4 POP POP POP POP SWAP3 SWAP2 POP POP JUMP JUMPDEST PUSH1 0x0 PUSH2 0x180 DUP4 ADD PUSH1 0x0 DUP4 ADD MLOAD PUSH2 0x4B25 PUSH1 0x0 DUP7 ADD DUP3 PUSH2 0x4A3F JUMP JUMPDEST POP PUSH1 0x20 DUP4 ADD MLOAD PUSH2 0x4B38 PUSH1 0x20 DUP7 ADD DUP3 PUSH2 0x4A4E JUMP JUMPDEST POP PUSH1 0x40 DUP4 ADD MLOAD PUSH2 0x4B4B PUSH1 0x40 DUP7 ADD DUP3 PUSH2 0x4A4E JUMP JUMPDEST POP PUSH1 0x60 DUP4 ADD MLOAD PUSH2 0x4B5E PUSH1 0x60 DUP7 ADD DUP3 PUSH2 0x4A4E JUMP JUMPDEST POP PUSH1 0x80 DUP4 ADD MLOAD PUSH2 0x4B71 PUSH1 0x80 DUP7 ADD DUP3 PUSH2 0x4A4E JUMP JUMPDEST POP PUSH1 0xA0 DUP4 ADD MLOAD PUSH2 0x4B84 PUSH1 0xA0 DUP7 ADD DUP3 PUSH2 0x4A4E JUMP JUMPDEST POP PUSH1 0xC0 DUP4 ADD MLOAD PUSH2 0x4B97 PUSH1 0xC0 DUP7 ADD DUP3 PUSH2 0x4A4E JUMP JUMPDEST POP PUSH1 0xE0 DUP4 ADD MLOAD PUSH2 0x4BAA PUSH1 0xE0 DUP7 ADD DUP3 PUSH2 0x4A4E JUMP JUMPDEST POP PUSH2 0x100 DUP4 ADD MLOAD PUSH2 0x4BBF PUSH2 0x100 DUP7 ADD DUP3 PUSH2 0x4A4E JUMP JUMPDEST POP PUSH2 0x120 DUP4 ADD MLOAD PUSH2 0x4BD4 PUSH2 0x120 DUP7 ADD DUP3 PUSH2 0x4A4E JUMP JUMPDEST POP PUSH2 0x140 DUP4 ADD MLOAD PUSH2 0x4BE9 PUSH2 0x140 DUP7 ADD DUP3 PUSH2 0x4A4E JUMP JUMPDEST POP PUSH2 0x160 DUP4 ADD MLOAD DUP5 DUP3 SUB PUSH2 0x160 DUP7 ADD MSTORE PUSH2 0x4C03 DUP3 DUP3 PUSH2 0x4AAE JUMP JUMPDEST SWAP2 POP POP DUP1 SWAP2 POP POP SWAP3 SWAP2 POP POP JUMP JUMPDEST PUSH1 0x0 PUSH1 0x20 DUP3 ADD SWAP1 POP DUP2 DUP2 SUB PUSH1 0x0 DUP4 ADD MSTORE PUSH2 0x4C2A DUP2 DUP5 PUSH2 0x4B0C JUMP JUMPDEST SWAP1 POP SWAP3 SWAP2 POP POP JUMP JUMPDEST PUSH1 0x0 PUSH8 0xFFFFFFFFFFFFFFFF DUP3 GT ISZERO PUSH2 0x4C4D JUMPI PUSH2 0x4C4C PUSH2 0x4778 JUMP JUMPDEST JUMPDEST PUSH1 0x20 DUP3 MUL SWAP1 POP PUSH1 0x20 DUP2 ADD SWAP1 POP SWAP2 SWAP1 POP JUMP JUMPDEST PUSH1 0x0 PUSH2 0x4C71 PUSH2 0x4C6C DUP5 PUSH2 0x4C32 JUMP JUMPDEST PUSH2 0x47D8 JUMP JUMPDEST SWAP1 POP DUP1 DUP4 DUP3 MSTORE PUSH1 0x20 DUP3 ADD SWAP1 POP PUSH1 0x20 DUP5 MUL DUP4 ADD DUP6 DUP2 GT ISZERO PUSH2 0x4C94 JUMPI PUSH2 0x4C93 PUSH2 0x481F JUMP JUMPDEST JUMPDEST DUP4 JUMPDEST DUP2 DUP2 LT ISZERO PUSH2 0x4CBD JUMPI DUP1 PUSH2 0x4CA9 DUP9 DUP3 PUSH2 0x4524 JUMP JUMPDEST DUP5 MSTORE PUSH1 0x20 DUP5 ADD SWAP4 POP POP PUSH1 0x20 DUP2 ADD SWAP1 POP PUSH2 0x4C96 JUMP JUMPDEST POP POP POP SWAP4 SWAP3 POP POP POP JUMP JUMPDEST PUSH1 0x0 DUP3 PUSH1 0x1F DUP4 ADD SLT PUSH2 0x4CDC JUMPI PUSH2 0x4CDB PUSH2 0x4773 JUMP JUMPDEST JUMPDEST DUP2 CALLDATALOAD PUSH2 0x4CEC DUP5 DUP3 PUSH1 0x20 DUP7 ADD PUSH2 0x4C5E JUMP JUMPDEST SWAP2 POP POP SWAP3 SWAP2 POP POP JUMP JUMPDEST PUSH1 0x0 DUP1 PUSH1 0x40 DUP4 DUP6 SUB SLT ISZERO PUSH2 0x4D0C JUMPI PUSH2 0x4D0B PUSH2 0x44D1 JUMP JUMPDEST JUMPDEST PUSH1 0x0 DUP4 ADD CALLDATALOAD PUSH8 0xFFFFFFFFFFFFFFFF DUP2 GT ISZERO PUSH2 0x4D2A JUMPI PUSH2 0x4D29 PUSH2 0x44D6 JUMP JUMPDEST JUMPDEST PUSH2 0x4D36 DUP6 DUP3 DUP7 ADD PUSH2 0x4CC7 JUMP JUMPDEST SWAP3 POP POP PUSH1 0x20 DUP4 ADD CALLDATALOAD PUSH8 0xFFFFFFFFFFFFFFFF DUP2 GT ISZERO PUSH2 0x4D57 JUMPI PUSH2 0x4D56 PUSH2 0x44D6 JUMP JUMPDEST JUMPDEST PUSH2 0x4D63 DUP6 DUP3 DUP7 ADD PUSH2 0x488D JUMP JUMPDEST SWAP2 POP POP SWAP3 POP SWAP3 SWAP1 POP JUMP JUMPDEST PUSH1 0x0 DUP2 MLOAD SWAP1 POP SWAP2 SWAP1 POP JUMP JUMPDEST PUSH1 0x0 DUP3 DUP3 MSTORE PUSH1 0x20 DUP3 ADD SWAP1 POP SWAP3 SWAP2 POP POP JUMP JUMPDEST PUSH1 0x0 DUP2 SWAP1 POP PUSH1 0x20 DUP3 ADD SWAP1 POP SWAP2 SWAP1 POP JUMP JUMPDEST PUSH1 0x0 PUSH2 0x4DA5 DUP4 DUP4 PUSH2 0x4A4E JUMP JUMPDEST PUSH1 0x20 DUP4 ADD SWAP1 POP SWAP3 SWAP2 POP POP JUMP JUMPDEST PUSH1 0x0 PUSH1 0x20 DUP3 ADD SWAP1 POP SWAP2 SWAP1 POP JUMP JUMPDEST PUSH1 0x0 PUSH2 0x4DC9 DUP3 PUSH2 0x4D6D JUMP JUMPDEST PUSH2 0x4DD3 DUP2 DUP6 PUSH2 0x4D78 JUMP JUMPDEST SWAP4 POP PUSH2 0x4DDE DUP4 PUSH2 0x4D89 JUMP JUMPDEST DUP1 PUSH1 0x0 JUMPDEST DUP4 DUP2 LT ISZERO PUSH2 0x4E0F JUMPI DUP2 MLOAD PUSH2 0x4DF6 DUP9 DUP3 PUSH2 0x4D99 JUMP JUMPDEST SWAP8 POP PUSH2 0x4E01 DUP4 PUSH2 0x4DB1 JUMP JUMPDEST SWAP3 POP POP PUSH1 0x1 DUP2 ADD SWAP1 POP PUSH2 0x4DE2 JUMP JUMPDEST POP DUP6 SWAP4 POP POP POP POP SWAP3 SWAP2 POP POP JUMP JUMPDEST PUSH1 0x0 PUSH1 0x20 DUP3 ADD SWAP1 POP DUP2 DUP2 SUB PUSH1 0x0 DUP4 ADD MSTORE PUSH2 0x4E36 DUP2 DUP5 PUSH2 0x4DBE JUMP JUMPDEST SWAP1 POP SWAP3 SWAP2 POP POP JUMP JUMPDEST PUSH1 0x0 DUP2 MLOAD SWAP1 POP SWAP2 SWAP1 POP JUMP JUMPDEST PUSH1 0x0 DUP3 DUP3 MSTORE PUSH1 0x20 DUP3 ADD SWAP1 POP SWAP3 SWAP2 POP POP JUMP JUMPDEST PUSH1 0x0 DUP2 SWAP1 POP PUSH1 0x20 DUP3 ADD SWAP1 POP SWAP2 SWAP1 POP JUMP JUMPDEST PUSH1 0x0 PUSH2 0x180 DUP4 ADD PUSH1 0x0 DUP4 ADD MLOAD PUSH2 0x4E83 PUSH1 0x0 DUP7 ADD DUP3 PUSH2 0x4A3F JUMP JUMPDEST POP PUSH1 0x20 DUP4 ADD MLOAD PUSH2 0x4E96 PUSH1 0x20 DUP7 ADD DUP3 PUSH2 0x4A4E JUMP JUMPDEST POP PUSH1 0x40 DUP4 ADD MLOAD PUSH2 0x4EA9 PUSH1 0x40 DUP7 ADD DUP3 PUSH2 0x4A4E JUMP JUMPDEST POP PUSH1 0x60 DUP4 ADD MLOAD PUSH2 0x4EBC PUSH1 0x60 DUP7 ADD DUP3 PUSH2 0x4A4E JUMP JUMPDEST POP PUSH1 0x80 DUP4 ADD MLOAD PUSH2 0x4ECF PUSH1 0x80 DUP7 ADD DUP3 PUSH2 0x4A4E JUMP JUMPDEST POP PUSH1 0xA0 DUP4 ADD MLOAD PUSH2 0x4EE2 PUSH1 0xA0 DUP7 ADD DUP3 PUSH2 0x4A4E JUMP JUMPDEST POP PUSH1 0xC0 DUP4 ADD MLOAD PUSH2 0x4EF5 PUSH1 0xC0 DUP7 ADD DUP3 PUSH2 0x4A4E JUMP JUMPDEST POP PUSH1 0xE0 DUP4 ADD MLOAD PUSH2 0x4F08 PUSH1 0xE0 DUP7 ADD DUP3 PUSH2 0x4A4E JUMP JUMPDEST POP PUSH2 0x100 DUP4 ADD MLOAD PUSH2 0x4F1D PUSH2 0x100 DUP7 ADD DUP3 PUSH2 0x4A4E JUMP JUMPDEST POP PUSH2 0x120 DUP4 ADD MLOAD PUSH2 0x4F32 PUSH2 0x120 DUP7 ADD DUP3 PUSH2 0x4A4E JUMP JUMPDEST POP PUSH2 0x140 DUP4 ADD MLOAD PUSH2 0x4F47 PUSH2 0x140 DUP7 ADD DUP3 PUSH2 0x4A4E JUMP JUMPDEST POP PUSH2 0x160 DUP4 ADD MLOAD DUP5 DUP3 SUB PUSH2 0x160 DUP7 ADD MSTORE PUSH2 0x4F61 DUP3 DUP3 PUSH2 0x4AAE JUMP JUMPDEST SWAP2 POP POP DUP1 SWAP2 POP POP SWAP3 SWAP2 POP POP JUMP JUMPDEST PUSH1 0x0 PUSH2 0x4F7A DUP4 DUP4 PUSH2 0x4E6A JUMP JUMPDEST SWAP1 POP SWAP3 SWAP2 POP POP JUMP JUMPDEST PUSH1 0x0 PUSH1 0x20 DUP3 ADD SWAP1 POP SWAP2 SWAP1 POP JUMP JUMPDEST PUSH1 0x0 PUSH2 0x4F9A DUP3 PUSH2 0x4E3E JUMP JUMPDEST PUSH2 0x4FA4 DUP2 DUP6 PUSH2 0x4E49 JUMP JUMPDEST SWAP4 POP DUP4 PUSH1 0x20 DUP3 MUL DUP6 ADD PUSH2 0x4FB6 DUP6 PUSH2 0x4E5A JUMP JUMPDEST DUP1 PUSH1 0x0 JUMPDEST DUP6 DUP2 LT ISZERO PUSH2 0x4FF2 JUMPI DUP5 DUP5 SUB DUP10 MSTORE DUP2 MLOAD PUSH2 0x4FD3 DUP6 DUP3 PUSH2 0x4F6E JUMP JUMPDEST SWAP5 POP PUSH2 0x4FDE DUP4 PUSH2 0x4F82 JUMP JUMPDEST SWAP3 POP PUSH1 0x20 DUP11 ADD SWAP10 POP POP PUSH1 0x1 DUP2 ADD SWAP1 POP PUSH2 0x4FBA JUMP JUMPDEST POP DUP3 SWAP8 POP DUP8 SWAP6 POP POP POP POP POP POP SWAP3 SWAP2 POP POP JUMP JUMPDEST PUSH1 0x0 PUSH1 0x20 DUP3 ADD SWAP1 POP DUP2 DUP2 SUB PUSH1 0x0 DUP4 ADD MSTORE PUSH2 0x501E DUP2 DUP5 PUSH2 0x4F8F JUMP JUMPDEST SWAP1 POP SWAP3 SWAP2 POP POP JUMP JUMPDEST PUSH1 0x0 PUSH8 0xFFFFFFFFFFFFFFFF DUP3 GT ISZERO PUSH2 0x5041 JUMPI PUSH2 0x5040 PUSH2 0x4778 JUMP JUMPDEST JUMPDEST PUSH2 0x504A DUP3 PUSH2 0x46DA JUMP JUMPDEST SWAP1 POP PUSH1 0x20 DUP2 ADD SWAP1 POP SWAP2 SWAP1 POP JUMP JUMPDEST PUSH1 0x0 PUSH2 0x506A PUSH2 0x5065 DUP5 PUSH2 0x5026 JUMP JUMPDEST PUSH2 0x47D8 JUMP JUMPDEST SWAP1 POP DUP3 DUP2 MSTORE PUSH1 0x20 DUP2 ADD DUP5 DUP5 DUP5 ADD GT ISZERO PUSH2 0x5086 JUMPI PUSH2 0x5085 PUSH2 0x48BB JUMP JUMPDEST JUMPDEST PUSH2 0x5091 DUP5 DUP3 DUP6 PUSH2 0x48F1 JUMP JUMPDEST POP SWAP4 SWAP3 POP POP POP JUMP JUMPDEST PUSH1 0x0 DUP3 PUSH1 0x1F DUP4 ADD SLT PUSH2 0x50AE JUMPI PUSH2 0x50AD PUSH2 0x4773 JUMP JUMPDEST JUMPDEST DUP2 CALLDATALOAD PUSH2 0x50BE DUP5 DUP3 PUSH1 0x20 DUP7 ADD PUSH2 0x5057 JUMP JUMPDEST SWAP2 POP POP SWAP3 SWAP2 POP POP JUMP JUMPDEST PUSH1 0x0 DUP1 PUSH1 0x0 DUP1 PUSH1 0x0 DUP1 PUSH1 0xC0 DUP8 DUP10 SUB SLT ISZERO PUSH2 0x50E4 JUMPI PUSH2 0x50E3 PUSH2 0x44D1 JUMP JUMPDEST JUMPDEST PUSH1 0x0 PUSH2 0x50F2 DUP10 DUP3 DUP11 ADD PUSH2 0x455A JUMP JUMPDEST SWAP7 POP POP PUSH1 0x20 PUSH2 0x5103 DUP10 DUP3 DUP11 ADD PUSH2 0x455A JUMP JUMPDEST SWAP6 POP POP PUSH1 0x40 PUSH2 0x5114 DUP10 DUP3 DUP11 ADD PUSH2 0x455A JUMP JUMPDEST SWAP5 POP POP PUSH1 0x60 DUP8 ADD CALLDATALOAD PUSH8 0xFFFFFFFFFFFFFFFF DUP2 GT ISZERO PUSH2 0x5135 JUMPI PUSH2 0x5134 PUSH2 0x44D6 JUMP JUMPDEST JUMPDEST PUSH2 0x5141 DUP10 DUP3 DUP11 ADD PUSH2 0x5099 JUMP JUMPDEST SWAP4 POP POP PUSH1 0x80 PUSH2 0x5152 DUP10 DUP3 DUP11 ADD PUSH2 0x455A JUMP JUMPDEST SWAP3 POP POP PUSH1 0xA0 PUSH2 0x5163 DUP10 DUP3 DUP11 ADD PUSH2 0x455A JUMP JUMPDEST SWAP2 POP POP SWAP3 SWAP6 POP SWAP3 SWAP6 POP SWAP3 SWAP6 JUMP JUMPDEST PUSH2 0x5179 DUP2 PUSH2 0x465E JUMP JUMPDEST DUP2 EQ PUSH2 0x5184 JUMPI PUSH1 0x0 DUP1 REVERT JUMPDEST POP JUMP JUMPDEST PUSH1 0x0 DUP2 CALLDATALOAD SWAP1 POP PUSH2 0x5196 DUP2 PUSH2 0x5170 JUMP JUMPDEST SWAP3 SWAP2 POP POP JUMP JUMPDEST PUSH1 0x0 DUP1 PUSH1 0x40 DUP4 DUP6 SUB SLT ISZERO PUSH2 0x51B3 JUMPI PUSH2 0x51B2 PUSH2 0x44D1 JUMP JUMPDEST JUMPDEST PUSH1 0x0 PUSH2 0x51C1 DUP6 DUP3 DUP7 ADD PUSH2 0x4524 JUMP JUMPDEST SWAP3 POP POP PUSH1 0x20 PUSH2 0x51D2 DUP6 DUP3 DUP7 ADD PUSH2 0x5187 JUMP JUMPDEST SWAP2 POP POP SWAP3 POP SWAP3 SWAP1 POP JUMP JUMPDEST PUSH2 0x51E5 DUP2 PUSH2 0x44FB JUMP JUMPDEST DUP3 MSTORE POP POP JUMP JUMPDEST PUSH1 0x0 PUSH1 0x20 DUP3 ADD SWAP1 POP PUSH2 0x5200 PUSH1 0x0 DUP4 ADD DUP5 PUSH2 0x51DC JUMP JUMPDEST SWAP3 SWAP2 POP POP JUMP JUMPDEST PUSH1 0x0 PUSH2 0x160 DUP3 ADD SWAP1 POP PUSH2 0x521C PUSH1 0x0 DUP4 ADD DUP15 PUSH2 0x51DC JUMP JUMPDEST PUSH2 0x5229 PUSH1 0x20 DUP4 ADD DUP14 PUSH2 0x45AF JUMP JUMPDEST PUSH2 0x5236 PUSH1 0x40 DUP4 ADD DUP13 PUSH2 0x45AF JUMP JUMPDEST PUSH2 0x5243 PUSH1 0x60 DUP4 ADD DUP12 PUSH2 0x45AF JUMP JUMPDEST PUSH2 0x5250 PUSH1 0x80 DUP4 ADD DUP11 PUSH2 0x45AF JUMP JUMPDEST PUSH2 0x525D PUSH1 0xA0 DUP4 ADD DUP10 PUSH2 0x45AF JUMP JUMPDEST PUSH2 0x526A PUSH1 0xC0 DUP4 ADD DUP9 PUSH2 0x45AF JUMP JUMPDEST PUSH2 0x5277 PUSH1 0xE0 DUP4 ADD DUP8 PUSH2 0x45AF JUMP JUMPDEST PUSH2 0x5285 PUSH2 0x100 DUP4 ADD DUP7 PUSH2 0x45AF JUMP JUMPDEST PUSH2 0x5293 PUSH2 0x120 DUP4 ADD DUP6 PUSH2 0x45AF JUMP JUMPDEST PUSH2 0x52A1 PUSH2 0x140 DUP4 ADD DUP5 PUSH2 0x45AF JUMP JUMPDEST SWAP13 SWAP12 POP POP POP POP POP POP POP POP POP POP POP POP JUMP JUMPDEST PUSH1 0x0 DUP1 PUSH1 0x40 DUP4 DUP6 SUB SLT ISZERO PUSH2 0x52C8 JUMPI PUSH2 0x52C7 PUSH2 0x44D1 JUMP JUMPDEST JUMPDEST PUSH1 0x0 PUSH2 0x52D6 DUP6 DUP3 DUP7 ADD PUSH2 0x4524 JUMP JUMPDEST SWAP3 POP POP PUSH1 0x20 PUSH2 0x52E7 DUP6 DUP3 DUP7 ADD PUSH2 0x4524 JUMP JUMPDEST SWAP2 POP POP SWAP3 POP SWAP3 SWAP1 POP JUMP JUMPDEST PUSH1 0x0 DUP1 PUSH1 0x0 DUP1 PUSH1 0x0 PUSH1 0xA0 DUP7 DUP9 SUB SLT ISZERO PUSH2 0x530D JUMPI PUSH2 0x530C PUSH2 0x44D1 JUMP JUMPDEST JUMPDEST PUSH1 0x0 PUSH2 0x531B DUP9 DUP3 DUP10 ADD PUSH2 0x4524 JUMP JUMPDEST SWAP6 POP POP PUSH1 0x20 PUSH2 0x532C DUP9 DUP3 DUP10 ADD PUSH2 0x4524 JUMP JUMPDEST SWAP5 POP POP PUSH1 0x40 PUSH2 0x533D DUP9 DUP3 DUP10 ADD PUSH2 0x455A JUMP JUMPDEST SWAP4 POP POP PUSH1 0x60 PUSH2 0x534E DUP9 DUP3 DUP10 ADD PUSH2 0x455A JUMP JUMPDEST SWAP3 POP POP PUSH1 0x80 DUP7 ADD CALLDATALOAD PUSH8 0xFFFFFFFFFFFFFFFF DUP2 GT ISZERO PUSH2 0x536F JUMPI PUSH2 0x536E PUSH2 0x44D6 JUMP JUMPDEST JUMPDEST PUSH2 0x537B DUP9 DUP3 DUP10 ADD PUSH2 0x4942 JUMP JUMPDEST SWAP2 POP POP SWAP3 SWAP6 POP SWAP3 SWAP6 SWAP1 SWAP4 POP JUMP JUMPDEST PUSH32 0x455243313135353A2061646472657373207A65726F206973206E6F7420612076 PUSH1 0x0 DUP3 ADD MSTORE PUSH32 0x616C6964206F776E657200000000000000000000000000000000000000000000 PUSH1 0x20 DUP3 ADD MSTORE POP JUMP JUMPDEST PUSH1 0x0 PUSH2 0x53E4 PUSH1 0x2A DUP4 PUSH2 0x469F JUMP JUMPDEST SWAP2 POP PUSH2 0x53EF DUP3 PUSH2 0x5388 JUMP JUMPDEST PUSH1 0x40 DUP3 ADD SWAP1 POP SWAP2 SWAP1 POP JUMP JUMPDEST PUSH1 0x0 PUSH1 0x20 DUP3 ADD SWAP1 POP DUP2 DUP2 SUB PUSH1 0x0 DUP4 ADD MSTORE PUSH2 0x5413 DUP2 PUSH2 0x53D7 JUMP JUMPDEST SWAP1 POP SWAP2 SWAP1 POP JUMP JUMPDEST PUSH32 0x4E487B7100000000000000000000000000000000000000000000000000000000 PUSH1 0x0 MSTORE PUSH1 0x22 PUSH1 0x4 MSTORE PUSH1 0x24 PUSH1 0x0 REVERT JUMPDEST PUSH1 0x0 PUSH1 0x2 DUP3 DIV SWAP1 POP PUSH1 0x1 DUP3 AND DUP1 PUSH2 0x5461 JUMPI PUSH1 0x7F DUP3 AND SWAP2 POP JUMPDEST PUSH1 0x20 DUP3 LT DUP2 SUB PUSH2 0x5474 JUMPI PUSH2 0x5473 PUSH2 0x541A JUMP JUMPDEST JUMPDEST POP SWAP2 SWAP1 POP JUMP JUMPDEST PUSH32 0x455243313135353A2063616C6C6572206973206E6F7420746F6B656E206F776E PUSH1 0x0 DUP3 ADD MSTORE PUSH32 0x6572206F7220617070726F766564000000000000000000000000000000000000 PUSH1 0x20 DUP3 ADD MSTORE POP JUMP JUMPDEST PUSH1 0x0 PUSH2 0x54D6 PUSH1 0x2E DUP4 PUSH2 0x469F JUMP JUMPDEST SWAP2 POP PUSH2 0x54E1 DUP3 PUSH2 0x547A JUMP JUMPDEST PUSH1 0x40 DUP3 ADD SWAP1 POP SWAP2 SWAP1 POP JUMP JUMPDEST PUSH1 0x0 PUSH1 0x20 DUP3 ADD SWAP1 POP DUP2 DUP2 SUB PUSH1 0x0 DUP4 ADD MSTORE PUSH2 0x5505 DUP2 PUSH2 0x54C9 JUMP JUMPDEST SWAP1 POP SWAP2 SWAP1 POP JUMP JUMPDEST PUSH32 0x4E487B7100000000000000000000000000000000000000000000000000000000 PUSH1 0x0 MSTORE PUSH1 0x12 PUSH1 0x4 MSTORE PUSH1 0x24 PUSH1 0x0 REVERT JUMPDEST PUSH1 0x0 PUSH2 0x5546 DUP3 PUSH2 0x4539 JUMP JUMPDEST SWAP2 POP PUSH2 0x5551 DUP4 PUSH2 0x4539 JUMP JUMPDEST SWAP3 POP DUP3 PUSH2 0x5561 JUMPI PUSH2 0x5560 PUSH2 0x550C JUMP JUMPDEST JUMPDEST DUP3 DUP3 MOD SWAP1 POP SWAP3 SWAP2 POP POP JUMP JUMPDEST PUSH32 0x74686520736F6E6720646F65736E277420657869737473000000000000000000 PUSH1 0x0 DUP3 ADD MSTORE POP JUMP JUMPDEST PUSH1 0x0 PUSH2 0x55A2 PUSH1 0x17 DUP4 PUSH2 0x469F JUMP JUMPDEST SWAP2 POP PUSH2 0x55AD DUP3 PUSH2 0x556C JUMP JUMPDEST PUSH1 0x20 DUP3 ADD SWAP1 POP SWAP2 SWAP1 POP JUMP JUMPDEST PUSH1 0x0 PUSH1 0x20 DUP3 ADD SWAP1 POP DUP2 DUP2 SUB PUSH1 0x0 DUP4 ADD MSTORE PUSH2 0x55D1 DUP2 PUSH2 0x5595 JUMP JUMPDEST SWAP1 POP SWAP2 SWAP1 POP JUMP JUMPDEST PUSH32 0x4E487B7100000000000000000000000000000000000000000000000000000000 PUSH1 0x0 MSTORE PUSH1 0x32 PUSH1 0x4 MSTORE PUSH1 0x24 PUSH1 0x0 REVERT JUMPDEST PUSH32 0x4E487B7100000000000000000000000000000000000000000000000000000000 PUSH1 0x0 MSTORE PUSH1 0x11 PUSH1 0x4 MSTORE PUSH1 0x24 PUSH1 0x0 REVERT JUMPDEST PUSH1 0x0 PUSH2 0x5641 DUP3 PUSH2 0x4539 JUMP JUMPDEST SWAP2 POP PUSH2 0x564C DUP4 PUSH2 0x4539 JUMP JUMPDEST SWAP3 POP DUP3 DUP3 SUB SWAP1 POP DUP2 DUP2 GT ISZERO PUSH2 0x5664 JUMPI PUSH2 0x5663 PUSH2 0x5607 JUMP JUMPDEST JUMPDEST SWAP3 SWAP2 POP POP JUMP JUMPDEST PUSH32 0x455243313135353A206163636F756E747320616E6420696473206C656E677468 PUSH1 0x0 DUP3 ADD MSTORE PUSH32 0x206D69736D617463680000000000000000000000000000000000000000000000 PUSH1 0x20 DUP3 ADD MSTORE POP JUMP JUMPDEST PUSH1 0x0 PUSH2 0x56C6 PUSH1 0x29 DUP4 PUSH2 0x469F JUMP JUMPDEST SWAP2 POP PUSH2 0x56D1 DUP3 PUSH2 0x566A JUMP JUMPDEST PUSH1 0x40 DUP3 ADD SWAP1 POP SWAP2 SWAP1 POP JUMP JUMPDEST PUSH1 0x0 PUSH1 0x20 DUP3 ADD SWAP1 POP DUP2 DUP2 SUB PUSH1 0x0 DUP4 ADD MSTORE PUSH2 0x56F5 DUP2 PUSH2 0x56B9 JUMP JUMPDEST SWAP1 POP SWAP2 SWAP1 POP JUMP JUMPDEST PUSH1 0x0 PUSH2 0x5707 DUP3 PUSH2 0x4539 JUMP JUMPDEST SWAP2 POP PUSH32 0xFFFFFFFFFFFFFFFFFFFFFFFFFFFFFFFFFFFFFFFFFFFFFFFFFFFFFFFFFFFFFFFF DUP3 SUB PUSH2 0x5739 JUMPI PUSH2 0x5738 PUSH2 0x5607 JUMP JUMPDEST JUMPDEST PUSH1 0x1 DUP3 ADD SWAP1 POP SWAP2 SWAP1 POP JUMP JUMPDEST PUSH32 0x4F6E6C79206172746973747320616E6420737570657266616E732063616E2069 PUSH1 0x0 DUP3 ADD MSTORE PUSH32 0x6E746974696174652077697468647261772070726F6365737300000000000000 PUSH1 0x20 DUP3 ADD MSTORE POP JUMP JUMPDEST PUSH1 0x0 PUSH2 0x57A0 PUSH1 0x39 DUP4 PUSH2 0x469F JUMP JUMPDEST SWAP2 POP PUSH2 0x57AB DUP3 PUSH2 0x5744 JUMP JUMPDEST PUSH1 0x40 DUP3 ADD SWAP1 POP SWAP2 SWAP1 POP JUMP JUMPDEST PUSH1 0x0 PUSH1 0x20 DUP3 ADD SWAP1 POP DUP2 DUP2 SUB PUSH1 0x0 DUP4 ADD MSTORE PUSH2 0x57CF DUP2 PUSH2 0x5793 JUMP JUMPDEST SWAP1 POP SWAP2 SWAP1 POP JUMP JUMPDEST PUSH1 0x0 PUSH2 0x57E1 DUP3 PUSH2 0x4539 JUMP JUMPDEST SWAP2 POP PUSH2 0x57EC DUP4 PUSH2 0x4539 JUMP JUMPDEST SWAP3 POP DUP3 PUSH2 0x57FC JUMPI PUSH2 0x57FB PUSH2 0x550C JUMP JUMPDEST JUMPDEST DUP3 DUP3 DIV SWAP1 POP SWAP3 SWAP2 POP POP JUMP JUMPDEST PUSH1 0x0 PUSH2 0x5812 DUP3 PUSH2 0x4539 JUMP JUMPDEST SWAP2 POP PUSH2 0x581D DUP4 PUSH2 0x4539 JUMP JUMPDEST SWAP3 POP DUP3 DUP3 MUL PUSH2 0x582B DUP2 PUSH2 0x4539 JUMP JUMPDEST SWAP2 POP DUP3 DUP3 DIV DUP5 EQ DUP4 ISZERO OR PUSH2 0x5842 JUMPI PUSH2 0x5841 PUSH2 0x5607 JUMP JUMPDEST JUMPDEST POP SWAP3 SWAP2 POP POP JUMP JUMPDEST PUSH1 0x0 PUSH2 0x5854 DUP3 PUSH2 0x4539 JUMP JUMPDEST SWAP2 POP PUSH2 0x585F DUP4 PUSH2 0x4539 JUMP JUMPDEST SWAP3 POP DUP3 DUP3 ADD SWAP1 POP DUP1 DUP3 GT ISZERO PUSH2 0x5877 JUMPI PUSH2 0x5876 PUSH2 0x5607 JUMP JUMPDEST JUMPDEST SWAP3 SWAP2 POP POP JUMP JUMPDEST PUSH1 0x0 DUP2 SWAP1 POP SWAP3 SWAP2 POP POP JUMP JUMPDEST POP JUMP JUMPDEST PUSH1 0x0 PUSH2 0x5898 PUSH1 0x0 DUP4 PUSH2 0x587D JUMP JUMPDEST SWAP2 POP PUSH2 0x58A3 DUP3 PUSH2 0x5888 JUMP JUMPDEST PUSH1 0x0 DUP3 ADD SWAP1 POP SWAP2 SWAP1 POP JUMP JUMPDEST PUSH1 0x0 PUSH2 0x58B9 DUP3 PUSH2 0x588B JUMP JUMPDEST SWAP2 POP DUP2 SWAP1 POP SWAP2 SWAP1 POP JUMP JUMPDEST PUSH32 0x6661696C656420746F2064697372696275746520726F79616C69746965732074 PUSH1 0x0 DUP3 ADD MSTORE PUSH32 0x6F20746865206172746973740000000000000000000000000000000000000000 PUSH1 0x20 DUP3 ADD MSTORE POP JUMP JUMPDEST PUSH1 0x0 PUSH2 0x591F PUSH1 0x2C DUP4 PUSH2 0x469F JUMP JUMPDEST SWAP2 POP PUSH2 0x592A DUP3 PUSH2 0x58C3 JUMP JUMPDEST PUSH1 0x40 DUP3 ADD SWAP1 POP SWAP2 SWAP1 POP JUMP JUMPDEST PUSH1 0x0 PUSH1 0x20 DUP3 ADD SWAP1 POP DUP2 DUP2 SUB PUSH1 0x0 DUP4 ADD MSTORE PUSH2 0x594E DUP2 PUSH2 0x5912 JUMP JUMPDEST SWAP1 POP SWAP2 SWAP1 POP JUMP JUMPDEST PUSH32 0x6661696C656420746F2064697372696275746520726F79616C69746965732074 PUSH1 0x0 DUP3 ADD MSTORE PUSH32 0x6F2074686520737570657266616E000000000000000000000000000000000000 PUSH1 0x20 DUP3 ADD MSTORE POP JUMP JUMPDEST PUSH1 0x0 PUSH2 0x59B1 PUSH1 0x2E DUP4 PUSH2 0x469F JUMP JUMPDEST SWAP2 POP PUSH2 0x59BC DUP3 PUSH2 0x5955 JUMP JUMPDEST PUSH1 0x40 DUP3 ADD SWAP1 POP SWAP2 SWAP1 POP JUMP JUMPDEST PUSH1 0x0 PUSH1 0x20 DUP3 ADD SWAP1 POP DUP2 DUP2 SUB PUSH1 0x0 DUP4 ADD MSTORE PUSH2 0x59E0 DUP2 PUSH2 0x59A4 JUMP JUMPDEST SWAP1 POP SWAP2 SWAP1 POP JUMP JUMPDEST PUSH32 0x6661696C656420746F2064697372696275746520726F79616C69746965732074 PUSH1 0x0 DUP3 ADD MSTORE PUSH32 0x6F2074686520706C61666F726D204F776E657200000000000000000000000000 PUSH1 0x20 DUP3 ADD MSTORE POP JUMP JUMPDEST PUSH1 0x0 PUSH2 0x5A43 PUSH1 0x33 DUP4 PUSH2 0x469F JUMP JUMPDEST SWAP2 POP PUSH2 0x5A4E DUP3 PUSH2 0x59E7 JUMP JUMPDEST PUSH1 0x40 DUP3 ADD SWAP1 POP SWAP2 SWAP1 POP JUMP JUMPDEST PUSH1 0x0 PUSH1 0x20 DUP3 ADD SWAP1 POP DUP2 DUP2 SUB PUSH1 0x0 DUP4 ADD MSTORE PUSH2 0x5A72 DUP2 PUSH2 0x5A36 JUMP JUMPDEST SWAP1 POP SWAP2 SWAP1 POP JUMP JUMPDEST PUSH32 0x4C696D6974656420737570706C79206D75737420626520677265617465722074 PUSH1 0x0 DUP3 ADD MSTORE PUSH32 0x68616E2030000000000000000000000000000000000000000000000000000000 PUSH1 0x20 DUP3 ADD MSTORE POP JUMP JUMPDEST PUSH1 0x0 PUSH2 0x5AD5 PUSH1 0x25 DUP4 PUSH2 0x469F JUMP JUMPDEST SWAP2 POP PUSH2 0x5AE0 DUP3 PUSH2 0x5A79 JUMP JUMPDEST PUSH1 0x40 DUP3 ADD SWAP1 POP SWAP2 SWAP1 POP JUMP JUMPDEST PUSH1 0x0 PUSH1 0x20 DUP3 ADD SWAP1 POP DUP2 DUP2 SUB PUSH1 0x0 DUP4 ADD MSTORE PUSH2 0x5B04 DUP2 PUSH2 0x5AC8 JUMP JUMPDEST SWAP1 POP SWAP2 SWAP1 POP JUMP JUMPDEST PUSH1 0x0 PUSH2 0x100 DUP3 ADD SWAP1 POP PUSH2 0x5B21 PUSH1 0x0 DUP4 ADD DUP12 PUSH2 0x45AF JUMP JUMPDEST PUSH2 0x5B2E PUSH1 0x20 DUP4 ADD DUP11 PUSH2 0x45AF JUMP JUMPDEST PUSH2 0x5B3B PUSH1 0x40 DUP4 ADD DUP10 PUSH2 0x51DC JUMP JUMPDEST PUSH2 0x5B48 PUSH1 0x60 DUP4 ADD DUP9 PUSH2 0x45AF JUMP JUMPDEST PUSH2 0x5B55 PUSH1 0x80 DUP4 ADD DUP8 PUSH2 0x45AF JUMP JUMPDEST PUSH2 0x5B62 PUSH1 0xA0 DUP4 ADD DUP7 PUSH2 0x45AF JUMP JUMPDEST PUSH2 0x5B6F PUSH1 0xC0 DUP4 ADD DUP6 PUSH2 0x45AF JUMP JUMPDEST PUSH2 0x5B7C PUSH1 0xE0 DUP4 ADD DUP5 PUSH2 0x45AF JUMP JUMPDEST SWAP10 SWAP9 POP POP POP POP POP POP POP POP POP JUMP JUMPDEST PUSH32 0x74686520736F6E67496420646F65736E277420657869737473206F72206E6F74 PUSH1 0x0 DUP3 ADD MSTORE PUSH32 0x2076616C69640000000000000000000000000000000000000000000000000000 PUSH1 0x20 DUP3 ADD MSTORE POP JUMP JUMPDEST PUSH1 0x0 PUSH2 0x5BE5 PUSH1 0x26 DUP4 PUSH2 0x469F JUMP JUMPDEST SWAP2 POP PUSH2 0x5BF0 DUP3 PUSH2 0x5B89 JUMP JUMPDEST PUSH1 0x40 DUP3 ADD SWAP1 POP SWAP2 SWAP1 POP JUMP JUMPDEST PUSH1 0x0 PUSH1 0x20 DUP3 ADD SWAP1 POP DUP2 DUP2 SUB PUSH1 0x0 DUP4 ADD MSTORE PUSH2 0x5C14 DUP2 PUSH2 0x5BD8 JUMP JUMPDEST SWAP1 POP SWAP2 SWAP1 POP JUMP JUMPDEST PUSH32 0x506C6561736520706179207468652066756C6C20616D6F756E74000000000000 PUSH1 0x0 DUP3 ADD MSTORE POP JUMP JUMPDEST PUSH1 0x0 PUSH2 0x5C51 PUSH1 0x1A DUP4 PUSH2 0x469F JUMP JUMPDEST SWAP2 POP PUSH2 0x5C5C DUP3 PUSH2 0x5C1B JUMP JUMPDEST PUSH1 0x20 DUP3 ADD SWAP1 POP SWAP2 SWAP1 POP JUMP JUMPDEST PUSH1 0x0 PUSH1 0x20 DUP3 ADD SWAP1 POP DUP2 DUP2 SUB PUSH1 0x0 DUP4 ADD MSTORE PUSH2 0x5C80 DUP2 PUSH2 0x5C44 JUMP JUMPDEST SWAP1 POP SWAP2 SWAP1 POP JUMP JUMPDEST PUSH32 0x796F752063616E6E6F742062757920796F7572206F776E20736F6E6700000000 PUSH1 0x0 DUP3 ADD MSTORE POP JUMP JUMPDEST PUSH1 0x0 PUSH2 0x5CBD PUSH1 0x1C DUP4 PUSH2 0x469F JUMP JUMPDEST SWAP2 POP PUSH2 0x5CC8 DUP3 PUSH2 0x5C87 JUMP JUMPDEST PUSH1 0x20 DUP3 ADD SWAP1 POP SWAP2 SWAP1 POP JUMP JUMPDEST PUSH1 0x0 PUSH1 0x20 DUP3 ADD SWAP1 POP DUP2 DUP2 SUB PUSH1 0x0 DUP4 ADD MSTORE PUSH2 0x5CEC DUP2 PUSH2 0x5CB0 JUMP JUMPDEST SWAP1 POP SWAP2 SWAP1 POP JUMP JUMPDEST PUSH1 0x0 PUSH2 0x5CFE DUP3 PUSH2 0x44DB JUMP JUMPDEST SWAP1 POP SWAP2 SWAP1 POP JUMP JUMPDEST PUSH2 0x5D0E DUP2 PUSH2 0x5CF3 JUMP JUMPDEST DUP3 MSTORE POP POP JUMP JUMPDEST PUSH1 0x0 PUSH1 0x80 DUP3 ADD SWAP1 POP PUSH2 0x5D29 PUSH1 0x0 DUP4 ADD DUP8 PUSH2 0x45AF JUMP JUMPDEST PUSH2 0x5D36 PUSH1 0x20 DUP4 ADD DUP7 PUSH2 0x5D05 JUMP JUMPDEST PUSH2 0x5D43 PUSH1 0x40 DUP4 ADD DUP6 PUSH2 0x51DC JUMP JUMPDEST PUSH2 0x5D50 PUSH1 0x60 DUP4 ADD DUP5 PUSH2 0x51DC JUMP JUMPDEST SWAP6 SWAP5 POP POP POP POP POP JUMP JUMPDEST PUSH1 0x0 PUSH1 0x40 DUP3 ADD SWAP1 POP PUSH2 0x5D6E PUSH1 0x0 DUP4 ADD DUP6 PUSH2 0x45AF JUMP JUMPDEST PUSH2 0x5D7B PUSH1 0x20 DUP4 ADD DUP5 PUSH2 0x51DC JUMP JUMPDEST SWAP4 SWAP3 POP POP POP JUMP JUMPDEST PUSH1 0x0 PUSH2 0x5D8F PUSH1 0x0 DUP4 PUSH2 0x469F JUMP JUMPDEST SWAP2 POP PUSH2 0x5D9A DUP3 PUSH2 0x5888 JUMP JUMPDEST PUSH1 0x0 DUP3 ADD SWAP1 POP SWAP2 SWAP1 POP JUMP JUMPDEST PUSH1 0x0 PUSH1 0x20 DUP3 ADD SWAP1 POP DUP2 DUP2 SUB PUSH1 0x0 DUP4 ADD MSTORE PUSH2 0x5DBE DUP2 PUSH2 0x5D82 JUMP JUMPDEST SWAP1 POP SWAP2 SWAP1 POP JUMP JUMPDEST PUSH1 0x0 DUP2 SWAP1 POP SWAP3 SWAP2 POP POP JUMP JUMPDEST PUSH1 0x0 DUP2 SWAP1 POP DUP2 PUSH1 0x0 MSTORE PUSH1 0x20 PUSH1 0x0 KECCAK256 SWAP1 POP SWAP2 SWAP1 POP JUMP JUMPDEST PUSH1 0x0 DUP2 SLOAD PUSH2 0x5DF2 DUP2 PUSH2 0x5449 JUMP JUMPDEST PUSH2 0x5DFC DUP2 DUP7 PUSH2 0x5DC5 JUMP JUMPDEST SWAP5 POP PUSH1 0x1 DUP3 AND PUSH1 0x0 DUP2 EQ PUSH2 0x5E17 JUMPI PUSH1 0x1 DUP2 EQ PUSH2 0x5E2C JUMPI PUSH2 0x5E5F JUMP JUMPDEST PUSH1 0xFF NOT DUP4 AND DUP7 MSTORE DUP2 ISZERO ISZERO DUP3 MUL DUP7 ADD SWAP4 POP PUSH2 0x5E5F JUMP JUMPDEST PUSH2 0x5E35 DUP6 PUSH2 0x5DD0 JUMP JUMPDEST PUSH1 0x0 JUMPDEST DUP4 DUP2 LT ISZERO PUSH2 0x5E57 JUMPI DUP2 SLOAD DUP2 DUP10 ADD MSTORE PUSH1 0x1 DUP3 ADD SWAP2 POP PUSH1 0x20 DUP2 ADD SWAP1 POP PUSH2 0x5E38 JUMP JUMPDEST DUP4 DUP9 ADD SWAP6 POP POP POP JUMPDEST POP POP POP SWAP3 SWAP2 POP POP JUMP JUMPDEST PUSH1 0x0 PUSH2 0x5E73 DUP3 PUSH2 0x4694 JUMP JUMPDEST PUSH2 0x5E7D DUP2 DUP6 PUSH2 0x5DC5 JUMP JUMPDEST SWAP4 POP PUSH2 0x5E8D DUP2 DUP6 PUSH1 0x20 DUP7 ADD PUSH2 0x46B0 JUMP JUMPDEST DUP1 DUP5 ADD SWAP2 POP POP SWAP3 SWAP2 POP POP JUMP JUMPDEST PUSH1 0x0 PUSH2 0x5EA5 DUP3 DUP6 PUSH2 0x5DE5 JUMP JUMPDEST SWAP2 POP PUSH2 0x5EB1 DUP3 DUP5 PUSH2 0x5E68 JUMP JUMPDEST SWAP2 POP DUP2 SWAP1 POP SWAP4 SWAP3 POP POP POP JUMP JUMPDEST PUSH32 0x455243313135353A2069647320616E6420616D6F756E7473206C656E67746820 PUSH1 0x0 DUP3 ADD MSTORE PUSH32 0x6D69736D61746368000000000000000000000000000000000000000000000000 PUSH1 0x20 DUP3 ADD MSTORE POP JUMP JUMPDEST PUSH1 0x0 PUSH2 0x5F19 PUSH1 0x28 DUP4 PUSH2 0x469F JUMP JUMPDEST SWAP2 POP PUSH2 0x5F24 DUP3 PUSH2 0x5EBD JUMP JUMPDEST PUSH1 0x40 DUP3 ADD SWAP1 POP SWAP2 SWAP1 POP JUMP JUMPDEST PUSH1 0x0 PUSH1 0x20 DUP3 ADD SWAP1 POP DUP2 DUP2 SUB PUSH1 0x0 DUP4 ADD MSTORE PUSH2 0x5F48 DUP2 PUSH2 0x5F0C JUMP JUMPDEST SWAP1 POP SWAP2 SWAP1 POP JUMP JUMPDEST PUSH32 0x455243313135353A207472616E7366657220746F20746865207A65726F206164 PUSH1 0x0 DUP3 ADD MSTORE PUSH32 0x6472657373000000000000000000000000000000000000000000000000000000 PUSH1 0x20 DUP3 ADD MSTORE POP JUMP JUMPDEST PUSH1 0x0 PUSH2 0x5FAB PUSH1 0x25 DUP4 PUSH2 0x469F JUMP JUMPDEST SWAP2 POP PUSH2 0x5FB6 DUP3 PUSH2 0x5F4F JUMP JUMPDEST PUSH1 0x40 DUP3 ADD SWAP1 POP SWAP2 SWAP1 POP JUMP JUMPDEST PUSH1 0x0 PUSH1 0x20 DUP3 ADD SWAP1 POP DUP2 DUP2 SUB PUSH1 0x0 DUP4 ADD MSTORE PUSH2 0x5FDA DUP2 PUSH2 0x5F9E JUMP JUMPDEST SWAP1 POP SWAP2 SWAP1 POP JUMP JUMPDEST PUSH32 0x455243313135353A20696E73756666696369656E742062616C616E636520666F PUSH1 0x0 DUP3 ADD MSTORE PUSH32 0x72207472616E7366657200000000000000000000000000000000000000000000 PUSH1 0x20 DUP3 ADD MSTORE POP JUMP JUMPDEST PUSH1 0x0 PUSH2 0x603D PUSH1 0x2A DUP4 PUSH2 0x469F JUMP JUMPDEST SWAP2 POP PUSH2 0x6048 DUP3 PUSH2 0x5FE1 JUMP JUMPDEST PUSH1 0x40 DUP3 ADD SWAP1 POP SWAP2 SWAP1 POP JUMP JUMPDEST PUSH1 0x0 PUSH1 0x20 DUP3 ADD SWAP1 POP DUP2 DUP2 SUB PUSH1 0x0 DUP4 ADD MSTORE PUSH2 0x606C DUP2 PUSH2 0x6030 JUMP JUMPDEST SWAP1 POP SWAP2 SWAP1 POP JUMP JUMPDEST PUSH1 0x0 PUSH1 0x40 DUP3 ADD SWAP1 POP DUP2 DUP2 SUB PUSH1 0x0 DUP4 ADD MSTORE PUSH2 0x608D DUP2 DUP6 PUSH2 0x4DBE JUMP JUMPDEST SWAP1 POP DUP2 DUP2 SUB PUSH1 0x20 DUP4 ADD MSTORE PUSH2 0x60A1 DUP2 DUP5 PUSH2 0x4DBE JUMP JUMPDEST SWAP1 POP SWAP4 SWAP3 POP POP POP JUMP JUMPDEST PUSH32 0x455243313135353A206D696E7420746F20746865207A65726F20616464726573 PUSH1 0x0 DUP3 ADD MSTORE PUSH32 0x7300000000000000000000000000000000000000000000000000000000000000 PUSH1 0x20 DUP3 ADD MSTORE POP JUMP JUMPDEST PUSH1 0x0 PUSH2 0x6106 PUSH1 0x21 DUP4 PUSH2 0x469F JUMP JUMPDEST SWAP2 POP PUSH2 0x6111 DUP3 PUSH2 0x60AA JUMP JUMPDEST PUSH1 0x40 DUP3 ADD SWAP1 POP SWAP2 SWAP1 POP JUMP JUMPDEST PUSH1 0x0 PUSH1 0x20 DUP3 ADD SWAP1 POP DUP2 DUP2 SUB PUSH1 0x0 DUP4 ADD MSTORE PUSH2 0x6135 DUP2 PUSH2 0x60F9 JUMP JUMPDEST SWAP1 POP SWAP2 SWAP1 POP JUMP JUMPDEST PUSH1 0x0 PUSH1 0x40 DUP3 ADD SWAP1 POP PUSH2 0x6151 PUSH1 0x0 DUP4 ADD DUP6 PUSH2 0x45AF JUMP JUMPDEST PUSH2 0x615E PUSH1 0x20 DUP4 ADD DUP5 PUSH2 0x45AF JUMP JUMPDEST SWAP4 SWAP3 POP POP POP JUMP JUMPDEST PUSH1 0x0 PUSH1 0x20 PUSH1 0x1F DUP4 ADD DIV SWAP1 POP SWAP2 SWAP1 POP JUMP JUMPDEST PUSH1 0x0 DUP3 DUP3 SHL SWAP1 POP SWAP3 SWAP2 POP POP JUMP JUMPDEST PUSH1 0x0 PUSH1 0x8 DUP4 MUL PUSH2 0x61B2 PUSH32 0xFFFFFFFFFFFFFFFFFFFFFFFFFFFFFFFFFFFFFFFFFFFFFFFFFFFFFFFFFFFFFFFF DUP3 PUSH2 0x6175 JUMP JUMPDEST PUSH2 0x61BC DUP7 DUP4 PUSH2 0x6175 JUMP JUMPDEST SWAP6 POP DUP1 NOT DUP5 AND SWAP4 POP DUP1 DUP7 AND DUP5 OR SWAP3 POP POP POP SWAP4 SWAP3 POP POP POP JUMP JUMPDEST PUSH1 0x0 DUP2 SWAP1 POP SWAP2 SWAP1 POP JUMP JUMPDEST PUSH1 0x0 PUSH2 0x61F9 PUSH2 0x61F4 PUSH2 0x61EF DUP5 PUSH2 0x4539 JUMP JUMPDEST PUSH2 0x61D4 JUMP JUMPDEST PUSH2 0x4539 JUMP JUMPDEST SWAP1 POP SWAP2 SWAP1 POP JUMP JUMPDEST PUSH1 0x0 DUP2 SWAP1 POP SWAP2 SWAP1 POP JUMP JUMPDEST PUSH2 0x6213 DUP4 PUSH2 0x61DE JUMP JUMPDEST PUSH2 0x6227 PUSH2 0x621F DUP3 PUSH2 0x6200 JUMP JUMPDEST DUP5 DUP5 SLOAD PUSH2 0x6182 JUMP JUMPDEST DUP3 SSTORE POP POP POP POP JUMP JUMPDEST PUSH1 0x0 SWAP1 JUMP JUMPDEST PUSH2 0x623C PUSH2 0x622F JUMP JUMPDEST PUSH2 0x6247 DUP2 DUP5 DUP5 PUSH2 0x620A JUMP JUMPDEST POP POP POP JUMP JUMPDEST JUMPDEST DUP2 DUP2 LT ISZERO PUSH2 0x626B JUMPI PUSH2 0x6260 PUSH1 0x0 DUP3 PUSH2 0x6234 JUMP JUMPDEST PUSH1 0x1 DUP2 ADD SWAP1 POP PUSH2 0x624D JUMP JUMPDEST POP POP JUMP JUMPDEST PUSH1 0x1F DUP3 GT ISZERO PUSH2 0x62B0 JUMPI PUSH2 0x6281 DUP2 PUSH2 0x5DD0 JUMP JUMPDEST PUSH2 0x628A DUP5 PUSH2 0x6165 JUMP JUMPDEST DUP2 ADD PUSH1 0x20 DUP6 LT ISZERO PUSH2 0x6299 JUMPI DUP2 SWAP1 POP JUMPDEST PUSH2 0x62AD PUSH2 0x62A5 DUP6 PUSH2 0x6165 JUMP JUMPDEST DUP4 ADD DUP3 PUSH2 0x624C JUMP JUMPDEST POP POP JUMPDEST POP POP POP JUMP JUMPDEST PUSH1 0x0 DUP3 DUP3 SHR SWAP1 POP SWAP3 SWAP2 POP POP JUMP JUMPDEST PUSH1 0x0 PUSH2 0x62D3 PUSH1 0x0 NOT DUP5 PUSH1 0x8 MUL PUSH2 0x62B5 JUMP JUMPDEST NOT DUP1 DUP4 AND SWAP2 POP POP SWAP3 SWAP2 POP POP JUMP JUMPDEST PUSH1 0x0 PUSH2 0x62EC DUP4 DUP4 PUSH2 0x62C2 JUMP JUMPDEST SWAP2 POP DUP3 PUSH1 0x2 MUL DUP3 OR SWAP1 POP SWAP3 SWAP2 POP POP JUMP JUMPDEST PUSH2 0x6305 DUP3 PUSH2 0x4694 JUMP JUMPDEST PUSH8 0xFFFFFFFFFFFFFFFF DUP2 GT ISZERO PUSH2 0x631E JUMPI PUSH2 0x631D PUSH2 0x4778 JUMP JUMPDEST JUMPDEST PUSH2 0x6328 DUP3 SLOAD PUSH2 0x5449 JUMP JUMPDEST PUSH2 0x6333 DUP3 DUP3 DUP6 PUSH2 0x626F JUMP JUMPDEST PUSH1 0x0 PUSH1 0x20 SWAP1 POP PUSH1 0x1F DUP4 GT PUSH1 0x1 DUP2 EQ PUSH2 0x6366 JUMPI PUSH1 0x0 DUP5 ISZERO PUSH2 0x6354 JUMPI DUP3 DUP8 ADD MLOAD SWAP1 POP JUMPDEST PUSH2 0x635E DUP6 DUP3 PUSH2 0x62E0 JUMP JUMPDEST DUP7 SSTORE POP PUSH2 0x63C6 JUMP JUMPDEST PUSH1 0x1F NOT DUP5 AND PUSH2 0x6374 DUP7 PUSH2 0x5DD0 JUMP JUMPDEST PUSH1 0x0 JUMPDEST DUP3 DUP2 LT ISZERO PUSH2 0x639C JUMPI DUP5 DUP10 ADD MLOAD DUP3 SSTORE PUSH1 0x1 DUP3 ADD SWAP2 POP PUSH1 0x20 DUP6 ADD SWAP5 POP PUSH1 0x20 DUP2 ADD SWAP1 POP PUSH2 0x6377 JUMP JUMPDEST DUP7 DUP4 LT ISZERO PUSH2 0x63B9 JUMPI DUP5 DUP10 ADD MLOAD PUSH2 0x63B5 PUSH1 0x1F DUP10 AND DUP3 PUSH2 0x62C2 JUMP JUMPDEST DUP4 SSTORE POP JUMPDEST PUSH1 0x1 PUSH1 0x2 DUP9 MUL ADD DUP9 SSTORE POP POP POP JUMPDEST POP POP POP POP POP POP JUMP JUMPDEST PUSH32 0x455243313135353A2073657474696E6720617070726F76616C20737461747573 PUSH1 0x0 DUP3 ADD MSTORE PUSH32 0x20666F722073656C660000000000000000000000000000000000000000000000 PUSH1 0x20 DUP3 ADD MSTORE POP JUMP JUMPDEST PUSH1 0x0 PUSH2 0x642A PUSH1 0x29 DUP4 PUSH2 0x469F JUMP JUMPDEST SWAP2 POP PUSH2 0x6435 DUP3 PUSH2 0x63CE JUMP JUMPDEST PUSH1 0x40 DUP3 ADD SWAP1 POP SWAP2 SWAP1 POP JUMP JUMPDEST PUSH1 0x0 PUSH1 0x20 DUP3 ADD SWAP1 POP DUP2 DUP2 SUB PUSH1 0x0 DUP4 ADD MSTORE PUSH2 0x6459 DUP2 PUSH2 0x641D JUMP JUMPDEST SWAP1 POP SWAP2 SWAP1 POP JUMP JUMPDEST PUSH1 0x0 DUP2 MLOAD SWAP1 POP SWAP2 SWAP1 POP JUMP JUMPDEST PUSH1 0x0 DUP3 DUP3 MSTORE PUSH1 0x20 DUP3 ADD SWAP1 POP SWAP3 SWAP2 POP POP JUMP JUMPDEST PUSH1 0x0 PUSH2 0x6487 DUP3 PUSH2 0x6460 JUMP JUMPDEST PUSH2 0x6491 DUP2 DUP6 PUSH2 0x646B JUMP JUMPDEST SWAP4 POP PUSH2 0x64A1 DUP2 DUP6 PUSH1 0x20 DUP7 ADD PUSH2 0x46B0 JUMP JUMPDEST PUSH2 0x64AA DUP2 PUSH2 0x46DA JUMP JUMPDEST DUP5 ADD SWAP2 POP POP SWAP3 SWAP2 POP POP JUMP JUMPDEST PUSH1 0x0 PUSH1 0xA0 DUP3 ADD SWAP1 POP PUSH2 0x64CA PUSH1 0x0 DUP4 ADD DUP9 PUSH2 0x51DC JUMP JUMPDEST PUSH2 0x64D7 PUSH1 0x20 DUP4 ADD DUP8 PUSH2 0x51DC JUMP JUMPDEST DUP2 DUP2 SUB PUSH1 0x40 DUP4 ADD MSTORE PUSH2 0x64E9 DUP2 DUP7 PUSH2 0x4DBE JUMP JUMPDEST SWAP1 POP DUP2 DUP2 SUB PUSH1 0x60 DUP4 ADD MSTORE PUSH2 0x64FD DUP2 DUP6 PUSH2 0x4DBE JUMP JUMPDEST SWAP1 POP DUP2 DUP2 SUB PUSH1 0x80 DUP4 ADD MSTORE PUSH2 0x6511 DUP2 DUP5 PUSH2 0x647C JUMP JUMPDEST SWAP1 POP SWAP7 SWAP6 POP POP POP POP POP POP JUMP JUMPDEST PUSH1 0x0 DUP2 MLOAD SWAP1 POP PUSH2 0x652C DUP2 PUSH2 0x4605 JUMP JUMPDEST SWAP3 SWAP2 POP POP JUMP JUMPDEST PUSH1 0x0 PUSH1 0x20 DUP3 DUP5 SUB SLT ISZERO PUSH2 0x6548 JUMPI PUSH2 0x6547 PUSH2 0x44D1 JUMP JUMPDEST JUMPDEST PUSH1 0x0 PUSH2 0x6556 DUP5 DUP3 DUP6 ADD PUSH2 0x651D JUMP JUMPDEST SWAP2 POP POP SWAP3 SWAP2 POP POP JUMP JUMPDEST PUSH1 0x0 DUP2 PUSH1 0xE0 SHR SWAP1 POP SWAP2 SWAP1 POP JUMP JUMPDEST PUSH1 0x0 PUSH1 0x3 RETURNDATASIZE GT ISZERO PUSH2 0x658B JUMPI PUSH1 0x4 PUSH1 0x0 DUP1 RETURNDATACOPY PUSH2 0x6588 PUSH1 0x0 MLOAD PUSH2 0x655F JUMP JUMPDEST SWAP1 POP JUMPDEST SWAP1 JUMP JUMPDEST PUSH1 0x0 PUSH1 0x44 RETURNDATASIZE LT PUSH2 0x661B JUMPI PUSH2 0x65A0 PUSH2 0x44C7 JUMP JUMPDEST PUSH1 0x4 RETURNDATASIZE SUB PUSH1 0x4 DUP3 RETURNDATACOPY DUP1 MLOAD RETURNDATASIZE PUSH1 0x24 DUP3 ADD GT PUSH8 0xFFFFFFFFFFFFFFFF DUP3 GT OR ISZERO PUSH2 0x65C8 JUMPI POP POP PUSH2 0x661B JUMP JUMPDEST DUP1 DUP3 ADD DUP1 MLOAD PUSH8 0xFFFFFFFFFFFFFFFF DUP2 GT ISZERO PUSH2 0x65E6 JUMPI POP POP POP POP PUSH2 0x661B JUMP JUMPDEST DUP1 PUSH1 0x20 DUP4 ADD ADD PUSH1 0x4 RETURNDATASIZE SUB DUP6 ADD DUP2 GT ISZERO PUSH2 0x6603 JUMPI POP POP POP POP POP PUSH2 0x661B JUMP JUMPDEST PUSH2 0x6612 DUP3 PUSH1 0x20 ADD DUP6 ADD DUP7 PUSH2 0x47A7 JUMP JUMPDEST DUP3 SWAP6 POP POP POP POP POP POP JUMPDEST SWAP1 JUMP JUMPDEST PUSH32 0x455243313135353A207472616E7366657220746F206E6F6E2D45524331313535 PUSH1 0x0 DUP3 ADD MSTORE PUSH32 0x526563656976657220696D706C656D656E746572000000000000000000000000 PUSH1 0x20 DUP3 ADD MSTORE POP JUMP JUMPDEST PUSH1 0x0 PUSH2 0x667A PUSH1 0x34 DUP4 PUSH2 0x469F JUMP JUMPDEST SWAP2 POP PUSH2 0x6685 DUP3 PUSH2 0x661E JUMP JUMPDEST PUSH1 0x40 DUP3 ADD SWAP1 POP SWAP2 SWAP1 POP JUMP JUMPDEST PUSH1 0x0 PUSH1 0x20 DUP3 ADD SWAP1 POP DUP2 DUP2 SUB PUSH1 0x0 DUP4 ADD MSTORE PUSH2 0x66A9 DUP2 PUSH2 0x666D JUMP JUMPDEST SWAP1 POP SWAP2 SWAP1 POP JUMP JUMPDEST PUSH32 0x455243313135353A204552433131353552656365697665722072656A65637465 PUSH1 0x0 DUP3 ADD MSTORE PUSH32 0x6420746F6B656E73000000000000000000000000000000000000000000000000 PUSH1 0x20 DUP3 ADD MSTORE POP JUMP JUMPDEST PUSH1 0x0 PUSH2 0x670C PUSH1 0x28 DUP4 PUSH2 0x469F JUMP JUMPDEST SWAP2 POP PUSH2 0x6717 DUP3 PUSH2 0x66B0 JUMP JUMPDEST PUSH1 0x40 DUP3 ADD SWAP1 POP SWAP2 SWAP1 POP JUMP JUMPDEST PUSH1 0x0 PUSH1 0x20 DUP3 ADD SWAP1 POP DUP2 DUP2 SUB PUSH1 0x0 DUP4 ADD MSTORE PUSH2 0x673B DUP2 PUSH2 0x66FF JUMP JUMPDEST SWAP1 POP SWAP2 SWAP1 POP JUMP JUMPDEST PUSH1 0x0 PUSH1 0xA0 DUP3 ADD SWAP1 POP PUSH2 0x6757 PUSH1 0x0 DUP4 ADD DUP9 PUSH2 0x51DC JUMP JUMPDEST PUSH2 0x6764 PUSH1 0x20 DUP4 ADD DUP8 PUSH2 0x51DC JUMP JUMPDEST PUSH2 0x6771 PUSH1 0x40 DUP4 ADD DUP7 PUSH2 0x45AF JUMP JUMPDEST PUSH2 0x677E PUSH1 0x60 DUP4 ADD DUP6 PUSH2 0x45AF JUMP JUMPDEST DUP2 DUP2 SUB PUSH1 0x80 DUP4 ADD MSTORE PUSH2 0x6790 DUP2 DUP5 PUSH2 0x647C JUMP JUMPDEST SWAP1 POP SWAP7 SWAP6 POP POP POP POP POP POP JUMP JUMPDEST PUSH32 0x455243313135353A206275726E20616D6F756E74206578636565647320746F74 PUSH1 0x0 DUP3 ADD MSTORE PUSH32 0x616C537570706C79000000000000000000000000000000000000000000000000 PUSH1 0x20 DUP3 ADD MSTORE POP JUMP JUMPDEST PUSH1 0x0 PUSH2 0x67F8 PUSH1 0x28 DUP4 PUSH2 0x469F JUMP JUMPDEST SWAP2 POP PUSH2 0x6803 DUP3 PUSH2 0x679C JUMP JUMPDEST PUSH1 0x40 DUP3 ADD SWAP1 POP SWAP2 SWAP1 POP JUMP JUMPDEST PUSH1 0x0 PUSH1 0x20 DUP3 ADD SWAP1 POP DUP2 DUP2 SUB PUSH1 0x0 DUP4 ADD MSTORE PUSH2 0x6827 DUP2 PUSH2 0x67EB JUMP JUMPDEST SWAP1 POP SWAP2 SWAP1 POP JUMP INVALID LOG2 PUSH5 0x6970667358 0x22 SLT KECCAK256 0x4D PUSH26 0x1876292B5EB3DB9188E22204BB86C5A3B24D05FFF6A502F9DBBA 0xAE CREATE 0xAA SWAP13 PUSH5 0x736F6C6343 STOP ADDMOD GT STOP CALLER "},"methodIdentifiers":{"Owner()":"b4a99a4e","balanceOf(address,uint256)":"00fdd58e","balanceOfBatch(address[],uint256[])":"4e1273f4","buyLimitedSong(uint256)":"fad00ac2","buyRegularSong(uint256)":"eea7eaf6","createSong(uint256,uint256,uint256,string,uint256,uint256)":"7d048509","exists(uint256)":"4f558e79","getCurrentSongId()":"5fe34985","getSong(uint256)":"42acaa66","getSongs()":"5565f660","isApprovedForAll(address,address)":"e985e9c5","name()":"06fdde03","safeBatchTransferFrom(address,address,uint256[],uint256[],bytes)":"2eb2c2d6","safeTransferFrom(address,address,uint256,uint256,bytes)":"f242432a","setApprovalForAll(address,bool)":"a22cb465","songIndex(uint256)":"2b9c2760","songsArray(uint256)":"b9414d31","supportsInterface(bytes4)":"01ffc9a7","totalSupply(uint256)":"bd85b039","uri(uint256)":"0e89341c","withdrawRoyalities()":"7c76c232"}}}}}