{"contracts/Escrow.sol":{"Escrow":{"abi":[{"inputs":[{"internalType":"uint256","name":"ltdSongId","type":"uint256"},{"internalType":"address payable","name":"_radio","type":"address"},{"internalType":"address","name":"artist","type":"address"},{"internalType":"address","name":"to","type":"address"}],"name":"buyLimitedSong","outputs":[],"stateMutability":"nonpayable","type":"function"},{"inputs":[{"internalType":"uint256","name":"songId","type":"uint256"},{"internalType":"address payable","name":"_radio","type":"address"},{"internalType":"address","name":"artist","type":"address"},{"internalType":"address","name":"to","type":"address"}],"name":"buyRegularSong","outputs":[],"stateMutability":"nonpayable","type":"function"}],"evm":{"bytecode":{"linkReferences":{},"object":"608060405234801561001057600080fd5b50610444806100206000396000f3fe608060405234801561001057600080fd5b50600436106100365760003560e01c806313f2da7b1461003b578063cca8c2ec14610057575b600080fd5b610055600480360381019061005091906102b5565b610073565b005b610071600480360381019061006c91906102b5565b610127565b005b61008767be7b7e6202b6531860c01b6101db565b61009b67d10485773952b8a560c01b6101db565b6100af67ab1825b025469bdb60c01b6101db565b8273ffffffffffffffffffffffffffffffffffffffff1663f242432a83838760016040518563ffffffff1660e01b81526004016100ef94939291906103b6565b600060405180830381600087803b15801561010957600080fd5b505af115801561011d573d6000803e3d6000fd5b5050505050505050565b61013b678ca689f5504a47d860c01b6101db565b61014f671a0136bc1b8ed81c60c01b6101db565b61016367cbb28825e563cc8260c01b6101db565b8273ffffffffffffffffffffffffffffffffffffffff1663f242432a83838760016040518563ffffffff1660e01b81526004016101a394939291906103b6565b600060405180830381600087803b1580156101bd57600080fd5b505af11580156101d1573d6000803e3d6000fd5b5050505050505050565b50565b600080fd5b6000819050919050565b6101f6816101e3565b811461020157600080fd5b50565b600081359050610213816101ed565b92915050565b600073ffffffffffffffffffffffffffffffffffffffff82169050919050565b600061024482610219565b9050919050565b61025481610239565b811461025f57600080fd5b50565b6000813590506102718161024b565b92915050565b600061028282610219565b9050919050565b61029281610277565b811461029d57600080fd5b50565b6000813590506102af81610289565b92915050565b600080600080608085870312156102cf576102ce6101de565b5b60006102dd87828801610204565b94505060206102ee87828801610262565b93505060406102ff878288016102a0565b9250506060610310878288016102a0565b91505092959194509250565b61032581610277565b82525050565b610334816101e3565b82525050565b6000819050919050565b6000819050919050565b600061036961036461035f8461033a565b610344565b6101e3565b9050919050565b6103798161034e565b82525050565b600082825260208201905092915050565b50565b60006103a060008361037f565b91506103ab82610390565b600082019050919050565b600060a0820190506103cb600083018761031c565b6103d8602083018661031c565b6103e5604083018561032b565b6103f26060830184610370565b818103608083015261040381610393565b90509594505050505056fea26469706673582212200bc80ab5b5d8064f85719ba068933ccef11de46cd8da8092d565f5f61ce5323364736f6c63430008110033","opcodes":"PUSH1 0x80 PUSH1 0x40 MSTORE CALLVALUE DUP1 ISZERO PUSH2 0x10 JUMPI PUSH1 0x0 DUP1 REVERT JUMPDEST POP PUSH2 0x444 DUP1 PUSH2 0x20 PUSH1 0x0 CODECOPY PUSH1 0x0 RETURN INVALID PUSH1 0x80 PUSH1 0x40 MSTORE CALLVALUE DUP1 ISZERO PUSH2 0x10 JUMPI PUSH1 0x0 DUP1 REVERT JUMPDEST POP PUSH1 0x4 CALLDATASIZE LT PUSH2 0x36 JUMPI PUSH1 0x0 CALLDATALOAD PUSH1 0xE0 SHR DUP1 PUSH4 0x13F2DA7B EQ PUSH2 0x3B JUMPI DUP1 PUSH4 0xCCA8C2EC EQ PUSH2 0x57 JUMPI JUMPDEST PUSH1 0x0 DUP1 REVERT JUMPDEST PUSH2 0x55 PUSH1 0x4 DUP1 CALLDATASIZE SUB DUP2 ADD SWAP1 PUSH2 0x50 SWAP2 SWAP1 PUSH2 0x2B5 JUMP JUMPDEST PUSH2 0x73 JUMP JUMPDEST STOP JUMPDEST PUSH2 0x71 PUSH1 0x4 DUP1 CALLDATASIZE SUB DUP2 ADD SWAP1 PUSH2 0x6C SWAP2 SWAP1 PUSH2 0x2B5 JUMP JUMPDEST PUSH2 0x127 JUMP JUMPDEST STOP JUMPDEST PUSH2 0x87 PUSH8 0xBE7B7E6202B65318 PUSH1 0xC0 SHL PUSH2 0x1DB JUMP JUMPDEST PUSH2 0x9B PUSH8 0xD10485773952B8A5 PUSH1 0xC0 SHL PUSH2 0x1DB JUMP JUMPDEST PUSH2 0xAF PUSH8 0xAB1825B025469BDB PUSH1 0xC0 SHL PUSH2 0x1DB JUMP JUMPDEST DUP3 PUSH20 0xFFFFFFFFFFFFFFFFFFFFFFFFFFFFFFFFFFFFFFFF AND PUSH4 0xF242432A DUP4 DUP4 DUP8 PUSH1 0x1 PUSH1 0x40 MLOAD DUP6 PUSH4 0xFFFFFFFF AND PUSH1 0xE0 SHL DUP2 MSTORE PUSH1 0x4 ADD PUSH2 0xEF SWAP5 SWAP4 SWAP3 SWAP2 SWAP1 PUSH2 0x3B6 JUMP JUMPDEST PUSH1 0x0 PUSH1 0x40 MLOAD DUP1 DUP4 SUB DUP2 PUSH1 0x0 DUP8 DUP1 EXTCODESIZE ISZERO DUP1 ISZERO PUSH2 0x109 JUMPI PUSH1 0x0 DUP1 REVERT JUMPDEST POP GAS CALL ISZERO DUP1 ISZERO PUSH2 0x11D JUMPI RETURNDATASIZE PUSH1 0x0 DUP1 RETURNDATACOPY RETURNDATASIZE PUSH1 0x0 REVERT JUMPDEST POP POP POP POP POP POP POP POP JUMP JUMPDEST PUSH2 0x13B PUSH8 0x8CA689F5504A47D8 PUSH1 0xC0 SHL PUSH2 0x1DB JUMP JUMPDEST PUSH2 0x14F PUSH8 0x1A0136BC1B8ED81C PUSH1 0xC0 SHL PUSH2 0x1DB JUMP JUMPDEST PUSH2 0x163 PUSH8 0xCBB28825E563CC82 PUSH1 0xC0 SHL PUSH2 0x1DB JUMP JUMPDEST DUP3 PUSH20 0xFFFFFFFFFFFFFFFFFFFFFFFFFFFFFFFFFFFFFFFF AND PUSH4 0xF242432A DUP4 DUP4 DUP8 PUSH1 0x1 PUSH1 0x40 MLOAD DUP6 PUSH4 0xFFFFFFFF AND PUSH1 0xE0 SHL DUP2 MSTORE PUSH1 0x4 ADD PUSH2 0x1A3 SWAP5 SWAP4 SWAP3 SWAP2 SWAP1 PUSH2 0x3B6 JUMP JUMPDEST PUSH1 0x0 PUSH1 0x40 MLOAD DUP1 DUP4 SUB DUP2 PUSH1 0x0 DUP8 DUP1 EXTCODESIZE ISZERO DUP1 ISZERO PUSH2 0x1BD JUMPI PUSH1 0x0 DUP1 REVERT JUMPDEST POP GAS CALL ISZERO DUP1 ISZERO PUSH2 0x1D1 JUMPI RETURNDATASIZE PUSH1 0x0 DUP1 RETURNDATACOPY RETURNDATASIZE PUSH1 0x0 REVERT JUMPDEST POP POP POP POP POP POP POP POP JUMP JUMPDEST POP JUMP JUMPDEST PUSH1 0x0 DUP1 REVERT JUMPDEST PUSH1 0x0 DUP2 SWAP1 POP SWAP2 SWAP1 POP JUMP JUMPDEST PUSH2 0x1F6 DUP2 PUSH2 0x1E3 JUMP JUMPDEST DUP2 EQ PUSH2 0x201 JUMPI PUSH1 0x0 DUP1 REVERT JUMPDEST POP JUMP JUMPDEST PUSH1 0x0 DUP2 CALLDATALOAD SWAP1 POP PUSH2 0x213 DUP2 PUSH2 0x1ED JUMP JUMPDEST SWAP3 SWAP2 POP POP JUMP JUMPDEST PUSH1 0x0 PUSH20 0xFFFFFFFFFFFFFFFFFFFFFFFFFFFFFFFFFFFFFFFF DUP3 AND SWAP1 POP SWAP2 SWAP1 POP JUMP JUMPDEST PUSH1 0x0 PUSH2 0x244 DUP3 PUSH2 0x219 JUMP JUMPDEST SWAP1 POP SWAP2 SWAP1 POP JUMP JUMPDEST PUSH2 0x254 DUP2 PUSH2 0x239 JUMP JUMPDEST DUP2 EQ PUSH2 0x25F JUMPI PUSH1 0x0 DUP1 REVERT JUMPDEST POP JUMP JUMPDEST PUSH1 0x0 DUP2 CALLDATALOAD SWAP1 POP PUSH2 0x271 DUP2 PUSH2 0x24B JUMP JUMPDEST SWAP3 SWAP2 POP POP JUMP JUMPDEST PUSH1 0x0 PUSH2 0x282 DUP3 PUSH2 0x219 JUMP JUMPDEST SWAP1 POP SWAP2 SWAP1 POP JUMP JUMPDEST PUSH2 0x292 DUP2 PUSH2 0x277 JUMP JUMPDEST DUP2 EQ PUSH2 0x29D JUMPI PUSH1 0x0 DUP1 REVERT JUMPDEST POP JUMP JUMPDEST PUSH1 0x0 DUP2 CALLDATALOAD SWAP1 POP PUSH2 0x2AF DUP2 PUSH2 0x289 JUMP JUMPDEST SWAP3 SWAP2 POP POP JUMP JUMPDEST PUSH1 0x0 DUP1 PUSH1 0x0 DUP1 PUSH1 0x80 DUP6 DUP8 SUB SLT ISZERO PUSH2 0x2CF JUMPI PUSH2 0x2CE PUSH2 0x1DE JUMP JUMPDEST JUMPDEST PUSH1 0x0 PUSH2 0x2DD DUP8 DUP3 DUP9 ADD PUSH2 0x204 JUMP JUMPDEST SWAP5 POP POP PUSH1 0x20 PUSH2 0x2EE DUP8 DUP3 DUP9 ADD PUSH2 0x262 JUMP JUMPDEST SWAP4 POP POP PUSH1 0x40 PUSH2 0x2FF DUP8 DUP3 DUP9 ADD PUSH2 0x2A0 JUMP JUMPDEST SWAP3 POP POP PUSH1 0x60 PUSH2 0x310 DUP8 DUP3 DUP9 ADD PUSH2 0x2A0 JUMP JUMPDEST SWAP2 POP POP SWAP3 SWAP6 SWAP2 SWAP5 POP SWAP3 POP JUMP JUMPDEST PUSH2 0x325 DUP2 PUSH2 0x277 JUMP JUMPDEST DUP3 MSTORE POP POP JUMP JUMPDEST PUSH2 0x334 DUP2 PUSH2 0x1E3 JUMP JUMPDEST DUP3 MSTORE POP POP JUMP JUMPDEST PUSH1 0x0 DUP2 SWAP1 POP SWAP2 SWAP1 POP JUMP JUMPDEST PUSH1 0x0 DUP2 SWAP1 POP SWAP2 SWAP1 POP JUMP JUMPDEST PUSH1 0x0 PUSH2 0x369 PUSH2 0x364 PUSH2 0x35F DUP5 PUSH2 0x33A JUMP JUMPDEST PUSH2 0x344 JUMP JUMPDEST PUSH2 0x1E3 JUMP JUMPDEST SWAP1 POP SWAP2 SWAP1 POP JUMP JUMPDEST PUSH2 0x379 DUP2 PUSH2 0x34E JUMP JUMPDEST DUP3 MSTORE POP POP JUMP JUMPDEST PUSH1 0x0 DUP3 DUP3 MSTORE PUSH1 0x20 DUP3 ADD SWAP1 POP SWAP3 SWAP2 POP POP JUMP JUMPDEST POP JUMP JUMPDEST PUSH1 0x0 PUSH2 0x3A0 PUSH1 0x0 DUP4 PUSH2 0x37F JUMP JUMPDEST SWAP2 POP PUSH2 0x3AB DUP3 PUSH2 0x390 JUMP JUMPDEST PUSH1 0x0 DUP3 ADD SWAP1 POP SWAP2 SWAP1 POP JUMP JUMPDEST PUSH1 0x0 PUSH1 0xA0 DUP3 ADD SWAP1 POP PUSH2 0x3CB PUSH1 0x0 DUP4 ADD DUP8 PUSH2 0x31C JUMP JUMPDEST PUSH2 0x3D8 PUSH1 0x20 DUP4 ADD DUP7 PUSH2 0x31C JUMP JUMPDEST PUSH2 0x3E5 PUSH1 0x40 DUP4 ADD DUP6 PUSH2 0x32B JUMP JUMPDEST PUSH2 0x3F2 PUSH1 0x60 DUP4 ADD DUP5 PUSH2 0x370 JUMP JUMPDEST DUP2 DUP2 SUB PUSH1 0x80 DUP4 ADD MSTORE PUSH2 0x403 DUP2 PUSH2 0x393 JUMP JUMPDEST SWAP1 POP SWAP6 SWAP5 POP POP POP POP POP JUMP INVALID LOG2 PUSH5 0x6970667358 0x22 SLT KECCAK256 SIGNEXTEND 0xC8 EXP 0xB5 0xB5 0xD8 MOD 0x4F DUP6 PUSH18 0x9BA068933CCEF11DE46CD8DA8092D565F5F6 SHR 0xE5 ORIGIN CALLER PUSH5 0x736F6C6343 STOP ADDMOD GT STOP CALLER "},"methodIdentifiers":{"buyLimitedSong(uint256,address,address,address)":"cca8c2ec","buyRegularSong(uint256,address,address,address)":"13f2da7b"}}}}}