{"contracts/Radiohead.sol":{"Radiohead":{"abi":[{"inputs":[{"internalType":"address","name":"_escrow","type":"address"}],"stateMutability":"nonpayable","type":"constructor"},{"anonymous":false,"inputs":[{"indexed":true,"internalType":"address","name":"account","type":"address"},{"indexed":true,"internalType":"address","name":"operator","type":"address"},{"indexed":false,"internalType":"bool","name":"approved","type":"bool"}],"name":"ApprovalForAll","type":"event"},{"anonymous":false,"inputs":[{"indexed":true,"internalType":"address","name":"operator","type":"address"},{"indexed":true,"internalType":"address","name":"from","type":"address"},{"indexed":true,"internalType":"address","name":"to","type":"address"},{"indexed":false,"internalType":"uint256[]","name":"ids","type":"uint256[]"},{"indexed":false,"internalType":"uint256[]","name":"values","type":"uint256[]"}],"name":"TransferBatch","type":"event"},{"anonymous":false,"inputs":[{"indexed":true,"internalType":"address","name":"operator","type":"address"},{"indexed":true,"internalType":"address","name":"from","type":"address"},{"indexed":true,"internalType":"address","name":"to","type":"address"},{"indexed":false,"internalType":"uint256","name":"id","type":"uint256"},{"indexed":false,"internalType":"uint256","name":"value","type":"uint256"}],"name":"TransferSingle","type":"event"},{"anonymous":false,"inputs":[{"indexed":false,"internalType":"string","name":"value","type":"string"},{"indexed":true,"internalType":"uint256","name":"id","type":"uint256"}],"name":"URI","type":"event"},{"anonymous":false,"inputs":[{"indexed":false,"internalType":"uint256","name":"id","type":"uint256"},{"indexed":false,"internalType":"address","name":"superfan","type":"address"}],"name":"limitedSongBought","type":"event"},{"anonymous":false,"inputs":[{"indexed":false,"internalType":"uint256","name":"id","type":"uint256"},{"indexed":false,"internalType":"address","name":"buyer","type":"address"}],"name":"regularSongBought","type":"event"},{"anonymous":false,"inputs":[{"indexed":false,"internalType":"uint256","name":"songId","type":"uint256"},{"indexed":false,"internalType":"uint256","name":"ltdSongId","type":"uint256"},{"indexed":false,"internalType":"address","name":"artist","type":"address"},{"indexed":false,"internalType":"uint256","name":"limitedSupply","type":"uint256"},{"indexed":false,"internalType":"uint256","name":"regularPrice","type":"uint256"},{"indexed":false,"internalType":"uint256","name":"limitedPrice","type":"uint256"},{"indexed":false,"internalType":"uint256","name":"platformRoyality","type":"uint256"},{"indexed":false,"internalType":"uint256","name":"superfanRoyality","type":"uint256"}],"name":"songCreated","type":"event"},{"inputs":[],"name":"Owner","outputs":[{"internalType":"address","name":"","type":"address"}],"stateMutability":"view","type":"function"},{"inputs":[{"internalType":"address","name":"account","type":"address"},{"internalType":"uint256","name":"id","type":"uint256"}],"name":"balanceOf","outputs":[{"internalType":"uint256","name":"","type":"uint256"}],"stateMutability":"view","type":"function"},{"inputs":[{"internalType":"address[]","name":"accounts","type":"address[]"},{"internalType":"uint256[]","name":"ids","type":"uint256[]"}],"name":"balanceOfBatch","outputs":[{"internalType":"uint256[]","name":"","type":"uint256[]"}],"stateMutability":"view","type":"function"},{"inputs":[{"internalType":"uint256","name":"songId","type":"uint256"}],"name":"buyLimitedSong","outputs":[],"stateMutability":"payable","type":"function"},{"inputs":[{"internalType":"uint256","name":"songId","type":"uint256"}],"name":"buyRegularSong","outputs":[],"stateMutability":"payable","type":"function"},{"inputs":[{"internalType":"uint256","name":"_limitedSupply","type":"uint256"},{"internalType":"uint256","name":"_regularSongPrice","type":"uint256"},{"internalType":"uint256","name":"_limitedSongPrice","type":"uint256"},{"internalType":"string","name":"_songURI","type":"string"},{"internalType":"uint256","name":"_platformRoyality","type":"uint256"},{"internalType":"uint256","name":"_superfanRoyality","type":"uint256"}],"name":"createSong","outputs":[{"internalType":"uint256","name":"songId","type":"uint256"}],"stateMutability":"nonpayable","type":"function"},{"inputs":[{"internalType":"uint256","name":"id","type":"uint256"}],"name":"exists","outputs":[{"internalType":"bool","name":"","type":"bool"}],"stateMutability":"view","type":"function"},{"inputs":[],"name":"getCurrentSongId","outputs":[{"internalType":"uint256","name":"current","type":"uint256"}],"stateMutability":"view","type":"function"},{"inputs":[{"internalType":"address","name":"party","type":"address"}],"name":"getOwnedSongs","outputs":[{"internalType":"uint256[]","name":"songs","type":"uint256[]"}],"stateMutability":"view","type":"function"},{"inputs":[{"internalType":"uint256","name":"id","type":"uint256"}],"name":"getSong","outputs":[{"components":[{"internalType":"address","name":"artist","type":"address"},{"internalType":"uint256","name":"songId","type":"uint256"},{"internalType":"uint256","name":"ltdSongId","type":"uint256"},{"internalType":"uint256","name":"limitedSupply","type":"uint256"},{"internalType":"uint256","name":"limitedSongMinted","type":"uint256"},{"internalType":"uint256","name":"regularPrice","type":"uint256"},{"internalType":"uint256","name":"limitedPrice","type":"uint256"},{"internalType":"uint256","name":"regularRevenue","type":"uint256"},{"internalType":"uint256","name":"ltdRevenue","type":"uint256"},{"internalType":"uint256","name":"platformRoyality","type":"uint256"},{"internalType":"uint256","name":"superfanRoyality","type":"uint256"},{"internalType":"address[]","name":"superfans","type":"address[]"}],"internalType":"struct Radiohead.Song","name":"song","type":"tuple"}],"stateMutability":"view","type":"function"},{"inputs":[],"name":"getSongs","outputs":[{"components":[{"internalType":"address","name":"artist","type":"address"},{"internalType":"uint256","name":"songId","type":"uint256"},{"internalType":"uint256","name":"ltdSongId","type":"uint256"},{"internalType":"uint256","name":"limitedSupply","type":"uint256"},{"internalType":"uint256","name":"limitedSongMinted","type":"uint256"},{"internalType":"uint256","name":"regularPrice","type":"uint256"},{"internalType":"uint256","name":"limitedPrice","type":"uint256"},{"internalType":"uint256","name":"regularRevenue","type":"uint256"},{"internalType":"uint256","name":"ltdRevenue","type":"uint256"},{"internalType":"uint256","name":"platformRoyality","type":"uint256"},{"internalType":"uint256","name":"superfanRoyality","type":"uint256"},{"internalType":"address[]","name":"superfans","type":"address[]"}],"internalType":"struct Radiohead.Song[]","name":"gaane","type":"tuple[]"}],"stateMutability":"view","type":"function"},{"inputs":[{"internalType":"address","name":"account","type":"address"},{"internalType":"address","name":"operator","type":"address"}],"name":"isApprovedForAll","outputs":[{"internalType":"bool","name":"","type":"bool"}],"stateMutability":"view","type":"function"},{"inputs":[{"internalType":"address","name":"","type":"address"},{"internalType":"uint256","name":"","type":"uint256"}],"name":"ownedSongs","outputs":[{"internalType":"uint256","name":"","type":"uint256"}],"stateMutability":"view","type":"function"},{"inputs":[{"internalType":"address","name":"from","type":"address"},{"internalType":"address","name":"to","type":"address"},{"internalType":"uint256[]","name":"ids","type":"uint256[]"},{"internalType":"uint256[]","name":"amounts","type":"uint256[]"},{"internalType":"bytes","name":"data","type":"bytes"}],"name":"safeBatchTransferFrom","outputs":[],"stateMutability":"nonpayable","type":"function"},{"inputs":[{"internalType":"address","name":"from","type":"address"},{"internalType":"address","name":"to","type":"address"},{"internalType":"uint256","name":"id","type":"uint256"},{"internalType":"uint256","name":"amount","type":"uint256"},{"internalType":"bytes","name":"data","type":"bytes"}],"name":"safeTransferFrom","outputs":[],"stateMutability":"nonpayable","type":"function"},{"inputs":[{"internalType":"address","name":"operator","type":"address"},{"internalType":"bool","name":"approved","type":"bool"}],"name":"setApprovalForAll","outputs":[],"stateMutability":"nonpayable","type":"function"},{"inputs":[{"internalType":"uint256","name":"","type":"uint256"}],"name":"songIndex","outputs":[{"internalType":"uint256","name":"","type":"uint256"}],"stateMutability":"view","type":"function"},{"inputs":[{"internalType":"uint256","name":"","type":"uint256"}],"name":"songsArray","outputs":[{"internalType":"address","name":"artist","type":"address"},{"internalType":"uint256","name":"songId","type":"uint256"},{"internalType":"uint256","name":"ltdSongId","type":"uint256"},{"internalType":"uint256","name":"limitedSupply","type":"uint256"},{"internalType":"uint256","name":"limitedSongMinted","type":"uint256"},{"internalType":"uint256","name":"regularPrice","type":"uint256"},{"internalType":"uint256","name":"limitedPrice","type":"uint256"},{"internalType":"uint256","name":"regularRevenue","type":"uint256"},{"internalType":"uint256","name":"ltdRevenue","type":"uint256"},{"internalType":"uint256","name":"platformRoyality","type":"uint256"},{"internalType":"uint256","name":"superfanRoyality","type":"uint256"}],"stateMutability":"view","type":"function"},{"inputs":[{"internalType":"bytes4","name":"interfaceId","type":"bytes4"}],"name":"supportsInterface","outputs":[{"internalType":"bool","name":"","type":"bool"}],"stateMutability":"view","type":"function"},{"inputs":[{"internalType":"uint256","name":"id","type":"uint256"}],"name":"totalSupply","outputs":[{"internalType":"uint256","name":"","type":"uint256"}],"stateMutability":"view","type":"function"},{"inputs":[{"internalType":"uint256","name":"tokenId","type":"uint256"}],"name":"uri","outputs":[{"internalType":"string","name":"","type":"string"}],"stateMutability":"view","type":"function"},{"inputs":[],"name":"withdrawRoyalities","outputs":[],"stateMutability":"nonpayable","type":"function"},{"stateMutability":"payable","type":"receive"}],"evm":{"bytecode":{"linkReferences":{},"object":"6080604052604051806020016040528060008152506003908162000024919062000392565b503480156200003257600080fd5b5060405162005b2c38038062005b2c8339818101604052810190620000589190620004e3565b6040518060200160405280600081525062000079816200010360201b60201c565b5080600760006101000a81548173ffffffffffffffffffffffffffffffffffffffff021916908373ffffffffffffffffffffffffffffffffffffffff16021790555033600860006101000a81548173ffffffffffffffffffffffffffffffffffffffff021916908373ffffffffffffffffffffffffffffffffffffffff1602179055505062000515565b806002908162000114919062000392565b5050565b600081519050919050565b7f4e487b7100000000000000000000000000000000000000000000000000000000600052604160045260246000fd5b7f4e487b7100000000000000000000000000000000000000000000000000000000600052602260045260246000fd5b600060028204905060018216806200019a57607f821691505b602082108103620001b057620001af62000152565b5b50919050565b60008190508160005260206000209050919050565b60006020601f8301049050919050565b600082821b905092915050565b6000600883026200021a7fffffffffffffffffffffffffffffffffffffffffffffffffffffffffffffffff82620001db565b620002268683620001db565b95508019841693508086168417925050509392505050565b6000819050919050565b6000819050919050565b6000620002736200026d62000267846200023e565b62000248565b6200023e565b9050919050565b6000819050919050565b6200028f8362000252565b620002a76200029e826200027a565b848454620001e8565b825550505050565b600090565b620002be620002af565b620002cb81848462000284565b505050565b5b81811015620002f357620002e7600082620002b4565b600181019050620002d1565b5050565b601f82111562000342576200030c81620001b6565b6200031784620001cb565b8101602085101562000327578190505b6200033f6200033685620001cb565b830182620002d0565b50505b505050565b600082821c905092915050565b6000620003676000198460080262000347565b1980831691505092915050565b600062000382838362000354565b9150826002028217905092915050565b6200039d8262000118565b67ffffffffffffffff811115620003b957620003b862000123565b5b620003c5825462000181565b620003d2828285620002f7565b600060209050601f8311600181146200040a5760008415620003f5578287015190505b62000401858262000374565b86555062000471565b601f1984166200041a86620001b6565b60005b8281101562000444578489015182556001820191506020850194506020810190506200041d565b8683101562000464578489015162000460601f89168262000354565b8355505b6001600288020188555050505b505050505050565b600080fd5b600073ffffffffffffffffffffffffffffffffffffffff82169050919050565b6000620004ab826200047e565b9050919050565b620004bd816200049e565b8114620004c957600080fd5b50565b600081519050620004dd81620004b2565b92915050565b600060208284031215620004fc57620004fb62000479565b5b60006200050c84828501620004cc565b91505092915050565b61560780620005256000396000f3fe6080604052600436106101385760003560e01c80635fe34985116100ab578063b9414d311161006f578063b9414d3114610490578063bd85b039146104d7578063e985e9c514610514578063eea7eaf614610551578063f242432a1461056d578063fad00ac2146105965761013f565b80635fe34985146103bd5780637c76c232146103e85780637d048509146103ff578063a22cb4651461043c578063b4a99a4e146104655761013f565b80632b9c2760116100fd5780632b9c2760146102755780632eb2c2d6146102b257806342acaa66146102db5780634e1273f4146103185780634f558e79146103555780635565f660146103925761013f565b8062fdd58e1461014457806301ffc9a7146101815780630b6af60b146101be5780630e89341c146101fb5780632423c95c146102385761013f565b3661013f57005b600080fd5b34801561015057600080fd5b5061016b60048036038101906101669190613377565b6105b2565b60405161017891906133c6565b60405180910390f35b34801561018d57600080fd5b506101a860048036038101906101a39190613439565b61067a565b6040516101b59190613481565b60405180910390f35b3480156101ca57600080fd5b506101e560048036038101906101e09190613377565b61075c565b6040516101f291906133c6565b60405180910390f35b34801561020757600080fd5b50610222600480360381019061021d919061349c565b61078d565b60405161022f9190613559565b60405180910390f35b34801561024457600080fd5b5061025f600480360381019061025a919061357b565b61079f565b60405161026c9190613666565b60405180910390f35b34801561028157600080fd5b5061029c6004803603810190610297919061349c565b610836565b6040516102a991906133c6565b60405180910390f35b3480156102be57600080fd5b506102d960048036038101906102d49190613885565b61084e565b005b3480156102e757600080fd5b5061030260048036038101906102fd919061349c565b6108ef565b60405161030f9190613b16565b60405180910390f35b34801561032457600080fd5b5061033f600480360381019061033a9190613bfb565b610cd4565b60405161034c9190613666565b60405180910390f35b34801561036157600080fd5b5061037c6004803603810190610377919061349c565b610ded565b6040516103899190613481565b60405180910390f35b34801561039e57600080fd5b506103a7610e01565b6040516103b49190613e39565b60405180910390f35b3480156103c957600080fd5b506103d2610fa9565b6040516103df91906133c6565b60405180910390f35b3480156103f457600080fd5b506103fd610fba565b005b34801561040b57600080fd5b5061042660048036038101906104219190613efc565b61140c565b60405161043391906133c6565b60405180910390f35b34801561044857600080fd5b50610463600480360381019061045e9190613fd1565b61168e565b005b34801561047157600080fd5b5061047a6116a4565b6040516104879190614020565b60405180910390f35b34801561049c57600080fd5b506104b760048036038101906104b2919061349c565b6116ca565b6040516104ce9b9a9998979695949392919061403b565b60405180910390f35b3480156104e357600080fd5b506104fe60048036038101906104f9919061349c565b611754565b60405161050b91906133c6565b60405180910390f35b34801561052057600080fd5b5061053b600480360381019061053691906140e6565b611771565b6040516105489190613481565b60405180910390f35b61056b6004803603810190610566919061349c565b611805565b005b34801561057957600080fd5b50610594600480360381019061058f9190614126565b611bd4565b005b6105b060048036038101906105ab919061349c565b611c75565b005b60008073ffffffffffffffffffffffffffffffffffffffff168373ffffffffffffffffffffffffffffffffffffffff1603610622576040517f08c379a00000000000000000000000000000000000000000000000000000000081526004016106199061422f565b60405180910390fd5b60008083815260200190815260200160002060008473ffffffffffffffffffffffffffffffffffffffff1673ffffffffffffffffffffffffffffffffffffffff16815260200190815260200160002054905092915050565b60007fd9b67a26000000000000000000000000000000000000000000000000000000007bffffffffffffffffffffffffffffffffffffffffffffffffffffffff1916827bffffffffffffffffffffffffffffffffffffffffffffffffffffffff1916148061074557507f0e89341c000000000000000000000000000000000000000000000000000000007bffffffffffffffffffffffffffffffffffffffffffffffffffffffff1916827bffffffffffffffffffffffffffffffffffffffffffffffffffffffff1916145b806107555750610754826120cb565b5b9050919050565b6009602052816000526040600020818154811061077857600080fd5b90600052602060002001600091509150505481565b606061079882612135565b9050919050565b6060600960008373ffffffffffffffffffffffffffffffffffffffff1673ffffffffffffffffffffffffffffffffffffffff16815260200190815260200160002080548060200260200160405190810160405280929190818152602001828054801561082a57602002820191906000526020600020905b815481526020019060010190808311610816575b50505050509050919050565b600b6020528060005260406000206000915090505481565b61085661221a565b73ffffffffffffffffffffffffffffffffffffffff168573ffffffffffffffffffffffffffffffffffffffff16148061089c575061089b8561089661221a565b611771565b5b6108db576040517f08c379a00000000000000000000000000000000000000000000000000000000081526004016108d2906142c1565b60405180910390fd5b6108e88585858585612222565b5050505050565b6108f7613258565b60006002836109069190614310565b14610ae35761091482610ded565b610953576040517f08c379a000000000000000000000000000000000000000000000000000000000815260040161094a9061438d565b60405180910390fd5b600a600b6000848152602001908152602001600020548154811061097a576109796143ad565b5b90600052602060002090600c0201604051806101800160405290816000820160009054906101000a900473ffffffffffffffffffffffffffffffffffffffff1673ffffffffffffffffffffffffffffffffffffffff1673ffffffffffffffffffffffffffffffffffffffff168152602001600182015481526020016002820154815260200160038201548152602001600482015481526020016005820154815260200160068201548152602001600782015481526020016008820154815260200160098201548152602001600a8201548152602001600b8201805480602002602001604051908101604052809291908181526020018280548015610ad357602002820191906000526020600020905b8160009054906101000a900473ffffffffffffffffffffffffffffffffffffffff1673ffffffffffffffffffffffffffffffffffffffff1681526020019060010190808311610a89575b5050505050815250509050610ccf565b610af8600183610af3919061440b565b610ded565b610b37576040517f08c379a0000000000000000000000000000000000000000000000000000000008152600401610b2e9061438d565b60405180910390fd5b600a600b6000600185610b4a919061440b565b81526020019081526020016000205481548110610b6a57610b696143ad565b5b90600052602060002090600c0201604051806101800160405290816000820160009054906101000a900473ffffffffffffffffffffffffffffffffffffffff1673ffffffffffffffffffffffffffffffffffffffff1673ffffffffffffffffffffffffffffffffffffffff168152602001600182015481526020016002820154815260200160038201548152602001600482015481526020016005820154815260200160068201548152602001600782015481526020016008820154815260200160098201548152602001600a8201548152602001600b8201805480602002602001604051908101604052809291908181526020018280548015610cc357602002820191906000526020600020905b8160009054906101000a900473ffffffffffffffffffffffffffffffffffffffff1673ffffffffffffffffffffffffffffffffffffffff1681526020019060010190808311610c79575b50505050508152505090505b919050565b60608151835114610d1a576040517f08c379a0000000000000000000000000000000000000000000000000000000008152600401610d11906144b1565b60405180910390fd5b6000835167ffffffffffffffff811115610d3757610d3661368d565b5b604051908082528060200260200182016040528015610d655781602001602082028036833780820191505090505b50905060005b8451811015610de257610db2858281518110610d8a57610d896143ad565b5b6020026020010151858381518110610da557610da46143ad565b5b60200260200101516105b2565b828281518110610dc557610dc46143ad565b5b60200260200101818152505080610ddb906144d1565b9050610d6b565b508091505092915050565b600080610df983611754565b119050919050565b6060600a805480602002602001604051908101604052809291908181526020016000905b82821015610fa057838290600052602060002090600c0201604051806101800160405290816000820160009054906101000a900473ffffffffffffffffffffffffffffffffffffffff1673ffffffffffffffffffffffffffffffffffffffff1673ffffffffffffffffffffffffffffffffffffffff168152602001600182015481526020016002820154815260200160038201548152602001600482015481526020016005820154815260200160068201548152602001600782015481526020016008820154815260200160098201548152602001600a8201548152602001600b8201805480602002602001604051908101604052809291908181526020018280548015610f8857602002820191906000526020600020905b8160009054906101000a900473ffffffffffffffffffffffffffffffffffffffff1673ffffffffffffffffffffffffffffffffffffffff1681526020019060010190808311610f3e575b50505050508152505081526020019060010190610e25565b50505050905090565b6000610fb56006612543565b905090565b60005b600a8054905081101561133a576000600a8281548110610fe057610fdf6143ad565b5b90600052602060002090600c0201905060008160090154606483600701546110089190614519565b611012919061454a565b90506000818360070154611026919061440b565b905060008360090154606485600801546110409190614519565b61104a919061454a565b9050600081856008015461105e919061440b565b9050600085600b018054806020026020016040519081016040528092919081815260200182805480156110e657602002820191906000526020600020905b8160009054906101000a900473ffffffffffffffffffffffffffffffffffffffff1673ffffffffffffffffffffffffffffffffffffffff168152602001906001019080831161109c575b505050505090506000866003015487600a01546064896007015461110a9190614519565b611114919061454a565b61111e9190614519565b9050600082518261112f919061454a565b90506000818588611140919061458c565b61114a919061440b565b9050600089600701819055506000896008018190555060008960000160009054906101000a900473ffffffffffffffffffffffffffffffffffffffff1673ffffffffffffffffffffffffffffffffffffffff16826040516111aa906145f1565b60006040518083038185875af1925050503d80600081146111e7576040519150601f19603f3d011682016040523d82523d6000602084013e6111ec565b606091505b5050905080611230576040517f08c379a000000000000000000000000000000000000000000000000000000000815260040161122790614678565b60405180910390fd5b60005b855181101561131c576000868d81518110611251576112506143ad565b5b6020026020010151905060008173ffffffffffffffffffffffffffffffffffffffff1687604051611281906145f1565b60006040518083038185875af1925050503d80600081146112be576040519150601f19603f3d011682016040523d82523d6000602084013e6112c3565b606091505b5050905080611307576040517f08c379a00000000000000000000000000000000000000000000000000000000081526004016112fe9061470a565b60405180910390fd5b50508080611314906144d1565b915050611233565b50505050505050505050508080611332906144d1565b915050610fbd565b506000600860009054906101000a900473ffffffffffffffffffffffffffffffffffffffff1673ffffffffffffffffffffffffffffffffffffffff1647604051611383906145f1565b60006040518083038185875af1925050503d80600081146113c0576040519150601f19603f3d011682016040523d82523d6000602084013e6113c5565b606091505b5050905080611409576040517f08c379a00000000000000000000000000000000000000000000000000000000081526004016114009061479c565b60405180910390fd5b50565b6000808711611450576040517f08c379a00000000000000000000000000000000000000000000000000000000081526004016114479061482e565b60405180910390fd5b61145a6006612551565b6114646006612543565b90506114893382670de0b6b3a764000060405180602001604052806000815250612567565b6114938185612717565b6000600a6001816001815401808255809150500390600052602060002090600c02019050338160000160006101000a81548173ffffffffffffffffffffffffffffffffffffffff021916908373ffffffffffffffffffffffffffffffffffffffff1602179055508181600101819055508781600301819055508681600501819055508581600601819055508381600901819055508281600a018190555061153a6006612551565b60006115466006612543565b905061156333828b60405180602001604052806000815250612567565b61156d8187612717565b8082600201819055506115a233600760009054906101000a900473ffffffffffffffffffffffffffffffffffffffff16611771565b6115d4576115d3600760009054906101000a900473ffffffffffffffffffffffffffffffffffffffff16600161168e565b5b6001600a805490506115e6919061440b565b600b6000858152602001908152602001600020819055507fe44a95d90db666eec698ee335d929af1295456ef22acf300487f3b13cee736f1826001015483600201548460000160009054906101000a900473ffffffffffffffffffffffffffffffffffffffff16856003015486600501548760060154886009015489600a015460405161167a98979695949392919061484e565b60405180910390a150509695505050505050565b6116a061169961221a565b838361277c565b5050565b600860009054906101000a900473ffffffffffffffffffffffffffffffffffffffff1681565b600a81815481106116da57600080fd5b90600052602060002090600c02016000915090508060000160009054906101000a900473ffffffffffffffffffffffffffffffffffffffff169080600101549080600201549080600301549080600401549080600501549080600601549080600701549080600801549080600901549080600a015490508b565b600060056000838152602001908152602001600020549050919050565b6000600160008473ffffffffffffffffffffffffffffffffffffffff1673ffffffffffffffffffffffffffffffffffffffff16815260200190815260200160002060008373ffffffffffffffffffffffffffffffffffffffff1673ffffffffffffffffffffffffffffffffffffffff16815260200190815260200160002060009054906101000a900460ff16905092915050565b6000806002836118159190614310565b1461189e5761182382610ded565b611862576040517f08c379a00000000000000000000000000000000000000000000000000000000081526004016118599061438d565b60405180910390fd5b600a600b60008481526020019081526020016000205481548110611889576118886143ad565b5b90600052602060002090600c02019050611936565b6118b36001836118ae919061440b565b610ded565b6118f2576040517f08c379a00000000000000000000000000000000000000000000000000000000081526004016118e99061438d565b60405180910390fd5b600a600b6000600185611905919061440b565b81526020019081526020016000205481548110611925576119246143ad565b5b90600052602060002090600c020190505b6119438160010154610ded565b611982576040517f08c379a00000000000000000000000000000000000000000000000000000000081526004016119799061493e565b60405180910390fd5b80600501543410156119c9576040517f08c379a00000000000000000000000000000000000000000000000000000000081526004016119c0906149aa565b60405180910390fd5b3373ffffffffffffffffffffffffffffffffffffffff168160000160009054906101000a900473ffffffffffffffffffffffffffffffffffffffff1673ffffffffffffffffffffffffffffffffffffffff1603611a5b576040517f08c379a0000000000000000000000000000000000000000000000000000000008152600401611a5290614a16565b60405180910390fd5b34816007016000828254611a6f919061458c565b92505081905550600760009054906101000a900473ffffffffffffffffffffffffffffffffffffffff1673ffffffffffffffffffffffffffffffffffffffff166313f2da7b8260010154308460000160009054906101000a900473ffffffffffffffffffffffffffffffffffffffff16336040518563ffffffff1660e01b8152600401611aff9493929190614a57565b600060405180830381600087803b158015611b1957600080fd5b505af1158015611b2d573d6000803e3d6000fd5b50505050600960003373ffffffffffffffffffffffffffffffffffffffff1673ffffffffffffffffffffffffffffffffffffffff1681526020019081526020016000208290806001815401808255809150506001900390600052602060002001600090919091909150557f04d30d6ef2c1b6dc4fb27350a8a71229ea6d6a3220be9db153486f9bbda5e6ec8233604051611bc8929190614a9c565b60405180910390a15050565b611bdc61221a565b73ffffffffffffffffffffffffffffffffffffffff168573ffffffffffffffffffffffffffffffffffffffff161480611c225750611c2185611c1c61221a565b611771565b5b611c61576040517f08c379a0000000000000000000000000000000000000000000000000000000008152600401611c58906142c1565b60405180910390fd5b611c6e85858585856128e8565b5050505050565b600080600283611c859190614310565b14611d0e57611c9382610ded565b611cd2576040517f08c379a0000000000000000000000000000000000000000000000000000000008152600401611cc99061438d565b60405180910390fd5b600a600b60008481526020019081526020016000205481548110611cf957611cf86143ad565b5b90600052602060002090600c02019050611da6565b611d23600183611d1e919061440b565b610ded565b611d62576040517f08c379a0000000000000000000000000000000000000000000000000000000008152600401611d599061438d565b60405180910390fd5b600a600b6000600185611d75919061440b565b81526020019081526020016000205481548110611d9557611d946143ad565b5b90600052602060002090600c020190505b8060030154816004015410611df0576040517f08c379a0000000000000000000000000000000000000000000000000000000008152600401611de790614ae8565b60405180910390fd5b8060060154341015611e37576040517f08c379a0000000000000000000000000000000000000000000000000000000008152600401611e2e906149aa565b60405180910390fd5b3373ffffffffffffffffffffffffffffffffffffffff168160000160009054906101000a900473ffffffffffffffffffffffffffffffffffffffff1673ffffffffffffffffffffffffffffffffffffffff1603611ec9576040517f08c379a0000000000000000000000000000000000000000000000000000000008152600401611ec090614a16565b60405180910390fd5b6001816004016000828254611ede919061458c565b9250508190555034816008016000828254611ef9919061458c565b9250508190555080600b01339080600181540180825580915050600190039060005260206000200160009091909190916101000a81548173ffffffffffffffffffffffffffffffffffffffff021916908373ffffffffffffffffffffffffffffffffffffffff160217905550600760009054906101000a900473ffffffffffffffffffffffffffffffffffffffff1673ffffffffffffffffffffffffffffffffffffffff166313f2da7b8260020154308460000160009054906101000a900473ffffffffffffffffffffffffffffffffffffffff16336040518563ffffffff1660e01b8152600401611fee9493929190614a57565b600060405180830381600087803b15801561200857600080fd5b505af115801561201c573d6000803e3d6000fd5b50505050600960003373ffffffffffffffffffffffffffffffffffffffff1673ffffffffffffffffffffffffffffffffffffffff168152602001908152602001600020816002015490806001815401808255809150506001900390600052602060002001600090919091909150557f535d4bf1d4fd06876e3bed38c167c7631c9c1c0f1bab9b408655c7a724e4b2f78160020154336040516120bf929190614a9c565b60405180910390a15050565b60007f01ffc9a7000000000000000000000000000000000000000000000000000000007bffffffffffffffffffffffffffffffffffffffffffffffffffffffff1916827bffffffffffffffffffffffffffffffffffffffffffffffffffffffff1916149050919050565b6060600060046000848152602001908152602001600020805461215790614b37565b80601f016020809104026020016040519081016040528092919081815260200182805461218390614b37565b80156121d05780601f106121a5576101008083540402835291602001916121d0565b820191906000526020600020905b8154815290600101906020018083116121b357829003601f168201915b5050505050905060008151116121ee576121e983612b83565b612212565b600381604051602001612202929190614c3c565b6040516020818303038152906040525b915050919050565b600033905090565b8151835114612266576040517f08c379a000000000000000000000000000000000000000000000000000000000815260040161225d90614cd2565b60405180910390fd5b600073ffffffffffffffffffffffffffffffffffffffff168473ffffffffffffffffffffffffffffffffffffffff16036122d5576040517f08c379a00000000000000000000000000000000000000000000000000000000081526004016122cc90614d64565b60405180910390fd5b60006122df61221a565b90506122ef818787878787612c17565b60005b84518110156124a05760008582815181106123105761230f6143ad565b5b60200260200101519050600085838151811061232f5761232e6143ad565b5b60200260200101519050600080600084815260200190815260200160002060008b73ffffffffffffffffffffffffffffffffffffffff1673ffffffffffffffffffffffffffffffffffffffff168152602001908152602001600020549050818110156123d0576040517f08c379a00000000000000000000000000000000000000000000000000000000081526004016123c790614df6565b60405180910390fd5b81810360008085815260200190815260200160002060008c73ffffffffffffffffffffffffffffffffffffffff1673ffffffffffffffffffffffffffffffffffffffff168152602001908152602001600020819055508160008085815260200190815260200160002060008b73ffffffffffffffffffffffffffffffffffffffff1673ffffffffffffffffffffffffffffffffffffffff1681526020019081526020016000206000828254612485919061458c565b9250508190555050505080612499906144d1565b90506122f2565b508473ffffffffffffffffffffffffffffffffffffffff168673ffffffffffffffffffffffffffffffffffffffff168273ffffffffffffffffffffffffffffffffffffffff167f4a39dc06d4c0dbc64b70af90fd698a233a518aa5d07e595d983b8c0526c8f7fb8787604051612517929190614e16565b60405180910390a461252d818787878787612c2d565b61253b818787878787612c35565b505050505050565b600081600001549050919050565b6001816000016000828254019250508190555050565b600073ffffffffffffffffffffffffffffffffffffffff168473ffffffffffffffffffffffffffffffffffffffff16036125d6576040517f08c379a00000000000000000000000000000000000000000000000000000000081526004016125cd90614ebf565b60405180910390fd5b60006125e061221a565b905060006125ed85612e0c565b905060006125fa85612e0c565b905061260b83600089858589612c17565b8460008088815260200190815260200160002060008973ffffffffffffffffffffffffffffffffffffffff1673ffffffffffffffffffffffffffffffffffffffff168152602001908152602001600020600082825461266a919061458c565b925050819055508673ffffffffffffffffffffffffffffffffffffffff16600073ffffffffffffffffffffffffffffffffffffffff168473ffffffffffffffffffffffffffffffffffffffff167fc3d58168c5ae7397731d063d5bbf3d657854427343f4c083240f7aacaa2d0f6289896040516126e8929190614edf565b60405180910390a46126ff83600089858589612c2d565b61270e83600089898989612e86565b50505050505050565b80600460008481526020019081526020016000209081612737919061509f565b50817f6bb7ff708619ba0610cba295a58592e0451dee2622938c8755667688daf3529b6127638461078d565b6040516127709190613559565b60405180910390a25050565b8173ffffffffffffffffffffffffffffffffffffffff168373ffffffffffffffffffffffffffffffffffffffff16036127ea576040517f08c379a00000000000000000000000000000000000000000000000000000000081526004016127e1906151e3565b60405180910390fd5b80600160008573ffffffffffffffffffffffffffffffffffffffff1673ffffffffffffffffffffffffffffffffffffffff16815260200190815260200160002060008473ffffffffffffffffffffffffffffffffffffffff1673ffffffffffffffffffffffffffffffffffffffff16815260200190815260200160002060006101000a81548160ff0219169083151502179055508173ffffffffffffffffffffffffffffffffffffffff168373ffffffffffffffffffffffffffffffffffffffff167f17307eab39ab6107e8899845ad3d59bd9653f200f220920489ca2b5937696c31836040516128db9190613481565b60405180910390a3505050565b600073ffffffffffffffffffffffffffffffffffffffff168473ffffffffffffffffffffffffffffffffffffffff1603612957576040517f08c379a000000000000000000000000000000000000000000000000000000000815260040161294e90614d64565b60405180910390fd5b600061296161221a565b9050600061296e85612e0c565b9050600061297b85612e0c565b905061298b838989858589612c17565b600080600088815260200190815260200160002060008a73ffffffffffffffffffffffffffffffffffffffff1673ffffffffffffffffffffffffffffffffffffffff16815260200190815260200160002054905085811015612a22576040517f08c379a0000000000000000000000000000000000000000000000000000000008152600401612a1990614df6565b60405180910390fd5b85810360008089815260200190815260200160002060008b73ffffffffffffffffffffffffffffffffffffffff1673ffffffffffffffffffffffffffffffffffffffff168152602001908152602001600020819055508560008089815260200190815260200160002060008a73ffffffffffffffffffffffffffffffffffffffff1673ffffffffffffffffffffffffffffffffffffffff1681526020019081526020016000206000828254612ad7919061458c565b925050819055508773ffffffffffffffffffffffffffffffffffffffff168973ffffffffffffffffffffffffffffffffffffffff168573ffffffffffffffffffffffffffffffffffffffff167fc3d58168c5ae7397731d063d5bbf3d657854427343f4c083240f7aacaa2d0f628a8a604051612b54929190614edf565b60405180910390a4612b6a848a8a86868a612c2d565b612b78848a8a8a8a8a612e86565b505050505050505050565b606060028054612b9290614b37565b80601f0160208091040260200160405190810160405280929190818152602001828054612bbe90614b37565b8015612c0b5780601f10612be057610100808354040283529160200191612c0b565b820191906000526020600020905b815481529060010190602001808311612bee57829003601f168201915b50505050509050919050565b612c2586868686868661305d565b505050505050565b505050505050565b612c548473ffffffffffffffffffffffffffffffffffffffff1661322d565b15612e04578373ffffffffffffffffffffffffffffffffffffffff1663bc197c8187878686866040518663ffffffff1660e01b8152600401612c9a959493929190615258565b6020604051808303816000875af1925050508015612cd657506040513d601f19601f82011682018060405250810190612cd391906152d5565b60015b612d7b57612ce261530f565b806308c379a003612d3e5750612cf6615331565b80612d015750612d40565b806040517f08c379a0000000000000000000000000000000000000000000000000000000008152600401612d359190613559565b60405180910390fd5b505b6040517f08c379a0000000000000000000000000000000000000000000000000000000008152600401612d7290615433565b60405180910390fd5b63bc197c8160e01b7bffffffffffffffffffffffffffffffffffffffffffffffffffffffff1916817bffffffffffffffffffffffffffffffffffffffffffffffffffffffff191614612e02576040517f08c379a0000000000000000000000000000000000000000000000000000000008152600401612df9906154c5565b60405180910390fd5b505b505050505050565b60606000600167ffffffffffffffff811115612e2b57612e2a61368d565b5b604051908082528060200260200182016040528015612e595781602001602082028036833780820191505090505b5090508281600081518110612e7157612e706143ad565b5b60200260200101818152505080915050919050565b612ea58473ffffffffffffffffffffffffffffffffffffffff1661322d565b15613055578373ffffffffffffffffffffffffffffffffffffffff1663f23a6e6187878686866040518663ffffffff1660e01b8152600401612eeb9594939291906154e5565b6020604051808303816000875af1925050508015612f2757506040513d601f19601f82011682018060405250810190612f2491906152d5565b60015b612fcc57612f3361530f565b806308c379a003612f8f5750612f47615331565b80612f525750612f91565b806040517f08c379a0000000000000000000000000000000000000000000000000000000008152600401612f869190613559565b60405180910390fd5b505b6040517f08c379a0000000000000000000000000000000000000000000000000000000008152600401612fc390615433565b60405180910390fd5b63f23a6e6160e01b7bffffffffffffffffffffffffffffffffffffffffffffffffffffffff1916817bffffffffffffffffffffffffffffffffffffffffffffffffffffffff191614613053576040517f08c379a000000000000000000000000000000000000000000000000000000000815260040161304a906154c5565b60405180910390fd5b505b505050505050565b61306b868686868686613250565b600073ffffffffffffffffffffffffffffffffffffffff168573ffffffffffffffffffffffffffffffffffffffff160361311c5760005b835181101561311a578281815181106130be576130bd6143ad565b5b6020026020010151600560008684815181106130dd576130dc6143ad565b5b602002602001015181526020019081526020016000206000828254613102919061458c565b9250508190555080613113906144d1565b90506130a2565b505b600073ffffffffffffffffffffffffffffffffffffffff168473ffffffffffffffffffffffffffffffffffffffff16036132255760005b8351811015613223576000848281518110613171576131706143ad565b5b6020026020010151905060008483815181106131905761318f6143ad565b5b60200260200101519050600060056000848152602001908152602001600020549050818110156131f5576040517f08c379a00000000000000000000000000000000000000000000000000000000081526004016131ec906155b1565b60405180910390fd5b81810360056000858152602001908152602001600020819055505050508061321c906144d1565b9050613153565b505b505050505050565b6000808273ffffffffffffffffffffffffffffffffffffffff163b119050919050565b505050505050565b604051806101800160405280600073ffffffffffffffffffffffffffffffffffffffff16815260200160008152602001600081526020016000815260200160008152602001600081526020016000815260200160008152602001600081526020016000815260200160008152602001606081525090565b6000604051905090565b600080fd5b600080fd5b600073ffffffffffffffffffffffffffffffffffffffff82169050919050565b600061330e826132e3565b9050919050565b61331e81613303565b811461332957600080fd5b50565b60008135905061333b81613315565b92915050565b6000819050919050565b61335481613341565b811461335f57600080fd5b50565b6000813590506133718161334b565b92915050565b6000806040838503121561338e5761338d6132d9565b5b600061339c8582860161332c565b92505060206133ad85828601613362565b9150509250929050565b6133c081613341565b82525050565b60006020820190506133db60008301846133b7565b92915050565b60007fffffffff0000000000000000000000000000000000000000000000000000000082169050919050565b613416816133e1565b811461342157600080fd5b50565b6000813590506134338161340d565b92915050565b60006020828403121561344f5761344e6132d9565b5b600061345d84828501613424565b91505092915050565b60008115159050919050565b61347b81613466565b82525050565b60006020820190506134966000830184613472565b92915050565b6000602082840312156134b2576134b16132d9565b5b60006134c084828501613362565b91505092915050565b600081519050919050565b600082825260208201905092915050565b60005b838110156135035780820151818401526020810190506134e8565b60008484015250505050565b6000601f19601f8301169050919050565b600061352b826134c9565b61353581856134d4565b93506135458185602086016134e5565b61354e8161350f565b840191505092915050565b600060208201905081810360008301526135738184613520565b905092915050565b600060208284031215613591576135906132d9565b5b600061359f8482850161332c565b91505092915050565b600081519050919050565b600082825260208201905092915050565b6000819050602082019050919050565b6135dd81613341565b82525050565b60006135ef83836135d4565b60208301905092915050565b6000602082019050919050565b6000613613826135a8565b61361d81856135b3565b9350613628836135c4565b8060005b8381101561365957815161364088826135e3565b975061364b836135fb565b92505060018101905061362c565b5085935050505092915050565b600060208201905081810360008301526136808184613608565b905092915050565b600080fd5b7f4e487b7100000000000000000000000000000000000000000000000000000000600052604160045260246000fd5b6136c58261350f565b810181811067ffffffffffffffff821117156136e4576136e361368d565b5b80604052505050565b60006136f76132cf565b905061370382826136bc565b919050565b600067ffffffffffffffff8211156137235761372261368d565b5b602082029050602081019050919050565b600080fd5b600061374c61374784613708565b6136ed565b9050808382526020820190506020840283018581111561376f5761376e613734565b5b835b8181101561379857806137848882613362565b845260208401935050602081019050613771565b5050509392505050565b600082601f8301126137b7576137b6613688565b5b81356137c7848260208601613739565b91505092915050565b600080fd5b600067ffffffffffffffff8211156137f0576137ef61368d565b5b6137f98261350f565b9050602081019050919050565b82818337600083830152505050565b6000613828613823846137d5565b6136ed565b905082815260208101848484011115613844576138436137d0565b5b61384f848285613806565b509392505050565b600082601f83011261386c5761386b613688565b5b813561387c848260208601613815565b91505092915050565b600080600080600060a086880312156138a1576138a06132d9565b5b60006138af8882890161332c565b95505060206138c08882890161332c565b945050604086013567ffffffffffffffff8111156138e1576138e06132de565b5b6138ed888289016137a2565b935050606086013567ffffffffffffffff81111561390e5761390d6132de565b5b61391a888289016137a2565b925050608086013567ffffffffffffffff81111561393b5761393a6132de565b5b61394788828901613857565b9150509295509295909350565b61395d81613303565b82525050565b600081519050919050565b600082825260208201905092915050565b6000819050602082019050919050565b600061399b8383613954565b60208301905092915050565b6000602082019050919050565b60006139bf82613963565b6139c9818561396e565b93506139d48361397f565b8060005b83811015613a055781516139ec888261398f565b97506139f7836139a7565b9250506001810190506139d8565b5085935050505092915050565b600061018083016000830151613a2b6000860182613954565b506020830151613a3e60208601826135d4565b506040830151613a5160408601826135d4565b506060830151613a6460608601826135d4565b506080830151613a7760808601826135d4565b5060a0830151613a8a60a08601826135d4565b5060c0830151613a9d60c08601826135d4565b5060e0830151613ab060e08601826135d4565b50610100830151613ac56101008601826135d4565b50610120830151613ada6101208601826135d4565b50610140830151613aef6101408601826135d4565b50610160830151848203610160860152613b0982826139b4565b9150508091505092915050565b60006020820190508181036000830152613b308184613a12565b905092915050565b600067ffffffffffffffff821115613b5357613b5261368d565b5b602082029050602081019050919050565b6000613b77613b7284613b38565b6136ed565b90508083825260208201905060208402830185811115613b9a57613b99613734565b5b835b81811015613bc35780613baf888261332c565b845260208401935050602081019050613b9c565b5050509392505050565b600082601f830112613be257613be1613688565b5b8135613bf2848260208601613b64565b91505092915050565b60008060408385031215613c1257613c116132d9565b5b600083013567ffffffffffffffff811115613c3057613c2f6132de565b5b613c3c85828601613bcd565b925050602083013567ffffffffffffffff811115613c5d57613c5c6132de565b5b613c69858286016137a2565b9150509250929050565b600081519050919050565b600082825260208201905092915050565b6000819050602082019050919050565b600061018083016000830151613cb86000860182613954565b506020830151613ccb60208601826135d4565b506040830151613cde60408601826135d4565b506060830151613cf160608601826135d4565b506080830151613d0460808601826135d4565b5060a0830151613d1760a08601826135d4565b5060c0830151613d2a60c08601826135d4565b5060e0830151613d3d60e08601826135d4565b50610100830151613d526101008601826135d4565b50610120830151613d676101208601826135d4565b50610140830151613d7c6101408601826135d4565b50610160830151848203610160860152613d9682826139b4565b9150508091505092915050565b6000613daf8383613c9f565b905092915050565b6000602082019050919050565b6000613dcf82613c73565b613dd98185613c7e565b935083602082028501613deb85613c8f565b8060005b85811015613e275784840389528151613e088582613da3565b9450613e1383613db7565b925060208a01995050600181019050613def565b50829750879550505050505092915050565b60006020820190508181036000830152613e538184613dc4565b905092915050565b600067ffffffffffffffff821115613e7657613e7561368d565b5b613e7f8261350f565b9050602081019050919050565b6000613e9f613e9a84613e5b565b6136ed565b905082815260208101848484011115613ebb57613eba6137d0565b5b613ec6848285613806565b509392505050565b600082601f830112613ee357613ee2613688565b5b8135613ef3848260208601613e8c565b91505092915050565b60008060008060008060c08789031215613f1957613f186132d9565b5b6000613f2789828a01613362565b9650506020613f3889828a01613362565b9550506040613f4989828a01613362565b945050606087013567ffffffffffffffff811115613f6a57613f696132de565b5b613f7689828a01613ece565b9350506080613f8789828a01613362565b92505060a0613f9889828a01613362565b9150509295509295509295565b613fae81613466565b8114613fb957600080fd5b50565b600081359050613fcb81613fa5565b92915050565b60008060408385031215613fe857613fe76132d9565b5b6000613ff68582860161332c565b925050602061400785828601613fbc565b9150509250929050565b61401a81613303565b82525050565b60006020820190506140356000830184614011565b92915050565b600061016082019050614051600083018e614011565b61405e602083018d6133b7565b61406b604083018c6133b7565b614078606083018b6133b7565b614085608083018a6133b7565b61409260a08301896133b7565b61409f60c08301886133b7565b6140ac60e08301876133b7565b6140ba6101008301866133b7565b6140c86101208301856133b7565b6140d66101408301846133b7565b9c9b505050505050505050505050565b600080604083850312156140fd576140fc6132d9565b5b600061410b8582860161332c565b925050602061411c8582860161332c565b9150509250929050565b600080600080600060a08688031215614142576141416132d9565b5b60006141508882890161332c565b95505060206141618882890161332c565b945050604061417288828901613362565b935050606061418388828901613362565b925050608086013567ffffffffffffffff8111156141a4576141a36132de565b5b6141b088828901613857565b9150509295509295909350565b7f455243313135353a2061646472657373207a65726f206973206e6f742061207660008201527f616c6964206f776e657200000000000000000000000000000000000000000000602082015250565b6000614219602a836134d4565b9150614224826141bd565b604082019050919050565b600060208201905081810360008301526142488161420c565b9050919050565b7f455243313135353a2063616c6c6572206973206e6f7420746f6b656e206f776e60008201527f6572206f7220617070726f766564000000000000000000000000000000000000602082015250565b60006142ab602e836134d4565b91506142b68261424f565b604082019050919050565b600060208201905081810360008301526142da8161429e565b9050919050565b7f4e487b7100000000000000000000000000000000000000000000000000000000600052601260045260246000fd5b600061431b82613341565b915061432683613341565b925082614336576143356142e1565b5b828206905092915050565b7f74686520736f6e6720646f65736e277420657869737473000000000000000000600082015250565b60006143776017836134d4565b915061438282614341565b602082019050919050565b600060208201905081810360008301526143a68161436a565b9050919050565b7f4e487b7100000000000000000000000000000000000000000000000000000000600052603260045260246000fd5b7f4e487b7100000000000000000000000000000000000000000000000000000000600052601160045260246000fd5b600061441682613341565b915061442183613341565b9250828203905081811115614439576144386143dc565b5b92915050565b7f455243313135353a206163636f756e747320616e6420696473206c656e67746860008201527f206d69736d617463680000000000000000000000000000000000000000000000602082015250565b600061449b6029836134d4565b91506144a68261443f565b604082019050919050565b600060208201905081810360008301526144ca8161448e565b9050919050565b60006144dc82613341565b91507fffffffffffffffffffffffffffffffffffffffffffffffffffffffffffffffff820361450e5761450d6143dc565b5b600182019050919050565b600061452482613341565b915061452f83613341565b92508261453f5761453e6142e1565b5b828204905092915050565b600061455582613341565b915061456083613341565b925082820261456e81613341565b91508282048414831517614585576145846143dc565b5b5092915050565b600061459782613341565b91506145a283613341565b92508282019050808211156145ba576145b96143dc565b5b92915050565b600081905092915050565b50565b60006145db6000836145c0565b91506145e6826145cb565b600082019050919050565b60006145fc826145ce565b9150819050919050565b7f6661696c656420746f2064697372696275746520726f79616c6974696573207460008201527f6f20746865206172746973740000000000000000000000000000000000000000602082015250565b6000614662602c836134d4565b915061466d82614606565b604082019050919050565b6000602082019050818103600083015261469181614655565b9050919050565b7f6661696c656420746f2064697372696275746520726f79616c6974696573207460008201527f6f2074686520737570657266616e000000000000000000000000000000000000602082015250565b60006146f4602e836134d4565b91506146ff82614698565b604082019050919050565b60006020820190508181036000830152614723816146e7565b9050919050565b7f6661696c656420746f2064697372696275746520726f79616c6974696573207460008201527f6f2074686520706c61666f726d204f776e657200000000000000000000000000602082015250565b60006147866033836134d4565b91506147918261472a565b604082019050919050565b600060208201905081810360008301526147b581614779565b9050919050565b7f4c696d6974656420737570706c79206d7573742062652067726561746572207460008201527f68616e2030000000000000000000000000000000000000000000000000000000602082015250565b60006148186025836134d4565b9150614823826147bc565b604082019050919050565b600060208201905081810360008301526148478161480b565b9050919050565b600061010082019050614864600083018b6133b7565b614871602083018a6133b7565b61487e6040830189614011565b61488b60608301886133b7565b61489860808301876133b7565b6148a560a08301866133b7565b6148b260c08301856133b7565b6148bf60e08301846133b7565b9998505050505050505050565b7f74686520736f6e67496420646f65736e277420657869737473206f72206e6f7460008201527f2076616c69640000000000000000000000000000000000000000000000000000602082015250565b60006149286026836134d4565b9150614933826148cc565b604082019050919050565b600060208201905081810360008301526149578161491b565b9050919050565b7f506c6561736520706179207468652066756c6c20616d6f756e74000000000000600082015250565b6000614994601a836134d4565b915061499f8261495e565b602082019050919050565b600060208201905081810360008301526149c381614987565b9050919050565b7f796f752063616e6e6f742062757920796f7572206f776e20736f6e6700000000600082015250565b6000614a00601c836134d4565b9150614a0b826149ca565b602082019050919050565b60006020820190508181036000830152614a2f816149f3565b9050919050565b6000614a41826132e3565b9050919050565b614a5181614a36565b82525050565b6000608082019050614a6c60008301876133b7565b614a796020830186614a48565b614a866040830185614011565b614a936060830184614011565b95945050505050565b6000604082019050614ab160008301856133b7565b614abe6020830184614011565b9392505050565b6000614ad26000836134d4565b9150614add826145cb565b600082019050919050565b60006020820190508181036000830152614b0181614ac5565b9050919050565b7f4e487b7100000000000000000000000000000000000000000000000000000000600052602260045260246000fd5b60006002820490506001821680614b4f57607f821691505b602082108103614b6257614b61614b08565b5b50919050565b600081905092915050565b60008190508160005260206000209050919050565b60008154614b9581614b37565b614b9f8186614b68565b94506001821660008114614bba5760018114614bcf57614c02565b60ff1983168652811515820286019350614c02565b614bd885614b73565b60005b83811015614bfa57815481890152600182019150602081019050614bdb565b838801955050505b50505092915050565b6000614c16826134c9565b614c208185614b68565b9350614c308185602086016134e5565b80840191505092915050565b6000614c488285614b88565b9150614c548284614c0b565b91508190509392505050565b7f455243313135353a2069647320616e6420616d6f756e7473206c656e6774682060008201527f6d69736d61746368000000000000000000000000000000000000000000000000602082015250565b6000614cbc6028836134d4565b9150614cc782614c60565b604082019050919050565b60006020820190508181036000830152614ceb81614caf565b9050919050565b7f455243313135353a207472616e7366657220746f20746865207a65726f20616460008201527f6472657373000000000000000000000000000000000000000000000000000000602082015250565b6000614d4e6025836134d4565b9150614d5982614cf2565b604082019050919050565b60006020820190508181036000830152614d7d81614d41565b9050919050565b7f455243313135353a20696e73756666696369656e742062616c616e636520666f60008201527f72207472616e7366657200000000000000000000000000000000000000000000602082015250565b6000614de0602a836134d4565b9150614deb82614d84565b604082019050919050565b60006020820190508181036000830152614e0f81614dd3565b9050919050565b60006040820190508181036000830152614e308185613608565b90508181036020830152614e448184613608565b90509392505050565b7f455243313135353a206d696e7420746f20746865207a65726f2061646472657360008201527f7300000000000000000000000000000000000000000000000000000000000000602082015250565b6000614ea96021836134d4565b9150614eb482614e4d565b604082019050919050565b60006020820190508181036000830152614ed881614e9c565b9050919050565b6000604082019050614ef460008301856133b7565b614f0160208301846133b7565b9392505050565b60006020601f8301049050919050565b600082821b905092915050565b600060088302614f557fffffffffffffffffffffffffffffffffffffffffffffffffffffffffffffffff82614f18565b614f5f8683614f18565b95508019841693508086168417925050509392505050565b6000819050919050565b6000614f9c614f97614f9284613341565b614f77565b613341565b9050919050565b6000819050919050565b614fb683614f81565b614fca614fc282614fa3565b848454614f25565b825550505050565b600090565b614fdf614fd2565b614fea818484614fad565b505050565b5b8181101561500e57615003600082614fd7565b600181019050614ff0565b5050565b601f8211156150535761502481614b73565b61502d84614f08565b8101602085101561503c578190505b61505061504885614f08565b830182614fef565b50505b505050565b600082821c905092915050565b600061507660001984600802615058565b1980831691505092915050565b600061508f8383615065565b9150826002028217905092915050565b6150a8826134c9565b67ffffffffffffffff8111156150c1576150c061368d565b5b6150cb8254614b37565b6150d6828285615012565b600060209050601f83116001811461510957600084156150f7578287015190505b6151018582615083565b865550615169565b601f19841661511786614b73565b60005b8281101561513f5784890151825560018201915060208501945060208101905061511a565b8683101561515c5784890151615158601f891682615065565b8355505b6001600288020188555050505b505050505050565b7f455243313135353a2073657474696e6720617070726f76616c2073746174757360008201527f20666f722073656c660000000000000000000000000000000000000000000000602082015250565b60006151cd6029836134d4565b91506151d882615171565b604082019050919050565b600060208201905081810360008301526151fc816151c0565b9050919050565b600081519050919050565b600082825260208201905092915050565b600061522a82615203565b615234818561520e565b93506152448185602086016134e5565b61524d8161350f565b840191505092915050565b600060a08201905061526d6000830188614011565b61527a6020830187614011565b818103604083015261528c8186613608565b905081810360608301526152a08185613608565b905081810360808301526152b4818461521f565b90509695505050505050565b6000815190506152cf8161340d565b92915050565b6000602082840312156152eb576152ea6132d9565b5b60006152f9848285016152c0565b91505092915050565b60008160e01c9050919050565b600060033d111561532e5760046000803e61532b600051615302565b90505b90565b600060443d106153be576153436132cf565b60043d036004823e80513d602482011167ffffffffffffffff8211171561536b5750506153be565b808201805167ffffffffffffffff81111561538957505050506153be565b80602083010160043d0385018111156153a65750505050506153be565b6153b5826020018501866136bc565b82955050505050505b90565b7f455243313135353a207472616e7366657220746f206e6f6e2d4552433131353560008201527f526563656976657220696d706c656d656e746572000000000000000000000000602082015250565b600061541d6034836134d4565b9150615428826153c1565b604082019050919050565b6000602082019050818103600083015261544c81615410565b9050919050565b7f455243313135353a204552433131353552656365697665722072656a6563746560008201527f6420746f6b656e73000000000000000000000000000000000000000000000000602082015250565b60006154af6028836134d4565b91506154ba82615453565b604082019050919050565b600060208201905081810360008301526154de816154a2565b9050919050565b600060a0820190506154fa6000830188614011565b6155076020830187614011565b61551460408301866133b7565b61552160608301856133b7565b8181036080830152615533818461521f565b90509695505050505050565b7f455243313135353a206275726e20616d6f756e74206578636565647320746f7460008201527f616c537570706c79000000000000000000000000000000000000000000000000602082015250565b600061559b6028836134d4565b91506155a68261553f565b604082019050919050565b600060208201905081810360008301526155ca8161558e565b905091905056fea26469706673582212208190f1fd54173bb421e64bef56d47c333fb3d30e51460d826641618567d1474a64736f6c63430008110033","opcodes":"PUSH1 0x80 PUSH1 0x40 MSTORE PUSH1 0x40 MLOAD DUP1 PUSH1 0x20 ADD PUSH1 0x40 MSTORE DUP1 PUSH1 0x0 DUP2 MSTORE POP PUSH1 0x3 SWAP1 DUP2 PUSH3 0x24 SWAP2 SWAP1 PUSH3 0x392 JUMP JUMPDEST POP CALLVALUE DUP1 ISZERO PUSH3 0x32 JUMPI PUSH1 0x0 DUP1 REVERT JUMPDEST POP PUSH1 0x40 MLOAD PUSH3 0x5B2C CODESIZE SUB DUP1 PUSH3 0x5B2C DUP4 CODECOPY DUP2 DUP2 ADD PUSH1 0x40 MSTORE DUP2 ADD SWAP1 PUSH3 0x58 SWAP2 SWAP1 PUSH3 0x4E3 JUMP JUMPDEST PUSH1 0x40 MLOAD DUP1 PUSH1 0x20 ADD PUSH1 0x40 MSTORE DUP1 PUSH1 0x0 DUP2 MSTORE POP PUSH3 0x79 DUP2 PUSH3 0x103 PUSH1 0x20 SHL PUSH1 0x20 SHR JUMP JUMPDEST POP DUP1 PUSH1 0x7 PUSH1 0x0 PUSH2 0x100 EXP DUP2 SLOAD DUP2 PUSH20 0xFFFFFFFFFFFFFFFFFFFFFFFFFFFFFFFFFFFFFFFF MUL NOT AND SWAP1 DUP4 PUSH20 0xFFFFFFFFFFFFFFFFFFFFFFFFFFFFFFFFFFFFFFFF AND MUL OR SWAP1 SSTORE POP CALLER PUSH1 0x8 PUSH1 0x0 PUSH2 0x100 EXP DUP2 SLOAD DUP2 PUSH20 0xFFFFFFFFFFFFFFFFFFFFFFFFFFFFFFFFFFFFFFFF MUL NOT AND SWAP1 DUP4 PUSH20 0xFFFFFFFFFFFFFFFFFFFFFFFFFFFFFFFFFFFFFFFF AND MUL OR SWAP1 SSTORE POP POP PUSH3 0x515 JUMP JUMPDEST DUP1 PUSH1 0x2 SWAP1 DUP2 PUSH3 0x114 SWAP2 SWAP1 PUSH3 0x392 JUMP JUMPDEST POP POP JUMP JUMPDEST PUSH1 0x0 DUP2 MLOAD SWAP1 POP SWAP2 SWAP1 POP JUMP JUMPDEST PUSH32 0x4E487B7100000000000000000000000000000000000000000000000000000000 PUSH1 0x0 MSTORE PUSH1 0x41 PUSH1 0x4 MSTORE PUSH1 0x24 PUSH1 0x0 REVERT JUMPDEST PUSH32 0x4E487B7100000000000000000000000000000000000000000000000000000000 PUSH1 0x0 MSTORE PUSH1 0x22 PUSH1 0x4 MSTORE PUSH1 0x24 PUSH1 0x0 REVERT JUMPDEST PUSH1 0x0 PUSH1 0x2 DUP3 DIV SWAP1 POP PUSH1 0x1 DUP3 AND DUP1 PUSH3 0x19A JUMPI PUSH1 0x7F DUP3 AND SWAP2 POP JUMPDEST PUSH1 0x20 DUP3 LT DUP2 SUB PUSH3 0x1B0 JUMPI PUSH3 0x1AF PUSH3 0x152 JUMP JUMPDEST JUMPDEST POP SWAP2 SWAP1 POP JUMP JUMPDEST PUSH1 0x0 DUP2 SWAP1 POP DUP2 PUSH1 0x0 MSTORE PUSH1 0x20 PUSH1 0x0 KECCAK256 SWAP1 POP SWAP2 SWAP1 POP JUMP JUMPDEST PUSH1 0x0 PUSH1 0x20 PUSH1 0x1F DUP4 ADD DIV SWAP1 POP SWAP2 SWAP1 POP JUMP JUMPDEST PUSH1 0x0 DUP3 DUP3 SHL SWAP1 POP SWAP3 SWAP2 POP POP JUMP JUMPDEST PUSH1 0x0 PUSH1 0x8 DUP4 MUL PUSH3 0x21A PUSH32 0xFFFFFFFFFFFFFFFFFFFFFFFFFFFFFFFFFFFFFFFFFFFFFFFFFFFFFFFFFFFFFFFF DUP3 PUSH3 0x1DB JUMP JUMPDEST PUSH3 0x226 DUP7 DUP4 PUSH3 0x1DB JUMP JUMPDEST SWAP6 POP DUP1 NOT DUP5 AND SWAP4 POP DUP1 DUP7 AND DUP5 OR SWAP3 POP POP POP SWAP4 SWAP3 POP POP POP JUMP JUMPDEST PUSH1 0x0 DUP2 SWAP1 POP SWAP2 SWAP1 POP JUMP JUMPDEST PUSH1 0x0 DUP2 SWAP1 POP SWAP2 SWAP1 POP JUMP JUMPDEST PUSH1 0x0 PUSH3 0x273 PUSH3 0x26D PUSH3 0x267 DUP5 PUSH3 0x23E JUMP JUMPDEST PUSH3 0x248 JUMP JUMPDEST PUSH3 0x23E JUMP JUMPDEST SWAP1 POP SWAP2 SWAP1 POP JUMP JUMPDEST PUSH1 0x0 DUP2 SWAP1 POP SWAP2 SWAP1 POP JUMP JUMPDEST PUSH3 0x28F DUP4 PUSH3 0x252 JUMP JUMPDEST PUSH3 0x2A7 PUSH3 0x29E DUP3 PUSH3 0x27A JUMP JUMPDEST DUP5 DUP5 SLOAD PUSH3 0x1E8 JUMP JUMPDEST DUP3 SSTORE POP POP POP POP JUMP JUMPDEST PUSH1 0x0 SWAP1 JUMP JUMPDEST PUSH3 0x2BE PUSH3 0x2AF JUMP JUMPDEST PUSH3 0x2CB DUP2 DUP5 DUP5 PUSH3 0x284 JUMP JUMPDEST POP POP POP JUMP JUMPDEST JUMPDEST DUP2 DUP2 LT ISZERO PUSH3 0x2F3 JUMPI PUSH3 0x2E7 PUSH1 0x0 DUP3 PUSH3 0x2B4 JUMP JUMPDEST PUSH1 0x1 DUP2 ADD SWAP1 POP PUSH3 0x2D1 JUMP JUMPDEST POP POP JUMP JUMPDEST PUSH1 0x1F DUP3 GT ISZERO PUSH3 0x342 JUMPI PUSH3 0x30C DUP2 PUSH3 0x1B6 JUMP JUMPDEST PUSH3 0x317 DUP5 PUSH3 0x1CB JUMP JUMPDEST DUP2 ADD PUSH1 0x20 DUP6 LT ISZERO PUSH3 0x327 JUMPI DUP2 SWAP1 POP JUMPDEST PUSH3 0x33F PUSH3 0x336 DUP6 PUSH3 0x1CB JUMP JUMPDEST DUP4 ADD DUP3 PUSH3 0x2D0 JUMP JUMPDEST POP POP JUMPDEST POP POP POP JUMP JUMPDEST PUSH1 0x0 DUP3 DUP3 SHR SWAP1 POP SWAP3 SWAP2 POP POP JUMP JUMPDEST PUSH1 0x0 PUSH3 0x367 PUSH1 0x0 NOT DUP5 PUSH1 0x8 MUL PUSH3 0x347 JUMP JUMPDEST NOT DUP1 DUP4 AND SWAP2 POP POP SWAP3 SWAP2 POP POP JUMP JUMPDEST PUSH1 0x0 PUSH3 0x382 DUP4 DUP4 PUSH3 0x354 JUMP JUMPDEST SWAP2 POP DUP3 PUSH1 0x2 MUL DUP3 OR SWAP1 POP SWAP3 SWAP2 POP POP JUMP JUMPDEST PUSH3 0x39D DUP3 PUSH3 0x118 JUMP JUMPDEST PUSH8 0xFFFFFFFFFFFFFFFF DUP2 GT ISZERO PUSH3 0x3B9 JUMPI PUSH3 0x3B8 PUSH3 0x123 JUMP JUMPDEST JUMPDEST PUSH3 0x3C5 DUP3 SLOAD PUSH3 0x181 JUMP JUMPDEST PUSH3 0x3D2 DUP3 DUP3 DUP6 PUSH3 0x2F7 JUMP JUMPDEST PUSH1 0x0 PUSH1 0x20 SWAP1 POP PUSH1 0x1F DUP4 GT PUSH1 0x1 DUP2 EQ PUSH3 0x40A JUMPI PUSH1 0x0 DUP5 ISZERO PUSH3 0x3F5 JUMPI DUP3 DUP8 ADD MLOAD SWAP1 POP JUMPDEST PUSH3 0x401 DUP6 DUP3 PUSH3 0x374 JUMP JUMPDEST DUP7 SSTORE POP PUSH3 0x471 JUMP JUMPDEST PUSH1 0x1F NOT DUP5 AND PUSH3 0x41A DUP7 PUSH3 0x1B6 JUMP JUMPDEST PUSH1 0x0 JUMPDEST DUP3 DUP2 LT ISZERO PUSH3 0x444 JUMPI DUP5 DUP10 ADD MLOAD DUP3 SSTORE PUSH1 0x1 DUP3 ADD SWAP2 POP PUSH1 0x20 DUP6 ADD SWAP5 POP PUSH1 0x20 DUP2 ADD SWAP1 POP PUSH3 0x41D JUMP JUMPDEST DUP7 DUP4 LT ISZERO PUSH3 0x464 JUMPI DUP5 DUP10 ADD MLOAD PUSH3 0x460 PUSH1 0x1F DUP10 AND DUP3 PUSH3 0x354 JUMP JUMPDEST DUP4 SSTORE POP JUMPDEST PUSH1 0x1 PUSH1 0x2 DUP9 MUL ADD DUP9 SSTORE POP POP POP JUMPDEST POP POP POP POP POP POP JUMP JUMPDEST PUSH1 0x0 DUP1 REVERT JUMPDEST PUSH1 0x0 PUSH20 0xFFFFFFFFFFFFFFFFFFFFFFFFFFFFFFFFFFFFFFFF DUP3 AND SWAP1 POP SWAP2 SWAP1 POP JUMP JUMPDEST PUSH1 0x0 PUSH3 0x4AB DUP3 PUSH3 0x47E JUMP JUMPDEST SWAP1 POP SWAP2 SWAP1 POP JUMP JUMPDEST PUSH3 0x4BD DUP2 PUSH3 0x49E JUMP JUMPDEST DUP2 EQ PUSH3 0x4C9 JUMPI PUSH1 0x0 DUP1 REVERT JUMPDEST POP JUMP JUMPDEST PUSH1 0x0 DUP2 MLOAD SWAP1 POP PUSH3 0x4DD DUP2 PUSH3 0x4B2 JUMP JUMPDEST SWAP3 SWAP2 POP POP JUMP JUMPDEST PUSH1 0x0 PUSH1 0x20 DUP3 DUP5 SUB SLT ISZERO PUSH3 0x4FC JUMPI PUSH3 0x4FB PUSH3 0x479 JUMP JUMPDEST JUMPDEST PUSH1 0x0 PUSH3 0x50C DUP5 DUP3 DUP6 ADD PUSH3 0x4CC JUMP JUMPDEST SWAP2 POP POP SWAP3 SWAP2 POP POP JUMP JUMPDEST PUSH2 0x5607 DUP1 PUSH3 0x525 PUSH1 0x0 CODECOPY PUSH1 0x0 RETURN INVALID PUSH1 0x80 PUSH1 0x40 MSTORE PUSH1 0x4 CALLDATASIZE LT PUSH2 0x138 JUMPI PUSH1 0x0 CALLDATALOAD PUSH1 0xE0 SHR DUP1 PUSH4 0x5FE34985 GT PUSH2 0xAB JUMPI DUP1 PUSH4 0xB9414D31 GT PUSH2 0x6F JUMPI DUP1 PUSH4 0xB9414D31 EQ PUSH2 0x490 JUMPI DUP1 PUSH4 0xBD85B039 EQ PUSH2 0x4D7 JUMPI DUP1 PUSH4 0xE985E9C5 EQ PUSH2 0x514 JUMPI DUP1 PUSH4 0xEEA7EAF6 EQ PUSH2 0x551 JUMPI DUP1 PUSH4 0xF242432A EQ PUSH2 0x56D JUMPI DUP1 PUSH4 0xFAD00AC2 EQ PUSH2 0x596 JUMPI PUSH2 0x13F JUMP JUMPDEST DUP1 PUSH4 0x5FE34985 EQ PUSH2 0x3BD JUMPI DUP1 PUSH4 0x7C76C232 EQ PUSH2 0x3E8 JUMPI DUP1 PUSH4 0x7D048509 EQ PUSH2 0x3FF JUMPI DUP1 PUSH4 0xA22CB465 EQ PUSH2 0x43C JUMPI DUP1 PUSH4 0xB4A99A4E EQ PUSH2 0x465 JUMPI PUSH2 0x13F JUMP JUMPDEST DUP1 PUSH4 0x2B9C2760 GT PUSH2 0xFD JUMPI DUP1 PUSH4 0x2B9C2760 EQ PUSH2 0x275 JUMPI DUP1 PUSH4 0x2EB2C2D6 EQ PUSH2 0x2B2 JUMPI DUP1 PUSH4 0x42ACAA66 EQ PUSH2 0x2DB JUMPI DUP1 PUSH4 0x4E1273F4 EQ PUSH2 0x318 JUMPI DUP1 PUSH4 0x4F558E79 EQ PUSH2 0x355 JUMPI DUP1 PUSH4 0x5565F660 EQ PUSH2 0x392 JUMPI PUSH2 0x13F JUMP JUMPDEST DUP1 PUSH3 0xFDD58E EQ PUSH2 0x144 JUMPI DUP1 PUSH4 0x1FFC9A7 EQ PUSH2 0x181 JUMPI DUP1 PUSH4 0xB6AF60B EQ PUSH2 0x1BE JUMPI DUP1 PUSH4 0xE89341C EQ PUSH2 0x1FB JUMPI DUP1 PUSH4 0x2423C95C EQ PUSH2 0x238 JUMPI PUSH2 0x13F JUMP JUMPDEST CALLDATASIZE PUSH2 0x13F JUMPI STOP JUMPDEST PUSH1 0x0 DUP1 REVERT JUMPDEST CALLVALUE DUP1 ISZERO PUSH2 0x150 JUMPI PUSH1 0x0 DUP1 REVERT JUMPDEST POP PUSH2 0x16B PUSH1 0x4 DUP1 CALLDATASIZE SUB DUP2 ADD SWAP1 PUSH2 0x166 SWAP2 SWAP1 PUSH2 0x3377 JUMP JUMPDEST PUSH2 0x5B2 JUMP JUMPDEST PUSH1 0x40 MLOAD PUSH2 0x178 SWAP2 SWAP1 PUSH2 0x33C6 JUMP JUMPDEST PUSH1 0x40 MLOAD DUP1 SWAP2 SUB SWAP1 RETURN JUMPDEST CALLVALUE DUP1 ISZERO PUSH2 0x18D JUMPI PUSH1 0x0 DUP1 REVERT JUMPDEST POP PUSH2 0x1A8 PUSH1 0x4 DUP1 CALLDATASIZE SUB DUP2 ADD SWAP1 PUSH2 0x1A3 SWAP2 SWAP1 PUSH2 0x3439 JUMP JUMPDEST PUSH2 0x67A JUMP JUMPDEST PUSH1 0x40 MLOAD PUSH2 0x1B5 SWAP2 SWAP1 PUSH2 0x3481 JUMP JUMPDEST PUSH1 0x40 MLOAD DUP1 SWAP2 SUB SWAP1 RETURN JUMPDEST CALLVALUE DUP1 ISZERO PUSH2 0x1CA JUMPI PUSH1 0x0 DUP1 REVERT JUMPDEST POP PUSH2 0x1E5 PUSH1 0x4 DUP1 CALLDATASIZE SUB DUP2 ADD SWAP1 PUSH2 0x1E0 SWAP2 SWAP1 PUSH2 0x3377 JUMP JUMPDEST PUSH2 0x75C JUMP JUMPDEST PUSH1 0x40 MLOAD PUSH2 0x1F2 SWAP2 SWAP1 PUSH2 0x33C6 JUMP JUMPDEST PUSH1 0x40 MLOAD DUP1 SWAP2 SUB SWAP1 RETURN JUMPDEST CALLVALUE DUP1 ISZERO PUSH2 0x207 JUMPI PUSH1 0x0 DUP1 REVERT JUMPDEST POP PUSH2 0x222 PUSH1 0x4 DUP1 CALLDATASIZE SUB DUP2 ADD SWAP1 PUSH2 0x21D SWAP2 SWAP1 PUSH2 0x349C JUMP JUMPDEST PUSH2 0x78D JUMP JUMPDEST PUSH1 0x40 MLOAD PUSH2 0x22F SWAP2 SWAP1 PUSH2 0x3559 JUMP JUMPDEST PUSH1 0x40 MLOAD DUP1 SWAP2 SUB SWAP1 RETURN JUMPDEST CALLVALUE DUP1 ISZERO PUSH2 0x244 JUMPI PUSH1 0x0 DUP1 REVERT JUMPDEST POP PUSH2 0x25F PUSH1 0x4 DUP1 CALLDATASIZE SUB DUP2 ADD SWAP1 PUSH2 0x25A SWAP2 SWAP1 PUSH2 0x357B JUMP JUMPDEST PUSH2 0x79F JUMP JUMPDEST PUSH1 0x40 MLOAD PUSH2 0x26C SWAP2 SWAP1 PUSH2 0x3666 JUMP JUMPDEST PUSH1 0x40 MLOAD DUP1 SWAP2 SUB SWAP1 RETURN JUMPDEST CALLVALUE DUP1 ISZERO PUSH2 0x281 JUMPI PUSH1 0x0 DUP1 REVERT JUMPDEST POP PUSH2 0x29C PUSH1 0x4 DUP1 CALLDATASIZE SUB DUP2 ADD SWAP1 PUSH2 0x297 SWAP2 SWAP1 PUSH2 0x349C JUMP JUMPDEST PUSH2 0x836 JUMP JUMPDEST PUSH1 0x40 MLOAD PUSH2 0x2A9 SWAP2 SWAP1 PUSH2 0x33C6 JUMP JUMPDEST PUSH1 0x40 MLOAD DUP1 SWAP2 SUB SWAP1 RETURN JUMPDEST CALLVALUE DUP1 ISZERO PUSH2 0x2BE JUMPI PUSH1 0x0 DUP1 REVERT JUMPDEST POP PUSH2 0x2D9 PUSH1 0x4 DUP1 CALLDATASIZE SUB DUP2 ADD SWAP1 PUSH2 0x2D4 SWAP2 SWAP1 PUSH2 0x3885 JUMP JUMPDEST PUSH2 0x84E JUMP JUMPDEST STOP JUMPDEST CALLVALUE DUP1 ISZERO PUSH2 0x2E7 JUMPI PUSH1 0x0 DUP1 REVERT JUMPDEST POP PUSH2 0x302 PUSH1 0x4 DUP1 CALLDATASIZE SUB DUP2 ADD SWAP1 PUSH2 0x2FD SWAP2 SWAP1 PUSH2 0x349C JUMP JUMPDEST PUSH2 0x8EF JUMP JUMPDEST PUSH1 0x40 MLOAD PUSH2 0x30F SWAP2 SWAP1 PUSH2 0x3B16 JUMP JUMPDEST PUSH1 0x40 MLOAD DUP1 SWAP2 SUB SWAP1 RETURN JUMPDEST CALLVALUE DUP1 ISZERO PUSH2 0x324 JUMPI PUSH1 0x0 DUP1 REVERT JUMPDEST POP PUSH2 0x33F PUSH1 0x4 DUP1 CALLDATASIZE SUB DUP2 ADD SWAP1 PUSH2 0x33A SWAP2 SWAP1 PUSH2 0x3BFB JUMP JUMPDEST PUSH2 0xCD4 JUMP JUMPDEST PUSH1 0x40 MLOAD PUSH2 0x34C SWAP2 SWAP1 PUSH2 0x3666 JUMP JUMPDEST PUSH1 0x40 MLOAD DUP1 SWAP2 SUB SWAP1 RETURN JUMPDEST CALLVALUE DUP1 ISZERO PUSH2 0x361 JUMPI PUSH1 0x0 DUP1 REVERT JUMPDEST POP PUSH2 0x37C PUSH1 0x4 DUP1 CALLDATASIZE SUB DUP2 ADD SWAP1 PUSH2 0x377 SWAP2 SWAP1 PUSH2 0x349C JUMP JUMPDEST PUSH2 0xDED JUMP JUMPDEST PUSH1 0x40 MLOAD PUSH2 0x389 SWAP2 SWAP1 PUSH2 0x3481 JUMP JUMPDEST PUSH1 0x40 MLOAD DUP1 SWAP2 SUB SWAP1 RETURN JUMPDEST CALLVALUE DUP1 ISZERO PUSH2 0x39E JUMPI PUSH1 0x0 DUP1 REVERT JUMPDEST POP PUSH2 0x3A7 PUSH2 0xE01 JUMP JUMPDEST PUSH1 0x40 MLOAD PUSH2 0x3B4 SWAP2 SWAP1 PUSH2 0x3E39 JUMP JUMPDEST PUSH1 0x40 MLOAD DUP1 SWAP2 SUB SWAP1 RETURN JUMPDEST CALLVALUE DUP1 ISZERO PUSH2 0x3C9 JUMPI PUSH1 0x0 DUP1 REVERT JUMPDEST POP PUSH2 0x3D2 PUSH2 0xFA9 JUMP JUMPDEST PUSH1 0x40 MLOAD PUSH2 0x3DF SWAP2 SWAP1 PUSH2 0x33C6 JUMP JUMPDEST PUSH1 0x40 MLOAD DUP1 SWAP2 SUB SWAP1 RETURN JUMPDEST CALLVALUE DUP1 ISZERO PUSH2 0x3F4 JUMPI PUSH1 0x0 DUP1 REVERT JUMPDEST POP PUSH2 0x3FD PUSH2 0xFBA JUMP JUMPDEST STOP JUMPDEST CALLVALUE DUP1 ISZERO PUSH2 0x40B JUMPI PUSH1 0x0 DUP1 REVERT JUMPDEST POP PUSH2 0x426 PUSH1 0x4 DUP1 CALLDATASIZE SUB DUP2 ADD SWAP1 PUSH2 0x421 SWAP2 SWAP1 PUSH2 0x3EFC JUMP JUMPDEST PUSH2 0x140C JUMP JUMPDEST PUSH1 0x40 MLOAD PUSH2 0x433 SWAP2 SWAP1 PUSH2 0x33C6 JUMP JUMPDEST PUSH1 0x40 MLOAD DUP1 SWAP2 SUB SWAP1 RETURN JUMPDEST CALLVALUE DUP1 ISZERO PUSH2 0x448 JUMPI PUSH1 0x0 DUP1 REVERT JUMPDEST POP PUSH2 0x463 PUSH1 0x4 DUP1 CALLDATASIZE SUB DUP2 ADD SWAP1 PUSH2 0x45E SWAP2 SWAP1 PUSH2 0x3FD1 JUMP JUMPDEST PUSH2 0x168E JUMP JUMPDEST STOP JUMPDEST CALLVALUE DUP1 ISZERO PUSH2 0x471 JUMPI PUSH1 0x0 DUP1 REVERT JUMPDEST POP PUSH2 0x47A PUSH2 0x16A4 JUMP JUMPDEST PUSH1 0x40 MLOAD PUSH2 0x487 SWAP2 SWAP1 PUSH2 0x4020 JUMP JUMPDEST PUSH1 0x40 MLOAD DUP1 SWAP2 SUB SWAP1 RETURN JUMPDEST CALLVALUE DUP1 ISZERO PUSH2 0x49C JUMPI PUSH1 0x0 DUP1 REVERT JUMPDEST POP PUSH2 0x4B7 PUSH1 0x4 DUP1 CALLDATASIZE SUB DUP2 ADD SWAP1 PUSH2 0x4B2 SWAP2 SWAP1 PUSH2 0x349C JUMP JUMPDEST PUSH2 0x16CA JUMP JUMPDEST PUSH1 0x40 MLOAD PUSH2 0x4CE SWAP12 SWAP11 SWAP10 SWAP9 SWAP8 SWAP7 SWAP6 SWAP5 SWAP4 SWAP3 SWAP2 SWAP1 PUSH2 0x403B JUMP JUMPDEST PUSH1 0x40 MLOAD DUP1 SWAP2 SUB SWAP1 RETURN JUMPDEST CALLVALUE DUP1 ISZERO PUSH2 0x4E3 JUMPI PUSH1 0x0 DUP1 REVERT JUMPDEST POP PUSH2 0x4FE PUSH1 0x4 DUP1 CALLDATASIZE SUB DUP2 ADD SWAP1 PUSH2 0x4F9 SWAP2 SWAP1 PUSH2 0x349C JUMP JUMPDEST PUSH2 0x1754 JUMP JUMPDEST PUSH1 0x40 MLOAD PUSH2 0x50B SWAP2 SWAP1 PUSH2 0x33C6 JUMP JUMPDEST PUSH1 0x40 MLOAD DUP1 SWAP2 SUB SWAP1 RETURN JUMPDEST CALLVALUE DUP1 ISZERO PUSH2 0x520 JUMPI PUSH1 0x0 DUP1 REVERT JUMPDEST POP PUSH2 0x53B PUSH1 0x4 DUP1 CALLDATASIZE SUB DUP2 ADD SWAP1 PUSH2 0x536 SWAP2 SWAP1 PUSH2 0x40E6 JUMP JUMPDEST PUSH2 0x1771 JUMP JUMPDEST PUSH1 0x40 MLOAD PUSH2 0x548 SWAP2 SWAP1 PUSH2 0x3481 JUMP JUMPDEST PUSH1 0x40 MLOAD DUP1 SWAP2 SUB SWAP1 RETURN JUMPDEST PUSH2 0x56B PUSH1 0x4 DUP1 CALLDATASIZE SUB DUP2 ADD SWAP1 PUSH2 0x566 SWAP2 SWAP1 PUSH2 0x349C JUMP JUMPDEST PUSH2 0x1805 JUMP JUMPDEST STOP JUMPDEST CALLVALUE DUP1 ISZERO PUSH2 0x579 JUMPI PUSH1 0x0 DUP1 REVERT JUMPDEST POP PUSH2 0x594 PUSH1 0x4 DUP1 CALLDATASIZE SUB DUP2 ADD SWAP1 PUSH2 0x58F SWAP2 SWAP1 PUSH2 0x4126 JUMP JUMPDEST PUSH2 0x1BD4 JUMP JUMPDEST STOP JUMPDEST PUSH2 0x5B0 PUSH1 0x4 DUP1 CALLDATASIZE SUB DUP2 ADD SWAP1 PUSH2 0x5AB SWAP2 SWAP1 PUSH2 0x349C JUMP JUMPDEST PUSH2 0x1C75 JUMP JUMPDEST STOP JUMPDEST PUSH1 0x0 DUP1 PUSH20 0xFFFFFFFFFFFFFFFFFFFFFFFFFFFFFFFFFFFFFFFF AND DUP4 PUSH20 0xFFFFFFFFFFFFFFFFFFFFFFFFFFFFFFFFFFFFFFFF AND SUB PUSH2 0x622 JUMPI PUSH1 0x40 MLOAD PUSH32 0x8C379A000000000000000000000000000000000000000000000000000000000 DUP2 MSTORE PUSH1 0x4 ADD PUSH2 0x619 SWAP1 PUSH2 0x422F JUMP JUMPDEST PUSH1 0x40 MLOAD DUP1 SWAP2 SUB SWAP1 REVERT JUMPDEST PUSH1 0x0 DUP1 DUP4 DUP2 MSTORE PUSH1 0x20 ADD SWAP1 DUP2 MSTORE PUSH1 0x20 ADD PUSH1 0x0 KECCAK256 PUSH1 0x0 DUP5 PUSH20 0xFFFFFFFFFFFFFFFFFFFFFFFFFFFFFFFFFFFFFFFF AND PUSH20 0xFFFFFFFFFFFFFFFFFFFFFFFFFFFFFFFFFFFFFFFF AND DUP2 MSTORE PUSH1 0x20 ADD SWAP1 DUP2 MSTORE PUSH1 0x20 ADD PUSH1 0x0 KECCAK256 SLOAD SWAP1 POP SWAP3 SWAP2 POP POP JUMP JUMPDEST PUSH1 0x0 PUSH32 0xD9B67A2600000000000000000000000000000000000000000000000000000000 PUSH28 0xFFFFFFFFFFFFFFFFFFFFFFFFFFFFFFFFFFFFFFFFFFFFFFFFFFFFFFFF NOT AND DUP3 PUSH28 0xFFFFFFFFFFFFFFFFFFFFFFFFFFFFFFFFFFFFFFFFFFFFFFFFFFFFFFFF NOT AND EQ DUP1 PUSH2 0x745 JUMPI POP PUSH32 0xE89341C00000000000000000000000000000000000000000000000000000000 PUSH28 0xFFFFFFFFFFFFFFFFFFFFFFFFFFFFFFFFFFFFFFFFFFFFFFFFFFFFFFFF NOT AND DUP3 PUSH28 0xFFFFFFFFFFFFFFFFFFFFFFFFFFFFFFFFFFFFFFFFFFFFFFFFFFFFFFFF NOT AND EQ JUMPDEST DUP1 PUSH2 0x755 JUMPI POP PUSH2 0x754 DUP3 PUSH2 0x20CB JUMP JUMPDEST JUMPDEST SWAP1 POP SWAP2 SWAP1 POP JUMP JUMPDEST PUSH1 0x9 PUSH1 0x20 MSTORE DUP2 PUSH1 0x0 MSTORE PUSH1 0x40 PUSH1 0x0 KECCAK256 DUP2 DUP2 SLOAD DUP2 LT PUSH2 0x778 JUMPI PUSH1 0x0 DUP1 REVERT JUMPDEST SWAP1 PUSH1 0x0 MSTORE PUSH1 0x20 PUSH1 0x0 KECCAK256 ADD PUSH1 0x0 SWAP2 POP SWAP2 POP POP SLOAD DUP2 JUMP JUMPDEST PUSH1 0x60 PUSH2 0x798 DUP3 PUSH2 0x2135 JUMP JUMPDEST SWAP1 POP SWAP2 SWAP1 POP JUMP JUMPDEST PUSH1 0x60 PUSH1 0x9 PUSH1 0x0 DUP4 PUSH20 0xFFFFFFFFFFFFFFFFFFFFFFFFFFFFFFFFFFFFFFFF AND PUSH20 0xFFFFFFFFFFFFFFFFFFFFFFFFFFFFFFFFFFFFFFFF AND DUP2 MSTORE PUSH1 0x20 ADD SWAP1 DUP2 MSTORE PUSH1 0x20 ADD PUSH1 0x0 KECCAK256 DUP1 SLOAD DUP1 PUSH1 0x20 MUL PUSH1 0x20 ADD PUSH1 0x40 MLOAD SWAP1 DUP2 ADD PUSH1 0x40 MSTORE DUP1 SWAP3 SWAP2 SWAP1 DUP2 DUP2 MSTORE PUSH1 0x20 ADD DUP3 DUP1 SLOAD DUP1 ISZERO PUSH2 0x82A JUMPI PUSH1 0x20 MUL DUP3 ADD SWAP2 SWAP1 PUSH1 0x0 MSTORE PUSH1 0x20 PUSH1 0x0 KECCAK256 SWAP1 JUMPDEST DUP2 SLOAD DUP2 MSTORE PUSH1 0x20 ADD SWAP1 PUSH1 0x1 ADD SWAP1 DUP1 DUP4 GT PUSH2 0x816 JUMPI JUMPDEST POP POP POP POP POP SWAP1 POP SWAP2 SWAP1 POP JUMP JUMPDEST PUSH1 0xB PUSH1 0x20 MSTORE DUP1 PUSH1 0x0 MSTORE PUSH1 0x40 PUSH1 0x0 KECCAK256 PUSH1 0x0 SWAP2 POP SWAP1 POP SLOAD DUP2 JUMP JUMPDEST PUSH2 0x856 PUSH2 0x221A JUMP JUMPDEST PUSH20 0xFFFFFFFFFFFFFFFFFFFFFFFFFFFFFFFFFFFFFFFF AND DUP6 PUSH20 0xFFFFFFFFFFFFFFFFFFFFFFFFFFFFFFFFFFFFFFFF AND EQ DUP1 PUSH2 0x89C JUMPI POP PUSH2 0x89B DUP6 PUSH2 0x896 PUSH2 0x221A JUMP JUMPDEST PUSH2 0x1771 JUMP JUMPDEST JUMPDEST PUSH2 0x8DB JUMPI PUSH1 0x40 MLOAD PUSH32 0x8C379A000000000000000000000000000000000000000000000000000000000 DUP2 MSTORE PUSH1 0x4 ADD PUSH2 0x8D2 SWAP1 PUSH2 0x42C1 JUMP JUMPDEST PUSH1 0x40 MLOAD DUP1 SWAP2 SUB SWAP1 REVERT JUMPDEST PUSH2 0x8E8 DUP6 DUP6 DUP6 DUP6 DUP6 PUSH2 0x2222 JUMP JUMPDEST POP POP POP POP POP JUMP JUMPDEST PUSH2 0x8F7 PUSH2 0x3258 JUMP JUMPDEST PUSH1 0x0 PUSH1 0x2 DUP4 PUSH2 0x906 SWAP2 SWAP1 PUSH2 0x4310 JUMP JUMPDEST EQ PUSH2 0xAE3 JUMPI PUSH2 0x914 DUP3 PUSH2 0xDED JUMP JUMPDEST PUSH2 0x953 JUMPI PUSH1 0x40 MLOAD PUSH32 0x8C379A000000000000000000000000000000000000000000000000000000000 DUP2 MSTORE PUSH1 0x4 ADD PUSH2 0x94A SWAP1 PUSH2 0x438D JUMP JUMPDEST PUSH1 0x40 MLOAD DUP1 SWAP2 SUB SWAP1 REVERT JUMPDEST PUSH1 0xA PUSH1 0xB PUSH1 0x0 DUP5 DUP2 MSTORE PUSH1 0x20 ADD SWAP1 DUP2 MSTORE PUSH1 0x20 ADD PUSH1 0x0 KECCAK256 SLOAD DUP2 SLOAD DUP2 LT PUSH2 0x97A JUMPI PUSH2 0x979 PUSH2 0x43AD JUMP JUMPDEST JUMPDEST SWAP1 PUSH1 0x0 MSTORE PUSH1 0x20 PUSH1 0x0 KECCAK256 SWAP1 PUSH1 0xC MUL ADD PUSH1 0x40 MLOAD DUP1 PUSH2 0x180 ADD PUSH1 0x40 MSTORE SWAP1 DUP2 PUSH1 0x0 DUP3 ADD PUSH1 0x0 SWAP1 SLOAD SWAP1 PUSH2 0x100 EXP SWAP1 DIV PUSH20 0xFFFFFFFFFFFFFFFFFFFFFFFFFFFFFFFFFFFFFFFF AND PUSH20 0xFFFFFFFFFFFFFFFFFFFFFFFFFFFFFFFFFFFFFFFF AND PUSH20 0xFFFFFFFFFFFFFFFFFFFFFFFFFFFFFFFFFFFFFFFF AND DUP2 MSTORE PUSH1 0x20 ADD PUSH1 0x1 DUP3 ADD SLOAD DUP2 MSTORE PUSH1 0x20 ADD PUSH1 0x2 DUP3 ADD SLOAD DUP2 MSTORE PUSH1 0x20 ADD PUSH1 0x3 DUP3 ADD SLOAD DUP2 MSTORE PUSH1 0x20 ADD PUSH1 0x4 DUP3 ADD SLOAD DUP2 MSTORE PUSH1 0x20 ADD PUSH1 0x5 DUP3 ADD SLOAD DUP2 MSTORE PUSH1 0x20 ADD PUSH1 0x6 DUP3 ADD SLOAD DUP2 MSTORE PUSH1 0x20 ADD PUSH1 0x7 DUP3 ADD SLOAD DUP2 MSTORE PUSH1 0x20 ADD PUSH1 0x8 DUP3 ADD SLOAD DUP2 MSTORE PUSH1 0x20 ADD PUSH1 0x9 DUP3 ADD SLOAD DUP2 MSTORE PUSH1 0x20 ADD PUSH1 0xA DUP3 ADD SLOAD DUP2 MSTORE PUSH1 0x20 ADD PUSH1 0xB DUP3 ADD DUP1 SLOAD DUP1 PUSH1 0x20 MUL PUSH1 0x20 ADD PUSH1 0x40 MLOAD SWAP1 DUP2 ADD PUSH1 0x40 MSTORE DUP1 SWAP3 SWAP2 SWAP1 DUP2 DUP2 MSTORE PUSH1 0x20 ADD DUP3 DUP1 SLOAD DUP1 ISZERO PUSH2 0xAD3 JUMPI PUSH1 0x20 MUL DUP3 ADD SWAP2 SWAP1 PUSH1 0x0 MSTORE PUSH1 0x20 PUSH1 0x0 KECCAK256 SWAP1 JUMPDEST DUP2 PUSH1 0x0 SWAP1 SLOAD SWAP1 PUSH2 0x100 EXP SWAP1 DIV PUSH20 0xFFFFFFFFFFFFFFFFFFFFFFFFFFFFFFFFFFFFFFFF AND PUSH20 0xFFFFFFFFFFFFFFFFFFFFFFFFFFFFFFFFFFFFFFFF AND DUP2 MSTORE PUSH1 0x20 ADD SWAP1 PUSH1 0x1 ADD SWAP1 DUP1 DUP4 GT PUSH2 0xA89 JUMPI JUMPDEST POP POP POP POP POP DUP2 MSTORE POP POP SWAP1 POP PUSH2 0xCCF JUMP JUMPDEST PUSH2 0xAF8 PUSH1 0x1 DUP4 PUSH2 0xAF3 SWAP2 SWAP1 PUSH2 0x440B JUMP JUMPDEST PUSH2 0xDED JUMP JUMPDEST PUSH2 0xB37 JUMPI PUSH1 0x40 MLOAD PUSH32 0x8C379A000000000000000000000000000000000000000000000000000000000 DUP2 MSTORE PUSH1 0x4 ADD PUSH2 0xB2E SWAP1 PUSH2 0x438D JUMP JUMPDEST PUSH1 0x40 MLOAD DUP1 SWAP2 SUB SWAP1 REVERT JUMPDEST PUSH1 0xA PUSH1 0xB PUSH1 0x0 PUSH1 0x1 DUP6 PUSH2 0xB4A SWAP2 SWAP1 PUSH2 0x440B JUMP JUMPDEST DUP2 MSTORE PUSH1 0x20 ADD SWAP1 DUP2 MSTORE PUSH1 0x20 ADD PUSH1 0x0 KECCAK256 SLOAD DUP2 SLOAD DUP2 LT PUSH2 0xB6A JUMPI PUSH2 0xB69 PUSH2 0x43AD JUMP JUMPDEST JUMPDEST SWAP1 PUSH1 0x0 MSTORE PUSH1 0x20 PUSH1 0x0 KECCAK256 SWAP1 PUSH1 0xC MUL ADD PUSH1 0x40 MLOAD DUP1 PUSH2 0x180 ADD PUSH1 0x40 MSTORE SWAP1 DUP2 PUSH1 0x0 DUP3 ADD PUSH1 0x0 SWAP1 SLOAD SWAP1 PUSH2 0x100 EXP SWAP1 DIV PUSH20 0xFFFFFFFFFFFFFFFFFFFFFFFFFFFFFFFFFFFFFFFF AND PUSH20 0xFFFFFFFFFFFFFFFFFFFFFFFFFFFFFFFFFFFFFFFF AND PUSH20 0xFFFFFFFFFFFFFFFFFFFFFFFFFFFFFFFFFFFFFFFF AND DUP2 MSTORE PUSH1 0x20 ADD PUSH1 0x1 DUP3 ADD SLOAD DUP2 MSTORE PUSH1 0x20 ADD PUSH1 0x2 DUP3 ADD SLOAD DUP2 MSTORE PUSH1 0x20 ADD PUSH1 0x3 DUP3 ADD SLOAD DUP2 MSTORE PUSH1 0x20 ADD PUSH1 0x4 DUP3 ADD SLOAD DUP2 MSTORE PUSH1 0x20 ADD PUSH1 0x5 DUP3 ADD SLOAD DUP2 MSTORE PUSH1 0x20 ADD PUSH1 0x6 DUP3 ADD SLOAD DUP2 MSTORE PUSH1 0x20 ADD PUSH1 0x7 DUP3 ADD SLOAD DUP2 MSTORE PUSH1 0x20 ADD PUSH1 0x8 DUP3 ADD SLOAD DUP2 MSTORE PUSH1 0x20 ADD PUSH1 0x9 DUP3 ADD SLOAD DUP2 MSTORE PUSH1 0x20 ADD PUSH1 0xA DUP3 ADD SLOAD DUP2 MSTORE PUSH1 0x20 ADD PUSH1 0xB DUP3 ADD DUP1 SLOAD DUP1 PUSH1 0x20 MUL PUSH1 0x20 ADD PUSH1 0x40 MLOAD SWAP1 DUP2 ADD PUSH1 0x40 MSTORE DUP1 SWAP3 SWAP2 SWAP1 DUP2 DUP2 MSTORE PUSH1 0x20 ADD DUP3 DUP1 SLOAD DUP1 ISZERO PUSH2 0xCC3 JUMPI PUSH1 0x20 MUL DUP3 ADD SWAP2 SWAP1 PUSH1 0x0 MSTORE PUSH1 0x20 PUSH1 0x0 KECCAK256 SWAP1 JUMPDEST DUP2 PUSH1 0x0 SWAP1 SLOAD SWAP1 PUSH2 0x100 EXP SWAP1 DIV PUSH20 0xFFFFFFFFFFFFFFFFFFFFFFFFFFFFFFFFFFFFFFFF AND PUSH20 0xFFFFFFFFFFFFFFFFFFFFFFFFFFFFFFFFFFFFFFFF AND DUP2 MSTORE PUSH1 0x20 ADD SWAP1 PUSH1 0x1 ADD SWAP1 DUP1 DUP4 GT PUSH2 0xC79 JUMPI JUMPDEST POP POP POP POP POP DUP2 MSTORE POP POP SWAP1 POP JUMPDEST SWAP2 SWAP1 POP JUMP JUMPDEST PUSH1 0x60 DUP2 MLOAD DUP4 MLOAD EQ PUSH2 0xD1A JUMPI PUSH1 0x40 MLOAD PUSH32 0x8C379A000000000000000000000000000000000000000000000000000000000 DUP2 MSTORE PUSH1 0x4 ADD PUSH2 0xD11 SWAP1 PUSH2 0x44B1 JUMP JUMPDEST PUSH1 0x40 MLOAD DUP1 SWAP2 SUB SWAP1 REVERT JUMPDEST PUSH1 0x0 DUP4 MLOAD PUSH8 0xFFFFFFFFFFFFFFFF DUP2 GT ISZERO PUSH2 0xD37 JUMPI PUSH2 0xD36 PUSH2 0x368D JUMP JUMPDEST JUMPDEST PUSH1 0x40 MLOAD SWAP1 DUP1 DUP3 MSTORE DUP1 PUSH1 0x20 MUL PUSH1 0x20 ADD DUP3 ADD PUSH1 0x40 MSTORE DUP1 ISZERO PUSH2 0xD65 JUMPI DUP2 PUSH1 0x20 ADD PUSH1 0x20 DUP3 MUL DUP1 CALLDATASIZE DUP4 CALLDATACOPY DUP1 DUP3 ADD SWAP2 POP POP SWAP1 POP JUMPDEST POP SWAP1 POP PUSH1 0x0 JUMPDEST DUP5 MLOAD DUP2 LT ISZERO PUSH2 0xDE2 JUMPI PUSH2 0xDB2 DUP6 DUP3 DUP2 MLOAD DUP2 LT PUSH2 0xD8A JUMPI PUSH2 0xD89 PUSH2 0x43AD JUMP JUMPDEST JUMPDEST PUSH1 0x20 MUL PUSH1 0x20 ADD ADD MLOAD DUP6 DUP4 DUP2 MLOAD DUP2 LT PUSH2 0xDA5 JUMPI PUSH2 0xDA4 PUSH2 0x43AD JUMP JUMPDEST JUMPDEST PUSH1 0x20 MUL PUSH1 0x20 ADD ADD MLOAD PUSH2 0x5B2 JUMP JUMPDEST DUP3 DUP3 DUP2 MLOAD DUP2 LT PUSH2 0xDC5 JUMPI PUSH2 0xDC4 PUSH2 0x43AD JUMP JUMPDEST JUMPDEST PUSH1 0x20 MUL PUSH1 0x20 ADD ADD DUP2 DUP2 MSTORE POP POP DUP1 PUSH2 0xDDB SWAP1 PUSH2 0x44D1 JUMP JUMPDEST SWAP1 POP PUSH2 0xD6B JUMP JUMPDEST POP DUP1 SWAP2 POP POP SWAP3 SWAP2 POP POP JUMP JUMPDEST PUSH1 0x0 DUP1 PUSH2 0xDF9 DUP4 PUSH2 0x1754 JUMP JUMPDEST GT SWAP1 POP SWAP2 SWAP1 POP JUMP JUMPDEST PUSH1 0x60 PUSH1 0xA DUP1 SLOAD DUP1 PUSH1 0x20 MUL PUSH1 0x20 ADD PUSH1 0x40 MLOAD SWAP1 DUP2 ADD PUSH1 0x40 MSTORE DUP1 SWAP3 SWAP2 SWAP1 DUP2 DUP2 MSTORE PUSH1 0x20 ADD PUSH1 0x0 SWAP1 JUMPDEST DUP3 DUP3 LT ISZERO PUSH2 0xFA0 JUMPI DUP4 DUP3 SWAP1 PUSH1 0x0 MSTORE PUSH1 0x20 PUSH1 0x0 KECCAK256 SWAP1 PUSH1 0xC MUL ADD PUSH1 0x40 MLOAD DUP1 PUSH2 0x180 ADD PUSH1 0x40 MSTORE SWAP1 DUP2 PUSH1 0x0 DUP3 ADD PUSH1 0x0 SWAP1 SLOAD SWAP1 PUSH2 0x100 EXP SWAP1 DIV PUSH20 0xFFFFFFFFFFFFFFFFFFFFFFFFFFFFFFFFFFFFFFFF AND PUSH20 0xFFFFFFFFFFFFFFFFFFFFFFFFFFFFFFFFFFFFFFFF AND PUSH20 0xFFFFFFFFFFFFFFFFFFFFFFFFFFFFFFFFFFFFFFFF AND DUP2 MSTORE PUSH1 0x20 ADD PUSH1 0x1 DUP3 ADD SLOAD DUP2 MSTORE PUSH1 0x20 ADD PUSH1 0x2 DUP3 ADD SLOAD DUP2 MSTORE PUSH1 0x20 ADD PUSH1 0x3 DUP3 ADD SLOAD DUP2 MSTORE PUSH1 0x20 ADD PUSH1 0x4 DUP3 ADD SLOAD DUP2 MSTORE PUSH1 0x20 ADD PUSH1 0x5 DUP3 ADD SLOAD DUP2 MSTORE PUSH1 0x20 ADD PUSH1 0x6 DUP3 ADD SLOAD DUP2 MSTORE PUSH1 0x20 ADD PUSH1 0x7 DUP3 ADD SLOAD DUP2 MSTORE PUSH1 0x20 ADD PUSH1 0x8 DUP3 ADD SLOAD DUP2 MSTORE PUSH1 0x20 ADD PUSH1 0x9 DUP3 ADD SLOAD DUP2 MSTORE PUSH1 0x20 ADD PUSH1 0xA DUP3 ADD SLOAD DUP2 MSTORE PUSH1 0x20 ADD PUSH1 0xB DUP3 ADD DUP1 SLOAD DUP1 PUSH1 0x20 MUL PUSH1 0x20 ADD PUSH1 0x40 MLOAD SWAP1 DUP2 ADD PUSH1 0x40 MSTORE DUP1 SWAP3 SWAP2 SWAP1 DUP2 DUP2 MSTORE PUSH1 0x20 ADD DUP3 DUP1 SLOAD DUP1 ISZERO PUSH2 0xF88 JUMPI PUSH1 0x20 MUL DUP3 ADD SWAP2 SWAP1 PUSH1 0x0 MSTORE PUSH1 0x20 PUSH1 0x0 KECCAK256 SWAP1 JUMPDEST DUP2 PUSH1 0x0 SWAP1 SLOAD SWAP1 PUSH2 0x100 EXP SWAP1 DIV PUSH20 0xFFFFFFFFFFFFFFFFFFFFFFFFFFFFFFFFFFFFFFFF AND PUSH20 0xFFFFFFFFFFFFFFFFFFFFFFFFFFFFFFFFFFFFFFFF AND DUP2 MSTORE PUSH1 0x20 ADD SWAP1 PUSH1 0x1 ADD SWAP1 DUP1 DUP4 GT PUSH2 0xF3E JUMPI JUMPDEST POP POP POP POP POP DUP2 MSTORE POP POP DUP2 MSTORE PUSH1 0x20 ADD SWAP1 PUSH1 0x1 ADD SWAP1 PUSH2 0xE25 JUMP JUMPDEST POP POP POP POP SWAP1 POP SWAP1 JUMP JUMPDEST PUSH1 0x0 PUSH2 0xFB5 PUSH1 0x6 PUSH2 0x2543 JUMP JUMPDEST SWAP1 POP SWAP1 JUMP JUMPDEST PUSH1 0x0 JUMPDEST PUSH1 0xA DUP1 SLOAD SWAP1 POP DUP2 LT ISZERO PUSH2 0x133A JUMPI PUSH1 0x0 PUSH1 0xA DUP3 DUP2 SLOAD DUP2 LT PUSH2 0xFE0 JUMPI PUSH2 0xFDF PUSH2 0x43AD JUMP JUMPDEST JUMPDEST SWAP1 PUSH1 0x0 MSTORE PUSH1 0x20 PUSH1 0x0 KECCAK256 SWAP1 PUSH1 0xC MUL ADD SWAP1 POP PUSH1 0x0 DUP2 PUSH1 0x9 ADD SLOAD PUSH1 0x64 DUP4 PUSH1 0x7 ADD SLOAD PUSH2 0x1008 SWAP2 SWAP1 PUSH2 0x4519 JUMP JUMPDEST PUSH2 0x1012 SWAP2 SWAP1 PUSH2 0x454A JUMP JUMPDEST SWAP1 POP PUSH1 0x0 DUP2 DUP4 PUSH1 0x7 ADD SLOAD PUSH2 0x1026 SWAP2 SWAP1 PUSH2 0x440B JUMP JUMPDEST SWAP1 POP PUSH1 0x0 DUP4 PUSH1 0x9 ADD SLOAD PUSH1 0x64 DUP6 PUSH1 0x8 ADD SLOAD PUSH2 0x1040 SWAP2 SWAP1 PUSH2 0x4519 JUMP JUMPDEST PUSH2 0x104A SWAP2 SWAP1 PUSH2 0x454A JUMP JUMPDEST SWAP1 POP PUSH1 0x0 DUP2 DUP6 PUSH1 0x8 ADD SLOAD PUSH2 0x105E SWAP2 SWAP1 PUSH2 0x440B JUMP JUMPDEST SWAP1 POP PUSH1 0x0 DUP6 PUSH1 0xB ADD DUP1 SLOAD DUP1 PUSH1 0x20 MUL PUSH1 0x20 ADD PUSH1 0x40 MLOAD SWAP1 DUP2 ADD PUSH1 0x40 MSTORE DUP1 SWAP3 SWAP2 SWAP1 DUP2 DUP2 MSTORE PUSH1 0x20 ADD DUP3 DUP1 SLOAD DUP1 ISZERO PUSH2 0x10E6 JUMPI PUSH1 0x20 MUL DUP3 ADD SWAP2 SWAP1 PUSH1 0x0 MSTORE PUSH1 0x20 PUSH1 0x0 KECCAK256 SWAP1 JUMPDEST DUP2 PUSH1 0x0 SWAP1 SLOAD SWAP1 PUSH2 0x100 EXP SWAP1 DIV PUSH20 0xFFFFFFFFFFFFFFFFFFFFFFFFFFFFFFFFFFFFFFFF AND PUSH20 0xFFFFFFFFFFFFFFFFFFFFFFFFFFFFFFFFFFFFFFFF AND DUP2 MSTORE PUSH1 0x20 ADD SWAP1 PUSH1 0x1 ADD SWAP1 DUP1 DUP4 GT PUSH2 0x109C JUMPI JUMPDEST POP POP POP POP POP SWAP1 POP PUSH1 0x0 DUP7 PUSH1 0x3 ADD SLOAD DUP8 PUSH1 0xA ADD SLOAD PUSH1 0x64 DUP10 PUSH1 0x7 ADD SLOAD PUSH2 0x110A SWAP2 SWAP1 PUSH2 0x4519 JUMP JUMPDEST PUSH2 0x1114 SWAP2 SWAP1 PUSH2 0x454A JUMP JUMPDEST PUSH2 0x111E SWAP2 SWAP1 PUSH2 0x4519 JUMP JUMPDEST SWAP1 POP PUSH1 0x0 DUP3 MLOAD DUP3 PUSH2 0x112F SWAP2 SWAP1 PUSH2 0x454A JUMP JUMPDEST SWAP1 POP PUSH1 0x0 DUP2 DUP6 DUP9 PUSH2 0x1140 SWAP2 SWAP1 PUSH2 0x458C JUMP JUMPDEST PUSH2 0x114A SWAP2 SWAP1 PUSH2 0x440B JUMP JUMPDEST SWAP1 POP PUSH1 0x0 DUP10 PUSH1 0x7 ADD DUP2 SWAP1 SSTORE POP PUSH1 0x0 DUP10 PUSH1 0x8 ADD DUP2 SWAP1 SSTORE POP PUSH1 0x0 DUP10 PUSH1 0x0 ADD PUSH1 0x0 SWAP1 SLOAD SWAP1 PUSH2 0x100 EXP SWAP1 DIV PUSH20 0xFFFFFFFFFFFFFFFFFFFFFFFFFFFFFFFFFFFFFFFF AND PUSH20 0xFFFFFFFFFFFFFFFFFFFFFFFFFFFFFFFFFFFFFFFF AND DUP3 PUSH1 0x40 MLOAD PUSH2 0x11AA SWAP1 PUSH2 0x45F1 JUMP JUMPDEST PUSH1 0x0 PUSH1 0x40 MLOAD DUP1 DUP4 SUB DUP2 DUP6 DUP8 GAS CALL SWAP3 POP POP POP RETURNDATASIZE DUP1 PUSH1 0x0 DUP2 EQ PUSH2 0x11E7 JUMPI PUSH1 0x40 MLOAD SWAP2 POP PUSH1 0x1F NOT PUSH1 0x3F RETURNDATASIZE ADD AND DUP3 ADD PUSH1 0x40 MSTORE RETURNDATASIZE DUP3 MSTORE RETURNDATASIZE PUSH1 0x0 PUSH1 0x20 DUP5 ADD RETURNDATACOPY PUSH2 0x11EC JUMP JUMPDEST PUSH1 0x60 SWAP2 POP JUMPDEST POP POP SWAP1 POP DUP1 PUSH2 0x1230 JUMPI PUSH1 0x40 MLOAD PUSH32 0x8C379A000000000000000000000000000000000000000000000000000000000 DUP2 MSTORE PUSH1 0x4 ADD PUSH2 0x1227 SWAP1 PUSH2 0x4678 JUMP JUMPDEST PUSH1 0x40 MLOAD DUP1 SWAP2 SUB SWAP1 REVERT JUMPDEST PUSH1 0x0 JUMPDEST DUP6 MLOAD DUP2 LT ISZERO PUSH2 0x131C JUMPI PUSH1 0x0 DUP7 DUP14 DUP2 MLOAD DUP2 LT PUSH2 0x1251 JUMPI PUSH2 0x1250 PUSH2 0x43AD JUMP JUMPDEST JUMPDEST PUSH1 0x20 MUL PUSH1 0x20 ADD ADD MLOAD SWAP1 POP PUSH1 0x0 DUP2 PUSH20 0xFFFFFFFFFFFFFFFFFFFFFFFFFFFFFFFFFFFFFFFF AND DUP8 PUSH1 0x40 MLOAD PUSH2 0x1281 SWAP1 PUSH2 0x45F1 JUMP JUMPDEST PUSH1 0x0 PUSH1 0x40 MLOAD DUP1 DUP4 SUB DUP2 DUP6 DUP8 GAS CALL SWAP3 POP POP POP RETURNDATASIZE DUP1 PUSH1 0x0 DUP2 EQ PUSH2 0x12BE JUMPI PUSH1 0x40 MLOAD SWAP2 POP PUSH1 0x1F NOT PUSH1 0x3F RETURNDATASIZE ADD AND DUP3 ADD PUSH1 0x40 MSTORE RETURNDATASIZE DUP3 MSTORE RETURNDATASIZE PUSH1 0x0 PUSH1 0x20 DUP5 ADD RETURNDATACOPY PUSH2 0x12C3 JUMP JUMPDEST PUSH1 0x60 SWAP2 POP JUMPDEST POP POP SWAP1 POP DUP1 PUSH2 0x1307 JUMPI PUSH1 0x40 MLOAD PUSH32 0x8C379A000000000000000000000000000000000000000000000000000000000 DUP2 MSTORE PUSH1 0x4 ADD PUSH2 0x12FE SWAP1 PUSH2 0x470A JUMP JUMPDEST PUSH1 0x40 MLOAD DUP1 SWAP2 SUB SWAP1 REVERT JUMPDEST POP POP DUP1 DUP1 PUSH2 0x1314 SWAP1 PUSH2 0x44D1 JUMP JUMPDEST SWAP2 POP POP PUSH2 0x1233 JUMP JUMPDEST POP POP POP POP POP POP POP POP POP POP POP DUP1 DUP1 PUSH2 0x1332 SWAP1 PUSH2 0x44D1 JUMP JUMPDEST SWAP2 POP POP PUSH2 0xFBD JUMP JUMPDEST POP PUSH1 0x0 PUSH1 0x8 PUSH1 0x0 SWAP1 SLOAD SWAP1 PUSH2 0x100 EXP SWAP1 DIV PUSH20 0xFFFFFFFFFFFFFFFFFFFFFFFFFFFFFFFFFFFFFFFF AND PUSH20 0xFFFFFFFFFFFFFFFFFFFFFFFFFFFFFFFFFFFFFFFF AND SELFBALANCE PUSH1 0x40 MLOAD PUSH2 0x1383 SWAP1 PUSH2 0x45F1 JUMP JUMPDEST PUSH1 0x0 PUSH1 0x40 MLOAD DUP1 DUP4 SUB DUP2 DUP6 DUP8 GAS CALL SWAP3 POP POP POP RETURNDATASIZE DUP1 PUSH1 0x0 DUP2 EQ PUSH2 0x13C0 JUMPI PUSH1 0x40 MLOAD SWAP2 POP PUSH1 0x1F NOT PUSH1 0x3F RETURNDATASIZE ADD AND DUP3 ADD PUSH1 0x40 MSTORE RETURNDATASIZE DUP3 MSTORE RETURNDATASIZE PUSH1 0x0 PUSH1 0x20 DUP5 ADD RETURNDATACOPY PUSH2 0x13C5 JUMP JUMPDEST PUSH1 0x60 SWAP2 POP JUMPDEST POP POP SWAP1 POP DUP1 PUSH2 0x1409 JUMPI PUSH1 0x40 MLOAD PUSH32 0x8C379A000000000000000000000000000000000000000000000000000000000 DUP2 MSTORE PUSH1 0x4 ADD PUSH2 0x1400 SWAP1 PUSH2 0x479C JUMP JUMPDEST PUSH1 0x40 MLOAD DUP1 SWAP2 SUB SWAP1 REVERT JUMPDEST POP JUMP JUMPDEST PUSH1 0x0 DUP1 DUP8 GT PUSH2 0x1450 JUMPI PUSH1 0x40 MLOAD PUSH32 0x8C379A000000000000000000000000000000000000000000000000000000000 DUP2 MSTORE PUSH1 0x4 ADD PUSH2 0x1447 SWAP1 PUSH2 0x482E JUMP JUMPDEST PUSH1 0x40 MLOAD DUP1 SWAP2 SUB SWAP1 REVERT JUMPDEST PUSH2 0x145A PUSH1 0x6 PUSH2 0x2551 JUMP JUMPDEST PUSH2 0x1464 PUSH1 0x6 PUSH2 0x2543 JUMP JUMPDEST SWAP1 POP PUSH2 0x1489 CALLER DUP3 PUSH8 0xDE0B6B3A7640000 PUSH1 0x40 MLOAD DUP1 PUSH1 0x20 ADD PUSH1 0x40 MSTORE DUP1 PUSH1 0x0 DUP2 MSTORE POP PUSH2 0x2567 JUMP JUMPDEST PUSH2 0x1493 DUP2 DUP6 PUSH2 0x2717 JUMP JUMPDEST PUSH1 0x0 PUSH1 0xA PUSH1 0x1 DUP2 PUSH1 0x1 DUP2 SLOAD ADD DUP1 DUP3 SSTORE DUP1 SWAP2 POP POP SUB SWAP1 PUSH1 0x0 MSTORE PUSH1 0x20 PUSH1 0x0 KECCAK256 SWAP1 PUSH1 0xC MUL ADD SWAP1 POP CALLER DUP2 PUSH1 0x0 ADD PUSH1 0x0 PUSH2 0x100 EXP DUP2 SLOAD DUP2 PUSH20 0xFFFFFFFFFFFFFFFFFFFFFFFFFFFFFFFFFFFFFFFF MUL NOT AND SWAP1 DUP4 PUSH20 0xFFFFFFFFFFFFFFFFFFFFFFFFFFFFFFFFFFFFFFFF AND MUL OR SWAP1 SSTORE POP DUP2 DUP2 PUSH1 0x1 ADD DUP2 SWAP1 SSTORE POP DUP8 DUP2 PUSH1 0x3 ADD DUP2 SWAP1 SSTORE POP DUP7 DUP2 PUSH1 0x5 ADD DUP2 SWAP1 SSTORE POP DUP6 DUP2 PUSH1 0x6 ADD DUP2 SWAP1 SSTORE POP DUP4 DUP2 PUSH1 0x9 ADD DUP2 SWAP1 SSTORE POP DUP3 DUP2 PUSH1 0xA ADD DUP2 SWAP1 SSTORE POP PUSH2 0x153A PUSH1 0x6 PUSH2 0x2551 JUMP JUMPDEST PUSH1 0x0 PUSH2 0x1546 PUSH1 0x6 PUSH2 0x2543 JUMP JUMPDEST SWAP1 POP PUSH2 0x1563 CALLER DUP3 DUP12 PUSH1 0x40 MLOAD DUP1 PUSH1 0x20 ADD PUSH1 0x40 MSTORE DUP1 PUSH1 0x0 DUP2 MSTORE POP PUSH2 0x2567 JUMP JUMPDEST PUSH2 0x156D DUP2 DUP8 PUSH2 0x2717 JUMP JUMPDEST DUP1 DUP3 PUSH1 0x2 ADD DUP2 SWAP1 SSTORE POP PUSH2 0x15A2 CALLER PUSH1 0x7 PUSH1 0x0 SWAP1 SLOAD SWAP1 PUSH2 0x100 EXP SWAP1 DIV PUSH20 0xFFFFFFFFFFFFFFFFFFFFFFFFFFFFFFFFFFFFFFFF AND PUSH2 0x1771 JUMP JUMPDEST PUSH2 0x15D4 JUMPI PUSH2 0x15D3 PUSH1 0x7 PUSH1 0x0 SWAP1 SLOAD SWAP1 PUSH2 0x100 EXP SWAP1 DIV PUSH20 0xFFFFFFFFFFFFFFFFFFFFFFFFFFFFFFFFFFFFFFFF AND PUSH1 0x1 PUSH2 0x168E JUMP JUMPDEST JUMPDEST PUSH1 0x1 PUSH1 0xA DUP1 SLOAD SWAP1 POP PUSH2 0x15E6 SWAP2 SWAP1 PUSH2 0x440B JUMP JUMPDEST PUSH1 0xB PUSH1 0x0 DUP6 DUP2 MSTORE PUSH1 0x20 ADD SWAP1 DUP2 MSTORE PUSH1 0x20 ADD PUSH1 0x0 KECCAK256 DUP2 SWAP1 SSTORE POP PUSH32 0xE44A95D90DB666EEC698EE335D929AF1295456EF22ACF300487F3B13CEE736F1 DUP3 PUSH1 0x1 ADD SLOAD DUP4 PUSH1 0x2 ADD SLOAD DUP5 PUSH1 0x0 ADD PUSH1 0x0 SWAP1 SLOAD SWAP1 PUSH2 0x100 EXP SWAP1 DIV PUSH20 0xFFFFFFFFFFFFFFFFFFFFFFFFFFFFFFFFFFFFFFFF AND DUP6 PUSH1 0x3 ADD SLOAD DUP7 PUSH1 0x5 ADD SLOAD DUP8 PUSH1 0x6 ADD SLOAD DUP9 PUSH1 0x9 ADD SLOAD DUP10 PUSH1 0xA ADD SLOAD PUSH1 0x40 MLOAD PUSH2 0x167A SWAP9 SWAP8 SWAP7 SWAP6 SWAP5 SWAP4 SWAP3 SWAP2 SWAP1 PUSH2 0x484E JUMP JUMPDEST PUSH1 0x40 MLOAD DUP1 SWAP2 SUB SWAP1 LOG1 POP POP SWAP7 SWAP6 POP POP POP POP POP POP JUMP JUMPDEST PUSH2 0x16A0 PUSH2 0x1699 PUSH2 0x221A JUMP JUMPDEST DUP4 DUP4 PUSH2 0x277C JUMP JUMPDEST POP POP JUMP JUMPDEST PUSH1 0x8 PUSH1 0x0 SWAP1 SLOAD SWAP1 PUSH2 0x100 EXP SWAP1 DIV PUSH20 0xFFFFFFFFFFFFFFFFFFFFFFFFFFFFFFFFFFFFFFFF AND DUP2 JUMP JUMPDEST PUSH1 0xA DUP2 DUP2 SLOAD DUP2 LT PUSH2 0x16DA JUMPI PUSH1 0x0 DUP1 REVERT JUMPDEST SWAP1 PUSH1 0x0 MSTORE PUSH1 0x20 PUSH1 0x0 KECCAK256 SWAP1 PUSH1 0xC MUL ADD PUSH1 0x0 SWAP2 POP SWAP1 POP DUP1 PUSH1 0x0 ADD PUSH1 0x0 SWAP1 SLOAD SWAP1 PUSH2 0x100 EXP SWAP1 DIV PUSH20 0xFFFFFFFFFFFFFFFFFFFFFFFFFFFFFFFFFFFFFFFF AND SWAP1 DUP1 PUSH1 0x1 ADD SLOAD SWAP1 DUP1 PUSH1 0x2 ADD SLOAD SWAP1 DUP1 PUSH1 0x3 ADD SLOAD SWAP1 DUP1 PUSH1 0x4 ADD SLOAD SWAP1 DUP1 PUSH1 0x5 ADD SLOAD SWAP1 DUP1 PUSH1 0x6 ADD SLOAD SWAP1 DUP1 PUSH1 0x7 ADD SLOAD SWAP1 DUP1 PUSH1 0x8 ADD SLOAD SWAP1 DUP1 PUSH1 0x9 ADD SLOAD SWAP1 DUP1 PUSH1 0xA ADD SLOAD SWAP1 POP DUP12 JUMP JUMPDEST PUSH1 0x0 PUSH1 0x5 PUSH1 0x0 DUP4 DUP2 MSTORE PUSH1 0x20 ADD SWAP1 DUP2 MSTORE PUSH1 0x20 ADD PUSH1 0x0 KECCAK256 SLOAD SWAP1 POP SWAP2 SWAP1 POP JUMP JUMPDEST PUSH1 0x0 PUSH1 0x1 PUSH1 0x0 DUP5 PUSH20 0xFFFFFFFFFFFFFFFFFFFFFFFFFFFFFFFFFFFFFFFF AND PUSH20 0xFFFFFFFFFFFFFFFFFFFFFFFFFFFFFFFFFFFFFFFF AND DUP2 MSTORE PUSH1 0x20 ADD SWAP1 DUP2 MSTORE PUSH1 0x20 ADD PUSH1 0x0 KECCAK256 PUSH1 0x0 DUP4 PUSH20 0xFFFFFFFFFFFFFFFFFFFFFFFFFFFFFFFFFFFFFFFF AND PUSH20 0xFFFFFFFFFFFFFFFFFFFFFFFFFFFFFFFFFFFFFFFF AND DUP2 MSTORE PUSH1 0x20 ADD SWAP1 DUP2 MSTORE PUSH1 0x20 ADD PUSH1 0x0 KECCAK256 PUSH1 0x0 SWAP1 SLOAD SWAP1 PUSH2 0x100 EXP SWAP1 DIV PUSH1 0xFF AND SWAP1 POP SWAP3 SWAP2 POP POP JUMP JUMPDEST PUSH1 0x0 DUP1 PUSH1 0x2 DUP4 PUSH2 0x1815 SWAP2 SWAP1 PUSH2 0x4310 JUMP JUMPDEST EQ PUSH2 0x189E JUMPI PUSH2 0x1823 DUP3 PUSH2 0xDED JUMP JUMPDEST PUSH2 0x1862 JUMPI PUSH1 0x40 MLOAD PUSH32 0x8C379A000000000000000000000000000000000000000000000000000000000 DUP2 MSTORE PUSH1 0x4 ADD PUSH2 0x1859 SWAP1 PUSH2 0x438D JUMP JUMPDEST PUSH1 0x40 MLOAD DUP1 SWAP2 SUB SWAP1 REVERT JUMPDEST PUSH1 0xA PUSH1 0xB PUSH1 0x0 DUP5 DUP2 MSTORE PUSH1 0x20 ADD SWAP1 DUP2 MSTORE PUSH1 0x20 ADD PUSH1 0x0 KECCAK256 SLOAD DUP2 SLOAD DUP2 LT PUSH2 0x1889 JUMPI PUSH2 0x1888 PUSH2 0x43AD JUMP JUMPDEST JUMPDEST SWAP1 PUSH1 0x0 MSTORE PUSH1 0x20 PUSH1 0x0 KECCAK256 SWAP1 PUSH1 0xC MUL ADD SWAP1 POP PUSH2 0x1936 JUMP JUMPDEST PUSH2 0x18B3 PUSH1 0x1 DUP4 PUSH2 0x18AE SWAP2 SWAP1 PUSH2 0x440B JUMP JUMPDEST PUSH2 0xDED JUMP JUMPDEST PUSH2 0x18F2 JUMPI PUSH1 0x40 MLOAD PUSH32 0x8C379A000000000000000000000000000000000000000000000000000000000 DUP2 MSTORE PUSH1 0x4 ADD PUSH2 0x18E9 SWAP1 PUSH2 0x438D JUMP JUMPDEST PUSH1 0x40 MLOAD DUP1 SWAP2 SUB SWAP1 REVERT JUMPDEST PUSH1 0xA PUSH1 0xB PUSH1 0x0 PUSH1 0x1 DUP6 PUSH2 0x1905 SWAP2 SWAP1 PUSH2 0x440B JUMP JUMPDEST DUP2 MSTORE PUSH1 0x20 ADD SWAP1 DUP2 MSTORE PUSH1 0x20 ADD PUSH1 0x0 KECCAK256 SLOAD DUP2 SLOAD DUP2 LT PUSH2 0x1925 JUMPI PUSH2 0x1924 PUSH2 0x43AD JUMP JUMPDEST JUMPDEST SWAP1 PUSH1 0x0 MSTORE PUSH1 0x20 PUSH1 0x0 KECCAK256 SWAP1 PUSH1 0xC MUL ADD SWAP1 POP JUMPDEST PUSH2 0x1943 DUP2 PUSH1 0x1 ADD SLOAD PUSH2 0xDED JUMP JUMPDEST PUSH2 0x1982 JUMPI PUSH1 0x40 MLOAD PUSH32 0x8C379A000000000000000000000000000000000000000000000000000000000 DUP2 MSTORE PUSH1 0x4 ADD PUSH2 0x1979 SWAP1 PUSH2 0x493E JUMP JUMPDEST PUSH1 0x40 MLOAD DUP1 SWAP2 SUB SWAP1 REVERT JUMPDEST DUP1 PUSH1 0x5 ADD SLOAD CALLVALUE LT ISZERO PUSH2 0x19C9 JUMPI PUSH1 0x40 MLOAD PUSH32 0x8C379A000000000000000000000000000000000000000000000000000000000 DUP2 MSTORE PUSH1 0x4 ADD PUSH2 0x19C0 SWAP1 PUSH2 0x49AA JUMP JUMPDEST PUSH1 0x40 MLOAD DUP1 SWAP2 SUB SWAP1 REVERT JUMPDEST CALLER PUSH20 0xFFFFFFFFFFFFFFFFFFFFFFFFFFFFFFFFFFFFFFFF AND DUP2 PUSH1 0x0 ADD PUSH1 0x0 SWAP1 SLOAD SWAP1 PUSH2 0x100 EXP SWAP1 DIV PUSH20 0xFFFFFFFFFFFFFFFFFFFFFFFFFFFFFFFFFFFFFFFF AND PUSH20 0xFFFFFFFFFFFFFFFFFFFFFFFFFFFFFFFFFFFFFFFF AND SUB PUSH2 0x1A5B JUMPI PUSH1 0x40 MLOAD PUSH32 0x8C379A000000000000000000000000000000000000000000000000000000000 DUP2 MSTORE PUSH1 0x4 ADD PUSH2 0x1A52 SWAP1 PUSH2 0x4A16 JUMP JUMPDEST PUSH1 0x40 MLOAD DUP1 SWAP2 SUB SWAP1 REVERT JUMPDEST CALLVALUE DUP2 PUSH1 0x7 ADD PUSH1 0x0 DUP3 DUP3 SLOAD PUSH2 0x1A6F SWAP2 SWAP1 PUSH2 0x458C JUMP JUMPDEST SWAP3 POP POP DUP2 SWAP1 SSTORE POP PUSH1 0x7 PUSH1 0x0 SWAP1 SLOAD SWAP1 PUSH2 0x100 EXP SWAP1 DIV PUSH20 0xFFFFFFFFFFFFFFFFFFFFFFFFFFFFFFFFFFFFFFFF AND PUSH20 0xFFFFFFFFFFFFFFFFFFFFFFFFFFFFFFFFFFFFFFFF AND PUSH4 0x13F2DA7B DUP3 PUSH1 0x1 ADD SLOAD ADDRESS DUP5 PUSH1 0x0 ADD PUSH1 0x0 SWAP1 SLOAD SWAP1 PUSH2 0x100 EXP SWAP1 DIV PUSH20 0xFFFFFFFFFFFFFFFFFFFFFFFFFFFFFFFFFFFFFFFF AND CALLER PUSH1 0x40 MLOAD DUP6 PUSH4 0xFFFFFFFF AND PUSH1 0xE0 SHL DUP2 MSTORE PUSH1 0x4 ADD PUSH2 0x1AFF SWAP5 SWAP4 SWAP3 SWAP2 SWAP1 PUSH2 0x4A57 JUMP JUMPDEST PUSH1 0x0 PUSH1 0x40 MLOAD DUP1 DUP4 SUB DUP2 PUSH1 0x0 DUP8 DUP1 EXTCODESIZE ISZERO DUP1 ISZERO PUSH2 0x1B19 JUMPI PUSH1 0x0 DUP1 REVERT JUMPDEST POP GAS CALL ISZERO DUP1 ISZERO PUSH2 0x1B2D JUMPI RETURNDATASIZE PUSH1 0x0 DUP1 RETURNDATACOPY RETURNDATASIZE PUSH1 0x0 REVERT JUMPDEST POP POP POP POP PUSH1 0x9 PUSH1 0x0 CALLER PUSH20 0xFFFFFFFFFFFFFFFFFFFFFFFFFFFFFFFFFFFFFFFF AND PUSH20 0xFFFFFFFFFFFFFFFFFFFFFFFFFFFFFFFFFFFFFFFF AND DUP2 MSTORE PUSH1 0x20 ADD SWAP1 DUP2 MSTORE PUSH1 0x20 ADD PUSH1 0x0 KECCAK256 DUP3 SWAP1 DUP1 PUSH1 0x1 DUP2 SLOAD ADD DUP1 DUP3 SSTORE DUP1 SWAP2 POP POP PUSH1 0x1 SWAP1 SUB SWAP1 PUSH1 0x0 MSTORE PUSH1 0x20 PUSH1 0x0 KECCAK256 ADD PUSH1 0x0 SWAP1 SWAP2 SWAP1 SWAP2 SWAP1 SWAP2 POP SSTORE PUSH32 0x4D30D6EF2C1B6DC4FB27350A8A71229EA6D6A3220BE9DB153486F9BBDA5E6EC DUP3 CALLER PUSH1 0x40 MLOAD PUSH2 0x1BC8 SWAP3 SWAP2 SWAP1 PUSH2 0x4A9C JUMP JUMPDEST PUSH1 0x40 MLOAD DUP1 SWAP2 SUB SWAP1 LOG1 POP POP JUMP JUMPDEST PUSH2 0x1BDC PUSH2 0x221A JUMP JUMPDEST PUSH20 0xFFFFFFFFFFFFFFFFFFFFFFFFFFFFFFFFFFFFFFFF AND DUP6 PUSH20 0xFFFFFFFFFFFFFFFFFFFFFFFFFFFFFFFFFFFFFFFF AND EQ DUP1 PUSH2 0x1C22 JUMPI POP PUSH2 0x1C21 DUP6 PUSH2 0x1C1C PUSH2 0x221A JUMP JUMPDEST PUSH2 0x1771 JUMP JUMPDEST JUMPDEST PUSH2 0x1C61 JUMPI PUSH1 0x40 MLOAD PUSH32 0x8C379A000000000000000000000000000000000000000000000000000000000 DUP2 MSTORE PUSH1 0x4 ADD PUSH2 0x1C58 SWAP1 PUSH2 0x42C1 JUMP JUMPDEST PUSH1 0x40 MLOAD DUP1 SWAP2 SUB SWAP1 REVERT JUMPDEST PUSH2 0x1C6E DUP6 DUP6 DUP6 DUP6 DUP6 PUSH2 0x28E8 JUMP JUMPDEST POP POP POP POP POP JUMP JUMPDEST PUSH1 0x0 DUP1 PUSH1 0x2 DUP4 PUSH2 0x1C85 SWAP2 SWAP1 PUSH2 0x4310 JUMP JUMPDEST EQ PUSH2 0x1D0E JUMPI PUSH2 0x1C93 DUP3 PUSH2 0xDED JUMP JUMPDEST PUSH2 0x1CD2 JUMPI PUSH1 0x40 MLOAD PUSH32 0x8C379A000000000000000000000000000000000000000000000000000000000 DUP2 MSTORE PUSH1 0x4 ADD PUSH2 0x1CC9 SWAP1 PUSH2 0x438D JUMP JUMPDEST PUSH1 0x40 MLOAD DUP1 SWAP2 SUB SWAP1 REVERT JUMPDEST PUSH1 0xA PUSH1 0xB PUSH1 0x0 DUP5 DUP2 MSTORE PUSH1 0x20 ADD SWAP1 DUP2 MSTORE PUSH1 0x20 ADD PUSH1 0x0 KECCAK256 SLOAD DUP2 SLOAD DUP2 LT PUSH2 0x1CF9 JUMPI PUSH2 0x1CF8 PUSH2 0x43AD JUMP JUMPDEST JUMPDEST SWAP1 PUSH1 0x0 MSTORE PUSH1 0x20 PUSH1 0x0 KECCAK256 SWAP1 PUSH1 0xC MUL ADD SWAP1 POP PUSH2 0x1DA6 JUMP JUMPDEST PUSH2 0x1D23 PUSH1 0x1 DUP4 PUSH2 0x1D1E SWAP2 SWAP1 PUSH2 0x440B JUMP JUMPDEST PUSH2 0xDED JUMP JUMPDEST PUSH2 0x1D62 JUMPI PUSH1 0x40 MLOAD PUSH32 0x8C379A000000000000000000000000000000000000000000000000000000000 DUP2 MSTORE PUSH1 0x4 ADD PUSH2 0x1D59 SWAP1 PUSH2 0x438D JUMP JUMPDEST PUSH1 0x40 MLOAD DUP1 SWAP2 SUB SWAP1 REVERT JUMPDEST PUSH1 0xA PUSH1 0xB PUSH1 0x0 PUSH1 0x1 DUP6 PUSH2 0x1D75 SWAP2 SWAP1 PUSH2 0x440B JUMP JUMPDEST DUP2 MSTORE PUSH1 0x20 ADD SWAP1 DUP2 MSTORE PUSH1 0x20 ADD PUSH1 0x0 KECCAK256 SLOAD DUP2 SLOAD DUP2 LT PUSH2 0x1D95 JUMPI PUSH2 0x1D94 PUSH2 0x43AD JUMP JUMPDEST JUMPDEST SWAP1 PUSH1 0x0 MSTORE PUSH1 0x20 PUSH1 0x0 KECCAK256 SWAP1 PUSH1 0xC MUL ADD SWAP1 POP JUMPDEST DUP1 PUSH1 0x3 ADD SLOAD DUP2 PUSH1 0x4 ADD SLOAD LT PUSH2 0x1DF0 JUMPI PUSH1 0x40 MLOAD PUSH32 0x8C379A000000000000000000000000000000000000000000000000000000000 DUP2 MSTORE PUSH1 0x4 ADD PUSH2 0x1DE7 SWAP1 PUSH2 0x4AE8 JUMP JUMPDEST PUSH1 0x40 MLOAD DUP1 SWAP2 SUB SWAP1 REVERT JUMPDEST DUP1 PUSH1 0x6 ADD SLOAD CALLVALUE LT ISZERO PUSH2 0x1E37 JUMPI PUSH1 0x40 MLOAD PUSH32 0x8C379A000000000000000000000000000000000000000000000000000000000 DUP2 MSTORE PUSH1 0x4 ADD PUSH2 0x1E2E SWAP1 PUSH2 0x49AA JUMP JUMPDEST PUSH1 0x40 MLOAD DUP1 SWAP2 SUB SWAP1 REVERT JUMPDEST CALLER PUSH20 0xFFFFFFFFFFFFFFFFFFFFFFFFFFFFFFFFFFFFFFFF AND DUP2 PUSH1 0x0 ADD PUSH1 0x0 SWAP1 SLOAD SWAP1 PUSH2 0x100 EXP SWAP1 DIV PUSH20 0xFFFFFFFFFFFFFFFFFFFFFFFFFFFFFFFFFFFFFFFF AND PUSH20 0xFFFFFFFFFFFFFFFFFFFFFFFFFFFFFFFFFFFFFFFF AND SUB PUSH2 0x1EC9 JUMPI PUSH1 0x40 MLOAD PUSH32 0x8C379A000000000000000000000000000000000000000000000000000000000 DUP2 MSTORE PUSH1 0x4 ADD PUSH2 0x1EC0 SWAP1 PUSH2 0x4A16 JUMP JUMPDEST PUSH1 0x40 MLOAD DUP1 SWAP2 SUB SWAP1 REVERT JUMPDEST PUSH1 0x1 DUP2 PUSH1 0x4 ADD PUSH1 0x0 DUP3 DUP3 SLOAD PUSH2 0x1EDE SWAP2 SWAP1 PUSH2 0x458C JUMP JUMPDEST SWAP3 POP POP DUP2 SWAP1 SSTORE POP CALLVALUE DUP2 PUSH1 0x8 ADD PUSH1 0x0 DUP3 DUP3 SLOAD PUSH2 0x1EF9 SWAP2 SWAP1 PUSH2 0x458C JUMP JUMPDEST SWAP3 POP POP DUP2 SWAP1 SSTORE POP DUP1 PUSH1 0xB ADD CALLER SWAP1 DUP1 PUSH1 0x1 DUP2 SLOAD ADD DUP1 DUP3 SSTORE DUP1 SWAP2 POP POP PUSH1 0x1 SWAP1 SUB SWAP1 PUSH1 0x0 MSTORE PUSH1 0x20 PUSH1 0x0 KECCAK256 ADD PUSH1 0x0 SWAP1 SWAP2 SWAP1 SWAP2 SWAP1 SWAP2 PUSH2 0x100 EXP DUP2 SLOAD DUP2 PUSH20 0xFFFFFFFFFFFFFFFFFFFFFFFFFFFFFFFFFFFFFFFF MUL NOT AND SWAP1 DUP4 PUSH20 0xFFFFFFFFFFFFFFFFFFFFFFFFFFFFFFFFFFFFFFFF AND MUL OR SWAP1 SSTORE POP PUSH1 0x7 PUSH1 0x0 SWAP1 SLOAD SWAP1 PUSH2 0x100 EXP SWAP1 DIV PUSH20 0xFFFFFFFFFFFFFFFFFFFFFFFFFFFFFFFFFFFFFFFF AND PUSH20 0xFFFFFFFFFFFFFFFFFFFFFFFFFFFFFFFFFFFFFFFF AND PUSH4 0x13F2DA7B DUP3 PUSH1 0x2 ADD SLOAD ADDRESS DUP5 PUSH1 0x0 ADD PUSH1 0x0 SWAP1 SLOAD SWAP1 PUSH2 0x100 EXP SWAP1 DIV PUSH20 0xFFFFFFFFFFFFFFFFFFFFFFFFFFFFFFFFFFFFFFFF AND CALLER PUSH1 0x40 MLOAD DUP6 PUSH4 0xFFFFFFFF AND PUSH1 0xE0 SHL DUP2 MSTORE PUSH1 0x4 ADD PUSH2 0x1FEE SWAP5 SWAP4 SWAP3 SWAP2 SWAP1 PUSH2 0x4A57 JUMP JUMPDEST PUSH1 0x0 PUSH1 0x40 MLOAD DUP1 DUP4 SUB DUP2 PUSH1 0x0 DUP8 DUP1 EXTCODESIZE ISZERO DUP1 ISZERO PUSH2 0x2008 JUMPI PUSH1 0x0 DUP1 REVERT JUMPDEST POP GAS CALL ISZERO DUP1 ISZERO PUSH2 0x201C JUMPI RETURNDATASIZE PUSH1 0x0 DUP1 RETURNDATACOPY RETURNDATASIZE PUSH1 0x0 REVERT JUMPDEST POP POP POP POP PUSH1 0x9 PUSH1 0x0 CALLER PUSH20 0xFFFFFFFFFFFFFFFFFFFFFFFFFFFFFFFFFFFFFFFF AND PUSH20 0xFFFFFFFFFFFFFFFFFFFFFFFFFFFFFFFFFFFFFFFF AND DUP2 MSTORE PUSH1 0x20 ADD SWAP1 DUP2 MSTORE PUSH1 0x20 ADD PUSH1 0x0 KECCAK256 DUP2 PUSH1 0x2 ADD SLOAD SWAP1 DUP1 PUSH1 0x1 DUP2 SLOAD ADD DUP1 DUP3 SSTORE DUP1 SWAP2 POP POP PUSH1 0x1 SWAP1 SUB SWAP1 PUSH1 0x0 MSTORE PUSH1 0x20 PUSH1 0x0 KECCAK256 ADD PUSH1 0x0 SWAP1 SWAP2 SWAP1 SWAP2 SWAP1 SWAP2 POP SSTORE PUSH32 0x535D4BF1D4FD06876E3BED38C167C7631C9C1C0F1BAB9B408655C7A724E4B2F7 DUP2 PUSH1 0x2 ADD SLOAD CALLER PUSH1 0x40 MLOAD PUSH2 0x20BF SWAP3 SWAP2 SWAP1 PUSH2 0x4A9C JUMP JUMPDEST PUSH1 0x40 MLOAD DUP1 SWAP2 SUB SWAP1 LOG1 POP POP JUMP JUMPDEST PUSH1 0x0 PUSH32 0x1FFC9A700000000000000000000000000000000000000000000000000000000 PUSH28 0xFFFFFFFFFFFFFFFFFFFFFFFFFFFFFFFFFFFFFFFFFFFFFFFFFFFFFFFF NOT AND DUP3 PUSH28 0xFFFFFFFFFFFFFFFFFFFFFFFFFFFFFFFFFFFFFFFFFFFFFFFFFFFFFFFF NOT AND EQ SWAP1 POP SWAP2 SWAP1 POP JUMP JUMPDEST PUSH1 0x60 PUSH1 0x0 PUSH1 0x4 PUSH1 0x0 DUP5 DUP2 MSTORE PUSH1 0x20 ADD SWAP1 DUP2 MSTORE PUSH1 0x20 ADD PUSH1 0x0 KECCAK256 DUP1 SLOAD PUSH2 0x2157 SWAP1 PUSH2 0x4B37 JUMP JUMPDEST DUP1 PUSH1 0x1F ADD PUSH1 0x20 DUP1 SWAP2 DIV MUL PUSH1 0x20 ADD PUSH1 0x40 MLOAD SWAP1 DUP2 ADD PUSH1 0x40 MSTORE DUP1 SWAP3 SWAP2 SWAP1 DUP2 DUP2 MSTORE PUSH1 0x20 ADD DUP3 DUP1 SLOAD PUSH2 0x2183 SWAP1 PUSH2 0x4B37 JUMP JUMPDEST DUP1 ISZERO PUSH2 0x21D0 JUMPI DUP1 PUSH1 0x1F LT PUSH2 0x21A5 JUMPI PUSH2 0x100 DUP1 DUP4 SLOAD DIV MUL DUP4 MSTORE SWAP2 PUSH1 0x20 ADD SWAP2 PUSH2 0x21D0 JUMP JUMPDEST DUP3 ADD SWAP2 SWAP1 PUSH1 0x0 MSTORE PUSH1 0x20 PUSH1 0x0 KECCAK256 SWAP1 JUMPDEST DUP2 SLOAD DUP2 MSTORE SWAP1 PUSH1 0x1 ADD SWAP1 PUSH1 0x20 ADD DUP1 DUP4 GT PUSH2 0x21B3 JUMPI DUP3 SWAP1 SUB PUSH1 0x1F AND DUP3 ADD SWAP2 JUMPDEST POP POP POP POP POP SWAP1 POP PUSH1 0x0 DUP2 MLOAD GT PUSH2 0x21EE JUMPI PUSH2 0x21E9 DUP4 PUSH2 0x2B83 JUMP JUMPDEST PUSH2 0x2212 JUMP JUMPDEST PUSH1 0x3 DUP2 PUSH1 0x40 MLOAD PUSH1 0x20 ADD PUSH2 0x2202 SWAP3 SWAP2 SWAP1 PUSH2 0x4C3C JUMP JUMPDEST PUSH1 0x40 MLOAD PUSH1 0x20 DUP2 DUP4 SUB SUB DUP2 MSTORE SWAP1 PUSH1 0x40 MSTORE JUMPDEST SWAP2 POP POP SWAP2 SWAP1 POP JUMP JUMPDEST PUSH1 0x0 CALLER SWAP1 POP SWAP1 JUMP JUMPDEST DUP2 MLOAD DUP4 MLOAD EQ PUSH2 0x2266 JUMPI PUSH1 0x40 MLOAD PUSH32 0x8C379A000000000000000000000000000000000000000000000000000000000 DUP2 MSTORE PUSH1 0x4 ADD PUSH2 0x225D SWAP1 PUSH2 0x4CD2 JUMP JUMPDEST PUSH1 0x40 MLOAD DUP1 SWAP2 SUB SWAP1 REVERT JUMPDEST PUSH1 0x0 PUSH20 0xFFFFFFFFFFFFFFFFFFFFFFFFFFFFFFFFFFFFFFFF AND DUP5 PUSH20 0xFFFFFFFFFFFFFFFFFFFFFFFFFFFFFFFFFFFFFFFF AND SUB PUSH2 0x22D5 JUMPI PUSH1 0x40 MLOAD PUSH32 0x8C379A000000000000000000000000000000000000000000000000000000000 DUP2 MSTORE PUSH1 0x4 ADD PUSH2 0x22CC SWAP1 PUSH2 0x4D64 JUMP JUMPDEST PUSH1 0x40 MLOAD DUP1 SWAP2 SUB SWAP1 REVERT JUMPDEST PUSH1 0x0 PUSH2 0x22DF PUSH2 0x221A JUMP JUMPDEST SWAP1 POP PUSH2 0x22EF DUP2 DUP8 DUP8 DUP8 DUP8 DUP8 PUSH2 0x2C17 JUMP JUMPDEST PUSH1 0x0 JUMPDEST DUP5 MLOAD DUP2 LT ISZERO PUSH2 0x24A0 JUMPI PUSH1 0x0 DUP6 DUP3 DUP2 MLOAD DUP2 LT PUSH2 0x2310 JUMPI PUSH2 0x230F PUSH2 0x43AD JUMP JUMPDEST JUMPDEST PUSH1 0x20 MUL PUSH1 0x20 ADD ADD MLOAD SWAP1 POP PUSH1 0x0 DUP6 DUP4 DUP2 MLOAD DUP2 LT PUSH2 0x232F JUMPI PUSH2 0x232E PUSH2 0x43AD JUMP JUMPDEST JUMPDEST PUSH1 0x20 MUL PUSH1 0x20 ADD ADD MLOAD SWAP1 POP PUSH1 0x0 DUP1 PUSH1 0x0 DUP5 DUP2 MSTORE PUSH1 0x20 ADD SWAP1 DUP2 MSTORE PUSH1 0x20 ADD PUSH1 0x0 KECCAK256 PUSH1 0x0 DUP12 PUSH20 0xFFFFFFFFFFFFFFFFFFFFFFFFFFFFFFFFFFFFFFFF AND PUSH20 0xFFFFFFFFFFFFFFFFFFFFFFFFFFFFFFFFFFFFFFFF AND DUP2 MSTORE PUSH1 0x20 ADD SWAP1 DUP2 MSTORE PUSH1 0x20 ADD PUSH1 0x0 KECCAK256 SLOAD SWAP1 POP DUP2 DUP2 LT ISZERO PUSH2 0x23D0 JUMPI PUSH1 0x40 MLOAD PUSH32 0x8C379A000000000000000000000000000000000000000000000000000000000 DUP2 MSTORE PUSH1 0x4 ADD PUSH2 0x23C7 SWAP1 PUSH2 0x4DF6 JUMP JUMPDEST PUSH1 0x40 MLOAD DUP1 SWAP2 SUB SWAP1 REVERT JUMPDEST DUP2 DUP2 SUB PUSH1 0x0 DUP1 DUP6 DUP2 MSTORE PUSH1 0x20 ADD SWAP1 DUP2 MSTORE PUSH1 0x20 ADD PUSH1 0x0 KECCAK256 PUSH1 0x0 DUP13 PUSH20 0xFFFFFFFFFFFFFFFFFFFFFFFFFFFFFFFFFFFFFFFF AND PUSH20 0xFFFFFFFFFFFFFFFFFFFFFFFFFFFFFFFFFFFFFFFF AND DUP2 MSTORE PUSH1 0x20 ADD SWAP1 DUP2 MSTORE PUSH1 0x20 ADD PUSH1 0x0 KECCAK256 DUP2 SWAP1 SSTORE POP DUP2 PUSH1 0x0 DUP1 DUP6 DUP2 MSTORE PUSH1 0x20 ADD SWAP1 DUP2 MSTORE PUSH1 0x20 ADD PUSH1 0x0 KECCAK256 PUSH1 0x0 DUP12 PUSH20 0xFFFFFFFFFFFFFFFFFFFFFFFFFFFFFFFFFFFFFFFF AND PUSH20 0xFFFFFFFFFFFFFFFFFFFFFFFFFFFFFFFFFFFFFFFF AND DUP2 MSTORE PUSH1 0x20 ADD SWAP1 DUP2 MSTORE PUSH1 0x20 ADD PUSH1 0x0 KECCAK256 PUSH1 0x0 DUP3 DUP3 SLOAD PUSH2 0x2485 SWAP2 SWAP1 PUSH2 0x458C JUMP JUMPDEST SWAP3 POP POP DUP2 SWAP1 SSTORE POP POP POP POP DUP1 PUSH2 0x2499 SWAP1 PUSH2 0x44D1 JUMP JUMPDEST SWAP1 POP PUSH2 0x22F2 JUMP JUMPDEST POP DUP5 PUSH20 0xFFFFFFFFFFFFFFFFFFFFFFFFFFFFFFFFFFFFFFFF AND DUP7 PUSH20 0xFFFFFFFFFFFFFFFFFFFFFFFFFFFFFFFFFFFFFFFF AND DUP3 PUSH20 0xFFFFFFFFFFFFFFFFFFFFFFFFFFFFFFFFFFFFFFFF AND PUSH32 0x4A39DC06D4C0DBC64B70AF90FD698A233A518AA5D07E595D983B8C0526C8F7FB DUP8 DUP8 PUSH1 0x40 MLOAD PUSH2 0x2517 SWAP3 SWAP2 SWAP1 PUSH2 0x4E16 JUMP JUMPDEST PUSH1 0x40 MLOAD DUP1 SWAP2 SUB SWAP1 LOG4 PUSH2 0x252D DUP2 DUP8 DUP8 DUP8 DUP8 DUP8 PUSH2 0x2C2D JUMP JUMPDEST PUSH2 0x253B DUP2 DUP8 DUP8 DUP8 DUP8 DUP8 PUSH2 0x2C35 JUMP JUMPDEST POP POP POP POP POP POP JUMP JUMPDEST PUSH1 0x0 DUP2 PUSH1 0x0 ADD SLOAD SWAP1 POP SWAP2 SWAP1 POP JUMP JUMPDEST PUSH1 0x1 DUP2 PUSH1 0x0 ADD PUSH1 0x0 DUP3 DUP3 SLOAD ADD SWAP3 POP POP DUP2 SWAP1 SSTORE POP POP JUMP JUMPDEST PUSH1 0x0 PUSH20 0xFFFFFFFFFFFFFFFFFFFFFFFFFFFFFFFFFFFFFFFF AND DUP5 PUSH20 0xFFFFFFFFFFFFFFFFFFFFFFFFFFFFFFFFFFFFFFFF AND SUB PUSH2 0x25D6 JUMPI PUSH1 0x40 MLOAD PUSH32 0x8C379A000000000000000000000000000000000000000000000000000000000 DUP2 MSTORE PUSH1 0x4 ADD PUSH2 0x25CD SWAP1 PUSH2 0x4EBF JUMP JUMPDEST PUSH1 0x40 MLOAD DUP1 SWAP2 SUB SWAP1 REVERT JUMPDEST PUSH1 0x0 PUSH2 0x25E0 PUSH2 0x221A JUMP JUMPDEST SWAP1 POP PUSH1 0x0 PUSH2 0x25ED DUP6 PUSH2 0x2E0C JUMP JUMPDEST SWAP1 POP PUSH1 0x0 PUSH2 0x25FA DUP6 PUSH2 0x2E0C JUMP JUMPDEST SWAP1 POP PUSH2 0x260B DUP4 PUSH1 0x0 DUP10 DUP6 DUP6 DUP10 PUSH2 0x2C17 JUMP JUMPDEST DUP5 PUSH1 0x0 DUP1 DUP9 DUP2 MSTORE PUSH1 0x20 ADD SWAP1 DUP2 MSTORE PUSH1 0x20 ADD PUSH1 0x0 KECCAK256 PUSH1 0x0 DUP10 PUSH20 0xFFFFFFFFFFFFFFFFFFFFFFFFFFFFFFFFFFFFFFFF AND PUSH20 0xFFFFFFFFFFFFFFFFFFFFFFFFFFFFFFFFFFFFFFFF AND DUP2 MSTORE PUSH1 0x20 ADD SWAP1 DUP2 MSTORE PUSH1 0x20 ADD PUSH1 0x0 KECCAK256 PUSH1 0x0 DUP3 DUP3 SLOAD PUSH2 0x266A SWAP2 SWAP1 PUSH2 0x458C JUMP JUMPDEST SWAP3 POP POP DUP2 SWAP1 SSTORE POP DUP7 PUSH20 0xFFFFFFFFFFFFFFFFFFFFFFFFFFFFFFFFFFFFFFFF AND PUSH1 0x0 PUSH20 0xFFFFFFFFFFFFFFFFFFFFFFFFFFFFFFFFFFFFFFFF AND DUP5 PUSH20 0xFFFFFFFFFFFFFFFFFFFFFFFFFFFFFFFFFFFFFFFF AND PUSH32 0xC3D58168C5AE7397731D063D5BBF3D657854427343F4C083240F7AACAA2D0F62 DUP10 DUP10 PUSH1 0x40 MLOAD PUSH2 0x26E8 SWAP3 SWAP2 SWAP1 PUSH2 0x4EDF JUMP JUMPDEST PUSH1 0x40 MLOAD DUP1 SWAP2 SUB SWAP1 LOG4 PUSH2 0x26FF DUP4 PUSH1 0x0 DUP10 DUP6 DUP6 DUP10 PUSH2 0x2C2D JUMP JUMPDEST PUSH2 0x270E DUP4 PUSH1 0x0 DUP10 DUP10 DUP10 DUP10 PUSH2 0x2E86 JUMP JUMPDEST POP POP POP POP POP POP POP JUMP JUMPDEST DUP1 PUSH1 0x4 PUSH1 0x0 DUP5 DUP2 MSTORE PUSH1 0x20 ADD SWAP1 DUP2 MSTORE PUSH1 0x20 ADD PUSH1 0x0 KECCAK256 SWAP1 DUP2 PUSH2 0x2737 SWAP2 SWAP1 PUSH2 0x509F JUMP JUMPDEST POP DUP2 PUSH32 0x6BB7FF708619BA0610CBA295A58592E0451DEE2622938C8755667688DAF3529B PUSH2 0x2763 DUP5 PUSH2 0x78D JUMP JUMPDEST PUSH1 0x40 MLOAD PUSH2 0x2770 SWAP2 SWAP1 PUSH2 0x3559 JUMP JUMPDEST PUSH1 0x40 MLOAD DUP1 SWAP2 SUB SWAP1 LOG2 POP POP JUMP JUMPDEST DUP2 PUSH20 0xFFFFFFFFFFFFFFFFFFFFFFFFFFFFFFFFFFFFFFFF AND DUP4 PUSH20 0xFFFFFFFFFFFFFFFFFFFFFFFFFFFFFFFFFFFFFFFF AND SUB PUSH2 0x27EA JUMPI PUSH1 0x40 MLOAD PUSH32 0x8C379A000000000000000000000000000000000000000000000000000000000 DUP2 MSTORE PUSH1 0x4 ADD PUSH2 0x27E1 SWAP1 PUSH2 0x51E3 JUMP JUMPDEST PUSH1 0x40 MLOAD DUP1 SWAP2 SUB SWAP1 REVERT JUMPDEST DUP1 PUSH1 0x1 PUSH1 0x0 DUP6 PUSH20 0xFFFFFFFFFFFFFFFFFFFFFFFFFFFFFFFFFFFFFFFF AND PUSH20 0xFFFFFFFFFFFFFFFFFFFFFFFFFFFFFFFFFFFFFFFF AND DUP2 MSTORE PUSH1 0x20 ADD SWAP1 DUP2 MSTORE PUSH1 0x20 ADD PUSH1 0x0 KECCAK256 PUSH1 0x0 DUP5 PUSH20 0xFFFFFFFFFFFFFFFFFFFFFFFFFFFFFFFFFFFFFFFF AND PUSH20 0xFFFFFFFFFFFFFFFFFFFFFFFFFFFFFFFFFFFFFFFF AND DUP2 MSTORE PUSH1 0x20 ADD SWAP1 DUP2 MSTORE PUSH1 0x20 ADD PUSH1 0x0 KECCAK256 PUSH1 0x0 PUSH2 0x100 EXP DUP2 SLOAD DUP2 PUSH1 0xFF MUL NOT AND SWAP1 DUP4 ISZERO ISZERO MUL OR SWAP1 SSTORE POP DUP2 PUSH20 0xFFFFFFFFFFFFFFFFFFFFFFFFFFFFFFFFFFFFFFFF AND DUP4 PUSH20 0xFFFFFFFFFFFFFFFFFFFFFFFFFFFFFFFFFFFFFFFF AND PUSH32 0x17307EAB39AB6107E8899845AD3D59BD9653F200F220920489CA2B5937696C31 DUP4 PUSH1 0x40 MLOAD PUSH2 0x28DB SWAP2 SWAP1 PUSH2 0x3481 JUMP JUMPDEST PUSH1 0x40 MLOAD DUP1 SWAP2 SUB SWAP1 LOG3 POP POP POP JUMP JUMPDEST PUSH1 0x0 PUSH20 0xFFFFFFFFFFFFFFFFFFFFFFFFFFFFFFFFFFFFFFFF AND DUP5 PUSH20 0xFFFFFFFFFFFFFFFFFFFFFFFFFFFFFFFFFFFFFFFF AND SUB PUSH2 0x2957 JUMPI PUSH1 0x40 MLOAD PUSH32 0x8C379A000000000000000000000000000000000000000000000000000000000 DUP2 MSTORE PUSH1 0x4 ADD PUSH2 0x294E SWAP1 PUSH2 0x4D64 JUMP JUMPDEST PUSH1 0x40 MLOAD DUP1 SWAP2 SUB SWAP1 REVERT JUMPDEST PUSH1 0x0 PUSH2 0x2961 PUSH2 0x221A JUMP JUMPDEST SWAP1 POP PUSH1 0x0 PUSH2 0x296E DUP6 PUSH2 0x2E0C JUMP JUMPDEST SWAP1 POP PUSH1 0x0 PUSH2 0x297B DUP6 PUSH2 0x2E0C JUMP JUMPDEST SWAP1 POP PUSH2 0x298B DUP4 DUP10 DUP10 DUP6 DUP6 DUP10 PUSH2 0x2C17 JUMP JUMPDEST PUSH1 0x0 DUP1 PUSH1 0x0 DUP9 DUP2 MSTORE PUSH1 0x20 ADD SWAP1 DUP2 MSTORE PUSH1 0x20 ADD PUSH1 0x0 KECCAK256 PUSH1 0x0 DUP11 PUSH20 0xFFFFFFFFFFFFFFFFFFFFFFFFFFFFFFFFFFFFFFFF AND PUSH20 0xFFFFFFFFFFFFFFFFFFFFFFFFFFFFFFFFFFFFFFFF AND DUP2 MSTORE PUSH1 0x20 ADD SWAP1 DUP2 MSTORE PUSH1 0x20 ADD PUSH1 0x0 KECCAK256 SLOAD SWAP1 POP DUP6 DUP2 LT ISZERO PUSH2 0x2A22 JUMPI PUSH1 0x40 MLOAD PUSH32 0x8C379A000000000000000000000000000000000000000000000000000000000 DUP2 MSTORE PUSH1 0x4 ADD PUSH2 0x2A19 SWAP1 PUSH2 0x4DF6 JUMP JUMPDEST PUSH1 0x40 MLOAD DUP1 SWAP2 SUB SWAP1 REVERT JUMPDEST DUP6 DUP2 SUB PUSH1 0x0 DUP1 DUP10 DUP2 MSTORE PUSH1 0x20 ADD SWAP1 DUP2 MSTORE PUSH1 0x20 ADD PUSH1 0x0 KECCAK256 PUSH1 0x0 DUP12 PUSH20 0xFFFFFFFFFFFFFFFFFFFFFFFFFFFFFFFFFFFFFFFF AND PUSH20 0xFFFFFFFFFFFFFFFFFFFFFFFFFFFFFFFFFFFFFFFF AND DUP2 MSTORE PUSH1 0x20 ADD SWAP1 DUP2 MSTORE PUSH1 0x20 ADD PUSH1 0x0 KECCAK256 DUP2 SWAP1 SSTORE POP DUP6 PUSH1 0x0 DUP1 DUP10 DUP2 MSTORE PUSH1 0x20 ADD SWAP1 DUP2 MSTORE PUSH1 0x20 ADD PUSH1 0x0 KECCAK256 PUSH1 0x0 DUP11 PUSH20 0xFFFFFFFFFFFFFFFFFFFFFFFFFFFFFFFFFFFFFFFF AND PUSH20 0xFFFFFFFFFFFFFFFFFFFFFFFFFFFFFFFFFFFFFFFF AND DUP2 MSTORE PUSH1 0x20 ADD SWAP1 DUP2 MSTORE PUSH1 0x20 ADD PUSH1 0x0 KECCAK256 PUSH1 0x0 DUP3 DUP3 SLOAD PUSH2 0x2AD7 SWAP2 SWAP1 PUSH2 0x458C JUMP JUMPDEST SWAP3 POP POP DUP2 SWAP1 SSTORE POP DUP8 PUSH20 0xFFFFFFFFFFFFFFFFFFFFFFFFFFFFFFFFFFFFFFFF AND DUP10 PUSH20 0xFFFFFFFFFFFFFFFFFFFFFFFFFFFFFFFFFFFFFFFF AND DUP6 PUSH20 0xFFFFFFFFFFFFFFFFFFFFFFFFFFFFFFFFFFFFFFFF AND PUSH32 0xC3D58168C5AE7397731D063D5BBF3D657854427343F4C083240F7AACAA2D0F62 DUP11 DUP11 PUSH1 0x40 MLOAD PUSH2 0x2B54 SWAP3 SWAP2 SWAP1 PUSH2 0x4EDF JUMP JUMPDEST PUSH1 0x40 MLOAD DUP1 SWAP2 SUB SWAP1 LOG4 PUSH2 0x2B6A DUP5 DUP11 DUP11 DUP7 DUP7 DUP11 PUSH2 0x2C2D JUMP JUMPDEST PUSH2 0x2B78 DUP5 DUP11 DUP11 DUP11 DUP11 DUP11 PUSH2 0x2E86 JUMP JUMPDEST POP POP POP POP POP POP POP POP POP JUMP JUMPDEST PUSH1 0x60 PUSH1 0x2 DUP1 SLOAD PUSH2 0x2B92 SWAP1 PUSH2 0x4B37 JUMP JUMPDEST DUP1 PUSH1 0x1F ADD PUSH1 0x20 DUP1 SWAP2 DIV MUL PUSH1 0x20 ADD PUSH1 0x40 MLOAD SWAP1 DUP2 ADD PUSH1 0x40 MSTORE DUP1 SWAP3 SWAP2 SWAP1 DUP2 DUP2 MSTORE PUSH1 0x20 ADD DUP3 DUP1 SLOAD PUSH2 0x2BBE SWAP1 PUSH2 0x4B37 JUMP JUMPDEST DUP1 ISZERO PUSH2 0x2C0B JUMPI DUP1 PUSH1 0x1F LT PUSH2 0x2BE0 JUMPI PUSH2 0x100 DUP1 DUP4 SLOAD DIV MUL DUP4 MSTORE SWAP2 PUSH1 0x20 ADD SWAP2 PUSH2 0x2C0B JUMP JUMPDEST DUP3 ADD SWAP2 SWAP1 PUSH1 0x0 MSTORE PUSH1 0x20 PUSH1 0x0 KECCAK256 SWAP1 JUMPDEST DUP2 SLOAD DUP2 MSTORE SWAP1 PUSH1 0x1 ADD SWAP1 PUSH1 0x20 ADD DUP1 DUP4 GT PUSH2 0x2BEE JUMPI DUP3 SWAP1 SUB PUSH1 0x1F AND DUP3 ADD SWAP2 JUMPDEST POP POP POP POP POP SWAP1 POP SWAP2 SWAP1 POP JUMP JUMPDEST PUSH2 0x2C25 DUP7 DUP7 DUP7 DUP7 DUP7 DUP7 PUSH2 0x305D JUMP JUMPDEST POP POP POP POP POP POP JUMP JUMPDEST POP POP POP POP POP POP JUMP JUMPDEST PUSH2 0x2C54 DUP5 PUSH20 0xFFFFFFFFFFFFFFFFFFFFFFFFFFFFFFFFFFFFFFFF AND PUSH2 0x322D JUMP JUMPDEST ISZERO PUSH2 0x2E04 JUMPI DUP4 PUSH20 0xFFFFFFFFFFFFFFFFFFFFFFFFFFFFFFFFFFFFFFFF AND PUSH4 0xBC197C81 DUP8 DUP8 DUP7 DUP7 DUP7 PUSH1 0x40 MLOAD DUP7 PUSH4 0xFFFFFFFF AND PUSH1 0xE0 SHL DUP2 MSTORE PUSH1 0x4 ADD PUSH2 0x2C9A SWAP6 SWAP5 SWAP4 SWAP3 SWAP2 SWAP1 PUSH2 0x5258 JUMP JUMPDEST PUSH1 0x20 PUSH1 0x40 MLOAD DUP1 DUP4 SUB DUP2 PUSH1 0x0 DUP8 GAS CALL SWAP3 POP POP POP DUP1 ISZERO PUSH2 0x2CD6 JUMPI POP PUSH1 0x40 MLOAD RETURNDATASIZE PUSH1 0x1F NOT PUSH1 0x1F DUP3 ADD AND DUP3 ADD DUP1 PUSH1 0x40 MSTORE POP DUP2 ADD SWAP1 PUSH2 0x2CD3 SWAP2 SWAP1 PUSH2 0x52D5 JUMP JUMPDEST PUSH1 0x1 JUMPDEST PUSH2 0x2D7B JUMPI PUSH2 0x2CE2 PUSH2 0x530F JUMP JUMPDEST DUP1 PUSH4 0x8C379A0 SUB PUSH2 0x2D3E JUMPI POP PUSH2 0x2CF6 PUSH2 0x5331 JUMP JUMPDEST DUP1 PUSH2 0x2D01 JUMPI POP PUSH2 0x2D40 JUMP JUMPDEST DUP1 PUSH1 0x40 MLOAD PUSH32 0x8C379A000000000000000000000000000000000000000000000000000000000 DUP2 MSTORE PUSH1 0x4 ADD PUSH2 0x2D35 SWAP2 SWAP1 PUSH2 0x3559 JUMP JUMPDEST PUSH1 0x40 MLOAD DUP1 SWAP2 SUB SWAP1 REVERT JUMPDEST POP JUMPDEST PUSH1 0x40 MLOAD PUSH32 0x8C379A000000000000000000000000000000000000000000000000000000000 DUP2 MSTORE PUSH1 0x4 ADD PUSH2 0x2D72 SWAP1 PUSH2 0x5433 JUMP JUMPDEST PUSH1 0x40 MLOAD DUP1 SWAP2 SUB SWAP1 REVERT JUMPDEST PUSH4 0xBC197C81 PUSH1 0xE0 SHL PUSH28 0xFFFFFFFFFFFFFFFFFFFFFFFFFFFFFFFFFFFFFFFFFFFFFFFFFFFFFFFF NOT AND DUP2 PUSH28 0xFFFFFFFFFFFFFFFFFFFFFFFFFFFFFFFFFFFFFFFFFFFFFFFFFFFFFFFF NOT AND EQ PUSH2 0x2E02 JUMPI PUSH1 0x40 MLOAD PUSH32 0x8C379A000000000000000000000000000000000000000000000000000000000 DUP2 MSTORE PUSH1 0x4 ADD PUSH2 0x2DF9 SWAP1 PUSH2 0x54C5 JUMP JUMPDEST PUSH1 0x40 MLOAD DUP1 SWAP2 SUB SWAP1 REVERT JUMPDEST POP JUMPDEST POP POP POP POP POP POP JUMP JUMPDEST PUSH1 0x60 PUSH1 0x0 PUSH1 0x1 PUSH8 0xFFFFFFFFFFFFFFFF DUP2 GT ISZERO PUSH2 0x2E2B JUMPI PUSH2 0x2E2A PUSH2 0x368D JUMP JUMPDEST JUMPDEST PUSH1 0x40 MLOAD SWAP1 DUP1 DUP3 MSTORE DUP1 PUSH1 0x20 MUL PUSH1 0x20 ADD DUP3 ADD PUSH1 0x40 MSTORE DUP1 ISZERO PUSH2 0x2E59 JUMPI DUP2 PUSH1 0x20 ADD PUSH1 0x20 DUP3 MUL DUP1 CALLDATASIZE DUP4 CALLDATACOPY DUP1 DUP3 ADD SWAP2 POP POP SWAP1 POP JUMPDEST POP SWAP1 POP DUP3 DUP2 PUSH1 0x0 DUP2 MLOAD DUP2 LT PUSH2 0x2E71 JUMPI PUSH2 0x2E70 PUSH2 0x43AD JUMP JUMPDEST JUMPDEST PUSH1 0x20 MUL PUSH1 0x20 ADD ADD DUP2 DUP2 MSTORE POP POP DUP1 SWAP2 POP POP SWAP2 SWAP1 POP JUMP JUMPDEST PUSH2 0x2EA5 DUP5 PUSH20 0xFFFFFFFFFFFFFFFFFFFFFFFFFFFFFFFFFFFFFFFF AND PUSH2 0x322D JUMP JUMPDEST ISZERO PUSH2 0x3055 JUMPI DUP4 PUSH20 0xFFFFFFFFFFFFFFFFFFFFFFFFFFFFFFFFFFFFFFFF AND PUSH4 0xF23A6E61 DUP8 DUP8 DUP7 DUP7 DUP7 PUSH1 0x40 MLOAD DUP7 PUSH4 0xFFFFFFFF AND PUSH1 0xE0 SHL DUP2 MSTORE PUSH1 0x4 ADD PUSH2 0x2EEB SWAP6 SWAP5 SWAP4 SWAP3 SWAP2 SWAP1 PUSH2 0x54E5 JUMP JUMPDEST PUSH1 0x20 PUSH1 0x40 MLOAD DUP1 DUP4 SUB DUP2 PUSH1 0x0 DUP8 GAS CALL SWAP3 POP POP POP DUP1 ISZERO PUSH2 0x2F27 JUMPI POP PUSH1 0x40 MLOAD RETURNDATASIZE PUSH1 0x1F NOT PUSH1 0x1F DUP3 ADD AND DUP3 ADD DUP1 PUSH1 0x40 MSTORE POP DUP2 ADD SWAP1 PUSH2 0x2F24 SWAP2 SWAP1 PUSH2 0x52D5 JUMP JUMPDEST PUSH1 0x1 JUMPDEST PUSH2 0x2FCC JUMPI PUSH2 0x2F33 PUSH2 0x530F JUMP JUMPDEST DUP1 PUSH4 0x8C379A0 SUB PUSH2 0x2F8F JUMPI POP PUSH2 0x2F47 PUSH2 0x5331 JUMP JUMPDEST DUP1 PUSH2 0x2F52 JUMPI POP PUSH2 0x2F91 JUMP JUMPDEST DUP1 PUSH1 0x40 MLOAD PUSH32 0x8C379A000000000000000000000000000000000000000000000000000000000 DUP2 MSTORE PUSH1 0x4 ADD PUSH2 0x2F86 SWAP2 SWAP1 PUSH2 0x3559 JUMP JUMPDEST PUSH1 0x40 MLOAD DUP1 SWAP2 SUB SWAP1 REVERT JUMPDEST POP JUMPDEST PUSH1 0x40 MLOAD PUSH32 0x8C379A000000000000000000000000000000000000000000000000000000000 DUP2 MSTORE PUSH1 0x4 ADD PUSH2 0x2FC3 SWAP1 PUSH2 0x5433 JUMP JUMPDEST PUSH1 0x40 MLOAD DUP1 SWAP2 SUB SWAP1 REVERT JUMPDEST PUSH4 0xF23A6E61 PUSH1 0xE0 SHL PUSH28 0xFFFFFFFFFFFFFFFFFFFFFFFFFFFFFFFFFFFFFFFFFFFFFFFFFFFFFFFF NOT AND DUP2 PUSH28 0xFFFFFFFFFFFFFFFFFFFFFFFFFFFFFFFFFFFFFFFFFFFFFFFFFFFFFFFF NOT AND EQ PUSH2 0x3053 JUMPI PUSH1 0x40 MLOAD PUSH32 0x8C379A000000000000000000000000000000000000000000000000000000000 DUP2 MSTORE PUSH1 0x4 ADD PUSH2 0x304A SWAP1 PUSH2 0x54C5 JUMP JUMPDEST PUSH1 0x40 MLOAD DUP1 SWAP2 SUB SWAP1 REVERT JUMPDEST POP JUMPDEST POP POP POP POP POP POP JUMP JUMPDEST PUSH2 0x306B DUP7 DUP7 DUP7 DUP7 DUP7 DUP7 PUSH2 0x3250 JUMP JUMPDEST PUSH1 0x0 PUSH20 0xFFFFFFFFFFFFFFFFFFFFFFFFFFFFFFFFFFFFFFFF AND DUP6 PUSH20 0xFFFFFFFFFFFFFFFFFFFFFFFFFFFFFFFFFFFFFFFF AND SUB PUSH2 0x311C JUMPI PUSH1 0x0 JUMPDEST DUP4 MLOAD DUP2 LT ISZERO PUSH2 0x311A JUMPI DUP3 DUP2 DUP2 MLOAD DUP2 LT PUSH2 0x30BE JUMPI PUSH2 0x30BD PUSH2 0x43AD JUMP JUMPDEST JUMPDEST PUSH1 0x20 MUL PUSH1 0x20 ADD ADD MLOAD PUSH1 0x5 PUSH1 0x0 DUP7 DUP5 DUP2 MLOAD DUP2 LT PUSH2 0x30DD JUMPI PUSH2 0x30DC PUSH2 0x43AD JUMP JUMPDEST JUMPDEST PUSH1 0x20 MUL PUSH1 0x20 ADD ADD MLOAD DUP2 MSTORE PUSH1 0x20 ADD SWAP1 DUP2 MSTORE PUSH1 0x20 ADD PUSH1 0x0 KECCAK256 PUSH1 0x0 DUP3 DUP3 SLOAD PUSH2 0x3102 SWAP2 SWAP1 PUSH2 0x458C JUMP JUMPDEST SWAP3 POP POP DUP2 SWAP1 SSTORE POP DUP1 PUSH2 0x3113 SWAP1 PUSH2 0x44D1 JUMP JUMPDEST SWAP1 POP PUSH2 0x30A2 JUMP JUMPDEST POP JUMPDEST PUSH1 0x0 PUSH20 0xFFFFFFFFFFFFFFFFFFFFFFFFFFFFFFFFFFFFFFFF AND DUP5 PUSH20 0xFFFFFFFFFFFFFFFFFFFFFFFFFFFFFFFFFFFFFFFF AND SUB PUSH2 0x3225 JUMPI PUSH1 0x0 JUMPDEST DUP4 MLOAD DUP2 LT ISZERO PUSH2 0x3223 JUMPI PUSH1 0x0 DUP5 DUP3 DUP2 MLOAD DUP2 LT PUSH2 0x3171 JUMPI PUSH2 0x3170 PUSH2 0x43AD JUMP JUMPDEST JUMPDEST PUSH1 0x20 MUL PUSH1 0x20 ADD ADD MLOAD SWAP1 POP PUSH1 0x0 DUP5 DUP4 DUP2 MLOAD DUP2 LT PUSH2 0x3190 JUMPI PUSH2 0x318F PUSH2 0x43AD JUMP JUMPDEST JUMPDEST PUSH1 0x20 MUL PUSH1 0x20 ADD ADD MLOAD SWAP1 POP PUSH1 0x0 PUSH1 0x5 PUSH1 0x0 DUP5 DUP2 MSTORE PUSH1 0x20 ADD SWAP1 DUP2 MSTORE PUSH1 0x20 ADD PUSH1 0x0 KECCAK256 SLOAD SWAP1 POP DUP2 DUP2 LT ISZERO PUSH2 0x31F5 JUMPI PUSH1 0x40 MLOAD PUSH32 0x8C379A000000000000000000000000000000000000000000000000000000000 DUP2 MSTORE PUSH1 0x4 ADD PUSH2 0x31EC SWAP1 PUSH2 0x55B1 JUMP JUMPDEST PUSH1 0x40 MLOAD DUP1 SWAP2 SUB SWAP1 REVERT JUMPDEST DUP2 DUP2 SUB PUSH1 0x5 PUSH1 0x0 DUP6 DUP2 MSTORE PUSH1 0x20 ADD SWAP1 DUP2 MSTORE PUSH1 0x20 ADD PUSH1 0x0 KECCAK256 DUP2 SWAP1 SSTORE POP POP POP POP DUP1 PUSH2 0x321C SWAP1 PUSH2 0x44D1 JUMP JUMPDEST SWAP1 POP PUSH2 0x3153 JUMP JUMPDEST POP JUMPDEST POP POP POP POP POP POP JUMP JUMPDEST PUSH1 0x0 DUP1 DUP3 PUSH20 0xFFFFFFFFFFFFFFFFFFFFFFFFFFFFFFFFFFFFFFFF AND EXTCODESIZE GT SWAP1 POP SWAP2 SWAP1 POP JUMP JUMPDEST POP POP POP POP POP POP JUMP JUMPDEST PUSH1 0x40 MLOAD DUP1 PUSH2 0x180 ADD PUSH1 0x40 MSTORE DUP1 PUSH1 0x0 PUSH20 0xFFFFFFFFFFFFFFFFFFFFFFFFFFFFFFFFFFFFFFFF AND DUP2 MSTORE PUSH1 0x20 ADD PUSH1 0x0 DUP2 MSTORE PUSH1 0x20 ADD PUSH1 0x0 DUP2 MSTORE PUSH1 0x20 ADD PUSH1 0x0 DUP2 MSTORE PUSH1 0x20 ADD PUSH1 0x0 DUP2 MSTORE PUSH1 0x20 ADD PUSH1 0x0 DUP2 MSTORE PUSH1 0x20 ADD PUSH1 0x0 DUP2 MSTORE PUSH1 0x20 ADD PUSH1 0x0 DUP2 MSTORE PUSH1 0x20 ADD PUSH1 0x0 DUP2 MSTORE PUSH1 0x20 ADD PUSH1 0x0 DUP2 MSTORE PUSH1 0x20 ADD PUSH1 0x0 DUP2 MSTORE PUSH1 0x20 ADD PUSH1 0x60 DUP2 MSTORE POP SWAP1 JUMP JUMPDEST PUSH1 0x0 PUSH1 0x40 MLOAD SWAP1 POP SWAP1 JUMP JUMPDEST PUSH1 0x0 DUP1 REVERT JUMPDEST PUSH1 0x0 DUP1 REVERT JUMPDEST PUSH1 0x0 PUSH20 0xFFFFFFFFFFFFFFFFFFFFFFFFFFFFFFFFFFFFFFFF DUP3 AND SWAP1 POP SWAP2 SWAP1 POP JUMP JUMPDEST PUSH1 0x0 PUSH2 0x330E DUP3 PUSH2 0x32E3 JUMP JUMPDEST SWAP1 POP SWAP2 SWAP1 POP JUMP JUMPDEST PUSH2 0x331E DUP2 PUSH2 0x3303 JUMP JUMPDEST DUP2 EQ PUSH2 0x3329 JUMPI PUSH1 0x0 DUP1 REVERT JUMPDEST POP JUMP JUMPDEST PUSH1 0x0 DUP2 CALLDATALOAD SWAP1 POP PUSH2 0x333B DUP2 PUSH2 0x3315 JUMP JUMPDEST SWAP3 SWAP2 POP POP JUMP JUMPDEST PUSH1 0x0 DUP2 SWAP1 POP SWAP2 SWAP1 POP JUMP JUMPDEST PUSH2 0x3354 DUP2 PUSH2 0x3341 JUMP JUMPDEST DUP2 EQ PUSH2 0x335F JUMPI PUSH1 0x0 DUP1 REVERT JUMPDEST POP JUMP JUMPDEST PUSH1 0x0 DUP2 CALLDATALOAD SWAP1 POP PUSH2 0x3371 DUP2 PUSH2 0x334B JUMP JUMPDEST SWAP3 SWAP2 POP POP JUMP JUMPDEST PUSH1 0x0 DUP1 PUSH1 0x40 DUP4 DUP6 SUB SLT ISZERO PUSH2 0x338E JUMPI PUSH2 0x338D PUSH2 0x32D9 JUMP JUMPDEST JUMPDEST PUSH1 0x0 PUSH2 0x339C DUP6 DUP3 DUP7 ADD PUSH2 0x332C JUMP JUMPDEST SWAP3 POP POP PUSH1 0x20 PUSH2 0x33AD DUP6 DUP3 DUP7 ADD PUSH2 0x3362 JUMP JUMPDEST SWAP2 POP POP SWAP3 POP SWAP3 SWAP1 POP JUMP JUMPDEST PUSH2 0x33C0 DUP2 PUSH2 0x3341 JUMP JUMPDEST DUP3 MSTORE POP POP JUMP JUMPDEST PUSH1 0x0 PUSH1 0x20 DUP3 ADD SWAP1 POP PUSH2 0x33DB PUSH1 0x0 DUP4 ADD DUP5 PUSH2 0x33B7 JUMP JUMPDEST SWAP3 SWAP2 POP POP JUMP JUMPDEST PUSH1 0x0 PUSH32 0xFFFFFFFF00000000000000000000000000000000000000000000000000000000 DUP3 AND SWAP1 POP SWAP2 SWAP1 POP JUMP JUMPDEST PUSH2 0x3416 DUP2 PUSH2 0x33E1 JUMP JUMPDEST DUP2 EQ PUSH2 0x3421 JUMPI PUSH1 0x0 DUP1 REVERT JUMPDEST POP JUMP JUMPDEST PUSH1 0x0 DUP2 CALLDATALOAD SWAP1 POP PUSH2 0x3433 DUP2 PUSH2 0x340D JUMP JUMPDEST SWAP3 SWAP2 POP POP JUMP JUMPDEST PUSH1 0x0 PUSH1 0x20 DUP3 DUP5 SUB SLT ISZERO PUSH2 0x344F JUMPI PUSH2 0x344E PUSH2 0x32D9 JUMP JUMPDEST JUMPDEST PUSH1 0x0 PUSH2 0x345D DUP5 DUP3 DUP6 ADD PUSH2 0x3424 JUMP JUMPDEST SWAP2 POP POP SWAP3 SWAP2 POP POP JUMP JUMPDEST PUSH1 0x0 DUP2 ISZERO ISZERO SWAP1 POP SWAP2 SWAP1 POP JUMP JUMPDEST PUSH2 0x347B DUP2 PUSH2 0x3466 JUMP JUMPDEST DUP3 MSTORE POP POP JUMP JUMPDEST PUSH1 0x0 PUSH1 0x20 DUP3 ADD SWAP1 POP PUSH2 0x3496 PUSH1 0x0 DUP4 ADD DUP5 PUSH2 0x3472 JUMP JUMPDEST SWAP3 SWAP2 POP POP JUMP JUMPDEST PUSH1 0x0 PUSH1 0x20 DUP3 DUP5 SUB SLT ISZERO PUSH2 0x34B2 JUMPI PUSH2 0x34B1 PUSH2 0x32D9 JUMP JUMPDEST JUMPDEST PUSH1 0x0 PUSH2 0x34C0 DUP5 DUP3 DUP6 ADD PUSH2 0x3362 JUMP JUMPDEST SWAP2 POP POP SWAP3 SWAP2 POP POP JUMP JUMPDEST PUSH1 0x0 DUP2 MLOAD SWAP1 POP SWAP2 SWAP1 POP JUMP JUMPDEST PUSH1 0x0 DUP3 DUP3 MSTORE PUSH1 0x20 DUP3 ADD SWAP1 POP SWAP3 SWAP2 POP POP JUMP JUMPDEST PUSH1 0x0 JUMPDEST DUP4 DUP2 LT ISZERO PUSH2 0x3503 JUMPI DUP1 DUP3 ADD MLOAD DUP2 DUP5 ADD MSTORE PUSH1 0x20 DUP2 ADD SWAP1 POP PUSH2 0x34E8 JUMP JUMPDEST PUSH1 0x0 DUP5 DUP5 ADD MSTORE POP POP POP POP JUMP JUMPDEST PUSH1 0x0 PUSH1 0x1F NOT PUSH1 0x1F DUP4 ADD AND SWAP1 POP SWAP2 SWAP1 POP JUMP JUMPDEST PUSH1 0x0 PUSH2 0x352B DUP3 PUSH2 0x34C9 JUMP JUMPDEST PUSH2 0x3535 DUP2 DUP6 PUSH2 0x34D4 JUMP JUMPDEST SWAP4 POP PUSH2 0x3545 DUP2 DUP6 PUSH1 0x20 DUP7 ADD PUSH2 0x34E5 JUMP JUMPDEST PUSH2 0x354E DUP2 PUSH2 0x350F JUMP JUMPDEST DUP5 ADD SWAP2 POP POP SWAP3 SWAP2 POP POP JUMP JUMPDEST PUSH1 0x0 PUSH1 0x20 DUP3 ADD SWAP1 POP DUP2 DUP2 SUB PUSH1 0x0 DUP4 ADD MSTORE PUSH2 0x3573 DUP2 DUP5 PUSH2 0x3520 JUMP JUMPDEST SWAP1 POP SWAP3 SWAP2 POP POP JUMP JUMPDEST PUSH1 0x0 PUSH1 0x20 DUP3 DUP5 SUB SLT ISZERO PUSH2 0x3591 JUMPI PUSH2 0x3590 PUSH2 0x32D9 JUMP JUMPDEST JUMPDEST PUSH1 0x0 PUSH2 0x359F DUP5 DUP3 DUP6 ADD PUSH2 0x332C JUMP JUMPDEST SWAP2 POP POP SWAP3 SWAP2 POP POP JUMP JUMPDEST PUSH1 0x0 DUP2 MLOAD SWAP1 POP SWAP2 SWAP1 POP JUMP JUMPDEST PUSH1 0x0 DUP3 DUP3 MSTORE PUSH1 0x20 DUP3 ADD SWAP1 POP SWAP3 SWAP2 POP POP JUMP JUMPDEST PUSH1 0x0 DUP2 SWAP1 POP PUSH1 0x20 DUP3 ADD SWAP1 POP SWAP2 SWAP1 POP JUMP JUMPDEST PUSH2 0x35DD DUP2 PUSH2 0x3341 JUMP JUMPDEST DUP3 MSTORE POP POP JUMP JUMPDEST PUSH1 0x0 PUSH2 0x35EF DUP4 DUP4 PUSH2 0x35D4 JUMP JUMPDEST PUSH1 0x20 DUP4 ADD SWAP1 POP SWAP3 SWAP2 POP POP JUMP JUMPDEST PUSH1 0x0 PUSH1 0x20 DUP3 ADD SWAP1 POP SWAP2 SWAP1 POP JUMP JUMPDEST PUSH1 0x0 PUSH2 0x3613 DUP3 PUSH2 0x35A8 JUMP JUMPDEST PUSH2 0x361D DUP2 DUP6 PUSH2 0x35B3 JUMP JUMPDEST SWAP4 POP PUSH2 0x3628 DUP4 PUSH2 0x35C4 JUMP JUMPDEST DUP1 PUSH1 0x0 JUMPDEST DUP4 DUP2 LT ISZERO PUSH2 0x3659 JUMPI DUP2 MLOAD PUSH2 0x3640 DUP9 DUP3 PUSH2 0x35E3 JUMP JUMPDEST SWAP8 POP PUSH2 0x364B DUP4 PUSH2 0x35FB JUMP JUMPDEST SWAP3 POP POP PUSH1 0x1 DUP2 ADD SWAP1 POP PUSH2 0x362C JUMP JUMPDEST POP DUP6 SWAP4 POP POP POP POP SWAP3 SWAP2 POP POP JUMP JUMPDEST PUSH1 0x0 PUSH1 0x20 DUP3 ADD SWAP1 POP DUP2 DUP2 SUB PUSH1 0x0 DUP4 ADD MSTORE PUSH2 0x3680 DUP2 DUP5 PUSH2 0x3608 JUMP JUMPDEST SWAP1 POP SWAP3 SWAP2 POP POP JUMP JUMPDEST PUSH1 0x0 DUP1 REVERT JUMPDEST PUSH32 0x4E487B7100000000000000000000000000000000000000000000000000000000 PUSH1 0x0 MSTORE PUSH1 0x41 PUSH1 0x4 MSTORE PUSH1 0x24 PUSH1 0x0 REVERT JUMPDEST PUSH2 0x36C5 DUP3 PUSH2 0x350F JUMP JUMPDEST DUP2 ADD DUP2 DUP2 LT PUSH8 0xFFFFFFFFFFFFFFFF DUP3 GT OR ISZERO PUSH2 0x36E4 JUMPI PUSH2 0x36E3 PUSH2 0x368D JUMP JUMPDEST JUMPDEST DUP1 PUSH1 0x40 MSTORE POP POP POP JUMP JUMPDEST PUSH1 0x0 PUSH2 0x36F7 PUSH2 0x32CF JUMP JUMPDEST SWAP1 POP PUSH2 0x3703 DUP3 DUP3 PUSH2 0x36BC JUMP JUMPDEST SWAP2 SWAP1 POP JUMP JUMPDEST PUSH1 0x0 PUSH8 0xFFFFFFFFFFFFFFFF DUP3 GT ISZERO PUSH2 0x3723 JUMPI PUSH2 0x3722 PUSH2 0x368D JUMP JUMPDEST JUMPDEST PUSH1 0x20 DUP3 MUL SWAP1 POP PUSH1 0x20 DUP2 ADD SWAP1 POP SWAP2 SWAP1 POP JUMP JUMPDEST PUSH1 0x0 DUP1 REVERT JUMPDEST PUSH1 0x0 PUSH2 0x374C PUSH2 0x3747 DUP5 PUSH2 0x3708 JUMP JUMPDEST PUSH2 0x36ED JUMP JUMPDEST SWAP1 POP DUP1 DUP4 DUP3 MSTORE PUSH1 0x20 DUP3 ADD SWAP1 POP PUSH1 0x20 DUP5 MUL DUP4 ADD DUP6 DUP2 GT ISZERO PUSH2 0x376F JUMPI PUSH2 0x376E PUSH2 0x3734 JUMP JUMPDEST JUMPDEST DUP4 JUMPDEST DUP2 DUP2 LT ISZERO PUSH2 0x3798 JUMPI DUP1 PUSH2 0x3784 DUP9 DUP3 PUSH2 0x3362 JUMP JUMPDEST DUP5 MSTORE PUSH1 0x20 DUP5 ADD SWAP4 POP POP PUSH1 0x20 DUP2 ADD SWAP1 POP PUSH2 0x3771 JUMP JUMPDEST POP POP POP SWAP4 SWAP3 POP POP POP JUMP JUMPDEST PUSH1 0x0 DUP3 PUSH1 0x1F DUP4 ADD SLT PUSH2 0x37B7 JUMPI PUSH2 0x37B6 PUSH2 0x3688 JUMP JUMPDEST JUMPDEST DUP2 CALLDATALOAD PUSH2 0x37C7 DUP5 DUP3 PUSH1 0x20 DUP7 ADD PUSH2 0x3739 JUMP JUMPDEST SWAP2 POP POP SWAP3 SWAP2 POP POP JUMP JUMPDEST PUSH1 0x0 DUP1 REVERT JUMPDEST PUSH1 0x0 PUSH8 0xFFFFFFFFFFFFFFFF DUP3 GT ISZERO PUSH2 0x37F0 JUMPI PUSH2 0x37EF PUSH2 0x368D JUMP JUMPDEST JUMPDEST PUSH2 0x37F9 DUP3 PUSH2 0x350F JUMP JUMPDEST SWAP1 POP PUSH1 0x20 DUP2 ADD SWAP1 POP SWAP2 SWAP1 POP JUMP JUMPDEST DUP3 DUP2 DUP4 CALLDATACOPY PUSH1 0x0 DUP4 DUP4 ADD MSTORE POP POP POP JUMP JUMPDEST PUSH1 0x0 PUSH2 0x3828 PUSH2 0x3823 DUP5 PUSH2 0x37D5 JUMP JUMPDEST PUSH2 0x36ED JUMP JUMPDEST SWAP1 POP DUP3 DUP2 MSTORE PUSH1 0x20 DUP2 ADD DUP5 DUP5 DUP5 ADD GT ISZERO PUSH2 0x3844 JUMPI PUSH2 0x3843 PUSH2 0x37D0 JUMP JUMPDEST JUMPDEST PUSH2 0x384F DUP5 DUP3 DUP6 PUSH2 0x3806 JUMP JUMPDEST POP SWAP4 SWAP3 POP POP POP JUMP JUMPDEST PUSH1 0x0 DUP3 PUSH1 0x1F DUP4 ADD SLT PUSH2 0x386C JUMPI PUSH2 0x386B PUSH2 0x3688 JUMP JUMPDEST JUMPDEST DUP2 CALLDATALOAD PUSH2 0x387C DUP5 DUP3 PUSH1 0x20 DUP7 ADD PUSH2 0x3815 JUMP JUMPDEST SWAP2 POP POP SWAP3 SWAP2 POP POP JUMP JUMPDEST PUSH1 0x0 DUP1 PUSH1 0x0 DUP1 PUSH1 0x0 PUSH1 0xA0 DUP7 DUP9 SUB SLT ISZERO PUSH2 0x38A1 JUMPI PUSH2 0x38A0 PUSH2 0x32D9 JUMP JUMPDEST JUMPDEST PUSH1 0x0 PUSH2 0x38AF DUP9 DUP3 DUP10 ADD PUSH2 0x332C JUMP JUMPDEST SWAP6 POP POP PUSH1 0x20 PUSH2 0x38C0 DUP9 DUP3 DUP10 ADD PUSH2 0x332C JUMP JUMPDEST SWAP5 POP POP PUSH1 0x40 DUP7 ADD CALLDATALOAD PUSH8 0xFFFFFFFFFFFFFFFF DUP2 GT ISZERO PUSH2 0x38E1 JUMPI PUSH2 0x38E0 PUSH2 0x32DE JUMP JUMPDEST JUMPDEST PUSH2 0x38ED DUP9 DUP3 DUP10 ADD PUSH2 0x37A2 JUMP JUMPDEST SWAP4 POP POP PUSH1 0x60 DUP7 ADD CALLDATALOAD PUSH8 0xFFFFFFFFFFFFFFFF DUP2 GT ISZERO PUSH2 0x390E JUMPI PUSH2 0x390D PUSH2 0x32DE JUMP JUMPDEST JUMPDEST PUSH2 0x391A DUP9 DUP3 DUP10 ADD PUSH2 0x37A2 JUMP JUMPDEST SWAP3 POP POP PUSH1 0x80 DUP7 ADD CALLDATALOAD PUSH8 0xFFFFFFFFFFFFFFFF DUP2 GT ISZERO PUSH2 0x393B JUMPI PUSH2 0x393A PUSH2 0x32DE JUMP JUMPDEST JUMPDEST PUSH2 0x3947 DUP9 DUP3 DUP10 ADD PUSH2 0x3857 JUMP JUMPDEST SWAP2 POP POP SWAP3 SWAP6 POP SWAP3 SWAP6 SWAP1 SWAP4 POP JUMP JUMPDEST PUSH2 0x395D DUP2 PUSH2 0x3303 JUMP JUMPDEST DUP3 MSTORE POP POP JUMP JUMPDEST PUSH1 0x0 DUP2 MLOAD SWAP1 POP SWAP2 SWAP1 POP JUMP JUMPDEST PUSH1 0x0 DUP3 DUP3 MSTORE PUSH1 0x20 DUP3 ADD SWAP1 POP SWAP3 SWAP2 POP POP JUMP JUMPDEST PUSH1 0x0 DUP2 SWAP1 POP PUSH1 0x20 DUP3 ADD SWAP1 POP SWAP2 SWAP1 POP JUMP JUMPDEST PUSH1 0x0 PUSH2 0x399B DUP4 DUP4 PUSH2 0x3954 JUMP JUMPDEST PUSH1 0x20 DUP4 ADD SWAP1 POP SWAP3 SWAP2 POP POP JUMP JUMPDEST PUSH1 0x0 PUSH1 0x20 DUP3 ADD SWAP1 POP SWAP2 SWAP1 POP JUMP JUMPDEST PUSH1 0x0 PUSH2 0x39BF DUP3 PUSH2 0x3963 JUMP JUMPDEST PUSH2 0x39C9 DUP2 DUP6 PUSH2 0x396E JUMP JUMPDEST SWAP4 POP PUSH2 0x39D4 DUP4 PUSH2 0x397F JUMP JUMPDEST DUP1 PUSH1 0x0 JUMPDEST DUP4 DUP2 LT ISZERO PUSH2 0x3A05 JUMPI DUP2 MLOAD PUSH2 0x39EC DUP9 DUP3 PUSH2 0x398F JUMP JUMPDEST SWAP8 POP PUSH2 0x39F7 DUP4 PUSH2 0x39A7 JUMP JUMPDEST SWAP3 POP POP PUSH1 0x1 DUP2 ADD SWAP1 POP PUSH2 0x39D8 JUMP JUMPDEST POP DUP6 SWAP4 POP POP POP POP SWAP3 SWAP2 POP POP JUMP JUMPDEST PUSH1 0x0 PUSH2 0x180 DUP4 ADD PUSH1 0x0 DUP4 ADD MLOAD PUSH2 0x3A2B PUSH1 0x0 DUP7 ADD DUP3 PUSH2 0x3954 JUMP JUMPDEST POP PUSH1 0x20 DUP4 ADD MLOAD PUSH2 0x3A3E PUSH1 0x20 DUP7 ADD DUP3 PUSH2 0x35D4 JUMP JUMPDEST POP PUSH1 0x40 DUP4 ADD MLOAD PUSH2 0x3A51 PUSH1 0x40 DUP7 ADD DUP3 PUSH2 0x35D4 JUMP JUMPDEST POP PUSH1 0x60 DUP4 ADD MLOAD PUSH2 0x3A64 PUSH1 0x60 DUP7 ADD DUP3 PUSH2 0x35D4 JUMP JUMPDEST POP PUSH1 0x80 DUP4 ADD MLOAD PUSH2 0x3A77 PUSH1 0x80 DUP7 ADD DUP3 PUSH2 0x35D4 JUMP JUMPDEST POP PUSH1 0xA0 DUP4 ADD MLOAD PUSH2 0x3A8A PUSH1 0xA0 DUP7 ADD DUP3 PUSH2 0x35D4 JUMP JUMPDEST POP PUSH1 0xC0 DUP4 ADD MLOAD PUSH2 0x3A9D PUSH1 0xC0 DUP7 ADD DUP3 PUSH2 0x35D4 JUMP JUMPDEST POP PUSH1 0xE0 DUP4 ADD MLOAD PUSH2 0x3AB0 PUSH1 0xE0 DUP7 ADD DUP3 PUSH2 0x35D4 JUMP JUMPDEST POP PUSH2 0x100 DUP4 ADD MLOAD PUSH2 0x3AC5 PUSH2 0x100 DUP7 ADD DUP3 PUSH2 0x35D4 JUMP JUMPDEST POP PUSH2 0x120 DUP4 ADD MLOAD PUSH2 0x3ADA PUSH2 0x120 DUP7 ADD DUP3 PUSH2 0x35D4 JUMP JUMPDEST POP PUSH2 0x140 DUP4 ADD MLOAD PUSH2 0x3AEF PUSH2 0x140 DUP7 ADD DUP3 PUSH2 0x35D4 JUMP JUMPDEST POP PUSH2 0x160 DUP4 ADD MLOAD DUP5 DUP3 SUB PUSH2 0x160 DUP7 ADD MSTORE PUSH2 0x3B09 DUP3 DUP3 PUSH2 0x39B4 JUMP JUMPDEST SWAP2 POP POP DUP1 SWAP2 POP POP SWAP3 SWAP2 POP POP JUMP JUMPDEST PUSH1 0x0 PUSH1 0x20 DUP3 ADD SWAP1 POP DUP2 DUP2 SUB PUSH1 0x0 DUP4 ADD MSTORE PUSH2 0x3B30 DUP2 DUP5 PUSH2 0x3A12 JUMP JUMPDEST SWAP1 POP SWAP3 SWAP2 POP POP JUMP JUMPDEST PUSH1 0x0 PUSH8 0xFFFFFFFFFFFFFFFF DUP3 GT ISZERO PUSH2 0x3B53 JUMPI PUSH2 0x3B52 PUSH2 0x368D JUMP JUMPDEST JUMPDEST PUSH1 0x20 DUP3 MUL SWAP1 POP PUSH1 0x20 DUP2 ADD SWAP1 POP SWAP2 SWAP1 POP JUMP JUMPDEST PUSH1 0x0 PUSH2 0x3B77 PUSH2 0x3B72 DUP5 PUSH2 0x3B38 JUMP JUMPDEST PUSH2 0x36ED JUMP JUMPDEST SWAP1 POP DUP1 DUP4 DUP3 MSTORE PUSH1 0x20 DUP3 ADD SWAP1 POP PUSH1 0x20 DUP5 MUL DUP4 ADD DUP6 DUP2 GT ISZERO PUSH2 0x3B9A JUMPI PUSH2 0x3B99 PUSH2 0x3734 JUMP JUMPDEST JUMPDEST DUP4 JUMPDEST DUP2 DUP2 LT ISZERO PUSH2 0x3BC3 JUMPI DUP1 PUSH2 0x3BAF DUP9 DUP3 PUSH2 0x332C JUMP JUMPDEST DUP5 MSTORE PUSH1 0x20 DUP5 ADD SWAP4 POP POP PUSH1 0x20 DUP2 ADD SWAP1 POP PUSH2 0x3B9C JUMP JUMPDEST POP POP POP SWAP4 SWAP3 POP POP POP JUMP JUMPDEST PUSH1 0x0 DUP3 PUSH1 0x1F DUP4 ADD SLT PUSH2 0x3BE2 JUMPI PUSH2 0x3BE1 PUSH2 0x3688 JUMP JUMPDEST JUMPDEST DUP2 CALLDATALOAD PUSH2 0x3BF2 DUP5 DUP3 PUSH1 0x20 DUP7 ADD PUSH2 0x3B64 JUMP JUMPDEST SWAP2 POP POP SWAP3 SWAP2 POP POP JUMP JUMPDEST PUSH1 0x0 DUP1 PUSH1 0x40 DUP4 DUP6 SUB SLT ISZERO PUSH2 0x3C12 JUMPI PUSH2 0x3C11 PUSH2 0x32D9 JUMP JUMPDEST JUMPDEST PUSH1 0x0 DUP4 ADD CALLDATALOAD PUSH8 0xFFFFFFFFFFFFFFFF DUP2 GT ISZERO PUSH2 0x3C30 JUMPI PUSH2 0x3C2F PUSH2 0x32DE JUMP JUMPDEST JUMPDEST PUSH2 0x3C3C DUP6 DUP3 DUP7 ADD PUSH2 0x3BCD JUMP JUMPDEST SWAP3 POP POP PUSH1 0x20 DUP4 ADD CALLDATALOAD PUSH8 0xFFFFFFFFFFFFFFFF DUP2 GT ISZERO PUSH2 0x3C5D JUMPI PUSH2 0x3C5C PUSH2 0x32DE JUMP JUMPDEST JUMPDEST PUSH2 0x3C69 DUP6 DUP3 DUP7 ADD PUSH2 0x37A2 JUMP JUMPDEST SWAP2 POP POP SWAP3 POP SWAP3 SWAP1 POP JUMP JUMPDEST PUSH1 0x0 DUP2 MLOAD SWAP1 POP SWAP2 SWAP1 POP JUMP JUMPDEST PUSH1 0x0 DUP3 DUP3 MSTORE PUSH1 0x20 DUP3 ADD SWAP1 POP SWAP3 SWAP2 POP POP JUMP JUMPDEST PUSH1 0x0 DUP2 SWAP1 POP PUSH1 0x20 DUP3 ADD SWAP1 POP SWAP2 SWAP1 POP JUMP JUMPDEST PUSH1 0x0 PUSH2 0x180 DUP4 ADD PUSH1 0x0 DUP4 ADD MLOAD PUSH2 0x3CB8 PUSH1 0x0 DUP7 ADD DUP3 PUSH2 0x3954 JUMP JUMPDEST POP PUSH1 0x20 DUP4 ADD MLOAD PUSH2 0x3CCB PUSH1 0x20 DUP7 ADD DUP3 PUSH2 0x35D4 JUMP JUMPDEST POP PUSH1 0x40 DUP4 ADD MLOAD PUSH2 0x3CDE PUSH1 0x40 DUP7 ADD DUP3 PUSH2 0x35D4 JUMP JUMPDEST POP PUSH1 0x60 DUP4 ADD MLOAD PUSH2 0x3CF1 PUSH1 0x60 DUP7 ADD DUP3 PUSH2 0x35D4 JUMP JUMPDEST POP PUSH1 0x80 DUP4 ADD MLOAD PUSH2 0x3D04 PUSH1 0x80 DUP7 ADD DUP3 PUSH2 0x35D4 JUMP JUMPDEST POP PUSH1 0xA0 DUP4 ADD MLOAD PUSH2 0x3D17 PUSH1 0xA0 DUP7 ADD DUP3 PUSH2 0x35D4 JUMP JUMPDEST POP PUSH1 0xC0 DUP4 ADD MLOAD PUSH2 0x3D2A PUSH1 0xC0 DUP7 ADD DUP3 PUSH2 0x35D4 JUMP JUMPDEST POP PUSH1 0xE0 DUP4 ADD MLOAD PUSH2 0x3D3D PUSH1 0xE0 DUP7 ADD DUP3 PUSH2 0x35D4 JUMP JUMPDEST POP PUSH2 0x100 DUP4 ADD MLOAD PUSH2 0x3D52 PUSH2 0x100 DUP7 ADD DUP3 PUSH2 0x35D4 JUMP JUMPDEST POP PUSH2 0x120 DUP4 ADD MLOAD PUSH2 0x3D67 PUSH2 0x120 DUP7 ADD DUP3 PUSH2 0x35D4 JUMP JUMPDEST POP PUSH2 0x140 DUP4 ADD MLOAD PUSH2 0x3D7C PUSH2 0x140 DUP7 ADD DUP3 PUSH2 0x35D4 JUMP JUMPDEST POP PUSH2 0x160 DUP4 ADD MLOAD DUP5 DUP3 SUB PUSH2 0x160 DUP7 ADD MSTORE PUSH2 0x3D96 DUP3 DUP3 PUSH2 0x39B4 JUMP JUMPDEST SWAP2 POP POP DUP1 SWAP2 POP POP SWAP3 SWAP2 POP POP JUMP JUMPDEST PUSH1 0x0 PUSH2 0x3DAF DUP4 DUP4 PUSH2 0x3C9F JUMP JUMPDEST SWAP1 POP SWAP3 SWAP2 POP POP JUMP JUMPDEST PUSH1 0x0 PUSH1 0x20 DUP3 ADD SWAP1 POP SWAP2 SWAP1 POP JUMP JUMPDEST PUSH1 0x0 PUSH2 0x3DCF DUP3 PUSH2 0x3C73 JUMP JUMPDEST PUSH2 0x3DD9 DUP2 DUP6 PUSH2 0x3C7E JUMP JUMPDEST SWAP4 POP DUP4 PUSH1 0x20 DUP3 MUL DUP6 ADD PUSH2 0x3DEB DUP6 PUSH2 0x3C8F JUMP JUMPDEST DUP1 PUSH1 0x0 JUMPDEST DUP6 DUP2 LT ISZERO PUSH2 0x3E27 JUMPI DUP5 DUP5 SUB DUP10 MSTORE DUP2 MLOAD PUSH2 0x3E08 DUP6 DUP3 PUSH2 0x3DA3 JUMP JUMPDEST SWAP5 POP PUSH2 0x3E13 DUP4 PUSH2 0x3DB7 JUMP JUMPDEST SWAP3 POP PUSH1 0x20 DUP11 ADD SWAP10 POP POP PUSH1 0x1 DUP2 ADD SWAP1 POP PUSH2 0x3DEF JUMP JUMPDEST POP DUP3 SWAP8 POP DUP8 SWAP6 POP POP POP POP POP POP SWAP3 SWAP2 POP POP JUMP JUMPDEST PUSH1 0x0 PUSH1 0x20 DUP3 ADD SWAP1 POP DUP2 DUP2 SUB PUSH1 0x0 DUP4 ADD MSTORE PUSH2 0x3E53 DUP2 DUP5 PUSH2 0x3DC4 JUMP JUMPDEST SWAP1 POP SWAP3 SWAP2 POP POP JUMP JUMPDEST PUSH1 0x0 PUSH8 0xFFFFFFFFFFFFFFFF DUP3 GT ISZERO PUSH2 0x3E76 JUMPI PUSH2 0x3E75 PUSH2 0x368D JUMP JUMPDEST JUMPDEST PUSH2 0x3E7F DUP3 PUSH2 0x350F JUMP JUMPDEST SWAP1 POP PUSH1 0x20 DUP2 ADD SWAP1 POP SWAP2 SWAP1 POP JUMP JUMPDEST PUSH1 0x0 PUSH2 0x3E9F PUSH2 0x3E9A DUP5 PUSH2 0x3E5B JUMP JUMPDEST PUSH2 0x36ED JUMP JUMPDEST SWAP1 POP DUP3 DUP2 MSTORE PUSH1 0x20 DUP2 ADD DUP5 DUP5 DUP5 ADD GT ISZERO PUSH2 0x3EBB JUMPI PUSH2 0x3EBA PUSH2 0x37D0 JUMP JUMPDEST JUMPDEST PUSH2 0x3EC6 DUP5 DUP3 DUP6 PUSH2 0x3806 JUMP JUMPDEST POP SWAP4 SWAP3 POP POP POP JUMP JUMPDEST PUSH1 0x0 DUP3 PUSH1 0x1F DUP4 ADD SLT PUSH2 0x3EE3 JUMPI PUSH2 0x3EE2 PUSH2 0x3688 JUMP JUMPDEST JUMPDEST DUP2 CALLDATALOAD PUSH2 0x3EF3 DUP5 DUP3 PUSH1 0x20 DUP7 ADD PUSH2 0x3E8C JUMP JUMPDEST SWAP2 POP POP SWAP3 SWAP2 POP POP JUMP JUMPDEST PUSH1 0x0 DUP1 PUSH1 0x0 DUP1 PUSH1 0x0 DUP1 PUSH1 0xC0 DUP8 DUP10 SUB SLT ISZERO PUSH2 0x3F19 JUMPI PUSH2 0x3F18 PUSH2 0x32D9 JUMP JUMPDEST JUMPDEST PUSH1 0x0 PUSH2 0x3F27 DUP10 DUP3 DUP11 ADD PUSH2 0x3362 JUMP JUMPDEST SWAP7 POP POP PUSH1 0x20 PUSH2 0x3F38 DUP10 DUP3 DUP11 ADD PUSH2 0x3362 JUMP JUMPDEST SWAP6 POP POP PUSH1 0x40 PUSH2 0x3F49 DUP10 DUP3 DUP11 ADD PUSH2 0x3362 JUMP JUMPDEST SWAP5 POP POP PUSH1 0x60 DUP8 ADD CALLDATALOAD PUSH8 0xFFFFFFFFFFFFFFFF DUP2 GT ISZERO PUSH2 0x3F6A JUMPI PUSH2 0x3F69 PUSH2 0x32DE JUMP JUMPDEST JUMPDEST PUSH2 0x3F76 DUP10 DUP3 DUP11 ADD PUSH2 0x3ECE JUMP JUMPDEST SWAP4 POP POP PUSH1 0x80 PUSH2 0x3F87 DUP10 DUP3 DUP11 ADD PUSH2 0x3362 JUMP JUMPDEST SWAP3 POP POP PUSH1 0xA0 PUSH2 0x3F98 DUP10 DUP3 DUP11 ADD PUSH2 0x3362 JUMP JUMPDEST SWAP2 POP POP SWAP3 SWAP6 POP SWAP3 SWAP6 POP SWAP3 SWAP6 JUMP JUMPDEST PUSH2 0x3FAE DUP2 PUSH2 0x3466 JUMP JUMPDEST DUP2 EQ PUSH2 0x3FB9 JUMPI PUSH1 0x0 DUP1 REVERT JUMPDEST POP JUMP JUMPDEST PUSH1 0x0 DUP2 CALLDATALOAD SWAP1 POP PUSH2 0x3FCB DUP2 PUSH2 0x3FA5 JUMP JUMPDEST SWAP3 SWAP2 POP POP JUMP JUMPDEST PUSH1 0x0 DUP1 PUSH1 0x40 DUP4 DUP6 SUB SLT ISZERO PUSH2 0x3FE8 JUMPI PUSH2 0x3FE7 PUSH2 0x32D9 JUMP JUMPDEST JUMPDEST PUSH1 0x0 PUSH2 0x3FF6 DUP6 DUP3 DUP7 ADD PUSH2 0x332C JUMP JUMPDEST SWAP3 POP POP PUSH1 0x20 PUSH2 0x4007 DUP6 DUP3 DUP7 ADD PUSH2 0x3FBC JUMP JUMPDEST SWAP2 POP POP SWAP3 POP SWAP3 SWAP1 POP JUMP JUMPDEST PUSH2 0x401A DUP2 PUSH2 0x3303 JUMP JUMPDEST DUP3 MSTORE POP POP JUMP JUMPDEST PUSH1 0x0 PUSH1 0x20 DUP3 ADD SWAP1 POP PUSH2 0x4035 PUSH1 0x0 DUP4 ADD DUP5 PUSH2 0x4011 JUMP JUMPDEST SWAP3 SWAP2 POP POP JUMP JUMPDEST PUSH1 0x0 PUSH2 0x160 DUP3 ADD SWAP1 POP PUSH2 0x4051 PUSH1 0x0 DUP4 ADD DUP15 PUSH2 0x4011 JUMP JUMPDEST PUSH2 0x405E PUSH1 0x20 DUP4 ADD DUP14 PUSH2 0x33B7 JUMP JUMPDEST PUSH2 0x406B PUSH1 0x40 DUP4 ADD DUP13 PUSH2 0x33B7 JUMP JUMPDEST PUSH2 0x4078 PUSH1 0x60 DUP4 ADD DUP12 PUSH2 0x33B7 JUMP JUMPDEST PUSH2 0x4085 PUSH1 0x80 DUP4 ADD DUP11 PUSH2 0x33B7 JUMP JUMPDEST PUSH2 0x4092 PUSH1 0xA0 DUP4 ADD DUP10 PUSH2 0x33B7 JUMP JUMPDEST PUSH2 0x409F PUSH1 0xC0 DUP4 ADD DUP9 PUSH2 0x33B7 JUMP JUMPDEST PUSH2 0x40AC PUSH1 0xE0 DUP4 ADD DUP8 PUSH2 0x33B7 JUMP JUMPDEST PUSH2 0x40BA PUSH2 0x100 DUP4 ADD DUP7 PUSH2 0x33B7 JUMP JUMPDEST PUSH2 0x40C8 PUSH2 0x120 DUP4 ADD DUP6 PUSH2 0x33B7 JUMP JUMPDEST PUSH2 0x40D6 PUSH2 0x140 DUP4 ADD DUP5 PUSH2 0x33B7 JUMP JUMPDEST SWAP13 SWAP12 POP POP POP POP POP POP POP POP POP POP POP POP JUMP JUMPDEST PUSH1 0x0 DUP1 PUSH1 0x40 DUP4 DUP6 SUB SLT ISZERO PUSH2 0x40FD JUMPI PUSH2 0x40FC PUSH2 0x32D9 JUMP JUMPDEST JUMPDEST PUSH1 0x0 PUSH2 0x410B DUP6 DUP3 DUP7 ADD PUSH2 0x332C JUMP JUMPDEST SWAP3 POP POP PUSH1 0x20 PUSH2 0x411C DUP6 DUP3 DUP7 ADD PUSH2 0x332C JUMP JUMPDEST SWAP2 POP POP SWAP3 POP SWAP3 SWAP1 POP JUMP JUMPDEST PUSH1 0x0 DUP1 PUSH1 0x0 DUP1 PUSH1 0x0 PUSH1 0xA0 DUP7 DUP9 SUB SLT ISZERO PUSH2 0x4142 JUMPI PUSH2 0x4141 PUSH2 0x32D9 JUMP JUMPDEST JUMPDEST PUSH1 0x0 PUSH2 0x4150 DUP9 DUP3 DUP10 ADD PUSH2 0x332C JUMP JUMPDEST SWAP6 POP POP PUSH1 0x20 PUSH2 0x4161 DUP9 DUP3 DUP10 ADD PUSH2 0x332C JUMP JUMPDEST SWAP5 POP POP PUSH1 0x40 PUSH2 0x4172 DUP9 DUP3 DUP10 ADD PUSH2 0x3362 JUMP JUMPDEST SWAP4 POP POP PUSH1 0x60 PUSH2 0x4183 DUP9 DUP3 DUP10 ADD PUSH2 0x3362 JUMP JUMPDEST SWAP3 POP POP PUSH1 0x80 DUP7 ADD CALLDATALOAD PUSH8 0xFFFFFFFFFFFFFFFF DUP2 GT ISZERO PUSH2 0x41A4 JUMPI PUSH2 0x41A3 PUSH2 0x32DE JUMP JUMPDEST JUMPDEST PUSH2 0x41B0 DUP9 DUP3 DUP10 ADD PUSH2 0x3857 JUMP JUMPDEST SWAP2 POP POP SWAP3 SWAP6 POP SWAP3 SWAP6 SWAP1 SWAP4 POP JUMP JUMPDEST PUSH32 0x455243313135353A2061646472657373207A65726F206973206E6F7420612076 PUSH1 0x0 DUP3 ADD MSTORE PUSH32 0x616C6964206F776E657200000000000000000000000000000000000000000000 PUSH1 0x20 DUP3 ADD MSTORE POP JUMP JUMPDEST PUSH1 0x0 PUSH2 0x4219 PUSH1 0x2A DUP4 PUSH2 0x34D4 JUMP JUMPDEST SWAP2 POP PUSH2 0x4224 DUP3 PUSH2 0x41BD JUMP JUMPDEST PUSH1 0x40 DUP3 ADD SWAP1 POP SWAP2 SWAP1 POP JUMP JUMPDEST PUSH1 0x0 PUSH1 0x20 DUP3 ADD SWAP1 POP DUP2 DUP2 SUB PUSH1 0x0 DUP4 ADD MSTORE PUSH2 0x4248 DUP2 PUSH2 0x420C JUMP JUMPDEST SWAP1 POP SWAP2 SWAP1 POP JUMP JUMPDEST PUSH32 0x455243313135353A2063616C6C6572206973206E6F7420746F6B656E206F776E PUSH1 0x0 DUP3 ADD MSTORE PUSH32 0x6572206F7220617070726F766564000000000000000000000000000000000000 PUSH1 0x20 DUP3 ADD MSTORE POP JUMP JUMPDEST PUSH1 0x0 PUSH2 0x42AB PUSH1 0x2E DUP4 PUSH2 0x34D4 JUMP JUMPDEST SWAP2 POP PUSH2 0x42B6 DUP3 PUSH2 0x424F JUMP JUMPDEST PUSH1 0x40 DUP3 ADD SWAP1 POP SWAP2 SWAP1 POP JUMP JUMPDEST PUSH1 0x0 PUSH1 0x20 DUP3 ADD SWAP1 POP DUP2 DUP2 SUB PUSH1 0x0 DUP4 ADD MSTORE PUSH2 0x42DA DUP2 PUSH2 0x429E JUMP JUMPDEST SWAP1 POP SWAP2 SWAP1 POP JUMP JUMPDEST PUSH32 0x4E487B7100000000000000000000000000000000000000000000000000000000 PUSH1 0x0 MSTORE PUSH1 0x12 PUSH1 0x4 MSTORE PUSH1 0x24 PUSH1 0x0 REVERT JUMPDEST PUSH1 0x0 PUSH2 0x431B DUP3 PUSH2 0x3341 JUMP JUMPDEST SWAP2 POP PUSH2 0x4326 DUP4 PUSH2 0x3341 JUMP JUMPDEST SWAP3 POP DUP3 PUSH2 0x4336 JUMPI PUSH2 0x4335 PUSH2 0x42E1 JUMP JUMPDEST JUMPDEST DUP3 DUP3 MOD SWAP1 POP SWAP3 SWAP2 POP POP JUMP JUMPDEST PUSH32 0x74686520736F6E6720646F65736E277420657869737473000000000000000000 PUSH1 0x0 DUP3 ADD MSTORE POP JUMP JUMPDEST PUSH1 0x0 PUSH2 0x4377 PUSH1 0x17 DUP4 PUSH2 0x34D4 JUMP JUMPDEST SWAP2 POP PUSH2 0x4382 DUP3 PUSH2 0x4341 JUMP JUMPDEST PUSH1 0x20 DUP3 ADD SWAP1 POP SWAP2 SWAP1 POP JUMP JUMPDEST PUSH1 0x0 PUSH1 0x20 DUP3 ADD SWAP1 POP DUP2 DUP2 SUB PUSH1 0x0 DUP4 ADD MSTORE PUSH2 0x43A6 DUP2 PUSH2 0x436A JUMP JUMPDEST SWAP1 POP SWAP2 SWAP1 POP JUMP JUMPDEST PUSH32 0x4E487B7100000000000000000000000000000000000000000000000000000000 PUSH1 0x0 MSTORE PUSH1 0x32 PUSH1 0x4 MSTORE PUSH1 0x24 PUSH1 0x0 REVERT JUMPDEST PUSH32 0x4E487B7100000000000000000000000000000000000000000000000000000000 PUSH1 0x0 MSTORE PUSH1 0x11 PUSH1 0x4 MSTORE PUSH1 0x24 PUSH1 0x0 REVERT JUMPDEST PUSH1 0x0 PUSH2 0x4416 DUP3 PUSH2 0x3341 JUMP JUMPDEST SWAP2 POP PUSH2 0x4421 DUP4 PUSH2 0x3341 JUMP JUMPDEST SWAP3 POP DUP3 DUP3 SUB SWAP1 POP DUP2 DUP2 GT ISZERO PUSH2 0x4439 JUMPI PUSH2 0x4438 PUSH2 0x43DC JUMP JUMPDEST JUMPDEST SWAP3 SWAP2 POP POP JUMP JUMPDEST PUSH32 0x455243313135353A206163636F756E747320616E6420696473206C656E677468 PUSH1 0x0 DUP3 ADD MSTORE PUSH32 0x206D69736D617463680000000000000000000000000000000000000000000000 PUSH1 0x20 DUP3 ADD MSTORE POP JUMP JUMPDEST PUSH1 0x0 PUSH2 0x449B PUSH1 0x29 DUP4 PUSH2 0x34D4 JUMP JUMPDEST SWAP2 POP PUSH2 0x44A6 DUP3 PUSH2 0x443F JUMP JUMPDEST PUSH1 0x40 DUP3 ADD SWAP1 POP SWAP2 SWAP1 POP JUMP JUMPDEST PUSH1 0x0 PUSH1 0x20 DUP3 ADD SWAP1 POP DUP2 DUP2 SUB PUSH1 0x0 DUP4 ADD MSTORE PUSH2 0x44CA DUP2 PUSH2 0x448E JUMP JUMPDEST SWAP1 POP SWAP2 SWAP1 POP JUMP JUMPDEST PUSH1 0x0 PUSH2 0x44DC DUP3 PUSH2 0x3341 JUMP JUMPDEST SWAP2 POP PUSH32 0xFFFFFFFFFFFFFFFFFFFFFFFFFFFFFFFFFFFFFFFFFFFFFFFFFFFFFFFFFFFFFFFF DUP3 SUB PUSH2 0x450E JUMPI PUSH2 0x450D PUSH2 0x43DC JUMP JUMPDEST JUMPDEST PUSH1 0x1 DUP3 ADD SWAP1 POP SWAP2 SWAP1 POP JUMP JUMPDEST PUSH1 0x0 PUSH2 0x4524 DUP3 PUSH2 0x3341 JUMP JUMPDEST SWAP2 POP PUSH2 0x452F DUP4 PUSH2 0x3341 JUMP JUMPDEST SWAP3 POP DUP3 PUSH2 0x453F JUMPI PUSH2 0x453E PUSH2 0x42E1 JUMP JUMPDEST JUMPDEST DUP3 DUP3 DIV SWAP1 POP SWAP3 SWAP2 POP POP JUMP JUMPDEST PUSH1 0x0 PUSH2 0x4555 DUP3 PUSH2 0x3341 JUMP JUMPDEST SWAP2 POP PUSH2 0x4560 DUP4 PUSH2 0x3341 JUMP JUMPDEST SWAP3 POP DUP3 DUP3 MUL PUSH2 0x456E DUP2 PUSH2 0x3341 JUMP JUMPDEST SWAP2 POP DUP3 DUP3 DIV DUP5 EQ DUP4 ISZERO OR PUSH2 0x4585 JUMPI PUSH2 0x4584 PUSH2 0x43DC JUMP JUMPDEST JUMPDEST POP SWAP3 SWAP2 POP POP JUMP JUMPDEST PUSH1 0x0 PUSH2 0x4597 DUP3 PUSH2 0x3341 JUMP JUMPDEST SWAP2 POP PUSH2 0x45A2 DUP4 PUSH2 0x3341 JUMP JUMPDEST SWAP3 POP DUP3 DUP3 ADD SWAP1 POP DUP1 DUP3 GT ISZERO PUSH2 0x45BA JUMPI PUSH2 0x45B9 PUSH2 0x43DC JUMP JUMPDEST JUMPDEST SWAP3 SWAP2 POP POP JUMP JUMPDEST PUSH1 0x0 DUP2 SWAP1 POP SWAP3 SWAP2 POP POP JUMP JUMPDEST POP JUMP JUMPDEST PUSH1 0x0 PUSH2 0x45DB PUSH1 0x0 DUP4 PUSH2 0x45C0 JUMP JUMPDEST SWAP2 POP PUSH2 0x45E6 DUP3 PUSH2 0x45CB JUMP JUMPDEST PUSH1 0x0 DUP3 ADD SWAP1 POP SWAP2 SWAP1 POP JUMP JUMPDEST PUSH1 0x0 PUSH2 0x45FC DUP3 PUSH2 0x45CE JUMP JUMPDEST SWAP2 POP DUP2 SWAP1 POP SWAP2 SWAP1 POP JUMP JUMPDEST PUSH32 0x6661696C656420746F2064697372696275746520726F79616C69746965732074 PUSH1 0x0 DUP3 ADD MSTORE PUSH32 0x6F20746865206172746973740000000000000000000000000000000000000000 PUSH1 0x20 DUP3 ADD MSTORE POP JUMP JUMPDEST PUSH1 0x0 PUSH2 0x4662 PUSH1 0x2C DUP4 PUSH2 0x34D4 JUMP JUMPDEST SWAP2 POP PUSH2 0x466D DUP3 PUSH2 0x4606 JUMP JUMPDEST PUSH1 0x40 DUP3 ADD SWAP1 POP SWAP2 SWAP1 POP JUMP JUMPDEST PUSH1 0x0 PUSH1 0x20 DUP3 ADD SWAP1 POP DUP2 DUP2 SUB PUSH1 0x0 DUP4 ADD MSTORE PUSH2 0x4691 DUP2 PUSH2 0x4655 JUMP JUMPDEST SWAP1 POP SWAP2 SWAP1 POP JUMP JUMPDEST PUSH32 0x6661696C656420746F2064697372696275746520726F79616C69746965732074 PUSH1 0x0 DUP3 ADD MSTORE PUSH32 0x6F2074686520737570657266616E000000000000000000000000000000000000 PUSH1 0x20 DUP3 ADD MSTORE POP JUMP JUMPDEST PUSH1 0x0 PUSH2 0x46F4 PUSH1 0x2E DUP4 PUSH2 0x34D4 JUMP JUMPDEST SWAP2 POP PUSH2 0x46FF DUP3 PUSH2 0x4698 JUMP JUMPDEST PUSH1 0x40 DUP3 ADD SWAP1 POP SWAP2 SWAP1 POP JUMP JUMPDEST PUSH1 0x0 PUSH1 0x20 DUP3 ADD SWAP1 POP DUP2 DUP2 SUB PUSH1 0x0 DUP4 ADD MSTORE PUSH2 0x4723 DUP2 PUSH2 0x46E7 JUMP JUMPDEST SWAP1 POP SWAP2 SWAP1 POP JUMP JUMPDEST PUSH32 0x6661696C656420746F2064697372696275746520726F79616C69746965732074 PUSH1 0x0 DUP3 ADD MSTORE PUSH32 0x6F2074686520706C61666F726D204F776E657200000000000000000000000000 PUSH1 0x20 DUP3 ADD MSTORE POP JUMP JUMPDEST PUSH1 0x0 PUSH2 0x4786 PUSH1 0x33 DUP4 PUSH2 0x34D4 JUMP JUMPDEST SWAP2 POP PUSH2 0x4791 DUP3 PUSH2 0x472A JUMP JUMPDEST PUSH1 0x40 DUP3 ADD SWAP1 POP SWAP2 SWAP1 POP JUMP JUMPDEST PUSH1 0x0 PUSH1 0x20 DUP3 ADD SWAP1 POP DUP2 DUP2 SUB PUSH1 0x0 DUP4 ADD MSTORE PUSH2 0x47B5 DUP2 PUSH2 0x4779 JUMP JUMPDEST SWAP1 POP SWAP2 SWAP1 POP JUMP JUMPDEST PUSH32 0x4C696D6974656420737570706C79206D75737420626520677265617465722074 PUSH1 0x0 DUP3 ADD MSTORE PUSH32 0x68616E2030000000000000000000000000000000000000000000000000000000 PUSH1 0x20 DUP3 ADD MSTORE POP JUMP JUMPDEST PUSH1 0x0 PUSH2 0x4818 PUSH1 0x25 DUP4 PUSH2 0x34D4 JUMP JUMPDEST SWAP2 POP PUSH2 0x4823 DUP3 PUSH2 0x47BC JUMP JUMPDEST PUSH1 0x40 DUP3 ADD SWAP1 POP SWAP2 SWAP1 POP JUMP JUMPDEST PUSH1 0x0 PUSH1 0x20 DUP3 ADD SWAP1 POP DUP2 DUP2 SUB PUSH1 0x0 DUP4 ADD MSTORE PUSH2 0x4847 DUP2 PUSH2 0x480B JUMP JUMPDEST SWAP1 POP SWAP2 SWAP1 POP JUMP JUMPDEST PUSH1 0x0 PUSH2 0x100 DUP3 ADD SWAP1 POP PUSH2 0x4864 PUSH1 0x0 DUP4 ADD DUP12 PUSH2 0x33B7 JUMP JUMPDEST PUSH2 0x4871 PUSH1 0x20 DUP4 ADD DUP11 PUSH2 0x33B7 JUMP JUMPDEST PUSH2 0x487E PUSH1 0x40 DUP4 ADD DUP10 PUSH2 0x4011 JUMP JUMPDEST PUSH2 0x488B PUSH1 0x60 DUP4 ADD DUP9 PUSH2 0x33B7 JUMP JUMPDEST PUSH2 0x4898 PUSH1 0x80 DUP4 ADD DUP8 PUSH2 0x33B7 JUMP JUMPDEST PUSH2 0x48A5 PUSH1 0xA0 DUP4 ADD DUP7 PUSH2 0x33B7 JUMP JUMPDEST PUSH2 0x48B2 PUSH1 0xC0 DUP4 ADD DUP6 PUSH2 0x33B7 JUMP JUMPDEST PUSH2 0x48BF PUSH1 0xE0 DUP4 ADD DUP5 PUSH2 0x33B7 JUMP JUMPDEST SWAP10 SWAP9 POP POP POP POP POP POP POP POP POP JUMP JUMPDEST PUSH32 0x74686520736F6E67496420646F65736E277420657869737473206F72206E6F74 PUSH1 0x0 DUP3 ADD MSTORE PUSH32 0x2076616C69640000000000000000000000000000000000000000000000000000 PUSH1 0x20 DUP3 ADD MSTORE POP JUMP JUMPDEST PUSH1 0x0 PUSH2 0x4928 PUSH1 0x26 DUP4 PUSH2 0x34D4 JUMP JUMPDEST SWAP2 POP PUSH2 0x4933 DUP3 PUSH2 0x48CC JUMP JUMPDEST PUSH1 0x40 DUP3 ADD SWAP1 POP SWAP2 SWAP1 POP JUMP JUMPDEST PUSH1 0x0 PUSH1 0x20 DUP3 ADD SWAP1 POP DUP2 DUP2 SUB PUSH1 0x0 DUP4 ADD MSTORE PUSH2 0x4957 DUP2 PUSH2 0x491B JUMP JUMPDEST SWAP1 POP SWAP2 SWAP1 POP JUMP JUMPDEST PUSH32 0x506C6561736520706179207468652066756C6C20616D6F756E74000000000000 PUSH1 0x0 DUP3 ADD MSTORE POP JUMP JUMPDEST PUSH1 0x0 PUSH2 0x4994 PUSH1 0x1A DUP4 PUSH2 0x34D4 JUMP JUMPDEST SWAP2 POP PUSH2 0x499F DUP3 PUSH2 0x495E JUMP JUMPDEST PUSH1 0x20 DUP3 ADD SWAP1 POP SWAP2 SWAP1 POP JUMP JUMPDEST PUSH1 0x0 PUSH1 0x20 DUP3 ADD SWAP1 POP DUP2 DUP2 SUB PUSH1 0x0 DUP4 ADD MSTORE PUSH2 0x49C3 DUP2 PUSH2 0x4987 JUMP JUMPDEST SWAP1 POP SWAP2 SWAP1 POP JUMP JUMPDEST PUSH32 0x796F752063616E6E6F742062757920796F7572206F776E20736F6E6700000000 PUSH1 0x0 DUP3 ADD MSTORE POP JUMP JUMPDEST PUSH1 0x0 PUSH2 0x4A00 PUSH1 0x1C DUP4 PUSH2 0x34D4 JUMP JUMPDEST SWAP2 POP PUSH2 0x4A0B DUP3 PUSH2 0x49CA JUMP JUMPDEST PUSH1 0x20 DUP3 ADD SWAP1 POP SWAP2 SWAP1 POP JUMP JUMPDEST PUSH1 0x0 PUSH1 0x20 DUP3 ADD SWAP1 POP DUP2 DUP2 SUB PUSH1 0x0 DUP4 ADD MSTORE PUSH2 0x4A2F DUP2 PUSH2 0x49F3 JUMP JUMPDEST SWAP1 POP SWAP2 SWAP1 POP JUMP JUMPDEST PUSH1 0x0 PUSH2 0x4A41 DUP3 PUSH2 0x32E3 JUMP JUMPDEST SWAP1 POP SWAP2 SWAP1 POP JUMP JUMPDEST PUSH2 0x4A51 DUP2 PUSH2 0x4A36 JUMP JUMPDEST DUP3 MSTORE POP POP JUMP JUMPDEST PUSH1 0x0 PUSH1 0x80 DUP3 ADD SWAP1 POP PUSH2 0x4A6C PUSH1 0x0 DUP4 ADD DUP8 PUSH2 0x33B7 JUMP JUMPDEST PUSH2 0x4A79 PUSH1 0x20 DUP4 ADD DUP7 PUSH2 0x4A48 JUMP JUMPDEST PUSH2 0x4A86 PUSH1 0x40 DUP4 ADD DUP6 PUSH2 0x4011 JUMP JUMPDEST PUSH2 0x4A93 PUSH1 0x60 DUP4 ADD DUP5 PUSH2 0x4011 JUMP JUMPDEST SWAP6 SWAP5 POP POP POP POP POP JUMP JUMPDEST PUSH1 0x0 PUSH1 0x40 DUP3 ADD SWAP1 POP PUSH2 0x4AB1 PUSH1 0x0 DUP4 ADD DUP6 PUSH2 0x33B7 JUMP JUMPDEST PUSH2 0x4ABE PUSH1 0x20 DUP4 ADD DUP5 PUSH2 0x4011 JUMP JUMPDEST SWAP4 SWAP3 POP POP POP JUMP JUMPDEST PUSH1 0x0 PUSH2 0x4AD2 PUSH1 0x0 DUP4 PUSH2 0x34D4 JUMP JUMPDEST SWAP2 POP PUSH2 0x4ADD DUP3 PUSH2 0x45CB JUMP JUMPDEST PUSH1 0x0 DUP3 ADD SWAP1 POP SWAP2 SWAP1 POP JUMP JUMPDEST PUSH1 0x0 PUSH1 0x20 DUP3 ADD SWAP1 POP DUP2 DUP2 SUB PUSH1 0x0 DUP4 ADD MSTORE PUSH2 0x4B01 DUP2 PUSH2 0x4AC5 JUMP JUMPDEST SWAP1 POP SWAP2 SWAP1 POP JUMP JUMPDEST PUSH32 0x4E487B7100000000000000000000000000000000000000000000000000000000 PUSH1 0x0 MSTORE PUSH1 0x22 PUSH1 0x4 MSTORE PUSH1 0x24 PUSH1 0x0 REVERT JUMPDEST PUSH1 0x0 PUSH1 0x2 DUP3 DIV SWAP1 POP PUSH1 0x1 DUP3 AND DUP1 PUSH2 0x4B4F JUMPI PUSH1 0x7F DUP3 AND SWAP2 POP JUMPDEST PUSH1 0x20 DUP3 LT DUP2 SUB PUSH2 0x4B62 JUMPI PUSH2 0x4B61 PUSH2 0x4B08 JUMP JUMPDEST JUMPDEST POP SWAP2 SWAP1 POP JUMP JUMPDEST PUSH1 0x0 DUP2 SWAP1 POP SWAP3 SWAP2 POP POP JUMP JUMPDEST PUSH1 0x0 DUP2 SWAP1 POP DUP2 PUSH1 0x0 MSTORE PUSH1 0x20 PUSH1 0x0 KECCAK256 SWAP1 POP SWAP2 SWAP1 POP JUMP JUMPDEST PUSH1 0x0 DUP2 SLOAD PUSH2 0x4B95 DUP2 PUSH2 0x4B37 JUMP JUMPDEST PUSH2 0x4B9F DUP2 DUP7 PUSH2 0x4B68 JUMP JUMPDEST SWAP5 POP PUSH1 0x1 DUP3 AND PUSH1 0x0 DUP2 EQ PUSH2 0x4BBA JUMPI PUSH1 0x1 DUP2 EQ PUSH2 0x4BCF JUMPI PUSH2 0x4C02 JUMP JUMPDEST PUSH1 0xFF NOT DUP4 AND DUP7 MSTORE DUP2 ISZERO ISZERO DUP3 MUL DUP7 ADD SWAP4 POP PUSH2 0x4C02 JUMP JUMPDEST PUSH2 0x4BD8 DUP6 PUSH2 0x4B73 JUMP JUMPDEST PUSH1 0x0 JUMPDEST DUP4 DUP2 LT ISZERO PUSH2 0x4BFA JUMPI DUP2 SLOAD DUP2 DUP10 ADD MSTORE PUSH1 0x1 DUP3 ADD SWAP2 POP PUSH1 0x20 DUP2 ADD SWAP1 POP PUSH2 0x4BDB JUMP JUMPDEST DUP4 DUP9 ADD SWAP6 POP POP POP JUMPDEST POP POP POP SWAP3 SWAP2 POP POP JUMP JUMPDEST PUSH1 0x0 PUSH2 0x4C16 DUP3 PUSH2 0x34C9 JUMP JUMPDEST PUSH2 0x4C20 DUP2 DUP6 PUSH2 0x4B68 JUMP JUMPDEST SWAP4 POP PUSH2 0x4C30 DUP2 DUP6 PUSH1 0x20 DUP7 ADD PUSH2 0x34E5 JUMP JUMPDEST DUP1 DUP5 ADD SWAP2 POP POP SWAP3 SWAP2 POP POP JUMP JUMPDEST PUSH1 0x0 PUSH2 0x4C48 DUP3 DUP6 PUSH2 0x4B88 JUMP JUMPDEST SWAP2 POP PUSH2 0x4C54 DUP3 DUP5 PUSH2 0x4C0B JUMP JUMPDEST SWAP2 POP DUP2 SWAP1 POP SWAP4 SWAP3 POP POP POP JUMP JUMPDEST PUSH32 0x455243313135353A2069647320616E6420616D6F756E7473206C656E67746820 PUSH1 0x0 DUP3 ADD MSTORE PUSH32 0x6D69736D61746368000000000000000000000000000000000000000000000000 PUSH1 0x20 DUP3 ADD MSTORE POP JUMP JUMPDEST PUSH1 0x0 PUSH2 0x4CBC PUSH1 0x28 DUP4 PUSH2 0x34D4 JUMP JUMPDEST SWAP2 POP PUSH2 0x4CC7 DUP3 PUSH2 0x4C60 JUMP JUMPDEST PUSH1 0x40 DUP3 ADD SWAP1 POP SWAP2 SWAP1 POP JUMP JUMPDEST PUSH1 0x0 PUSH1 0x20 DUP3 ADD SWAP1 POP DUP2 DUP2 SUB PUSH1 0x0 DUP4 ADD MSTORE PUSH2 0x4CEB DUP2 PUSH2 0x4CAF JUMP JUMPDEST SWAP1 POP SWAP2 SWAP1 POP JUMP JUMPDEST PUSH32 0x455243313135353A207472616E7366657220746F20746865207A65726F206164 PUSH1 0x0 DUP3 ADD MSTORE PUSH32 0x6472657373000000000000000000000000000000000000000000000000000000 PUSH1 0x20 DUP3 ADD MSTORE POP JUMP JUMPDEST PUSH1 0x0 PUSH2 0x4D4E PUSH1 0x25 DUP4 PUSH2 0x34D4 JUMP JUMPDEST SWAP2 POP PUSH2 0x4D59 DUP3 PUSH2 0x4CF2 JUMP JUMPDEST PUSH1 0x40 DUP3 ADD SWAP1 POP SWAP2 SWAP1 POP JUMP JUMPDEST PUSH1 0x0 PUSH1 0x20 DUP3 ADD SWAP1 POP DUP2 DUP2 SUB PUSH1 0x0 DUP4 ADD MSTORE PUSH2 0x4D7D DUP2 PUSH2 0x4D41 JUMP JUMPDEST SWAP1 POP SWAP2 SWAP1 POP JUMP JUMPDEST PUSH32 0x455243313135353A20696E73756666696369656E742062616C616E636520666F PUSH1 0x0 DUP3 ADD MSTORE PUSH32 0x72207472616E7366657200000000000000000000000000000000000000000000 PUSH1 0x20 DUP3 ADD MSTORE POP JUMP JUMPDEST PUSH1 0x0 PUSH2 0x4DE0 PUSH1 0x2A DUP4 PUSH2 0x34D4 JUMP JUMPDEST SWAP2 POP PUSH2 0x4DEB DUP3 PUSH2 0x4D84 JUMP JUMPDEST PUSH1 0x40 DUP3 ADD SWAP1 POP SWAP2 SWAP1 POP JUMP JUMPDEST PUSH1 0x0 PUSH1 0x20 DUP3 ADD SWAP1 POP DUP2 DUP2 SUB PUSH1 0x0 DUP4 ADD MSTORE PUSH2 0x4E0F DUP2 PUSH2 0x4DD3 JUMP JUMPDEST SWAP1 POP SWAP2 SWAP1 POP JUMP JUMPDEST PUSH1 0x0 PUSH1 0x40 DUP3 ADD SWAP1 POP DUP2 DUP2 SUB PUSH1 0x0 DUP4 ADD MSTORE PUSH2 0x4E30 DUP2 DUP6 PUSH2 0x3608 JUMP JUMPDEST SWAP1 POP DUP2 DUP2 SUB PUSH1 0x20 DUP4 ADD MSTORE PUSH2 0x4E44 DUP2 DUP5 PUSH2 0x3608 JUMP JUMPDEST SWAP1 POP SWAP4 SWAP3 POP POP POP JUMP JUMPDEST PUSH32 0x455243313135353A206D696E7420746F20746865207A65726F20616464726573 PUSH1 0x0 DUP3 ADD MSTORE PUSH32 0x7300000000000000000000000000000000000000000000000000000000000000 PUSH1 0x20 DUP3 ADD MSTORE POP JUMP JUMPDEST PUSH1 0x0 PUSH2 0x4EA9 PUSH1 0x21 DUP4 PUSH2 0x34D4 JUMP JUMPDEST SWAP2 POP PUSH2 0x4EB4 DUP3 PUSH2 0x4E4D JUMP JUMPDEST PUSH1 0x40 DUP3 ADD SWAP1 POP SWAP2 SWAP1 POP JUMP JUMPDEST PUSH1 0x0 PUSH1 0x20 DUP3 ADD SWAP1 POP DUP2 DUP2 SUB PUSH1 0x0 DUP4 ADD MSTORE PUSH2 0x4ED8 DUP2 PUSH2 0x4E9C JUMP JUMPDEST SWAP1 POP SWAP2 SWAP1 POP JUMP JUMPDEST PUSH1 0x0 PUSH1 0x40 DUP3 ADD SWAP1 POP PUSH2 0x4EF4 PUSH1 0x0 DUP4 ADD DUP6 PUSH2 0x33B7 JUMP JUMPDEST PUSH2 0x4F01 PUSH1 0x20 DUP4 ADD DUP5 PUSH2 0x33B7 JUMP JUMPDEST SWAP4 SWAP3 POP POP POP JUMP JUMPDEST PUSH1 0x0 PUSH1 0x20 PUSH1 0x1F DUP4 ADD DIV SWAP1 POP SWAP2 SWAP1 POP JUMP JUMPDEST PUSH1 0x0 DUP3 DUP3 SHL SWAP1 POP SWAP3 SWAP2 POP POP JUMP JUMPDEST PUSH1 0x0 PUSH1 0x8 DUP4 MUL PUSH2 0x4F55 PUSH32 0xFFFFFFFFFFFFFFFFFFFFFFFFFFFFFFFFFFFFFFFFFFFFFFFFFFFFFFFFFFFFFFFF DUP3 PUSH2 0x4F18 JUMP JUMPDEST PUSH2 0x4F5F DUP7 DUP4 PUSH2 0x4F18 JUMP JUMPDEST SWAP6 POP DUP1 NOT DUP5 AND SWAP4 POP DUP1 DUP7 AND DUP5 OR SWAP3 POP POP POP SWAP4 SWAP3 POP POP POP JUMP JUMPDEST PUSH1 0x0 DUP2 SWAP1 POP SWAP2 SWAP1 POP JUMP JUMPDEST PUSH1 0x0 PUSH2 0x4F9C PUSH2 0x4F97 PUSH2 0x4F92 DUP5 PUSH2 0x3341 JUMP JUMPDEST PUSH2 0x4F77 JUMP JUMPDEST PUSH2 0x3341 JUMP JUMPDEST SWAP1 POP SWAP2 SWAP1 POP JUMP JUMPDEST PUSH1 0x0 DUP2 SWAP1 POP SWAP2 SWAP1 POP JUMP JUMPDEST PUSH2 0x4FB6 DUP4 PUSH2 0x4F81 JUMP JUMPDEST PUSH2 0x4FCA PUSH2 0x4FC2 DUP3 PUSH2 0x4FA3 JUMP JUMPDEST DUP5 DUP5 SLOAD PUSH2 0x4F25 JUMP JUMPDEST DUP3 SSTORE POP POP POP POP JUMP JUMPDEST PUSH1 0x0 SWAP1 JUMP JUMPDEST PUSH2 0x4FDF PUSH2 0x4FD2 JUMP JUMPDEST PUSH2 0x4FEA DUP2 DUP5 DUP5 PUSH2 0x4FAD JUMP JUMPDEST POP POP POP JUMP JUMPDEST JUMPDEST DUP2 DUP2 LT ISZERO PUSH2 0x500E JUMPI PUSH2 0x5003 PUSH1 0x0 DUP3 PUSH2 0x4FD7 JUMP JUMPDEST PUSH1 0x1 DUP2 ADD SWAP1 POP PUSH2 0x4FF0 JUMP JUMPDEST POP POP JUMP JUMPDEST PUSH1 0x1F DUP3 GT ISZERO PUSH2 0x5053 JUMPI PUSH2 0x5024 DUP2 PUSH2 0x4B73 JUMP JUMPDEST PUSH2 0x502D DUP5 PUSH2 0x4F08 JUMP JUMPDEST DUP2 ADD PUSH1 0x20 DUP6 LT ISZERO PUSH2 0x503C JUMPI DUP2 SWAP1 POP JUMPDEST PUSH2 0x5050 PUSH2 0x5048 DUP6 PUSH2 0x4F08 JUMP JUMPDEST DUP4 ADD DUP3 PUSH2 0x4FEF JUMP JUMPDEST POP POP JUMPDEST POP POP POP JUMP JUMPDEST PUSH1 0x0 DUP3 DUP3 SHR SWAP1 POP SWAP3 SWAP2 POP POP JUMP JUMPDEST PUSH1 0x0 PUSH2 0x5076 PUSH1 0x0 NOT DUP5 PUSH1 0x8 MUL PUSH2 0x5058 JUMP JUMPDEST NOT DUP1 DUP4 AND SWAP2 POP POP SWAP3 SWAP2 POP POP JUMP JUMPDEST PUSH1 0x0 PUSH2 0x508F DUP4 DUP4 PUSH2 0x5065 JUMP JUMPDEST SWAP2 POP DUP3 PUSH1 0x2 MUL DUP3 OR SWAP1 POP SWAP3 SWAP2 POP POP JUMP JUMPDEST PUSH2 0x50A8 DUP3 PUSH2 0x34C9 JUMP JUMPDEST PUSH8 0xFFFFFFFFFFFFFFFF DUP2 GT ISZERO PUSH2 0x50C1 JUMPI PUSH2 0x50C0 PUSH2 0x368D JUMP JUMPDEST JUMPDEST PUSH2 0x50CB DUP3 SLOAD PUSH2 0x4B37 JUMP JUMPDEST PUSH2 0x50D6 DUP3 DUP3 DUP6 PUSH2 0x5012 JUMP JUMPDEST PUSH1 0x0 PUSH1 0x20 SWAP1 POP PUSH1 0x1F DUP4 GT PUSH1 0x1 DUP2 EQ PUSH2 0x5109 JUMPI PUSH1 0x0 DUP5 ISZERO PUSH2 0x50F7 JUMPI DUP3 DUP8 ADD MLOAD SWAP1 POP JUMPDEST PUSH2 0x5101 DUP6 DUP3 PUSH2 0x5083 JUMP JUMPDEST DUP7 SSTORE POP PUSH2 0x5169 JUMP JUMPDEST PUSH1 0x1F NOT DUP5 AND PUSH2 0x5117 DUP7 PUSH2 0x4B73 JUMP JUMPDEST PUSH1 0x0 JUMPDEST DUP3 DUP2 LT ISZERO PUSH2 0x513F JUMPI DUP5 DUP10 ADD MLOAD DUP3 SSTORE PUSH1 0x1 DUP3 ADD SWAP2 POP PUSH1 0x20 DUP6 ADD SWAP5 POP PUSH1 0x20 DUP2 ADD SWAP1 POP PUSH2 0x511A JUMP JUMPDEST DUP7 DUP4 LT ISZERO PUSH2 0x515C JUMPI DUP5 DUP10 ADD MLOAD PUSH2 0x5158 PUSH1 0x1F DUP10 AND DUP3 PUSH2 0x5065 JUMP JUMPDEST DUP4 SSTORE POP JUMPDEST PUSH1 0x1 PUSH1 0x2 DUP9 MUL ADD DUP9 SSTORE POP POP POP JUMPDEST POP POP POP POP POP POP JUMP JUMPDEST PUSH32 0x455243313135353A2073657474696E6720617070726F76616C20737461747573 PUSH1 0x0 DUP3 ADD MSTORE PUSH32 0x20666F722073656C660000000000000000000000000000000000000000000000 PUSH1 0x20 DUP3 ADD MSTORE POP JUMP JUMPDEST PUSH1 0x0 PUSH2 0x51CD PUSH1 0x29 DUP4 PUSH2 0x34D4 JUMP JUMPDEST SWAP2 POP PUSH2 0x51D8 DUP3 PUSH2 0x5171 JUMP JUMPDEST PUSH1 0x40 DUP3 ADD SWAP1 POP SWAP2 SWAP1 POP JUMP JUMPDEST PUSH1 0x0 PUSH1 0x20 DUP3 ADD SWAP1 POP DUP2 DUP2 SUB PUSH1 0x0 DUP4 ADD MSTORE PUSH2 0x51FC DUP2 PUSH2 0x51C0 JUMP JUMPDEST SWAP1 POP SWAP2 SWAP1 POP JUMP JUMPDEST PUSH1 0x0 DUP2 MLOAD SWAP1 POP SWAP2 SWAP1 POP JUMP JUMPDEST PUSH1 0x0 DUP3 DUP3 MSTORE PUSH1 0x20 DUP3 ADD SWAP1 POP SWAP3 SWAP2 POP POP JUMP JUMPDEST PUSH1 0x0 PUSH2 0x522A DUP3 PUSH2 0x5203 JUMP JUMPDEST PUSH2 0x5234 DUP2 DUP6 PUSH2 0x520E JUMP JUMPDEST SWAP4 POP PUSH2 0x5244 DUP2 DUP6 PUSH1 0x20 DUP7 ADD PUSH2 0x34E5 JUMP JUMPDEST PUSH2 0x524D DUP2 PUSH2 0x350F JUMP JUMPDEST DUP5 ADD SWAP2 POP POP SWAP3 SWAP2 POP POP JUMP JUMPDEST PUSH1 0x0 PUSH1 0xA0 DUP3 ADD SWAP1 POP PUSH2 0x526D PUSH1 0x0 DUP4 ADD DUP9 PUSH2 0x4011 JUMP JUMPDEST PUSH2 0x527A PUSH1 0x20 DUP4 ADD DUP8 PUSH2 0x4011 JUMP JUMPDEST DUP2 DUP2 SUB PUSH1 0x40 DUP4 ADD MSTORE PUSH2 0x528C DUP2 DUP7 PUSH2 0x3608 JUMP JUMPDEST SWAP1 POP DUP2 DUP2 SUB PUSH1 0x60 DUP4 ADD MSTORE PUSH2 0x52A0 DUP2 DUP6 PUSH2 0x3608 JUMP JUMPDEST SWAP1 POP DUP2 DUP2 SUB PUSH1 0x80 DUP4 ADD MSTORE PUSH2 0x52B4 DUP2 DUP5 PUSH2 0x521F JUMP JUMPDEST SWAP1 POP SWAP7 SWAP6 POP POP POP POP POP POP JUMP JUMPDEST PUSH1 0x0 DUP2 MLOAD SWAP1 POP PUSH2 0x52CF DUP2 PUSH2 0x340D JUMP JUMPDEST SWAP3 SWAP2 POP POP JUMP JUMPDEST PUSH1 0x0 PUSH1 0x20 DUP3 DUP5 SUB SLT ISZERO PUSH2 0x52EB JUMPI PUSH2 0x52EA PUSH2 0x32D9 JUMP JUMPDEST JUMPDEST PUSH1 0x0 PUSH2 0x52F9 DUP5 DUP3 DUP6 ADD PUSH2 0x52C0 JUMP JUMPDEST SWAP2 POP POP SWAP3 SWAP2 POP POP JUMP JUMPDEST PUSH1 0x0 DUP2 PUSH1 0xE0 SHR SWAP1 POP SWAP2 SWAP1 POP JUMP JUMPDEST PUSH1 0x0 PUSH1 0x3 RETURNDATASIZE GT ISZERO PUSH2 0x532E JUMPI PUSH1 0x4 PUSH1 0x0 DUP1 RETURNDATACOPY PUSH2 0x532B PUSH1 0x0 MLOAD PUSH2 0x5302 JUMP JUMPDEST SWAP1 POP JUMPDEST SWAP1 JUMP JUMPDEST PUSH1 0x0 PUSH1 0x44 RETURNDATASIZE LT PUSH2 0x53BE JUMPI PUSH2 0x5343 PUSH2 0x32CF JUMP JUMPDEST PUSH1 0x4 RETURNDATASIZE SUB PUSH1 0x4 DUP3 RETURNDATACOPY DUP1 MLOAD RETURNDATASIZE PUSH1 0x24 DUP3 ADD GT PUSH8 0xFFFFFFFFFFFFFFFF DUP3 GT OR ISZERO PUSH2 0x536B JUMPI POP POP PUSH2 0x53BE JUMP JUMPDEST DUP1 DUP3 ADD DUP1 MLOAD PUSH8 0xFFFFFFFFFFFFFFFF DUP2 GT ISZERO PUSH2 0x5389 JUMPI POP POP POP POP PUSH2 0x53BE JUMP JUMPDEST DUP1 PUSH1 0x20 DUP4 ADD ADD PUSH1 0x4 RETURNDATASIZE SUB DUP6 ADD DUP2 GT ISZERO PUSH2 0x53A6 JUMPI POP POP POP POP POP PUSH2 0x53BE JUMP JUMPDEST PUSH2 0x53B5 DUP3 PUSH1 0x20 ADD DUP6 ADD DUP7 PUSH2 0x36BC JUMP JUMPDEST DUP3 SWAP6 POP POP POP POP POP POP JUMPDEST SWAP1 JUMP JUMPDEST PUSH32 0x455243313135353A207472616E7366657220746F206E6F6E2D45524331313535 PUSH1 0x0 DUP3 ADD MSTORE PUSH32 0x526563656976657220696D706C656D656E746572000000000000000000000000 PUSH1 0x20 DUP3 ADD MSTORE POP JUMP JUMPDEST PUSH1 0x0 PUSH2 0x541D PUSH1 0x34 DUP4 PUSH2 0x34D4 JUMP JUMPDEST SWAP2 POP PUSH2 0x5428 DUP3 PUSH2 0x53C1 JUMP JUMPDEST PUSH1 0x40 DUP3 ADD SWAP1 POP SWAP2 SWAP1 POP JUMP JUMPDEST PUSH1 0x0 PUSH1 0x20 DUP3 ADD SWAP1 POP DUP2 DUP2 SUB PUSH1 0x0 DUP4 ADD MSTORE PUSH2 0x544C DUP2 PUSH2 0x5410 JUMP JUMPDEST SWAP1 POP SWAP2 SWAP1 POP JUMP JUMPDEST PUSH32 0x455243313135353A204552433131353552656365697665722072656A65637465 PUSH1 0x0 DUP3 ADD MSTORE PUSH32 0x6420746F6B656E73000000000000000000000000000000000000000000000000 PUSH1 0x20 DUP3 ADD MSTORE POP JUMP JUMPDEST PUSH1 0x0 PUSH2 0x54AF PUSH1 0x28 DUP4 PUSH2 0x34D4 JUMP JUMPDEST SWAP2 POP PUSH2 0x54BA DUP3 PUSH2 0x5453 JUMP JUMPDEST PUSH1 0x40 DUP3 ADD SWAP1 POP SWAP2 SWAP1 POP JUMP JUMPDEST PUSH1 0x0 PUSH1 0x20 DUP3 ADD SWAP1 POP DUP2 DUP2 SUB PUSH1 0x0 DUP4 ADD MSTORE PUSH2 0x54DE DUP2 PUSH2 0x54A2 JUMP JUMPDEST SWAP1 POP SWAP2 SWAP1 POP JUMP JUMPDEST PUSH1 0x0 PUSH1 0xA0 DUP3 ADD SWAP1 POP PUSH2 0x54FA PUSH1 0x0 DUP4 ADD DUP9 PUSH2 0x4011 JUMP JUMPDEST PUSH2 0x5507 PUSH1 0x20 DUP4 ADD DUP8 PUSH2 0x4011 JUMP JUMPDEST PUSH2 0x5514 PUSH1 0x40 DUP4 ADD DUP7 PUSH2 0x33B7 JUMP JUMPDEST PUSH2 0x5521 PUSH1 0x60 DUP4 ADD DUP6 PUSH2 0x33B7 JUMP JUMPDEST DUP2 DUP2 SUB PUSH1 0x80 DUP4 ADD MSTORE PUSH2 0x5533 DUP2 DUP5 PUSH2 0x521F JUMP JUMPDEST SWAP1 POP SWAP7 SWAP6 POP POP POP POP POP POP JUMP JUMPDEST PUSH32 0x455243313135353A206275726E20616D6F756E74206578636565647320746F74 PUSH1 0x0 DUP3 ADD MSTORE PUSH32 0x616C537570706C79000000000000000000000000000000000000000000000000 PUSH1 0x20 DUP3 ADD MSTORE POP JUMP JUMPDEST PUSH1 0x0 PUSH2 0x559B PUSH1 0x28 DUP4 PUSH2 0x34D4 JUMP JUMPDEST SWAP2 POP PUSH2 0x55A6 DUP3 PUSH2 0x553F JUMP JUMPDEST PUSH1 0x40 DUP3 ADD SWAP1 POP SWAP2 SWAP1 POP JUMP JUMPDEST PUSH1 0x0 PUSH1 0x20 DUP3 ADD SWAP1 POP DUP2 DUP2 SUB PUSH1 0x0 DUP4 ADD MSTORE PUSH2 0x55CA DUP2 PUSH2 0x558E JUMP JUMPDEST SWAP1 POP SWAP2 SWAP1 POP JUMP INVALID LOG2 PUSH5 0x6970667358 0x22 SLT KECCAK256 DUP2 SWAP1 CALL REVERT SLOAD OR EXTCODESIZE 0xB4 0x21 0xE6 0x4B 0xEF JUMP 0xD4 PUSH29 0x333FB3D30E51460D826641618567D1474A64736F6C6343000811003300 "},"methodIdentifiers":{"Owner()":"b4a99a4e","balanceOf(address,uint256)":"00fdd58e","balanceOfBatch(address[],uint256[])":"4e1273f4","buyLimitedSong(uint256)":"fad00ac2","buyRegularSong(uint256)":"eea7eaf6","createSong(uint256,uint256,uint256,string,uint256,uint256)":"7d048509","exists(uint256)":"4f558e79","getCurrentSongId()":"5fe34985","getOwnedSongs(address)":"2423c95c","getSong(uint256)":"42acaa66","getSongs()":"5565f660","isApprovedForAll(address,address)":"e985e9c5","ownedSongs(address,uint256)":"0b6af60b","safeBatchTransferFrom(address,address,uint256[],uint256[],bytes)":"2eb2c2d6","safeTransferFrom(address,address,uint256,uint256,bytes)":"f242432a","setApprovalForAll(address,bool)":"a22cb465","songIndex(uint256)":"2b9c2760","songsArray(uint256)":"b9414d31","supportsInterface(bytes4)":"01ffc9a7","totalSupply(uint256)":"bd85b039","uri(uint256)":"0e89341c","withdrawRoyalities()":"7c76c232"}}}}}