{"contracts/Radiohead.sol":{"Radiohead":{"abi":[{"inputs":[{"internalType":"address","name":"_escrow","type":"address"}],"stateMutability":"nonpayable","type":"constructor"},{"anonymous":false,"inputs":[{"indexed":true,"internalType":"address","name":"account","type":"address"},{"indexed":true,"internalType":"address","name":"operator","type":"address"},{"indexed":false,"internalType":"bool","name":"approved","type":"bool"}],"name":"ApprovalForAll","type":"event"},{"anonymous":false,"inputs":[{"indexed":true,"internalType":"address","name":"previousOwner","type":"address"},{"indexed":true,"internalType":"address","name":"newOwner","type":"address"}],"name":"OwnershipTransferred","type":"event"},{"anonymous":false,"inputs":[{"indexed":true,"internalType":"address","name":"operator","type":"address"},{"indexed":true,"internalType":"address","name":"from","type":"address"},{"indexed":true,"internalType":"address","name":"to","type":"address"},{"indexed":false,"internalType":"uint256[]","name":"ids","type":"uint256[]"},{"indexed":false,"internalType":"uint256[]","name":"values","type":"uint256[]"}],"name":"TransferBatch","type":"event"},{"anonymous":false,"inputs":[{"indexed":true,"internalType":"address","name":"operator","type":"address"},{"indexed":true,"internalType":"address","name":"from","type":"address"},{"indexed":true,"internalType":"address","name":"to","type":"address"},{"indexed":false,"internalType":"uint256","name":"id","type":"uint256"},{"indexed":false,"internalType":"uint256","name":"value","type":"uint256"}],"name":"TransferSingle","type":"event"},{"anonymous":false,"inputs":[{"indexed":false,"internalType":"string","name":"value","type":"string"},{"indexed":true,"internalType":"uint256","name":"id","type":"uint256"}],"name":"URI","type":"event"},{"anonymous":false,"inputs":[{"indexed":false,"internalType":"uint256","name":"id","type":"uint256"},{"indexed":false,"internalType":"address","name":"superfan","type":"address"}],"name":"limitedSongBought","type":"event"},{"anonymous":false,"inputs":[{"indexed":false,"internalType":"uint256","name":"id","type":"uint256"},{"indexed":false,"internalType":"address","name":"buyer","type":"address"}],"name":"regularSongBought","type":"event"},{"anonymous":false,"inputs":[{"indexed":false,"internalType":"uint256","name":"songId","type":"uint256"},{"indexed":false,"internalType":"uint256","name":"ltdSongId","type":"uint256"},{"indexed":false,"internalType":"address","name":"artist","type":"address"},{"indexed":false,"internalType":"uint256","name":"limitedSupply","type":"uint256"},{"indexed":false,"internalType":"uint256","name":"regularPrice","type":"uint256"},{"indexed":false,"internalType":"uint256","name":"limitedPrice","type":"uint256"},{"indexed":false,"internalType":"uint256","name":"platformRoyality","type":"uint256"},{"indexed":false,"internalType":"uint256","name":"superfanRoyality","type":"uint256"}],"name":"songCreated","type":"event"},{"inputs":[{"internalType":"address","name":"account","type":"address"},{"internalType":"uint256","name":"id","type":"uint256"}],"name":"balanceOf","outputs":[{"internalType":"uint256","name":"","type":"uint256"}],"stateMutability":"view","type":"function"},{"inputs":[{"internalType":"address[]","name":"accounts","type":"address[]"},{"internalType":"uint256[]","name":"ids","type":"uint256[]"}],"name":"balanceOfBatch","outputs":[{"internalType":"uint256[]","name":"","type":"uint256[]"}],"stateMutability":"view","type":"function"},{"inputs":[{"internalType":"uint256","name":"songId","type":"uint256"}],"name":"buyLimitedSong","outputs":[],"stateMutability":"payable","type":"function"},{"inputs":[{"internalType":"uint256","name":"songId","type":"uint256"}],"name":"buyRegularSong","outputs":[],"stateMutability":"payable","type":"function"},{"inputs":[{"internalType":"uint256","name":"_limitedSupply","type":"uint256"},{"internalType":"uint256","name":"_regularSongPrice","type":"uint256"},{"internalType":"uint256","name":"_limitedSongPrice","type":"uint256"},{"internalType":"string","name":"_regularSongURI","type":"string"},{"internalType":"string","name":"_limitedSongURI","type":"string"},{"internalType":"uint256","name":"_platformRoyality","type":"uint256"},{"internalType":"uint256","name":"_superfanRoyality","type":"uint256"}],"name":"createSong","outputs":[{"internalType":"uint256","name":"songId","type":"uint256"}],"stateMutability":"nonpayable","type":"function"},{"inputs":[{"internalType":"uint256","name":"id","type":"uint256"}],"name":"exists","outputs":[{"internalType":"bool","name":"","type":"bool"}],"stateMutability":"view","type":"function"},{"inputs":[],"name":"getCurrentSongId","outputs":[{"internalType":"uint256","name":"current","type":"uint256"}],"stateMutability":"view","type":"function"},{"inputs":[{"internalType":"uint256","name":"id","type":"uint256"}],"name":"getSong","outputs":[{"components":[{"internalType":"address","name":"artist","type":"address"},{"internalType":"uint256","name":"songId","type":"uint256"},{"internalType":"uint256","name":"ltdSongId","type":"uint256"},{"internalType":"uint256","name":"limitedSupply","type":"uint256"},{"internalType":"uint256","name":"limitedSongMinted","type":"uint256"},{"internalType":"uint256","name":"regularPrice","type":"uint256"},{"internalType":"uint256","name":"limitedPrice","type":"uint256"},{"internalType":"uint256","name":"regularRevenue","type":"uint256"},{"internalType":"uint256","name":"ltdRevenue","type":"uint256"},{"internalType":"uint256","name":"platformRoyality","type":"uint256"},{"internalType":"uint256","name":"superfanRoyality","type":"uint256"},{"internalType":"address[]","name":"superfans","type":"address[]"}],"internalType":"struct Radiohead.Song","name":"song","type":"tuple"}],"stateMutability":"view","type":"function"},{"inputs":[{"internalType":"address","name":"account","type":"address"},{"internalType":"address","name":"operator","type":"address"}],"name":"isApprovedForAll","outputs":[{"internalType":"bool","name":"","type":"bool"}],"stateMutability":"view","type":"function"},{"inputs":[],"name":"owner","outputs":[{"internalType":"address","name":"","type":"address"}],"stateMutability":"view","type":"function"},{"inputs":[],"name":"renounceOwnership","outputs":[],"stateMutability":"nonpayable","type":"function"},{"inputs":[{"internalType":"address","name":"from","type":"address"},{"internalType":"address","name":"to","type":"address"},{"internalType":"uint256[]","name":"ids","type":"uint256[]"},{"internalType":"uint256[]","name":"amounts","type":"uint256[]"},{"internalType":"bytes","name":"data","type":"bytes"}],"name":"safeBatchTransferFrom","outputs":[],"stateMutability":"nonpayable","type":"function"},{"inputs":[{"internalType":"address","name":"from","type":"address"},{"internalType":"address","name":"to","type":"address"},{"internalType":"uint256","name":"id","type":"uint256"},{"internalType":"uint256","name":"amount","type":"uint256"},{"internalType":"bytes","name":"data","type":"bytes"}],"name":"safeTransferFrom","outputs":[],"stateMutability":"nonpayable","type":"function"},{"inputs":[{"internalType":"address","name":"operator","type":"address"},{"internalType":"bool","name":"approved","type":"bool"}],"name":"setApprovalForAll","outputs":[],"stateMutability":"nonpayable","type":"function"},{"inputs":[{"internalType":"address","name":"","type":"address"},{"internalType":"uint256","name":"","type":"uint256"}],"name":"songOwners","outputs":[{"internalType":"uint256","name":"","type":"uint256"}],"stateMutability":"view","type":"function"},{"inputs":[{"internalType":"uint256","name":"","type":"uint256"}],"name":"songs","outputs":[{"internalType":"address","name":"artist","type":"address"},{"internalType":"uint256","name":"songId","type":"uint256"},{"internalType":"uint256","name":"ltdSongId","type":"uint256"},{"internalType":"uint256","name":"limitedSupply","type":"uint256"},{"internalType":"uint256","name":"limitedSongMinted","type":"uint256"},{"internalType":"uint256","name":"regularPrice","type":"uint256"},{"internalType":"uint256","name":"limitedPrice","type":"uint256"},{"internalType":"uint256","name":"regularRevenue","type":"uint256"},{"internalType":"uint256","name":"ltdRevenue","type":"uint256"},{"internalType":"uint256","name":"platformRoyality","type":"uint256"},{"internalType":"uint256","name":"superfanRoyality","type":"uint256"}],"stateMutability":"view","type":"function"},{"inputs":[{"internalType":"uint256","name":"","type":"uint256"}],"name":"songsArray","outputs":[{"internalType":"address","name":"artist","type":"address"},{"internalType":"uint256","name":"songId","type":"uint256"},{"internalType":"uint256","name":"ltdSongId","type":"uint256"},{"internalType":"uint256","name":"limitedSupply","type":"uint256"},{"internalType":"uint256","name":"limitedSongMinted","type":"uint256"},{"internalType":"uint256","name":"regularPrice","type":"uint256"},{"internalType":"uint256","name":"limitedPrice","type":"uint256"},{"internalType":"uint256","name":"regularRevenue","type":"uint256"},{"internalType":"uint256","name":"ltdRevenue","type":"uint256"},{"internalType":"uint256","name":"platformRoyality","type":"uint256"},{"internalType":"uint256","name":"superfanRoyality","type":"uint256"}],"stateMutability":"view","type":"function"},{"inputs":[{"internalType":"bytes4","name":"interfaceId","type":"bytes4"}],"name":"supportsInterface","outputs":[{"internalType":"bool","name":"","type":"bool"}],"stateMutability":"view","type":"function"},{"inputs":[{"internalType":"uint256","name":"id","type":"uint256"}],"name":"totalSupply","outputs":[{"internalType":"uint256","name":"","type":"uint256"}],"stateMutability":"view","type":"function"},{"inputs":[{"internalType":"address","name":"newOwner","type":"address"}],"name":"transferOwnership","outputs":[],"stateMutability":"nonpayable","type":"function"},{"inputs":[{"internalType":"uint256","name":"tokenId","type":"uint256"}],"name":"uri","outputs":[{"internalType":"string","name":"","type":"string"}],"stateMutability":"view","type":"function"},{"inputs":[],"name":"withdrawRoyalities","outputs":[],"stateMutability":"nonpayable","type":"function"},{"inputs":[],"name":"withdrawRoyalitiesX","outputs":[],"stateMutability":"nonpayable","type":"function"},{"stateMutability":"payable","type":"receive"}],"evm":{"bytecode":{"linkReferences":{},"object":"608060405260405180602001604052806000815250600490816200002491906200043d565b503480156200003257600080fd5b5060405162005b9238038062005b9283398181016040528101906200005891906200058e565b60405180602001604052806000815250620000886200007c620000e260201b60201c565b620000ea60201b60201c565b6200009981620001ae60201b60201c565b5080600860006101000a81548173ffffffffffffffffffffffffffffffffffffffff021916908373ffffffffffffffffffffffffffffffffffffffff16021790555050620005c0565b600033905090565b60008060009054906101000a900473ffffffffffffffffffffffffffffffffffffffff169050816000806101000a81548173ffffffffffffffffffffffffffffffffffffffff021916908373ffffffffffffffffffffffffffffffffffffffff1602179055508173ffffffffffffffffffffffffffffffffffffffff168173ffffffffffffffffffffffffffffffffffffffff167f8be0079c531659141344cd1fd0a4f28419497f9722a3daafe3b4186f6b6457e060405160405180910390a35050565b8060039081620001bf91906200043d565b5050565b600081519050919050565b7f4e487b7100000000000000000000000000000000000000000000000000000000600052604160045260246000fd5b7f4e487b7100000000000000000000000000000000000000000000000000000000600052602260045260246000fd5b600060028204905060018216806200024557607f821691505b6020821081036200025b576200025a620001fd565b5b50919050565b60008190508160005260206000209050919050565b60006020601f8301049050919050565b600082821b905092915050565b600060088302620002c57fffffffffffffffffffffffffffffffffffffffffffffffffffffffffffffffff8262000286565b620002d1868362000286565b95508019841693508086168417925050509392505050565b6000819050919050565b6000819050919050565b60006200031e620003186200031284620002e9565b620002f3565b620002e9565b9050919050565b6000819050919050565b6200033a83620002fd565b62000352620003498262000325565b84845462000293565b825550505050565b600090565b620003696200035a565b620003768184846200032f565b505050565b5b818110156200039e57620003926000826200035f565b6001810190506200037c565b5050565b601f821115620003ed57620003b78162000261565b620003c28462000276565b81016020851015620003d2578190505b620003ea620003e18562000276565b8301826200037b565b50505b505050565b600082821c905092915050565b60006200041260001984600802620003f2565b1980831691505092915050565b60006200042d8383620003ff565b9150826002028217905092915050565b6200044882620001c3565b67ffffffffffffffff811115620004645762000463620001ce565b5b6200047082546200022c565b6200047d828285620003a2565b600060209050601f831160018114620004b55760008415620004a0578287015190505b620004ac85826200041f565b8655506200051c565b601f198416620004c58662000261565b60005b82811015620004ef57848901518255600182019150602085019450602081019050620004c8565b868310156200050f57848901516200050b601f891682620003ff565b8355505b6001600288020188555050505b505050505050565b600080fd5b600073ffffffffffffffffffffffffffffffffffffffff82169050919050565b6000620005568262000529565b9050919050565b620005688162000549565b81146200057457600080fd5b50565b60008151905062000588816200055d565b92915050565b600060208284031215620005a757620005a662000524565b5b6000620005b78482850162000577565b91505092915050565b6155c280620005d06000396000f3fe6080604052600436106101435760003560e01c80635fe34985116100b6578063bd85b0391161006f578063bd85b039146104b2578063e985e9c5146104ef578063eea7eaf61461052c578063f242432a14610548578063f2fde38b14610571578063fad00ac21461059a5761014a565b80635fe34985146103be578063715018a6146103e95780637c76c232146104005780638da5cb5b14610417578063a22cb46514610442578063b9414d311461046b5761014a565b8063304cff3011610108578063304cff301461024657806342acaa661461028d5780634a3ff340146102ca5780634e1273f4146103075780634f558e79146103445780635bc7a7d8146103815761014a565b8062fdd58e1461014f57806301ffc9a71461018c5780630e89341c146101c95780632935ff41146102065780632eb2c2d61461021d5761014a565b3661014a57005b600080fd5b34801561015b57600080fd5b506101766004803603810190610171919061347d565b6105b6565b60405161018391906134cc565b60405180910390f35b34801561019857600080fd5b506101b360048036038101906101ae919061353f565b61067f565b6040516101c09190613587565b60405180910390f35b3480156101d557600080fd5b506101f060048036038101906101eb91906135a2565b610761565b6040516101fd919061365f565b60405180910390f35b34801561021257600080fd5b5061021b610773565b005b34801561022957600080fd5b50610244600480360381019061023f919061387e565b610b32565b005b34801561025257600080fd5b5061026d600480360381019061026891906135a2565b610bd3565b6040516102849b9a9998979695949392919061395c565b60405180910390f35b34801561029957600080fd5b506102b460048036038101906102af91906135a2565b610c4d565b6040516102c19190613bd8565b60405180910390f35b3480156102d657600080fd5b506102f160048036038101906102ec919061347d565b610fee565b6040516102fe91906134cc565b60405180910390f35b34801561031357600080fd5b5061032e60048036038101906103299190613cbd565b61101f565b60405161033b9190613de4565b60405180910390f35b34801561035057600080fd5b5061036b600480360381019061036691906135a2565b611138565b6040516103789190613587565b60405180910390f35b34801561038d57600080fd5b506103a860048036038101906103a39190613ea7565b61114c565b6040516103b591906134cc565b60405180910390f35b3480156103ca57600080fd5b506103d36114a9565b6040516103e091906134cc565b60405180910390f35b3480156103f557600080fd5b506103fe6114ba565b005b34801561040c57600080fd5b506104156114ce565b005b34801561042357600080fd5b5061042c611678565b6040516104399190613f81565b60405180910390f35b34801561044e57600080fd5b5061046960048036038101906104649190613fc8565b6116a1565b005b34801561047757600080fd5b50610492600480360381019061048d91906135a2565b6116b7565b6040516104a99b9a9998979695949392919061395c565b60405180910390f35b3480156104be57600080fd5b506104d960048036038101906104d491906135a2565b611741565b6040516104e691906134cc565b60405180910390f35b3480156104fb57600080fd5b5061051660048036038101906105119190614008565b61175e565b6040516105239190613587565b60405180910390f35b610546600480360381019061054191906135a2565b6117f2565b005b34801561055457600080fd5b5061056f600480360381019061056a9190614048565b611aeb565b005b34801561057d57600080fd5b50610598600480360381019061059391906140df565b611b8c565b005b6105b460048036038101906105af91906135a2565b611c0f565b005b60008073ffffffffffffffffffffffffffffffffffffffff168373ffffffffffffffffffffffffffffffffffffffff1603610626576040517f08c379a000000000000000000000000000000000000000000000000000000000815260040161061d9061417e565b60405180910390fd5b6001600083815260200190815260200160002060008473ffffffffffffffffffffffffffffffffffffffff1673ffffffffffffffffffffffffffffffffffffffff16815260200190815260200160002054905092915050565b60007fd9b67a26000000000000000000000000000000000000000000000000000000007bffffffffffffffffffffffffffffffffffffffffffffffffffffffff1916827bffffffffffffffffffffffffffffffffffffffffffffffffffffffff1916148061074a57507f0e89341c000000000000000000000000000000000000000000000000000000007bffffffffffffffffffffffffffffffffffffffffffffffffffffffff1916827bffffffffffffffffffffffffffffffffffffffffffffffffffffffff1916145b8061075a575061075982611f8f565b5b9050919050565b606061076c82611ff9565b9050919050565b600080600190505b600b805490508111610b2e57600a600082815260200190815260200160002091506107a581611138565b6107e4576040517f08c379a00000000000000000000000000000000000000000000000000000000081526004016107db906141ea565b60405180910390fd5b60008260090154606484600701546107fc9190614268565b6108069190614299565b9050600081846007015461081a91906142db565b905060008460090154606486600801546108349190614268565b61083e9190614299565b9050600081866008015461085291906142db565b9050600086600b018054806020026020016040519081016040528092919081815260200182805480156108da57602002820191906000526020600020905b8160009054906101000a900473ffffffffffffffffffffffffffffffffffffffff1673ffffffffffffffffffffffffffffffffffffffff1681526020019060010190808311610890575b505050505090506000876003015488600a015460648a600701546108fe9190614268565b6109089190614299565b6109129190614268565b905060008251826109239190614299565b90506000818588610934919061430f565b61093e91906142db565b905060008a6007018190555060008a6008018190555060008a60000160009054906101000a900473ffffffffffffffffffffffffffffffffffffffff1673ffffffffffffffffffffffffffffffffffffffff168260405161099e90614374565b60006040518083038185875af1925050503d80600081146109db576040519150601f19603f3d011682016040523d82523d6000602084013e6109e0565b606091505b5050905080610a24576040517f08c379a0000000000000000000000000000000000000000000000000000000008152600401610a1b906143fb565b60405180910390fd5b60005b8551811015610b10576000868c81518110610a4557610a4461441b565b5b6020026020010151905060008173ffffffffffffffffffffffffffffffffffffffff1687604051610a7590614374565b60006040518083038185875af1925050503d8060008114610ab2576040519150601f19603f3d011682016040523d82523d6000602084013e610ab7565b606091505b5050905080610afb576040517f08c379a0000000000000000000000000000000000000000000000000000000008152600401610af2906144bc565b60405180910390fd5b50508080610b08906144dc565b915050610a27565b50505050505050505050600281610b27919061430f565b905061077b565b5050565b610b3a6120de565b73ffffffffffffffffffffffffffffffffffffffff168573ffffffffffffffffffffffffffffffffffffffff161480610b805750610b7f85610b7a6120de565b61175e565b5b610bbf576040517f08c379a0000000000000000000000000000000000000000000000000000000008152600401610bb690614596565b60405180910390fd5b610bcc85858585856120e6565b5050505050565b600a6020528060005260406000206000915090508060000160009054906101000a900473ffffffffffffffffffffffffffffffffffffffff169080600101549080600201549080600301549080600401549080600501549080600601549080600701549080600801549080600901549080600a015490508b565b610c55613265565b6000600283610c6491906145b6565b14610e1f57610c7282611138565b610cb1576040517f08c379a0000000000000000000000000000000000000000000000000000000008152600401610ca890614633565b60405180910390fd5b600a6000838152602001908152602001600020604051806101800160405290816000820160009054906101000a900473ffffffffffffffffffffffffffffffffffffffff1673ffffffffffffffffffffffffffffffffffffffff1673ffffffffffffffffffffffffffffffffffffffff168152602001600182015481526020016002820154815260200160038201548152602001600482015481526020016005820154815260200160068201548152602001600782015481526020016008820154815260200160098201548152602001600a8201548152602001600b8201805480602002602001604051908101604052809291908181526020018280548015610e0f57602002820191906000526020600020905b8160009054906101000a900473ffffffffffffffffffffffffffffffffffffffff1673ffffffffffffffffffffffffffffffffffffffff1681526020019060010190808311610dc5575b5050505050815250509050610fe9565b610e34600183610e2f91906142db565b611138565b610e73576040517f08c379a0000000000000000000000000000000000000000000000000000000008152600401610e6a90614633565b60405180910390fd5b600a6000600184610e8491906142db565b8152602001908152602001600020604051806101800160405290816000820160009054906101000a900473ffffffffffffffffffffffffffffffffffffffff1673ffffffffffffffffffffffffffffffffffffffff1673ffffffffffffffffffffffffffffffffffffffff168152602001600182015481526020016002820154815260200160038201548152602001600482015481526020016005820154815260200160068201548152602001600782015481526020016008820154815260200160098201548152602001600a8201548152602001600b8201805480602002602001604051908101604052809291908181526020018280548015610fdd57602002820191906000526020600020905b8160009054906101000a900473ffffffffffffffffffffffffffffffffffffffff1673ffffffffffffffffffffffffffffffffffffffff1681526020019060010190808311610f93575b50505050508152505090505b919050565b6009602052816000526040600020818154811061100a57600080fd5b90600052602060002001600091509150505481565b60608151835114611065576040517f08c379a000000000000000000000000000000000000000000000000000000000815260040161105c906146c5565b60405180910390fd5b6000835167ffffffffffffffff81111561108257611081613686565b5b6040519080825280602002602001820160405280156110b05781602001602082028036833780820191505090505b50905060005b845181101561112d576110fd8582815181106110d5576110d461441b565b5b60200260200101518583815181106110f0576110ef61441b565b5b60200260200101516105b6565b8282815181106111105761110f61441b565b5b60200260200101818152505080611126906144dc565b90506110b6565b508091505092915050565b60008061114483611741565b119050919050565b6000808811611190576040517f08c379a000000000000000000000000000000000000000000000000000000000815260040161118790614757565b60405180910390fd5b61119a600761240a565b6111a46007612420565b90506111c93382670de0b6b3a76400006040518060200160405280600081525061242e565b6111d381866125df565b6000600a60008381526020019081526020016000209050338160000160006101000a81548173ffffffffffffffffffffffffffffffffffffffff021916908373ffffffffffffffffffffffffffffffffffffffff1602179055508181600101819055508881600301819055508781600501819055508681600601819055508381600901819055508281600a018190555061126d600761240a565b60006112796007612420565b905061129633828c6040518060200160405280600081525061242e565b6112a081876125df565b808260020181905550600b8290806001815401808255809150506001900390600052602060002090600c02016000909190919091506000820160009054906101000a900473ffffffffffffffffffffffffffffffffffffffff168160000160006101000a81548173ffffffffffffffffffffffffffffffffffffffff021916908373ffffffffffffffffffffffffffffffffffffffff160217905550600182015481600101556002820154816002015560038201548160030155600482015481600401556005820154816005015560068201548160060155600782015481600701556008820154816008015560098201548160090155600a82015481600a0155600b820181600b019080546113b69291906132dc565b5050506113e533600860009054906101000a900473ffffffffffffffffffffffffffffffffffffffff1661175e565b61141757611416600860009054906101000a900473ffffffffffffffffffffffffffffffffffffffff1660016116a1565b5b7fe44a95d90db666eec698ee335d929af1295456ef22acf300487f3b13cee736f1826001015483600201548460000160009054906101000a900473ffffffffffffffffffffffffffffffffffffffff16856003015486600501548760060154886009015489600a0154604051611494989796959493929190614777565b60405180910390a15050979650505050505050565b60006114b56007612420565b905090565b6114c2612644565b6114cc60006126c2565b565b6114d6613265565b6000600190505b600b80549050811161167457604051806101800160405280836000015173ffffffffffffffffffffffffffffffffffffffff168152602001836020015181526020018360400151815260200183606001518152602001836080015181526020018360a0015181526020018360c001518152602001600081526020016000815260200183610120015181526020018361014001518152602001836101600151815250600a600083815260200190815260200160002060008201518160000160006101000a81548173ffffffffffffffffffffffffffffffffffffffff021916908373ffffffffffffffffffffffffffffffffffffffff1602179055506020820151816001015560408201518160020155606082015181600301556080820151816004015560a0820151816005015560c0820151816006015560e082015181600701556101008201518160080155610120820151816009015561014082015181600a015561016082015181600b01908051906020019061165c92919061332e565b5090505060028161166d919061430f565b90506114dd565b5050565b60008060009054906101000a900473ffffffffffffffffffffffffffffffffffffffff16905090565b6116b36116ac6120de565b8383612786565b5050565b600b81815481106116c757600080fd5b90600052602060002090600c02016000915090508060000160009054906101000a900473ffffffffffffffffffffffffffffffffffffffff169080600101549080600201549080600301549080600401549080600501549080600601549080600701549080600801549080600901549080600a015490508b565b600060066000838152602001908152602001600020549050919050565b6000600260008473ffffffffffffffffffffffffffffffffffffffff1673ffffffffffffffffffffffffffffffffffffffff16815260200190815260200160002060008373ffffffffffffffffffffffffffffffffffffffff1673ffffffffffffffffffffffffffffffffffffffff16815260200190815260200160002060009054906101000a900460ff16905092915050565b60008060028361180291906145b6565b146118695761181082611138565b61184f576040517f08c379a000000000000000000000000000000000000000000000000000000000815260040161184690614633565b60405180910390fd5b600a600083815260200190815260200160002090506118df565b61187e60018361187991906142db565b611138565b6118bd576040517f08c379a00000000000000000000000000000000000000000000000000000000081526004016118b490614633565b60405180910390fd5b600a60006001846118ce91906142db565b815260200190815260200160002090505b6118ec8160010154611138565b61192b576040517f08c379a000000000000000000000000000000000000000000000000000000000815260040161192290614867565b60405180910390fd5b8060050154341015611972576040517f08c379a0000000000000000000000000000000000000000000000000000000008152600401611969906148d3565b60405180910390fd5b34816007016000828254611986919061430f565b92505081905550600860009054906101000a900473ffffffffffffffffffffffffffffffffffffffff1673ffffffffffffffffffffffffffffffffffffffff166313f2da7b8260010154308460000160009054906101000a900473ffffffffffffffffffffffffffffffffffffffff16336040518563ffffffff1660e01b8152600401611a169493929190614914565b600060405180830381600087803b158015611a3057600080fd5b505af1158015611a44573d6000803e3d6000fd5b50505050600960003373ffffffffffffffffffffffffffffffffffffffff1673ffffffffffffffffffffffffffffffffffffffff1681526020019081526020016000208290806001815401808255809150506001900390600052602060002001600090919091909150557f04d30d6ef2c1b6dc4fb27350a8a71229ea6d6a3220be9db153486f9bbda5e6ec8233604051611adf929190614959565b60405180910390a15050565b611af36120de565b73ffffffffffffffffffffffffffffffffffffffff168573ffffffffffffffffffffffffffffffffffffffff161480611b395750611b3885611b336120de565b61175e565b5b611b78576040517f08c379a0000000000000000000000000000000000000000000000000000000008152600401611b6f90614596565b60405180910390fd5b611b8585858585856128f2565b5050505050565b611b94612644565b600073ffffffffffffffffffffffffffffffffffffffff168173ffffffffffffffffffffffffffffffffffffffff1603611c03576040517f08c379a0000000000000000000000000000000000000000000000000000000008152600401611bfa906149f4565b60405180910390fd5b611c0c816126c2565b50565b600080600283611c1f91906145b6565b14611c8657611c2d82611138565b611c6c576040517f08c379a0000000000000000000000000000000000000000000000000000000008152600401611c6390614633565b60405180910390fd5b600a60008381526020019081526020016000209050611cfc565b611c9b600183611c9691906142db565b611138565b611cda576040517f08c379a0000000000000000000000000000000000000000000000000000000008152600401611cd190614633565b60405180910390fd5b600a6000600184611ceb91906142db565b815260200190815260200160002090505b8060030154816004015410611d46576040517f08c379a0000000000000000000000000000000000000000000000000000000008152600401611d3d90614a37565b60405180910390fd5b8060060154341015611d8d576040517f08c379a0000000000000000000000000000000000000000000000000000000008152600401611d84906148d3565b60405180910390fd5b6001816004016000828254611da2919061430f565b9250508190555034816008016000828254611dbd919061430f565b9250508190555080600b01339080600181540180825580915050600190039060005260206000200160009091909190916101000a81548173ffffffffffffffffffffffffffffffffffffffff021916908373ffffffffffffffffffffffffffffffffffffffff160217905550600860009054906101000a900473ffffffffffffffffffffffffffffffffffffffff1673ffffffffffffffffffffffffffffffffffffffff166313f2da7b8260020154308460000160009054906101000a900473ffffffffffffffffffffffffffffffffffffffff16336040518563ffffffff1660e01b8152600401611eb29493929190614914565b600060405180830381600087803b158015611ecc57600080fd5b505af1158015611ee0573d6000803e3d6000fd5b50505050600960003373ffffffffffffffffffffffffffffffffffffffff1673ffffffffffffffffffffffffffffffffffffffff168152602001908152602001600020816002015490806001815401808255809150506001900390600052602060002001600090919091909150557f535d4bf1d4fd06876e3bed38c167c7631c9c1c0f1bab9b408655c7a724e4b2f7816002015433604051611f83929190614959565b60405180910390a15050565b60007f01ffc9a7000000000000000000000000000000000000000000000000000000007bffffffffffffffffffffffffffffffffffffffffffffffffffffffff1916827bffffffffffffffffffffffffffffffffffffffffffffffffffffffff1916149050919050565b6060600060056000848152602001908152602001600020805461201b90614a86565b80601f016020809104026020016040519081016040528092919081815260200182805461204790614a86565b80156120945780601f1061206957610100808354040283529160200191612094565b820191906000526020600020905b81548152906001019060200180831161207757829003601f168201915b5050505050905060008151116120b2576120ad83612b90565b6120d6565b6004816040516020016120c6929190614b8b565b6040516020818303038152906040525b915050919050565b600033905090565b815183511461212a576040517f08c379a000000000000000000000000000000000000000000000000000000000815260040161212190614c21565b60405180910390fd5b600073ffffffffffffffffffffffffffffffffffffffff168473ffffffffffffffffffffffffffffffffffffffff1603612199576040517f08c379a000000000000000000000000000000000000000000000000000000000815260040161219090614cb3565b60405180910390fd5b60006121a36120de565b90506121b3818787878787612c24565b60005b84518110156123675760008582815181106121d4576121d361441b565b5b6020026020010151905060008583815181106121f3576121f261441b565b5b6020026020010151905060006001600084815260200190815260200160002060008b73ffffffffffffffffffffffffffffffffffffffff1673ffffffffffffffffffffffffffffffffffffffff16815260200190815260200160002054905081811015612295576040517f08c379a000000000000000000000000000000000000000000000000000000000815260040161228c90614d45565b60405180910390fd5b8181036001600085815260200190815260200160002060008c73ffffffffffffffffffffffffffffffffffffffff1673ffffffffffffffffffffffffffffffffffffffff16815260200190815260200160002081905550816001600085815260200190815260200160002060008b73ffffffffffffffffffffffffffffffffffffffff1673ffffffffffffffffffffffffffffffffffffffff168152602001908152602001600020600082825461234c919061430f565b9250508190555050505080612360906144dc565b90506121b6565b508473ffffffffffffffffffffffffffffffffffffffff168673ffffffffffffffffffffffffffffffffffffffff168273ffffffffffffffffffffffffffffffffffffffff167f4a39dc06d4c0dbc64b70af90fd698a233a518aa5d07e595d983b8c0526c8f7fb87876040516123de929190614d65565b60405180910390a46123f4818787878787612c3a565b612402818787878787612c42565b505050505050565b6001816000016000828254019250508190555050565b600081600001549050919050565b600073ffffffffffffffffffffffffffffffffffffffff168473ffffffffffffffffffffffffffffffffffffffff160361249d576040517f08c379a000000000000000000000000000000000000000000000000000000000815260040161249490614e0e565b60405180910390fd5b60006124a76120de565b905060006124b485612e19565b905060006124c185612e19565b90506124d283600089858589612c24565b846001600088815260200190815260200160002060008973ffffffffffffffffffffffffffffffffffffffff1673ffffffffffffffffffffffffffffffffffffffff1681526020019081526020016000206000828254612532919061430f565b925050819055508673ffffffffffffffffffffffffffffffffffffffff16600073ffffffffffffffffffffffffffffffffffffffff168473ffffffffffffffffffffffffffffffffffffffff167fc3d58168c5ae7397731d063d5bbf3d657854427343f4c083240f7aacaa2d0f6289896040516125b0929190614e2e565b60405180910390a46125c783600089858589612c3a565b6125d683600089898989612e93565b50505050505050565b806005600084815260200190815260200160002090816125ff9190614fee565b50817f6bb7ff708619ba0610cba295a58592e0451dee2622938c8755667688daf3529b61262b84610761565b604051612638919061365f565b60405180910390a25050565b61264c6120de565b73ffffffffffffffffffffffffffffffffffffffff1661266a611678565b73ffffffffffffffffffffffffffffffffffffffff16146126c0576040517f08c379a00000000000000000000000000000000000000000000000000000000081526004016126b79061510c565b60405180910390fd5b565b60008060009054906101000a900473ffffffffffffffffffffffffffffffffffffffff169050816000806101000a81548173ffffffffffffffffffffffffffffffffffffffff021916908373ffffffffffffffffffffffffffffffffffffffff1602179055508173ffffffffffffffffffffffffffffffffffffffff168173ffffffffffffffffffffffffffffffffffffffff167f8be0079c531659141344cd1fd0a4f28419497f9722a3daafe3b4186f6b6457e060405160405180910390a35050565b8173ffffffffffffffffffffffffffffffffffffffff168373ffffffffffffffffffffffffffffffffffffffff16036127f4576040517f08c379a00000000000000000000000000000000000000000000000000000000081526004016127eb9061519e565b60405180910390fd5b80600260008573ffffffffffffffffffffffffffffffffffffffff1673ffffffffffffffffffffffffffffffffffffffff16815260200190815260200160002060008473ffffffffffffffffffffffffffffffffffffffff1673ffffffffffffffffffffffffffffffffffffffff16815260200190815260200160002060006101000a81548160ff0219169083151502179055508173ffffffffffffffffffffffffffffffffffffffff168373ffffffffffffffffffffffffffffffffffffffff167f17307eab39ab6107e8899845ad3d59bd9653f200f220920489ca2b5937696c31836040516128e59190613587565b60405180910390a3505050565b600073ffffffffffffffffffffffffffffffffffffffff168473ffffffffffffffffffffffffffffffffffffffff1603612961576040517f08c379a000000000000000000000000000000000000000000000000000000000815260040161295890614cb3565b60405180910390fd5b600061296b6120de565b9050600061297885612e19565b9050600061298585612e19565b9050612995838989858589612c24565b60006001600088815260200190815260200160002060008a73ffffffffffffffffffffffffffffffffffffffff1673ffffffffffffffffffffffffffffffffffffffff16815260200190815260200160002054905085811015612a2d576040517f08c379a0000000000000000000000000000000000000000000000000000000008152600401612a2490614d45565b60405180910390fd5b8581036001600089815260200190815260200160002060008b73ffffffffffffffffffffffffffffffffffffffff1673ffffffffffffffffffffffffffffffffffffffff16815260200190815260200160002081905550856001600089815260200190815260200160002060008a73ffffffffffffffffffffffffffffffffffffffff1673ffffffffffffffffffffffffffffffffffffffff1681526020019081526020016000206000828254612ae4919061430f565b925050819055508773ffffffffffffffffffffffffffffffffffffffff168973ffffffffffffffffffffffffffffffffffffffff168573ffffffffffffffffffffffffffffffffffffffff167fc3d58168c5ae7397731d063d5bbf3d657854427343f4c083240f7aacaa2d0f628a8a604051612b61929190614e2e565b60405180910390a4612b77848a8a86868a612c3a565b612b85848a8a8a8a8a612e93565b505050505050505050565b606060038054612b9f90614a86565b80601f0160208091040260200160405190810160405280929190818152602001828054612bcb90614a86565b8015612c185780601f10612bed57610100808354040283529160200191612c18565b820191906000526020600020905b815481529060010190602001808311612bfb57829003601f168201915b50505050509050919050565b612c3286868686868661306a565b505050505050565b505050505050565b612c618473ffffffffffffffffffffffffffffffffffffffff1661323a565b15612e11578373ffffffffffffffffffffffffffffffffffffffff1663bc197c8187878686866040518663ffffffff1660e01b8152600401612ca7959493929190615213565b6020604051808303816000875af1925050508015612ce357506040513d601f19601f82011682018060405250810190612ce09190615290565b60015b612d8857612cef6152ca565b806308c379a003612d4b5750612d036152ec565b80612d0e5750612d4d565b806040517f08c379a0000000000000000000000000000000000000000000000000000000008152600401612d42919061365f565b60405180910390fd5b505b6040517f08c379a0000000000000000000000000000000000000000000000000000000008152600401612d7f906153ee565b60405180910390fd5b63bc197c8160e01b7bffffffffffffffffffffffffffffffffffffffffffffffffffffffff1916817bffffffffffffffffffffffffffffffffffffffffffffffffffffffff191614612e0f576040517f08c379a0000000000000000000000000000000000000000000000000000000008152600401612e0690615480565b60405180910390fd5b505b505050505050565b60606000600167ffffffffffffffff811115612e3857612e37613686565b5b604051908082528060200260200182016040528015612e665781602001602082028036833780820191505090505b5090508281600081518110612e7e57612e7d61441b565b5b60200260200101818152505080915050919050565b612eb28473ffffffffffffffffffffffffffffffffffffffff1661323a565b15613062578373ffffffffffffffffffffffffffffffffffffffff1663f23a6e6187878686866040518663ffffffff1660e01b8152600401612ef89594939291906154a0565b6020604051808303816000875af1925050508015612f3457506040513d601f19601f82011682018060405250810190612f319190615290565b60015b612fd957612f406152ca565b806308c379a003612f9c5750612f546152ec565b80612f5f5750612f9e565b806040517f08c379a0000000000000000000000000000000000000000000000000000000008152600401612f93919061365f565b60405180910390fd5b505b6040517f08c379a0000000000000000000000000000000000000000000000000000000008152600401612fd0906153ee565b60405180910390fd5b63f23a6e6160e01b7bffffffffffffffffffffffffffffffffffffffffffffffffffffffff1916817bffffffffffffffffffffffffffffffffffffffffffffffffffffffff191614613060576040517f08c379a000000000000000000000000000000000000000000000000000000000815260040161305790615480565b60405180910390fd5b505b505050505050565b61307886868686868661325d565b600073ffffffffffffffffffffffffffffffffffffffff168573ffffffffffffffffffffffffffffffffffffffff16036131295760005b8351811015613127578281815181106130cb576130ca61441b565b5b6020026020010151600660008684815181106130ea576130e961441b565b5b60200260200101518152602001908152602001600020600082825461310f919061430f565b9250508190555080613120906144dc565b90506130af565b505b600073ffffffffffffffffffffffffffffffffffffffff168473ffffffffffffffffffffffffffffffffffffffff16036132325760005b835181101561323057600084828151811061317e5761317d61441b565b5b60200260200101519050600084838151811061319d5761319c61441b565b5b6020026020010151905060006006600084815260200190815260200160002054905081811015613202576040517f08c379a00000000000000000000000000000000000000000000000000000000081526004016131f99061556c565b60405180910390fd5b818103600660008581526020019081526020016000208190555050505080613229906144dc565b9050613160565b505b505050505050565b6000808273ffffffffffffffffffffffffffffffffffffffff163b119050919050565b505050505050565b604051806101800160405280600073ffffffffffffffffffffffffffffffffffffffff16815260200160008152602001600081526020016000815260200160008152602001600081526020016000815260200160008152602001600081526020016000815260200160008152602001606081525090565b82805482825590600052602060002090810192821561331d5760005260206000209182015b8281111561331c578254825591600101919060010190613301565b5b50905061332a91906133b8565b5090565b8280548282559060005260206000209081019282156133a7579160200282015b828111156133a65782518260006101000a81548173ffffffffffffffffffffffffffffffffffffffff021916908373ffffffffffffffffffffffffffffffffffffffff1602179055509160200191906001019061334e565b5b5090506133b491906133b8565b5090565b5b808211156133d15760008160009055506001016133b9565b5090565b6000604051905090565b600080fd5b600080fd5b600073ffffffffffffffffffffffffffffffffffffffff82169050919050565b6000613414826133e9565b9050919050565b61342481613409565b811461342f57600080fd5b50565b6000813590506134418161341b565b92915050565b6000819050919050565b61345a81613447565b811461346557600080fd5b50565b60008135905061347781613451565b92915050565b60008060408385031215613494576134936133df565b5b60006134a285828601613432565b92505060206134b385828601613468565b9150509250929050565b6134c681613447565b82525050565b60006020820190506134e160008301846134bd565b92915050565b60007fffffffff0000000000000000000000000000000000000000000000000000000082169050919050565b61351c816134e7565b811461352757600080fd5b50565b60008135905061353981613513565b92915050565b600060208284031215613555576135546133df565b5b60006135638482850161352a565b91505092915050565b60008115159050919050565b6135818161356c565b82525050565b600060208201905061359c6000830184613578565b92915050565b6000602082840312156135b8576135b76133df565b5b60006135c684828501613468565b91505092915050565b600081519050919050565b600082825260208201905092915050565b60005b838110156136095780820151818401526020810190506135ee565b60008484015250505050565b6000601f19601f8301169050919050565b6000613631826135cf565b61363b81856135da565b935061364b8185602086016135eb565b61365481613615565b840191505092915050565b600060208201905081810360008301526136798184613626565b905092915050565b600080fd5b7f4e487b7100000000000000000000000000000000000000000000000000000000600052604160045260246000fd5b6136be82613615565b810181811067ffffffffffffffff821117156136dd576136dc613686565b5b80604052505050565b60006136f06133d5565b90506136fc82826136b5565b919050565b600067ffffffffffffffff82111561371c5761371b613686565b5b602082029050602081019050919050565b600080fd5b600061374561374084613701565b6136e6565b905080838252602082019050602084028301858111156137685761376761372d565b5b835b81811015613791578061377d8882613468565b84526020840193505060208101905061376a565b5050509392505050565b600082601f8301126137b0576137af613681565b5b81356137c0848260208601613732565b91505092915050565b600080fd5b600067ffffffffffffffff8211156137e9576137e8613686565b5b6137f282613615565b9050602081019050919050565b82818337600083830152505050565b600061382161381c846137ce565b6136e6565b90508281526020810184848401111561383d5761383c6137c9565b5b6138488482856137ff565b509392505050565b600082601f83011261386557613864613681565b5b813561387584826020860161380e565b91505092915050565b600080600080600060a0868803121561389a576138996133df565b5b60006138a888828901613432565b95505060206138b988828901613432565b945050604086013567ffffffffffffffff8111156138da576138d96133e4565b5b6138e68882890161379b565b935050606086013567ffffffffffffffff811115613907576139066133e4565b5b6139138882890161379b565b925050608086013567ffffffffffffffff811115613934576139336133e4565b5b61394088828901613850565b9150509295509295909350565b61395681613409565b82525050565b600061016082019050613972600083018e61394d565b61397f602083018d6134bd565b61398c604083018c6134bd565b613999606083018b6134bd565b6139a6608083018a6134bd565b6139b360a08301896134bd565b6139c060c08301886134bd565b6139cd60e08301876134bd565b6139db6101008301866134bd565b6139e96101208301856134bd565b6139f76101408301846134bd565b9c9b505050505050505050505050565b613a1081613409565b82525050565b613a1f81613447565b82525050565b600081519050919050565b600082825260208201905092915050565b6000819050602082019050919050565b6000613a5d8383613a07565b60208301905092915050565b6000602082019050919050565b6000613a8182613a25565b613a8b8185613a30565b9350613a9683613a41565b8060005b83811015613ac7578151613aae8882613a51565b9750613ab983613a69565b925050600181019050613a9a565b5085935050505092915050565b600061018083016000830151613aed6000860182613a07565b506020830151613b006020860182613a16565b506040830151613b136040860182613a16565b506060830151613b266060860182613a16565b506080830151613b396080860182613a16565b5060a0830151613b4c60a0860182613a16565b5060c0830151613b5f60c0860182613a16565b5060e0830151613b7260e0860182613a16565b50610100830151613b87610100860182613a16565b50610120830151613b9c610120860182613a16565b50610140830151613bb1610140860182613a16565b50610160830151848203610160860152613bcb8282613a76565b9150508091505092915050565b60006020820190508181036000830152613bf28184613ad4565b905092915050565b600067ffffffffffffffff821115613c1557613c14613686565b5b602082029050602081019050919050565b6000613c39613c3484613bfa565b6136e6565b90508083825260208201905060208402830185811115613c5c57613c5b61372d565b5b835b81811015613c855780613c718882613432565b845260208401935050602081019050613c5e565b5050509392505050565b600082601f830112613ca457613ca3613681565b5b8135613cb4848260208601613c26565b91505092915050565b60008060408385031215613cd457613cd36133df565b5b600083013567ffffffffffffffff811115613cf257613cf16133e4565b5b613cfe85828601613c8f565b925050602083013567ffffffffffffffff811115613d1f57613d1e6133e4565b5b613d2b8582860161379b565b9150509250929050565b600081519050919050565b600082825260208201905092915050565b6000819050602082019050919050565b6000613d6d8383613a16565b60208301905092915050565b6000602082019050919050565b6000613d9182613d35565b613d9b8185613d40565b9350613da683613d51565b8060005b83811015613dd7578151613dbe8882613d61565b9750613dc983613d79565b925050600181019050613daa565b5085935050505092915050565b60006020820190508181036000830152613dfe8184613d86565b905092915050565b600067ffffffffffffffff821115613e2157613e20613686565b5b613e2a82613615565b9050602081019050919050565b6000613e4a613e4584613e06565b6136e6565b905082815260208101848484011115613e6657613e656137c9565b5b613e718482856137ff565b509392505050565b600082601f830112613e8e57613e8d613681565b5b8135613e9e848260208601613e37565b91505092915050565b600080600080600080600060e0888a031215613ec657613ec56133df565b5b6000613ed48a828b01613468565b9750506020613ee58a828b01613468565b9650506040613ef68a828b01613468565b955050606088013567ffffffffffffffff811115613f1757613f166133e4565b5b613f238a828b01613e79565b945050608088013567ffffffffffffffff811115613f4457613f436133e4565b5b613f508a828b01613e79565b93505060a0613f618a828b01613468565b92505060c0613f728a828b01613468565b91505092959891949750929550565b6000602082019050613f96600083018461394d565b92915050565b613fa58161356c565b8114613fb057600080fd5b50565b600081359050613fc281613f9c565b92915050565b60008060408385031215613fdf57613fde6133df565b5b6000613fed85828601613432565b9250506020613ffe85828601613fb3565b9150509250929050565b6000806040838503121561401f5761401e6133df565b5b600061402d85828601613432565b925050602061403e85828601613432565b9150509250929050565b600080600080600060a08688031215614064576140636133df565b5b600061407288828901613432565b955050602061408388828901613432565b945050604061409488828901613468565b93505060606140a588828901613468565b925050608086013567ffffffffffffffff8111156140c6576140c56133e4565b5b6140d288828901613850565b9150509295509295909350565b6000602082840312156140f5576140f46133df565b5b600061410384828501613432565b91505092915050565b7f455243313135353a2061646472657373207a65726f206973206e6f742061207660008201527f616c6964206f776e657200000000000000000000000000000000000000000000602082015250565b6000614168602a836135da565b91506141738261410c565b604082019050919050565b600060208201905081810360008301526141978161415b565b9050919050565b7f74686520736f6e6720646f65736e742065786973747300000000000000000000600082015250565b60006141d46016836135da565b91506141df8261419e565b602082019050919050565b60006020820190508181036000830152614203816141c7565b9050919050565b7f4e487b7100000000000000000000000000000000000000000000000000000000600052601260045260246000fd5b7f4e487b7100000000000000000000000000000000000000000000000000000000600052601160045260246000fd5b600061427382613447565b915061427e83613447565b92508261428e5761428d61420a565b5b828204905092915050565b60006142a482613447565b91506142af83613447565b92508282026142bd81613447565b915082820484148315176142d4576142d3614239565b5b5092915050565b60006142e682613447565b91506142f183613447565b925082820390508181111561430957614308614239565b5b92915050565b600061431a82613447565b915061432583613447565b925082820190508082111561433d5761433c614239565b5b92915050565b600081905092915050565b50565b600061435e600083614343565b91506143698261434e565b600082019050919050565b600061437f82614351565b9150819050919050565b7f6661696c656420746f2064697372696275746520726f79616c6974696573207460008201527f6f20746865206172746973740000000000000000000000000000000000000000602082015250565b60006143e5602c836135da565b91506143f082614389565b604082019050919050565b60006020820190508181036000830152614414816143d8565b9050919050565b7f4e487b7100000000000000000000000000000000000000000000000000000000600052603260045260246000fd5b7f6661696c656420746f2064697372696275746520726f79616c6974696573207460008201527f6f2074686520737570657266616e000000000000000000000000000000000000602082015250565b60006144a6602e836135da565b91506144b18261444a565b604082019050919050565b600060208201905081810360008301526144d581614499565b9050919050565b60006144e782613447565b91507fffffffffffffffffffffffffffffffffffffffffffffffffffffffffffffffff820361451957614518614239565b5b600182019050919050565b7f455243313135353a2063616c6c6572206973206e6f7420746f6b656e206f776e60008201527f6572206f7220617070726f766564000000000000000000000000000000000000602082015250565b6000614580602e836135da565b915061458b82614524565b604082019050919050565b600060208201905081810360008301526145af81614573565b9050919050565b60006145c182613447565b91506145cc83613447565b9250826145dc576145db61420a565b5b828206905092915050565b7f74686520736f6e6720646f65736e277420657869737473000000000000000000600082015250565b600061461d6017836135da565b9150614628826145e7565b602082019050919050565b6000602082019050818103600083015261464c81614610565b9050919050565b7f455243313135353a206163636f756e747320616e6420696473206c656e67746860008201527f206d69736d617463680000000000000000000000000000000000000000000000602082015250565b60006146af6029836135da565b91506146ba82614653565b604082019050919050565b600060208201905081810360008301526146de816146a2565b9050919050565b7f4c696d6974656420737570706c79206d7573742062652067726561746572207460008201527f68616e2030000000000000000000000000000000000000000000000000000000602082015250565b60006147416025836135da565b915061474c826146e5565b604082019050919050565b6000602082019050818103600083015261477081614734565b9050919050565b60006101008201905061478d600083018b6134bd565b61479a602083018a6134bd565b6147a7604083018961394d565b6147b460608301886134bd565b6147c160808301876134bd565b6147ce60a08301866134bd565b6147db60c08301856134bd565b6147e860e08301846134bd565b9998505050505050505050565b7f74686520736f6e67496420646f65736e277420657869737473206f72206e6f7460008201527f2076616c69640000000000000000000000000000000000000000000000000000602082015250565b60006148516026836135da565b915061485c826147f5565b604082019050919050565b6000602082019050818103600083015261488081614844565b9050919050565b7f506c6561736520706179207468652066756c6c20616d6f756e74000000000000600082015250565b60006148bd601a836135da565b91506148c882614887565b602082019050919050565b600060208201905081810360008301526148ec816148b0565b9050919050565b60006148fe826133e9565b9050919050565b61490e816148f3565b82525050565b600060808201905061492960008301876134bd565b6149366020830186614905565b614943604083018561394d565b614950606083018461394d565b95945050505050565b600060408201905061496e60008301856134bd565b61497b602083018461394d565b9392505050565b7f4f776e61626c653a206e6577206f776e657220697320746865207a65726f206160008201527f6464726573730000000000000000000000000000000000000000000000000000602082015250565b60006149de6026836135da565b91506149e982614982565b604082019050919050565b60006020820190508181036000830152614a0d816149d1565b9050919050565b6000614a216000836135da565b9150614a2c8261434e565b600082019050919050565b60006020820190508181036000830152614a5081614a14565b9050919050565b7f4e487b7100000000000000000000000000000000000000000000000000000000600052602260045260246000fd5b60006002820490506001821680614a9e57607f821691505b602082108103614ab157614ab0614a57565b5b50919050565b600081905092915050565b60008190508160005260206000209050919050565b60008154614ae481614a86565b614aee8186614ab7565b94506001821660008114614b095760018114614b1e57614b51565b60ff1983168652811515820286019350614b51565b614b2785614ac2565b60005b83811015614b4957815481890152600182019150602081019050614b2a565b838801955050505b50505092915050565b6000614b65826135cf565b614b6f8185614ab7565b9350614b7f8185602086016135eb565b80840191505092915050565b6000614b978285614ad7565b9150614ba38284614b5a565b91508190509392505050565b7f455243313135353a2069647320616e6420616d6f756e7473206c656e6774682060008201527f6d69736d61746368000000000000000000000000000000000000000000000000602082015250565b6000614c0b6028836135da565b9150614c1682614baf565b604082019050919050565b60006020820190508181036000830152614c3a81614bfe565b9050919050565b7f455243313135353a207472616e7366657220746f20746865207a65726f20616460008201527f6472657373000000000000000000000000000000000000000000000000000000602082015250565b6000614c9d6025836135da565b9150614ca882614c41565b604082019050919050565b60006020820190508181036000830152614ccc81614c90565b9050919050565b7f455243313135353a20696e73756666696369656e742062616c616e636520666f60008201527f72207472616e7366657200000000000000000000000000000000000000000000602082015250565b6000614d2f602a836135da565b9150614d3a82614cd3565b604082019050919050565b60006020820190508181036000830152614d5e81614d22565b9050919050565b60006040820190508181036000830152614d7f8185613d86565b90508181036020830152614d938184613d86565b90509392505050565b7f455243313135353a206d696e7420746f20746865207a65726f2061646472657360008201527f7300000000000000000000000000000000000000000000000000000000000000602082015250565b6000614df86021836135da565b9150614e0382614d9c565b604082019050919050565b60006020820190508181036000830152614e2781614deb565b9050919050565b6000604082019050614e4360008301856134bd565b614e5060208301846134bd565b9392505050565b60006020601f8301049050919050565b600082821b905092915050565b600060088302614ea47fffffffffffffffffffffffffffffffffffffffffffffffffffffffffffffffff82614e67565b614eae8683614e67565b95508019841693508086168417925050509392505050565b6000819050919050565b6000614eeb614ee6614ee184613447565b614ec6565b613447565b9050919050565b6000819050919050565b614f0583614ed0565b614f19614f1182614ef2565b848454614e74565b825550505050565b600090565b614f2e614f21565b614f39818484614efc565b505050565b5b81811015614f5d57614f52600082614f26565b600181019050614f3f565b5050565b601f821115614fa257614f7381614ac2565b614f7c84614e57565b81016020851015614f8b578190505b614f9f614f9785614e57565b830182614f3e565b50505b505050565b600082821c905092915050565b6000614fc560001984600802614fa7565b1980831691505092915050565b6000614fde8383614fb4565b9150826002028217905092915050565b614ff7826135cf565b67ffffffffffffffff8111156150105761500f613686565b5b61501a8254614a86565b615025828285614f61565b600060209050601f8311600181146150585760008415615046578287015190505b6150508582614fd2565b8655506150b8565b601f19841661506686614ac2565b60005b8281101561508e57848901518255600182019150602085019450602081019050615069565b868310156150ab57848901516150a7601f891682614fb4565b8355505b6001600288020188555050505b505050505050565b7f4f776e61626c653a2063616c6c6572206973206e6f7420746865206f776e6572600082015250565b60006150f66020836135da565b9150615101826150c0565b602082019050919050565b60006020820190508181036000830152615125816150e9565b9050919050565b7f455243313135353a2073657474696e6720617070726f76616c2073746174757360008201527f20666f722073656c660000000000000000000000000000000000000000000000602082015250565b60006151886029836135da565b91506151938261512c565b604082019050919050565b600060208201905081810360008301526151b78161517b565b9050919050565b600081519050919050565b600082825260208201905092915050565b60006151e5826151be565b6151ef81856151c9565b93506151ff8185602086016135eb565b61520881613615565b840191505092915050565b600060a082019050615228600083018861394d565b615235602083018761394d565b81810360408301526152478186613d86565b9050818103606083015261525b8185613d86565b9050818103608083015261526f81846151da565b90509695505050505050565b60008151905061528a81613513565b92915050565b6000602082840312156152a6576152a56133df565b5b60006152b48482850161527b565b91505092915050565b60008160e01c9050919050565b600060033d11156152e95760046000803e6152e66000516152bd565b90505b90565b600060443d10615379576152fe6133d5565b60043d036004823e80513d602482011167ffffffffffffffff82111715615326575050615379565b808201805167ffffffffffffffff8111156153445750505050615379565b80602083010160043d038501811115615361575050505050615379565b615370826020018501866136b5565b82955050505050505b90565b7f455243313135353a207472616e7366657220746f206e6f6e2d4552433131353560008201527f526563656976657220696d706c656d656e746572000000000000000000000000602082015250565b60006153d86034836135da565b91506153e38261537c565b604082019050919050565b60006020820190508181036000830152615407816153cb565b9050919050565b7f455243313135353a204552433131353552656365697665722072656a6563746560008201527f6420746f6b656e73000000000000000000000000000000000000000000000000602082015250565b600061546a6028836135da565b91506154758261540e565b604082019050919050565b600060208201905081810360008301526154998161545d565b9050919050565b600060a0820190506154b5600083018861394d565b6154c2602083018761394d565b6154cf60408301866134bd565b6154dc60608301856134bd565b81810360808301526154ee81846151da565b90509695505050505050565b7f455243313135353a206275726e20616d6f756e74206578636565647320746f7460008201527f616c537570706c79000000000000000000000000000000000000000000000000602082015250565b60006155566028836135da565b9150615561826154fa565b604082019050919050565b6000602082019050818103600083015261558581615549565b905091905056fea264697066735822122016b11471c6e5a29dde7e7f133548dae38cb5cd1c0c3b08717608357754f3c4fe64736f6c63430008110033","opcodes":"PUSH1 0x80 PUSH1 0x40 MSTORE PUSH1 0x40 MLOAD DUP1 PUSH1 0x20 ADD PUSH1 0x40 MSTORE DUP1 PUSH1 0x0 DUP2 MSTORE POP PUSH1 0x4 SWAP1 DUP2 PUSH3 0x24 SWAP2 SWAP1 PUSH3 0x43D JUMP JUMPDEST POP CALLVALUE DUP1 ISZERO PUSH3 0x32 JUMPI PUSH1 0x0 DUP1 REVERT JUMPDEST POP PUSH1 0x40 MLOAD PUSH3 0x5B92 CODESIZE SUB DUP1 PUSH3 0x5B92 DUP4 CODECOPY DUP2 DUP2 ADD PUSH1 0x40 MSTORE DUP2 ADD SWAP1 PUSH3 0x58 SWAP2 SWAP1 PUSH3 0x58E JUMP JUMPDEST PUSH1 0x40 MLOAD DUP1 PUSH1 0x20 ADD PUSH1 0x40 MSTORE DUP1 PUSH1 0x0 DUP2 MSTORE POP PUSH3 0x88 PUSH3 0x7C PUSH3 0xE2 PUSH1 0x20 SHL PUSH1 0x20 SHR JUMP JUMPDEST PUSH3 0xEA PUSH1 0x20 SHL PUSH1 0x20 SHR JUMP JUMPDEST PUSH3 0x99 DUP2 PUSH3 0x1AE PUSH1 0x20 SHL PUSH1 0x20 SHR JUMP JUMPDEST POP DUP1 PUSH1 0x8 PUSH1 0x0 PUSH2 0x100 EXP DUP2 SLOAD DUP2 PUSH20 0xFFFFFFFFFFFFFFFFFFFFFFFFFFFFFFFFFFFFFFFF MUL NOT AND SWAP1 DUP4 PUSH20 0xFFFFFFFFFFFFFFFFFFFFFFFFFFFFFFFFFFFFFFFF AND MUL OR SWAP1 SSTORE POP POP PUSH3 0x5C0 JUMP JUMPDEST PUSH1 0x0 CALLER SWAP1 POP SWAP1 JUMP JUMPDEST PUSH1 0x0 DUP1 PUSH1 0x0 SWAP1 SLOAD SWAP1 PUSH2 0x100 EXP SWAP1 DIV PUSH20 0xFFFFFFFFFFFFFFFFFFFFFFFFFFFFFFFFFFFFFFFF AND SWAP1 POP DUP2 PUSH1 0x0 DUP1 PUSH2 0x100 EXP DUP2 SLOAD DUP2 PUSH20 0xFFFFFFFFFFFFFFFFFFFFFFFFFFFFFFFFFFFFFFFF MUL NOT AND SWAP1 DUP4 PUSH20 0xFFFFFFFFFFFFFFFFFFFFFFFFFFFFFFFFFFFFFFFF AND MUL OR SWAP1 SSTORE POP DUP2 PUSH20 0xFFFFFFFFFFFFFFFFFFFFFFFFFFFFFFFFFFFFFFFF AND DUP2 PUSH20 0xFFFFFFFFFFFFFFFFFFFFFFFFFFFFFFFFFFFFFFFF AND PUSH32 0x8BE0079C531659141344CD1FD0A4F28419497F9722A3DAAFE3B4186F6B6457E0 PUSH1 0x40 MLOAD PUSH1 0x40 MLOAD DUP1 SWAP2 SUB SWAP1 LOG3 POP POP JUMP JUMPDEST DUP1 PUSH1 0x3 SWAP1 DUP2 PUSH3 0x1BF SWAP2 SWAP1 PUSH3 0x43D JUMP JUMPDEST POP POP JUMP JUMPDEST PUSH1 0x0 DUP2 MLOAD SWAP1 POP SWAP2 SWAP1 POP JUMP JUMPDEST PUSH32 0x4E487B7100000000000000000000000000000000000000000000000000000000 PUSH1 0x0 MSTORE PUSH1 0x41 PUSH1 0x4 MSTORE PUSH1 0x24 PUSH1 0x0 REVERT JUMPDEST PUSH32 0x4E487B7100000000000000000000000000000000000000000000000000000000 PUSH1 0x0 MSTORE PUSH1 0x22 PUSH1 0x4 MSTORE PUSH1 0x24 PUSH1 0x0 REVERT JUMPDEST PUSH1 0x0 PUSH1 0x2 DUP3 DIV SWAP1 POP PUSH1 0x1 DUP3 AND DUP1 PUSH3 0x245 JUMPI PUSH1 0x7F DUP3 AND SWAP2 POP JUMPDEST PUSH1 0x20 DUP3 LT DUP2 SUB PUSH3 0x25B JUMPI PUSH3 0x25A PUSH3 0x1FD JUMP JUMPDEST JUMPDEST POP SWAP2 SWAP1 POP JUMP JUMPDEST PUSH1 0x0 DUP2 SWAP1 POP DUP2 PUSH1 0x0 MSTORE PUSH1 0x20 PUSH1 0x0 KECCAK256 SWAP1 POP SWAP2 SWAP1 POP JUMP JUMPDEST PUSH1 0x0 PUSH1 0x20 PUSH1 0x1F DUP4 ADD DIV SWAP1 POP SWAP2 SWAP1 POP JUMP JUMPDEST PUSH1 0x0 DUP3 DUP3 SHL SWAP1 POP SWAP3 SWAP2 POP POP JUMP JUMPDEST PUSH1 0x0 PUSH1 0x8 DUP4 MUL PUSH3 0x2C5 PUSH32 0xFFFFFFFFFFFFFFFFFFFFFFFFFFFFFFFFFFFFFFFFFFFFFFFFFFFFFFFFFFFFFFFF DUP3 PUSH3 0x286 JUMP JUMPDEST PUSH3 0x2D1 DUP7 DUP4 PUSH3 0x286 JUMP JUMPDEST SWAP6 POP DUP1 NOT DUP5 AND SWAP4 POP DUP1 DUP7 AND DUP5 OR SWAP3 POP POP POP SWAP4 SWAP3 POP POP POP JUMP JUMPDEST PUSH1 0x0 DUP2 SWAP1 POP SWAP2 SWAP1 POP JUMP JUMPDEST PUSH1 0x0 DUP2 SWAP1 POP SWAP2 SWAP1 POP JUMP JUMPDEST PUSH1 0x0 PUSH3 0x31E PUSH3 0x318 PUSH3 0x312 DUP5 PUSH3 0x2E9 JUMP JUMPDEST PUSH3 0x2F3 JUMP JUMPDEST PUSH3 0x2E9 JUMP JUMPDEST SWAP1 POP SWAP2 SWAP1 POP JUMP JUMPDEST PUSH1 0x0 DUP2 SWAP1 POP SWAP2 SWAP1 POP JUMP JUMPDEST PUSH3 0x33A DUP4 PUSH3 0x2FD JUMP JUMPDEST PUSH3 0x352 PUSH3 0x349 DUP3 PUSH3 0x325 JUMP JUMPDEST DUP5 DUP5 SLOAD PUSH3 0x293 JUMP JUMPDEST DUP3 SSTORE POP POP POP POP JUMP JUMPDEST PUSH1 0x0 SWAP1 JUMP JUMPDEST PUSH3 0x369 PUSH3 0x35A JUMP JUMPDEST PUSH3 0x376 DUP2 DUP5 DUP5 PUSH3 0x32F JUMP JUMPDEST POP POP POP JUMP JUMPDEST JUMPDEST DUP2 DUP2 LT ISZERO PUSH3 0x39E JUMPI PUSH3 0x392 PUSH1 0x0 DUP3 PUSH3 0x35F JUMP JUMPDEST PUSH1 0x1 DUP2 ADD SWAP1 POP PUSH3 0x37C JUMP JUMPDEST POP POP JUMP JUMPDEST PUSH1 0x1F DUP3 GT ISZERO PUSH3 0x3ED JUMPI PUSH3 0x3B7 DUP2 PUSH3 0x261 JUMP JUMPDEST PUSH3 0x3C2 DUP5 PUSH3 0x276 JUMP JUMPDEST DUP2 ADD PUSH1 0x20 DUP6 LT ISZERO PUSH3 0x3D2 JUMPI DUP2 SWAP1 POP JUMPDEST PUSH3 0x3EA PUSH3 0x3E1 DUP6 PUSH3 0x276 JUMP JUMPDEST DUP4 ADD DUP3 PUSH3 0x37B JUMP JUMPDEST POP POP JUMPDEST POP POP POP JUMP JUMPDEST PUSH1 0x0 DUP3 DUP3 SHR SWAP1 POP SWAP3 SWAP2 POP POP JUMP JUMPDEST PUSH1 0x0 PUSH3 0x412 PUSH1 0x0 NOT DUP5 PUSH1 0x8 MUL PUSH3 0x3F2 JUMP JUMPDEST NOT DUP1 DUP4 AND SWAP2 POP POP SWAP3 SWAP2 POP POP JUMP JUMPDEST PUSH1 0x0 PUSH3 0x42D DUP4 DUP4 PUSH3 0x3FF JUMP JUMPDEST SWAP2 POP DUP3 PUSH1 0x2 MUL DUP3 OR SWAP1 POP SWAP3 SWAP2 POP POP JUMP JUMPDEST PUSH3 0x448 DUP3 PUSH3 0x1C3 JUMP JUMPDEST PUSH8 0xFFFFFFFFFFFFFFFF DUP2 GT ISZERO PUSH3 0x464 JUMPI PUSH3 0x463 PUSH3 0x1CE JUMP JUMPDEST JUMPDEST PUSH3 0x470 DUP3 SLOAD PUSH3 0x22C JUMP JUMPDEST PUSH3 0x47D DUP3 DUP3 DUP6 PUSH3 0x3A2 JUMP JUMPDEST PUSH1 0x0 PUSH1 0x20 SWAP1 POP PUSH1 0x1F DUP4 GT PUSH1 0x1 DUP2 EQ PUSH3 0x4B5 JUMPI PUSH1 0x0 DUP5 ISZERO PUSH3 0x4A0 JUMPI DUP3 DUP8 ADD MLOAD SWAP1 POP JUMPDEST PUSH3 0x4AC DUP6 DUP3 PUSH3 0x41F JUMP JUMPDEST DUP7 SSTORE POP PUSH3 0x51C JUMP JUMPDEST PUSH1 0x1F NOT DUP5 AND PUSH3 0x4C5 DUP7 PUSH3 0x261 JUMP JUMPDEST PUSH1 0x0 JUMPDEST DUP3 DUP2 LT ISZERO PUSH3 0x4EF JUMPI DUP5 DUP10 ADD MLOAD DUP3 SSTORE PUSH1 0x1 DUP3 ADD SWAP2 POP PUSH1 0x20 DUP6 ADD SWAP5 POP PUSH1 0x20 DUP2 ADD SWAP1 POP PUSH3 0x4C8 JUMP JUMPDEST DUP7 DUP4 LT ISZERO PUSH3 0x50F JUMPI DUP5 DUP10 ADD MLOAD PUSH3 0x50B PUSH1 0x1F DUP10 AND DUP3 PUSH3 0x3FF JUMP JUMPDEST DUP4 SSTORE POP JUMPDEST PUSH1 0x1 PUSH1 0x2 DUP9 MUL ADD DUP9 SSTORE POP POP POP JUMPDEST POP POP POP POP POP POP JUMP JUMPDEST PUSH1 0x0 DUP1 REVERT JUMPDEST PUSH1 0x0 PUSH20 0xFFFFFFFFFFFFFFFFFFFFFFFFFFFFFFFFFFFFFFFF DUP3 AND SWAP1 POP SWAP2 SWAP1 POP JUMP JUMPDEST PUSH1 0x0 PUSH3 0x556 DUP3 PUSH3 0x529 JUMP JUMPDEST SWAP1 POP SWAP2 SWAP1 POP JUMP JUMPDEST PUSH3 0x568 DUP2 PUSH3 0x549 JUMP JUMPDEST DUP2 EQ PUSH3 0x574 JUMPI PUSH1 0x0 DUP1 REVERT JUMPDEST POP JUMP JUMPDEST PUSH1 0x0 DUP2 MLOAD SWAP1 POP PUSH3 0x588 DUP2 PUSH3 0x55D JUMP JUMPDEST SWAP3 SWAP2 POP POP JUMP JUMPDEST PUSH1 0x0 PUSH1 0x20 DUP3 DUP5 SUB SLT ISZERO PUSH3 0x5A7 JUMPI PUSH3 0x5A6 PUSH3 0x524 JUMP JUMPDEST JUMPDEST PUSH1 0x0 PUSH3 0x5B7 DUP5 DUP3 DUP6 ADD PUSH3 0x577 JUMP JUMPDEST SWAP2 POP POP SWAP3 SWAP2 POP POP JUMP JUMPDEST PUSH2 0x55C2 DUP1 PUSH3 0x5D0 PUSH1 0x0 CODECOPY PUSH1 0x0 RETURN INVALID PUSH1 0x80 PUSH1 0x40 MSTORE PUSH1 0x4 CALLDATASIZE LT PUSH2 0x143 JUMPI PUSH1 0x0 CALLDATALOAD PUSH1 0xE0 SHR DUP1 PUSH4 0x5FE34985 GT PUSH2 0xB6 JUMPI DUP1 PUSH4 0xBD85B039 GT PUSH2 0x6F JUMPI DUP1 PUSH4 0xBD85B039 EQ PUSH2 0x4B2 JUMPI DUP1 PUSH4 0xE985E9C5 EQ PUSH2 0x4EF JUMPI DUP1 PUSH4 0xEEA7EAF6 EQ PUSH2 0x52C JUMPI DUP1 PUSH4 0xF242432A EQ PUSH2 0x548 JUMPI DUP1 PUSH4 0xF2FDE38B EQ PUSH2 0x571 JUMPI DUP1 PUSH4 0xFAD00AC2 EQ PUSH2 0x59A JUMPI PUSH2 0x14A JUMP JUMPDEST DUP1 PUSH4 0x5FE34985 EQ PUSH2 0x3BE JUMPI DUP1 PUSH4 0x715018A6 EQ PUSH2 0x3E9 JUMPI DUP1 PUSH4 0x7C76C232 EQ PUSH2 0x400 JUMPI DUP1 PUSH4 0x8DA5CB5B EQ PUSH2 0x417 JUMPI DUP1 PUSH4 0xA22CB465 EQ PUSH2 0x442 JUMPI DUP1 PUSH4 0xB9414D31 EQ PUSH2 0x46B JUMPI PUSH2 0x14A JUMP JUMPDEST DUP1 PUSH4 0x304CFF30 GT PUSH2 0x108 JUMPI DUP1 PUSH4 0x304CFF30 EQ PUSH2 0x246 JUMPI DUP1 PUSH4 0x42ACAA66 EQ PUSH2 0x28D JUMPI DUP1 PUSH4 0x4A3FF340 EQ PUSH2 0x2CA JUMPI DUP1 PUSH4 0x4E1273F4 EQ PUSH2 0x307 JUMPI DUP1 PUSH4 0x4F558E79 EQ PUSH2 0x344 JUMPI DUP1 PUSH4 0x5BC7A7D8 EQ PUSH2 0x381 JUMPI PUSH2 0x14A JUMP JUMPDEST DUP1 PUSH3 0xFDD58E EQ PUSH2 0x14F JUMPI DUP1 PUSH4 0x1FFC9A7 EQ PUSH2 0x18C JUMPI DUP1 PUSH4 0xE89341C EQ PUSH2 0x1C9 JUMPI DUP1 PUSH4 0x2935FF41 EQ PUSH2 0x206 JUMPI DUP1 PUSH4 0x2EB2C2D6 EQ PUSH2 0x21D JUMPI PUSH2 0x14A JUMP JUMPDEST CALLDATASIZE PUSH2 0x14A JUMPI STOP JUMPDEST PUSH1 0x0 DUP1 REVERT JUMPDEST CALLVALUE DUP1 ISZERO PUSH2 0x15B JUMPI PUSH1 0x0 DUP1 REVERT JUMPDEST POP PUSH2 0x176 PUSH1 0x4 DUP1 CALLDATASIZE SUB DUP2 ADD SWAP1 PUSH2 0x171 SWAP2 SWAP1 PUSH2 0x347D JUMP JUMPDEST PUSH2 0x5B6 JUMP JUMPDEST PUSH1 0x40 MLOAD PUSH2 0x183 SWAP2 SWAP1 PUSH2 0x34CC JUMP JUMPDEST PUSH1 0x40 MLOAD DUP1 SWAP2 SUB SWAP1 RETURN JUMPDEST CALLVALUE DUP1 ISZERO PUSH2 0x198 JUMPI PUSH1 0x0 DUP1 REVERT JUMPDEST POP PUSH2 0x1B3 PUSH1 0x4 DUP1 CALLDATASIZE SUB DUP2 ADD SWAP1 PUSH2 0x1AE SWAP2 SWAP1 PUSH2 0x353F JUMP JUMPDEST PUSH2 0x67F JUMP JUMPDEST PUSH1 0x40 MLOAD PUSH2 0x1C0 SWAP2 SWAP1 PUSH2 0x3587 JUMP JUMPDEST PUSH1 0x40 MLOAD DUP1 SWAP2 SUB SWAP1 RETURN JUMPDEST CALLVALUE DUP1 ISZERO PUSH2 0x1D5 JUMPI PUSH1 0x0 DUP1 REVERT JUMPDEST POP PUSH2 0x1F0 PUSH1 0x4 DUP1 CALLDATASIZE SUB DUP2 ADD SWAP1 PUSH2 0x1EB SWAP2 SWAP1 PUSH2 0x35A2 JUMP JUMPDEST PUSH2 0x761 JUMP JUMPDEST PUSH1 0x40 MLOAD PUSH2 0x1FD SWAP2 SWAP1 PUSH2 0x365F JUMP JUMPDEST PUSH1 0x40 MLOAD DUP1 SWAP2 SUB SWAP1 RETURN JUMPDEST CALLVALUE DUP1 ISZERO PUSH2 0x212 JUMPI PUSH1 0x0 DUP1 REVERT JUMPDEST POP PUSH2 0x21B PUSH2 0x773 JUMP JUMPDEST STOP JUMPDEST CALLVALUE DUP1 ISZERO PUSH2 0x229 JUMPI PUSH1 0x0 DUP1 REVERT JUMPDEST POP PUSH2 0x244 PUSH1 0x4 DUP1 CALLDATASIZE SUB DUP2 ADD SWAP1 PUSH2 0x23F SWAP2 SWAP1 PUSH2 0x387E JUMP JUMPDEST PUSH2 0xB32 JUMP JUMPDEST STOP JUMPDEST CALLVALUE DUP1 ISZERO PUSH2 0x252 JUMPI PUSH1 0x0 DUP1 REVERT JUMPDEST POP PUSH2 0x26D PUSH1 0x4 DUP1 CALLDATASIZE SUB DUP2 ADD SWAP1 PUSH2 0x268 SWAP2 SWAP1 PUSH2 0x35A2 JUMP JUMPDEST PUSH2 0xBD3 JUMP JUMPDEST PUSH1 0x40 MLOAD PUSH2 0x284 SWAP12 SWAP11 SWAP10 SWAP9 SWAP8 SWAP7 SWAP6 SWAP5 SWAP4 SWAP3 SWAP2 SWAP1 PUSH2 0x395C JUMP JUMPDEST PUSH1 0x40 MLOAD DUP1 SWAP2 SUB SWAP1 RETURN JUMPDEST CALLVALUE DUP1 ISZERO PUSH2 0x299 JUMPI PUSH1 0x0 DUP1 REVERT JUMPDEST POP PUSH2 0x2B4 PUSH1 0x4 DUP1 CALLDATASIZE SUB DUP2 ADD SWAP1 PUSH2 0x2AF SWAP2 SWAP1 PUSH2 0x35A2 JUMP JUMPDEST PUSH2 0xC4D JUMP JUMPDEST PUSH1 0x40 MLOAD PUSH2 0x2C1 SWAP2 SWAP1 PUSH2 0x3BD8 JUMP JUMPDEST PUSH1 0x40 MLOAD DUP1 SWAP2 SUB SWAP1 RETURN JUMPDEST CALLVALUE DUP1 ISZERO PUSH2 0x2D6 JUMPI PUSH1 0x0 DUP1 REVERT JUMPDEST POP PUSH2 0x2F1 PUSH1 0x4 DUP1 CALLDATASIZE SUB DUP2 ADD SWAP1 PUSH2 0x2EC SWAP2 SWAP1 PUSH2 0x347D JUMP JUMPDEST PUSH2 0xFEE JUMP JUMPDEST PUSH1 0x40 MLOAD PUSH2 0x2FE SWAP2 SWAP1 PUSH2 0x34CC JUMP JUMPDEST PUSH1 0x40 MLOAD DUP1 SWAP2 SUB SWAP1 RETURN JUMPDEST CALLVALUE DUP1 ISZERO PUSH2 0x313 JUMPI PUSH1 0x0 DUP1 REVERT JUMPDEST POP PUSH2 0x32E PUSH1 0x4 DUP1 CALLDATASIZE SUB DUP2 ADD SWAP1 PUSH2 0x329 SWAP2 SWAP1 PUSH2 0x3CBD JUMP JUMPDEST PUSH2 0x101F JUMP JUMPDEST PUSH1 0x40 MLOAD PUSH2 0x33B SWAP2 SWAP1 PUSH2 0x3DE4 JUMP JUMPDEST PUSH1 0x40 MLOAD DUP1 SWAP2 SUB SWAP1 RETURN JUMPDEST CALLVALUE DUP1 ISZERO PUSH2 0x350 JUMPI PUSH1 0x0 DUP1 REVERT JUMPDEST POP PUSH2 0x36B PUSH1 0x4 DUP1 CALLDATASIZE SUB DUP2 ADD SWAP1 PUSH2 0x366 SWAP2 SWAP1 PUSH2 0x35A2 JUMP JUMPDEST PUSH2 0x1138 JUMP JUMPDEST PUSH1 0x40 MLOAD PUSH2 0x378 SWAP2 SWAP1 PUSH2 0x3587 JUMP JUMPDEST PUSH1 0x40 MLOAD DUP1 SWAP2 SUB SWAP1 RETURN JUMPDEST CALLVALUE DUP1 ISZERO PUSH2 0x38D JUMPI PUSH1 0x0 DUP1 REVERT JUMPDEST POP PUSH2 0x3A8 PUSH1 0x4 DUP1 CALLDATASIZE SUB DUP2 ADD SWAP1 PUSH2 0x3A3 SWAP2 SWAP1 PUSH2 0x3EA7 JUMP JUMPDEST PUSH2 0x114C JUMP JUMPDEST PUSH1 0x40 MLOAD PUSH2 0x3B5 SWAP2 SWAP1 PUSH2 0x34CC JUMP JUMPDEST PUSH1 0x40 MLOAD DUP1 SWAP2 SUB SWAP1 RETURN JUMPDEST CALLVALUE DUP1 ISZERO PUSH2 0x3CA JUMPI PUSH1 0x0 DUP1 REVERT JUMPDEST POP PUSH2 0x3D3 PUSH2 0x14A9 JUMP JUMPDEST PUSH1 0x40 MLOAD PUSH2 0x3E0 SWAP2 SWAP1 PUSH2 0x34CC JUMP JUMPDEST PUSH1 0x40 MLOAD DUP1 SWAP2 SUB SWAP1 RETURN JUMPDEST CALLVALUE DUP1 ISZERO PUSH2 0x3F5 JUMPI PUSH1 0x0 DUP1 REVERT JUMPDEST POP PUSH2 0x3FE PUSH2 0x14BA JUMP JUMPDEST STOP JUMPDEST CALLVALUE DUP1 ISZERO PUSH2 0x40C JUMPI PUSH1 0x0 DUP1 REVERT JUMPDEST POP PUSH2 0x415 PUSH2 0x14CE JUMP JUMPDEST STOP JUMPDEST CALLVALUE DUP1 ISZERO PUSH2 0x423 JUMPI PUSH1 0x0 DUP1 REVERT JUMPDEST POP PUSH2 0x42C PUSH2 0x1678 JUMP JUMPDEST PUSH1 0x40 MLOAD PUSH2 0x439 SWAP2 SWAP1 PUSH2 0x3F81 JUMP JUMPDEST PUSH1 0x40 MLOAD DUP1 SWAP2 SUB SWAP1 RETURN JUMPDEST CALLVALUE DUP1 ISZERO PUSH2 0x44E JUMPI PUSH1 0x0 DUP1 REVERT JUMPDEST POP PUSH2 0x469 PUSH1 0x4 DUP1 CALLDATASIZE SUB DUP2 ADD SWAP1 PUSH2 0x464 SWAP2 SWAP1 PUSH2 0x3FC8 JUMP JUMPDEST PUSH2 0x16A1 JUMP JUMPDEST STOP JUMPDEST CALLVALUE DUP1 ISZERO PUSH2 0x477 JUMPI PUSH1 0x0 DUP1 REVERT JUMPDEST POP PUSH2 0x492 PUSH1 0x4 DUP1 CALLDATASIZE SUB DUP2 ADD SWAP1 PUSH2 0x48D SWAP2 SWAP1 PUSH2 0x35A2 JUMP JUMPDEST PUSH2 0x16B7 JUMP JUMPDEST PUSH1 0x40 MLOAD PUSH2 0x4A9 SWAP12 SWAP11 SWAP10 SWAP9 SWAP8 SWAP7 SWAP6 SWAP5 SWAP4 SWAP3 SWAP2 SWAP1 PUSH2 0x395C JUMP JUMPDEST PUSH1 0x40 MLOAD DUP1 SWAP2 SUB SWAP1 RETURN JUMPDEST CALLVALUE DUP1 ISZERO PUSH2 0x4BE JUMPI PUSH1 0x0 DUP1 REVERT JUMPDEST POP PUSH2 0x4D9 PUSH1 0x4 DUP1 CALLDATASIZE SUB DUP2 ADD SWAP1 PUSH2 0x4D4 SWAP2 SWAP1 PUSH2 0x35A2 JUMP JUMPDEST PUSH2 0x1741 JUMP JUMPDEST PUSH1 0x40 MLOAD PUSH2 0x4E6 SWAP2 SWAP1 PUSH2 0x34CC JUMP JUMPDEST PUSH1 0x40 MLOAD DUP1 SWAP2 SUB SWAP1 RETURN JUMPDEST CALLVALUE DUP1 ISZERO PUSH2 0x4FB JUMPI PUSH1 0x0 DUP1 REVERT JUMPDEST POP PUSH2 0x516 PUSH1 0x4 DUP1 CALLDATASIZE SUB DUP2 ADD SWAP1 PUSH2 0x511 SWAP2 SWAP1 PUSH2 0x4008 JUMP JUMPDEST PUSH2 0x175E JUMP JUMPDEST PUSH1 0x40 MLOAD PUSH2 0x523 SWAP2 SWAP1 PUSH2 0x3587 JUMP JUMPDEST PUSH1 0x40 MLOAD DUP1 SWAP2 SUB SWAP1 RETURN JUMPDEST PUSH2 0x546 PUSH1 0x4 DUP1 CALLDATASIZE SUB DUP2 ADD SWAP1 PUSH2 0x541 SWAP2 SWAP1 PUSH2 0x35A2 JUMP JUMPDEST PUSH2 0x17F2 JUMP JUMPDEST STOP JUMPDEST CALLVALUE DUP1 ISZERO PUSH2 0x554 JUMPI PUSH1 0x0 DUP1 REVERT JUMPDEST POP PUSH2 0x56F PUSH1 0x4 DUP1 CALLDATASIZE SUB DUP2 ADD SWAP1 PUSH2 0x56A SWAP2 SWAP1 PUSH2 0x4048 JUMP JUMPDEST PUSH2 0x1AEB JUMP JUMPDEST STOP JUMPDEST CALLVALUE DUP1 ISZERO PUSH2 0x57D JUMPI PUSH1 0x0 DUP1 REVERT JUMPDEST POP PUSH2 0x598 PUSH1 0x4 DUP1 CALLDATASIZE SUB DUP2 ADD SWAP1 PUSH2 0x593 SWAP2 SWAP1 PUSH2 0x40DF JUMP JUMPDEST PUSH2 0x1B8C JUMP JUMPDEST STOP JUMPDEST PUSH2 0x5B4 PUSH1 0x4 DUP1 CALLDATASIZE SUB DUP2 ADD SWAP1 PUSH2 0x5AF SWAP2 SWAP1 PUSH2 0x35A2 JUMP JUMPDEST PUSH2 0x1C0F JUMP JUMPDEST STOP JUMPDEST PUSH1 0x0 DUP1 PUSH20 0xFFFFFFFFFFFFFFFFFFFFFFFFFFFFFFFFFFFFFFFF AND DUP4 PUSH20 0xFFFFFFFFFFFFFFFFFFFFFFFFFFFFFFFFFFFFFFFF AND SUB PUSH2 0x626 JUMPI PUSH1 0x40 MLOAD PUSH32 0x8C379A000000000000000000000000000000000000000000000000000000000 DUP2 MSTORE PUSH1 0x4 ADD PUSH2 0x61D SWAP1 PUSH2 0x417E JUMP JUMPDEST PUSH1 0x40 MLOAD DUP1 SWAP2 SUB SWAP1 REVERT JUMPDEST PUSH1 0x1 PUSH1 0x0 DUP4 DUP2 MSTORE PUSH1 0x20 ADD SWAP1 DUP2 MSTORE PUSH1 0x20 ADD PUSH1 0x0 KECCAK256 PUSH1 0x0 DUP5 PUSH20 0xFFFFFFFFFFFFFFFFFFFFFFFFFFFFFFFFFFFFFFFF AND PUSH20 0xFFFFFFFFFFFFFFFFFFFFFFFFFFFFFFFFFFFFFFFF AND DUP2 MSTORE PUSH1 0x20 ADD SWAP1 DUP2 MSTORE PUSH1 0x20 ADD PUSH1 0x0 KECCAK256 SLOAD SWAP1 POP SWAP3 SWAP2 POP POP JUMP JUMPDEST PUSH1 0x0 PUSH32 0xD9B67A2600000000000000000000000000000000000000000000000000000000 PUSH28 0xFFFFFFFFFFFFFFFFFFFFFFFFFFFFFFFFFFFFFFFFFFFFFFFFFFFFFFFF NOT AND DUP3 PUSH28 0xFFFFFFFFFFFFFFFFFFFFFFFFFFFFFFFFFFFFFFFFFFFFFFFFFFFFFFFF NOT AND EQ DUP1 PUSH2 0x74A JUMPI POP PUSH32 0xE89341C00000000000000000000000000000000000000000000000000000000 PUSH28 0xFFFFFFFFFFFFFFFFFFFFFFFFFFFFFFFFFFFFFFFFFFFFFFFFFFFFFFFF NOT AND DUP3 PUSH28 0xFFFFFFFFFFFFFFFFFFFFFFFFFFFFFFFFFFFFFFFFFFFFFFFFFFFFFFFF NOT AND EQ JUMPDEST DUP1 PUSH2 0x75A JUMPI POP PUSH2 0x759 DUP3 PUSH2 0x1F8F JUMP JUMPDEST JUMPDEST SWAP1 POP SWAP2 SWAP1 POP JUMP JUMPDEST PUSH1 0x60 PUSH2 0x76C DUP3 PUSH2 0x1FF9 JUMP JUMPDEST SWAP1 POP SWAP2 SWAP1 POP JUMP JUMPDEST PUSH1 0x0 DUP1 PUSH1 0x1 SWAP1 POP JUMPDEST PUSH1 0xB DUP1 SLOAD SWAP1 POP DUP2 GT PUSH2 0xB2E JUMPI PUSH1 0xA PUSH1 0x0 DUP3 DUP2 MSTORE PUSH1 0x20 ADD SWAP1 DUP2 MSTORE PUSH1 0x20 ADD PUSH1 0x0 KECCAK256 SWAP2 POP PUSH2 0x7A5 DUP2 PUSH2 0x1138 JUMP JUMPDEST PUSH2 0x7E4 JUMPI PUSH1 0x40 MLOAD PUSH32 0x8C379A000000000000000000000000000000000000000000000000000000000 DUP2 MSTORE PUSH1 0x4 ADD PUSH2 0x7DB SWAP1 PUSH2 0x41EA JUMP JUMPDEST PUSH1 0x40 MLOAD DUP1 SWAP2 SUB SWAP1 REVERT JUMPDEST PUSH1 0x0 DUP3 PUSH1 0x9 ADD SLOAD PUSH1 0x64 DUP5 PUSH1 0x7 ADD SLOAD PUSH2 0x7FC SWAP2 SWAP1 PUSH2 0x4268 JUMP JUMPDEST PUSH2 0x806 SWAP2 SWAP1 PUSH2 0x4299 JUMP JUMPDEST SWAP1 POP PUSH1 0x0 DUP2 DUP5 PUSH1 0x7 ADD SLOAD PUSH2 0x81A SWAP2 SWAP1 PUSH2 0x42DB JUMP JUMPDEST SWAP1 POP PUSH1 0x0 DUP5 PUSH1 0x9 ADD SLOAD PUSH1 0x64 DUP7 PUSH1 0x8 ADD SLOAD PUSH2 0x834 SWAP2 SWAP1 PUSH2 0x4268 JUMP JUMPDEST PUSH2 0x83E SWAP2 SWAP1 PUSH2 0x4299 JUMP JUMPDEST SWAP1 POP PUSH1 0x0 DUP2 DUP7 PUSH1 0x8 ADD SLOAD PUSH2 0x852 SWAP2 SWAP1 PUSH2 0x42DB JUMP JUMPDEST SWAP1 POP PUSH1 0x0 DUP7 PUSH1 0xB ADD DUP1 SLOAD DUP1 PUSH1 0x20 MUL PUSH1 0x20 ADD PUSH1 0x40 MLOAD SWAP1 DUP2 ADD PUSH1 0x40 MSTORE DUP1 SWAP3 SWAP2 SWAP1 DUP2 DUP2 MSTORE PUSH1 0x20 ADD DUP3 DUP1 SLOAD DUP1 ISZERO PUSH2 0x8DA JUMPI PUSH1 0x20 MUL DUP3 ADD SWAP2 SWAP1 PUSH1 0x0 MSTORE PUSH1 0x20 PUSH1 0x0 KECCAK256 SWAP1 JUMPDEST DUP2 PUSH1 0x0 SWAP1 SLOAD SWAP1 PUSH2 0x100 EXP SWAP1 DIV PUSH20 0xFFFFFFFFFFFFFFFFFFFFFFFFFFFFFFFFFFFFFFFF AND PUSH20 0xFFFFFFFFFFFFFFFFFFFFFFFFFFFFFFFFFFFFFFFF AND DUP2 MSTORE PUSH1 0x20 ADD SWAP1 PUSH1 0x1 ADD SWAP1 DUP1 DUP4 GT PUSH2 0x890 JUMPI JUMPDEST POP POP POP POP POP SWAP1 POP PUSH1 0x0 DUP8 PUSH1 0x3 ADD SLOAD DUP9 PUSH1 0xA ADD SLOAD PUSH1 0x64 DUP11 PUSH1 0x7 ADD SLOAD PUSH2 0x8FE SWAP2 SWAP1 PUSH2 0x4268 JUMP JUMPDEST PUSH2 0x908 SWAP2 SWAP1 PUSH2 0x4299 JUMP JUMPDEST PUSH2 0x912 SWAP2 SWAP1 PUSH2 0x4268 JUMP JUMPDEST SWAP1 POP PUSH1 0x0 DUP3 MLOAD DUP3 PUSH2 0x923 SWAP2 SWAP1 PUSH2 0x4299 JUMP JUMPDEST SWAP1 POP PUSH1 0x0 DUP2 DUP6 DUP9 PUSH2 0x934 SWAP2 SWAP1 PUSH2 0x430F JUMP JUMPDEST PUSH2 0x93E SWAP2 SWAP1 PUSH2 0x42DB JUMP JUMPDEST SWAP1 POP PUSH1 0x0 DUP11 PUSH1 0x7 ADD DUP2 SWAP1 SSTORE POP PUSH1 0x0 DUP11 PUSH1 0x8 ADD DUP2 SWAP1 SSTORE POP PUSH1 0x0 DUP11 PUSH1 0x0 ADD PUSH1 0x0 SWAP1 SLOAD SWAP1 PUSH2 0x100 EXP SWAP1 DIV PUSH20 0xFFFFFFFFFFFFFFFFFFFFFFFFFFFFFFFFFFFFFFFF AND PUSH20 0xFFFFFFFFFFFFFFFFFFFFFFFFFFFFFFFFFFFFFFFF AND DUP3 PUSH1 0x40 MLOAD PUSH2 0x99E SWAP1 PUSH2 0x4374 JUMP JUMPDEST PUSH1 0x0 PUSH1 0x40 MLOAD DUP1 DUP4 SUB DUP2 DUP6 DUP8 GAS CALL SWAP3 POP POP POP RETURNDATASIZE DUP1 PUSH1 0x0 DUP2 EQ PUSH2 0x9DB JUMPI PUSH1 0x40 MLOAD SWAP2 POP PUSH1 0x1F NOT PUSH1 0x3F RETURNDATASIZE ADD AND DUP3 ADD PUSH1 0x40 MSTORE RETURNDATASIZE DUP3 MSTORE RETURNDATASIZE PUSH1 0x0 PUSH1 0x20 DUP5 ADD RETURNDATACOPY PUSH2 0x9E0 JUMP JUMPDEST PUSH1 0x60 SWAP2 POP JUMPDEST POP POP SWAP1 POP DUP1 PUSH2 0xA24 JUMPI PUSH1 0x40 MLOAD PUSH32 0x8C379A000000000000000000000000000000000000000000000000000000000 DUP2 MSTORE PUSH1 0x4 ADD PUSH2 0xA1B SWAP1 PUSH2 0x43FB JUMP JUMPDEST PUSH1 0x40 MLOAD DUP1 SWAP2 SUB SWAP1 REVERT JUMPDEST PUSH1 0x0 JUMPDEST DUP6 MLOAD DUP2 LT ISZERO PUSH2 0xB10 JUMPI PUSH1 0x0 DUP7 DUP13 DUP2 MLOAD DUP2 LT PUSH2 0xA45 JUMPI PUSH2 0xA44 PUSH2 0x441B JUMP JUMPDEST JUMPDEST PUSH1 0x20 MUL PUSH1 0x20 ADD ADD MLOAD SWAP1 POP PUSH1 0x0 DUP2 PUSH20 0xFFFFFFFFFFFFFFFFFFFFFFFFFFFFFFFFFFFFFFFF AND DUP8 PUSH1 0x40 MLOAD PUSH2 0xA75 SWAP1 PUSH2 0x4374 JUMP JUMPDEST PUSH1 0x0 PUSH1 0x40 MLOAD DUP1 DUP4 SUB DUP2 DUP6 DUP8 GAS CALL SWAP3 POP POP POP RETURNDATASIZE DUP1 PUSH1 0x0 DUP2 EQ PUSH2 0xAB2 JUMPI PUSH1 0x40 MLOAD SWAP2 POP PUSH1 0x1F NOT PUSH1 0x3F RETURNDATASIZE ADD AND DUP3 ADD PUSH1 0x40 MSTORE RETURNDATASIZE DUP3 MSTORE RETURNDATASIZE PUSH1 0x0 PUSH1 0x20 DUP5 ADD RETURNDATACOPY PUSH2 0xAB7 JUMP JUMPDEST PUSH1 0x60 SWAP2 POP JUMPDEST POP POP SWAP1 POP DUP1 PUSH2 0xAFB JUMPI PUSH1 0x40 MLOAD PUSH32 0x8C379A000000000000000000000000000000000000000000000000000000000 DUP2 MSTORE PUSH1 0x4 ADD PUSH2 0xAF2 SWAP1 PUSH2 0x44BC JUMP JUMPDEST PUSH1 0x40 MLOAD DUP1 SWAP2 SUB SWAP1 REVERT JUMPDEST POP POP DUP1 DUP1 PUSH2 0xB08 SWAP1 PUSH2 0x44DC JUMP JUMPDEST SWAP2 POP POP PUSH2 0xA27 JUMP JUMPDEST POP POP POP POP POP POP POP POP POP POP PUSH1 0x2 DUP2 PUSH2 0xB27 SWAP2 SWAP1 PUSH2 0x430F JUMP JUMPDEST SWAP1 POP PUSH2 0x77B JUMP JUMPDEST POP POP JUMP JUMPDEST PUSH2 0xB3A PUSH2 0x20DE JUMP JUMPDEST PUSH20 0xFFFFFFFFFFFFFFFFFFFFFFFFFFFFFFFFFFFFFFFF AND DUP6 PUSH20 0xFFFFFFFFFFFFFFFFFFFFFFFFFFFFFFFFFFFFFFFF AND EQ DUP1 PUSH2 0xB80 JUMPI POP PUSH2 0xB7F DUP6 PUSH2 0xB7A PUSH2 0x20DE JUMP JUMPDEST PUSH2 0x175E JUMP JUMPDEST JUMPDEST PUSH2 0xBBF JUMPI PUSH1 0x40 MLOAD PUSH32 0x8C379A000000000000000000000000000000000000000000000000000000000 DUP2 MSTORE PUSH1 0x4 ADD PUSH2 0xBB6 SWAP1 PUSH2 0x4596 JUMP JUMPDEST PUSH1 0x40 MLOAD DUP1 SWAP2 SUB SWAP1 REVERT JUMPDEST PUSH2 0xBCC DUP6 DUP6 DUP6 DUP6 DUP6 PUSH2 0x20E6 JUMP JUMPDEST POP POP POP POP POP JUMP JUMPDEST PUSH1 0xA PUSH1 0x20 MSTORE DUP1 PUSH1 0x0 MSTORE PUSH1 0x40 PUSH1 0x0 KECCAK256 PUSH1 0x0 SWAP2 POP SWAP1 POP DUP1 PUSH1 0x0 ADD PUSH1 0x0 SWAP1 SLOAD SWAP1 PUSH2 0x100 EXP SWAP1 DIV PUSH20 0xFFFFFFFFFFFFFFFFFFFFFFFFFFFFFFFFFFFFFFFF AND SWAP1 DUP1 PUSH1 0x1 ADD SLOAD SWAP1 DUP1 PUSH1 0x2 ADD SLOAD SWAP1 DUP1 PUSH1 0x3 ADD SLOAD SWAP1 DUP1 PUSH1 0x4 ADD SLOAD SWAP1 DUP1 PUSH1 0x5 ADD SLOAD SWAP1 DUP1 PUSH1 0x6 ADD SLOAD SWAP1 DUP1 PUSH1 0x7 ADD SLOAD SWAP1 DUP1 PUSH1 0x8 ADD SLOAD SWAP1 DUP1 PUSH1 0x9 ADD SLOAD SWAP1 DUP1 PUSH1 0xA ADD SLOAD SWAP1 POP DUP12 JUMP JUMPDEST PUSH2 0xC55 PUSH2 0x3265 JUMP JUMPDEST PUSH1 0x0 PUSH1 0x2 DUP4 PUSH2 0xC64 SWAP2 SWAP1 PUSH2 0x45B6 JUMP JUMPDEST EQ PUSH2 0xE1F JUMPI PUSH2 0xC72 DUP3 PUSH2 0x1138 JUMP JUMPDEST PUSH2 0xCB1 JUMPI PUSH1 0x40 MLOAD PUSH32 0x8C379A000000000000000000000000000000000000000000000000000000000 DUP2 MSTORE PUSH1 0x4 ADD PUSH2 0xCA8 SWAP1 PUSH2 0x4633 JUMP JUMPDEST PUSH1 0x40 MLOAD DUP1 SWAP2 SUB SWAP1 REVERT JUMPDEST PUSH1 0xA PUSH1 0x0 DUP4 DUP2 MSTORE PUSH1 0x20 ADD SWAP1 DUP2 MSTORE PUSH1 0x20 ADD PUSH1 0x0 KECCAK256 PUSH1 0x40 MLOAD DUP1 PUSH2 0x180 ADD PUSH1 0x40 MSTORE SWAP1 DUP2 PUSH1 0x0 DUP3 ADD PUSH1 0x0 SWAP1 SLOAD SWAP1 PUSH2 0x100 EXP SWAP1 DIV PUSH20 0xFFFFFFFFFFFFFFFFFFFFFFFFFFFFFFFFFFFFFFFF AND PUSH20 0xFFFFFFFFFFFFFFFFFFFFFFFFFFFFFFFFFFFFFFFF AND PUSH20 0xFFFFFFFFFFFFFFFFFFFFFFFFFFFFFFFFFFFFFFFF AND DUP2 MSTORE PUSH1 0x20 ADD PUSH1 0x1 DUP3 ADD SLOAD DUP2 MSTORE PUSH1 0x20 ADD PUSH1 0x2 DUP3 ADD SLOAD DUP2 MSTORE PUSH1 0x20 ADD PUSH1 0x3 DUP3 ADD SLOAD DUP2 MSTORE PUSH1 0x20 ADD PUSH1 0x4 DUP3 ADD SLOAD DUP2 MSTORE PUSH1 0x20 ADD PUSH1 0x5 DUP3 ADD SLOAD DUP2 MSTORE PUSH1 0x20 ADD PUSH1 0x6 DUP3 ADD SLOAD DUP2 MSTORE PUSH1 0x20 ADD PUSH1 0x7 DUP3 ADD SLOAD DUP2 MSTORE PUSH1 0x20 ADD PUSH1 0x8 DUP3 ADD SLOAD DUP2 MSTORE PUSH1 0x20 ADD PUSH1 0x9 DUP3 ADD SLOAD DUP2 MSTORE PUSH1 0x20 ADD PUSH1 0xA DUP3 ADD SLOAD DUP2 MSTORE PUSH1 0x20 ADD PUSH1 0xB DUP3 ADD DUP1 SLOAD DUP1 PUSH1 0x20 MUL PUSH1 0x20 ADD PUSH1 0x40 MLOAD SWAP1 DUP2 ADD PUSH1 0x40 MSTORE DUP1 SWAP3 SWAP2 SWAP1 DUP2 DUP2 MSTORE PUSH1 0x20 ADD DUP3 DUP1 SLOAD DUP1 ISZERO PUSH2 0xE0F JUMPI PUSH1 0x20 MUL DUP3 ADD SWAP2 SWAP1 PUSH1 0x0 MSTORE PUSH1 0x20 PUSH1 0x0 KECCAK256 SWAP1 JUMPDEST DUP2 PUSH1 0x0 SWAP1 SLOAD SWAP1 PUSH2 0x100 EXP SWAP1 DIV PUSH20 0xFFFFFFFFFFFFFFFFFFFFFFFFFFFFFFFFFFFFFFFF AND PUSH20 0xFFFFFFFFFFFFFFFFFFFFFFFFFFFFFFFFFFFFFFFF AND DUP2 MSTORE PUSH1 0x20 ADD SWAP1 PUSH1 0x1 ADD SWAP1 DUP1 DUP4 GT PUSH2 0xDC5 JUMPI JUMPDEST POP POP POP POP POP DUP2 MSTORE POP POP SWAP1 POP PUSH2 0xFE9 JUMP JUMPDEST PUSH2 0xE34 PUSH1 0x1 DUP4 PUSH2 0xE2F SWAP2 SWAP1 PUSH2 0x42DB JUMP JUMPDEST PUSH2 0x1138 JUMP JUMPDEST PUSH2 0xE73 JUMPI PUSH1 0x40 MLOAD PUSH32 0x8C379A000000000000000000000000000000000000000000000000000000000 DUP2 MSTORE PUSH1 0x4 ADD PUSH2 0xE6A SWAP1 PUSH2 0x4633 JUMP JUMPDEST PUSH1 0x40 MLOAD DUP1 SWAP2 SUB SWAP1 REVERT JUMPDEST PUSH1 0xA PUSH1 0x0 PUSH1 0x1 DUP5 PUSH2 0xE84 SWAP2 SWAP1 PUSH2 0x42DB JUMP JUMPDEST DUP2 MSTORE PUSH1 0x20 ADD SWAP1 DUP2 MSTORE PUSH1 0x20 ADD PUSH1 0x0 KECCAK256 PUSH1 0x40 MLOAD DUP1 PUSH2 0x180 ADD PUSH1 0x40 MSTORE SWAP1 DUP2 PUSH1 0x0 DUP3 ADD PUSH1 0x0 SWAP1 SLOAD SWAP1 PUSH2 0x100 EXP SWAP1 DIV PUSH20 0xFFFFFFFFFFFFFFFFFFFFFFFFFFFFFFFFFFFFFFFF AND PUSH20 0xFFFFFFFFFFFFFFFFFFFFFFFFFFFFFFFFFFFFFFFF AND PUSH20 0xFFFFFFFFFFFFFFFFFFFFFFFFFFFFFFFFFFFFFFFF AND DUP2 MSTORE PUSH1 0x20 ADD PUSH1 0x1 DUP3 ADD SLOAD DUP2 MSTORE PUSH1 0x20 ADD PUSH1 0x2 DUP3 ADD SLOAD DUP2 MSTORE PUSH1 0x20 ADD PUSH1 0x3 DUP3 ADD SLOAD DUP2 MSTORE PUSH1 0x20 ADD PUSH1 0x4 DUP3 ADD SLOAD DUP2 MSTORE PUSH1 0x20 ADD PUSH1 0x5 DUP3 ADD SLOAD DUP2 MSTORE PUSH1 0x20 ADD PUSH1 0x6 DUP3 ADD SLOAD DUP2 MSTORE PUSH1 0x20 ADD PUSH1 0x7 DUP3 ADD SLOAD DUP2 MSTORE PUSH1 0x20 ADD PUSH1 0x8 DUP3 ADD SLOAD DUP2 MSTORE PUSH1 0x20 ADD PUSH1 0x9 DUP3 ADD SLOAD DUP2 MSTORE PUSH1 0x20 ADD PUSH1 0xA DUP3 ADD SLOAD DUP2 MSTORE PUSH1 0x20 ADD PUSH1 0xB DUP3 ADD DUP1 SLOAD DUP1 PUSH1 0x20 MUL PUSH1 0x20 ADD PUSH1 0x40 MLOAD SWAP1 DUP2 ADD PUSH1 0x40 MSTORE DUP1 SWAP3 SWAP2 SWAP1 DUP2 DUP2 MSTORE PUSH1 0x20 ADD DUP3 DUP1 SLOAD DUP1 ISZERO PUSH2 0xFDD JUMPI PUSH1 0x20 MUL DUP3 ADD SWAP2 SWAP1 PUSH1 0x0 MSTORE PUSH1 0x20 PUSH1 0x0 KECCAK256 SWAP1 JUMPDEST DUP2 PUSH1 0x0 SWAP1 SLOAD SWAP1 PUSH2 0x100 EXP SWAP1 DIV PUSH20 0xFFFFFFFFFFFFFFFFFFFFFFFFFFFFFFFFFFFFFFFF AND PUSH20 0xFFFFFFFFFFFFFFFFFFFFFFFFFFFFFFFFFFFFFFFF AND DUP2 MSTORE PUSH1 0x20 ADD SWAP1 PUSH1 0x1 ADD SWAP1 DUP1 DUP4 GT PUSH2 0xF93 JUMPI JUMPDEST POP POP POP POP POP DUP2 MSTORE POP POP SWAP1 POP JUMPDEST SWAP2 SWAP1 POP JUMP JUMPDEST PUSH1 0x9 PUSH1 0x20 MSTORE DUP2 PUSH1 0x0 MSTORE PUSH1 0x40 PUSH1 0x0 KECCAK256 DUP2 DUP2 SLOAD DUP2 LT PUSH2 0x100A JUMPI PUSH1 0x0 DUP1 REVERT JUMPDEST SWAP1 PUSH1 0x0 MSTORE PUSH1 0x20 PUSH1 0x0 KECCAK256 ADD PUSH1 0x0 SWAP2 POP SWAP2 POP POP SLOAD DUP2 JUMP JUMPDEST PUSH1 0x60 DUP2 MLOAD DUP4 MLOAD EQ PUSH2 0x1065 JUMPI PUSH1 0x40 MLOAD PUSH32 0x8C379A000000000000000000000000000000000000000000000000000000000 DUP2 MSTORE PUSH1 0x4 ADD PUSH2 0x105C SWAP1 PUSH2 0x46C5 JUMP JUMPDEST PUSH1 0x40 MLOAD DUP1 SWAP2 SUB SWAP1 REVERT JUMPDEST PUSH1 0x0 DUP4 MLOAD PUSH8 0xFFFFFFFFFFFFFFFF DUP2 GT ISZERO PUSH2 0x1082 JUMPI PUSH2 0x1081 PUSH2 0x3686 JUMP JUMPDEST JUMPDEST PUSH1 0x40 MLOAD SWAP1 DUP1 DUP3 MSTORE DUP1 PUSH1 0x20 MUL PUSH1 0x20 ADD DUP3 ADD PUSH1 0x40 MSTORE DUP1 ISZERO PUSH2 0x10B0 JUMPI DUP2 PUSH1 0x20 ADD PUSH1 0x20 DUP3 MUL DUP1 CALLDATASIZE DUP4 CALLDATACOPY DUP1 DUP3 ADD SWAP2 POP POP SWAP1 POP JUMPDEST POP SWAP1 POP PUSH1 0x0 JUMPDEST DUP5 MLOAD DUP2 LT ISZERO PUSH2 0x112D JUMPI PUSH2 0x10FD DUP6 DUP3 DUP2 MLOAD DUP2 LT PUSH2 0x10D5 JUMPI PUSH2 0x10D4 PUSH2 0x441B JUMP JUMPDEST JUMPDEST PUSH1 0x20 MUL PUSH1 0x20 ADD ADD MLOAD DUP6 DUP4 DUP2 MLOAD DUP2 LT PUSH2 0x10F0 JUMPI PUSH2 0x10EF PUSH2 0x441B JUMP JUMPDEST JUMPDEST PUSH1 0x20 MUL PUSH1 0x20 ADD ADD MLOAD PUSH2 0x5B6 JUMP JUMPDEST DUP3 DUP3 DUP2 MLOAD DUP2 LT PUSH2 0x1110 JUMPI PUSH2 0x110F PUSH2 0x441B JUMP JUMPDEST JUMPDEST PUSH1 0x20 MUL PUSH1 0x20 ADD ADD DUP2 DUP2 MSTORE POP POP DUP1 PUSH2 0x1126 SWAP1 PUSH2 0x44DC JUMP JUMPDEST SWAP1 POP PUSH2 0x10B6 JUMP JUMPDEST POP DUP1 SWAP2 POP POP SWAP3 SWAP2 POP POP JUMP JUMPDEST PUSH1 0x0 DUP1 PUSH2 0x1144 DUP4 PUSH2 0x1741 JUMP JUMPDEST GT SWAP1 POP SWAP2 SWAP1 POP JUMP JUMPDEST PUSH1 0x0 DUP1 DUP9 GT PUSH2 0x1190 JUMPI PUSH1 0x40 MLOAD PUSH32 0x8C379A000000000000000000000000000000000000000000000000000000000 DUP2 MSTORE PUSH1 0x4 ADD PUSH2 0x1187 SWAP1 PUSH2 0x4757 JUMP JUMPDEST PUSH1 0x40 MLOAD DUP1 SWAP2 SUB SWAP1 REVERT JUMPDEST PUSH2 0x119A PUSH1 0x7 PUSH2 0x240A JUMP JUMPDEST PUSH2 0x11A4 PUSH1 0x7 PUSH2 0x2420 JUMP JUMPDEST SWAP1 POP PUSH2 0x11C9 CALLER DUP3 PUSH8 0xDE0B6B3A7640000 PUSH1 0x40 MLOAD DUP1 PUSH1 0x20 ADD PUSH1 0x40 MSTORE DUP1 PUSH1 0x0 DUP2 MSTORE POP PUSH2 0x242E JUMP JUMPDEST PUSH2 0x11D3 DUP2 DUP7 PUSH2 0x25DF JUMP JUMPDEST PUSH1 0x0 PUSH1 0xA PUSH1 0x0 DUP4 DUP2 MSTORE PUSH1 0x20 ADD SWAP1 DUP2 MSTORE PUSH1 0x20 ADD PUSH1 0x0 KECCAK256 SWAP1 POP CALLER DUP2 PUSH1 0x0 ADD PUSH1 0x0 PUSH2 0x100 EXP DUP2 SLOAD DUP2 PUSH20 0xFFFFFFFFFFFFFFFFFFFFFFFFFFFFFFFFFFFFFFFF MUL NOT AND SWAP1 DUP4 PUSH20 0xFFFFFFFFFFFFFFFFFFFFFFFFFFFFFFFFFFFFFFFF AND MUL OR SWAP1 SSTORE POP DUP2 DUP2 PUSH1 0x1 ADD DUP2 SWAP1 SSTORE POP DUP9 DUP2 PUSH1 0x3 ADD DUP2 SWAP1 SSTORE POP DUP8 DUP2 PUSH1 0x5 ADD DUP2 SWAP1 SSTORE POP DUP7 DUP2 PUSH1 0x6 ADD DUP2 SWAP1 SSTORE POP DUP4 DUP2 PUSH1 0x9 ADD DUP2 SWAP1 SSTORE POP DUP3 DUP2 PUSH1 0xA ADD DUP2 SWAP1 SSTORE POP PUSH2 0x126D PUSH1 0x7 PUSH2 0x240A JUMP JUMPDEST PUSH1 0x0 PUSH2 0x1279 PUSH1 0x7 PUSH2 0x2420 JUMP JUMPDEST SWAP1 POP PUSH2 0x1296 CALLER DUP3 DUP13 PUSH1 0x40 MLOAD DUP1 PUSH1 0x20 ADD PUSH1 0x40 MSTORE DUP1 PUSH1 0x0 DUP2 MSTORE POP PUSH2 0x242E JUMP JUMPDEST PUSH2 0x12A0 DUP2 DUP8 PUSH2 0x25DF JUMP JUMPDEST DUP1 DUP3 PUSH1 0x2 ADD DUP2 SWAP1 SSTORE POP PUSH1 0xB DUP3 SWAP1 DUP1 PUSH1 0x1 DUP2 SLOAD ADD DUP1 DUP3 SSTORE DUP1 SWAP2 POP POP PUSH1 0x1 SWAP1 SUB SWAP1 PUSH1 0x0 MSTORE PUSH1 0x20 PUSH1 0x0 KECCAK256 SWAP1 PUSH1 0xC MUL ADD PUSH1 0x0 SWAP1 SWAP2 SWAP1 SWAP2 SWAP1 SWAP2 POP PUSH1 0x0 DUP3 ADD PUSH1 0x0 SWAP1 SLOAD SWAP1 PUSH2 0x100 EXP SWAP1 DIV PUSH20 0xFFFFFFFFFFFFFFFFFFFFFFFFFFFFFFFFFFFFFFFF AND DUP2 PUSH1 0x0 ADD PUSH1 0x0 PUSH2 0x100 EXP DUP2 SLOAD DUP2 PUSH20 0xFFFFFFFFFFFFFFFFFFFFFFFFFFFFFFFFFFFFFFFF MUL NOT AND SWAP1 DUP4 PUSH20 0xFFFFFFFFFFFFFFFFFFFFFFFFFFFFFFFFFFFFFFFF AND MUL OR SWAP1 SSTORE POP PUSH1 0x1 DUP3 ADD SLOAD DUP2 PUSH1 0x1 ADD SSTORE PUSH1 0x2 DUP3 ADD SLOAD DUP2 PUSH1 0x2 ADD SSTORE PUSH1 0x3 DUP3 ADD SLOAD DUP2 PUSH1 0x3 ADD SSTORE PUSH1 0x4 DUP3 ADD SLOAD DUP2 PUSH1 0x4 ADD SSTORE PUSH1 0x5 DUP3 ADD SLOAD DUP2 PUSH1 0x5 ADD SSTORE PUSH1 0x6 DUP3 ADD SLOAD DUP2 PUSH1 0x6 ADD SSTORE PUSH1 0x7 DUP3 ADD SLOAD DUP2 PUSH1 0x7 ADD SSTORE PUSH1 0x8 DUP3 ADD SLOAD DUP2 PUSH1 0x8 ADD SSTORE PUSH1 0x9 DUP3 ADD SLOAD DUP2 PUSH1 0x9 ADD SSTORE PUSH1 0xA DUP3 ADD SLOAD DUP2 PUSH1 0xA ADD SSTORE PUSH1 0xB DUP3 ADD DUP2 PUSH1 0xB ADD SWAP1 DUP1 SLOAD PUSH2 0x13B6 SWAP3 SWAP2 SWAP1 PUSH2 0x32DC JUMP JUMPDEST POP POP POP PUSH2 0x13E5 CALLER PUSH1 0x8 PUSH1 0x0 SWAP1 SLOAD SWAP1 PUSH2 0x100 EXP SWAP1 DIV PUSH20 0xFFFFFFFFFFFFFFFFFFFFFFFFFFFFFFFFFFFFFFFF AND PUSH2 0x175E JUMP JUMPDEST PUSH2 0x1417 JUMPI PUSH2 0x1416 PUSH1 0x8 PUSH1 0x0 SWAP1 SLOAD SWAP1 PUSH2 0x100 EXP SWAP1 DIV PUSH20 0xFFFFFFFFFFFFFFFFFFFFFFFFFFFFFFFFFFFFFFFF AND PUSH1 0x1 PUSH2 0x16A1 JUMP JUMPDEST JUMPDEST PUSH32 0xE44A95D90DB666EEC698EE335D929AF1295456EF22ACF300487F3B13CEE736F1 DUP3 PUSH1 0x1 ADD SLOAD DUP4 PUSH1 0x2 ADD SLOAD DUP5 PUSH1 0x0 ADD PUSH1 0x0 SWAP1 SLOAD SWAP1 PUSH2 0x100 EXP SWAP1 DIV PUSH20 0xFFFFFFFFFFFFFFFFFFFFFFFFFFFFFFFFFFFFFFFF AND DUP6 PUSH1 0x3 ADD SLOAD DUP7 PUSH1 0x5 ADD SLOAD DUP8 PUSH1 0x6 ADD SLOAD DUP9 PUSH1 0x9 ADD SLOAD DUP10 PUSH1 0xA ADD SLOAD PUSH1 0x40 MLOAD PUSH2 0x1494 SWAP9 SWAP8 SWAP7 SWAP6 SWAP5 SWAP4 SWAP3 SWAP2 SWAP1 PUSH2 0x4777 JUMP JUMPDEST PUSH1 0x40 MLOAD DUP1 SWAP2 SUB SWAP1 LOG1 POP POP SWAP8 SWAP7 POP POP POP POP POP POP POP JUMP JUMPDEST PUSH1 0x0 PUSH2 0x14B5 PUSH1 0x7 PUSH2 0x2420 JUMP JUMPDEST SWAP1 POP SWAP1 JUMP JUMPDEST PUSH2 0x14C2 PUSH2 0x2644 JUMP JUMPDEST PUSH2 0x14CC PUSH1 0x0 PUSH2 0x26C2 JUMP JUMPDEST JUMP JUMPDEST PUSH2 0x14D6 PUSH2 0x3265 JUMP JUMPDEST PUSH1 0x0 PUSH1 0x1 SWAP1 POP JUMPDEST PUSH1 0xB DUP1 SLOAD SWAP1 POP DUP2 GT PUSH2 0x1674 JUMPI PUSH1 0x40 MLOAD DUP1 PUSH2 0x180 ADD PUSH1 0x40 MSTORE DUP1 DUP4 PUSH1 0x0 ADD MLOAD PUSH20 0xFFFFFFFFFFFFFFFFFFFFFFFFFFFFFFFFFFFFFFFF AND DUP2 MSTORE PUSH1 0x20 ADD DUP4 PUSH1 0x20 ADD MLOAD DUP2 MSTORE PUSH1 0x20 ADD DUP4 PUSH1 0x40 ADD MLOAD DUP2 MSTORE PUSH1 0x20 ADD DUP4 PUSH1 0x60 ADD MLOAD DUP2 MSTORE PUSH1 0x20 ADD DUP4 PUSH1 0x80 ADD MLOAD DUP2 MSTORE PUSH1 0x20 ADD DUP4 PUSH1 0xA0 ADD MLOAD DUP2 MSTORE PUSH1 0x20 ADD DUP4 PUSH1 0xC0 ADD MLOAD DUP2 MSTORE PUSH1 0x20 ADD PUSH1 0x0 DUP2 MSTORE PUSH1 0x20 ADD PUSH1 0x0 DUP2 MSTORE PUSH1 0x20 ADD DUP4 PUSH2 0x120 ADD MLOAD DUP2 MSTORE PUSH1 0x20 ADD DUP4 PUSH2 0x140 ADD MLOAD DUP2 MSTORE PUSH1 0x20 ADD DUP4 PUSH2 0x160 ADD MLOAD DUP2 MSTORE POP PUSH1 0xA PUSH1 0x0 DUP4 DUP2 MSTORE PUSH1 0x20 ADD SWAP1 DUP2 MSTORE PUSH1 0x20 ADD PUSH1 0x0 KECCAK256 PUSH1 0x0 DUP3 ADD MLOAD DUP2 PUSH1 0x0 ADD PUSH1 0x0 PUSH2 0x100 EXP DUP2 SLOAD DUP2 PUSH20 0xFFFFFFFFFFFFFFFFFFFFFFFFFFFFFFFFFFFFFFFF MUL NOT AND SWAP1 DUP4 PUSH20 0xFFFFFFFFFFFFFFFFFFFFFFFFFFFFFFFFFFFFFFFF AND MUL OR SWAP1 SSTORE POP PUSH1 0x20 DUP3 ADD MLOAD DUP2 PUSH1 0x1 ADD SSTORE PUSH1 0x40 DUP3 ADD MLOAD DUP2 PUSH1 0x2 ADD SSTORE PUSH1 0x60 DUP3 ADD MLOAD DUP2 PUSH1 0x3 ADD SSTORE PUSH1 0x80 DUP3 ADD MLOAD DUP2 PUSH1 0x4 ADD SSTORE PUSH1 0xA0 DUP3 ADD MLOAD DUP2 PUSH1 0x5 ADD SSTORE PUSH1 0xC0 DUP3 ADD MLOAD DUP2 PUSH1 0x6 ADD SSTORE PUSH1 0xE0 DUP3 ADD MLOAD DUP2 PUSH1 0x7 ADD SSTORE PUSH2 0x100 DUP3 ADD MLOAD DUP2 PUSH1 0x8 ADD SSTORE PUSH2 0x120 DUP3 ADD MLOAD DUP2 PUSH1 0x9 ADD SSTORE PUSH2 0x140 DUP3 ADD MLOAD DUP2 PUSH1 0xA ADD SSTORE PUSH2 0x160 DUP3 ADD MLOAD DUP2 PUSH1 0xB ADD SWAP1 DUP1 MLOAD SWAP1 PUSH1 0x20 ADD SWAP1 PUSH2 0x165C SWAP3 SWAP2 SWAP1 PUSH2 0x332E JUMP JUMPDEST POP SWAP1 POP POP PUSH1 0x2 DUP2 PUSH2 0x166D SWAP2 SWAP1 PUSH2 0x430F JUMP JUMPDEST SWAP1 POP PUSH2 0x14DD JUMP JUMPDEST POP POP JUMP JUMPDEST PUSH1 0x0 DUP1 PUSH1 0x0 SWAP1 SLOAD SWAP1 PUSH2 0x100 EXP SWAP1 DIV PUSH20 0xFFFFFFFFFFFFFFFFFFFFFFFFFFFFFFFFFFFFFFFF AND SWAP1 POP SWAP1 JUMP JUMPDEST PUSH2 0x16B3 PUSH2 0x16AC PUSH2 0x20DE JUMP JUMPDEST DUP4 DUP4 PUSH2 0x2786 JUMP JUMPDEST POP POP JUMP JUMPDEST PUSH1 0xB DUP2 DUP2 SLOAD DUP2 LT PUSH2 0x16C7 JUMPI PUSH1 0x0 DUP1 REVERT JUMPDEST SWAP1 PUSH1 0x0 MSTORE PUSH1 0x20 PUSH1 0x0 KECCAK256 SWAP1 PUSH1 0xC MUL ADD PUSH1 0x0 SWAP2 POP SWAP1 POP DUP1 PUSH1 0x0 ADD PUSH1 0x0 SWAP1 SLOAD SWAP1 PUSH2 0x100 EXP SWAP1 DIV PUSH20 0xFFFFFFFFFFFFFFFFFFFFFFFFFFFFFFFFFFFFFFFF AND SWAP1 DUP1 PUSH1 0x1 ADD SLOAD SWAP1 DUP1 PUSH1 0x2 ADD SLOAD SWAP1 DUP1 PUSH1 0x3 ADD SLOAD SWAP1 DUP1 PUSH1 0x4 ADD SLOAD SWAP1 DUP1 PUSH1 0x5 ADD SLOAD SWAP1 DUP1 PUSH1 0x6 ADD SLOAD SWAP1 DUP1 PUSH1 0x7 ADD SLOAD SWAP1 DUP1 PUSH1 0x8 ADD SLOAD SWAP1 DUP1 PUSH1 0x9 ADD SLOAD SWAP1 DUP1 PUSH1 0xA ADD SLOAD SWAP1 POP DUP12 JUMP JUMPDEST PUSH1 0x0 PUSH1 0x6 PUSH1 0x0 DUP4 DUP2 MSTORE PUSH1 0x20 ADD SWAP1 DUP2 MSTORE PUSH1 0x20 ADD PUSH1 0x0 KECCAK256 SLOAD SWAP1 POP SWAP2 SWAP1 POP JUMP JUMPDEST PUSH1 0x0 PUSH1 0x2 PUSH1 0x0 DUP5 PUSH20 0xFFFFFFFFFFFFFFFFFFFFFFFFFFFFFFFFFFFFFFFF AND PUSH20 0xFFFFFFFFFFFFFFFFFFFFFFFFFFFFFFFFFFFFFFFF AND DUP2 MSTORE PUSH1 0x20 ADD SWAP1 DUP2 MSTORE PUSH1 0x20 ADD PUSH1 0x0 KECCAK256 PUSH1 0x0 DUP4 PUSH20 0xFFFFFFFFFFFFFFFFFFFFFFFFFFFFFFFFFFFFFFFF AND PUSH20 0xFFFFFFFFFFFFFFFFFFFFFFFFFFFFFFFFFFFFFFFF AND DUP2 MSTORE PUSH1 0x20 ADD SWAP1 DUP2 MSTORE PUSH1 0x20 ADD PUSH1 0x0 KECCAK256 PUSH1 0x0 SWAP1 SLOAD SWAP1 PUSH2 0x100 EXP SWAP1 DIV PUSH1 0xFF AND SWAP1 POP SWAP3 SWAP2 POP POP JUMP JUMPDEST PUSH1 0x0 DUP1 PUSH1 0x2 DUP4 PUSH2 0x1802 SWAP2 SWAP1 PUSH2 0x45B6 JUMP JUMPDEST EQ PUSH2 0x1869 JUMPI PUSH2 0x1810 DUP3 PUSH2 0x1138 JUMP JUMPDEST PUSH2 0x184F JUMPI PUSH1 0x40 MLOAD PUSH32 0x8C379A000000000000000000000000000000000000000000000000000000000 DUP2 MSTORE PUSH1 0x4 ADD PUSH2 0x1846 SWAP1 PUSH2 0x4633 JUMP JUMPDEST PUSH1 0x40 MLOAD DUP1 SWAP2 SUB SWAP1 REVERT JUMPDEST PUSH1 0xA PUSH1 0x0 DUP4 DUP2 MSTORE PUSH1 0x20 ADD SWAP1 DUP2 MSTORE PUSH1 0x20 ADD PUSH1 0x0 KECCAK256 SWAP1 POP PUSH2 0x18DF JUMP JUMPDEST PUSH2 0x187E PUSH1 0x1 DUP4 PUSH2 0x1879 SWAP2 SWAP1 PUSH2 0x42DB JUMP JUMPDEST PUSH2 0x1138 JUMP JUMPDEST PUSH2 0x18BD JUMPI PUSH1 0x40 MLOAD PUSH32 0x8C379A000000000000000000000000000000000000000000000000000000000 DUP2 MSTORE PUSH1 0x4 ADD PUSH2 0x18B4 SWAP1 PUSH2 0x4633 JUMP JUMPDEST PUSH1 0x40 MLOAD DUP1 SWAP2 SUB SWAP1 REVERT JUMPDEST PUSH1 0xA PUSH1 0x0 PUSH1 0x1 DUP5 PUSH2 0x18CE SWAP2 SWAP1 PUSH2 0x42DB JUMP JUMPDEST DUP2 MSTORE PUSH1 0x20 ADD SWAP1 DUP2 MSTORE PUSH1 0x20 ADD PUSH1 0x0 KECCAK256 SWAP1 POP JUMPDEST PUSH2 0x18EC DUP2 PUSH1 0x1 ADD SLOAD PUSH2 0x1138 JUMP JUMPDEST PUSH2 0x192B JUMPI PUSH1 0x40 MLOAD PUSH32 0x8C379A000000000000000000000000000000000000000000000000000000000 DUP2 MSTORE PUSH1 0x4 ADD PUSH2 0x1922 SWAP1 PUSH2 0x4867 JUMP JUMPDEST PUSH1 0x40 MLOAD DUP1 SWAP2 SUB SWAP1 REVERT JUMPDEST DUP1 PUSH1 0x5 ADD SLOAD CALLVALUE LT ISZERO PUSH2 0x1972 JUMPI PUSH1 0x40 MLOAD PUSH32 0x8C379A000000000000000000000000000000000000000000000000000000000 DUP2 MSTORE PUSH1 0x4 ADD PUSH2 0x1969 SWAP1 PUSH2 0x48D3 JUMP JUMPDEST PUSH1 0x40 MLOAD DUP1 SWAP2 SUB SWAP1 REVERT JUMPDEST CALLVALUE DUP2 PUSH1 0x7 ADD PUSH1 0x0 DUP3 DUP3 SLOAD PUSH2 0x1986 SWAP2 SWAP1 PUSH2 0x430F JUMP JUMPDEST SWAP3 POP POP DUP2 SWAP1 SSTORE POP PUSH1 0x8 PUSH1 0x0 SWAP1 SLOAD SWAP1 PUSH2 0x100 EXP SWAP1 DIV PUSH20 0xFFFFFFFFFFFFFFFFFFFFFFFFFFFFFFFFFFFFFFFF AND PUSH20 0xFFFFFFFFFFFFFFFFFFFFFFFFFFFFFFFFFFFFFFFF AND PUSH4 0x13F2DA7B DUP3 PUSH1 0x1 ADD SLOAD ADDRESS DUP5 PUSH1 0x0 ADD PUSH1 0x0 SWAP1 SLOAD SWAP1 PUSH2 0x100 EXP SWAP1 DIV PUSH20 0xFFFFFFFFFFFFFFFFFFFFFFFFFFFFFFFFFFFFFFFF AND CALLER PUSH1 0x40 MLOAD DUP6 PUSH4 0xFFFFFFFF AND PUSH1 0xE0 SHL DUP2 MSTORE PUSH1 0x4 ADD PUSH2 0x1A16 SWAP5 SWAP4 SWAP3 SWAP2 SWAP1 PUSH2 0x4914 JUMP JUMPDEST PUSH1 0x0 PUSH1 0x40 MLOAD DUP1 DUP4 SUB DUP2 PUSH1 0x0 DUP8 DUP1 EXTCODESIZE ISZERO DUP1 ISZERO PUSH2 0x1A30 JUMPI PUSH1 0x0 DUP1 REVERT JUMPDEST POP GAS CALL ISZERO DUP1 ISZERO PUSH2 0x1A44 JUMPI RETURNDATASIZE PUSH1 0x0 DUP1 RETURNDATACOPY RETURNDATASIZE PUSH1 0x0 REVERT JUMPDEST POP POP POP POP PUSH1 0x9 PUSH1 0x0 CALLER PUSH20 0xFFFFFFFFFFFFFFFFFFFFFFFFFFFFFFFFFFFFFFFF AND PUSH20 0xFFFFFFFFFFFFFFFFFFFFFFFFFFFFFFFFFFFFFFFF AND DUP2 MSTORE PUSH1 0x20 ADD SWAP1 DUP2 MSTORE PUSH1 0x20 ADD PUSH1 0x0 KECCAK256 DUP3 SWAP1 DUP1 PUSH1 0x1 DUP2 SLOAD ADD DUP1 DUP3 SSTORE DUP1 SWAP2 POP POP PUSH1 0x1 SWAP1 SUB SWAP1 PUSH1 0x0 MSTORE PUSH1 0x20 PUSH1 0x0 KECCAK256 ADD PUSH1 0x0 SWAP1 SWAP2 SWAP1 SWAP2 SWAP1 SWAP2 POP SSTORE PUSH32 0x4D30D6EF2C1B6DC4FB27350A8A71229EA6D6A3220BE9DB153486F9BBDA5E6EC DUP3 CALLER PUSH1 0x40 MLOAD PUSH2 0x1ADF SWAP3 SWAP2 SWAP1 PUSH2 0x4959 JUMP JUMPDEST PUSH1 0x40 MLOAD DUP1 SWAP2 SUB SWAP1 LOG1 POP POP JUMP JUMPDEST PUSH2 0x1AF3 PUSH2 0x20DE JUMP JUMPDEST PUSH20 0xFFFFFFFFFFFFFFFFFFFFFFFFFFFFFFFFFFFFFFFF AND DUP6 PUSH20 0xFFFFFFFFFFFFFFFFFFFFFFFFFFFFFFFFFFFFFFFF AND EQ DUP1 PUSH2 0x1B39 JUMPI POP PUSH2 0x1B38 DUP6 PUSH2 0x1B33 PUSH2 0x20DE JUMP JUMPDEST PUSH2 0x175E JUMP JUMPDEST JUMPDEST PUSH2 0x1B78 JUMPI PUSH1 0x40 MLOAD PUSH32 0x8C379A000000000000000000000000000000000000000000000000000000000 DUP2 MSTORE PUSH1 0x4 ADD PUSH2 0x1B6F SWAP1 PUSH2 0x4596 JUMP JUMPDEST PUSH1 0x40 MLOAD DUP1 SWAP2 SUB SWAP1 REVERT JUMPDEST PUSH2 0x1B85 DUP6 DUP6 DUP6 DUP6 DUP6 PUSH2 0x28F2 JUMP JUMPDEST POP POP POP POP POP JUMP JUMPDEST PUSH2 0x1B94 PUSH2 0x2644 JUMP JUMPDEST PUSH1 0x0 PUSH20 0xFFFFFFFFFFFFFFFFFFFFFFFFFFFFFFFFFFFFFFFF AND DUP2 PUSH20 0xFFFFFFFFFFFFFFFFFFFFFFFFFFFFFFFFFFFFFFFF AND SUB PUSH2 0x1C03 JUMPI PUSH1 0x40 MLOAD PUSH32 0x8C379A000000000000000000000000000000000000000000000000000000000 DUP2 MSTORE PUSH1 0x4 ADD PUSH2 0x1BFA SWAP1 PUSH2 0x49F4 JUMP JUMPDEST PUSH1 0x40 MLOAD DUP1 SWAP2 SUB SWAP1 REVERT JUMPDEST PUSH2 0x1C0C DUP2 PUSH2 0x26C2 JUMP JUMPDEST POP JUMP JUMPDEST PUSH1 0x0 DUP1 PUSH1 0x2 DUP4 PUSH2 0x1C1F SWAP2 SWAP1 PUSH2 0x45B6 JUMP JUMPDEST EQ PUSH2 0x1C86 JUMPI PUSH2 0x1C2D DUP3 PUSH2 0x1138 JUMP JUMPDEST PUSH2 0x1C6C JUMPI PUSH1 0x40 MLOAD PUSH32 0x8C379A000000000000000000000000000000000000000000000000000000000 DUP2 MSTORE PUSH1 0x4 ADD PUSH2 0x1C63 SWAP1 PUSH2 0x4633 JUMP JUMPDEST PUSH1 0x40 MLOAD DUP1 SWAP2 SUB SWAP1 REVERT JUMPDEST PUSH1 0xA PUSH1 0x0 DUP4 DUP2 MSTORE PUSH1 0x20 ADD SWAP1 DUP2 MSTORE PUSH1 0x20 ADD PUSH1 0x0 KECCAK256 SWAP1 POP PUSH2 0x1CFC JUMP JUMPDEST PUSH2 0x1C9B PUSH1 0x1 DUP4 PUSH2 0x1C96 SWAP2 SWAP1 PUSH2 0x42DB JUMP JUMPDEST PUSH2 0x1138 JUMP JUMPDEST PUSH2 0x1CDA JUMPI PUSH1 0x40 MLOAD PUSH32 0x8C379A000000000000000000000000000000000000000000000000000000000 DUP2 MSTORE PUSH1 0x4 ADD PUSH2 0x1CD1 SWAP1 PUSH2 0x4633 JUMP JUMPDEST PUSH1 0x40 MLOAD DUP1 SWAP2 SUB SWAP1 REVERT JUMPDEST PUSH1 0xA PUSH1 0x0 PUSH1 0x1 DUP5 PUSH2 0x1CEB SWAP2 SWAP1 PUSH2 0x42DB JUMP JUMPDEST DUP2 MSTORE PUSH1 0x20 ADD SWAP1 DUP2 MSTORE PUSH1 0x20 ADD PUSH1 0x0 KECCAK256 SWAP1 POP JUMPDEST DUP1 PUSH1 0x3 ADD SLOAD DUP2 PUSH1 0x4 ADD SLOAD LT PUSH2 0x1D46 JUMPI PUSH1 0x40 MLOAD PUSH32 0x8C379A000000000000000000000000000000000000000000000000000000000 DUP2 MSTORE PUSH1 0x4 ADD PUSH2 0x1D3D SWAP1 PUSH2 0x4A37 JUMP JUMPDEST PUSH1 0x40 MLOAD DUP1 SWAP2 SUB SWAP1 REVERT JUMPDEST DUP1 PUSH1 0x6 ADD SLOAD CALLVALUE LT ISZERO PUSH2 0x1D8D JUMPI PUSH1 0x40 MLOAD PUSH32 0x8C379A000000000000000000000000000000000000000000000000000000000 DUP2 MSTORE PUSH1 0x4 ADD PUSH2 0x1D84 SWAP1 PUSH2 0x48D3 JUMP JUMPDEST PUSH1 0x40 MLOAD DUP1 SWAP2 SUB SWAP1 REVERT JUMPDEST PUSH1 0x1 DUP2 PUSH1 0x4 ADD PUSH1 0x0 DUP3 DUP3 SLOAD PUSH2 0x1DA2 SWAP2 SWAP1 PUSH2 0x430F JUMP JUMPDEST SWAP3 POP POP DUP2 SWAP1 SSTORE POP CALLVALUE DUP2 PUSH1 0x8 ADD PUSH1 0x0 DUP3 DUP3 SLOAD PUSH2 0x1DBD SWAP2 SWAP1 PUSH2 0x430F JUMP JUMPDEST SWAP3 POP POP DUP2 SWAP1 SSTORE POP DUP1 PUSH1 0xB ADD CALLER SWAP1 DUP1 PUSH1 0x1 DUP2 SLOAD ADD DUP1 DUP3 SSTORE DUP1 SWAP2 POP POP PUSH1 0x1 SWAP1 SUB SWAP1 PUSH1 0x0 MSTORE PUSH1 0x20 PUSH1 0x0 KECCAK256 ADD PUSH1 0x0 SWAP1 SWAP2 SWAP1 SWAP2 SWAP1 SWAP2 PUSH2 0x100 EXP DUP2 SLOAD DUP2 PUSH20 0xFFFFFFFFFFFFFFFFFFFFFFFFFFFFFFFFFFFFFFFF MUL NOT AND SWAP1 DUP4 PUSH20 0xFFFFFFFFFFFFFFFFFFFFFFFFFFFFFFFFFFFFFFFF AND MUL OR SWAP1 SSTORE POP PUSH1 0x8 PUSH1 0x0 SWAP1 SLOAD SWAP1 PUSH2 0x100 EXP SWAP1 DIV PUSH20 0xFFFFFFFFFFFFFFFFFFFFFFFFFFFFFFFFFFFFFFFF AND PUSH20 0xFFFFFFFFFFFFFFFFFFFFFFFFFFFFFFFFFFFFFFFF AND PUSH4 0x13F2DA7B DUP3 PUSH1 0x2 ADD SLOAD ADDRESS DUP5 PUSH1 0x0 ADD PUSH1 0x0 SWAP1 SLOAD SWAP1 PUSH2 0x100 EXP SWAP1 DIV PUSH20 0xFFFFFFFFFFFFFFFFFFFFFFFFFFFFFFFFFFFFFFFF AND CALLER PUSH1 0x40 MLOAD DUP6 PUSH4 0xFFFFFFFF AND PUSH1 0xE0 SHL DUP2 MSTORE PUSH1 0x4 ADD PUSH2 0x1EB2 SWAP5 SWAP4 SWAP3 SWAP2 SWAP1 PUSH2 0x4914 JUMP JUMPDEST PUSH1 0x0 PUSH1 0x40 MLOAD DUP1 DUP4 SUB DUP2 PUSH1 0x0 DUP8 DUP1 EXTCODESIZE ISZERO DUP1 ISZERO PUSH2 0x1ECC JUMPI PUSH1 0x0 DUP1 REVERT JUMPDEST POP GAS CALL ISZERO DUP1 ISZERO PUSH2 0x1EE0 JUMPI RETURNDATASIZE PUSH1 0x0 DUP1 RETURNDATACOPY RETURNDATASIZE PUSH1 0x0 REVERT JUMPDEST POP POP POP POP PUSH1 0x9 PUSH1 0x0 CALLER PUSH20 0xFFFFFFFFFFFFFFFFFFFFFFFFFFFFFFFFFFFFFFFF AND PUSH20 0xFFFFFFFFFFFFFFFFFFFFFFFFFFFFFFFFFFFFFFFF AND DUP2 MSTORE PUSH1 0x20 ADD SWAP1 DUP2 MSTORE PUSH1 0x20 ADD PUSH1 0x0 KECCAK256 DUP2 PUSH1 0x2 ADD SLOAD SWAP1 DUP1 PUSH1 0x1 DUP2 SLOAD ADD DUP1 DUP3 SSTORE DUP1 SWAP2 POP POP PUSH1 0x1 SWAP1 SUB SWAP1 PUSH1 0x0 MSTORE PUSH1 0x20 PUSH1 0x0 KECCAK256 ADD PUSH1 0x0 SWAP1 SWAP2 SWAP1 SWAP2 SWAP1 SWAP2 POP SSTORE PUSH32 0x535D4BF1D4FD06876E3BED38C167C7631C9C1C0F1BAB9B408655C7A724E4B2F7 DUP2 PUSH1 0x2 ADD SLOAD CALLER PUSH1 0x40 MLOAD PUSH2 0x1F83 SWAP3 SWAP2 SWAP1 PUSH2 0x4959 JUMP JUMPDEST PUSH1 0x40 MLOAD DUP1 SWAP2 SUB SWAP1 LOG1 POP POP JUMP JUMPDEST PUSH1 0x0 PUSH32 0x1FFC9A700000000000000000000000000000000000000000000000000000000 PUSH28 0xFFFFFFFFFFFFFFFFFFFFFFFFFFFFFFFFFFFFFFFFFFFFFFFFFFFFFFFF NOT AND DUP3 PUSH28 0xFFFFFFFFFFFFFFFFFFFFFFFFFFFFFFFFFFFFFFFFFFFFFFFFFFFFFFFF NOT AND EQ SWAP1 POP SWAP2 SWAP1 POP JUMP JUMPDEST PUSH1 0x60 PUSH1 0x0 PUSH1 0x5 PUSH1 0x0 DUP5 DUP2 MSTORE PUSH1 0x20 ADD SWAP1 DUP2 MSTORE PUSH1 0x20 ADD PUSH1 0x0 KECCAK256 DUP1 SLOAD PUSH2 0x201B SWAP1 PUSH2 0x4A86 JUMP JUMPDEST DUP1 PUSH1 0x1F ADD PUSH1 0x20 DUP1 SWAP2 DIV MUL PUSH1 0x20 ADD PUSH1 0x40 MLOAD SWAP1 DUP2 ADD PUSH1 0x40 MSTORE DUP1 SWAP3 SWAP2 SWAP1 DUP2 DUP2 MSTORE PUSH1 0x20 ADD DUP3 DUP1 SLOAD PUSH2 0x2047 SWAP1 PUSH2 0x4A86 JUMP JUMPDEST DUP1 ISZERO PUSH2 0x2094 JUMPI DUP1 PUSH1 0x1F LT PUSH2 0x2069 JUMPI PUSH2 0x100 DUP1 DUP4 SLOAD DIV MUL DUP4 MSTORE SWAP2 PUSH1 0x20 ADD SWAP2 PUSH2 0x2094 JUMP JUMPDEST DUP3 ADD SWAP2 SWAP1 PUSH1 0x0 MSTORE PUSH1 0x20 PUSH1 0x0 KECCAK256 SWAP1 JUMPDEST DUP2 SLOAD DUP2 MSTORE SWAP1 PUSH1 0x1 ADD SWAP1 PUSH1 0x20 ADD DUP1 DUP4 GT PUSH2 0x2077 JUMPI DUP3 SWAP1 SUB PUSH1 0x1F AND DUP3 ADD SWAP2 JUMPDEST POP POP POP POP POP SWAP1 POP PUSH1 0x0 DUP2 MLOAD GT PUSH2 0x20B2 JUMPI PUSH2 0x20AD DUP4 PUSH2 0x2B90 JUMP JUMPDEST PUSH2 0x20D6 JUMP JUMPDEST PUSH1 0x4 DUP2 PUSH1 0x40 MLOAD PUSH1 0x20 ADD PUSH2 0x20C6 SWAP3 SWAP2 SWAP1 PUSH2 0x4B8B JUMP JUMPDEST PUSH1 0x40 MLOAD PUSH1 0x20 DUP2 DUP4 SUB SUB DUP2 MSTORE SWAP1 PUSH1 0x40 MSTORE JUMPDEST SWAP2 POP POP SWAP2 SWAP1 POP JUMP JUMPDEST PUSH1 0x0 CALLER SWAP1 POP SWAP1 JUMP JUMPDEST DUP2 MLOAD DUP4 MLOAD EQ PUSH2 0x212A JUMPI PUSH1 0x40 MLOAD PUSH32 0x8C379A000000000000000000000000000000000000000000000000000000000 DUP2 MSTORE PUSH1 0x4 ADD PUSH2 0x2121 SWAP1 PUSH2 0x4C21 JUMP JUMPDEST PUSH1 0x40 MLOAD DUP1 SWAP2 SUB SWAP1 REVERT JUMPDEST PUSH1 0x0 PUSH20 0xFFFFFFFFFFFFFFFFFFFFFFFFFFFFFFFFFFFFFFFF AND DUP5 PUSH20 0xFFFFFFFFFFFFFFFFFFFFFFFFFFFFFFFFFFFFFFFF AND SUB PUSH2 0x2199 JUMPI PUSH1 0x40 MLOAD PUSH32 0x8C379A000000000000000000000000000000000000000000000000000000000 DUP2 MSTORE PUSH1 0x4 ADD PUSH2 0x2190 SWAP1 PUSH2 0x4CB3 JUMP JUMPDEST PUSH1 0x40 MLOAD DUP1 SWAP2 SUB SWAP1 REVERT JUMPDEST PUSH1 0x0 PUSH2 0x21A3 PUSH2 0x20DE JUMP JUMPDEST SWAP1 POP PUSH2 0x21B3 DUP2 DUP8 DUP8 DUP8 DUP8 DUP8 PUSH2 0x2C24 JUMP JUMPDEST PUSH1 0x0 JUMPDEST DUP5 MLOAD DUP2 LT ISZERO PUSH2 0x2367 JUMPI PUSH1 0x0 DUP6 DUP3 DUP2 MLOAD DUP2 LT PUSH2 0x21D4 JUMPI PUSH2 0x21D3 PUSH2 0x441B JUMP JUMPDEST JUMPDEST PUSH1 0x20 MUL PUSH1 0x20 ADD ADD MLOAD SWAP1 POP PUSH1 0x0 DUP6 DUP4 DUP2 MLOAD DUP2 LT PUSH2 0x21F3 JUMPI PUSH2 0x21F2 PUSH2 0x441B JUMP JUMPDEST JUMPDEST PUSH1 0x20 MUL PUSH1 0x20 ADD ADD MLOAD SWAP1 POP PUSH1 0x0 PUSH1 0x1 PUSH1 0x0 DUP5 DUP2 MSTORE PUSH1 0x20 ADD SWAP1 DUP2 MSTORE PUSH1 0x20 ADD PUSH1 0x0 KECCAK256 PUSH1 0x0 DUP12 PUSH20 0xFFFFFFFFFFFFFFFFFFFFFFFFFFFFFFFFFFFFFFFF AND PUSH20 0xFFFFFFFFFFFFFFFFFFFFFFFFFFFFFFFFFFFFFFFF AND DUP2 MSTORE PUSH1 0x20 ADD SWAP1 DUP2 MSTORE PUSH1 0x20 ADD PUSH1 0x0 KECCAK256 SLOAD SWAP1 POP DUP2 DUP2 LT ISZERO PUSH2 0x2295 JUMPI PUSH1 0x40 MLOAD PUSH32 0x8C379A000000000000000000000000000000000000000000000000000000000 DUP2 MSTORE PUSH1 0x4 ADD PUSH2 0x228C SWAP1 PUSH2 0x4D45 JUMP JUMPDEST PUSH1 0x40 MLOAD DUP1 SWAP2 SUB SWAP1 REVERT JUMPDEST DUP2 DUP2 SUB PUSH1 0x1 PUSH1 0x0 DUP6 DUP2 MSTORE PUSH1 0x20 ADD SWAP1 DUP2 MSTORE PUSH1 0x20 ADD PUSH1 0x0 KECCAK256 PUSH1 0x0 DUP13 PUSH20 0xFFFFFFFFFFFFFFFFFFFFFFFFFFFFFFFFFFFFFFFF AND PUSH20 0xFFFFFFFFFFFFFFFFFFFFFFFFFFFFFFFFFFFFFFFF AND DUP2 MSTORE PUSH1 0x20 ADD SWAP1 DUP2 MSTORE PUSH1 0x20 ADD PUSH1 0x0 KECCAK256 DUP2 SWAP1 SSTORE POP DUP2 PUSH1 0x1 PUSH1 0x0 DUP6 DUP2 MSTORE PUSH1 0x20 ADD SWAP1 DUP2 MSTORE PUSH1 0x20 ADD PUSH1 0x0 KECCAK256 PUSH1 0x0 DUP12 PUSH20 0xFFFFFFFFFFFFFFFFFFFFFFFFFFFFFFFFFFFFFFFF AND PUSH20 0xFFFFFFFFFFFFFFFFFFFFFFFFFFFFFFFFFFFFFFFF AND DUP2 MSTORE PUSH1 0x20 ADD SWAP1 DUP2 MSTORE PUSH1 0x20 ADD PUSH1 0x0 KECCAK256 PUSH1 0x0 DUP3 DUP3 SLOAD PUSH2 0x234C SWAP2 SWAP1 PUSH2 0x430F JUMP JUMPDEST SWAP3 POP POP DUP2 SWAP1 SSTORE POP POP POP POP DUP1 PUSH2 0x2360 SWAP1 PUSH2 0x44DC JUMP JUMPDEST SWAP1 POP PUSH2 0x21B6 JUMP JUMPDEST POP DUP5 PUSH20 0xFFFFFFFFFFFFFFFFFFFFFFFFFFFFFFFFFFFFFFFF AND DUP7 PUSH20 0xFFFFFFFFFFFFFFFFFFFFFFFFFFFFFFFFFFFFFFFF AND DUP3 PUSH20 0xFFFFFFFFFFFFFFFFFFFFFFFFFFFFFFFFFFFFFFFF AND PUSH32 0x4A39DC06D4C0DBC64B70AF90FD698A233A518AA5D07E595D983B8C0526C8F7FB DUP8 DUP8 PUSH1 0x40 MLOAD PUSH2 0x23DE SWAP3 SWAP2 SWAP1 PUSH2 0x4D65 JUMP JUMPDEST PUSH1 0x40 MLOAD DUP1 SWAP2 SUB SWAP1 LOG4 PUSH2 0x23F4 DUP2 DUP8 DUP8 DUP8 DUP8 DUP8 PUSH2 0x2C3A JUMP JUMPDEST PUSH2 0x2402 DUP2 DUP8 DUP8 DUP8 DUP8 DUP8 PUSH2 0x2C42 JUMP JUMPDEST POP POP POP POP POP POP JUMP JUMPDEST PUSH1 0x1 DUP2 PUSH1 0x0 ADD PUSH1 0x0 DUP3 DUP3 SLOAD ADD SWAP3 POP POP DUP2 SWAP1 SSTORE POP POP JUMP JUMPDEST PUSH1 0x0 DUP2 PUSH1 0x0 ADD SLOAD SWAP1 POP SWAP2 SWAP1 POP JUMP JUMPDEST PUSH1 0x0 PUSH20 0xFFFFFFFFFFFFFFFFFFFFFFFFFFFFFFFFFFFFFFFF AND DUP5 PUSH20 0xFFFFFFFFFFFFFFFFFFFFFFFFFFFFFFFFFFFFFFFF AND SUB PUSH2 0x249D JUMPI PUSH1 0x40 MLOAD PUSH32 0x8C379A000000000000000000000000000000000000000000000000000000000 DUP2 MSTORE PUSH1 0x4 ADD PUSH2 0x2494 SWAP1 PUSH2 0x4E0E JUMP JUMPDEST PUSH1 0x40 MLOAD DUP1 SWAP2 SUB SWAP1 REVERT JUMPDEST PUSH1 0x0 PUSH2 0x24A7 PUSH2 0x20DE JUMP JUMPDEST SWAP1 POP PUSH1 0x0 PUSH2 0x24B4 DUP6 PUSH2 0x2E19 JUMP JUMPDEST SWAP1 POP PUSH1 0x0 PUSH2 0x24C1 DUP6 PUSH2 0x2E19 JUMP JUMPDEST SWAP1 POP PUSH2 0x24D2 DUP4 PUSH1 0x0 DUP10 DUP6 DUP6 DUP10 PUSH2 0x2C24 JUMP JUMPDEST DUP5 PUSH1 0x1 PUSH1 0x0 DUP9 DUP2 MSTORE PUSH1 0x20 ADD SWAP1 DUP2 MSTORE PUSH1 0x20 ADD PUSH1 0x0 KECCAK256 PUSH1 0x0 DUP10 PUSH20 0xFFFFFFFFFFFFFFFFFFFFFFFFFFFFFFFFFFFFFFFF AND PUSH20 0xFFFFFFFFFFFFFFFFFFFFFFFFFFFFFFFFFFFFFFFF AND DUP2 MSTORE PUSH1 0x20 ADD SWAP1 DUP2 MSTORE PUSH1 0x20 ADD PUSH1 0x0 KECCAK256 PUSH1 0x0 DUP3 DUP3 SLOAD PUSH2 0x2532 SWAP2 SWAP1 PUSH2 0x430F JUMP JUMPDEST SWAP3 POP POP DUP2 SWAP1 SSTORE POP DUP7 PUSH20 0xFFFFFFFFFFFFFFFFFFFFFFFFFFFFFFFFFFFFFFFF AND PUSH1 0x0 PUSH20 0xFFFFFFFFFFFFFFFFFFFFFFFFFFFFFFFFFFFFFFFF AND DUP5 PUSH20 0xFFFFFFFFFFFFFFFFFFFFFFFFFFFFFFFFFFFFFFFF AND PUSH32 0xC3D58168C5AE7397731D063D5BBF3D657854427343F4C083240F7AACAA2D0F62 DUP10 DUP10 PUSH1 0x40 MLOAD PUSH2 0x25B0 SWAP3 SWAP2 SWAP1 PUSH2 0x4E2E JUMP JUMPDEST PUSH1 0x40 MLOAD DUP1 SWAP2 SUB SWAP1 LOG4 PUSH2 0x25C7 DUP4 PUSH1 0x0 DUP10 DUP6 DUP6 DUP10 PUSH2 0x2C3A JUMP JUMPDEST PUSH2 0x25D6 DUP4 PUSH1 0x0 DUP10 DUP10 DUP10 DUP10 PUSH2 0x2E93 JUMP JUMPDEST POP POP POP POP POP POP POP JUMP JUMPDEST DUP1 PUSH1 0x5 PUSH1 0x0 DUP5 DUP2 MSTORE PUSH1 0x20 ADD SWAP1 DUP2 MSTORE PUSH1 0x20 ADD PUSH1 0x0 KECCAK256 SWAP1 DUP2 PUSH2 0x25FF SWAP2 SWAP1 PUSH2 0x4FEE JUMP JUMPDEST POP DUP2 PUSH32 0x6BB7FF708619BA0610CBA295A58592E0451DEE2622938C8755667688DAF3529B PUSH2 0x262B DUP5 PUSH2 0x761 JUMP JUMPDEST PUSH1 0x40 MLOAD PUSH2 0x2638 SWAP2 SWAP1 PUSH2 0x365F JUMP JUMPDEST PUSH1 0x40 MLOAD DUP1 SWAP2 SUB SWAP1 LOG2 POP POP JUMP JUMPDEST PUSH2 0x264C PUSH2 0x20DE JUMP JUMPDEST PUSH20 0xFFFFFFFFFFFFFFFFFFFFFFFFFFFFFFFFFFFFFFFF AND PUSH2 0x266A PUSH2 0x1678 JUMP JUMPDEST PUSH20 0xFFFFFFFFFFFFFFFFFFFFFFFFFFFFFFFFFFFFFFFF AND EQ PUSH2 0x26C0 JUMPI PUSH1 0x40 MLOAD PUSH32 0x8C379A000000000000000000000000000000000000000000000000000000000 DUP2 MSTORE PUSH1 0x4 ADD PUSH2 0x26B7 SWAP1 PUSH2 0x510C JUMP JUMPDEST PUSH1 0x40 MLOAD DUP1 SWAP2 SUB SWAP1 REVERT JUMPDEST JUMP JUMPDEST PUSH1 0x0 DUP1 PUSH1 0x0 SWAP1 SLOAD SWAP1 PUSH2 0x100 EXP SWAP1 DIV PUSH20 0xFFFFFFFFFFFFFFFFFFFFFFFFFFFFFFFFFFFFFFFF AND SWAP1 POP DUP2 PUSH1 0x0 DUP1 PUSH2 0x100 EXP DUP2 SLOAD DUP2 PUSH20 0xFFFFFFFFFFFFFFFFFFFFFFFFFFFFFFFFFFFFFFFF MUL NOT AND SWAP1 DUP4 PUSH20 0xFFFFFFFFFFFFFFFFFFFFFFFFFFFFFFFFFFFFFFFF AND MUL OR SWAP1 SSTORE POP DUP2 PUSH20 0xFFFFFFFFFFFFFFFFFFFFFFFFFFFFFFFFFFFFFFFF AND DUP2 PUSH20 0xFFFFFFFFFFFFFFFFFFFFFFFFFFFFFFFFFFFFFFFF AND PUSH32 0x8BE0079C531659141344CD1FD0A4F28419497F9722A3DAAFE3B4186F6B6457E0 PUSH1 0x40 MLOAD PUSH1 0x40 MLOAD DUP1 SWAP2 SUB SWAP1 LOG3 POP POP JUMP JUMPDEST DUP2 PUSH20 0xFFFFFFFFFFFFFFFFFFFFFFFFFFFFFFFFFFFFFFFF AND DUP4 PUSH20 0xFFFFFFFFFFFFFFFFFFFFFFFFFFFFFFFFFFFFFFFF AND SUB PUSH2 0x27F4 JUMPI PUSH1 0x40 MLOAD PUSH32 0x8C379A000000000000000000000000000000000000000000000000000000000 DUP2 MSTORE PUSH1 0x4 ADD PUSH2 0x27EB SWAP1 PUSH2 0x519E JUMP JUMPDEST PUSH1 0x40 MLOAD DUP1 SWAP2 SUB SWAP1 REVERT JUMPDEST DUP1 PUSH1 0x2 PUSH1 0x0 DUP6 PUSH20 0xFFFFFFFFFFFFFFFFFFFFFFFFFFFFFFFFFFFFFFFF AND PUSH20 0xFFFFFFFFFFFFFFFFFFFFFFFFFFFFFFFFFFFFFFFF AND DUP2 MSTORE PUSH1 0x20 ADD SWAP1 DUP2 MSTORE PUSH1 0x20 ADD PUSH1 0x0 KECCAK256 PUSH1 0x0 DUP5 PUSH20 0xFFFFFFFFFFFFFFFFFFFFFFFFFFFFFFFFFFFFFFFF AND PUSH20 0xFFFFFFFFFFFFFFFFFFFFFFFFFFFFFFFFFFFFFFFF AND DUP2 MSTORE PUSH1 0x20 ADD SWAP1 DUP2 MSTORE PUSH1 0x20 ADD PUSH1 0x0 KECCAK256 PUSH1 0x0 PUSH2 0x100 EXP DUP2 SLOAD DUP2 PUSH1 0xFF MUL NOT AND SWAP1 DUP4 ISZERO ISZERO MUL OR SWAP1 SSTORE POP DUP2 PUSH20 0xFFFFFFFFFFFFFFFFFFFFFFFFFFFFFFFFFFFFFFFF AND DUP4 PUSH20 0xFFFFFFFFFFFFFFFFFFFFFFFFFFFFFFFFFFFFFFFF AND PUSH32 0x17307EAB39AB6107E8899845AD3D59BD9653F200F220920489CA2B5937696C31 DUP4 PUSH1 0x40 MLOAD PUSH2 0x28E5 SWAP2 SWAP1 PUSH2 0x3587 JUMP JUMPDEST PUSH1 0x40 MLOAD DUP1 SWAP2 SUB SWAP1 LOG3 POP POP POP JUMP JUMPDEST PUSH1 0x0 PUSH20 0xFFFFFFFFFFFFFFFFFFFFFFFFFFFFFFFFFFFFFFFF AND DUP5 PUSH20 0xFFFFFFFFFFFFFFFFFFFFFFFFFFFFFFFFFFFFFFFF AND SUB PUSH2 0x2961 JUMPI PUSH1 0x40 MLOAD PUSH32 0x8C379A000000000000000000000000000000000000000000000000000000000 DUP2 MSTORE PUSH1 0x4 ADD PUSH2 0x2958 SWAP1 PUSH2 0x4CB3 JUMP JUMPDEST PUSH1 0x40 MLOAD DUP1 SWAP2 SUB SWAP1 REVERT JUMPDEST PUSH1 0x0 PUSH2 0x296B PUSH2 0x20DE JUMP JUMPDEST SWAP1 POP PUSH1 0x0 PUSH2 0x2978 DUP6 PUSH2 0x2E19 JUMP JUMPDEST SWAP1 POP PUSH1 0x0 PUSH2 0x2985 DUP6 PUSH2 0x2E19 JUMP JUMPDEST SWAP1 POP PUSH2 0x2995 DUP4 DUP10 DUP10 DUP6 DUP6 DUP10 PUSH2 0x2C24 JUMP JUMPDEST PUSH1 0x0 PUSH1 0x1 PUSH1 0x0 DUP9 DUP2 MSTORE PUSH1 0x20 ADD SWAP1 DUP2 MSTORE PUSH1 0x20 ADD PUSH1 0x0 KECCAK256 PUSH1 0x0 DUP11 PUSH20 0xFFFFFFFFFFFFFFFFFFFFFFFFFFFFFFFFFFFFFFFF AND PUSH20 0xFFFFFFFFFFFFFFFFFFFFFFFFFFFFFFFFFFFFFFFF AND DUP2 MSTORE PUSH1 0x20 ADD SWAP1 DUP2 MSTORE PUSH1 0x20 ADD PUSH1 0x0 KECCAK256 SLOAD SWAP1 POP DUP6 DUP2 LT ISZERO PUSH2 0x2A2D JUMPI PUSH1 0x40 MLOAD PUSH32 0x8C379A000000000000000000000000000000000000000000000000000000000 DUP2 MSTORE PUSH1 0x4 ADD PUSH2 0x2A24 SWAP1 PUSH2 0x4D45 JUMP JUMPDEST PUSH1 0x40 MLOAD DUP1 SWAP2 SUB SWAP1 REVERT JUMPDEST DUP6 DUP2 SUB PUSH1 0x1 PUSH1 0x0 DUP10 DUP2 MSTORE PUSH1 0x20 ADD SWAP1 DUP2 MSTORE PUSH1 0x20 ADD PUSH1 0x0 KECCAK256 PUSH1 0x0 DUP12 PUSH20 0xFFFFFFFFFFFFFFFFFFFFFFFFFFFFFFFFFFFFFFFF AND PUSH20 0xFFFFFFFFFFFFFFFFFFFFFFFFFFFFFFFFFFFFFFFF AND DUP2 MSTORE PUSH1 0x20 ADD SWAP1 DUP2 MSTORE PUSH1 0x20 ADD PUSH1 0x0 KECCAK256 DUP2 SWAP1 SSTORE POP DUP6 PUSH1 0x1 PUSH1 0x0 DUP10 DUP2 MSTORE PUSH1 0x20 ADD SWAP1 DUP2 MSTORE PUSH1 0x20 ADD PUSH1 0x0 KECCAK256 PUSH1 0x0 DUP11 PUSH20 0xFFFFFFFFFFFFFFFFFFFFFFFFFFFFFFFFFFFFFFFF AND PUSH20 0xFFFFFFFFFFFFFFFFFFFFFFFFFFFFFFFFFFFFFFFF AND DUP2 MSTORE PUSH1 0x20 ADD SWAP1 DUP2 MSTORE PUSH1 0x20 ADD PUSH1 0x0 KECCAK256 PUSH1 0x0 DUP3 DUP3 SLOAD PUSH2 0x2AE4 SWAP2 SWAP1 PUSH2 0x430F JUMP JUMPDEST SWAP3 POP POP DUP2 SWAP1 SSTORE POP DUP8 PUSH20 0xFFFFFFFFFFFFFFFFFFFFFFFFFFFFFFFFFFFFFFFF AND DUP10 PUSH20 0xFFFFFFFFFFFFFFFFFFFFFFFFFFFFFFFFFFFFFFFF AND DUP6 PUSH20 0xFFFFFFFFFFFFFFFFFFFFFFFFFFFFFFFFFFFFFFFF AND PUSH32 0xC3D58168C5AE7397731D063D5BBF3D657854427343F4C083240F7AACAA2D0F62 DUP11 DUP11 PUSH1 0x40 MLOAD PUSH2 0x2B61 SWAP3 SWAP2 SWAP1 PUSH2 0x4E2E JUMP JUMPDEST PUSH1 0x40 MLOAD DUP1 SWAP2 SUB SWAP1 LOG4 PUSH2 0x2B77 DUP5 DUP11 DUP11 DUP7 DUP7 DUP11 PUSH2 0x2C3A JUMP JUMPDEST PUSH2 0x2B85 DUP5 DUP11 DUP11 DUP11 DUP11 DUP11 PUSH2 0x2E93 JUMP JUMPDEST POP POP POP POP POP POP POP POP POP JUMP JUMPDEST PUSH1 0x60 PUSH1 0x3 DUP1 SLOAD PUSH2 0x2B9F SWAP1 PUSH2 0x4A86 JUMP JUMPDEST DUP1 PUSH1 0x1F ADD PUSH1 0x20 DUP1 SWAP2 DIV MUL PUSH1 0x20 ADD PUSH1 0x40 MLOAD SWAP1 DUP2 ADD PUSH1 0x40 MSTORE DUP1 SWAP3 SWAP2 SWAP1 DUP2 DUP2 MSTORE PUSH1 0x20 ADD DUP3 DUP1 SLOAD PUSH2 0x2BCB SWAP1 PUSH2 0x4A86 JUMP JUMPDEST DUP1 ISZERO PUSH2 0x2C18 JUMPI DUP1 PUSH1 0x1F LT PUSH2 0x2BED JUMPI PUSH2 0x100 DUP1 DUP4 SLOAD DIV MUL DUP4 MSTORE SWAP2 PUSH1 0x20 ADD SWAP2 PUSH2 0x2C18 JUMP JUMPDEST DUP3 ADD SWAP2 SWAP1 PUSH1 0x0 MSTORE PUSH1 0x20 PUSH1 0x0 KECCAK256 SWAP1 JUMPDEST DUP2 SLOAD DUP2 MSTORE SWAP1 PUSH1 0x1 ADD SWAP1 PUSH1 0x20 ADD DUP1 DUP4 GT PUSH2 0x2BFB JUMPI DUP3 SWAP1 SUB PUSH1 0x1F AND DUP3 ADD SWAP2 JUMPDEST POP POP POP POP POP SWAP1 POP SWAP2 SWAP1 POP JUMP JUMPDEST PUSH2 0x2C32 DUP7 DUP7 DUP7 DUP7 DUP7 DUP7 PUSH2 0x306A JUMP JUMPDEST POP POP POP POP POP POP JUMP JUMPDEST POP POP POP POP POP POP JUMP JUMPDEST PUSH2 0x2C61 DUP5 PUSH20 0xFFFFFFFFFFFFFFFFFFFFFFFFFFFFFFFFFFFFFFFF AND PUSH2 0x323A JUMP JUMPDEST ISZERO PUSH2 0x2E11 JUMPI DUP4 PUSH20 0xFFFFFFFFFFFFFFFFFFFFFFFFFFFFFFFFFFFFFFFF AND PUSH4 0xBC197C81 DUP8 DUP8 DUP7 DUP7 DUP7 PUSH1 0x40 MLOAD DUP7 PUSH4 0xFFFFFFFF AND PUSH1 0xE0 SHL DUP2 MSTORE PUSH1 0x4 ADD PUSH2 0x2CA7 SWAP6 SWAP5 SWAP4 SWAP3 SWAP2 SWAP1 PUSH2 0x5213 JUMP JUMPDEST PUSH1 0x20 PUSH1 0x40 MLOAD DUP1 DUP4 SUB DUP2 PUSH1 0x0 DUP8 GAS CALL SWAP3 POP POP POP DUP1 ISZERO PUSH2 0x2CE3 JUMPI POP PUSH1 0x40 MLOAD RETURNDATASIZE PUSH1 0x1F NOT PUSH1 0x1F DUP3 ADD AND DUP3 ADD DUP1 PUSH1 0x40 MSTORE POP DUP2 ADD SWAP1 PUSH2 0x2CE0 SWAP2 SWAP1 PUSH2 0x5290 JUMP JUMPDEST PUSH1 0x1 JUMPDEST PUSH2 0x2D88 JUMPI PUSH2 0x2CEF PUSH2 0x52CA JUMP JUMPDEST DUP1 PUSH4 0x8C379A0 SUB PUSH2 0x2D4B JUMPI POP PUSH2 0x2D03 PUSH2 0x52EC JUMP JUMPDEST DUP1 PUSH2 0x2D0E JUMPI POP PUSH2 0x2D4D JUMP JUMPDEST DUP1 PUSH1 0x40 MLOAD PUSH32 0x8C379A000000000000000000000000000000000000000000000000000000000 DUP2 MSTORE PUSH1 0x4 ADD PUSH2 0x2D42 SWAP2 SWAP1 PUSH2 0x365F JUMP JUMPDEST PUSH1 0x40 MLOAD DUP1 SWAP2 SUB SWAP1 REVERT JUMPDEST POP JUMPDEST PUSH1 0x40 MLOAD PUSH32 0x8C379A000000000000000000000000000000000000000000000000000000000 DUP2 MSTORE PUSH1 0x4 ADD PUSH2 0x2D7F SWAP1 PUSH2 0x53EE JUMP JUMPDEST PUSH1 0x40 MLOAD DUP1 SWAP2 SUB SWAP1 REVERT JUMPDEST PUSH4 0xBC197C81 PUSH1 0xE0 SHL PUSH28 0xFFFFFFFFFFFFFFFFFFFFFFFFFFFFFFFFFFFFFFFFFFFFFFFFFFFFFFFF NOT AND DUP2 PUSH28 0xFFFFFFFFFFFFFFFFFFFFFFFFFFFFFFFFFFFFFFFFFFFFFFFFFFFFFFFF NOT AND EQ PUSH2 0x2E0F JUMPI PUSH1 0x40 MLOAD PUSH32 0x8C379A000000000000000000000000000000000000000000000000000000000 DUP2 MSTORE PUSH1 0x4 ADD PUSH2 0x2E06 SWAP1 PUSH2 0x5480 JUMP JUMPDEST PUSH1 0x40 MLOAD DUP1 SWAP2 SUB SWAP1 REVERT JUMPDEST POP JUMPDEST POP POP POP POP POP POP JUMP JUMPDEST PUSH1 0x60 PUSH1 0x0 PUSH1 0x1 PUSH8 0xFFFFFFFFFFFFFFFF DUP2 GT ISZERO PUSH2 0x2E38 JUMPI PUSH2 0x2E37 PUSH2 0x3686 JUMP JUMPDEST JUMPDEST PUSH1 0x40 MLOAD SWAP1 DUP1 DUP3 MSTORE DUP1 PUSH1 0x20 MUL PUSH1 0x20 ADD DUP3 ADD PUSH1 0x40 MSTORE DUP1 ISZERO PUSH2 0x2E66 JUMPI DUP2 PUSH1 0x20 ADD PUSH1 0x20 DUP3 MUL DUP1 CALLDATASIZE DUP4 CALLDATACOPY DUP1 DUP3 ADD SWAP2 POP POP SWAP1 POP JUMPDEST POP SWAP1 POP DUP3 DUP2 PUSH1 0x0 DUP2 MLOAD DUP2 LT PUSH2 0x2E7E JUMPI PUSH2 0x2E7D PUSH2 0x441B JUMP JUMPDEST JUMPDEST PUSH1 0x20 MUL PUSH1 0x20 ADD ADD DUP2 DUP2 MSTORE POP POP DUP1 SWAP2 POP POP SWAP2 SWAP1 POP JUMP JUMPDEST PUSH2 0x2EB2 DUP5 PUSH20 0xFFFFFFFFFFFFFFFFFFFFFFFFFFFFFFFFFFFFFFFF AND PUSH2 0x323A JUMP JUMPDEST ISZERO PUSH2 0x3062 JUMPI DUP4 PUSH20 0xFFFFFFFFFFFFFFFFFFFFFFFFFFFFFFFFFFFFFFFF AND PUSH4 0xF23A6E61 DUP8 DUP8 DUP7 DUP7 DUP7 PUSH1 0x40 MLOAD DUP7 PUSH4 0xFFFFFFFF AND PUSH1 0xE0 SHL DUP2 MSTORE PUSH1 0x4 ADD PUSH2 0x2EF8 SWAP6 SWAP5 SWAP4 SWAP3 SWAP2 SWAP1 PUSH2 0x54A0 JUMP JUMPDEST PUSH1 0x20 PUSH1 0x40 MLOAD DUP1 DUP4 SUB DUP2 PUSH1 0x0 DUP8 GAS CALL SWAP3 POP POP POP DUP1 ISZERO PUSH2 0x2F34 JUMPI POP PUSH1 0x40 MLOAD RETURNDATASIZE PUSH1 0x1F NOT PUSH1 0x1F DUP3 ADD AND DUP3 ADD DUP1 PUSH1 0x40 MSTORE POP DUP2 ADD SWAP1 PUSH2 0x2F31 SWAP2 SWAP1 PUSH2 0x5290 JUMP JUMPDEST PUSH1 0x1 JUMPDEST PUSH2 0x2FD9 JUMPI PUSH2 0x2F40 PUSH2 0x52CA JUMP JUMPDEST DUP1 PUSH4 0x8C379A0 SUB PUSH2 0x2F9C JUMPI POP PUSH2 0x2F54 PUSH2 0x52EC JUMP JUMPDEST DUP1 PUSH2 0x2F5F JUMPI POP PUSH2 0x2F9E JUMP JUMPDEST DUP1 PUSH1 0x40 MLOAD PUSH32 0x8C379A000000000000000000000000000000000000000000000000000000000 DUP2 MSTORE PUSH1 0x4 ADD PUSH2 0x2F93 SWAP2 SWAP1 PUSH2 0x365F JUMP JUMPDEST PUSH1 0x40 MLOAD DUP1 SWAP2 SUB SWAP1 REVERT JUMPDEST POP JUMPDEST PUSH1 0x40 MLOAD PUSH32 0x8C379A000000000000000000000000000000000000000000000000000000000 DUP2 MSTORE PUSH1 0x4 ADD PUSH2 0x2FD0 SWAP1 PUSH2 0x53EE JUMP JUMPDEST PUSH1 0x40 MLOAD DUP1 SWAP2 SUB SWAP1 REVERT JUMPDEST PUSH4 0xF23A6E61 PUSH1 0xE0 SHL PUSH28 0xFFFFFFFFFFFFFFFFFFFFFFFFFFFFFFFFFFFFFFFFFFFFFFFFFFFFFFFF NOT AND DUP2 PUSH28 0xFFFFFFFFFFFFFFFFFFFFFFFFFFFFFFFFFFFFFFFFFFFFFFFFFFFFFFFF NOT AND EQ PUSH2 0x3060 JUMPI PUSH1 0x40 MLOAD PUSH32 0x8C379A000000000000000000000000000000000000000000000000000000000 DUP2 MSTORE PUSH1 0x4 ADD PUSH2 0x3057 SWAP1 PUSH2 0x5480 JUMP JUMPDEST PUSH1 0x40 MLOAD DUP1 SWAP2 SUB SWAP1 REVERT JUMPDEST POP JUMPDEST POP POP POP POP POP POP JUMP JUMPDEST PUSH2 0x3078 DUP7 DUP7 DUP7 DUP7 DUP7 DUP7 PUSH2 0x325D JUMP JUMPDEST PUSH1 0x0 PUSH20 0xFFFFFFFFFFFFFFFFFFFFFFFFFFFFFFFFFFFFFFFF AND DUP6 PUSH20 0xFFFFFFFFFFFFFFFFFFFFFFFFFFFFFFFFFFFFFFFF AND SUB PUSH2 0x3129 JUMPI PUSH1 0x0 JUMPDEST DUP4 MLOAD DUP2 LT ISZERO PUSH2 0x3127 JUMPI DUP3 DUP2 DUP2 MLOAD DUP2 LT PUSH2 0x30CB JUMPI PUSH2 0x30CA PUSH2 0x441B JUMP JUMPDEST JUMPDEST PUSH1 0x20 MUL PUSH1 0x20 ADD ADD MLOAD PUSH1 0x6 PUSH1 0x0 DUP7 DUP5 DUP2 MLOAD DUP2 LT PUSH2 0x30EA JUMPI PUSH2 0x30E9 PUSH2 0x441B JUMP JUMPDEST JUMPDEST PUSH1 0x20 MUL PUSH1 0x20 ADD ADD MLOAD DUP2 MSTORE PUSH1 0x20 ADD SWAP1 DUP2 MSTORE PUSH1 0x20 ADD PUSH1 0x0 KECCAK256 PUSH1 0x0 DUP3 DUP3 SLOAD PUSH2 0x310F SWAP2 SWAP1 PUSH2 0x430F JUMP JUMPDEST SWAP3 POP POP DUP2 SWAP1 SSTORE POP DUP1 PUSH2 0x3120 SWAP1 PUSH2 0x44DC JUMP JUMPDEST SWAP1 POP PUSH2 0x30AF JUMP JUMPDEST POP JUMPDEST PUSH1 0x0 PUSH20 0xFFFFFFFFFFFFFFFFFFFFFFFFFFFFFFFFFFFFFFFF AND DUP5 PUSH20 0xFFFFFFFFFFFFFFFFFFFFFFFFFFFFFFFFFFFFFFFF AND SUB PUSH2 0x3232 JUMPI PUSH1 0x0 JUMPDEST DUP4 MLOAD DUP2 LT ISZERO PUSH2 0x3230 JUMPI PUSH1 0x0 DUP5 DUP3 DUP2 MLOAD DUP2 LT PUSH2 0x317E JUMPI PUSH2 0x317D PUSH2 0x441B JUMP JUMPDEST JUMPDEST PUSH1 0x20 MUL PUSH1 0x20 ADD ADD MLOAD SWAP1 POP PUSH1 0x0 DUP5 DUP4 DUP2 MLOAD DUP2 LT PUSH2 0x319D JUMPI PUSH2 0x319C PUSH2 0x441B JUMP JUMPDEST JUMPDEST PUSH1 0x20 MUL PUSH1 0x20 ADD ADD MLOAD SWAP1 POP PUSH1 0x0 PUSH1 0x6 PUSH1 0x0 DUP5 DUP2 MSTORE PUSH1 0x20 ADD SWAP1 DUP2 MSTORE PUSH1 0x20 ADD PUSH1 0x0 KECCAK256 SLOAD SWAP1 POP DUP2 DUP2 LT ISZERO PUSH2 0x3202 JUMPI PUSH1 0x40 MLOAD PUSH32 0x8C379A000000000000000000000000000000000000000000000000000000000 DUP2 MSTORE PUSH1 0x4 ADD PUSH2 0x31F9 SWAP1 PUSH2 0x556C JUMP JUMPDEST PUSH1 0x40 MLOAD DUP1 SWAP2 SUB SWAP1 REVERT JUMPDEST DUP2 DUP2 SUB PUSH1 0x6 PUSH1 0x0 DUP6 DUP2 MSTORE PUSH1 0x20 ADD SWAP1 DUP2 MSTORE PUSH1 0x20 ADD PUSH1 0x0 KECCAK256 DUP2 SWAP1 SSTORE POP POP POP POP DUP1 PUSH2 0x3229 SWAP1 PUSH2 0x44DC JUMP JUMPDEST SWAP1 POP PUSH2 0x3160 JUMP JUMPDEST POP JUMPDEST POP POP POP POP POP POP JUMP JUMPDEST PUSH1 0x0 DUP1 DUP3 PUSH20 0xFFFFFFFFFFFFFFFFFFFFFFFFFFFFFFFFFFFFFFFF AND EXTCODESIZE GT SWAP1 POP SWAP2 SWAP1 POP JUMP JUMPDEST POP POP POP POP POP POP JUMP JUMPDEST PUSH1 0x40 MLOAD DUP1 PUSH2 0x180 ADD PUSH1 0x40 MSTORE DUP1 PUSH1 0x0 PUSH20 0xFFFFFFFFFFFFFFFFFFFFFFFFFFFFFFFFFFFFFFFF AND DUP2 MSTORE PUSH1 0x20 ADD PUSH1 0x0 DUP2 MSTORE PUSH1 0x20 ADD PUSH1 0x0 DUP2 MSTORE PUSH1 0x20 ADD PUSH1 0x0 DUP2 MSTORE PUSH1 0x20 ADD PUSH1 0x0 DUP2 MSTORE PUSH1 0x20 ADD PUSH1 0x0 DUP2 MSTORE PUSH1 0x20 ADD PUSH1 0x0 DUP2 MSTORE PUSH1 0x20 ADD PUSH1 0x0 DUP2 MSTORE PUSH1 0x20 ADD PUSH1 0x0 DUP2 MSTORE PUSH1 0x20 ADD PUSH1 0x0 DUP2 MSTORE PUSH1 0x20 ADD PUSH1 0x0 DUP2 MSTORE PUSH1 0x20 ADD PUSH1 0x60 DUP2 MSTORE POP SWAP1 JUMP JUMPDEST DUP3 DUP1 SLOAD DUP3 DUP3 SSTORE SWAP1 PUSH1 0x0 MSTORE PUSH1 0x20 PUSH1 0x0 KECCAK256 SWAP1 DUP2 ADD SWAP3 DUP3 ISZERO PUSH2 0x331D JUMPI PUSH1 0x0 MSTORE PUSH1 0x20 PUSH1 0x0 KECCAK256 SWAP2 DUP3 ADD JUMPDEST DUP3 DUP2 GT ISZERO PUSH2 0x331C JUMPI DUP3 SLOAD DUP3 SSTORE SWAP2 PUSH1 0x1 ADD SWAP2 SWAP1 PUSH1 0x1 ADD SWAP1 PUSH2 0x3301 JUMP JUMPDEST JUMPDEST POP SWAP1 POP PUSH2 0x332A SWAP2 SWAP1 PUSH2 0x33B8 JUMP JUMPDEST POP SWAP1 JUMP JUMPDEST DUP3 DUP1 SLOAD DUP3 DUP3 SSTORE SWAP1 PUSH1 0x0 MSTORE PUSH1 0x20 PUSH1 0x0 KECCAK256 SWAP1 DUP2 ADD SWAP3 DUP3 ISZERO PUSH2 0x33A7 JUMPI SWAP2 PUSH1 0x20 MUL DUP3 ADD JUMPDEST DUP3 DUP2 GT ISZERO PUSH2 0x33A6 JUMPI DUP3 MLOAD DUP3 PUSH1 0x0 PUSH2 0x100 EXP DUP2 SLOAD DUP2 PUSH20 0xFFFFFFFFFFFFFFFFFFFFFFFFFFFFFFFFFFFFFFFF MUL NOT AND SWAP1 DUP4 PUSH20 0xFFFFFFFFFFFFFFFFFFFFFFFFFFFFFFFFFFFFFFFF AND MUL OR SWAP1 SSTORE POP SWAP2 PUSH1 0x20 ADD SWAP2 SWAP1 PUSH1 0x1 ADD SWAP1 PUSH2 0x334E JUMP JUMPDEST JUMPDEST POP SWAP1 POP PUSH2 0x33B4 SWAP2 SWAP1 PUSH2 0x33B8 JUMP JUMPDEST POP SWAP1 JUMP JUMPDEST JUMPDEST DUP1 DUP3 GT ISZERO PUSH2 0x33D1 JUMPI PUSH1 0x0 DUP2 PUSH1 0x0 SWAP1 SSTORE POP PUSH1 0x1 ADD PUSH2 0x33B9 JUMP JUMPDEST POP SWAP1 JUMP JUMPDEST PUSH1 0x0 PUSH1 0x40 MLOAD SWAP1 POP SWAP1 JUMP JUMPDEST PUSH1 0x0 DUP1 REVERT JUMPDEST PUSH1 0x0 DUP1 REVERT JUMPDEST PUSH1 0x0 PUSH20 0xFFFFFFFFFFFFFFFFFFFFFFFFFFFFFFFFFFFFFFFF DUP3 AND SWAP1 POP SWAP2 SWAP1 POP JUMP JUMPDEST PUSH1 0x0 PUSH2 0x3414 DUP3 PUSH2 0x33E9 JUMP JUMPDEST SWAP1 POP SWAP2 SWAP1 POP JUMP JUMPDEST PUSH2 0x3424 DUP2 PUSH2 0x3409 JUMP JUMPDEST DUP2 EQ PUSH2 0x342F JUMPI PUSH1 0x0 DUP1 REVERT JUMPDEST POP JUMP JUMPDEST PUSH1 0x0 DUP2 CALLDATALOAD SWAP1 POP PUSH2 0x3441 DUP2 PUSH2 0x341B JUMP JUMPDEST SWAP3 SWAP2 POP POP JUMP JUMPDEST PUSH1 0x0 DUP2 SWAP1 POP SWAP2 SWAP1 POP JUMP JUMPDEST PUSH2 0x345A DUP2 PUSH2 0x3447 JUMP JUMPDEST DUP2 EQ PUSH2 0x3465 JUMPI PUSH1 0x0 DUP1 REVERT JUMPDEST POP JUMP JUMPDEST PUSH1 0x0 DUP2 CALLDATALOAD SWAP1 POP PUSH2 0x3477 DUP2 PUSH2 0x3451 JUMP JUMPDEST SWAP3 SWAP2 POP POP JUMP JUMPDEST PUSH1 0x0 DUP1 PUSH1 0x40 DUP4 DUP6 SUB SLT ISZERO PUSH2 0x3494 JUMPI PUSH2 0x3493 PUSH2 0x33DF JUMP JUMPDEST JUMPDEST PUSH1 0x0 PUSH2 0x34A2 DUP6 DUP3 DUP7 ADD PUSH2 0x3432 JUMP JUMPDEST SWAP3 POP POP PUSH1 0x20 PUSH2 0x34B3 DUP6 DUP3 DUP7 ADD PUSH2 0x3468 JUMP JUMPDEST SWAP2 POP POP SWAP3 POP SWAP3 SWAP1 POP JUMP JUMPDEST PUSH2 0x34C6 DUP2 PUSH2 0x3447 JUMP JUMPDEST DUP3 MSTORE POP POP JUMP JUMPDEST PUSH1 0x0 PUSH1 0x20 DUP3 ADD SWAP1 POP PUSH2 0x34E1 PUSH1 0x0 DUP4 ADD DUP5 PUSH2 0x34BD JUMP JUMPDEST SWAP3 SWAP2 POP POP JUMP JUMPDEST PUSH1 0x0 PUSH32 0xFFFFFFFF00000000000000000000000000000000000000000000000000000000 DUP3 AND SWAP1 POP SWAP2 SWAP1 POP JUMP JUMPDEST PUSH2 0x351C DUP2 PUSH2 0x34E7 JUMP JUMPDEST DUP2 EQ PUSH2 0x3527 JUMPI PUSH1 0x0 DUP1 REVERT JUMPDEST POP JUMP JUMPDEST PUSH1 0x0 DUP2 CALLDATALOAD SWAP1 POP PUSH2 0x3539 DUP2 PUSH2 0x3513 JUMP JUMPDEST SWAP3 SWAP2 POP POP JUMP JUMPDEST PUSH1 0x0 PUSH1 0x20 DUP3 DUP5 SUB SLT ISZERO PUSH2 0x3555 JUMPI PUSH2 0x3554 PUSH2 0x33DF JUMP JUMPDEST JUMPDEST PUSH1 0x0 PUSH2 0x3563 DUP5 DUP3 DUP6 ADD PUSH2 0x352A JUMP JUMPDEST SWAP2 POP POP SWAP3 SWAP2 POP POP JUMP JUMPDEST PUSH1 0x0 DUP2 ISZERO ISZERO SWAP1 POP SWAP2 SWAP1 POP JUMP JUMPDEST PUSH2 0x3581 DUP2 PUSH2 0x356C JUMP JUMPDEST DUP3 MSTORE POP POP JUMP JUMPDEST PUSH1 0x0 PUSH1 0x20 DUP3 ADD SWAP1 POP PUSH2 0x359C PUSH1 0x0 DUP4 ADD DUP5 PUSH2 0x3578 JUMP JUMPDEST SWAP3 SWAP2 POP POP JUMP JUMPDEST PUSH1 0x0 PUSH1 0x20 DUP3 DUP5 SUB SLT ISZERO PUSH2 0x35B8 JUMPI PUSH2 0x35B7 PUSH2 0x33DF JUMP JUMPDEST JUMPDEST PUSH1 0x0 PUSH2 0x35C6 DUP5 DUP3 DUP6 ADD PUSH2 0x3468 JUMP JUMPDEST SWAP2 POP POP SWAP3 SWAP2 POP POP JUMP JUMPDEST PUSH1 0x0 DUP2 MLOAD SWAP1 POP SWAP2 SWAP1 POP JUMP JUMPDEST PUSH1 0x0 DUP3 DUP3 MSTORE PUSH1 0x20 DUP3 ADD SWAP1 POP SWAP3 SWAP2 POP POP JUMP JUMPDEST PUSH1 0x0 JUMPDEST DUP4 DUP2 LT ISZERO PUSH2 0x3609 JUMPI DUP1 DUP3 ADD MLOAD DUP2 DUP5 ADD MSTORE PUSH1 0x20 DUP2 ADD SWAP1 POP PUSH2 0x35EE JUMP JUMPDEST PUSH1 0x0 DUP5 DUP5 ADD MSTORE POP POP POP POP JUMP JUMPDEST PUSH1 0x0 PUSH1 0x1F NOT PUSH1 0x1F DUP4 ADD AND SWAP1 POP SWAP2 SWAP1 POP JUMP JUMPDEST PUSH1 0x0 PUSH2 0x3631 DUP3 PUSH2 0x35CF JUMP JUMPDEST PUSH2 0x363B DUP2 DUP6 PUSH2 0x35DA JUMP JUMPDEST SWAP4 POP PUSH2 0x364B DUP2 DUP6 PUSH1 0x20 DUP7 ADD PUSH2 0x35EB JUMP JUMPDEST PUSH2 0x3654 DUP2 PUSH2 0x3615 JUMP JUMPDEST DUP5 ADD SWAP2 POP POP SWAP3 SWAP2 POP POP JUMP JUMPDEST PUSH1 0x0 PUSH1 0x20 DUP3 ADD SWAP1 POP DUP2 DUP2 SUB PUSH1 0x0 DUP4 ADD MSTORE PUSH2 0x3679 DUP2 DUP5 PUSH2 0x3626 JUMP JUMPDEST SWAP1 POP SWAP3 SWAP2 POP POP JUMP JUMPDEST PUSH1 0x0 DUP1 REVERT JUMPDEST PUSH32 0x4E487B7100000000000000000000000000000000000000000000000000000000 PUSH1 0x0 MSTORE PUSH1 0x41 PUSH1 0x4 MSTORE PUSH1 0x24 PUSH1 0x0 REVERT JUMPDEST PUSH2 0x36BE DUP3 PUSH2 0x3615 JUMP JUMPDEST DUP2 ADD DUP2 DUP2 LT PUSH8 0xFFFFFFFFFFFFFFFF DUP3 GT OR ISZERO PUSH2 0x36DD JUMPI PUSH2 0x36DC PUSH2 0x3686 JUMP JUMPDEST JUMPDEST DUP1 PUSH1 0x40 MSTORE POP POP POP JUMP JUMPDEST PUSH1 0x0 PUSH2 0x36F0 PUSH2 0x33D5 JUMP JUMPDEST SWAP1 POP PUSH2 0x36FC DUP3 DUP3 PUSH2 0x36B5 JUMP JUMPDEST SWAP2 SWAP1 POP JUMP JUMPDEST PUSH1 0x0 PUSH8 0xFFFFFFFFFFFFFFFF DUP3 GT ISZERO PUSH2 0x371C JUMPI PUSH2 0x371B PUSH2 0x3686 JUMP JUMPDEST JUMPDEST PUSH1 0x20 DUP3 MUL SWAP1 POP PUSH1 0x20 DUP2 ADD SWAP1 POP SWAP2 SWAP1 POP JUMP JUMPDEST PUSH1 0x0 DUP1 REVERT JUMPDEST PUSH1 0x0 PUSH2 0x3745 PUSH2 0x3740 DUP5 PUSH2 0x3701 JUMP JUMPDEST PUSH2 0x36E6 JUMP JUMPDEST SWAP1 POP DUP1 DUP4 DUP3 MSTORE PUSH1 0x20 DUP3 ADD SWAP1 POP PUSH1 0x20 DUP5 MUL DUP4 ADD DUP6 DUP2 GT ISZERO PUSH2 0x3768 JUMPI PUSH2 0x3767 PUSH2 0x372D JUMP JUMPDEST JUMPDEST DUP4 JUMPDEST DUP2 DUP2 LT ISZERO PUSH2 0x3791 JUMPI DUP1 PUSH2 0x377D DUP9 DUP3 PUSH2 0x3468 JUMP JUMPDEST DUP5 MSTORE PUSH1 0x20 DUP5 ADD SWAP4 POP POP PUSH1 0x20 DUP2 ADD SWAP1 POP PUSH2 0x376A JUMP JUMPDEST POP POP POP SWAP4 SWAP3 POP POP POP JUMP JUMPDEST PUSH1 0x0 DUP3 PUSH1 0x1F DUP4 ADD SLT PUSH2 0x37B0 JUMPI PUSH2 0x37AF PUSH2 0x3681 JUMP JUMPDEST JUMPDEST DUP2 CALLDATALOAD PUSH2 0x37C0 DUP5 DUP3 PUSH1 0x20 DUP7 ADD PUSH2 0x3732 JUMP JUMPDEST SWAP2 POP POP SWAP3 SWAP2 POP POP JUMP JUMPDEST PUSH1 0x0 DUP1 REVERT JUMPDEST PUSH1 0x0 PUSH8 0xFFFFFFFFFFFFFFFF DUP3 GT ISZERO PUSH2 0x37E9 JUMPI PUSH2 0x37E8 PUSH2 0x3686 JUMP JUMPDEST JUMPDEST PUSH2 0x37F2 DUP3 PUSH2 0x3615 JUMP JUMPDEST SWAP1 POP PUSH1 0x20 DUP2 ADD SWAP1 POP SWAP2 SWAP1 POP JUMP JUMPDEST DUP3 DUP2 DUP4 CALLDATACOPY PUSH1 0x0 DUP4 DUP4 ADD MSTORE POP POP POP JUMP JUMPDEST PUSH1 0x0 PUSH2 0x3821 PUSH2 0x381C DUP5 PUSH2 0x37CE JUMP JUMPDEST PUSH2 0x36E6 JUMP JUMPDEST SWAP1 POP DUP3 DUP2 MSTORE PUSH1 0x20 DUP2 ADD DUP5 DUP5 DUP5 ADD GT ISZERO PUSH2 0x383D JUMPI PUSH2 0x383C PUSH2 0x37C9 JUMP JUMPDEST JUMPDEST PUSH2 0x3848 DUP5 DUP3 DUP6 PUSH2 0x37FF JUMP JUMPDEST POP SWAP4 SWAP3 POP POP POP JUMP JUMPDEST PUSH1 0x0 DUP3 PUSH1 0x1F DUP4 ADD SLT PUSH2 0x3865 JUMPI PUSH2 0x3864 PUSH2 0x3681 JUMP JUMPDEST JUMPDEST DUP2 CALLDATALOAD PUSH2 0x3875 DUP5 DUP3 PUSH1 0x20 DUP7 ADD PUSH2 0x380E JUMP JUMPDEST SWAP2 POP POP SWAP3 SWAP2 POP POP JUMP JUMPDEST PUSH1 0x0 DUP1 PUSH1 0x0 DUP1 PUSH1 0x0 PUSH1 0xA0 DUP7 DUP9 SUB SLT ISZERO PUSH2 0x389A JUMPI PUSH2 0x3899 PUSH2 0x33DF JUMP JUMPDEST JUMPDEST PUSH1 0x0 PUSH2 0x38A8 DUP9 DUP3 DUP10 ADD PUSH2 0x3432 JUMP JUMPDEST SWAP6 POP POP PUSH1 0x20 PUSH2 0x38B9 DUP9 DUP3 DUP10 ADD PUSH2 0x3432 JUMP JUMPDEST SWAP5 POP POP PUSH1 0x40 DUP7 ADD CALLDATALOAD PUSH8 0xFFFFFFFFFFFFFFFF DUP2 GT ISZERO PUSH2 0x38DA JUMPI PUSH2 0x38D9 PUSH2 0x33E4 JUMP JUMPDEST JUMPDEST PUSH2 0x38E6 DUP9 DUP3 DUP10 ADD PUSH2 0x379B JUMP JUMPDEST SWAP4 POP POP PUSH1 0x60 DUP7 ADD CALLDATALOAD PUSH8 0xFFFFFFFFFFFFFFFF DUP2 GT ISZERO PUSH2 0x3907 JUMPI PUSH2 0x3906 PUSH2 0x33E4 JUMP JUMPDEST JUMPDEST PUSH2 0x3913 DUP9 DUP3 DUP10 ADD PUSH2 0x379B JUMP JUMPDEST SWAP3 POP POP PUSH1 0x80 DUP7 ADD CALLDATALOAD PUSH8 0xFFFFFFFFFFFFFFFF DUP2 GT ISZERO PUSH2 0x3934 JUMPI PUSH2 0x3933 PUSH2 0x33E4 JUMP JUMPDEST JUMPDEST PUSH2 0x3940 DUP9 DUP3 DUP10 ADD PUSH2 0x3850 JUMP JUMPDEST SWAP2 POP POP SWAP3 SWAP6 POP SWAP3 SWAP6 SWAP1 SWAP4 POP JUMP JUMPDEST PUSH2 0x3956 DUP2 PUSH2 0x3409 JUMP JUMPDEST DUP3 MSTORE POP POP JUMP JUMPDEST PUSH1 0x0 PUSH2 0x160 DUP3 ADD SWAP1 POP PUSH2 0x3972 PUSH1 0x0 DUP4 ADD DUP15 PUSH2 0x394D JUMP JUMPDEST PUSH2 0x397F PUSH1 0x20 DUP4 ADD DUP14 PUSH2 0x34BD JUMP JUMPDEST PUSH2 0x398C PUSH1 0x40 DUP4 ADD DUP13 PUSH2 0x34BD JUMP JUMPDEST PUSH2 0x3999 PUSH1 0x60 DUP4 ADD DUP12 PUSH2 0x34BD JUMP JUMPDEST PUSH2 0x39A6 PUSH1 0x80 DUP4 ADD DUP11 PUSH2 0x34BD JUMP JUMPDEST PUSH2 0x39B3 PUSH1 0xA0 DUP4 ADD DUP10 PUSH2 0x34BD JUMP JUMPDEST PUSH2 0x39C0 PUSH1 0xC0 DUP4 ADD DUP9 PUSH2 0x34BD JUMP JUMPDEST PUSH2 0x39CD PUSH1 0xE0 DUP4 ADD DUP8 PUSH2 0x34BD JUMP JUMPDEST PUSH2 0x39DB PUSH2 0x100 DUP4 ADD DUP7 PUSH2 0x34BD JUMP JUMPDEST PUSH2 0x39E9 PUSH2 0x120 DUP4 ADD DUP6 PUSH2 0x34BD JUMP JUMPDEST PUSH2 0x39F7 PUSH2 0x140 DUP4 ADD DUP5 PUSH2 0x34BD JUMP JUMPDEST SWAP13 SWAP12 POP POP POP POP POP POP POP POP POP POP POP POP JUMP JUMPDEST PUSH2 0x3A10 DUP2 PUSH2 0x3409 JUMP JUMPDEST DUP3 MSTORE POP POP JUMP JUMPDEST PUSH2 0x3A1F DUP2 PUSH2 0x3447 JUMP JUMPDEST DUP3 MSTORE POP POP JUMP JUMPDEST PUSH1 0x0 DUP2 MLOAD SWAP1 POP SWAP2 SWAP1 POP JUMP JUMPDEST PUSH1 0x0 DUP3 DUP3 MSTORE PUSH1 0x20 DUP3 ADD SWAP1 POP SWAP3 SWAP2 POP POP JUMP JUMPDEST PUSH1 0x0 DUP2 SWAP1 POP PUSH1 0x20 DUP3 ADD SWAP1 POP SWAP2 SWAP1 POP JUMP JUMPDEST PUSH1 0x0 PUSH2 0x3A5D DUP4 DUP4 PUSH2 0x3A07 JUMP JUMPDEST PUSH1 0x20 DUP4 ADD SWAP1 POP SWAP3 SWAP2 POP POP JUMP JUMPDEST PUSH1 0x0 PUSH1 0x20 DUP3 ADD SWAP1 POP SWAP2 SWAP1 POP JUMP JUMPDEST PUSH1 0x0 PUSH2 0x3A81 DUP3 PUSH2 0x3A25 JUMP JUMPDEST PUSH2 0x3A8B DUP2 DUP6 PUSH2 0x3A30 JUMP JUMPDEST SWAP4 POP PUSH2 0x3A96 DUP4 PUSH2 0x3A41 JUMP JUMPDEST DUP1 PUSH1 0x0 JUMPDEST DUP4 DUP2 LT ISZERO PUSH2 0x3AC7 JUMPI DUP2 MLOAD PUSH2 0x3AAE DUP9 DUP3 PUSH2 0x3A51 JUMP JUMPDEST SWAP8 POP PUSH2 0x3AB9 DUP4 PUSH2 0x3A69 JUMP JUMPDEST SWAP3 POP POP PUSH1 0x1 DUP2 ADD SWAP1 POP PUSH2 0x3A9A JUMP JUMPDEST POP DUP6 SWAP4 POP POP POP POP SWAP3 SWAP2 POP POP JUMP JUMPDEST PUSH1 0x0 PUSH2 0x180 DUP4 ADD PUSH1 0x0 DUP4 ADD MLOAD PUSH2 0x3AED PUSH1 0x0 DUP7 ADD DUP3 PUSH2 0x3A07 JUMP JUMPDEST POP PUSH1 0x20 DUP4 ADD MLOAD PUSH2 0x3B00 PUSH1 0x20 DUP7 ADD DUP3 PUSH2 0x3A16 JUMP JUMPDEST POP PUSH1 0x40 DUP4 ADD MLOAD PUSH2 0x3B13 PUSH1 0x40 DUP7 ADD DUP3 PUSH2 0x3A16 JUMP JUMPDEST POP PUSH1 0x60 DUP4 ADD MLOAD PUSH2 0x3B26 PUSH1 0x60 DUP7 ADD DUP3 PUSH2 0x3A16 JUMP JUMPDEST POP PUSH1 0x80 DUP4 ADD MLOAD PUSH2 0x3B39 PUSH1 0x80 DUP7 ADD DUP3 PUSH2 0x3A16 JUMP JUMPDEST POP PUSH1 0xA0 DUP4 ADD MLOAD PUSH2 0x3B4C PUSH1 0xA0 DUP7 ADD DUP3 PUSH2 0x3A16 JUMP JUMPDEST POP PUSH1 0xC0 DUP4 ADD MLOAD PUSH2 0x3B5F PUSH1 0xC0 DUP7 ADD DUP3 PUSH2 0x3A16 JUMP JUMPDEST POP PUSH1 0xE0 DUP4 ADD MLOAD PUSH2 0x3B72 PUSH1 0xE0 DUP7 ADD DUP3 PUSH2 0x3A16 JUMP JUMPDEST POP PUSH2 0x100 DUP4 ADD MLOAD PUSH2 0x3B87 PUSH2 0x100 DUP7 ADD DUP3 PUSH2 0x3A16 JUMP JUMPDEST POP PUSH2 0x120 DUP4 ADD MLOAD PUSH2 0x3B9C PUSH2 0x120 DUP7 ADD DUP3 PUSH2 0x3A16 JUMP JUMPDEST POP PUSH2 0x140 DUP4 ADD MLOAD PUSH2 0x3BB1 PUSH2 0x140 DUP7 ADD DUP3 PUSH2 0x3A16 JUMP JUMPDEST POP PUSH2 0x160 DUP4 ADD MLOAD DUP5 DUP3 SUB PUSH2 0x160 DUP7 ADD MSTORE PUSH2 0x3BCB DUP3 DUP3 PUSH2 0x3A76 JUMP JUMPDEST SWAP2 POP POP DUP1 SWAP2 POP POP SWAP3 SWAP2 POP POP JUMP JUMPDEST PUSH1 0x0 PUSH1 0x20 DUP3 ADD SWAP1 POP DUP2 DUP2 SUB PUSH1 0x0 DUP4 ADD MSTORE PUSH2 0x3BF2 DUP2 DUP5 PUSH2 0x3AD4 JUMP JUMPDEST SWAP1 POP SWAP3 SWAP2 POP POP JUMP JUMPDEST PUSH1 0x0 PUSH8 0xFFFFFFFFFFFFFFFF DUP3 GT ISZERO PUSH2 0x3C15 JUMPI PUSH2 0x3C14 PUSH2 0x3686 JUMP JUMPDEST JUMPDEST PUSH1 0x20 DUP3 MUL SWAP1 POP PUSH1 0x20 DUP2 ADD SWAP1 POP SWAP2 SWAP1 POP JUMP JUMPDEST PUSH1 0x0 PUSH2 0x3C39 PUSH2 0x3C34 DUP5 PUSH2 0x3BFA JUMP JUMPDEST PUSH2 0x36E6 JUMP JUMPDEST SWAP1 POP DUP1 DUP4 DUP3 MSTORE PUSH1 0x20 DUP3 ADD SWAP1 POP PUSH1 0x20 DUP5 MUL DUP4 ADD DUP6 DUP2 GT ISZERO PUSH2 0x3C5C JUMPI PUSH2 0x3C5B PUSH2 0x372D JUMP JUMPDEST JUMPDEST DUP4 JUMPDEST DUP2 DUP2 LT ISZERO PUSH2 0x3C85 JUMPI DUP1 PUSH2 0x3C71 DUP9 DUP3 PUSH2 0x3432 JUMP JUMPDEST DUP5 MSTORE PUSH1 0x20 DUP5 ADD SWAP4 POP POP PUSH1 0x20 DUP2 ADD SWAP1 POP PUSH2 0x3C5E JUMP JUMPDEST POP POP POP SWAP4 SWAP3 POP POP POP JUMP JUMPDEST PUSH1 0x0 DUP3 PUSH1 0x1F DUP4 ADD SLT PUSH2 0x3CA4 JUMPI PUSH2 0x3CA3 PUSH2 0x3681 JUMP JUMPDEST JUMPDEST DUP2 CALLDATALOAD PUSH2 0x3CB4 DUP5 DUP3 PUSH1 0x20 DUP7 ADD PUSH2 0x3C26 JUMP JUMPDEST SWAP2 POP POP SWAP3 SWAP2 POP POP JUMP JUMPDEST PUSH1 0x0 DUP1 PUSH1 0x40 DUP4 DUP6 SUB SLT ISZERO PUSH2 0x3CD4 JUMPI PUSH2 0x3CD3 PUSH2 0x33DF JUMP JUMPDEST JUMPDEST PUSH1 0x0 DUP4 ADD CALLDATALOAD PUSH8 0xFFFFFFFFFFFFFFFF DUP2 GT ISZERO PUSH2 0x3CF2 JUMPI PUSH2 0x3CF1 PUSH2 0x33E4 JUMP JUMPDEST JUMPDEST PUSH2 0x3CFE DUP6 DUP3 DUP7 ADD PUSH2 0x3C8F JUMP JUMPDEST SWAP3 POP POP PUSH1 0x20 DUP4 ADD CALLDATALOAD PUSH8 0xFFFFFFFFFFFFFFFF DUP2 GT ISZERO PUSH2 0x3D1F JUMPI PUSH2 0x3D1E PUSH2 0x33E4 JUMP JUMPDEST JUMPDEST PUSH2 0x3D2B DUP6 DUP3 DUP7 ADD PUSH2 0x379B JUMP JUMPDEST SWAP2 POP POP SWAP3 POP SWAP3 SWAP1 POP JUMP JUMPDEST PUSH1 0x0 DUP2 MLOAD SWAP1 POP SWAP2 SWAP1 POP JUMP JUMPDEST PUSH1 0x0 DUP3 DUP3 MSTORE PUSH1 0x20 DUP3 ADD SWAP1 POP SWAP3 SWAP2 POP POP JUMP JUMPDEST PUSH1 0x0 DUP2 SWAP1 POP PUSH1 0x20 DUP3 ADD SWAP1 POP SWAP2 SWAP1 POP JUMP JUMPDEST PUSH1 0x0 PUSH2 0x3D6D DUP4 DUP4 PUSH2 0x3A16 JUMP JUMPDEST PUSH1 0x20 DUP4 ADD SWAP1 POP SWAP3 SWAP2 POP POP JUMP JUMPDEST PUSH1 0x0 PUSH1 0x20 DUP3 ADD SWAP1 POP SWAP2 SWAP1 POP JUMP JUMPDEST PUSH1 0x0 PUSH2 0x3D91 DUP3 PUSH2 0x3D35 JUMP JUMPDEST PUSH2 0x3D9B DUP2 DUP6 PUSH2 0x3D40 JUMP JUMPDEST SWAP4 POP PUSH2 0x3DA6 DUP4 PUSH2 0x3D51 JUMP JUMPDEST DUP1 PUSH1 0x0 JUMPDEST DUP4 DUP2 LT ISZERO PUSH2 0x3DD7 JUMPI DUP2 MLOAD PUSH2 0x3DBE DUP9 DUP3 PUSH2 0x3D61 JUMP JUMPDEST SWAP8 POP PUSH2 0x3DC9 DUP4 PUSH2 0x3D79 JUMP JUMPDEST SWAP3 POP POP PUSH1 0x1 DUP2 ADD SWAP1 POP PUSH2 0x3DAA JUMP JUMPDEST POP DUP6 SWAP4 POP POP POP POP SWAP3 SWAP2 POP POP JUMP JUMPDEST PUSH1 0x0 PUSH1 0x20 DUP3 ADD SWAP1 POP DUP2 DUP2 SUB PUSH1 0x0 DUP4 ADD MSTORE PUSH2 0x3DFE DUP2 DUP5 PUSH2 0x3D86 JUMP JUMPDEST SWAP1 POP SWAP3 SWAP2 POP POP JUMP JUMPDEST PUSH1 0x0 PUSH8 0xFFFFFFFFFFFFFFFF DUP3 GT ISZERO PUSH2 0x3E21 JUMPI PUSH2 0x3E20 PUSH2 0x3686 JUMP JUMPDEST JUMPDEST PUSH2 0x3E2A DUP3 PUSH2 0x3615 JUMP JUMPDEST SWAP1 POP PUSH1 0x20 DUP2 ADD SWAP1 POP SWAP2 SWAP1 POP JUMP JUMPDEST PUSH1 0x0 PUSH2 0x3E4A PUSH2 0x3E45 DUP5 PUSH2 0x3E06 JUMP JUMPDEST PUSH2 0x36E6 JUMP JUMPDEST SWAP1 POP DUP3 DUP2 MSTORE PUSH1 0x20 DUP2 ADD DUP5 DUP5 DUP5 ADD GT ISZERO PUSH2 0x3E66 JUMPI PUSH2 0x3E65 PUSH2 0x37C9 JUMP JUMPDEST JUMPDEST PUSH2 0x3E71 DUP5 DUP3 DUP6 PUSH2 0x37FF JUMP JUMPDEST POP SWAP4 SWAP3 POP POP POP JUMP JUMPDEST PUSH1 0x0 DUP3 PUSH1 0x1F DUP4 ADD SLT PUSH2 0x3E8E JUMPI PUSH2 0x3E8D PUSH2 0x3681 JUMP JUMPDEST JUMPDEST DUP2 CALLDATALOAD PUSH2 0x3E9E DUP5 DUP3 PUSH1 0x20 DUP7 ADD PUSH2 0x3E37 JUMP JUMPDEST SWAP2 POP POP SWAP3 SWAP2 POP POP JUMP JUMPDEST PUSH1 0x0 DUP1 PUSH1 0x0 DUP1 PUSH1 0x0 DUP1 PUSH1 0x0 PUSH1 0xE0 DUP9 DUP11 SUB SLT ISZERO PUSH2 0x3EC6 JUMPI PUSH2 0x3EC5 PUSH2 0x33DF JUMP JUMPDEST JUMPDEST PUSH1 0x0 PUSH2 0x3ED4 DUP11 DUP3 DUP12 ADD PUSH2 0x3468 JUMP JUMPDEST SWAP8 POP POP PUSH1 0x20 PUSH2 0x3EE5 DUP11 DUP3 DUP12 ADD PUSH2 0x3468 JUMP JUMPDEST SWAP7 POP POP PUSH1 0x40 PUSH2 0x3EF6 DUP11 DUP3 DUP12 ADD PUSH2 0x3468 JUMP JUMPDEST SWAP6 POP POP PUSH1 0x60 DUP9 ADD CALLDATALOAD PUSH8 0xFFFFFFFFFFFFFFFF DUP2 GT ISZERO PUSH2 0x3F17 JUMPI PUSH2 0x3F16 PUSH2 0x33E4 JUMP JUMPDEST JUMPDEST PUSH2 0x3F23 DUP11 DUP3 DUP12 ADD PUSH2 0x3E79 JUMP JUMPDEST SWAP5 POP POP PUSH1 0x80 DUP9 ADD CALLDATALOAD PUSH8 0xFFFFFFFFFFFFFFFF DUP2 GT ISZERO PUSH2 0x3F44 JUMPI PUSH2 0x3F43 PUSH2 0x33E4 JUMP JUMPDEST JUMPDEST PUSH2 0x3F50 DUP11 DUP3 DUP12 ADD PUSH2 0x3E79 JUMP JUMPDEST SWAP4 POP POP PUSH1 0xA0 PUSH2 0x3F61 DUP11 DUP3 DUP12 ADD PUSH2 0x3468 JUMP JUMPDEST SWAP3 POP POP PUSH1 0xC0 PUSH2 0x3F72 DUP11 DUP3 DUP12 ADD PUSH2 0x3468 JUMP JUMPDEST SWAP2 POP POP SWAP3 SWAP6 SWAP9 SWAP2 SWAP5 SWAP8 POP SWAP3 SWAP6 POP JUMP JUMPDEST PUSH1 0x0 PUSH1 0x20 DUP3 ADD SWAP1 POP PUSH2 0x3F96 PUSH1 0x0 DUP4 ADD DUP5 PUSH2 0x394D JUMP JUMPDEST SWAP3 SWAP2 POP POP JUMP JUMPDEST PUSH2 0x3FA5 DUP2 PUSH2 0x356C JUMP JUMPDEST DUP2 EQ PUSH2 0x3FB0 JUMPI PUSH1 0x0 DUP1 REVERT JUMPDEST POP JUMP JUMPDEST PUSH1 0x0 DUP2 CALLDATALOAD SWAP1 POP PUSH2 0x3FC2 DUP2 PUSH2 0x3F9C JUMP JUMPDEST SWAP3 SWAP2 POP POP JUMP JUMPDEST PUSH1 0x0 DUP1 PUSH1 0x40 DUP4 DUP6 SUB SLT ISZERO PUSH2 0x3FDF JUMPI PUSH2 0x3FDE PUSH2 0x33DF JUMP JUMPDEST JUMPDEST PUSH1 0x0 PUSH2 0x3FED DUP6 DUP3 DUP7 ADD PUSH2 0x3432 JUMP JUMPDEST SWAP3 POP POP PUSH1 0x20 PUSH2 0x3FFE DUP6 DUP3 DUP7 ADD PUSH2 0x3FB3 JUMP JUMPDEST SWAP2 POP POP SWAP3 POP SWAP3 SWAP1 POP JUMP JUMPDEST PUSH1 0x0 DUP1 PUSH1 0x40 DUP4 DUP6 SUB SLT ISZERO PUSH2 0x401F JUMPI PUSH2 0x401E PUSH2 0x33DF JUMP JUMPDEST JUMPDEST PUSH1 0x0 PUSH2 0x402D DUP6 DUP3 DUP7 ADD PUSH2 0x3432 JUMP JUMPDEST SWAP3 POP POP PUSH1 0x20 PUSH2 0x403E DUP6 DUP3 DUP7 ADD PUSH2 0x3432 JUMP JUMPDEST SWAP2 POP POP SWAP3 POP SWAP3 SWAP1 POP JUMP JUMPDEST PUSH1 0x0 DUP1 PUSH1 0x0 DUP1 PUSH1 0x0 PUSH1 0xA0 DUP7 DUP9 SUB SLT ISZERO PUSH2 0x4064 JUMPI PUSH2 0x4063 PUSH2 0x33DF JUMP JUMPDEST JUMPDEST PUSH1 0x0 PUSH2 0x4072 DUP9 DUP3 DUP10 ADD PUSH2 0x3432 JUMP JUMPDEST SWAP6 POP POP PUSH1 0x20 PUSH2 0x4083 DUP9 DUP3 DUP10 ADD PUSH2 0x3432 JUMP JUMPDEST SWAP5 POP POP PUSH1 0x40 PUSH2 0x4094 DUP9 DUP3 DUP10 ADD PUSH2 0x3468 JUMP JUMPDEST SWAP4 POP POP PUSH1 0x60 PUSH2 0x40A5 DUP9 DUP3 DUP10 ADD PUSH2 0x3468 JUMP JUMPDEST SWAP3 POP POP PUSH1 0x80 DUP7 ADD CALLDATALOAD PUSH8 0xFFFFFFFFFFFFFFFF DUP2 GT ISZERO PUSH2 0x40C6 JUMPI PUSH2 0x40C5 PUSH2 0x33E4 JUMP JUMPDEST JUMPDEST PUSH2 0x40D2 DUP9 DUP3 DUP10 ADD PUSH2 0x3850 JUMP JUMPDEST SWAP2 POP POP SWAP3 SWAP6 POP SWAP3 SWAP6 SWAP1 SWAP4 POP JUMP JUMPDEST PUSH1 0x0 PUSH1 0x20 DUP3 DUP5 SUB SLT ISZERO PUSH2 0x40F5 JUMPI PUSH2 0x40F4 PUSH2 0x33DF JUMP JUMPDEST JUMPDEST PUSH1 0x0 PUSH2 0x4103 DUP5 DUP3 DUP6 ADD PUSH2 0x3432 JUMP JUMPDEST SWAP2 POP POP SWAP3 SWAP2 POP POP JUMP JUMPDEST PUSH32 0x455243313135353A2061646472657373207A65726F206973206E6F7420612076 PUSH1 0x0 DUP3 ADD MSTORE PUSH32 0x616C6964206F776E657200000000000000000000000000000000000000000000 PUSH1 0x20 DUP3 ADD MSTORE POP JUMP JUMPDEST PUSH1 0x0 PUSH2 0x4168 PUSH1 0x2A DUP4 PUSH2 0x35DA JUMP JUMPDEST SWAP2 POP PUSH2 0x4173 DUP3 PUSH2 0x410C JUMP JUMPDEST PUSH1 0x40 DUP3 ADD SWAP1 POP SWAP2 SWAP1 POP JUMP JUMPDEST PUSH1 0x0 PUSH1 0x20 DUP3 ADD SWAP1 POP DUP2 DUP2 SUB PUSH1 0x0 DUP4 ADD MSTORE PUSH2 0x4197 DUP2 PUSH2 0x415B JUMP JUMPDEST SWAP1 POP SWAP2 SWAP1 POP JUMP JUMPDEST PUSH32 0x74686520736F6E6720646F65736E742065786973747300000000000000000000 PUSH1 0x0 DUP3 ADD MSTORE POP JUMP JUMPDEST PUSH1 0x0 PUSH2 0x41D4 PUSH1 0x16 DUP4 PUSH2 0x35DA JUMP JUMPDEST SWAP2 POP PUSH2 0x41DF DUP3 PUSH2 0x419E JUMP JUMPDEST PUSH1 0x20 DUP3 ADD SWAP1 POP SWAP2 SWAP1 POP JUMP JUMPDEST PUSH1 0x0 PUSH1 0x20 DUP3 ADD SWAP1 POP DUP2 DUP2 SUB PUSH1 0x0 DUP4 ADD MSTORE PUSH2 0x4203 DUP2 PUSH2 0x41C7 JUMP JUMPDEST SWAP1 POP SWAP2 SWAP1 POP JUMP JUMPDEST PUSH32 0x4E487B7100000000000000000000000000000000000000000000000000000000 PUSH1 0x0 MSTORE PUSH1 0x12 PUSH1 0x4 MSTORE PUSH1 0x24 PUSH1 0x0 REVERT JUMPDEST PUSH32 0x4E487B7100000000000000000000000000000000000000000000000000000000 PUSH1 0x0 MSTORE PUSH1 0x11 PUSH1 0x4 MSTORE PUSH1 0x24 PUSH1 0x0 REVERT JUMPDEST PUSH1 0x0 PUSH2 0x4273 DUP3 PUSH2 0x3447 JUMP JUMPDEST SWAP2 POP PUSH2 0x427E DUP4 PUSH2 0x3447 JUMP JUMPDEST SWAP3 POP DUP3 PUSH2 0x428E JUMPI PUSH2 0x428D PUSH2 0x420A JUMP JUMPDEST JUMPDEST DUP3 DUP3 DIV SWAP1 POP SWAP3 SWAP2 POP POP JUMP JUMPDEST PUSH1 0x0 PUSH2 0x42A4 DUP3 PUSH2 0x3447 JUMP JUMPDEST SWAP2 POP PUSH2 0x42AF DUP4 PUSH2 0x3447 JUMP JUMPDEST SWAP3 POP DUP3 DUP3 MUL PUSH2 0x42BD DUP2 PUSH2 0x3447 JUMP JUMPDEST SWAP2 POP DUP3 DUP3 DIV DUP5 EQ DUP4 ISZERO OR PUSH2 0x42D4 JUMPI PUSH2 0x42D3 PUSH2 0x4239 JUMP JUMPDEST JUMPDEST POP SWAP3 SWAP2 POP POP JUMP JUMPDEST PUSH1 0x0 PUSH2 0x42E6 DUP3 PUSH2 0x3447 JUMP JUMPDEST SWAP2 POP PUSH2 0x42F1 DUP4 PUSH2 0x3447 JUMP JUMPDEST SWAP3 POP DUP3 DUP3 SUB SWAP1 POP DUP2 DUP2 GT ISZERO PUSH2 0x4309 JUMPI PUSH2 0x4308 PUSH2 0x4239 JUMP JUMPDEST JUMPDEST SWAP3 SWAP2 POP POP JUMP JUMPDEST PUSH1 0x0 PUSH2 0x431A DUP3 PUSH2 0x3447 JUMP JUMPDEST SWAP2 POP PUSH2 0x4325 DUP4 PUSH2 0x3447 JUMP JUMPDEST SWAP3 POP DUP3 DUP3 ADD SWAP1 POP DUP1 DUP3 GT ISZERO PUSH2 0x433D JUMPI PUSH2 0x433C PUSH2 0x4239 JUMP JUMPDEST JUMPDEST SWAP3 SWAP2 POP POP JUMP JUMPDEST PUSH1 0x0 DUP2 SWAP1 POP SWAP3 SWAP2 POP POP JUMP JUMPDEST POP JUMP JUMPDEST PUSH1 0x0 PUSH2 0x435E PUSH1 0x0 DUP4 PUSH2 0x4343 JUMP JUMPDEST SWAP2 POP PUSH2 0x4369 DUP3 PUSH2 0x434E JUMP JUMPDEST PUSH1 0x0 DUP3 ADD SWAP1 POP SWAP2 SWAP1 POP JUMP JUMPDEST PUSH1 0x0 PUSH2 0x437F DUP3 PUSH2 0x4351 JUMP JUMPDEST SWAP2 POP DUP2 SWAP1 POP SWAP2 SWAP1 POP JUMP JUMPDEST PUSH32 0x6661696C656420746F2064697372696275746520726F79616C69746965732074 PUSH1 0x0 DUP3 ADD MSTORE PUSH32 0x6F20746865206172746973740000000000000000000000000000000000000000 PUSH1 0x20 DUP3 ADD MSTORE POP JUMP JUMPDEST PUSH1 0x0 PUSH2 0x43E5 PUSH1 0x2C DUP4 PUSH2 0x35DA JUMP JUMPDEST SWAP2 POP PUSH2 0x43F0 DUP3 PUSH2 0x4389 JUMP JUMPDEST PUSH1 0x40 DUP3 ADD SWAP1 POP SWAP2 SWAP1 POP JUMP JUMPDEST PUSH1 0x0 PUSH1 0x20 DUP3 ADD SWAP1 POP DUP2 DUP2 SUB PUSH1 0x0 DUP4 ADD MSTORE PUSH2 0x4414 DUP2 PUSH2 0x43D8 JUMP JUMPDEST SWAP1 POP SWAP2 SWAP1 POP JUMP JUMPDEST PUSH32 0x4E487B7100000000000000000000000000000000000000000000000000000000 PUSH1 0x0 MSTORE PUSH1 0x32 PUSH1 0x4 MSTORE PUSH1 0x24 PUSH1 0x0 REVERT JUMPDEST PUSH32 0x6661696C656420746F2064697372696275746520726F79616C69746965732074 PUSH1 0x0 DUP3 ADD MSTORE PUSH32 0x6F2074686520737570657266616E000000000000000000000000000000000000 PUSH1 0x20 DUP3 ADD MSTORE POP JUMP JUMPDEST PUSH1 0x0 PUSH2 0x44A6 PUSH1 0x2E DUP4 PUSH2 0x35DA JUMP JUMPDEST SWAP2 POP PUSH2 0x44B1 DUP3 PUSH2 0x444A JUMP JUMPDEST PUSH1 0x40 DUP3 ADD SWAP1 POP SWAP2 SWAP1 POP JUMP JUMPDEST PUSH1 0x0 PUSH1 0x20 DUP3 ADD SWAP1 POP DUP2 DUP2 SUB PUSH1 0x0 DUP4 ADD MSTORE PUSH2 0x44D5 DUP2 PUSH2 0x4499 JUMP JUMPDEST SWAP1 POP SWAP2 SWAP1 POP JUMP JUMPDEST PUSH1 0x0 PUSH2 0x44E7 DUP3 PUSH2 0x3447 JUMP JUMPDEST SWAP2 POP PUSH32 0xFFFFFFFFFFFFFFFFFFFFFFFFFFFFFFFFFFFFFFFFFFFFFFFFFFFFFFFFFFFFFFFF DUP3 SUB PUSH2 0x4519 JUMPI PUSH2 0x4518 PUSH2 0x4239 JUMP JUMPDEST JUMPDEST PUSH1 0x1 DUP3 ADD SWAP1 POP SWAP2 SWAP1 POP JUMP JUMPDEST PUSH32 0x455243313135353A2063616C6C6572206973206E6F7420746F6B656E206F776E PUSH1 0x0 DUP3 ADD MSTORE PUSH32 0x6572206F7220617070726F766564000000000000000000000000000000000000 PUSH1 0x20 DUP3 ADD MSTORE POP JUMP JUMPDEST PUSH1 0x0 PUSH2 0x4580 PUSH1 0x2E DUP4 PUSH2 0x35DA JUMP JUMPDEST SWAP2 POP PUSH2 0x458B DUP3 PUSH2 0x4524 JUMP JUMPDEST PUSH1 0x40 DUP3 ADD SWAP1 POP SWAP2 SWAP1 POP JUMP JUMPDEST PUSH1 0x0 PUSH1 0x20 DUP3 ADD SWAP1 POP DUP2 DUP2 SUB PUSH1 0x0 DUP4 ADD MSTORE PUSH2 0x45AF DUP2 PUSH2 0x4573 JUMP JUMPDEST SWAP1 POP SWAP2 SWAP1 POP JUMP JUMPDEST PUSH1 0x0 PUSH2 0x45C1 DUP3 PUSH2 0x3447 JUMP JUMPDEST SWAP2 POP PUSH2 0x45CC DUP4 PUSH2 0x3447 JUMP JUMPDEST SWAP3 POP DUP3 PUSH2 0x45DC JUMPI PUSH2 0x45DB PUSH2 0x420A JUMP JUMPDEST JUMPDEST DUP3 DUP3 MOD SWAP1 POP SWAP3 SWAP2 POP POP JUMP JUMPDEST PUSH32 0x74686520736F6E6720646F65736E277420657869737473000000000000000000 PUSH1 0x0 DUP3 ADD MSTORE POP JUMP JUMPDEST PUSH1 0x0 PUSH2 0x461D PUSH1 0x17 DUP4 PUSH2 0x35DA JUMP JUMPDEST SWAP2 POP PUSH2 0x4628 DUP3 PUSH2 0x45E7 JUMP JUMPDEST PUSH1 0x20 DUP3 ADD SWAP1 POP SWAP2 SWAP1 POP JUMP JUMPDEST PUSH1 0x0 PUSH1 0x20 DUP3 ADD SWAP1 POP DUP2 DUP2 SUB PUSH1 0x0 DUP4 ADD MSTORE PUSH2 0x464C DUP2 PUSH2 0x4610 JUMP JUMPDEST SWAP1 POP SWAP2 SWAP1 POP JUMP JUMPDEST PUSH32 0x455243313135353A206163636F756E747320616E6420696473206C656E677468 PUSH1 0x0 DUP3 ADD MSTORE PUSH32 0x206D69736D617463680000000000000000000000000000000000000000000000 PUSH1 0x20 DUP3 ADD MSTORE POP JUMP JUMPDEST PUSH1 0x0 PUSH2 0x46AF PUSH1 0x29 DUP4 PUSH2 0x35DA JUMP JUMPDEST SWAP2 POP PUSH2 0x46BA DUP3 PUSH2 0x4653 JUMP JUMPDEST PUSH1 0x40 DUP3 ADD SWAP1 POP SWAP2 SWAP1 POP JUMP JUMPDEST PUSH1 0x0 PUSH1 0x20 DUP3 ADD SWAP1 POP DUP2 DUP2 SUB PUSH1 0x0 DUP4 ADD MSTORE PUSH2 0x46DE DUP2 PUSH2 0x46A2 JUMP JUMPDEST SWAP1 POP SWAP2 SWAP1 POP JUMP JUMPDEST PUSH32 0x4C696D6974656420737570706C79206D75737420626520677265617465722074 PUSH1 0x0 DUP3 ADD MSTORE PUSH32 0x68616E2030000000000000000000000000000000000000000000000000000000 PUSH1 0x20 DUP3 ADD MSTORE POP JUMP JUMPDEST PUSH1 0x0 PUSH2 0x4741 PUSH1 0x25 DUP4 PUSH2 0x35DA JUMP JUMPDEST SWAP2 POP PUSH2 0x474C DUP3 PUSH2 0x46E5 JUMP JUMPDEST PUSH1 0x40 DUP3 ADD SWAP1 POP SWAP2 SWAP1 POP JUMP JUMPDEST PUSH1 0x0 PUSH1 0x20 DUP3 ADD SWAP1 POP DUP2 DUP2 SUB PUSH1 0x0 DUP4 ADD MSTORE PUSH2 0x4770 DUP2 PUSH2 0x4734 JUMP JUMPDEST SWAP1 POP SWAP2 SWAP1 POP JUMP JUMPDEST PUSH1 0x0 PUSH2 0x100 DUP3 ADD SWAP1 POP PUSH2 0x478D PUSH1 0x0 DUP4 ADD DUP12 PUSH2 0x34BD JUMP JUMPDEST PUSH2 0x479A PUSH1 0x20 DUP4 ADD DUP11 PUSH2 0x34BD JUMP JUMPDEST PUSH2 0x47A7 PUSH1 0x40 DUP4 ADD DUP10 PUSH2 0x394D JUMP JUMPDEST PUSH2 0x47B4 PUSH1 0x60 DUP4 ADD DUP9 PUSH2 0x34BD JUMP JUMPDEST PUSH2 0x47C1 PUSH1 0x80 DUP4 ADD DUP8 PUSH2 0x34BD JUMP JUMPDEST PUSH2 0x47CE PUSH1 0xA0 DUP4 ADD DUP7 PUSH2 0x34BD JUMP JUMPDEST PUSH2 0x47DB PUSH1 0xC0 DUP4 ADD DUP6 PUSH2 0x34BD JUMP JUMPDEST PUSH2 0x47E8 PUSH1 0xE0 DUP4 ADD DUP5 PUSH2 0x34BD JUMP JUMPDEST SWAP10 SWAP9 POP POP POP POP POP POP POP POP POP JUMP JUMPDEST PUSH32 0x74686520736F6E67496420646F65736E277420657869737473206F72206E6F74 PUSH1 0x0 DUP3 ADD MSTORE PUSH32 0x2076616C69640000000000000000000000000000000000000000000000000000 PUSH1 0x20 DUP3 ADD MSTORE POP JUMP JUMPDEST PUSH1 0x0 PUSH2 0x4851 PUSH1 0x26 DUP4 PUSH2 0x35DA JUMP JUMPDEST SWAP2 POP PUSH2 0x485C DUP3 PUSH2 0x47F5 JUMP JUMPDEST PUSH1 0x40 DUP3 ADD SWAP1 POP SWAP2 SWAP1 POP JUMP JUMPDEST PUSH1 0x0 PUSH1 0x20 DUP3 ADD SWAP1 POP DUP2 DUP2 SUB PUSH1 0x0 DUP4 ADD MSTORE PUSH2 0x4880 DUP2 PUSH2 0x4844 JUMP JUMPDEST SWAP1 POP SWAP2 SWAP1 POP JUMP JUMPDEST PUSH32 0x506C6561736520706179207468652066756C6C20616D6F756E74000000000000 PUSH1 0x0 DUP3 ADD MSTORE POP JUMP JUMPDEST PUSH1 0x0 PUSH2 0x48BD PUSH1 0x1A DUP4 PUSH2 0x35DA JUMP JUMPDEST SWAP2 POP PUSH2 0x48C8 DUP3 PUSH2 0x4887 JUMP JUMPDEST PUSH1 0x20 DUP3 ADD SWAP1 POP SWAP2 SWAP1 POP JUMP JUMPDEST PUSH1 0x0 PUSH1 0x20 DUP3 ADD SWAP1 POP DUP2 DUP2 SUB PUSH1 0x0 DUP4 ADD MSTORE PUSH2 0x48EC DUP2 PUSH2 0x48B0 JUMP JUMPDEST SWAP1 POP SWAP2 SWAP1 POP JUMP JUMPDEST PUSH1 0x0 PUSH2 0x48FE DUP3 PUSH2 0x33E9 JUMP JUMPDEST SWAP1 POP SWAP2 SWAP1 POP JUMP JUMPDEST PUSH2 0x490E DUP2 PUSH2 0x48F3 JUMP JUMPDEST DUP3 MSTORE POP POP JUMP JUMPDEST PUSH1 0x0 PUSH1 0x80 DUP3 ADD SWAP1 POP PUSH2 0x4929 PUSH1 0x0 DUP4 ADD DUP8 PUSH2 0x34BD JUMP JUMPDEST PUSH2 0x4936 PUSH1 0x20 DUP4 ADD DUP7 PUSH2 0x4905 JUMP JUMPDEST PUSH2 0x4943 PUSH1 0x40 DUP4 ADD DUP6 PUSH2 0x394D JUMP JUMPDEST PUSH2 0x4950 PUSH1 0x60 DUP4 ADD DUP5 PUSH2 0x394D JUMP JUMPDEST SWAP6 SWAP5 POP POP POP POP POP JUMP JUMPDEST PUSH1 0x0 PUSH1 0x40 DUP3 ADD SWAP1 POP PUSH2 0x496E PUSH1 0x0 DUP4 ADD DUP6 PUSH2 0x34BD JUMP JUMPDEST PUSH2 0x497B PUSH1 0x20 DUP4 ADD DUP5 PUSH2 0x394D JUMP JUMPDEST SWAP4 SWAP3 POP POP POP JUMP JUMPDEST PUSH32 0x4F776E61626C653A206E6577206F776E657220697320746865207A65726F2061 PUSH1 0x0 DUP3 ADD MSTORE PUSH32 0x6464726573730000000000000000000000000000000000000000000000000000 PUSH1 0x20 DUP3 ADD MSTORE POP JUMP JUMPDEST PUSH1 0x0 PUSH2 0x49DE PUSH1 0x26 DUP4 PUSH2 0x35DA JUMP JUMPDEST SWAP2 POP PUSH2 0x49E9 DUP3 PUSH2 0x4982 JUMP JUMPDEST PUSH1 0x40 DUP3 ADD SWAP1 POP SWAP2 SWAP1 POP JUMP JUMPDEST PUSH1 0x0 PUSH1 0x20 DUP3 ADD SWAP1 POP DUP2 DUP2 SUB PUSH1 0x0 DUP4 ADD MSTORE PUSH2 0x4A0D DUP2 PUSH2 0x49D1 JUMP JUMPDEST SWAP1 POP SWAP2 SWAP1 POP JUMP JUMPDEST PUSH1 0x0 PUSH2 0x4A21 PUSH1 0x0 DUP4 PUSH2 0x35DA JUMP JUMPDEST SWAP2 POP PUSH2 0x4A2C DUP3 PUSH2 0x434E JUMP JUMPDEST PUSH1 0x0 DUP3 ADD SWAP1 POP SWAP2 SWAP1 POP JUMP JUMPDEST PUSH1 0x0 PUSH1 0x20 DUP3 ADD SWAP1 POP DUP2 DUP2 SUB PUSH1 0x0 DUP4 ADD MSTORE PUSH2 0x4A50 DUP2 PUSH2 0x4A14 JUMP JUMPDEST SWAP1 POP SWAP2 SWAP1 POP JUMP JUMPDEST PUSH32 0x4E487B7100000000000000000000000000000000000000000000000000000000 PUSH1 0x0 MSTORE PUSH1 0x22 PUSH1 0x4 MSTORE PUSH1 0x24 PUSH1 0x0 REVERT JUMPDEST PUSH1 0x0 PUSH1 0x2 DUP3 DIV SWAP1 POP PUSH1 0x1 DUP3 AND DUP1 PUSH2 0x4A9E JUMPI PUSH1 0x7F DUP3 AND SWAP2 POP JUMPDEST PUSH1 0x20 DUP3 LT DUP2 SUB PUSH2 0x4AB1 JUMPI PUSH2 0x4AB0 PUSH2 0x4A57 JUMP JUMPDEST JUMPDEST POP SWAP2 SWAP1 POP JUMP JUMPDEST PUSH1 0x0 DUP2 SWAP1 POP SWAP3 SWAP2 POP POP JUMP JUMPDEST PUSH1 0x0 DUP2 SWAP1 POP DUP2 PUSH1 0x0 MSTORE PUSH1 0x20 PUSH1 0x0 KECCAK256 SWAP1 POP SWAP2 SWAP1 POP JUMP JUMPDEST PUSH1 0x0 DUP2 SLOAD PUSH2 0x4AE4 DUP2 PUSH2 0x4A86 JUMP JUMPDEST PUSH2 0x4AEE DUP2 DUP7 PUSH2 0x4AB7 JUMP JUMPDEST SWAP5 POP PUSH1 0x1 DUP3 AND PUSH1 0x0 DUP2 EQ PUSH2 0x4B09 JUMPI PUSH1 0x1 DUP2 EQ PUSH2 0x4B1E JUMPI PUSH2 0x4B51 JUMP JUMPDEST PUSH1 0xFF NOT DUP4 AND DUP7 MSTORE DUP2 ISZERO ISZERO DUP3 MUL DUP7 ADD SWAP4 POP PUSH2 0x4B51 JUMP JUMPDEST PUSH2 0x4B27 DUP6 PUSH2 0x4AC2 JUMP JUMPDEST PUSH1 0x0 JUMPDEST DUP4 DUP2 LT ISZERO PUSH2 0x4B49 JUMPI DUP2 SLOAD DUP2 DUP10 ADD MSTORE PUSH1 0x1 DUP3 ADD SWAP2 POP PUSH1 0x20 DUP2 ADD SWAP1 POP PUSH2 0x4B2A JUMP JUMPDEST DUP4 DUP9 ADD SWAP6 POP POP POP JUMPDEST POP POP POP SWAP3 SWAP2 POP POP JUMP JUMPDEST PUSH1 0x0 PUSH2 0x4B65 DUP3 PUSH2 0x35CF JUMP JUMPDEST PUSH2 0x4B6F DUP2 DUP6 PUSH2 0x4AB7 JUMP JUMPDEST SWAP4 POP PUSH2 0x4B7F DUP2 DUP6 PUSH1 0x20 DUP7 ADD PUSH2 0x35EB JUMP JUMPDEST DUP1 DUP5 ADD SWAP2 POP POP SWAP3 SWAP2 POP POP JUMP JUMPDEST PUSH1 0x0 PUSH2 0x4B97 DUP3 DUP6 PUSH2 0x4AD7 JUMP JUMPDEST SWAP2 POP PUSH2 0x4BA3 DUP3 DUP5 PUSH2 0x4B5A JUMP JUMPDEST SWAP2 POP DUP2 SWAP1 POP SWAP4 SWAP3 POP POP POP JUMP JUMPDEST PUSH32 0x455243313135353A2069647320616E6420616D6F756E7473206C656E67746820 PUSH1 0x0 DUP3 ADD MSTORE PUSH32 0x6D69736D61746368000000000000000000000000000000000000000000000000 PUSH1 0x20 DUP3 ADD MSTORE POP JUMP JUMPDEST PUSH1 0x0 PUSH2 0x4C0B PUSH1 0x28 DUP4 PUSH2 0x35DA JUMP JUMPDEST SWAP2 POP PUSH2 0x4C16 DUP3 PUSH2 0x4BAF JUMP JUMPDEST PUSH1 0x40 DUP3 ADD SWAP1 POP SWAP2 SWAP1 POP JUMP JUMPDEST PUSH1 0x0 PUSH1 0x20 DUP3 ADD SWAP1 POP DUP2 DUP2 SUB PUSH1 0x0 DUP4 ADD MSTORE PUSH2 0x4C3A DUP2 PUSH2 0x4BFE JUMP JUMPDEST SWAP1 POP SWAP2 SWAP1 POP JUMP JUMPDEST PUSH32 0x455243313135353A207472616E7366657220746F20746865207A65726F206164 PUSH1 0x0 DUP3 ADD MSTORE PUSH32 0x6472657373000000000000000000000000000000000000000000000000000000 PUSH1 0x20 DUP3 ADD MSTORE POP JUMP JUMPDEST PUSH1 0x0 PUSH2 0x4C9D PUSH1 0x25 DUP4 PUSH2 0x35DA JUMP JUMPDEST SWAP2 POP PUSH2 0x4CA8 DUP3 PUSH2 0x4C41 JUMP JUMPDEST PUSH1 0x40 DUP3 ADD SWAP1 POP SWAP2 SWAP1 POP JUMP JUMPDEST PUSH1 0x0 PUSH1 0x20 DUP3 ADD SWAP1 POP DUP2 DUP2 SUB PUSH1 0x0 DUP4 ADD MSTORE PUSH2 0x4CCC DUP2 PUSH2 0x4C90 JUMP JUMPDEST SWAP1 POP SWAP2 SWAP1 POP JUMP JUMPDEST PUSH32 0x455243313135353A20696E73756666696369656E742062616C616E636520666F PUSH1 0x0 DUP3 ADD MSTORE PUSH32 0x72207472616E7366657200000000000000000000000000000000000000000000 PUSH1 0x20 DUP3 ADD MSTORE POP JUMP JUMPDEST PUSH1 0x0 PUSH2 0x4D2F PUSH1 0x2A DUP4 PUSH2 0x35DA JUMP JUMPDEST SWAP2 POP PUSH2 0x4D3A DUP3 PUSH2 0x4CD3 JUMP JUMPDEST PUSH1 0x40 DUP3 ADD SWAP1 POP SWAP2 SWAP1 POP JUMP JUMPDEST PUSH1 0x0 PUSH1 0x20 DUP3 ADD SWAP1 POP DUP2 DUP2 SUB PUSH1 0x0 DUP4 ADD MSTORE PUSH2 0x4D5E DUP2 PUSH2 0x4D22 JUMP JUMPDEST SWAP1 POP SWAP2 SWAP1 POP JUMP JUMPDEST PUSH1 0x0 PUSH1 0x40 DUP3 ADD SWAP1 POP DUP2 DUP2 SUB PUSH1 0x0 DUP4 ADD MSTORE PUSH2 0x4D7F DUP2 DUP6 PUSH2 0x3D86 JUMP JUMPDEST SWAP1 POP DUP2 DUP2 SUB PUSH1 0x20 DUP4 ADD MSTORE PUSH2 0x4D93 DUP2 DUP5 PUSH2 0x3D86 JUMP JUMPDEST SWAP1 POP SWAP4 SWAP3 POP POP POP JUMP JUMPDEST PUSH32 0x455243313135353A206D696E7420746F20746865207A65726F20616464726573 PUSH1 0x0 DUP3 ADD MSTORE PUSH32 0x7300000000000000000000000000000000000000000000000000000000000000 PUSH1 0x20 DUP3 ADD MSTORE POP JUMP JUMPDEST PUSH1 0x0 PUSH2 0x4DF8 PUSH1 0x21 DUP4 PUSH2 0x35DA JUMP JUMPDEST SWAP2 POP PUSH2 0x4E03 DUP3 PUSH2 0x4D9C JUMP JUMPDEST PUSH1 0x40 DUP3 ADD SWAP1 POP SWAP2 SWAP1 POP JUMP JUMPDEST PUSH1 0x0 PUSH1 0x20 DUP3 ADD SWAP1 POP DUP2 DUP2 SUB PUSH1 0x0 DUP4 ADD MSTORE PUSH2 0x4E27 DUP2 PUSH2 0x4DEB JUMP JUMPDEST SWAP1 POP SWAP2 SWAP1 POP JUMP JUMPDEST PUSH1 0x0 PUSH1 0x40 DUP3 ADD SWAP1 POP PUSH2 0x4E43 PUSH1 0x0 DUP4 ADD DUP6 PUSH2 0x34BD JUMP JUMPDEST PUSH2 0x4E50 PUSH1 0x20 DUP4 ADD DUP5 PUSH2 0x34BD JUMP JUMPDEST SWAP4 SWAP3 POP POP POP JUMP JUMPDEST PUSH1 0x0 PUSH1 0x20 PUSH1 0x1F DUP4 ADD DIV SWAP1 POP SWAP2 SWAP1 POP JUMP JUMPDEST PUSH1 0x0 DUP3 DUP3 SHL SWAP1 POP SWAP3 SWAP2 POP POP JUMP JUMPDEST PUSH1 0x0 PUSH1 0x8 DUP4 MUL PUSH2 0x4EA4 PUSH32 0xFFFFFFFFFFFFFFFFFFFFFFFFFFFFFFFFFFFFFFFFFFFFFFFFFFFFFFFFFFFFFFFF DUP3 PUSH2 0x4E67 JUMP JUMPDEST PUSH2 0x4EAE DUP7 DUP4 PUSH2 0x4E67 JUMP JUMPDEST SWAP6 POP DUP1 NOT DUP5 AND SWAP4 POP DUP1 DUP7 AND DUP5 OR SWAP3 POP POP POP SWAP4 SWAP3 POP POP POP JUMP JUMPDEST PUSH1 0x0 DUP2 SWAP1 POP SWAP2 SWAP1 POP JUMP JUMPDEST PUSH1 0x0 PUSH2 0x4EEB PUSH2 0x4EE6 PUSH2 0x4EE1 DUP5 PUSH2 0x3447 JUMP JUMPDEST PUSH2 0x4EC6 JUMP JUMPDEST PUSH2 0x3447 JUMP JUMPDEST SWAP1 POP SWAP2 SWAP1 POP JUMP JUMPDEST PUSH1 0x0 DUP2 SWAP1 POP SWAP2 SWAP1 POP JUMP JUMPDEST PUSH2 0x4F05 DUP4 PUSH2 0x4ED0 JUMP JUMPDEST PUSH2 0x4F19 PUSH2 0x4F11 DUP3 PUSH2 0x4EF2 JUMP JUMPDEST DUP5 DUP5 SLOAD PUSH2 0x4E74 JUMP JUMPDEST DUP3 SSTORE POP POP POP POP JUMP JUMPDEST PUSH1 0x0 SWAP1 JUMP JUMPDEST PUSH2 0x4F2E PUSH2 0x4F21 JUMP JUMPDEST PUSH2 0x4F39 DUP2 DUP5 DUP5 PUSH2 0x4EFC JUMP JUMPDEST POP POP POP JUMP JUMPDEST JUMPDEST DUP2 DUP2 LT ISZERO PUSH2 0x4F5D JUMPI PUSH2 0x4F52 PUSH1 0x0 DUP3 PUSH2 0x4F26 JUMP JUMPDEST PUSH1 0x1 DUP2 ADD SWAP1 POP PUSH2 0x4F3F JUMP JUMPDEST POP POP JUMP JUMPDEST PUSH1 0x1F DUP3 GT ISZERO PUSH2 0x4FA2 JUMPI PUSH2 0x4F73 DUP2 PUSH2 0x4AC2 JUMP JUMPDEST PUSH2 0x4F7C DUP5 PUSH2 0x4E57 JUMP JUMPDEST DUP2 ADD PUSH1 0x20 DUP6 LT ISZERO PUSH2 0x4F8B JUMPI DUP2 SWAP1 POP JUMPDEST PUSH2 0x4F9F PUSH2 0x4F97 DUP6 PUSH2 0x4E57 JUMP JUMPDEST DUP4 ADD DUP3 PUSH2 0x4F3E JUMP JUMPDEST POP POP JUMPDEST POP POP POP JUMP JUMPDEST PUSH1 0x0 DUP3 DUP3 SHR SWAP1 POP SWAP3 SWAP2 POP POP JUMP JUMPDEST PUSH1 0x0 PUSH2 0x4FC5 PUSH1 0x0 NOT DUP5 PUSH1 0x8 MUL PUSH2 0x4FA7 JUMP JUMPDEST NOT DUP1 DUP4 AND SWAP2 POP POP SWAP3 SWAP2 POP POP JUMP JUMPDEST PUSH1 0x0 PUSH2 0x4FDE DUP4 DUP4 PUSH2 0x4FB4 JUMP JUMPDEST SWAP2 POP DUP3 PUSH1 0x2 MUL DUP3 OR SWAP1 POP SWAP3 SWAP2 POP POP JUMP JUMPDEST PUSH2 0x4FF7 DUP3 PUSH2 0x35CF JUMP JUMPDEST PUSH8 0xFFFFFFFFFFFFFFFF DUP2 GT ISZERO PUSH2 0x5010 JUMPI PUSH2 0x500F PUSH2 0x3686 JUMP JUMPDEST JUMPDEST PUSH2 0x501A DUP3 SLOAD PUSH2 0x4A86 JUMP JUMPDEST PUSH2 0x5025 DUP3 DUP3 DUP6 PUSH2 0x4F61 JUMP JUMPDEST PUSH1 0x0 PUSH1 0x20 SWAP1 POP PUSH1 0x1F DUP4 GT PUSH1 0x1 DUP2 EQ PUSH2 0x5058 JUMPI PUSH1 0x0 DUP5 ISZERO PUSH2 0x5046 JUMPI DUP3 DUP8 ADD MLOAD SWAP1 POP JUMPDEST PUSH2 0x5050 DUP6 DUP3 PUSH2 0x4FD2 JUMP JUMPDEST DUP7 SSTORE POP PUSH2 0x50B8 JUMP JUMPDEST PUSH1 0x1F NOT DUP5 AND PUSH2 0x5066 DUP7 PUSH2 0x4AC2 JUMP JUMPDEST PUSH1 0x0 JUMPDEST DUP3 DUP2 LT ISZERO PUSH2 0x508E JUMPI DUP5 DUP10 ADD MLOAD DUP3 SSTORE PUSH1 0x1 DUP3 ADD SWAP2 POP PUSH1 0x20 DUP6 ADD SWAP5 POP PUSH1 0x20 DUP2 ADD SWAP1 POP PUSH2 0x5069 JUMP JUMPDEST DUP7 DUP4 LT ISZERO PUSH2 0x50AB JUMPI DUP5 DUP10 ADD MLOAD PUSH2 0x50A7 PUSH1 0x1F DUP10 AND DUP3 PUSH2 0x4FB4 JUMP JUMPDEST DUP4 SSTORE POP JUMPDEST PUSH1 0x1 PUSH1 0x2 DUP9 MUL ADD DUP9 SSTORE POP POP POP JUMPDEST POP POP POP POP POP POP JUMP JUMPDEST PUSH32 0x4F776E61626C653A2063616C6C6572206973206E6F7420746865206F776E6572 PUSH1 0x0 DUP3 ADD MSTORE POP JUMP JUMPDEST PUSH1 0x0 PUSH2 0x50F6 PUSH1 0x20 DUP4 PUSH2 0x35DA JUMP JUMPDEST SWAP2 POP PUSH2 0x5101 DUP3 PUSH2 0x50C0 JUMP JUMPDEST PUSH1 0x20 DUP3 ADD SWAP1 POP SWAP2 SWAP1 POP JUMP JUMPDEST PUSH1 0x0 PUSH1 0x20 DUP3 ADD SWAP1 POP DUP2 DUP2 SUB PUSH1 0x0 DUP4 ADD MSTORE PUSH2 0x5125 DUP2 PUSH2 0x50E9 JUMP JUMPDEST SWAP1 POP SWAP2 SWAP1 POP JUMP JUMPDEST PUSH32 0x455243313135353A2073657474696E6720617070726F76616C20737461747573 PUSH1 0x0 DUP3 ADD MSTORE PUSH32 0x20666F722073656C660000000000000000000000000000000000000000000000 PUSH1 0x20 DUP3 ADD MSTORE POP JUMP JUMPDEST PUSH1 0x0 PUSH2 0x5188 PUSH1 0x29 DUP4 PUSH2 0x35DA JUMP JUMPDEST SWAP2 POP PUSH2 0x5193 DUP3 PUSH2 0x512C JUMP JUMPDEST PUSH1 0x40 DUP3 ADD SWAP1 POP SWAP2 SWAP1 POP JUMP JUMPDEST PUSH1 0x0 PUSH1 0x20 DUP3 ADD SWAP1 POP DUP2 DUP2 SUB PUSH1 0x0 DUP4 ADD MSTORE PUSH2 0x51B7 DUP2 PUSH2 0x517B JUMP JUMPDEST SWAP1 POP SWAP2 SWAP1 POP JUMP JUMPDEST PUSH1 0x0 DUP2 MLOAD SWAP1 POP SWAP2 SWAP1 POP JUMP JUMPDEST PUSH1 0x0 DUP3 DUP3 MSTORE PUSH1 0x20 DUP3 ADD SWAP1 POP SWAP3 SWAP2 POP POP JUMP JUMPDEST PUSH1 0x0 PUSH2 0x51E5 DUP3 PUSH2 0x51BE JUMP JUMPDEST PUSH2 0x51EF DUP2 DUP6 PUSH2 0x51C9 JUMP JUMPDEST SWAP4 POP PUSH2 0x51FF DUP2 DUP6 PUSH1 0x20 DUP7 ADD PUSH2 0x35EB JUMP JUMPDEST PUSH2 0x5208 DUP2 PUSH2 0x3615 JUMP JUMPDEST DUP5 ADD SWAP2 POP POP SWAP3 SWAP2 POP POP JUMP JUMPDEST PUSH1 0x0 PUSH1 0xA0 DUP3 ADD SWAP1 POP PUSH2 0x5228 PUSH1 0x0 DUP4 ADD DUP9 PUSH2 0x394D JUMP JUMPDEST PUSH2 0x5235 PUSH1 0x20 DUP4 ADD DUP8 PUSH2 0x394D JUMP JUMPDEST DUP2 DUP2 SUB PUSH1 0x40 DUP4 ADD MSTORE PUSH2 0x5247 DUP2 DUP7 PUSH2 0x3D86 JUMP JUMPDEST SWAP1 POP DUP2 DUP2 SUB PUSH1 0x60 DUP4 ADD MSTORE PUSH2 0x525B DUP2 DUP6 PUSH2 0x3D86 JUMP JUMPDEST SWAP1 POP DUP2 DUP2 SUB PUSH1 0x80 DUP4 ADD MSTORE PUSH2 0x526F DUP2 DUP5 PUSH2 0x51DA JUMP JUMPDEST SWAP1 POP SWAP7 SWAP6 POP POP POP POP POP POP JUMP JUMPDEST PUSH1 0x0 DUP2 MLOAD SWAP1 POP PUSH2 0x528A DUP2 PUSH2 0x3513 JUMP JUMPDEST SWAP3 SWAP2 POP POP JUMP JUMPDEST PUSH1 0x0 PUSH1 0x20 DUP3 DUP5 SUB SLT ISZERO PUSH2 0x52A6 JUMPI PUSH2 0x52A5 PUSH2 0x33DF JUMP JUMPDEST JUMPDEST PUSH1 0x0 PUSH2 0x52B4 DUP5 DUP3 DUP6 ADD PUSH2 0x527B JUMP JUMPDEST SWAP2 POP POP SWAP3 SWAP2 POP POP JUMP JUMPDEST PUSH1 0x0 DUP2 PUSH1 0xE0 SHR SWAP1 POP SWAP2 SWAP1 POP JUMP JUMPDEST PUSH1 0x0 PUSH1 0x3 RETURNDATASIZE GT ISZERO PUSH2 0x52E9 JUMPI PUSH1 0x4 PUSH1 0x0 DUP1 RETURNDATACOPY PUSH2 0x52E6 PUSH1 0x0 MLOAD PUSH2 0x52BD JUMP JUMPDEST SWAP1 POP JUMPDEST SWAP1 JUMP JUMPDEST PUSH1 0x0 PUSH1 0x44 RETURNDATASIZE LT PUSH2 0x5379 JUMPI PUSH2 0x52FE PUSH2 0x33D5 JUMP JUMPDEST PUSH1 0x4 RETURNDATASIZE SUB PUSH1 0x4 DUP3 RETURNDATACOPY DUP1 MLOAD RETURNDATASIZE PUSH1 0x24 DUP3 ADD GT PUSH8 0xFFFFFFFFFFFFFFFF DUP3 GT OR ISZERO PUSH2 0x5326 JUMPI POP POP PUSH2 0x5379 JUMP JUMPDEST DUP1 DUP3 ADD DUP1 MLOAD PUSH8 0xFFFFFFFFFFFFFFFF DUP2 GT ISZERO PUSH2 0x5344 JUMPI POP POP POP POP PUSH2 0x5379 JUMP JUMPDEST DUP1 PUSH1 0x20 DUP4 ADD ADD PUSH1 0x4 RETURNDATASIZE SUB DUP6 ADD DUP2 GT ISZERO PUSH2 0x5361 JUMPI POP POP POP POP POP PUSH2 0x5379 JUMP JUMPDEST PUSH2 0x5370 DUP3 PUSH1 0x20 ADD DUP6 ADD DUP7 PUSH2 0x36B5 JUMP JUMPDEST DUP3 SWAP6 POP POP POP POP POP POP JUMPDEST SWAP1 JUMP JUMPDEST PUSH32 0x455243313135353A207472616E7366657220746F206E6F6E2D45524331313535 PUSH1 0x0 DUP3 ADD MSTORE PUSH32 0x526563656976657220696D706C656D656E746572000000000000000000000000 PUSH1 0x20 DUP3 ADD MSTORE POP JUMP JUMPDEST PUSH1 0x0 PUSH2 0x53D8 PUSH1 0x34 DUP4 PUSH2 0x35DA JUMP JUMPDEST SWAP2 POP PUSH2 0x53E3 DUP3 PUSH2 0x537C JUMP JUMPDEST PUSH1 0x40 DUP3 ADD SWAP1 POP SWAP2 SWAP1 POP JUMP JUMPDEST PUSH1 0x0 PUSH1 0x20 DUP3 ADD SWAP1 POP DUP2 DUP2 SUB PUSH1 0x0 DUP4 ADD MSTORE PUSH2 0x5407 DUP2 PUSH2 0x53CB JUMP JUMPDEST SWAP1 POP SWAP2 SWAP1 POP JUMP JUMPDEST PUSH32 0x455243313135353A204552433131353552656365697665722072656A65637465 PUSH1 0x0 DUP3 ADD MSTORE PUSH32 0x6420746F6B656E73000000000000000000000000000000000000000000000000 PUSH1 0x20 DUP3 ADD MSTORE POP JUMP JUMPDEST PUSH1 0x0 PUSH2 0x546A PUSH1 0x28 DUP4 PUSH2 0x35DA JUMP JUMPDEST SWAP2 POP PUSH2 0x5475 DUP3 PUSH2 0x540E JUMP JUMPDEST PUSH1 0x40 DUP3 ADD SWAP1 POP SWAP2 SWAP1 POP JUMP JUMPDEST PUSH1 0x0 PUSH1 0x20 DUP3 ADD SWAP1 POP DUP2 DUP2 SUB PUSH1 0x0 DUP4 ADD MSTORE PUSH2 0x5499 DUP2 PUSH2 0x545D JUMP JUMPDEST SWAP1 POP SWAP2 SWAP1 POP JUMP JUMPDEST PUSH1 0x0 PUSH1 0xA0 DUP3 ADD SWAP1 POP PUSH2 0x54B5 PUSH1 0x0 DUP4 ADD DUP9 PUSH2 0x394D JUMP JUMPDEST PUSH2 0x54C2 PUSH1 0x20 DUP4 ADD DUP8 PUSH2 0x394D JUMP JUMPDEST PUSH2 0x54CF PUSH1 0x40 DUP4 ADD DUP7 PUSH2 0x34BD JUMP JUMPDEST PUSH2 0x54DC PUSH1 0x60 DUP4 ADD DUP6 PUSH2 0x34BD JUMP JUMPDEST DUP2 DUP2 SUB PUSH1 0x80 DUP4 ADD MSTORE PUSH2 0x54EE DUP2 DUP5 PUSH2 0x51DA JUMP JUMPDEST SWAP1 POP SWAP7 SWAP6 POP POP POP POP POP POP JUMP JUMPDEST PUSH32 0x455243313135353A206275726E20616D6F756E74206578636565647320746F74 PUSH1 0x0 DUP3 ADD MSTORE PUSH32 0x616C537570706C79000000000000000000000000000000000000000000000000 PUSH1 0x20 DUP3 ADD MSTORE POP JUMP JUMPDEST PUSH1 0x0 PUSH2 0x5556 PUSH1 0x28 DUP4 PUSH2 0x35DA JUMP JUMPDEST SWAP2 POP PUSH2 0x5561 DUP3 PUSH2 0x54FA JUMP JUMPDEST PUSH1 0x40 DUP3 ADD SWAP1 POP SWAP2 SWAP1 POP JUMP JUMPDEST PUSH1 0x0 PUSH1 0x20 DUP3 ADD SWAP1 POP DUP2 DUP2 SUB PUSH1 0x0 DUP4 ADD MSTORE PUSH2 0x5585 DUP2 PUSH2 0x5549 JUMP JUMPDEST SWAP1 POP SWAP2 SWAP1 POP JUMP INVALID LOG2 PUSH5 0x6970667358 0x22 SLT KECCAK256 AND 0xB1 EQ PUSH18 0xC6E5A29DDE7E7F133548DAE38CB5CD1C0C3B ADDMOD PUSH18 0x7608357754F3C4FE64736F6C634300081100 CALLER "},"methodIdentifiers":{"balanceOf(address,uint256)":"00fdd58e","balanceOfBatch(address[],uint256[])":"4e1273f4","buyLimitedSong(uint256)":"fad00ac2","buyRegularSong(uint256)":"eea7eaf6","createSong(uint256,uint256,uint256,string,string,uint256,uint256)":"5bc7a7d8","exists(uint256)":"4f558e79","getCurrentSongId()":"5fe34985","getSong(uint256)":"42acaa66","isApprovedForAll(address,address)":"e985e9c5","owner()":"8da5cb5b","renounceOwnership()":"715018a6","safeBatchTransferFrom(address,address,uint256[],uint256[],bytes)":"2eb2c2d6","safeTransferFrom(address,address,uint256,uint256,bytes)":"f242432a","setApprovalForAll(address,bool)":"a22cb465","songOwners(address,uint256)":"4a3ff340","songs(uint256)":"304cff30","songsArray(uint256)":"b9414d31","supportsInterface(bytes4)":"01ffc9a7","totalSupply(uint256)":"bd85b039","transferOwnership(address)":"f2fde38b","uri(uint256)":"0e89341c","withdrawRoyalities()":"7c76c232","withdrawRoyalitiesX()":"2935ff41"}}}}}