{
  "_format": "hh-sol-artifact-1",
  "contractName": "Escrow",
  "sourceName": "contracts/Escrow.sol",
  "abi": [
    {
      "inputs": [
        {
          "internalType": "uint256",
          "name": "ltdSongId",
          "type": "uint256"
        },
        {
          "internalType": "address payable",
          "name": "_radio",
          "type": "address"
        },
        {
          "internalType": "address",
          "name": "artist",
          "type": "address"
        },
        {
          "internalType": "address",
          "name": "to",
          "type": "address"
        }
      ],
      "name": "buyLimitedSong",
      "outputs": [],
      "stateMutability": "nonpayable",
      "type": "function"
    },
    {
      "inputs": [
        {
          "internalType": "uint256",
          "name": "songId",
          "type": "uint256"
        },
        {
          "internalType": "address payable",
          "name": "_radio",
          "type": "address"
        },
        {
          "internalType": "address",
          "name": "artist",
          "type": "address"
        },
        {
          "internalType": "address",
          "name": "to",
          "type": "address"
        }
      ],
      "name": "buyRegularSong",
      "outputs": [],
      "stateMutability": "nonpayable",
      "type": "function"
    }
  ],
  "bytecode": "0x608060405234801561001057600080fd5b50610444806100206000396000f3fe608060405234801561001057600080fd5b50600436106100365760003560e01c806313f2da7b1461003b578063cca8c2ec14610057575b600080fd5b610055600480360381019061005091906102b5565b610073565b005b610071600480360381019061006c91906102b5565b610127565b005b61008767be7b7e6202b6531860c01b6101db565b61009b67d10485773952b8a560c01b6101db565b6100af67ab1825b025469bdb60c01b6101db565b8273ffffffffffffffffffffffffffffffffffffffff1663f242432a83838760016040518563ffffffff1660e01b81526004016100ef94939291906103b6565b600060405180830381600087803b15801561010957600080fd5b505af115801561011d573d6000803e3d6000fd5b5050505050505050565b61013b678ca689f5504a47d860c01b6101db565b61014f671a0136bc1b8ed81c60c01b6101db565b61016367cbb28825e563cc8260c01b6101db565b8273ffffffffffffffffffffffffffffffffffffffff1663f242432a83838760016040518563ffffffff1660e01b81526004016101a394939291906103b6565b600060405180830381600087803b1580156101bd57600080fd5b505af11580156101d1573d6000803e3d6000fd5b5050505050505050565b50565b600080fd5b6000819050919050565b6101f6816101e3565b811461020157600080fd5b50565b600081359050610213816101ed565b92915050565b600073ffffffffffffffffffffffffffffffffffffffff82169050919050565b600061024482610219565b9050919050565b61025481610239565b811461025f57600080fd5b50565b6000813590506102718161024b565b92915050565b600061028282610219565b9050919050565b61029281610277565b811461029d57600080fd5b50565b6000813590506102af81610289565b92915050565b600080600080608085870312156102cf576102ce6101de565b5b60006102dd87828801610204565b94505060206102ee87828801610262565b93505060406102ff878288016102a0565b9250506060610310878288016102a0565b91505092959194509250565b61032581610277565b82525050565b610334816101e3565b82525050565b6000819050919050565b6000819050919050565b600061036961036461035f8461033a565b610344565b6101e3565b9050919050565b6103798161034e565b82525050565b600082825260208201905092915050565b50565b60006103a060008361037f565b91506103ab82610390565b600082019050919050565b600060a0820190506103cb600083018761031c565b6103d8602083018661031c565b6103e5604083018561032b565b6103f26060830184610370565b818103608083015261040381610393565b90509594505050505056fea26469706673582212200bc80ab5b5d8064f85719ba068933ccef11de46cd8da8092d565f5f61ce5323364736f6c63430008110033",
  "linkReferences": {},
  "deployedLinkReferences": {}
}