{
  "_format": "hh-sol-artifact-1",
  "contractName": "Escrow",
  "sourceName": "contracts/Escrow.sol",
  "abi": [
    {
      "inputs": [
        {
          "internalType": "uint256",
          "name": "ltdSongId",
          "type": "uint256"
        },
        {
          "internalType": "address payable",
          "name": "_radio",
          "type": "address"
        },
        {
          "internalType": "address",
          "name": "artist",
          "type": "address"
        },
        {
          "internalType": "address",
          "name": "to",
          "type": "address"
        }
      ],
      "name": "buyLimitedSong",
      "outputs": [],
      "stateMutability": "nonpayable",
      "type": "function"
    },
    {
      "inputs": [
        {
          "internalType": "uint256",
          "name": "songId",
          "type": "uint256"
        },
        {
          "internalType": "address payable",
          "name": "_radio",
          "type": "address"
        },
        {
          "internalType": "address",
          "name": "artist",
          "type": "address"
        },
        {
          "internalType": "address",
          "name": "to",
          "type": "address"
        }
      ],
      "name": "buyRegularSong",
      "outputs": [],
      "stateMutability": "nonpayable",
      "type": "function"
    }
  ],
  "bytecode": "0x608060405234801561001057600080fd5b506103c9806100206000396000f3fe608060405234801561001057600080fd5b50600436106100365760003560e01c806313f2da7b1461003b578063cca8c2ec14610057575b600080fd5b6100556004803603810190610050919061023a565b610073565b005b610071600480360381019061006c919061023a565b6100eb565b005b8273ffffffffffffffffffffffffffffffffffffffff1663f242432a83838760016040518563ffffffff1660e01b81526004016100b3949392919061033b565b600060405180830381600087803b1580156100cd57600080fd5b505af11580156100e1573d6000803e3d6000fd5b5050505050505050565b8273ffffffffffffffffffffffffffffffffffffffff1663f242432a83838760016040518563ffffffff1660e01b815260040161012b949392919061033b565b600060405180830381600087803b15801561014557600080fd5b505af1158015610159573d6000803e3d6000fd5b5050505050505050565b600080fd5b6000819050919050565b61017b81610168565b811461018657600080fd5b50565b60008135905061019881610172565b92915050565b600073ffffffffffffffffffffffffffffffffffffffff82169050919050565b60006101c98261019e565b9050919050565b6101d9816101be565b81146101e457600080fd5b50565b6000813590506101f6816101d0565b92915050565b60006102078261019e565b9050919050565b610217816101fc565b811461022257600080fd5b50565b6000813590506102348161020e565b92915050565b6000806000806080858703121561025457610253610163565b5b600061026287828801610189565b9450506020610273878288016101e7565b935050604061028487828801610225565b925050606061029587828801610225565b91505092959194509250565b6102aa816101fc565b82525050565b6102b981610168565b82525050565b6000819050919050565b6000819050919050565b60006102ee6102e96102e4846102bf565b6102c9565b610168565b9050919050565b6102fe816102d3565b82525050565b600082825260208201905092915050565b50565b6000610325600083610304565b915061033082610315565b600082019050919050565b600060a08201905061035060008301876102a1565b61035d60208301866102a1565b61036a60408301856102b0565b61037760608301846102f5565b818103608083015261038881610318565b90509594505050505056fea2646970667358221220b0362e69afa44c562ca35173dabe9a1eeb2f8720decd43ee1011a9622b86392a64736f6c63430008110033",
  "linkReferences": {},
  "deployedLinkReferences": {}
}