{
  "_format": "hh-sol-artifact-1",
  "contractName": "Radiohead",
  "sourceName": "contracts/Radiohead.sol",
  "abi": [
    {
      "inputs": [
        {
          "internalType": "address",
          "name": "_escrow",
          "type": "address"
        }
      ],
      "stateMutability": "nonpayable",
      "type": "constructor"
    },
    {
      "anonymous": false,
      "inputs": [
        {
          "indexed": true,
          "internalType": "address",
          "name": "account",
          "type": "address"
        },
        {
          "indexed": true,
          "internalType": "address",
          "name": "operator",
          "type": "address"
        },
        {
          "indexed": false,
          "internalType": "bool",
          "name": "approved",
          "type": "bool"
        }
      ],
      "name": "ApprovalForAll",
      "type": "event"
    },
    {
      "anonymous": false,
      "inputs": [
        {
          "indexed": true,
          "internalType": "address",
          "name": "operator",
          "type": "address"
        },
        {
          "indexed": true,
          "internalType": "address",
          "name": "from",
          "type": "address"
        },
        {
          "indexed": true,
          "internalType": "address",
          "name": "to",
          "type": "address"
        },
        {
          "indexed": false,
          "internalType": "uint256[]",
          "name": "ids",
          "type": "uint256[]"
        },
        {
          "indexed": false,
          "internalType": "uint256[]",
          "name": "values",
          "type": "uint256[]"
        }
      ],
      "name": "TransferBatch",
      "type": "event"
    },
    {
      "anonymous": false,
      "inputs": [
        {
          "indexed": true,
          "internalType": "address",
          "name": "operator",
          "type": "address"
        },
        {
          "indexed": true,
          "internalType": "address",
          "name": "from",
          "type": "address"
        },
        {
          "indexed": true,
          "internalType": "address",
          "name": "to",
          "type": "address"
        },
        {
          "indexed": false,
          "internalType": "uint256",
          "name": "id",
          "type": "uint256"
        },
        {
          "indexed": false,
          "internalType": "uint256",
          "name": "value",
          "type": "uint256"
        }
      ],
      "name": "TransferSingle",
      "type": "event"
    },
    {
      "anonymous": false,
      "inputs": [
        {
          "indexed": false,
          "internalType": "string",
          "name": "value",
          "type": "string"
        },
        {
          "indexed": true,
          "internalType": "uint256",
          "name": "id",
          "type": "uint256"
        }
      ],
      "name": "URI",
      "type": "event"
    },
    {
      "anonymous": false,
      "inputs": [
        {
          "indexed": false,
          "internalType": "uint256",
          "name": "id",
          "type": "uint256"
        },
        {
          "indexed": false,
          "internalType": "address",
          "name": "superfan",
          "type": "address"
        }
      ],
      "name": "limitedSongBought",
      "type": "event"
    },
    {
      "anonymous": false,
      "inputs": [
        {
          "indexed": false,
          "internalType": "uint256",
          "name": "id",
          "type": "uint256"
        },
        {
          "indexed": false,
          "internalType": "address",
          "name": "buyer",
          "type": "address"
        }
      ],
      "name": "regularSongBought",
      "type": "event"
    },
    {
      "anonymous": false,
      "inputs": [
        {
          "indexed": false,
          "internalType": "uint256",
          "name": "songId",
          "type": "uint256"
        },
        {
          "indexed": false,
          "internalType": "uint256",
          "name": "ltdSongId",
          "type": "uint256"
        },
        {
          "indexed": false,
          "internalType": "address",
          "name": "artist",
          "type": "address"
        },
        {
          "indexed": false,
          "internalType": "uint256",
          "name": "limitedSupply",
          "type": "uint256"
        },
        {
          "indexed": false,
          "internalType": "uint256",
          "name": "regularPrice",
          "type": "uint256"
        },
        {
          "indexed": false,
          "internalType": "uint256",
          "name": "limitedPrice",
          "type": "uint256"
        },
        {
          "indexed": false,
          "internalType": "uint256",
          "name": "platformRoyality",
          "type": "uint256"
        },
        {
          "indexed": false,
          "internalType": "uint256",
          "name": "superfanRoyality",
          "type": "uint256"
        }
      ],
      "name": "songCreated",
      "type": "event"
    },
    {
      "inputs": [],
      "name": "Owner",
      "outputs": [
        {
          "internalType": "address",
          "name": "",
          "type": "address"
        }
      ],
      "stateMutability": "view",
      "type": "function"
    },
    {
      "inputs": [
        {
          "internalType": "address",
          "name": "account",
          "type": "address"
        },
        {
          "internalType": "uint256",
          "name": "id",
          "type": "uint256"
        }
      ],
      "name": "balanceOf",
      "outputs": [
        {
          "internalType": "uint256",
          "name": "",
          "type": "uint256"
        }
      ],
      "stateMutability": "view",
      "type": "function"
    },
    {
      "inputs": [
        {
          "internalType": "address[]",
          "name": "accounts",
          "type": "address[]"
        },
        {
          "internalType": "uint256[]",
          "name": "ids",
          "type": "uint256[]"
        }
      ],
      "name": "balanceOfBatch",
      "outputs": [
        {
          "internalType": "uint256[]",
          "name": "",
          "type": "uint256[]"
        }
      ],
      "stateMutability": "view",
      "type": "function"
    },
    {
      "inputs": [
        {
          "internalType": "uint256",
          "name": "songId",
          "type": "uint256"
        }
      ],
      "name": "buyLimitedSong",
      "outputs": [],
      "stateMutability": "payable",
      "type": "function"
    },
    {
      "inputs": [
        {
          "internalType": "uint256",
          "name": "songId",
          "type": "uint256"
        }
      ],
      "name": "buyRegularSong",
      "outputs": [],
      "stateMutability": "payable",
      "type": "function"
    },
    {
      "inputs": [
        {
          "internalType": "uint256",
          "name": "_limitedSupply",
          "type": "uint256"
        },
        {
          "internalType": "uint256",
          "name": "_regularSongPrice",
          "type": "uint256"
        },
        {
          "internalType": "uint256",
          "name": "_limitedSongPrice",
          "type": "uint256"
        },
        {
          "internalType": "string",
          "name": "_regularSongURI",
          "type": "string"
        },
        {
          "internalType": "string",
          "name": "_limitedSongURI",
          "type": "string"
        },
        {
          "internalType": "uint256",
          "name": "_platformRoyality",
          "type": "uint256"
        },
        {
          "internalType": "uint256",
          "name": "_superfanRoyality",
          "type": "uint256"
        }
      ],
      "name": "createSong",
      "outputs": [
        {
          "internalType": "uint256",
          "name": "songId",
          "type": "uint256"
        }
      ],
      "stateMutability": "nonpayable",
      "type": "function"
    },
    {
      "inputs": [
        {
          "internalType": "uint256",
          "name": "id",
          "type": "uint256"
        }
      ],
      "name": "exists",
      "outputs": [
        {
          "internalType": "bool",
          "name": "",
          "type": "bool"
        }
      ],
      "stateMutability": "view",
      "type": "function"
    },
    {
      "inputs": [],
      "name": "getCurrentSongId",
      "outputs": [
        {
          "internalType": "uint256",
          "name": "current",
          "type": "uint256"
        }
      ],
      "stateMutability": "view",
      "type": "function"
    },
    {
      "inputs": [
        {
          "internalType": "uint256",
          "name": "id",
          "type": "uint256"
        }
      ],
      "name": "getSong",
      "outputs": [
        {
          "components": [
            {
              "internalType": "address",
              "name": "artist",
              "type": "address"
            },
            {
              "internalType": "uint256",
              "name": "songId",
              "type": "uint256"
            },
            {
              "internalType": "uint256",
              "name": "ltdSongId",
              "type": "uint256"
            },
            {
              "internalType": "uint256",
              "name": "limitedSupply",
              "type": "uint256"
            },
            {
              "internalType": "uint256",
              "name": "limitedSongMinted",
              "type": "uint256"
            },
            {
              "internalType": "uint256",
              "name": "regularPrice",
              "type": "uint256"
            },
            {
              "internalType": "uint256",
              "name": "limitedPrice",
              "type": "uint256"
            },
            {
              "internalType": "uint256",
              "name": "regularRevenue",
              "type": "uint256"
            },
            {
              "internalType": "uint256",
              "name": "ltdRevenue",
              "type": "uint256"
            },
            {
              "internalType": "uint256",
              "name": "platformRoyality",
              "type": "uint256"
            },
            {
              "internalType": "uint256",
              "name": "superfanRoyality",
              "type": "uint256"
            },
            {
              "internalType": "address[]",
              "name": "superfans",
              "type": "address[]"
            }
          ],
          "internalType": "struct Radiohead.Song",
          "name": "song",
          "type": "tuple"
        }
      ],
      "stateMutability": "view",
      "type": "function"
    },
    {
      "inputs": [
        {
          "internalType": "address",
          "name": "party",
          "type": "address"
        }
      ],
      "name": "getSongOwners",
      "outputs": [
        {
          "internalType": "uint256[]",
          "name": "songs",
          "type": "uint256[]"
        }
      ],
      "stateMutability": "view",
      "type": "function"
    },
    {
      "inputs": [
        {
          "internalType": "address",
          "name": "account",
          "type": "address"
        },
        {
          "internalType": "address",
          "name": "operator",
          "type": "address"
        }
      ],
      "name": "isApprovedForAll",
      "outputs": [
        {
          "internalType": "bool",
          "name": "",
          "type": "bool"
        }
      ],
      "stateMutability": "view",
      "type": "function"
    },
    {
      "inputs": [
        {
          "internalType": "address",
          "name": "from",
          "type": "address"
        },
        {
          "internalType": "address",
          "name": "to",
          "type": "address"
        },
        {
          "internalType": "uint256[]",
          "name": "ids",
          "type": "uint256[]"
        },
        {
          "internalType": "uint256[]",
          "name": "amounts",
          "type": "uint256[]"
        },
        {
          "internalType": "bytes",
          "name": "data",
          "type": "bytes"
        }
      ],
      "name": "safeBatchTransferFrom",
      "outputs": [],
      "stateMutability": "nonpayable",
      "type": "function"
    },
    {
      "inputs": [
        {
          "internalType": "address",
          "name": "from",
          "type": "address"
        },
        {
          "internalType": "address",
          "name": "to",
          "type": "address"
        },
        {
          "internalType": "uint256",
          "name": "id",
          "type": "uint256"
        },
        {
          "internalType": "uint256",
          "name": "amount",
          "type": "uint256"
        },
        {
          "internalType": "bytes",
          "name": "data",
          "type": "bytes"
        }
      ],
      "name": "safeTransferFrom",
      "outputs": [],
      "stateMutability": "nonpayable",
      "type": "function"
    },
    {
      "inputs": [
        {
          "internalType": "address",
          "name": "operator",
          "type": "address"
        },
        {
          "internalType": "bool",
          "name": "approved",
          "type": "bool"
        }
      ],
      "name": "setApprovalForAll",
      "outputs": [],
      "stateMutability": "nonpayable",
      "type": "function"
    },
    {
      "inputs": [
        {
          "internalType": "uint256",
          "name": "",
          "type": "uint256"
        }
      ],
      "name": "songIndex",
      "outputs": [
        {
          "internalType": "uint256",
          "name": "",
          "type": "uint256"
        }
      ],
      "stateMutability": "view",
      "type": "function"
    },
    {
      "inputs": [
        {
          "internalType": "address",
          "name": "",
          "type": "address"
        },
        {
          "internalType": "uint256",
          "name": "",
          "type": "uint256"
        }
      ],
      "name": "songOwners",
      "outputs": [
        {
          "internalType": "uint256",
          "name": "",
          "type": "uint256"
        }
      ],
      "stateMutability": "view",
      "type": "function"
    },
    {
      "inputs": [
        {
          "internalType": "uint256",
          "name": "",
          "type": "uint256"
        }
      ],
      "name": "songsArray",
      "outputs": [
        {
          "internalType": "address",
          "name": "artist",
          "type": "address"
        },
        {
          "internalType": "uint256",
          "name": "songId",
          "type": "uint256"
        },
        {
          "internalType": "uint256",
          "name": "ltdSongId",
          "type": "uint256"
        },
        {
          "internalType": "uint256",
          "name": "limitedSupply",
          "type": "uint256"
        },
        {
          "internalType": "uint256",
          "name": "limitedSongMinted",
          "type": "uint256"
        },
        {
          "internalType": "uint256",
          "name": "regularPrice",
          "type": "uint256"
        },
        {
          "internalType": "uint256",
          "name": "limitedPrice",
          "type": "uint256"
        },
        {
          "internalType": "uint256",
          "name": "regularRevenue",
          "type": "uint256"
        },
        {
          "internalType": "uint256",
          "name": "ltdRevenue",
          "type": "uint256"
        },
        {
          "internalType": "uint256",
          "name": "platformRoyality",
          "type": "uint256"
        },
        {
          "internalType": "uint256",
          "name": "superfanRoyality",
          "type": "uint256"
        }
      ],
      "stateMutability": "view",
      "type": "function"
    },
    {
      "inputs": [
        {
          "internalType": "bytes4",
          "name": "interfaceId",
          "type": "bytes4"
        }
      ],
      "name": "supportsInterface",
      "outputs": [
        {
          "internalType": "bool",
          "name": "",
          "type": "bool"
        }
      ],
      "stateMutability": "view",
      "type": "function"
    },
    {
      "inputs": [
        {
          "internalType": "uint256",
          "name": "id",
          "type": "uint256"
        }
      ],
      "name": "totalSupply",
      "outputs": [
        {
          "internalType": "uint256",
          "name": "",
          "type": "uint256"
        }
      ],
      "stateMutability": "view",
      "type": "function"
    },
    {
      "inputs": [
        {
          "internalType": "uint256",
          "name": "tokenId",
          "type": "uint256"
        }
      ],
      "name": "uri",
      "outputs": [
        {
          "internalType": "string",
          "name": "",
          "type": "string"
        }
      ],
      "stateMutability": "view",
      "type": "function"
    },
    {
      "inputs": [],
      "name": "withdrawRoyalities",
      "outputs": [],
      "stateMutability": "nonpayable",
      "type": "function"
    },
    {
      "stateMutability": "payable",
      "type": "receive"
    }
  ],
  "bytecode": "0x6080604052604051806020016040528060008152506003908162000024919062000392565b503480156200003257600080fd5b5060405162005798380380620057988339818101604052810190620000589190620004e3565b6040518060200160405280600081525062000079816200010360201b60201c565b5080600760006101000a81548173ffffffffffffffffffffffffffffffffffffffff021916908373ffffffffffffffffffffffffffffffffffffffff16021790555033600860006101000a81548173ffffffffffffffffffffffffffffffffffffffff021916908373ffffffffffffffffffffffffffffffffffffffff1602179055505062000515565b806002908162000114919062000392565b5050565b600081519050919050565b7f4e487b7100000000000000000000000000000000000000000000000000000000600052604160045260246000fd5b7f4e487b7100000000000000000000000000000000000000000000000000000000600052602260045260246000fd5b600060028204905060018216806200019a57607f821691505b602082108103620001b057620001af62000152565b5b50919050565b60008190508160005260206000209050919050565b60006020601f8301049050919050565b600082821b905092915050565b6000600883026200021a7fffffffffffffffffffffffffffffffffffffffffffffffffffffffffffffffff82620001db565b620002268683620001db565b95508019841693508086168417925050509392505050565b6000819050919050565b6000819050919050565b6000620002736200026d62000267846200023e565b62000248565b6200023e565b9050919050565b6000819050919050565b6200028f8362000252565b620002a76200029e826200027a565b848454620001e8565b825550505050565b600090565b620002be620002af565b620002cb81848462000284565b505050565b5b81811015620002f357620002e7600082620002b4565b600181019050620002d1565b5050565b601f82111562000342576200030c81620001b6565b6200031784620001cb565b8101602085101562000327578190505b6200033f6200033685620001cb565b830182620002d0565b50505b505050565b600082821c905092915050565b6000620003676000198460080262000347565b1980831691505092915050565b600062000382838362000354565b9150826002028217905092915050565b6200039d8262000118565b67ffffffffffffffff811115620003b957620003b862000123565b5b620003c5825462000181565b620003d2828285620002f7565b600060209050601f8311600181146200040a5760008415620003f5578287015190505b62000401858262000374565b86555062000471565b601f1984166200041a86620001b6565b60005b8281101562000444578489015182556001820191506020850194506020810190506200041d565b8683101562000464578489015162000460601f89168262000354565b8355505b6001600288020188555050505b505050505050565b600080fd5b600073ffffffffffffffffffffffffffffffffffffffff82169050919050565b6000620004ab826200047e565b9050919050565b620004bd816200049e565b8114620004c957600080fd5b50565b600081519050620004dd81620004b2565b92915050565b600060208284031215620004fc57620004fb62000479565b5b60006200050c84828501620004cc565b91505092915050565b61527380620005256000396000f3fe60806040526004361061012d5760003560e01c80635bc7a7d8116100ab578063b9414d311161006f578063b9414d311461045a578063bd85b039146104a1578063e985e9c5146104de578063eea7eaf61461051b578063f242432a14610537578063fad00ac21461056057610134565b80635bc7a7d8146103875780635fe34985146103c45780637c76c232146103ef578063a22cb46514610406578063b4a99a4e1461042f57610134565b806342acaa66116100f257806342acaa661461025657806343b6f18e146102935780634a3ff340146102d05780634e1273f41461030d5780634f558e791461034a57610134565b8062fdd58e1461013957806301ffc9a7146101765780630e89341c146101b35780632b9c2760146101f05780632eb2c2d61461022d57610134565b3661013457005b600080fd5b34801561014557600080fd5b50610160600480360381019061015b919061319a565b61057c565b60405161016d91906131e9565b60405180910390f35b34801561018257600080fd5b5061019d6004803603810190610198919061325c565b610644565b6040516101aa91906132a4565b60405180910390f35b3480156101bf57600080fd5b506101da60048036038101906101d591906132bf565b610726565b6040516101e7919061337c565b60405180910390f35b3480156101fc57600080fd5b50610217600480360381019061021291906132bf565b610738565b60405161022491906131e9565b60405180910390f35b34801561023957600080fd5b50610254600480360381019061024f919061359b565b610750565b005b34801561026257600080fd5b5061027d600480360381019061027891906132bf565b6107f1565b60405161028a919061383b565b60405180910390f35b34801561029f57600080fd5b506102ba60048036038101906102b5919061385d565b610bd6565b6040516102c79190613939565b60405180910390f35b3480156102dc57600080fd5b506102f760048036038101906102f2919061319a565b610c6d565b60405161030491906131e9565b60405180910390f35b34801561031957600080fd5b50610334600480360381019061032f9190613a1e565b610c9e565b6040516103419190613939565b60405180910390f35b34801561035657600080fd5b50610371600480360381019061036c91906132bf565b610db7565b60405161037e91906132a4565b60405180910390f35b34801561039357600080fd5b506103ae60048036038101906103a99190613b37565b610dcb565b6040516103bb91906131e9565b60405180910390f35b3480156103d057600080fd5b506103d961104e565b6040516103e691906131e9565b60405180910390f35b3480156103fb57600080fd5b5061040461105f565b005b34801561041257600080fd5b5061042d60048036038101906104289190613c3d565b6114b1565b005b34801561043b57600080fd5b506104446114c7565b6040516104519190613c8c565b60405180910390f35b34801561046657600080fd5b50610481600480360381019061047c91906132bf565b6114ed565b6040516104989b9a99989796959493929190613ca7565b60405180910390f35b3480156104ad57600080fd5b506104c860048036038101906104c391906132bf565b611577565b6040516104d591906131e9565b60405180910390f35b3480156104ea57600080fd5b5061050560048036038101906105009190613d52565b611594565b60405161051291906132a4565b60405180910390f35b610535600480360381019061053091906132bf565b611628565b005b34801561054357600080fd5b5061055e60048036038101906105599190613d92565b6119f7565b005b61057a600480360381019061057591906132bf565b611a98565b005b60008073ffffffffffffffffffffffffffffffffffffffff168373ffffffffffffffffffffffffffffffffffffffff16036105ec576040517f08c379a00000000000000000000000000000000000000000000000000000000081526004016105e390613e9b565b60405180910390fd5b60008083815260200190815260200160002060008473ffffffffffffffffffffffffffffffffffffffff1673ffffffffffffffffffffffffffffffffffffffff16815260200190815260200160002054905092915050565b60007fd9b67a26000000000000000000000000000000000000000000000000000000007bffffffffffffffffffffffffffffffffffffffffffffffffffffffff1916827bffffffffffffffffffffffffffffffffffffffffffffffffffffffff1916148061070f57507f0e89341c000000000000000000000000000000000000000000000000000000007bffffffffffffffffffffffffffffffffffffffffffffffffffffffff1916827bffffffffffffffffffffffffffffffffffffffffffffffffffffffff1916145b8061071f575061071e82611eee565b5b9050919050565b606061073182611f58565b9050919050565b600b6020528060005260406000206000915090505481565b61075861203d565b73ffffffffffffffffffffffffffffffffffffffff168573ffffffffffffffffffffffffffffffffffffffff16148061079e575061079d8561079861203d565b611594565b5b6107dd576040517f08c379a00000000000000000000000000000000000000000000000000000000081526004016107d490613f2d565b60405180910390fd5b6107ea8585858585612045565b5050505050565b6107f961307b565b60006002836108089190613f7c565b146109e55761081682610db7565b610855576040517f08c379a000000000000000000000000000000000000000000000000000000000815260040161084c90613ff9565b60405180910390fd5b600a600b6000848152602001908152602001600020548154811061087c5761087b614019565b5b90600052602060002090600c0201604051806101800160405290816000820160009054906101000a900473ffffffffffffffffffffffffffffffffffffffff1673ffffffffffffffffffffffffffffffffffffffff1673ffffffffffffffffffffffffffffffffffffffff168152602001600182015481526020016002820154815260200160038201548152602001600482015481526020016005820154815260200160068201548152602001600782015481526020016008820154815260200160098201548152602001600a8201548152602001600b82018054806020026020016040519081016040528092919081815260200182805480156109d557602002820191906000526020600020905b8160009054906101000a900473ffffffffffffffffffffffffffffffffffffffff1673ffffffffffffffffffffffffffffffffffffffff168152602001906001019080831161098b575b5050505050815250509050610bd1565b6109fa6001836109f59190614077565b610db7565b610a39576040517f08c379a0000000000000000000000000000000000000000000000000000000008152600401610a3090613ff9565b60405180910390fd5b600a600b6000600185610a4c9190614077565b81526020019081526020016000205481548110610a6c57610a6b614019565b5b90600052602060002090600c0201604051806101800160405290816000820160009054906101000a900473ffffffffffffffffffffffffffffffffffffffff1673ffffffffffffffffffffffffffffffffffffffff1673ffffffffffffffffffffffffffffffffffffffff168152602001600182015481526020016002820154815260200160038201548152602001600482015481526020016005820154815260200160068201548152602001600782015481526020016008820154815260200160098201548152602001600a8201548152602001600b8201805480602002602001604051908101604052809291908181526020018280548015610bc557602002820191906000526020600020905b8160009054906101000a900473ffffffffffffffffffffffffffffffffffffffff1673ffffffffffffffffffffffffffffffffffffffff1681526020019060010190808311610b7b575b50505050508152505090505b919050565b6060600960008373ffffffffffffffffffffffffffffffffffffffff1673ffffffffffffffffffffffffffffffffffffffff168152602001908152602001600020805480602002602001604051908101604052809291908181526020018280548015610c6157602002820191906000526020600020905b815481526020019060010190808311610c4d575b50505050509050919050565b60096020528160005260406000208181548110610c8957600080fd5b90600052602060002001600091509150505481565b60608151835114610ce4576040517f08c379a0000000000000000000000000000000000000000000000000000000008152600401610cdb9061411d565b60405180910390fd5b6000835167ffffffffffffffff811115610d0157610d006133a3565b5b604051908082528060200260200182016040528015610d2f5781602001602082028036833780820191505090505b50905060005b8451811015610dac57610d7c858281518110610d5457610d53614019565b5b6020026020010151858381518110610d6f57610d6e614019565b5b602002602001015161057c565b828281518110610d8f57610d8e614019565b5b60200260200101818152505080610da59061413d565b9050610d35565b508091505092915050565b600080610dc383611577565b119050919050565b6000808811610e0f576040517f08c379a0000000000000000000000000000000000000000000000000000000008152600401610e06906141f7565b60405180910390fd5b610e196006612366565b610e23600661237c565b9050610e483382670de0b6b3a76400006040518060200160405280600081525061238a565b610e52818661253a565b6000600a6001816001815401808255809150500390600052602060002090600c02019050338160000160006101000a81548173ffffffffffffffffffffffffffffffffffffffff021916908373ffffffffffffffffffffffffffffffffffffffff1602179055508181600101819055508881600301819055508781600501819055508681600601819055508381600901819055508281600a0181905550610ef96006612366565b6000610f05600661237c565b9050610f2233828c6040518060200160405280600081525061238a565b610f2c818761253a565b808260020181905550610f6133600760009054906101000a900473ffffffffffffffffffffffffffffffffffffffff16611594565b610f9357610f92600760009054906101000a900473ffffffffffffffffffffffffffffffffffffffff1660016114b1565b5b6001600a80549050610fa59190614077565b600b6000858152602001908152602001600020819055507fe44a95d90db666eec698ee335d929af1295456ef22acf300487f3b13cee736f1826001015483600201548460000160009054906101000a900473ffffffffffffffffffffffffffffffffffffffff16856003015486600501548760060154886009015489600a0154604051611039989796959493929190614217565b60405180910390a15050979650505050505050565b600061105a600661237c565b905090565b60005b600a805490508110156113df576000600a828154811061108557611084614019565b5b90600052602060002090600c0201905060008160090154606483600701546110ad9190614295565b6110b791906142c6565b905060008183600701546110cb9190614077565b905060008360090154606485600801546110e59190614295565b6110ef91906142c6565b905060008185600801546111039190614077565b9050600085600b0180548060200260200160405190810160405280929190818152602001828054801561118b57602002820191906000526020600020905b8160009054906101000a900473ffffffffffffffffffffffffffffffffffffffff1673ffffffffffffffffffffffffffffffffffffffff1681526020019060010190808311611141575b505050505090506000866003015487600a0154606489600701546111af9190614295565b6111b991906142c6565b6111c39190614295565b905060008251826111d491906142c6565b905060008185886111e59190614308565b6111ef9190614077565b9050600089600701819055506000896008018190555060008960000160009054906101000a900473ffffffffffffffffffffffffffffffffffffffff1673ffffffffffffffffffffffffffffffffffffffff168260405161124f9061436d565b60006040518083038185875af1925050503d806000811461128c576040519150601f19603f3d011682016040523d82523d6000602084013e611291565b606091505b50509050806112d5576040517f08c379a00000000000000000000000000000000000000000000000000000000081526004016112cc906143f4565b60405180910390fd5b60005b85518110156113c1576000868d815181106112f6576112f5614019565b5b6020026020010151905060008173ffffffffffffffffffffffffffffffffffffffff16876040516113269061436d565b60006040518083038185875af1925050503d8060008114611363576040519150601f19603f3d011682016040523d82523d6000602084013e611368565b606091505b50509050806113ac576040517f08c379a00000000000000000000000000000000000000000000000000000000081526004016113a390614486565b60405180910390fd5b505080806113b99061413d565b9150506112d8565b505050505050505050505080806113d79061413d565b915050611062565b506000600860009054906101000a900473ffffffffffffffffffffffffffffffffffffffff1673ffffffffffffffffffffffffffffffffffffffff16476040516114289061436d565b60006040518083038185875af1925050503d8060008114611465576040519150601f19603f3d011682016040523d82523d6000602084013e61146a565b606091505b50509050806114ae576040517f08c379a00000000000000000000000000000000000000000000000000000000081526004016114a590614518565b60405180910390fd5b50565b6114c36114bc61203d565b838361259f565b5050565b600860009054906101000a900473ffffffffffffffffffffffffffffffffffffffff1681565b600a81815481106114fd57600080fd5b90600052602060002090600c02016000915090508060000160009054906101000a900473ffffffffffffffffffffffffffffffffffffffff169080600101549080600201549080600301549080600401549080600501549080600601549080600701549080600801549080600901549080600a015490508b565b600060056000838152602001908152602001600020549050919050565b6000600160008473ffffffffffffffffffffffffffffffffffffffff1673ffffffffffffffffffffffffffffffffffffffff16815260200190815260200160002060008373ffffffffffffffffffffffffffffffffffffffff1673ffffffffffffffffffffffffffffffffffffffff16815260200190815260200160002060009054906101000a900460ff16905092915050565b6000806002836116389190613f7c565b146116c15761164682610db7565b611685576040517f08c379a000000000000000000000000000000000000000000000000000000000815260040161167c90613ff9565b60405180910390fd5b600a600b600084815260200190815260200160002054815481106116ac576116ab614019565b5b90600052602060002090600c02019050611759565b6116d66001836116d19190614077565b610db7565b611715576040517f08c379a000000000000000000000000000000000000000000000000000000000815260040161170c90613ff9565b60405180910390fd5b600a600b60006001856117289190614077565b8152602001908152602001600020548154811061174857611747614019565b5b90600052602060002090600c020190505b6117668160010154610db7565b6117a5576040517f08c379a000000000000000000000000000000000000000000000000000000000815260040161179c906145aa565b60405180910390fd5b80600501543410156117ec576040517f08c379a00000000000000000000000000000000000000000000000000000000081526004016117e390614616565b60405180910390fd5b3373ffffffffffffffffffffffffffffffffffffffff168160000160009054906101000a900473ffffffffffffffffffffffffffffffffffffffff1673ffffffffffffffffffffffffffffffffffffffff160361187e576040517f08c379a000000000000000000000000000000000000000000000000000000000815260040161187590614682565b60405180910390fd5b348160070160008282546118929190614308565b92505081905550600760009054906101000a900473ffffffffffffffffffffffffffffffffffffffff1673ffffffffffffffffffffffffffffffffffffffff166313f2da7b8260010154308460000160009054906101000a900473ffffffffffffffffffffffffffffffffffffffff16336040518563ffffffff1660e01b815260040161192294939291906146c3565b600060405180830381600087803b15801561193c57600080fd5b505af1158015611950573d6000803e3d6000fd5b50505050600960003373ffffffffffffffffffffffffffffffffffffffff1673ffffffffffffffffffffffffffffffffffffffff1681526020019081526020016000208290806001815401808255809150506001900390600052602060002001600090919091909150557f04d30d6ef2c1b6dc4fb27350a8a71229ea6d6a3220be9db153486f9bbda5e6ec82336040516119eb929190614708565b60405180910390a15050565b6119ff61203d565b73ffffffffffffffffffffffffffffffffffffffff168573ffffffffffffffffffffffffffffffffffffffff161480611a455750611a4485611a3f61203d565b611594565b5b611a84576040517f08c379a0000000000000000000000000000000000000000000000000000000008152600401611a7b90613f2d565b60405180910390fd5b611a91858585858561270b565b5050505050565b600080600283611aa89190613f7c565b14611b3157611ab682610db7565b611af5576040517f08c379a0000000000000000000000000000000000000000000000000000000008152600401611aec90613ff9565b60405180910390fd5b600a600b60008481526020019081526020016000205481548110611b1c57611b1b614019565b5b90600052602060002090600c02019050611bc9565b611b46600183611b419190614077565b610db7565b611b85576040517f08c379a0000000000000000000000000000000000000000000000000000000008152600401611b7c90613ff9565b60405180910390fd5b600a600b6000600185611b989190614077565b81526020019081526020016000205481548110611bb857611bb7614019565b5b90600052602060002090600c020190505b8060030154816004015410611c13576040517f08c379a0000000000000000000000000000000000000000000000000000000008152600401611c0a90614754565b60405180910390fd5b8060060154341015611c5a576040517f08c379a0000000000000000000000000000000000000000000000000000000008152600401611c5190614616565b60405180910390fd5b3373ffffffffffffffffffffffffffffffffffffffff168160000160009054906101000a900473ffffffffffffffffffffffffffffffffffffffff1673ffffffffffffffffffffffffffffffffffffffff1603611cec576040517f08c379a0000000000000000000000000000000000000000000000000000000008152600401611ce390614682565b60405180910390fd5b6001816004016000828254611d019190614308565b9250508190555034816008016000828254611d1c9190614308565b9250508190555080600b01339080600181540180825580915050600190039060005260206000200160009091909190916101000a81548173ffffffffffffffffffffffffffffffffffffffff021916908373ffffffffffffffffffffffffffffffffffffffff160217905550600760009054906101000a900473ffffffffffffffffffffffffffffffffffffffff1673ffffffffffffffffffffffffffffffffffffffff166313f2da7b8260020154308460000160009054906101000a900473ffffffffffffffffffffffffffffffffffffffff16336040518563ffffffff1660e01b8152600401611e1194939291906146c3565b600060405180830381600087803b158015611e2b57600080fd5b505af1158015611e3f573d6000803e3d6000fd5b50505050600960003373ffffffffffffffffffffffffffffffffffffffff1673ffffffffffffffffffffffffffffffffffffffff168152602001908152602001600020816002015490806001815401808255809150506001900390600052602060002001600090919091909150557f535d4bf1d4fd06876e3bed38c167c7631c9c1c0f1bab9b408655c7a724e4b2f7816002015433604051611ee2929190614708565b60405180910390a15050565b60007f01ffc9a7000000000000000000000000000000000000000000000000000000007bffffffffffffffffffffffffffffffffffffffffffffffffffffffff1916827bffffffffffffffffffffffffffffffffffffffffffffffffffffffff1916149050919050565b60606000600460008481526020019081526020016000208054611f7a906147a3565b80601f0160208091040260200160405190810160405280929190818152602001828054611fa6906147a3565b8015611ff35780601f10611fc857610100808354040283529160200191611ff3565b820191906000526020600020905b815481529060010190602001808311611fd657829003601f168201915b5050505050905060008151116120115761200c836129a6565b612035565b6003816040516020016120259291906148a8565b6040516020818303038152906040525b915050919050565b600033905090565b8151835114612089576040517f08c379a00000000000000000000000000000000000000000000000000000000081526004016120809061493e565b60405180910390fd5b600073ffffffffffffffffffffffffffffffffffffffff168473ffffffffffffffffffffffffffffffffffffffff16036120f8576040517f08c379a00000000000000000000000000000000000000000000000000000000081526004016120ef906149d0565b60405180910390fd5b600061210261203d565b9050612112818787878787612a3a565b60005b84518110156122c357600085828151811061213357612132614019565b5b60200260200101519050600085838151811061215257612151614019565b5b60200260200101519050600080600084815260200190815260200160002060008b73ffffffffffffffffffffffffffffffffffffffff1673ffffffffffffffffffffffffffffffffffffffff168152602001908152602001600020549050818110156121f3576040517f08c379a00000000000000000000000000000000000000000000000000000000081526004016121ea90614a62565b60405180910390fd5b81810360008085815260200190815260200160002060008c73ffffffffffffffffffffffffffffffffffffffff1673ffffffffffffffffffffffffffffffffffffffff168152602001908152602001600020819055508160008085815260200190815260200160002060008b73ffffffffffffffffffffffffffffffffffffffff1673ffffffffffffffffffffffffffffffffffffffff16815260200190815260200160002060008282546122a89190614308565b92505081905550505050806122bc9061413d565b9050612115565b508473ffffffffffffffffffffffffffffffffffffffff168673ffffffffffffffffffffffffffffffffffffffff168273ffffffffffffffffffffffffffffffffffffffff167f4a39dc06d4c0dbc64b70af90fd698a233a518aa5d07e595d983b8c0526c8f7fb878760405161233a929190614a82565b60405180910390a4612350818787878787612a50565b61235e818787878787612a58565b505050505050565b6001816000016000828254019250508190555050565b600081600001549050919050565b600073ffffffffffffffffffffffffffffffffffffffff168473ffffffffffffffffffffffffffffffffffffffff16036123f9576040517f08c379a00000000000000000000000000000000000000000000000000000000081526004016123f090614b2b565b60405180910390fd5b600061240361203d565b9050600061241085612c2f565b9050600061241d85612c2f565b905061242e83600089858589612a3a565b8460008088815260200190815260200160002060008973ffffffffffffffffffffffffffffffffffffffff1673ffffffffffffffffffffffffffffffffffffffff168152602001908152602001600020600082825461248d9190614308565b925050819055508673ffffffffffffffffffffffffffffffffffffffff16600073ffffffffffffffffffffffffffffffffffffffff168473ffffffffffffffffffffffffffffffffffffffff167fc3d58168c5ae7397731d063d5bbf3d657854427343f4c083240f7aacaa2d0f62898960405161250b929190614b4b565b60405180910390a461252283600089858589612a50565b61253183600089898989612ca9565b50505050505050565b8060046000848152602001908152602001600020908161255a9190614d0b565b50817f6bb7ff708619ba0610cba295a58592e0451dee2622938c8755667688daf3529b61258684610726565b604051612593919061337c565b60405180910390a25050565b8173ffffffffffffffffffffffffffffffffffffffff168373ffffffffffffffffffffffffffffffffffffffff160361260d576040517f08c379a000000000000000000000000000000000000000000000000000000000815260040161260490614e4f565b60405180910390fd5b80600160008573ffffffffffffffffffffffffffffffffffffffff1673ffffffffffffffffffffffffffffffffffffffff16815260200190815260200160002060008473ffffffffffffffffffffffffffffffffffffffff1673ffffffffffffffffffffffffffffffffffffffff16815260200190815260200160002060006101000a81548160ff0219169083151502179055508173ffffffffffffffffffffffffffffffffffffffff168373ffffffffffffffffffffffffffffffffffffffff167f17307eab39ab6107e8899845ad3d59bd9653f200f220920489ca2b5937696c31836040516126fe91906132a4565b60405180910390a3505050565b600073ffffffffffffffffffffffffffffffffffffffff168473ffffffffffffffffffffffffffffffffffffffff160361277a576040517f08c379a0000000000000000000000000000000000000000000000000000000008152600401612771906149d0565b60405180910390fd5b600061278461203d565b9050600061279185612c2f565b9050600061279e85612c2f565b90506127ae838989858589612a3a565b600080600088815260200190815260200160002060008a73ffffffffffffffffffffffffffffffffffffffff1673ffffffffffffffffffffffffffffffffffffffff16815260200190815260200160002054905085811015612845576040517f08c379a000000000000000000000000000000000000000000000000000000000815260040161283c90614a62565b60405180910390fd5b85810360008089815260200190815260200160002060008b73ffffffffffffffffffffffffffffffffffffffff1673ffffffffffffffffffffffffffffffffffffffff168152602001908152602001600020819055508560008089815260200190815260200160002060008a73ffffffffffffffffffffffffffffffffffffffff1673ffffffffffffffffffffffffffffffffffffffff16815260200190815260200160002060008282546128fa9190614308565b925050819055508773ffffffffffffffffffffffffffffffffffffffff168973ffffffffffffffffffffffffffffffffffffffff168573ffffffffffffffffffffffffffffffffffffffff167fc3d58168c5ae7397731d063d5bbf3d657854427343f4c083240f7aacaa2d0f628a8a604051612977929190614b4b565b60405180910390a461298d848a8a86868a612a50565b61299b848a8a8a8a8a612ca9565b505050505050505050565b6060600280546129b5906147a3565b80601f01602080910402602001604051908101604052809291908181526020018280546129e1906147a3565b8015612a2e5780601f10612a0357610100808354040283529160200191612a2e565b820191906000526020600020905b815481529060010190602001808311612a1157829003601f168201915b50505050509050919050565b612a48868686868686612e80565b505050505050565b505050505050565b612a778473ffffffffffffffffffffffffffffffffffffffff16613050565b15612c27578373ffffffffffffffffffffffffffffffffffffffff1663bc197c8187878686866040518663ffffffff1660e01b8152600401612abd959493929190614ec4565b6020604051808303816000875af1925050508015612af957506040513d601f19601f82011682018060405250810190612af69190614f41565b60015b612b9e57612b05614f7b565b806308c379a003612b615750612b19614f9d565b80612b245750612b63565b806040517f08c379a0000000000000000000000000000000000000000000000000000000008152600401612b58919061337c565b60405180910390fd5b505b6040517f08c379a0000000000000000000000000000000000000000000000000000000008152600401612b959061509f565b60405180910390fd5b63bc197c8160e01b7bffffffffffffffffffffffffffffffffffffffffffffffffffffffff1916817bffffffffffffffffffffffffffffffffffffffffffffffffffffffff191614612c25576040517f08c379a0000000000000000000000000000000000000000000000000000000008152600401612c1c90615131565b60405180910390fd5b505b505050505050565b60606000600167ffffffffffffffff811115612c4e57612c4d6133a3565b5b604051908082528060200260200182016040528015612c7c5781602001602082028036833780820191505090505b5090508281600081518110612c9457612c93614019565b5b60200260200101818152505080915050919050565b612cc88473ffffffffffffffffffffffffffffffffffffffff16613050565b15612e78578373ffffffffffffffffffffffffffffffffffffffff1663f23a6e6187878686866040518663ffffffff1660e01b8152600401612d0e959493929190615151565b6020604051808303816000875af1925050508015612d4a57506040513d601f19601f82011682018060405250810190612d479190614f41565b60015b612def57612d56614f7b565b806308c379a003612db25750612d6a614f9d565b80612d755750612db4565b806040517f08c379a0000000000000000000000000000000000000000000000000000000008152600401612da9919061337c565b60405180910390fd5b505b6040517f08c379a0000000000000000000000000000000000000000000000000000000008152600401612de69061509f565b60405180910390fd5b63f23a6e6160e01b7bffffffffffffffffffffffffffffffffffffffffffffffffffffffff1916817bffffffffffffffffffffffffffffffffffffffffffffffffffffffff191614612e76576040517f08c379a0000000000000000000000000000000000000000000000000000000008152600401612e6d90615131565b60405180910390fd5b505b505050505050565b612e8e868686868686613073565b600073ffffffffffffffffffffffffffffffffffffffff168573ffffffffffffffffffffffffffffffffffffffff1603612f3f5760005b8351811015612f3d57828181518110612ee157612ee0614019565b5b602002602001015160056000868481518110612f0057612eff614019565b5b602002602001015181526020019081526020016000206000828254612f259190614308565b9250508190555080612f369061413d565b9050612ec5565b505b600073ffffffffffffffffffffffffffffffffffffffff168473ffffffffffffffffffffffffffffffffffffffff16036130485760005b8351811015613046576000848281518110612f9457612f93614019565b5b602002602001015190506000848381518110612fb357612fb2614019565b5b6020026020010151905060006005600084815260200190815260200160002054905081811015613018576040517f08c379a000000000000000000000000000000000000000000000000000000000815260040161300f9061521d565b60405180910390fd5b81810360056000858152602001908152602001600020819055505050508061303f9061413d565b9050612f76565b505b505050505050565b6000808273ffffffffffffffffffffffffffffffffffffffff163b119050919050565b505050505050565b604051806101800160405280600073ffffffffffffffffffffffffffffffffffffffff16815260200160008152602001600081526020016000815260200160008152602001600081526020016000815260200160008152602001600081526020016000815260200160008152602001606081525090565b6000604051905090565b600080fd5b600080fd5b600073ffffffffffffffffffffffffffffffffffffffff82169050919050565b600061313182613106565b9050919050565b61314181613126565b811461314c57600080fd5b50565b60008135905061315e81613138565b92915050565b6000819050919050565b61317781613164565b811461318257600080fd5b50565b6000813590506131948161316e565b92915050565b600080604083850312156131b1576131b06130fc565b5b60006131bf8582860161314f565b92505060206131d085828601613185565b9150509250929050565b6131e381613164565b82525050565b60006020820190506131fe60008301846131da565b92915050565b60007fffffffff0000000000000000000000000000000000000000000000000000000082169050919050565b61323981613204565b811461324457600080fd5b50565b60008135905061325681613230565b92915050565b600060208284031215613272576132716130fc565b5b600061328084828501613247565b91505092915050565b60008115159050919050565b61329e81613289565b82525050565b60006020820190506132b96000830184613295565b92915050565b6000602082840312156132d5576132d46130fc565b5b60006132e384828501613185565b91505092915050565b600081519050919050565b600082825260208201905092915050565b60005b8381101561332657808201518184015260208101905061330b565b60008484015250505050565b6000601f19601f8301169050919050565b600061334e826132ec565b61335881856132f7565b9350613368818560208601613308565b61337181613332565b840191505092915050565b600060208201905081810360008301526133968184613343565b905092915050565b600080fd5b7f4e487b7100000000000000000000000000000000000000000000000000000000600052604160045260246000fd5b6133db82613332565b810181811067ffffffffffffffff821117156133fa576133f96133a3565b5b80604052505050565b600061340d6130f2565b905061341982826133d2565b919050565b600067ffffffffffffffff821115613439576134386133a3565b5b602082029050602081019050919050565b600080fd5b600061346261345d8461341e565b613403565b905080838252602082019050602084028301858111156134855761348461344a565b5b835b818110156134ae578061349a8882613185565b845260208401935050602081019050613487565b5050509392505050565b600082601f8301126134cd576134cc61339e565b5b81356134dd84826020860161344f565b91505092915050565b600080fd5b600067ffffffffffffffff821115613506576135056133a3565b5b61350f82613332565b9050602081019050919050565b82818337600083830152505050565b600061353e613539846134eb565b613403565b90508281526020810184848401111561355a576135596134e6565b5b61356584828561351c565b509392505050565b600082601f8301126135825761358161339e565b5b813561359284826020860161352b565b91505092915050565b600080600080600060a086880312156135b7576135b66130fc565b5b60006135c58882890161314f565b95505060206135d68882890161314f565b945050604086013567ffffffffffffffff8111156135f7576135f6613101565b5b613603888289016134b8565b935050606086013567ffffffffffffffff81111561362457613623613101565b5b613630888289016134b8565b925050608086013567ffffffffffffffff81111561365157613650613101565b5b61365d8882890161356d565b9150509295509295909350565b61367381613126565b82525050565b61368281613164565b82525050565b600081519050919050565b600082825260208201905092915050565b6000819050602082019050919050565b60006136c0838361366a565b60208301905092915050565b6000602082019050919050565b60006136e482613688565b6136ee8185613693565b93506136f9836136a4565b8060005b8381101561372a57815161371188826136b4565b975061371c836136cc565b9250506001810190506136fd565b5085935050505092915050565b600061018083016000830151613750600086018261366a565b5060208301516137636020860182613679565b5060408301516137766040860182613679565b5060608301516137896060860182613679565b50608083015161379c6080860182613679565b5060a08301516137af60a0860182613679565b5060c08301516137c260c0860182613679565b5060e08301516137d560e0860182613679565b506101008301516137ea610100860182613679565b506101208301516137ff610120860182613679565b50610140830151613814610140860182613679565b5061016083015184820361016086015261382e82826136d9565b9150508091505092915050565b600060208201905081810360008301526138558184613737565b905092915050565b600060208284031215613873576138726130fc565b5b60006138818482850161314f565b91505092915050565b600081519050919050565b600082825260208201905092915050565b6000819050602082019050919050565b60006138c28383613679565b60208301905092915050565b6000602082019050919050565b60006138e68261388a565b6138f08185613895565b93506138fb836138a6565b8060005b8381101561392c57815161391388826138b6565b975061391e836138ce565b9250506001810190506138ff565b5085935050505092915050565b6000602082019050818103600083015261395381846138db565b905092915050565b600067ffffffffffffffff821115613976576139756133a3565b5b602082029050602081019050919050565b600061399a6139958461395b565b613403565b905080838252602082019050602084028301858111156139bd576139bc61344a565b5b835b818110156139e657806139d2888261314f565b8452602084019350506020810190506139bf565b5050509392505050565b600082601f830112613a0557613a0461339e565b5b8135613a15848260208601613987565b91505092915050565b60008060408385031215613a3557613a346130fc565b5b600083013567ffffffffffffffff811115613a5357613a52613101565b5b613a5f858286016139f0565b925050602083013567ffffffffffffffff811115613a8057613a7f613101565b5b613a8c858286016134b8565b9150509250929050565b600067ffffffffffffffff821115613ab157613ab06133a3565b5b613aba82613332565b9050602081019050919050565b6000613ada613ad584613a96565b613403565b905082815260208101848484011115613af657613af56134e6565b5b613b0184828561351c565b509392505050565b600082601f830112613b1e57613b1d61339e565b5b8135613b2e848260208601613ac7565b91505092915050565b600080600080600080600060e0888a031215613b5657613b556130fc565b5b6000613b648a828b01613185565b9750506020613b758a828b01613185565b9650506040613b868a828b01613185565b955050606088013567ffffffffffffffff811115613ba757613ba6613101565b5b613bb38a828b01613b09565b945050608088013567ffffffffffffffff811115613bd457613bd3613101565b5b613be08a828b01613b09565b93505060a0613bf18a828b01613185565b92505060c0613c028a828b01613185565b91505092959891949750929550565b613c1a81613289565b8114613c2557600080fd5b50565b600081359050613c3781613c11565b92915050565b60008060408385031215613c5457613c536130fc565b5b6000613c628582860161314f565b9250506020613c7385828601613c28565b9150509250929050565b613c8681613126565b82525050565b6000602082019050613ca16000830184613c7d565b92915050565b600061016082019050613cbd600083018e613c7d565b613cca602083018d6131da565b613cd7604083018c6131da565b613ce4606083018b6131da565b613cf1608083018a6131da565b613cfe60a08301896131da565b613d0b60c08301886131da565b613d1860e08301876131da565b613d266101008301866131da565b613d346101208301856131da565b613d426101408301846131da565b9c9b505050505050505050505050565b60008060408385031215613d6957613d686130fc565b5b6000613d778582860161314f565b9250506020613d888582860161314f565b9150509250929050565b600080600080600060a08688031215613dae57613dad6130fc565b5b6000613dbc8882890161314f565b9550506020613dcd8882890161314f565b9450506040613dde88828901613185565b9350506060613def88828901613185565b925050608086013567ffffffffffffffff811115613e1057613e0f613101565b5b613e1c8882890161356d565b9150509295509295909350565b7f455243313135353a2061646472657373207a65726f206973206e6f742061207660008201527f616c6964206f776e657200000000000000000000000000000000000000000000602082015250565b6000613e85602a836132f7565b9150613e9082613e29565b604082019050919050565b60006020820190508181036000830152613eb481613e78565b9050919050565b7f455243313135353a2063616c6c6572206973206e6f7420746f6b656e206f776e60008201527f6572206f7220617070726f766564000000000000000000000000000000000000602082015250565b6000613f17602e836132f7565b9150613f2282613ebb565b604082019050919050565b60006020820190508181036000830152613f4681613f0a565b9050919050565b7f4e487b7100000000000000000000000000000000000000000000000000000000600052601260045260246000fd5b6000613f8782613164565b9150613f9283613164565b925082613fa257613fa1613f4d565b5b828206905092915050565b7f74686520736f6e6720646f65736e277420657869737473000000000000000000600082015250565b6000613fe36017836132f7565b9150613fee82613fad565b602082019050919050565b6000602082019050818103600083015261401281613fd6565b9050919050565b7f4e487b7100000000000000000000000000000000000000000000000000000000600052603260045260246000fd5b7f4e487b7100000000000000000000000000000000000000000000000000000000600052601160045260246000fd5b600061408282613164565b915061408d83613164565b92508282039050818111156140a5576140a4614048565b5b92915050565b7f455243313135353a206163636f756e747320616e6420696473206c656e67746860008201527f206d69736d617463680000000000000000000000000000000000000000000000602082015250565b60006141076029836132f7565b9150614112826140ab565b604082019050919050565b60006020820190508181036000830152614136816140fa565b9050919050565b600061414882613164565b91507fffffffffffffffffffffffffffffffffffffffffffffffffffffffffffffffff820361417a57614179614048565b5b600182019050919050565b7f4c696d6974656420737570706c79206d7573742062652067726561746572207460008201527f68616e2030000000000000000000000000000000000000000000000000000000602082015250565b60006141e16025836132f7565b91506141ec82614185565b604082019050919050565b60006020820190508181036000830152614210816141d4565b9050919050565b60006101008201905061422d600083018b6131da565b61423a602083018a6131da565b6142476040830189613c7d565b61425460608301886131da565b61426160808301876131da565b61426e60a08301866131da565b61427b60c08301856131da565b61428860e08301846131da565b9998505050505050505050565b60006142a082613164565b91506142ab83613164565b9250826142bb576142ba613f4d565b5b828204905092915050565b60006142d182613164565b91506142dc83613164565b92508282026142ea81613164565b9150828204841483151761430157614300614048565b5b5092915050565b600061431382613164565b915061431e83613164565b925082820190508082111561433657614335614048565b5b92915050565b600081905092915050565b50565b600061435760008361433c565b915061436282614347565b600082019050919050565b60006143788261434a565b9150819050919050565b7f6661696c656420746f2064697372696275746520726f79616c6974696573207460008201527f6f20746865206172746973740000000000000000000000000000000000000000602082015250565b60006143de602c836132f7565b91506143e982614382565b604082019050919050565b6000602082019050818103600083015261440d816143d1565b9050919050565b7f6661696c656420746f2064697372696275746520726f79616c6974696573207460008201527f6f2074686520737570657266616e000000000000000000000000000000000000602082015250565b6000614470602e836132f7565b915061447b82614414565b604082019050919050565b6000602082019050818103600083015261449f81614463565b9050919050565b7f6661696c656420746f2064697372696275746520726f79616c6974696573207460008201527f6f2074686520706c61666f726d204f776e657200000000000000000000000000602082015250565b60006145026033836132f7565b915061450d826144a6565b604082019050919050565b60006020820190508181036000830152614531816144f5565b9050919050565b7f74686520736f6e67496420646f65736e277420657869737473206f72206e6f7460008201527f2076616c69640000000000000000000000000000000000000000000000000000602082015250565b60006145946026836132f7565b915061459f82614538565b604082019050919050565b600060208201905081810360008301526145c381614587565b9050919050565b7f506c6561736520706179207468652066756c6c20616d6f756e74000000000000600082015250565b6000614600601a836132f7565b915061460b826145ca565b602082019050919050565b6000602082019050818103600083015261462f816145f3565b9050919050565b7f796f752063616e6e6f742062757920796f7572206f776e20736f6e6700000000600082015250565b600061466c601c836132f7565b915061467782614636565b602082019050919050565b6000602082019050818103600083015261469b8161465f565b9050919050565b60006146ad82613106565b9050919050565b6146bd816146a2565b82525050565b60006080820190506146d860008301876131da565b6146e560208301866146b4565b6146f26040830185613c7d565b6146ff6060830184613c7d565b95945050505050565b600060408201905061471d60008301856131da565b61472a6020830184613c7d565b9392505050565b600061473e6000836132f7565b915061474982614347565b600082019050919050565b6000602082019050818103600083015261476d81614731565b9050919050565b7f4e487b7100000000000000000000000000000000000000000000000000000000600052602260045260246000fd5b600060028204905060018216806147bb57607f821691505b6020821081036147ce576147cd614774565b5b50919050565b600081905092915050565b60008190508160005260206000209050919050565b60008154614801816147a3565b61480b81866147d4565b94506001821660008114614826576001811461483b5761486e565b60ff198316865281151582028601935061486e565b614844856147df565b60005b8381101561486657815481890152600182019150602081019050614847565b838801955050505b50505092915050565b6000614882826132ec565b61488c81856147d4565b935061489c818560208601613308565b80840191505092915050565b60006148b482856147f4565b91506148c08284614877565b91508190509392505050565b7f455243313135353a2069647320616e6420616d6f756e7473206c656e6774682060008201527f6d69736d61746368000000000000000000000000000000000000000000000000602082015250565b60006149286028836132f7565b9150614933826148cc565b604082019050919050565b600060208201905081810360008301526149578161491b565b9050919050565b7f455243313135353a207472616e7366657220746f20746865207a65726f20616460008201527f6472657373000000000000000000000000000000000000000000000000000000602082015250565b60006149ba6025836132f7565b91506149c58261495e565b604082019050919050565b600060208201905081810360008301526149e9816149ad565b9050919050565b7f455243313135353a20696e73756666696369656e742062616c616e636520666f60008201527f72207472616e7366657200000000000000000000000000000000000000000000602082015250565b6000614a4c602a836132f7565b9150614a57826149f0565b604082019050919050565b60006020820190508181036000830152614a7b81614a3f565b9050919050565b60006040820190508181036000830152614a9c81856138db565b90508181036020830152614ab081846138db565b90509392505050565b7f455243313135353a206d696e7420746f20746865207a65726f2061646472657360008201527f7300000000000000000000000000000000000000000000000000000000000000602082015250565b6000614b156021836132f7565b9150614b2082614ab9565b604082019050919050565b60006020820190508181036000830152614b4481614b08565b9050919050565b6000604082019050614b6060008301856131da565b614b6d60208301846131da565b9392505050565b60006020601f8301049050919050565b600082821b905092915050565b600060088302614bc17fffffffffffffffffffffffffffffffffffffffffffffffffffffffffffffffff82614b84565b614bcb8683614b84565b95508019841693508086168417925050509392505050565b6000819050919050565b6000614c08614c03614bfe84613164565b614be3565b613164565b9050919050565b6000819050919050565b614c2283614bed565b614c36614c2e82614c0f565b848454614b91565b825550505050565b600090565b614c4b614c3e565b614c56818484614c19565b505050565b5b81811015614c7a57614c6f600082614c43565b600181019050614c5c565b5050565b601f821115614cbf57614c90816147df565b614c9984614b74565b81016020851015614ca8578190505b614cbc614cb485614b74565b830182614c5b565b50505b505050565b600082821c905092915050565b6000614ce260001984600802614cc4565b1980831691505092915050565b6000614cfb8383614cd1565b9150826002028217905092915050565b614d14826132ec565b67ffffffffffffffff811115614d2d57614d2c6133a3565b5b614d3782546147a3565b614d42828285614c7e565b600060209050601f831160018114614d755760008415614d63578287015190505b614d6d8582614cef565b865550614dd5565b601f198416614d83866147df565b60005b82811015614dab57848901518255600182019150602085019450602081019050614d86565b86831015614dc85784890151614dc4601f891682614cd1565b8355505b6001600288020188555050505b505050505050565b7f455243313135353a2073657474696e6720617070726f76616c2073746174757360008201527f20666f722073656c660000000000000000000000000000000000000000000000602082015250565b6000614e396029836132f7565b9150614e4482614ddd565b604082019050919050565b60006020820190508181036000830152614e6881614e2c565b9050919050565b600081519050919050565b600082825260208201905092915050565b6000614e9682614e6f565b614ea08185614e7a565b9350614eb0818560208601613308565b614eb981613332565b840191505092915050565b600060a082019050614ed96000830188613c7d565b614ee66020830187613c7d565b8181036040830152614ef881866138db565b90508181036060830152614f0c81856138db565b90508181036080830152614f208184614e8b565b90509695505050505050565b600081519050614f3b81613230565b92915050565b600060208284031215614f5757614f566130fc565b5b6000614f6584828501614f2c565b91505092915050565b60008160e01c9050919050565b600060033d1115614f9a5760046000803e614f97600051614f6e565b90505b90565b600060443d1061502a57614faf6130f2565b60043d036004823e80513d602482011167ffffffffffffffff82111715614fd757505061502a565b808201805167ffffffffffffffff811115614ff5575050505061502a565b80602083010160043d03850181111561501257505050505061502a565b615021826020018501866133d2565b82955050505050505b90565b7f455243313135353a207472616e7366657220746f206e6f6e2d4552433131353560008201527f526563656976657220696d706c656d656e746572000000000000000000000000602082015250565b60006150896034836132f7565b91506150948261502d565b604082019050919050565b600060208201905081810360008301526150b88161507c565b9050919050565b7f455243313135353a204552433131353552656365697665722072656a6563746560008201527f6420746f6b656e73000000000000000000000000000000000000000000000000602082015250565b600061511b6028836132f7565b9150615126826150bf565b604082019050919050565b6000602082019050818103600083015261514a8161510e565b9050919050565b600060a0820190506151666000830188613c7d565b6151736020830187613c7d565b61518060408301866131da565b61518d60608301856131da565b818103608083015261519f8184614e8b565b90509695505050505050565b7f455243313135353a206275726e20616d6f756e74206578636565647320746f7460008201527f616c537570706c79000000000000000000000000000000000000000000000000602082015250565b60006152076028836132f7565b9150615212826151ab565b604082019050919050565b60006020820190508181036000830152615236816151fa565b905091905056fea26469706673582212209d3ecdb26faa12a9a8e8991534f2bb1a48d268ecd71be27c7af5733a93e9740864736f6c63430008110033",
  "linkReferences": {},
  "deployedLinkReferences": {}
}