{
  "_format": "hh-sol-artifact-1",
  "contractName": "Radiohead",
  "sourceName": "contracts/Radiohead.sol",
  "abi": [
    {
      "inputs": [
        {
          "internalType": "address",
          "name": "_escrow",
          "type": "address"
        }
      ],
      "stateMutability": "nonpayable",
      "type": "constructor"
    },
    {
      "anonymous": false,
      "inputs": [
        {
          "indexed": true,
          "internalType": "address",
          "name": "account",
          "type": "address"
        },
        {
          "indexed": true,
          "internalType": "address",
          "name": "operator",
          "type": "address"
        },
        {
          "indexed": false,
          "internalType": "bool",
          "name": "approved",
          "type": "bool"
        }
      ],
      "name": "ApprovalForAll",
      "type": "event"
    },
    {
      "anonymous": false,
      "inputs": [
        {
          "indexed": true,
          "internalType": "address",
          "name": "operator",
          "type": "address"
        },
        {
          "indexed": true,
          "internalType": "address",
          "name": "from",
          "type": "address"
        },
        {
          "indexed": true,
          "internalType": "address",
          "name": "to",
          "type": "address"
        },
        {
          "indexed": false,
          "internalType": "uint256[]",
          "name": "ids",
          "type": "uint256[]"
        },
        {
          "indexed": false,
          "internalType": "uint256[]",
          "name": "values",
          "type": "uint256[]"
        }
      ],
      "name": "TransferBatch",
      "type": "event"
    },
    {
      "anonymous": false,
      "inputs": [
        {
          "indexed": true,
          "internalType": "address",
          "name": "operator",
          "type": "address"
        },
        {
          "indexed": true,
          "internalType": "address",
          "name": "from",
          "type": "address"
        },
        {
          "indexed": true,
          "internalType": "address",
          "name": "to",
          "type": "address"
        },
        {
          "indexed": false,
          "internalType": "uint256",
          "name": "id",
          "type": "uint256"
        },
        {
          "indexed": false,
          "internalType": "uint256",
          "name": "value",
          "type": "uint256"
        }
      ],
      "name": "TransferSingle",
      "type": "event"
    },
    {
      "anonymous": false,
      "inputs": [
        {
          "indexed": false,
          "internalType": "string",
          "name": "value",
          "type": "string"
        },
        {
          "indexed": true,
          "internalType": "uint256",
          "name": "id",
          "type": "uint256"
        }
      ],
      "name": "URI",
      "type": "event"
    },
    {
      "anonymous": false,
      "inputs": [
        {
          "indexed": false,
          "internalType": "uint256",
          "name": "id",
          "type": "uint256"
        },
        {
          "indexed": false,
          "internalType": "address",
          "name": "superfan",
          "type": "address"
        }
      ],
      "name": "limitedSongBought",
      "type": "event"
    },
    {
      "anonymous": false,
      "inputs": [
        {
          "indexed": false,
          "internalType": "uint256",
          "name": "id",
          "type": "uint256"
        },
        {
          "indexed": false,
          "internalType": "address",
          "name": "buyer",
          "type": "address"
        }
      ],
      "name": "regularSongBought",
      "type": "event"
    },
    {
      "anonymous": false,
      "inputs": [
        {
          "indexed": false,
          "internalType": "uint256",
          "name": "songId",
          "type": "uint256"
        },
        {
          "indexed": false,
          "internalType": "uint256",
          "name": "ltdSongId",
          "type": "uint256"
        },
        {
          "indexed": false,
          "internalType": "address",
          "name": "artist",
          "type": "address"
        },
        {
          "indexed": false,
          "internalType": "uint256",
          "name": "limitedSupply",
          "type": "uint256"
        },
        {
          "indexed": false,
          "internalType": "uint256",
          "name": "regularPrice",
          "type": "uint256"
        },
        {
          "indexed": false,
          "internalType": "uint256",
          "name": "limitedPrice",
          "type": "uint256"
        },
        {
          "indexed": false,
          "internalType": "uint256",
          "name": "platformRoyality",
          "type": "uint256"
        },
        {
          "indexed": false,
          "internalType": "uint256",
          "name": "superfanRoyality",
          "type": "uint256"
        }
      ],
      "name": "songCreated",
      "type": "event"
    },
    {
      "anonymous": false,
      "inputs": [
        {
          "indexed": false,
          "internalType": "address",
          "name": "caller",
          "type": "address"
        }
      ],
      "name": "withdrawnFunds",
      "type": "event"
    },
    {
      "inputs": [],
      "name": "Owner",
      "outputs": [
        {
          "internalType": "address",
          "name": "",
          "type": "address"
        }
      ],
      "stateMutability": "view",
      "type": "function"
    },
    {
      "inputs": [
        {
          "internalType": "address",
          "name": "account",
          "type": "address"
        },
        {
          "internalType": "uint256",
          "name": "id",
          "type": "uint256"
        }
      ],
      "name": "balanceOf",
      "outputs": [
        {
          "internalType": "uint256",
          "name": "",
          "type": "uint256"
        }
      ],
      "stateMutability": "view",
      "type": "function"
    },
    {
      "inputs": [
        {
          "internalType": "address[]",
          "name": "accounts",
          "type": "address[]"
        },
        {
          "internalType": "uint256[]",
          "name": "ids",
          "type": "uint256[]"
        }
      ],
      "name": "balanceOfBatch",
      "outputs": [
        {
          "internalType": "uint256[]",
          "name": "",
          "type": "uint256[]"
        }
      ],
      "stateMutability": "view",
      "type": "function"
    },
    {
      "inputs": [
        {
          "internalType": "uint256",
          "name": "songId",
          "type": "uint256"
        }
      ],
      "name": "buyLimitedSong",
      "outputs": [],
      "stateMutability": "payable",
      "type": "function"
    },
    {
      "inputs": [
        {
          "internalType": "uint256",
          "name": "songId",
          "type": "uint256"
        }
      ],
      "name": "buyRegularSong",
      "outputs": [],
      "stateMutability": "payable",
      "type": "function"
    },
    {
      "inputs": [
        {
          "internalType": "uint256",
          "name": "_limitedSupply",
          "type": "uint256"
        },
        {
          "internalType": "uint256",
          "name": "_regularSongPrice",
          "type": "uint256"
        },
        {
          "internalType": "uint256",
          "name": "_limitedSongPrice",
          "type": "uint256"
        },
        {
          "internalType": "string",
          "name": "_songURI",
          "type": "string"
        },
        {
          "internalType": "uint256",
          "name": "_platformRoyality",
          "type": "uint256"
        },
        {
          "internalType": "uint256",
          "name": "_superfanRoyality",
          "type": "uint256"
        }
      ],
      "name": "createSong",
      "outputs": [
        {
          "internalType": "uint256",
          "name": "songId",
          "type": "uint256"
        }
      ],
      "stateMutability": "nonpayable",
      "type": "function"
    },
    {
      "inputs": [
        {
          "internalType": "uint256",
          "name": "id",
          "type": "uint256"
        }
      ],
      "name": "exists",
      "outputs": [
        {
          "internalType": "bool",
          "name": "",
          "type": "bool"
        }
      ],
      "stateMutability": "view",
      "type": "function"
    },
    {
      "inputs": [],
      "name": "getCurrentSongId",
      "outputs": [
        {
          "internalType": "uint256",
          "name": "current",
          "type": "uint256"
        }
      ],
      "stateMutability": "view",
      "type": "function"
    },
    {
      "inputs": [
        {
          "internalType": "uint256",
          "name": "id",
          "type": "uint256"
        }
      ],
      "name": "getSong",
      "outputs": [
        {
          "components": [
            {
              "internalType": "address",
              "name": "artist",
              "type": "address"
            },
            {
              "internalType": "uint256",
              "name": "songId",
              "type": "uint256"
            },
            {
              "internalType": "uint256",
              "name": "ltdSongId",
              "type": "uint256"
            },
            {
              "internalType": "uint256",
              "name": "limitedSupply",
              "type": "uint256"
            },
            {
              "internalType": "uint256",
              "name": "limitedSongMinted",
              "type": "uint256"
            },
            {
              "internalType": "uint256",
              "name": "regularPrice",
              "type": "uint256"
            },
            {
              "internalType": "uint256",
              "name": "limitedPrice",
              "type": "uint256"
            },
            {
              "internalType": "uint256",
              "name": "regularRevenue",
              "type": "uint256"
            },
            {
              "internalType": "uint256",
              "name": "ltdRevenue",
              "type": "uint256"
            },
            {
              "internalType": "uint256",
              "name": "platformRoyality",
              "type": "uint256"
            },
            {
              "internalType": "uint256",
              "name": "superfanRoyality",
              "type": "uint256"
            },
            {
              "internalType": "address[]",
              "name": "superfans",
              "type": "address[]"
            }
          ],
          "internalType": "struct Radiohead.Song",
          "name": "song",
          "type": "tuple"
        }
      ],
      "stateMutability": "view",
      "type": "function"
    },
    {
      "inputs": [],
      "name": "getSongs",
      "outputs": [
        {
          "components": [
            {
              "internalType": "address",
              "name": "artist",
              "type": "address"
            },
            {
              "internalType": "uint256",
              "name": "songId",
              "type": "uint256"
            },
            {
              "internalType": "uint256",
              "name": "ltdSongId",
              "type": "uint256"
            },
            {
              "internalType": "uint256",
              "name": "limitedSupply",
              "type": "uint256"
            },
            {
              "internalType": "uint256",
              "name": "limitedSongMinted",
              "type": "uint256"
            },
            {
              "internalType": "uint256",
              "name": "regularPrice",
              "type": "uint256"
            },
            {
              "internalType": "uint256",
              "name": "limitedPrice",
              "type": "uint256"
            },
            {
              "internalType": "uint256",
              "name": "regularRevenue",
              "type": "uint256"
            },
            {
              "internalType": "uint256",
              "name": "ltdRevenue",
              "type": "uint256"
            },
            {
              "internalType": "uint256",
              "name": "platformRoyality",
              "type": "uint256"
            },
            {
              "internalType": "uint256",
              "name": "superfanRoyality",
              "type": "uint256"
            },
            {
              "internalType": "address[]",
              "name": "superfans",
              "type": "address[]"
            }
          ],
          "internalType": "struct Radiohead.Song[]",
          "name": "gaane",
          "type": "tuple[]"
        }
      ],
      "stateMutability": "view",
      "type": "function"
    },
    {
      "inputs": [
        {
          "internalType": "address",
          "name": "account",
          "type": "address"
        },
        {
          "internalType": "address",
          "name": "operator",
          "type": "address"
        }
      ],
      "name": "isApprovedForAll",
      "outputs": [
        {
          "internalType": "bool",
          "name": "",
          "type": "bool"
        }
      ],
      "stateMutability": "view",
      "type": "function"
    },
    {
      "inputs": [],
      "name": "name",
      "outputs": [
        {
          "internalType": "string",
          "name": "",
          "type": "string"
        }
      ],
      "stateMutability": "view",
      "type": "function"
    },
    {
      "inputs": [
        {
          "internalType": "address",
          "name": "from",
          "type": "address"
        },
        {
          "internalType": "address",
          "name": "to",
          "type": "address"
        },
        {
          "internalType": "uint256[]",
          "name": "ids",
          "type": "uint256[]"
        },
        {
          "internalType": "uint256[]",
          "name": "amounts",
          "type": "uint256[]"
        },
        {
          "internalType": "bytes",
          "name": "data",
          "type": "bytes"
        }
      ],
      "name": "safeBatchTransferFrom",
      "outputs": [],
      "stateMutability": "nonpayable",
      "type": "function"
    },
    {
      "inputs": [
        {
          "internalType": "address",
          "name": "from",
          "type": "address"
        },
        {
          "internalType": "address",
          "name": "to",
          "type": "address"
        },
        {
          "internalType": "uint256",
          "name": "id",
          "type": "uint256"
        },
        {
          "internalType": "uint256",
          "name": "amount",
          "type": "uint256"
        },
        {
          "internalType": "bytes",
          "name": "data",
          "type": "bytes"
        }
      ],
      "name": "safeTransferFrom",
      "outputs": [],
      "stateMutability": "nonpayable",
      "type": "function"
    },
    {
      "inputs": [
        {
          "internalType": "address",
          "name": "operator",
          "type": "address"
        },
        {
          "internalType": "bool",
          "name": "approved",
          "type": "bool"
        }
      ],
      "name": "setApprovalForAll",
      "outputs": [],
      "stateMutability": "nonpayable",
      "type": "function"
    },
    {
      "inputs": [
        {
          "internalType": "uint256",
          "name": "",
          "type": "uint256"
        }
      ],
      "name": "songIndex",
      "outputs": [
        {
          "internalType": "uint256",
          "name": "",
          "type": "uint256"
        }
      ],
      "stateMutability": "view",
      "type": "function"
    },
    {
      "inputs": [
        {
          "internalType": "uint256",
          "name": "",
          "type": "uint256"
        }
      ],
      "name": "songsArray",
      "outputs": [
        {
          "internalType": "address",
          "name": "artist",
          "type": "address"
        },
        {
          "internalType": "uint256",
          "name": "songId",
          "type": "uint256"
        },
        {
          "internalType": "uint256",
          "name": "ltdSongId",
          "type": "uint256"
        },
        {
          "internalType": "uint256",
          "name": "limitedSupply",
          "type": "uint256"
        },
        {
          "internalType": "uint256",
          "name": "limitedSongMinted",
          "type": "uint256"
        },
        {
          "internalType": "uint256",
          "name": "regularPrice",
          "type": "uint256"
        },
        {
          "internalType": "uint256",
          "name": "limitedPrice",
          "type": "uint256"
        },
        {
          "internalType": "uint256",
          "name": "regularRevenue",
          "type": "uint256"
        },
        {
          "internalType": "uint256",
          "name": "ltdRevenue",
          "type": "uint256"
        },
        {
          "internalType": "uint256",
          "name": "platformRoyality",
          "type": "uint256"
        },
        {
          "internalType": "uint256",
          "name": "superfanRoyality",
          "type": "uint256"
        }
      ],
      "stateMutability": "view",
      "type": "function"
    },
    {
      "inputs": [
        {
          "internalType": "bytes4",
          "name": "interfaceId",
          "type": "bytes4"
        }
      ],
      "name": "supportsInterface",
      "outputs": [
        {
          "internalType": "bool",
          "name": "",
          "type": "bool"
        }
      ],
      "stateMutability": "view",
      "type": "function"
    },
    {
      "inputs": [
        {
          "internalType": "uint256",
          "name": "id",
          "type": "uint256"
        }
      ],
      "name": "totalSupply",
      "outputs": [
        {
          "internalType": "uint256",
          "name": "",
          "type": "uint256"
        }
      ],
      "stateMutability": "view",
      "type": "function"
    },
    {
      "inputs": [
        {
          "internalType": "uint256",
          "name": "tokenId",
          "type": "uint256"
        }
      ],
      "name": "uri",
      "outputs": [
        {
          "internalType": "string",
          "name": "",
          "type": "string"
        }
      ],
      "stateMutability": "view",
      "type": "function"
    },
    {
      "inputs": [],
      "name": "withdrawRoyalities",
      "outputs": [],
      "stateMutability": "nonpayable",
      "type": "function"
    },
    {
      "stateMutability": "payable",
      "type": "receive"
    }
  ],
  "bytecode": "0x6080604052604051806020016040528060008152506003908162000024919062000430565b506040518060400160405280600981526020017f526164696f686561640000000000000000000000000000000000000000000000815250600690816200006b919062000430565b503480156200007957600080fd5b5060405162006e2738038062006e2783398181016040528101906200009f919062000581565b60405180602001604052806000815250620000c0816200019e60201b60201c565b50620000dd67ffc9b28a70c09b0360c01b620001b360201b60201c565b620000f9676d9f30719e44a7f360c01b620001b360201b60201c565b80600860006101000a81548173ffffffffffffffffffffffffffffffffffffffff021916908373ffffffffffffffffffffffffffffffffffffffff1602179055506200015667e818275445e97a6c60c01b620001b360201b60201c565b33600960006101000a81548173ffffffffffffffffffffffffffffffffffffffff021916908373ffffffffffffffffffffffffffffffffffffffff16021790555050620005b3565b8060029081620001af919062000430565b5050565b50565b600081519050919050565b7f4e487b7100000000000000000000000000000000000000000000000000000000600052604160045260246000fd5b7f4e487b7100000000000000000000000000000000000000000000000000000000600052602260045260246000fd5b600060028204905060018216806200023857607f821691505b6020821081036200024e576200024d620001f0565b5b50919050565b60008190508160005260206000209050919050565b60006020601f8301049050919050565b600082821b905092915050565b600060088302620002b87fffffffffffffffffffffffffffffffffffffffffffffffffffffffffffffffff8262000279565b620002c4868362000279565b95508019841693508086168417925050509392505050565b6000819050919050565b6000819050919050565b6000620003116200030b6200030584620002dc565b620002e6565b620002dc565b9050919050565b6000819050919050565b6200032d83620002f0565b620003456200033c8262000318565b84845462000286565b825550505050565b600090565b6200035c6200034d565b6200036981848462000322565b505050565b5b8181101562000391576200038560008262000352565b6001810190506200036f565b5050565b601f821115620003e057620003aa8162000254565b620003b58462000269565b81016020851015620003c5578190505b620003dd620003d48562000269565b8301826200036e565b50505b505050565b600082821c905092915050565b60006200040560001984600802620003e5565b1980831691505092915050565b6000620004208383620003f2565b9150826002028217905092915050565b6200043b82620001b6565b67ffffffffffffffff811115620004575762000456620001c1565b5b6200046382546200021f565b6200047082828562000395565b600060209050601f831160018114620004a8576000841562000493578287015190505b6200049f858262000412565b8655506200050f565b601f198416620004b88662000254565b60005b82811015620004e257848901518255600182019150602085019450602081019050620004bb565b86831015620005025784890151620004fe601f891682620003f2565b8355505b6001600288020188555050505b505050505050565b600080fd5b600073ffffffffffffffffffffffffffffffffffffffff82169050919050565b600062000549826200051c565b9050919050565b6200055b816200053c565b81146200056757600080fd5b50565b6000815190506200057b8162000550565b92915050565b6000602082840312156200059a576200059962000517565b5b6000620005aa848285016200056a565b91505092915050565b61686480620005c36000396000f3fe60806040526004361061012d5760003560e01c80635fe34985116100ab578063b9414d311161006f578063b9414d3114610436578063bd85b0391461047d578063e985e9c5146104ba578063eea7eaf6146104f7578063f242432a14610513578063fad00ac21461053c57610134565b80635fe34985146103635780637c76c2321461038e5780637d048509146103a5578063a22cb465146103e2578063b4a99a4e1461040b57610134565b80632eb2c2d6116100f25780632eb2c2d61461025857806342acaa66146102815780634e1273f4146102be5780634f558e79146102fb5780635565f6601461033857610134565b8062fdd58e1461013957806301ffc9a71461017657806306fdde03146101b35780630e89341c146101de5780632b9c27601461021b57610134565b3661013457005b600080fd5b34801561014557600080fd5b50610160600480360381019061015b919061456f565b610558565b60405161016d91906145be565b60405180910390f35b34801561018257600080fd5b5061019d60048036038101906101989190614631565b610620565b6040516101aa9190614679565b60405180910390f35b3480156101bf57600080fd5b506101c8610702565b6040516101d59190614724565b60405180910390f35b3480156101ea57600080fd5b5061020560048036038101906102009190614746565b610790565b6040516102129190614724565b60405180910390f35b34801561022757600080fd5b50610242600480360381019061023d9190614746565b6107de565b60405161024f91906145be565b60405180910390f35b34801561026457600080fd5b5061027f600480360381019061027a9190614970565b6107f6565b005b34801561028d57600080fd5b506102a860048036038101906102a39190614746565b610897565b6040516102b59190614c10565b60405180910390f35b3480156102ca57600080fd5b506102e560048036038101906102e09190614cf5565b610da8565b6040516102f29190614e1c565b60405180910390f35b34801561030757600080fd5b50610322600480360381019061031d9190614746565b610ec1565b60405161032f9190614679565b60405180910390f35b34801561034457600080fd5b5061034d610ed5565b60405161035a9190615004565b60405180910390f35b34801561036f57600080fd5b506103786110a5565b60405161038591906145be565b60405180910390f35b34801561039a57600080fd5b506103a36110de565b005b3480156103b157600080fd5b506103cc60048036038101906103c791906150c7565b611ded565b6040516103d991906145be565b60405180910390f35b3480156103ee57600080fd5b506104096004803603810190610404919061519c565b61237e565b005b34801561041757600080fd5b50610420612394565b60405161042d91906151eb565b60405180910390f35b34801561044257600080fd5b5061045d60048036038101906104589190614746565b6123ba565b6040516104749b9a99989796959493929190615206565b60405180910390f35b34801561048957600080fd5b506104a4600480360381019061049f9190614746565b612444565b6040516104b191906145be565b60405180910390f35b3480156104c657600080fd5b506104e160048036038101906104dc91906152b1565b612461565b6040516104ee9190614679565b60405180910390f35b610511600480360381019061050c9190614746565b6124f5565b005b34801561051f57600080fd5b5061053a600480360381019061053591906152f1565b612b07565b005b61055660048036038101906105519190614746565b612ba8565b005b60008073ffffffffffffffffffffffffffffffffffffffff168373ffffffffffffffffffffffffffffffffffffffff16036105c8576040517f08c379a00000000000000000000000000000000000000000000000000000000081526004016105bf906153fa565b60405180910390fd5b60008083815260200190815260200160002060008473ffffffffffffffffffffffffffffffffffffffff1673ffffffffffffffffffffffffffffffffffffffff16815260200190815260200160002054905092915050565b60007fd9b67a26000000000000000000000000000000000000000000000000000000007bffffffffffffffffffffffffffffffffffffffffffffffffffffffff1916827bffffffffffffffffffffffffffffffffffffffffffffffffffffffff191614806106eb57507f0e89341c000000000000000000000000000000000000000000000000000000007bffffffffffffffffffffffffffffffffffffffffffffffffffffffff1916827bffffffffffffffffffffffffffffffffffffffffffffffffffffffff1916145b806106fb57506106fa82613279565b5b9050919050565b6006805461070f90615449565b80601f016020809104026020016040519081016040528092919081815260200182805461073b90615449565b80156107885780601f1061075d57610100808354040283529160200191610788565b820191906000526020600020905b81548152906001019060200180831161076b57829003601f168201915b505050505081565b60606107a667e96f58d0016641f060c01b6132e3565b6107ba67df160e88d7d1f3f960c01b6132e3565b6107ce6792bdf2785829703f60c01b6132e3565b6107d7826132e6565b9050919050565b600b6020528060005260406000206000915090505481565b6107fe6133cb565b73ffffffffffffffffffffffffffffffffffffffff168573ffffffffffffffffffffffffffffffffffffffff16148061084457506108438561083e6133cb565b612461565b5b610883576040517f08c379a000000000000000000000000000000000000000000000000000000000815260040161087a906154ec565b60405180910390fd5b61089085858585856133d3565b5050505050565b61089f614450565b6108b36743165df8c5a51b2760c01b6132e3565b6108c76743963916d9ae029960c01b6132e3565b6108db67072f04dff343dbbc60c01b6132e3565b60006002836108ea919061553b565b14610b3f57610903670166d6dc7098514660c01b6132e3565b61091767a01affc48b48bf9860c01b6132e3565b61092b676bd771cbc19179b460c01b6132e3565b61093f673739fae9c51dc38160c01b6132e3565b61094882610ec1565b610987576040517f08c379a000000000000000000000000000000000000000000000000000000000815260040161097e906155b8565b60405180910390fd5b61099b67ddc7de8fc1036a8f60c01b6132e3565b6109af67d982758cf333f89160c01b6132e3565b600a600b600084815260200190815260200160002054815481106109d6576109d56155d8565b5b90600052602060002090600c0201604051806101800160405290816000820160009054906101000a900473ffffffffffffffffffffffffffffffffffffffff1673ffffffffffffffffffffffffffffffffffffffff1673ffffffffffffffffffffffffffffffffffffffff168152602001600182015481526020016002820154815260200160038201548152602001600482015481526020016005820154815260200160068201548152602001600782015481526020016008820154815260200160098201548152602001600a8201548152602001600b8201805480602002602001604051908101604052809291908181526020018280548015610b2f57602002820191906000526020600020905b8160009054906101000a900473ffffffffffffffffffffffffffffffffffffffff1673ffffffffffffffffffffffffffffffffffffffff1681526020019060010190808311610ae5575b5050505050815250509050610da3565b610b53676bf80ac86d4e0fe260c01b6132e3565b610b6767eee4128e080c33f960c01b6132e3565b610b7b67d6691f227afcd41660c01b6132e3565b610b8f67c37378237b00549360c01b6132e3565b610ba4600183610b9f9190615636565b610ec1565b610be3576040517f08c379a0000000000000000000000000000000000000000000000000000000008152600401610bda906155b8565b60405180910390fd5b610bf7672a7e9247eb2c962a60c01b6132e3565b610c0b674efa88f7b1a804a460c01b6132e3565b600a600b6000600185610c1e9190615636565b81526020019081526020016000205481548110610c3e57610c3d6155d8565b5b90600052602060002090600c0201604051806101800160405290816000820160009054906101000a900473ffffffffffffffffffffffffffffffffffffffff1673ffffffffffffffffffffffffffffffffffffffff1673ffffffffffffffffffffffffffffffffffffffff168152602001600182015481526020016002820154815260200160038201548152602001600482015481526020016005820154815260200160068201548152602001600782015481526020016008820154815260200160098201548152602001600a8201548152602001600b8201805480602002602001604051908101604052809291908181526020018280548015610d9757602002820191906000526020600020905b8160009054906101000a900473ffffffffffffffffffffffffffffffffffffffff1673ffffffffffffffffffffffffffffffffffffffff1681526020019060010190808311610d4d575b50505050508152505090505b919050565b60608151835114610dee576040517f08c379a0000000000000000000000000000000000000000000000000000000008152600401610de5906156dc565b60405180910390fd5b6000835167ffffffffffffffff811115610e0b57610e0a614778565b5b604051908082528060200260200182016040528015610e395781602001602082028036833780820191505090505b50905060005b8451811015610eb657610e86858281518110610e5e57610e5d6155d8565b5b6020026020010151858381518110610e7957610e786155d8565b5b6020026020010151610558565b828281518110610e9957610e986155d8565b5b60200260200101818152505080610eaf906156fc565b9050610e3f565b508091505092915050565b600080610ecd83612444565b119050919050565b6060610eeb67b950bb99f005fec860c01b6132e3565b610eff67e4b3048ce3c0f5d360c01b6132e3565b600a805480602002602001604051908101604052809291908181526020016000905b8282101561109c57838290600052602060002090600c0201604051806101800160405290816000820160009054906101000a900473ffffffffffffffffffffffffffffffffffffffff1673ffffffffffffffffffffffffffffffffffffffff1673ffffffffffffffffffffffffffffffffffffffff168152602001600182015481526020016002820154815260200160038201548152602001600482015481526020016005820154815260200160068201548152602001600782015481526020016008820154815260200160098201548152602001600a8201548152602001600b820180548060200260200160405190810160405280929190818152602001828054801561108457602002820191906000526020600020905b8160009054906101000a900473ffffffffffffffffffffffffffffffffffffffff1673ffffffffffffffffffffffffffffffffffffffff168152602001906001019080831161103a575b50505050508152505081526020019060010190610f21565b50505050905090565b60006110bb67353af7ea390c79fb60c01b6132e3565b6110cf675efa0cb9f4a6dcba60c01b6132e3565b6110d960076136f4565b905090565b6110f166192c17e2367ff660c01b6132e3565b61110567effb976d2081988c60c01b6132e3565b61111967fde77f3317bb46bf60c01b6132e3565b61112d67f1a88dca251ad6b360c01b6132e3565b6000611143674b4bcb740e7cc10c60c01b6132e3565b611157674cec375e903ac5a760c01b6132e3565b60005b600a805490508110156114275761117b67d9c2fac3b1f3d92560c01b6132e3565b61118f6727df76b7759e4f3760c01b6132e3565b6000600a82815481106111a5576111a46155d8565b5b90600052602060002090600c0201604051806101800160405290816000820160009054906101000a900473ffffffffffffffffffffffffffffffffffffffff1673ffffffffffffffffffffffffffffffffffffffff1673ffffffffffffffffffffffffffffffffffffffff168152602001600182015481526020016002820154815260200160038201548152602001600482015481526020016005820154815260200160068201548152602001600782015481526020016008820154815260200160098201548152602001600a8201548152602001600b82018054806020026020016040519081016040528092919081815260200182805480156112fe57602002820191906000526020600020905b8160009054906101000a900473ffffffffffffffffffffffffffffffffffffffff1673ffffffffffffffffffffffffffffffffffffffff16815260200190600101908083116112b4575b505050505081525050905061131d67fbcd188630cf497760c01b6132e3565b611331674db8aaf403998a8260c01b6132e3565b6000611341338360400151610558565b11801561135e575061135d6762c41d757b33d36a60c01b613702565b5b806113b457503373ffffffffffffffffffffffffffffffffffffffff16816000015173ffffffffffffffffffffffffffffffffffffffff161480156113b357506113b267d381e7714c91505960c01b613702565b5b5b156113ff576113cd67c8a2ac060b93360860c01b6132e3565b6113e1676a6b03fc10f4f3db60c01b6132e3565b600192506113f9670e07fad35a71fdf660c01b6132e3565b50611427565b6114136715829547a2bce3ac60c01b6132e3565b50808061141f906156fc565b91505061115a565b5061143c670374012503295f1d60c01b6132e3565b6114506784c3697e87283ce160c01b6132e3565b600960009054906101000a900473ffffffffffffffffffffffffffffffffffffffff1673ffffffffffffffffffffffffffffffffffffffff163373ffffffffffffffffffffffffffffffffffffffff16036114d6576114b967a02f5ba6c5a1532560c01b6132e3565b6114cd67e3efd31073b3ee5860c01b6132e3565b600190506114eb565b6114ea670b456bac688ff1ee60c01b6132e3565b5b6114ff67d3827f5c46deb19260c01b6132e3565b61151367f6f5dfe2625bd53660c01b6132e3565b61152767e33a4690d748f25060c01b6132e3565b80611567576040517f08c379a000000000000000000000000000000000000000000000000000000000815260040161155e906157b6565b60405180910390fd5b61157b67c9812391a1fec41e60c01b6132e3565b61158f6787f852e2f748bc2b60c01b6132e3565b6115a36739a203d4fe88e16a60c01b6132e3565b6115b76740c143d08573337e60c01b6132e3565b6115cb67f05d98e25128e6aa60c01b6132e3565b6115df678c0b7e8d0887d1d060c01b6132e3565b60005b600a80549050811015611c435761160367d5e06e7a3074958660c01b6132e3565b61161767fd7a8c993978227d60c01b6132e3565b600061162d674f8e8664aa6ee8ee60c01b6132e3565b600a8281548110611641576116406155d8565b5b90600052602060002090600c020190506116656740a9fdf1dfd4fe6a60c01b6132e3565b6116796726b0ab715b4abb0960c01b6132e3565b600081600901546064836007015461169191906157d6565b61169b9190615807565b90506116b1679930b9b7ce2dbc6e60c01b6132e3565b6116c5674511ad7431708c3660c01b6132e3565b60008183600701546116d79190615636565b90506116ed67ae7e718f5705a4b160c01b6132e3565b611701673f1c070a945b97ae60c01b6132e3565b600083600901546064856008015461171991906157d6565b6117239190615807565b905061173967ca0bf1ac407ccb1c60c01b6132e3565b61174d67086b740c548bc01f60c01b6132e3565b600081856008015461175f9190615636565b905061177567829fbd331b07dfc160c01b6132e3565b61178967806a0231c36fe5a160c01b6132e3565b600085600b0180548060200260200160405190810160405280929190818152602001828054801561180f57602002820191906000526020600020905b8160009054906101000a900473ffffffffffffffffffffffffffffffffffffffff1673ffffffffffffffffffffffffffffffffffffffff16815260200190600101908083116117c5575b5050505050905061182a67d48077c04fdb4dc160c01b6132e3565b61183e679594313ecbdd1f5360c01b6132e3565b6000866003015487600a01546064896007015461185b91906157d6565b6118659190615807565b61186f91906157d6565b905061188567e8cb1e86e79dc60060c01b6132e3565b61189967dc3c9bbacca826d160c01b6132e3565b60008251826118a89190615807565b90506118be672676dcaa08245e8560c01b6132e3565b6118d2673f12f6f642c645d760c01b6132e3565b60008185886118e19190615849565b6118eb9190615636565b905061190167fbe2f9732c7273f260c01b6132e3565b6000896007018190555061191f6762bbd5f608d6dfb360c01b6132e3565b6000896008018190555061193d678bfd98e46216275360c01b6132e3565b61195167d49b176be94928c160c01b6132e3565b60008960000160009054906101000a900473ffffffffffffffffffffffffffffffffffffffff1673ffffffffffffffffffffffffffffffffffffffff168260405161199b906158ae565b60006040518083038185875af1925050503d80600081146119d8576040519150601f19603f3d011682016040523d82523d6000602084013e6119dd565b606091505b505090506119f5678c66edd5a7648e7a60c01b6132e3565b611a09676f62ee41cbbd85b060c01b6132e3565b611a1d67760cb2cde59cb57760c01b6132e3565b80611a5d576040517f08c379a0000000000000000000000000000000000000000000000000000000008152600401611a5490615935565b60405180910390fd5b611a7167f94805a6da7bd28660c01b6132e3565b611a8567648ba9be4514367060c01b6132e3565b611a99674f2620572167df2660c01b6132e3565b60005b8551811015611c2557611ab967dd4e95344dca50d960c01b6132e3565b611acd677cd96d163f6382df60c01b6132e3565b6000868d81518110611ae257611ae16155d8565b5b60200260200101519050611b006744638c7ac7307f6160c01b6132e3565b611b14674a49a8a91cc5207060c01b6132e3565b60008173ffffffffffffffffffffffffffffffffffffffff1687604051611b3a906158ae565b60006040518083038185875af1925050503d8060008114611b77576040519150601f19603f3d011682016040523d82523d6000602084013e611b7c565b606091505b50509050611b9467c7d438d6a3b7fb9060c01b6132e3565b611ba86799b1b67148338b5760c01b6132e3565b611bbc67443d26f67adb6f9460c01b6132e3565b80611bfc576040517f08c379a0000000000000000000000000000000000000000000000000000000008152600401611bf3906159c7565b60405180910390fd5b611c1067f337743df2786e2360c01b6132e3565b50508080611c1d906156fc565b915050611a9c565b50505050505050505050508080611c3b906156fc565b9150506115e2565b50611c58671d53049d0a2b554c60c01b6132e3565b611c6c67235d1367b062030f60c01b6132e3565b6000600960009054906101000a900473ffffffffffffffffffffffffffffffffffffffff1673ffffffffffffffffffffffffffffffffffffffff1647604051611cb4906158ae565b60006040518083038185875af1925050503d8060008114611cf1576040519150601f19603f3d011682016040523d82523d6000602084013e611cf6565b606091505b50509050611d0e6737d22de4c1e8c1a060c01b6132e3565b611d226752c799b6bb10d79460c01b6132e3565b611d36675eaa3970c426b1a860c01b6132e3565b80611d76576040517f08c379a0000000000000000000000000000000000000000000000000000000008152600401611d6d90615a59565b60405180910390fd5b611d8a67873e31988971c6d760c01b6132e3565b611d9e6758060c29e4e3c45060c01b6132e3565b611db26760516e49e37cc78260c01b6132e3565b7f0d6b85ae024a6a6596815f1c1c2f8d5bf382f93d8e56c3c88b3b58bbbca20b7d33604051611de191906151eb565b60405180910390a15050565b6000611e036792a2745dc2e6805060c01b6132e3565b611e17675ece8b6556f2221560c01b6132e3565b611e2b67d9181de005aeb1d560c01b6132e3565b611e3f67ac0e33e1dbd513a360c01b6132e3565b60008711611e82576040517f08c379a0000000000000000000000000000000000000000000000000000000008152600401611e7990615aeb565b60405180910390fd5b611e96671ef6bc2f9483a5f960c01b6132e3565b611eaa67aa3c40bdb3b97eca60c01b6132e3565b611ebe675661676ec4837fcf60c01b6132e3565b611ec8600761370d565b611edc67c98111812f61186d60c01b6132e3565b611ee660076136f4565b9050611efc67d83a4d16d7442ed260c01b6132e3565b611f1067379d3146e460a20560c01b6132e3565b611f30338264e8d4a5100060405180602001604052806000815250613723565b611f4467723df66318159d2760c01b6132e3565b611f5867f280b0b3997c954460c01b6132e3565b611f6281856138d3565b611f7667daf5f0d81ae7f22f60c01b6132e3565b611f8a677dc375642deeba7560c01b6132e3565b6000600a6001816001815401808255809150500390600052602060002090600c02019050611fc2677f2035a04b9933b060c01b6132e3565b338160000160006101000a81548173ffffffffffffffffffffffffffffffffffffffff021916908373ffffffffffffffffffffffffffffffffffffffff160217905550612019675b21f2e83ae6b53060c01b6132e3565b81816001018190555061203667b617baa9a918489260c01b6132e3565b87816003018190555061205367e91e688ae01ca9a360c01b6132e3565b86816005018190555061207067beaa40fb3518dae360c01b6132e3565b85816006018190555061208d67b863bf816919114060c01b6132e3565b8381600901819055506120aa6766e0a6abc7dd6d7760c01b6132e3565b8281600a01819055506120c7676f6e91a22d154c4660c01b6132e3565b6120db6708937e0071fbf82f60c01b6132e3565b6120e5600761370d565b6120f967ab85e291e5e1a1f660c01b6132e3565b61210d6786ce907338e04f0560c01b6132e3565b600061211960076136f4565b905061212f6762db5de87b53fe1560c01b6132e3565b61214367d30f2aa2808ea05560c01b6132e3565b61215e33828b60405180602001604052806000815250613723565b61217267dc20eb4ec86187d960c01b6132e3565b61218667427b704e5f78fc2c60c01b6132e3565b61219081876138d3565b6121a467b7749ded1f0967a260c01b6132e3565b8082600201819055506121c1672265e3181768cfc160c01b6132e3565b6121d5677760f06dbd0e86b660c01b6132e3565b61220133600860009054906101000a900473ffffffffffffffffffffffffffffffffffffffff16612461565b61227357612219671a1c9901dc6b6d8960c01b6132e3565b61222d67ed9844dece3c263f60c01b6132e3565b612241673cfb66b7eae94d8060c01b6132e3565b61226e600860009054906101000a900473ffffffffffffffffffffffffffffffffffffffff16600161237e565b612288565b61228767324ff9f0deed9bf160c01b6132e3565b5b61229c67cbde9fcdb46db22a60c01b6132e3565b6001600a805490506122ae9190615636565b600b6000858152602001908152602001600020819055506122d967a4c3252dbd848be260c01b6132e3565b6122ed6739e315a8569a79dd60c01b6132e3565b7fe44a95d90db666eec698ee335d929af1295456ef22acf300487f3b13cee736f1826001015483600201548460000160009054906101000a900473ffffffffffffffffffffffffffffffffffffffff16856003015486600501548760060154886009015489600a015460405161236a989796959493929190615b0b565b60405180910390a150509695505050505050565b6123906123896133cb565b8383613938565b5050565b600960009054906101000a900473ffffffffffffffffffffffffffffffffffffffff1681565b600a81815481106123ca57600080fd5b90600052602060002090600c02016000915090508060000160009054906101000a900473ffffffffffffffffffffffffffffffffffffffff169080600101549080600201549080600301549080600401549080600501549080600601549080600701549080600801549080600901549080600a015490508b565b600060056000838152602001908152602001600020549050919050565b6000600160008473ffffffffffffffffffffffffffffffffffffffff1673ffffffffffffffffffffffffffffffffffffffff16815260200190815260200160002060008373ffffffffffffffffffffffffffffffffffffffff1673ffffffffffffffffffffffffffffffffffffffff16815260200190815260200160002060009054906101000a900460ff16905092915050565b61250967cbc5dc593e42170060c01b6132e3565b61251d67aa3dd0eea74114d260c01b6132e3565b61253167bc367073cd61dc8560c01b6132e3565b6000612547676f09fe0f77f61c6560c01b6132e3565b61255b671f703ac2938fd11760c01b6132e3565b600060028361256a919061553b565b1461266b5761258367aae81522c0ba085260c01b6132e3565b61259767a4c283132665090760c01b6132e3565b6125ab67be584df4c1cf925360c01b6132e3565b6125bf679201726977ead2c760c01b6132e3565b6125c882610ec1565b612607576040517f08c379a00000000000000000000000000000000000000000000000000000000081526004016125fe906155b8565b60405180910390fd5b61261b6719c32e589d33709a60c01b6132e3565b61262f67638e4643a2d9304060c01b6132e3565b600a600b60008481526020019081526020016000205481548110612656576126556155d8565b5b90600052602060002090600c0201905061277b565b61267f67a3cb02afad33fa8860c01b6132e3565b612693672a5102f4f5f6c95660c01b6132e3565b6126a767a0aee647d1c3a45760c01b6132e3565b6126bb67e30f2b0319daf33360c01b6132e3565b6126d06001836126cb9190615636565b610ec1565b61270f576040517f08c379a0000000000000000000000000000000000000000000000000000000008152600401612706906155b8565b60405180910390fd5b612723673516787904b0961660c01b6132e3565b6127376721b23cdfb1896bd060c01b6132e3565b600a600b600060018561274a9190615636565b8152602001908152602001600020548154811061276a576127696155d8565b5b90600052602060002090600c020190505b61278f670633f46a9d75c30860c01b6132e3565b6127a367badd8399308ccb0e60c01b6132e3565b6127b76738c8dd228f979d5760c01b6132e3565b6127c48160010154610ec1565b612803576040517f08c379a00000000000000000000000000000000000000000000000000000000081526004016127fa90615bfb565b60405180910390fd5b6128176766aec134cc8c4ebb60c01b6132e3565b61282b67849393d87a59aad360c01b6132e3565b61283f671510b2f2e3857ee260c01b6132e3565b612853671b1a1e04a23ca69b60c01b6132e3565b806005015434101561289a576040517f08c379a000000000000000000000000000000000000000000000000000000000815260040161289190615c67565b60405180910390fd5b6128ae673597d9fcf93b61af60c01b6132e3565b6128c267b2d4d6001b1add8160c01b6132e3565b6128d667becc514ead58539a60c01b6132e3565b6128ea67383c80d190a20d5c60c01b6132e3565b3373ffffffffffffffffffffffffffffffffffffffff168160000160009054906101000a900473ffffffffffffffffffffffffffffffffffffffff1673ffffffffffffffffffffffffffffffffffffffff160361297c576040517f08c379a000000000000000000000000000000000000000000000000000000000815260040161297390615cd3565b60405180910390fd5b612990672bc94c012fbf01f860c01b6132e3565b6129a4674c67d033924ebf5160c01b6132e3565b348160070160008282546129b89190615849565b925050819055506129d367eed5017854f126b260c01b6132e3565b6129e767239680b0bb08f0e060c01b6132e3565b600860009054906101000a900473ffffffffffffffffffffffffffffffffffffffff1673ffffffffffffffffffffffffffffffffffffffff166313f2da7b8260010154308460000160009054906101000a900473ffffffffffffffffffffffffffffffffffffffff16336040518563ffffffff1660e01b8152600401612a709493929190615d14565b600060405180830381600087803b158015612a8a57600080fd5b505af1158015612a9e573d6000803e3d6000fd5b50505050612ab667aec73f59d72ca6b460c01b6132e3565b612aca672438c7389d1ce4a960c01b6132e3565b7f04d30d6ef2c1b6dc4fb27350a8a71229ea6d6a3220be9db153486f9bbda5e6ec8233604051612afb929190615d59565b60405180910390a15050565b612b0f6133cb565b73ffffffffffffffffffffffffffffffffffffffff168573ffffffffffffffffffffffffffffffffffffffff161480612b555750612b5485612b4f6133cb565b612461565b5b612b94576040517f08c379a0000000000000000000000000000000000000000000000000000000008152600401612b8b906154ec565b60405180910390fd5b612ba18585858585613aa4565b5050505050565b612bbc67b315505e7f8edf2f60c01b6132e3565b612bd067bc817a9af908c42260c01b6132e3565b612be46766f3ea1057b5aed260c01b6132e3565b6000612bfa672a1deaccedbeb0f860c01b6132e3565b612c0e676735774716e90e0d60c01b6132e3565b6000600283612c1d919061553b565b14612d1e57612c3667512003d972a85b4260c01b6132e3565b612c4a678b556179cf7f789b60c01b6132e3565b612c5e673ab08e229d61eba660c01b6132e3565b612c726731bf4ec739bc43aa60c01b6132e3565b612c7b82610ec1565b612cba576040517f08c379a0000000000000000000000000000000000000000000000000000000008152600401612cb1906155b8565b60405180910390fd5b612cce672c4f7c4561ae053560c01b6132e3565b612ce2671be370c3df35b08f60c01b6132e3565b600a600b60008481526020019081526020016000205481548110612d0957612d086155d8565b5b90600052602060002090600c02019050612e2e565b612d32672a7ad7ce69b3147660c01b6132e3565b612d4667e4521d445797800660c01b6132e3565b612d5a67fcb334abdf297bcf60c01b6132e3565b612d6e67142a8f720c38690c60c01b6132e3565b612d83600183612d7e9190615636565b610ec1565b612dc2576040517f08c379a0000000000000000000000000000000000000000000000000000000008152600401612db9906155b8565b60405180910390fd5b612dd667959c05d4c9c02bcf60c01b6132e3565b612dea6759e0c2e35c3a277660c01b6132e3565b600a600b6000600185612dfd9190615636565b81526020019081526020016000205481548110612e1d57612e1c6155d8565b5b90600052602060002090600c020190505b612e42679a84cf8fa2ceae7e60c01b6132e3565b612e566769cfc76c299c0f6d60c01b6132e3565b612e6a67fc800a711402719960c01b6132e3565b8060030154816004015410612eb4576040517f08c379a0000000000000000000000000000000000000000000000000000000008152600401612eab90615da5565b60405180910390fd5b612ec8679ae1c59aed43b88360c01b6132e3565b612edc67aa45e6dc6b14537860c01b6132e3565b612ef0679bf6407f256f407860c01b6132e3565b612f046775eeb231bf088e4c60c01b6132e3565b8060060154341015612f4b576040517f08c379a0000000000000000000000000000000000000000000000000000000008152600401612f4290615c67565b60405180910390fd5b612f5f671b4f98a704ce0c7260c01b6132e3565b612f7367ac668d02f7d9b4c860c01b6132e3565b612f8767db50abc52dcb8e7b60c01b6132e3565b612f9b671e0d461a4b88a8a460c01b6132e3565b3373ffffffffffffffffffffffffffffffffffffffff168160000160009054906101000a900473ffffffffffffffffffffffffffffffffffffffff1673ffffffffffffffffffffffffffffffffffffffff160361302d576040517f08c379a000000000000000000000000000000000000000000000000000000000815260040161302490615cd3565b60405180910390fd5b6130416765f5a0a5c4c7a60160c01b6132e3565b61305567115bf3d415dea83060c01b6132e3565b600181600401600082825461306a9190615849565b9250508190555061308567b2fa9ffbd07e86db60c01b6132e3565b348160080160008282546130999190615849565b925050819055506130b4675b621284e53355fb60c01b6132e3565b6130c867d39429b623d1db3e60c01b6132e3565b80600b01339080600181540180825580915050600190039060005260206000200160009091909190916101000a81548173ffffffffffffffffffffffffffffffffffffffff021916908373ffffffffffffffffffffffffffffffffffffffff16021790555061314167761fbc309b47830f60c01b6132e3565b61315567e9138225f481c91d60c01b6132e3565b600860009054906101000a900473ffffffffffffffffffffffffffffffffffffffff1673ffffffffffffffffffffffffffffffffffffffff166313f2da7b8260020154308460000160009054906101000a900473ffffffffffffffffffffffffffffffffffffffff16336040518563ffffffff1660e01b81526004016131de9493929190615d14565b600060405180830381600087803b1580156131f857600080fd5b505af115801561320c573d6000803e3d6000fd5b505050506132246773d9f5531d13095b60c01b6132e3565b613238679388c02c18f0915360c01b6132e3565b7f535d4bf1d4fd06876e3bed38c167c7631c9c1c0f1bab9b408655c7a724e4b2f781600201543360405161326d929190615d59565b60405180910390a15050565b60007f01ffc9a7000000000000000000000000000000000000000000000000000000007bffffffffffffffffffffffffffffffffffffffffffffffffffffffff1916827bffffffffffffffffffffffffffffffffffffffffffffffffffffffff1916149050919050565b50565b6060600060046000848152602001908152602001600020805461330890615449565b80601f016020809104026020016040519081016040528092919081815260200182805461333490615449565b80156133815780601f1061335657610100808354040283529160200191613381565b820191906000526020600020905b81548152906001019060200180831161336457829003601f168201915b50505050509050600081511161339f5761339a83613d3f565b6133c3565b6003816040516020016133b3929190615e99565b6040516020818303038152906040525b915050919050565b600033905090565b8151835114613417576040517f08c379a000000000000000000000000000000000000000000000000000000000815260040161340e90615f2f565b60405180910390fd5b600073ffffffffffffffffffffffffffffffffffffffff168473ffffffffffffffffffffffffffffffffffffffff1603613486576040517f08c379a000000000000000000000000000000000000000000000000000000000815260040161347d90615fc1565b60405180910390fd5b60006134906133cb565b90506134a0818787878787613dd3565b60005b84518110156136515760008582815181106134c1576134c06155d8565b5b6020026020010151905060008583815181106134e0576134df6155d8565b5b60200260200101519050600080600084815260200190815260200160002060008b73ffffffffffffffffffffffffffffffffffffffff1673ffffffffffffffffffffffffffffffffffffffff16815260200190815260200160002054905081811015613581576040517f08c379a000000000000000000000000000000000000000000000000000000000815260040161357890616053565b60405180910390fd5b81810360008085815260200190815260200160002060008c73ffffffffffffffffffffffffffffffffffffffff1673ffffffffffffffffffffffffffffffffffffffff168152602001908152602001600020819055508160008085815260200190815260200160002060008b73ffffffffffffffffffffffffffffffffffffffff1673ffffffffffffffffffffffffffffffffffffffff16815260200190815260200160002060008282546136369190615849565b925050819055505050508061364a906156fc565b90506134a3565b508473ffffffffffffffffffffffffffffffffffffffff168673ffffffffffffffffffffffffffffffffffffffff168273ffffffffffffffffffffffffffffffffffffffff167f4a39dc06d4c0dbc64b70af90fd698a233a518aa5d07e595d983b8c0526c8f7fb87876040516136c8929190616073565b60405180910390a46136de818787878787613e25565b6136ec818787878787613e2d565b505050505050565b600081600001549050919050565b600060019050919050565b6001816000016000828254019250508190555050565b600073ffffffffffffffffffffffffffffffffffffffff168473ffffffffffffffffffffffffffffffffffffffff1603613792576040517f08c379a00000000000000000000000000000000000000000000000000000000081526004016137899061611c565b60405180910390fd5b600061379c6133cb565b905060006137a985614004565b905060006137b685614004565b90506137c783600089858589613dd3565b8460008088815260200190815260200160002060008973ffffffffffffffffffffffffffffffffffffffff1673ffffffffffffffffffffffffffffffffffffffff16815260200190815260200160002060008282546138269190615849565b925050819055508673ffffffffffffffffffffffffffffffffffffffff16600073ffffffffffffffffffffffffffffffffffffffff168473ffffffffffffffffffffffffffffffffffffffff167fc3d58168c5ae7397731d063d5bbf3d657854427343f4c083240f7aacaa2d0f6289896040516138a492919061613c565b60405180910390a46138bb83600089858589613e25565b6138ca8360008989898961407e565b50505050505050565b806004600084815260200190815260200160002090816138f391906162fc565b50817f6bb7ff708619ba0610cba295a58592e0451dee2622938c8755667688daf3529b61391f84610790565b60405161392c9190614724565b60405180910390a25050565b8173ffffffffffffffffffffffffffffffffffffffff168373ffffffffffffffffffffffffffffffffffffffff16036139a6576040517f08c379a000000000000000000000000000000000000000000000000000000000815260040161399d90616440565b60405180910390fd5b80600160008573ffffffffffffffffffffffffffffffffffffffff1673ffffffffffffffffffffffffffffffffffffffff16815260200190815260200160002060008473ffffffffffffffffffffffffffffffffffffffff1673ffffffffffffffffffffffffffffffffffffffff16815260200190815260200160002060006101000a81548160ff0219169083151502179055508173ffffffffffffffffffffffffffffffffffffffff168373ffffffffffffffffffffffffffffffffffffffff167f17307eab39ab6107e8899845ad3d59bd9653f200f220920489ca2b5937696c3183604051613a979190614679565b60405180910390a3505050565b600073ffffffffffffffffffffffffffffffffffffffff168473ffffffffffffffffffffffffffffffffffffffff1603613b13576040517f08c379a0000000000000000000000000000000000000000000000000000000008152600401613b0a90615fc1565b60405180910390fd5b6000613b1d6133cb565b90506000613b2a85614004565b90506000613b3785614004565b9050613b47838989858589613dd3565b600080600088815260200190815260200160002060008a73ffffffffffffffffffffffffffffffffffffffff1673ffffffffffffffffffffffffffffffffffffffff16815260200190815260200160002054905085811015613bde576040517f08c379a0000000000000000000000000000000000000000000000000000000008152600401613bd590616053565b60405180910390fd5b85810360008089815260200190815260200160002060008b73ffffffffffffffffffffffffffffffffffffffff1673ffffffffffffffffffffffffffffffffffffffff168152602001908152602001600020819055508560008089815260200190815260200160002060008a73ffffffffffffffffffffffffffffffffffffffff1673ffffffffffffffffffffffffffffffffffffffff1681526020019081526020016000206000828254613c939190615849565b925050819055508773ffffffffffffffffffffffffffffffffffffffff168973ffffffffffffffffffffffffffffffffffffffff168573ffffffffffffffffffffffffffffffffffffffff167fc3d58168c5ae7397731d063d5bbf3d657854427343f4c083240f7aacaa2d0f628a8a604051613d1092919061613c565b60405180910390a4613d26848a8a86868a613e25565b613d34848a8a8a8a8a61407e565b505050505050505050565b606060028054613d4e90615449565b80601f0160208091040260200160405190810160405280929190818152602001828054613d7a90615449565b8015613dc75780601f10613d9c57610100808354040283529160200191613dc7565b820191906000526020600020905b815481529060010190602001808311613daa57829003601f168201915b50505050509050919050565b613de76784143e9761c7959260c01b6132e3565b613dfb67ddcfb583bfb3417c60c01b6132e3565b613e0f670e8e8567ef4e514260c01b6132e3565b613e1d868686868686614255565b505050505050565b505050505050565b613e4c8473ffffffffffffffffffffffffffffffffffffffff16614425565b15613ffc578373ffffffffffffffffffffffffffffffffffffffff1663bc197c8187878686866040518663ffffffff1660e01b8152600401613e929594939291906164b5565b6020604051808303816000875af1925050508015613ece57506040513d601f19601f82011682018060405250810190613ecb9190616532565b60015b613f7357613eda61656c565b806308c379a003613f365750613eee61658e565b80613ef95750613f38565b806040517f08c379a0000000000000000000000000000000000000000000000000000000008152600401613f2d9190614724565b60405180910390fd5b505b6040517f08c379a0000000000000000000000000000000000000000000000000000000008152600401613f6a90616690565b60405180910390fd5b63bc197c8160e01b7bffffffffffffffffffffffffffffffffffffffffffffffffffffffff1916817bffffffffffffffffffffffffffffffffffffffffffffffffffffffff191614613ffa576040517f08c379a0000000000000000000000000000000000000000000000000000000008152600401613ff190616722565b60405180910390fd5b505b505050505050565b60606000600167ffffffffffffffff81111561402357614022614778565b5b6040519080825280602002602001820160405280156140515781602001602082028036833780820191505090505b5090508281600081518110614069576140686155d8565b5b60200260200101818152505080915050919050565b61409d8473ffffffffffffffffffffffffffffffffffffffff16614425565b1561424d578373ffffffffffffffffffffffffffffffffffffffff1663f23a6e6187878686866040518663ffffffff1660e01b81526004016140e3959493929190616742565b6020604051808303816000875af192505050801561411f57506040513d601f19601f8201168201806040525081019061411c9190616532565b60015b6141c45761412b61656c565b806308c379a003614187575061413f61658e565b8061414a5750614189565b806040517f08c379a000000000000000000000000000000000000000000000000000000000815260040161417e9190614724565b60405180910390fd5b505b6040517f08c379a00000000000000000000000000000000000000000000000000000000081526004016141bb90616690565b60405180910390fd5b63f23a6e6160e01b7bffffffffffffffffffffffffffffffffffffffffffffffffffffffff1916817bffffffffffffffffffffffffffffffffffffffffffffffffffffffff19161461424b576040517f08c379a000000000000000000000000000000000000000000000000000000000815260040161424290616722565b60405180910390fd5b505b505050505050565b614263868686868686614448565b600073ffffffffffffffffffffffffffffffffffffffff168573ffffffffffffffffffffffffffffffffffffffff16036143145760005b8351811015614312578281815181106142b6576142b56155d8565b5b6020026020010151600560008684815181106142d5576142d46155d8565b5b6020026020010151815260200190815260200160002060008282546142fa9190615849565b925050819055508061430b906156fc565b905061429a565b505b600073ffffffffffffffffffffffffffffffffffffffff168473ffffffffffffffffffffffffffffffffffffffff160361441d5760005b835181101561441b576000848281518110614369576143686155d8565b5b602002602001015190506000848381518110614388576143876155d8565b5b60200260200101519050600060056000848152602001908152602001600020549050818110156143ed576040517f08c379a00000000000000000000000000000000000000000000000000000000081526004016143e49061680e565b60405180910390fd5b818103600560008581526020019081526020016000208190555050505080614414906156fc565b905061434b565b505b505050505050565b6000808273ffffffffffffffffffffffffffffffffffffffff163b119050919050565b505050505050565b604051806101800160405280600073ffffffffffffffffffffffffffffffffffffffff16815260200160008152602001600081526020016000815260200160008152602001600081526020016000815260200160008152602001600081526020016000815260200160008152602001606081525090565b6000604051905090565b600080fd5b600080fd5b600073ffffffffffffffffffffffffffffffffffffffff82169050919050565b6000614506826144db565b9050919050565b614516816144fb565b811461452157600080fd5b50565b6000813590506145338161450d565b92915050565b6000819050919050565b61454c81614539565b811461455757600080fd5b50565b60008135905061456981614543565b92915050565b60008060408385031215614586576145856144d1565b5b600061459485828601614524565b92505060206145a58582860161455a565b9150509250929050565b6145b881614539565b82525050565b60006020820190506145d360008301846145af565b92915050565b60007fffffffff0000000000000000000000000000000000000000000000000000000082169050919050565b61460e816145d9565b811461461957600080fd5b50565b60008135905061462b81614605565b92915050565b600060208284031215614647576146466144d1565b5b60006146558482850161461c565b91505092915050565b60008115159050919050565b6146738161465e565b82525050565b600060208201905061468e600083018461466a565b92915050565b600081519050919050565b600082825260208201905092915050565b60005b838110156146ce5780820151818401526020810190506146b3565b60008484015250505050565b6000601f19601f8301169050919050565b60006146f682614694565b614700818561469f565b93506147108185602086016146b0565b614719816146da565b840191505092915050565b6000602082019050818103600083015261473e81846146eb565b905092915050565b60006020828403121561475c5761475b6144d1565b5b600061476a8482850161455a565b91505092915050565b600080fd5b7f4e487b7100000000000000000000000000000000000000000000000000000000600052604160045260246000fd5b6147b0826146da565b810181811067ffffffffffffffff821117156147cf576147ce614778565b5b80604052505050565b60006147e26144c7565b90506147ee82826147a7565b919050565b600067ffffffffffffffff82111561480e5761480d614778565b5b602082029050602081019050919050565b600080fd5b6000614837614832846147f3565b6147d8565b9050808382526020820190506020840283018581111561485a5761485961481f565b5b835b81811015614883578061486f888261455a565b84526020840193505060208101905061485c565b5050509392505050565b600082601f8301126148a2576148a1614773565b5b81356148b2848260208601614824565b91505092915050565b600080fd5b600067ffffffffffffffff8211156148db576148da614778565b5b6148e4826146da565b9050602081019050919050565b82818337600083830152505050565b600061491361490e846148c0565b6147d8565b90508281526020810184848401111561492f5761492e6148bb565b5b61493a8482856148f1565b509392505050565b600082601f83011261495757614956614773565b5b8135614967848260208601614900565b91505092915050565b600080600080600060a0868803121561498c5761498b6144d1565b5b600061499a88828901614524565b95505060206149ab88828901614524565b945050604086013567ffffffffffffffff8111156149cc576149cb6144d6565b5b6149d88882890161488d565b935050606086013567ffffffffffffffff8111156149f9576149f86144d6565b5b614a058882890161488d565b925050608086013567ffffffffffffffff811115614a2657614a256144d6565b5b614a3288828901614942565b9150509295509295909350565b614a48816144fb565b82525050565b614a5781614539565b82525050565b600081519050919050565b600082825260208201905092915050565b6000819050602082019050919050565b6000614a958383614a3f565b60208301905092915050565b6000602082019050919050565b6000614ab982614a5d565b614ac38185614a68565b9350614ace83614a79565b8060005b83811015614aff578151614ae68882614a89565b9750614af183614aa1565b925050600181019050614ad2565b5085935050505092915050565b600061018083016000830151614b256000860182614a3f565b506020830151614b386020860182614a4e565b506040830151614b4b6040860182614a4e565b506060830151614b5e6060860182614a4e565b506080830151614b716080860182614a4e565b5060a0830151614b8460a0860182614a4e565b5060c0830151614b9760c0860182614a4e565b5060e0830151614baa60e0860182614a4e565b50610100830151614bbf610100860182614a4e565b50610120830151614bd4610120860182614a4e565b50610140830151614be9610140860182614a4e565b50610160830151848203610160860152614c038282614aae565b9150508091505092915050565b60006020820190508181036000830152614c2a8184614b0c565b905092915050565b600067ffffffffffffffff821115614c4d57614c4c614778565b5b602082029050602081019050919050565b6000614c71614c6c84614c32565b6147d8565b90508083825260208201905060208402830185811115614c9457614c9361481f565b5b835b81811015614cbd5780614ca98882614524565b845260208401935050602081019050614c96565b5050509392505050565b600082601f830112614cdc57614cdb614773565b5b8135614cec848260208601614c5e565b91505092915050565b60008060408385031215614d0c57614d0b6144d1565b5b600083013567ffffffffffffffff811115614d2a57614d296144d6565b5b614d3685828601614cc7565b925050602083013567ffffffffffffffff811115614d5757614d566144d6565b5b614d638582860161488d565b9150509250929050565b600081519050919050565b600082825260208201905092915050565b6000819050602082019050919050565b6000614da58383614a4e565b60208301905092915050565b6000602082019050919050565b6000614dc982614d6d565b614dd38185614d78565b9350614dde83614d89565b8060005b83811015614e0f578151614df68882614d99565b9750614e0183614db1565b925050600181019050614de2565b5085935050505092915050565b60006020820190508181036000830152614e368184614dbe565b905092915050565b600081519050919050565b600082825260208201905092915050565b6000819050602082019050919050565b600061018083016000830151614e836000860182614a3f565b506020830151614e966020860182614a4e565b506040830151614ea96040860182614a4e565b506060830151614ebc6060860182614a4e565b506080830151614ecf6080860182614a4e565b5060a0830151614ee260a0860182614a4e565b5060c0830151614ef560c0860182614a4e565b5060e0830151614f0860e0860182614a4e565b50610100830151614f1d610100860182614a4e565b50610120830151614f32610120860182614a4e565b50610140830151614f47610140860182614a4e565b50610160830151848203610160860152614f618282614aae565b9150508091505092915050565b6000614f7a8383614e6a565b905092915050565b6000602082019050919050565b6000614f9a82614e3e565b614fa48185614e49565b935083602082028501614fb685614e5a565b8060005b85811015614ff25784840389528151614fd38582614f6e565b9450614fde83614f82565b925060208a01995050600181019050614fba565b50829750879550505050505092915050565b6000602082019050818103600083015261501e8184614f8f565b905092915050565b600067ffffffffffffffff82111561504157615040614778565b5b61504a826146da565b9050602081019050919050565b600061506a61506584615026565b6147d8565b905082815260208101848484011115615086576150856148bb565b5b6150918482856148f1565b509392505050565b600082601f8301126150ae576150ad614773565b5b81356150be848260208601615057565b91505092915050565b60008060008060008060c087890312156150e4576150e36144d1565b5b60006150f289828a0161455a565b965050602061510389828a0161455a565b955050604061511489828a0161455a565b945050606087013567ffffffffffffffff811115615135576151346144d6565b5b61514189828a01615099565b935050608061515289828a0161455a565b92505060a061516389828a0161455a565b9150509295509295509295565b6151798161465e565b811461518457600080fd5b50565b60008135905061519681615170565b92915050565b600080604083850312156151b3576151b26144d1565b5b60006151c185828601614524565b92505060206151d285828601615187565b9150509250929050565b6151e5816144fb565b82525050565b600060208201905061520060008301846151dc565b92915050565b60006101608201905061521c600083018e6151dc565b615229602083018d6145af565b615236604083018c6145af565b615243606083018b6145af565b615250608083018a6145af565b61525d60a08301896145af565b61526a60c08301886145af565b61527760e08301876145af565b6152856101008301866145af565b6152936101208301856145af565b6152a16101408301846145af565b9c9b505050505050505050505050565b600080604083850312156152c8576152c76144d1565b5b60006152d685828601614524565b92505060206152e785828601614524565b9150509250929050565b600080600080600060a0868803121561530d5761530c6144d1565b5b600061531b88828901614524565b955050602061532c88828901614524565b945050604061533d8882890161455a565b935050606061534e8882890161455a565b925050608086013567ffffffffffffffff81111561536f5761536e6144d6565b5b61537b88828901614942565b9150509295509295909350565b7f455243313135353a2061646472657373207a65726f206973206e6f742061207660008201527f616c6964206f776e657200000000000000000000000000000000000000000000602082015250565b60006153e4602a8361469f565b91506153ef82615388565b604082019050919050565b60006020820190508181036000830152615413816153d7565b9050919050565b7f4e487b7100000000000000000000000000000000000000000000000000000000600052602260045260246000fd5b6000600282049050600182168061546157607f821691505b6020821081036154745761547361541a565b5b50919050565b7f455243313135353a2063616c6c6572206973206e6f7420746f6b656e206f776e60008201527f6572206f7220617070726f766564000000000000000000000000000000000000602082015250565b60006154d6602e8361469f565b91506154e18261547a565b604082019050919050565b60006020820190508181036000830152615505816154c9565b9050919050565b7f4e487b7100000000000000000000000000000000000000000000000000000000600052601260045260246000fd5b600061554682614539565b915061555183614539565b9250826155615761556061550c565b5b828206905092915050565b7f74686520736f6e6720646f65736e277420657869737473000000000000000000600082015250565b60006155a260178361469f565b91506155ad8261556c565b602082019050919050565b600060208201905081810360008301526155d181615595565b9050919050565b7f4e487b7100000000000000000000000000000000000000000000000000000000600052603260045260246000fd5b7f4e487b7100000000000000000000000000000000000000000000000000000000600052601160045260246000fd5b600061564182614539565b915061564c83614539565b925082820390508181111561566457615663615607565b5b92915050565b7f455243313135353a206163636f756e747320616e6420696473206c656e67746860008201527f206d69736d617463680000000000000000000000000000000000000000000000602082015250565b60006156c660298361469f565b91506156d18261566a565b604082019050919050565b600060208201905081810360008301526156f5816156b9565b9050919050565b600061570782614539565b91507fffffffffffffffffffffffffffffffffffffffffffffffffffffffffffffffff820361573957615738615607565b5b600182019050919050565b7f4f6e6c79206172746973747320616e6420737570657266616e732063616e206960008201527f6e746974696174652077697468647261772070726f6365737300000000000000602082015250565b60006157a060398361469f565b91506157ab82615744565b604082019050919050565b600060208201905081810360008301526157cf81615793565b9050919050565b60006157e182614539565b91506157ec83614539565b9250826157fc576157fb61550c565b5b828204905092915050565b600061581282614539565b915061581d83614539565b925082820261582b81614539565b9150828204841483151761584257615841615607565b5b5092915050565b600061585482614539565b915061585f83614539565b925082820190508082111561587757615876615607565b5b92915050565b600081905092915050565b50565b600061589860008361587d565b91506158a382615888565b600082019050919050565b60006158b98261588b565b9150819050919050565b7f6661696c656420746f2064697372696275746520726f79616c6974696573207460008201527f6f20746865206172746973740000000000000000000000000000000000000000602082015250565b600061591f602c8361469f565b915061592a826158c3565b604082019050919050565b6000602082019050818103600083015261594e81615912565b9050919050565b7f6661696c656420746f2064697372696275746520726f79616c6974696573207460008201527f6f2074686520737570657266616e000000000000000000000000000000000000602082015250565b60006159b1602e8361469f565b91506159bc82615955565b604082019050919050565b600060208201905081810360008301526159e0816159a4565b9050919050565b7f6661696c656420746f2064697372696275746520726f79616c6974696573207460008201527f6f2074686520706c61666f726d204f776e657200000000000000000000000000602082015250565b6000615a4360338361469f565b9150615a4e826159e7565b604082019050919050565b60006020820190508181036000830152615a7281615a36565b9050919050565b7f4c696d6974656420737570706c79206d7573742062652067726561746572207460008201527f68616e2030000000000000000000000000000000000000000000000000000000602082015250565b6000615ad560258361469f565b9150615ae082615a79565b604082019050919050565b60006020820190508181036000830152615b0481615ac8565b9050919050565b600061010082019050615b21600083018b6145af565b615b2e602083018a6145af565b615b3b60408301896151dc565b615b4860608301886145af565b615b5560808301876145af565b615b6260a08301866145af565b615b6f60c08301856145af565b615b7c60e08301846145af565b9998505050505050505050565b7f74686520736f6e67496420646f65736e277420657869737473206f72206e6f7460008201527f2076616c69640000000000000000000000000000000000000000000000000000602082015250565b6000615be560268361469f565b9150615bf082615b89565b604082019050919050565b60006020820190508181036000830152615c1481615bd8565b9050919050565b7f506c6561736520706179207468652066756c6c20616d6f756e74000000000000600082015250565b6000615c51601a8361469f565b9150615c5c82615c1b565b602082019050919050565b60006020820190508181036000830152615c8081615c44565b9050919050565b7f796f752063616e6e6f742062757920796f7572206f776e20736f6e6700000000600082015250565b6000615cbd601c8361469f565b9150615cc882615c87565b602082019050919050565b60006020820190508181036000830152615cec81615cb0565b9050919050565b6000615cfe826144db565b9050919050565b615d0e81615cf3565b82525050565b6000608082019050615d2960008301876145af565b615d366020830186615d05565b615d4360408301856151dc565b615d5060608301846151dc565b95945050505050565b6000604082019050615d6e60008301856145af565b615d7b60208301846151dc565b9392505050565b6000615d8f60008361469f565b9150615d9a82615888565b600082019050919050565b60006020820190508181036000830152615dbe81615d82565b9050919050565b600081905092915050565b60008190508160005260206000209050919050565b60008154615df281615449565b615dfc8186615dc5565b94506001821660008114615e175760018114615e2c57615e5f565b60ff1983168652811515820286019350615e5f565b615e3585615dd0565b60005b83811015615e5757815481890152600182019150602081019050615e38565b838801955050505b50505092915050565b6000615e7382614694565b615e7d8185615dc5565b9350615e8d8185602086016146b0565b80840191505092915050565b6000615ea58285615de5565b9150615eb18284615e68565b91508190509392505050565b7f455243313135353a2069647320616e6420616d6f756e7473206c656e6774682060008201527f6d69736d61746368000000000000000000000000000000000000000000000000602082015250565b6000615f1960288361469f565b9150615f2482615ebd565b604082019050919050565b60006020820190508181036000830152615f4881615f0c565b9050919050565b7f455243313135353a207472616e7366657220746f20746865207a65726f20616460008201527f6472657373000000000000000000000000000000000000000000000000000000602082015250565b6000615fab60258361469f565b9150615fb682615f4f565b604082019050919050565b60006020820190508181036000830152615fda81615f9e565b9050919050565b7f455243313135353a20696e73756666696369656e742062616c616e636520666f60008201527f72207472616e7366657200000000000000000000000000000000000000000000602082015250565b600061603d602a8361469f565b915061604882615fe1565b604082019050919050565b6000602082019050818103600083015261606c81616030565b9050919050565b6000604082019050818103600083015261608d8185614dbe565b905081810360208301526160a18184614dbe565b90509392505050565b7f455243313135353a206d696e7420746f20746865207a65726f2061646472657360008201527f7300000000000000000000000000000000000000000000000000000000000000602082015250565b600061610660218361469f565b9150616111826160aa565b604082019050919050565b60006020820190508181036000830152616135816160f9565b9050919050565b600060408201905061615160008301856145af565b61615e60208301846145af565b9392505050565b60006020601f8301049050919050565b600082821b905092915050565b6000600883026161b27fffffffffffffffffffffffffffffffffffffffffffffffffffffffffffffffff82616175565b6161bc8683616175565b95508019841693508086168417925050509392505050565b6000819050919050565b60006161f96161f46161ef84614539565b6161d4565b614539565b9050919050565b6000819050919050565b616213836161de565b61622761621f82616200565b848454616182565b825550505050565b600090565b61623c61622f565b61624781848461620a565b505050565b5b8181101561626b57616260600082616234565b60018101905061624d565b5050565b601f8211156162b05761628181615dd0565b61628a84616165565b81016020851015616299578190505b6162ad6162a585616165565b83018261624c565b50505b505050565b600082821c905092915050565b60006162d3600019846008026162b5565b1980831691505092915050565b60006162ec83836162c2565b9150826002028217905092915050565b61630582614694565b67ffffffffffffffff81111561631e5761631d614778565b5b6163288254615449565b61633382828561626f565b600060209050601f8311600181146163665760008415616354578287015190505b61635e85826162e0565b8655506163c6565b601f19841661637486615dd0565b60005b8281101561639c57848901518255600182019150602085019450602081019050616377565b868310156163b957848901516163b5601f8916826162c2565b8355505b6001600288020188555050505b505050505050565b7f455243313135353a2073657474696e6720617070726f76616c2073746174757360008201527f20666f722073656c660000000000000000000000000000000000000000000000602082015250565b600061642a60298361469f565b9150616435826163ce565b604082019050919050565b600060208201905081810360008301526164598161641d565b9050919050565b600081519050919050565b600082825260208201905092915050565b600061648782616460565b616491818561646b565b93506164a18185602086016146b0565b6164aa816146da565b840191505092915050565b600060a0820190506164ca60008301886151dc565b6164d760208301876151dc565b81810360408301526164e98186614dbe565b905081810360608301526164fd8185614dbe565b90508181036080830152616511818461647c565b90509695505050505050565b60008151905061652c81614605565b92915050565b600060208284031215616548576165476144d1565b5b60006165568482850161651d565b91505092915050565b60008160e01c9050919050565b600060033d111561658b5760046000803e61658860005161655f565b90505b90565b600060443d1061661b576165a06144c7565b60043d036004823e80513d602482011167ffffffffffffffff821117156165c857505061661b565b808201805167ffffffffffffffff8111156165e6575050505061661b565b80602083010160043d03850181111561660357505050505061661b565b616612826020018501866147a7565b82955050505050505b90565b7f455243313135353a207472616e7366657220746f206e6f6e2d4552433131353560008201527f526563656976657220696d706c656d656e746572000000000000000000000000602082015250565b600061667a60348361469f565b91506166858261661e565b604082019050919050565b600060208201905081810360008301526166a98161666d565b9050919050565b7f455243313135353a204552433131353552656365697665722072656a6563746560008201527f6420746f6b656e73000000000000000000000000000000000000000000000000602082015250565b600061670c60288361469f565b9150616717826166b0565b604082019050919050565b6000602082019050818103600083015261673b816166ff565b9050919050565b600060a08201905061675760008301886151dc565b61676460208301876151dc565b61677160408301866145af565b61677e60608301856145af565b8181036080830152616790818461647c565b90509695505050505050565b7f455243313135353a206275726e20616d6f756e74206578636565647320746f7460008201527f616c537570706c79000000000000000000000000000000000000000000000000602082015250565b60006167f860288361469f565b91506168038261679c565b604082019050919050565b60006020820190508181036000830152616827816167eb565b905091905056fea26469706673582212204d791876292b5eb3db9188e22204bb86c5a3b24d05fff6a502f9dbbaaef0aa9c64736f6c63430008110033",
  "linkReferences": {},
  "deployedLinkReferences": {}
}