{
  "_format": "hh-sol-artifact-1",
  "contractName": "Radiohead",
  "sourceName": "contracts/Radiohead.sol",
  "abi": [
    {
      "inputs": [
        {
          "internalType": "address",
          "name": "_escrow",
          "type": "address"
        }
      ],
      "stateMutability": "nonpayable",
      "type": "constructor"
    },
    {
      "anonymous": false,
      "inputs": [
        {
          "indexed": true,
          "internalType": "address",
          "name": "account",
          "type": "address"
        },
        {
          "indexed": true,
          "internalType": "address",
          "name": "operator",
          "type": "address"
        },
        {
          "indexed": false,
          "internalType": "bool",
          "name": "approved",
          "type": "bool"
        }
      ],
      "name": "ApprovalForAll",
      "type": "event"
    },
    {
      "anonymous": false,
      "inputs": [
        {
          "indexed": true,
          "internalType": "address",
          "name": "operator",
          "type": "address"
        },
        {
          "indexed": true,
          "internalType": "address",
          "name": "from",
          "type": "address"
        },
        {
          "indexed": true,
          "internalType": "address",
          "name": "to",
          "type": "address"
        },
        {
          "indexed": false,
          "internalType": "uint256[]",
          "name": "ids",
          "type": "uint256[]"
        },
        {
          "indexed": false,
          "internalType": "uint256[]",
          "name": "values",
          "type": "uint256[]"
        }
      ],
      "name": "TransferBatch",
      "type": "event"
    },
    {
      "anonymous": false,
      "inputs": [
        {
          "indexed": true,
          "internalType": "address",
          "name": "operator",
          "type": "address"
        },
        {
          "indexed": true,
          "internalType": "address",
          "name": "from",
          "type": "address"
        },
        {
          "indexed": true,
          "internalType": "address",
          "name": "to",
          "type": "address"
        },
        {
          "indexed": false,
          "internalType": "uint256",
          "name": "id",
          "type": "uint256"
        },
        {
          "indexed": false,
          "internalType": "uint256",
          "name": "value",
          "type": "uint256"
        }
      ],
      "name": "TransferSingle",
      "type": "event"
    },
    {
      "anonymous": false,
      "inputs": [
        {
          "indexed": false,
          "internalType": "string",
          "name": "value",
          "type": "string"
        },
        {
          "indexed": true,
          "internalType": "uint256",
          "name": "id",
          "type": "uint256"
        }
      ],
      "name": "URI",
      "type": "event"
    },
    {
      "anonymous": false,
      "inputs": [
        {
          "indexed": false,
          "internalType": "uint256",
          "name": "id",
          "type": "uint256"
        },
        {
          "indexed": false,
          "internalType": "address",
          "name": "superfan",
          "type": "address"
        }
      ],
      "name": "limitedSongBought",
      "type": "event"
    },
    {
      "anonymous": false,
      "inputs": [
        {
          "indexed": false,
          "internalType": "uint256",
          "name": "id",
          "type": "uint256"
        },
        {
          "indexed": false,
          "internalType": "address",
          "name": "buyer",
          "type": "address"
        }
      ],
      "name": "regularSongBought",
      "type": "event"
    },
    {
      "anonymous": false,
      "inputs": [
        {
          "indexed": false,
          "internalType": "uint256",
          "name": "songId",
          "type": "uint256"
        },
        {
          "indexed": false,
          "internalType": "uint256",
          "name": "ltdSongId",
          "type": "uint256"
        },
        {
          "indexed": false,
          "internalType": "address",
          "name": "artist",
          "type": "address"
        },
        {
          "indexed": false,
          "internalType": "uint256",
          "name": "limitedSupply",
          "type": "uint256"
        },
        {
          "indexed": false,
          "internalType": "uint256",
          "name": "regularPrice",
          "type": "uint256"
        },
        {
          "indexed": false,
          "internalType": "uint256",
          "name": "limitedPrice",
          "type": "uint256"
        },
        {
          "indexed": false,
          "internalType": "uint256",
          "name": "platformRoyality",
          "type": "uint256"
        },
        {
          "indexed": false,
          "internalType": "uint256",
          "name": "superfanRoyality",
          "type": "uint256"
        }
      ],
      "name": "songCreated",
      "type": "event"
    },
    {
      "inputs": [],
      "name": "Owner",
      "outputs": [
        {
          "internalType": "address",
          "name": "",
          "type": "address"
        }
      ],
      "stateMutability": "view",
      "type": "function"
    },
    {
      "inputs": [
        {
          "internalType": "address",
          "name": "account",
          "type": "address"
        },
        {
          "internalType": "uint256",
          "name": "id",
          "type": "uint256"
        }
      ],
      "name": "balanceOf",
      "outputs": [
        {
          "internalType": "uint256",
          "name": "",
          "type": "uint256"
        }
      ],
      "stateMutability": "view",
      "type": "function"
    },
    {
      "inputs": [
        {
          "internalType": "address[]",
          "name": "accounts",
          "type": "address[]"
        },
        {
          "internalType": "uint256[]",
          "name": "ids",
          "type": "uint256[]"
        }
      ],
      "name": "balanceOfBatch",
      "outputs": [
        {
          "internalType": "uint256[]",
          "name": "",
          "type": "uint256[]"
        }
      ],
      "stateMutability": "view",
      "type": "function"
    },
    {
      "inputs": [
        {
          "internalType": "uint256",
          "name": "songId",
          "type": "uint256"
        }
      ],
      "name": "buyLimitedSong",
      "outputs": [],
      "stateMutability": "payable",
      "type": "function"
    },
    {
      "inputs": [
        {
          "internalType": "uint256",
          "name": "songId",
          "type": "uint256"
        }
      ],
      "name": "buyRegularSong",
      "outputs": [],
      "stateMutability": "payable",
      "type": "function"
    },
    {
      "inputs": [
        {
          "internalType": "uint256",
          "name": "_limitedSupply",
          "type": "uint256"
        },
        {
          "internalType": "uint256",
          "name": "_regularSongPrice",
          "type": "uint256"
        },
        {
          "internalType": "uint256",
          "name": "_limitedSongPrice",
          "type": "uint256"
        },
        {
          "internalType": "string",
          "name": "_songURI",
          "type": "string"
        },
        {
          "internalType": "uint256",
          "name": "_platformRoyality",
          "type": "uint256"
        },
        {
          "internalType": "uint256",
          "name": "_superfanRoyality",
          "type": "uint256"
        }
      ],
      "name": "createSong",
      "outputs": [
        {
          "internalType": "uint256",
          "name": "songId",
          "type": "uint256"
        }
      ],
      "stateMutability": "nonpayable",
      "type": "function"
    },
    {
      "inputs": [
        {
          "internalType": "uint256",
          "name": "id",
          "type": "uint256"
        }
      ],
      "name": "exists",
      "outputs": [
        {
          "internalType": "bool",
          "name": "",
          "type": "bool"
        }
      ],
      "stateMutability": "view",
      "type": "function"
    },
    {
      "inputs": [],
      "name": "getCurrentSongId",
      "outputs": [
        {
          "internalType": "uint256",
          "name": "current",
          "type": "uint256"
        }
      ],
      "stateMutability": "view",
      "type": "function"
    },
    {
      "inputs": [
        {
          "internalType": "uint256",
          "name": "id",
          "type": "uint256"
        }
      ],
      "name": "getSong",
      "outputs": [
        {
          "components": [
            {
              "internalType": "address",
              "name": "artist",
              "type": "address"
            },
            {
              "internalType": "uint256",
              "name": "songId",
              "type": "uint256"
            },
            {
              "internalType": "uint256",
              "name": "ltdSongId",
              "type": "uint256"
            },
            {
              "internalType": "uint256",
              "name": "limitedSupply",
              "type": "uint256"
            },
            {
              "internalType": "uint256",
              "name": "limitedSongMinted",
              "type": "uint256"
            },
            {
              "internalType": "uint256",
              "name": "regularPrice",
              "type": "uint256"
            },
            {
              "internalType": "uint256",
              "name": "limitedPrice",
              "type": "uint256"
            },
            {
              "internalType": "uint256",
              "name": "regularRevenue",
              "type": "uint256"
            },
            {
              "internalType": "uint256",
              "name": "ltdRevenue",
              "type": "uint256"
            },
            {
              "internalType": "uint256",
              "name": "platformRoyality",
              "type": "uint256"
            },
            {
              "internalType": "uint256",
              "name": "superfanRoyality",
              "type": "uint256"
            },
            {
              "internalType": "address[]",
              "name": "superfans",
              "type": "address[]"
            }
          ],
          "internalType": "struct Radiohead.Song",
          "name": "song",
          "type": "tuple"
        }
      ],
      "stateMutability": "view",
      "type": "function"
    },
    {
      "inputs": [
        {
          "internalType": "address",
          "name": "party",
          "type": "address"
        }
      ],
      "name": "getSongOwners",
      "outputs": [
        {
          "internalType": "uint256[]",
          "name": "songs",
          "type": "uint256[]"
        }
      ],
      "stateMutability": "view",
      "type": "function"
    },
    {
      "inputs": [
        {
          "internalType": "address",
          "name": "account",
          "type": "address"
        },
        {
          "internalType": "address",
          "name": "operator",
          "type": "address"
        }
      ],
      "name": "isApprovedForAll",
      "outputs": [
        {
          "internalType": "bool",
          "name": "",
          "type": "bool"
        }
      ],
      "stateMutability": "view",
      "type": "function"
    },
    {
      "inputs": [
        {
          "internalType": "address",
          "name": "from",
          "type": "address"
        },
        {
          "internalType": "address",
          "name": "to",
          "type": "address"
        },
        {
          "internalType": "uint256[]",
          "name": "ids",
          "type": "uint256[]"
        },
        {
          "internalType": "uint256[]",
          "name": "amounts",
          "type": "uint256[]"
        },
        {
          "internalType": "bytes",
          "name": "data",
          "type": "bytes"
        }
      ],
      "name": "safeBatchTransferFrom",
      "outputs": [],
      "stateMutability": "nonpayable",
      "type": "function"
    },
    {
      "inputs": [
        {
          "internalType": "address",
          "name": "from",
          "type": "address"
        },
        {
          "internalType": "address",
          "name": "to",
          "type": "address"
        },
        {
          "internalType": "uint256",
          "name": "id",
          "type": "uint256"
        },
        {
          "internalType": "uint256",
          "name": "amount",
          "type": "uint256"
        },
        {
          "internalType": "bytes",
          "name": "data",
          "type": "bytes"
        }
      ],
      "name": "safeTransferFrom",
      "outputs": [],
      "stateMutability": "nonpayable",
      "type": "function"
    },
    {
      "inputs": [
        {
          "internalType": "address",
          "name": "operator",
          "type": "address"
        },
        {
          "internalType": "bool",
          "name": "approved",
          "type": "bool"
        }
      ],
      "name": "setApprovalForAll",
      "outputs": [],
      "stateMutability": "nonpayable",
      "type": "function"
    },
    {
      "inputs": [
        {
          "internalType": "uint256",
          "name": "",
          "type": "uint256"
        }
      ],
      "name": "songIndex",
      "outputs": [
        {
          "internalType": "uint256",
          "name": "",
          "type": "uint256"
        }
      ],
      "stateMutability": "view",
      "type": "function"
    },
    {
      "inputs": [
        {
          "internalType": "address",
          "name": "",
          "type": "address"
        },
        {
          "internalType": "uint256",
          "name": "",
          "type": "uint256"
        }
      ],
      "name": "songOwners",
      "outputs": [
        {
          "internalType": "uint256",
          "name": "",
          "type": "uint256"
        }
      ],
      "stateMutability": "view",
      "type": "function"
    },
    {
      "inputs": [
        {
          "internalType": "uint256",
          "name": "",
          "type": "uint256"
        }
      ],
      "name": "songsArray",
      "outputs": [
        {
          "internalType": "address",
          "name": "artist",
          "type": "address"
        },
        {
          "internalType": "uint256",
          "name": "songId",
          "type": "uint256"
        },
        {
          "internalType": "uint256",
          "name": "ltdSongId",
          "type": "uint256"
        },
        {
          "internalType": "uint256",
          "name": "limitedSupply",
          "type": "uint256"
        },
        {
          "internalType": "uint256",
          "name": "limitedSongMinted",
          "type": "uint256"
        },
        {
          "internalType": "uint256",
          "name": "regularPrice",
          "type": "uint256"
        },
        {
          "internalType": "uint256",
          "name": "limitedPrice",
          "type": "uint256"
        },
        {
          "internalType": "uint256",
          "name": "regularRevenue",
          "type": "uint256"
        },
        {
          "internalType": "uint256",
          "name": "ltdRevenue",
          "type": "uint256"
        },
        {
          "internalType": "uint256",
          "name": "platformRoyality",
          "type": "uint256"
        },
        {
          "internalType": "uint256",
          "name": "superfanRoyality",
          "type": "uint256"
        }
      ],
      "stateMutability": "view",
      "type": "function"
    },
    {
      "inputs": [
        {
          "internalType": "bytes4",
          "name": "interfaceId",
          "type": "bytes4"
        }
      ],
      "name": "supportsInterface",
      "outputs": [
        {
          "internalType": "bool",
          "name": "",
          "type": "bool"
        }
      ],
      "stateMutability": "view",
      "type": "function"
    },
    {
      "inputs": [
        {
          "internalType": "uint256",
          "name": "id",
          "type": "uint256"
        }
      ],
      "name": "totalSupply",
      "outputs": [
        {
          "internalType": "uint256",
          "name": "",
          "type": "uint256"
        }
      ],
      "stateMutability": "view",
      "type": "function"
    },
    {
      "inputs": [
        {
          "internalType": "uint256",
          "name": "tokenId",
          "type": "uint256"
        }
      ],
      "name": "uri",
      "outputs": [
        {
          "internalType": "string",
          "name": "",
          "type": "string"
        }
      ],
      "stateMutability": "view",
      "type": "function"
    },
    {
      "inputs": [],
      "name": "withdrawRoyalities",
      "outputs": [],
      "stateMutability": "nonpayable",
      "type": "function"
    },
    {
      "stateMutability": "payable",
      "type": "receive"
    }
  ],
  "bytecode": "0x6080604052604051806020016040528060008152506003908162000024919062000392565b503480156200003257600080fd5b5060405162005766380380620057668339818101604052810190620000589190620004e3565b6040518060200160405280600081525062000079816200010360201b60201c565b5080600760006101000a81548173ffffffffffffffffffffffffffffffffffffffff021916908373ffffffffffffffffffffffffffffffffffffffff16021790555033600860006101000a81548173ffffffffffffffffffffffffffffffffffffffff021916908373ffffffffffffffffffffffffffffffffffffffff1602179055505062000515565b806002908162000114919062000392565b5050565b600081519050919050565b7f4e487b7100000000000000000000000000000000000000000000000000000000600052604160045260246000fd5b7f4e487b7100000000000000000000000000000000000000000000000000000000600052602260045260246000fd5b600060028204905060018216806200019a57607f821691505b602082108103620001b057620001af62000152565b5b50919050565b60008190508160005260206000209050919050565b60006020601f8301049050919050565b600082821b905092915050565b6000600883026200021a7fffffffffffffffffffffffffffffffffffffffffffffffffffffffffffffffff82620001db565b620002268683620001db565b95508019841693508086168417925050509392505050565b6000819050919050565b6000819050919050565b6000620002736200026d62000267846200023e565b62000248565b6200023e565b9050919050565b6000819050919050565b6200028f8362000252565b620002a76200029e826200027a565b848454620001e8565b825550505050565b600090565b620002be620002af565b620002cb81848462000284565b505050565b5b81811015620002f357620002e7600082620002b4565b600181019050620002d1565b5050565b601f82111562000342576200030c81620001b6565b6200031784620001cb565b8101602085101562000327578190505b6200033f6200033685620001cb565b830182620002d0565b50505b505050565b600082821c905092915050565b6000620003676000198460080262000347565b1980831691505092915050565b600062000382838362000354565b9150826002028217905092915050565b6200039d8262000118565b67ffffffffffffffff811115620003b957620003b862000123565b5b620003c5825462000181565b620003d2828285620002f7565b600060209050601f8311600181146200040a5760008415620003f5578287015190505b62000401858262000374565b86555062000471565b601f1984166200041a86620001b6565b60005b8281101562000444578489015182556001820191506020850194506020810190506200041d565b8683101562000464578489015162000460601f89168262000354565b8355505b6001600288020188555050505b505050505050565b600080fd5b600073ffffffffffffffffffffffffffffffffffffffff82169050919050565b6000620004ab826200047e565b9050919050565b620004bd816200049e565b8114620004c957600080fd5b50565b600081519050620004dd81620004b2565b92915050565b600060208284031215620004fc57620004fb62000479565b5b60006200050c84828501620004cc565b91505092915050565b61524180620005256000396000f3fe60806040526004361061012d5760003560e01c80635fe34985116100ab578063b9414d311161006f578063b9414d311461045a578063bd85b039146104a1578063e985e9c5146104de578063eea7eaf61461051b578063f242432a14610537578063fad00ac21461056057610134565b80635fe34985146103875780637c76c232146103b25780637d048509146103c9578063a22cb46514610406578063b4a99a4e1461042f57610134565b806342acaa66116100f257806342acaa661461025657806343b6f18e146102935780634a3ff340146102d05780634e1273f41461030d5780634f558e791461034a57610134565b8062fdd58e1461013957806301ffc9a7146101765780630e89341c146101b35780632b9c2760146101f05780632eb2c2d61461022d57610134565b3661013457005b600080fd5b34801561014557600080fd5b50610160600480360381019061015b9190613199565b61057c565b60405161016d91906131e8565b60405180910390f35b34801561018257600080fd5b5061019d6004803603810190610198919061325b565b610644565b6040516101aa91906132a3565b60405180910390f35b3480156101bf57600080fd5b506101da60048036038101906101d591906132be565b610726565b6040516101e7919061337b565b60405180910390f35b3480156101fc57600080fd5b50610217600480360381019061021291906132be565b610738565b60405161022491906131e8565b60405180910390f35b34801561023957600080fd5b50610254600480360381019061024f919061359a565b610750565b005b34801561026257600080fd5b5061027d600480360381019061027891906132be565b6107f1565b60405161028a919061383a565b60405180910390f35b34801561029f57600080fd5b506102ba60048036038101906102b5919061385c565b610bd6565b6040516102c79190613938565b60405180910390f35b3480156102dc57600080fd5b506102f760048036038101906102f29190613199565b610c6d565b60405161030491906131e8565b60405180910390f35b34801561031957600080fd5b50610334600480360381019061032f9190613a1d565b610c9e565b6040516103419190613938565b60405180910390f35b34801561035657600080fd5b50610371600480360381019061036c91906132be565b610db7565b60405161037e91906132a3565b60405180910390f35b34801561039357600080fd5b5061039c610dcb565b6040516103a991906131e8565b60405180910390f35b3480156103be57600080fd5b506103c7610ddc565b005b3480156103d557600080fd5b506103f060048036038101906103eb9190613b36565b61122e565b6040516103fd91906131e8565b60405180910390f35b34801561041257600080fd5b5061042d60048036038101906104289190613c0b565b6114b0565b005b34801561043b57600080fd5b506104446114c6565b6040516104519190613c5a565b60405180910390f35b34801561046657600080fd5b50610481600480360381019061047c91906132be565b6114ec565b6040516104989b9a99989796959493929190613c75565b60405180910390f35b3480156104ad57600080fd5b506104c860048036038101906104c391906132be565b611576565b6040516104d591906131e8565b60405180910390f35b3480156104ea57600080fd5b5061050560048036038101906105009190613d20565b611593565b60405161051291906132a3565b60405180910390f35b610535600480360381019061053091906132be565b611627565b005b34801561054357600080fd5b5061055e60048036038101906105599190613d60565b6119f6565b005b61057a600480360381019061057591906132be565b611a97565b005b60008073ffffffffffffffffffffffffffffffffffffffff168373ffffffffffffffffffffffffffffffffffffffff16036105ec576040517f08c379a00000000000000000000000000000000000000000000000000000000081526004016105e390613e69565b60405180910390fd5b60008083815260200190815260200160002060008473ffffffffffffffffffffffffffffffffffffffff1673ffffffffffffffffffffffffffffffffffffffff16815260200190815260200160002054905092915050565b60007fd9b67a26000000000000000000000000000000000000000000000000000000007bffffffffffffffffffffffffffffffffffffffffffffffffffffffff1916827bffffffffffffffffffffffffffffffffffffffffffffffffffffffff1916148061070f57507f0e89341c000000000000000000000000000000000000000000000000000000007bffffffffffffffffffffffffffffffffffffffffffffffffffffffff1916827bffffffffffffffffffffffffffffffffffffffffffffffffffffffff1916145b8061071f575061071e82611eed565b5b9050919050565b606061073182611f57565b9050919050565b600b6020528060005260406000206000915090505481565b61075861203c565b73ffffffffffffffffffffffffffffffffffffffff168573ffffffffffffffffffffffffffffffffffffffff16148061079e575061079d8561079861203c565b611593565b5b6107dd576040517f08c379a00000000000000000000000000000000000000000000000000000000081526004016107d490613efb565b60405180910390fd5b6107ea8585858585612044565b5050505050565b6107f961307a565b60006002836108089190613f4a565b146109e55761081682610db7565b610855576040517f08c379a000000000000000000000000000000000000000000000000000000000815260040161084c90613fc7565b60405180910390fd5b600a600b6000848152602001908152602001600020548154811061087c5761087b613fe7565b5b90600052602060002090600c0201604051806101800160405290816000820160009054906101000a900473ffffffffffffffffffffffffffffffffffffffff1673ffffffffffffffffffffffffffffffffffffffff1673ffffffffffffffffffffffffffffffffffffffff168152602001600182015481526020016002820154815260200160038201548152602001600482015481526020016005820154815260200160068201548152602001600782015481526020016008820154815260200160098201548152602001600a8201548152602001600b82018054806020026020016040519081016040528092919081815260200182805480156109d557602002820191906000526020600020905b8160009054906101000a900473ffffffffffffffffffffffffffffffffffffffff1673ffffffffffffffffffffffffffffffffffffffff168152602001906001019080831161098b575b5050505050815250509050610bd1565b6109fa6001836109f59190614045565b610db7565b610a39576040517f08c379a0000000000000000000000000000000000000000000000000000000008152600401610a3090613fc7565b60405180910390fd5b600a600b6000600185610a4c9190614045565b81526020019081526020016000205481548110610a6c57610a6b613fe7565b5b90600052602060002090600c0201604051806101800160405290816000820160009054906101000a900473ffffffffffffffffffffffffffffffffffffffff1673ffffffffffffffffffffffffffffffffffffffff1673ffffffffffffffffffffffffffffffffffffffff168152602001600182015481526020016002820154815260200160038201548152602001600482015481526020016005820154815260200160068201548152602001600782015481526020016008820154815260200160098201548152602001600a8201548152602001600b8201805480602002602001604051908101604052809291908181526020018280548015610bc557602002820191906000526020600020905b8160009054906101000a900473ffffffffffffffffffffffffffffffffffffffff1673ffffffffffffffffffffffffffffffffffffffff1681526020019060010190808311610b7b575b50505050508152505090505b919050565b6060600960008373ffffffffffffffffffffffffffffffffffffffff1673ffffffffffffffffffffffffffffffffffffffff168152602001908152602001600020805480602002602001604051908101604052809291908181526020018280548015610c6157602002820191906000526020600020905b815481526020019060010190808311610c4d575b50505050509050919050565b60096020528160005260406000208181548110610c8957600080fd5b90600052602060002001600091509150505481565b60608151835114610ce4576040517f08c379a0000000000000000000000000000000000000000000000000000000008152600401610cdb906140eb565b60405180910390fd5b6000835167ffffffffffffffff811115610d0157610d006133a2565b5b604051908082528060200260200182016040528015610d2f5781602001602082028036833780820191505090505b50905060005b8451811015610dac57610d7c858281518110610d5457610d53613fe7565b5b6020026020010151858381518110610d6f57610d6e613fe7565b5b602002602001015161057c565b828281518110610d8f57610d8e613fe7565b5b60200260200101818152505080610da59061410b565b9050610d35565b508091505092915050565b600080610dc383611576565b119050919050565b6000610dd76006612365565b905090565b60005b600a8054905081101561115c576000600a8281548110610e0257610e01613fe7565b5b90600052602060002090600c020190506000816009015460648360070154610e2a9190614153565b610e349190614184565b90506000818360070154610e489190614045565b90506000836009015460648560080154610e629190614153565b610e6c9190614184565b90506000818560080154610e809190614045565b9050600085600b01805480602002602001604051908101604052809291908181526020018280548015610f0857602002820191906000526020600020905b8160009054906101000a900473ffffffffffffffffffffffffffffffffffffffff1673ffffffffffffffffffffffffffffffffffffffff1681526020019060010190808311610ebe575b505050505090506000866003015487600a015460648960070154610f2c9190614153565b610f369190614184565b610f409190614153565b90506000825182610f519190614184565b90506000818588610f6291906141c6565b610f6c9190614045565b9050600089600701819055506000896008018190555060008960000160009054906101000a900473ffffffffffffffffffffffffffffffffffffffff1673ffffffffffffffffffffffffffffffffffffffff1682604051610fcc9061422b565b60006040518083038185875af1925050503d8060008114611009576040519150601f19603f3d011682016040523d82523d6000602084013e61100e565b606091505b5050905080611052576040517f08c379a0000000000000000000000000000000000000000000000000000000008152600401611049906142b2565b60405180910390fd5b60005b855181101561113e576000868d8151811061107357611072613fe7565b5b6020026020010151905060008173ffffffffffffffffffffffffffffffffffffffff16876040516110a39061422b565b60006040518083038185875af1925050503d80600081146110e0576040519150601f19603f3d011682016040523d82523d6000602084013e6110e5565b606091505b5050905080611129576040517f08c379a000000000000000000000000000000000000000000000000000000000815260040161112090614344565b60405180910390fd5b505080806111369061410b565b915050611055565b505050505050505050505080806111549061410b565b915050610ddf565b506000600860009054906101000a900473ffffffffffffffffffffffffffffffffffffffff1673ffffffffffffffffffffffffffffffffffffffff16476040516111a59061422b565b60006040518083038185875af1925050503d80600081146111e2576040519150601f19603f3d011682016040523d82523d6000602084013e6111e7565b606091505b505090508061122b576040517f08c379a0000000000000000000000000000000000000000000000000000000008152600401611222906143d6565b60405180910390fd5b50565b6000808711611272576040517f08c379a000000000000000000000000000000000000000000000000000000000815260040161126990614468565b60405180910390fd5b61127c6006612373565b6112866006612365565b90506112ab3382670de0b6b3a764000060405180602001604052806000815250612389565b6112b58185612539565b6000600a6001816001815401808255809150500390600052602060002090600c02019050338160000160006101000a81548173ffffffffffffffffffffffffffffffffffffffff021916908373ffffffffffffffffffffffffffffffffffffffff1602179055508181600101819055508781600301819055508681600501819055508581600601819055508381600901819055508281600a018190555061135c6006612373565b60006113686006612365565b905061138533828b60405180602001604052806000815250612389565b61138f8187612539565b8082600201819055506113c433600760009054906101000a900473ffffffffffffffffffffffffffffffffffffffff16611593565b6113f6576113f5600760009054906101000a900473ffffffffffffffffffffffffffffffffffffffff1660016114b0565b5b6001600a805490506114089190614045565b600b6000858152602001908152602001600020819055507fe44a95d90db666eec698ee335d929af1295456ef22acf300487f3b13cee736f1826001015483600201548460000160009054906101000a900473ffffffffffffffffffffffffffffffffffffffff16856003015486600501548760060154886009015489600a015460405161149c989796959493929190614488565b60405180910390a150509695505050505050565b6114c26114bb61203c565b838361259e565b5050565b600860009054906101000a900473ffffffffffffffffffffffffffffffffffffffff1681565b600a81815481106114fc57600080fd5b90600052602060002090600c02016000915090508060000160009054906101000a900473ffffffffffffffffffffffffffffffffffffffff169080600101549080600201549080600301549080600401549080600501549080600601549080600701549080600801549080600901549080600a015490508b565b600060056000838152602001908152602001600020549050919050565b6000600160008473ffffffffffffffffffffffffffffffffffffffff1673ffffffffffffffffffffffffffffffffffffffff16815260200190815260200160002060008373ffffffffffffffffffffffffffffffffffffffff1673ffffffffffffffffffffffffffffffffffffffff16815260200190815260200160002060009054906101000a900460ff16905092915050565b6000806002836116379190613f4a565b146116c05761164582610db7565b611684576040517f08c379a000000000000000000000000000000000000000000000000000000000815260040161167b90613fc7565b60405180910390fd5b600a600b600084815260200190815260200160002054815481106116ab576116aa613fe7565b5b90600052602060002090600c02019050611758565b6116d56001836116d09190614045565b610db7565b611714576040517f08c379a000000000000000000000000000000000000000000000000000000000815260040161170b90613fc7565b60405180910390fd5b600a600b60006001856117279190614045565b8152602001908152602001600020548154811061174757611746613fe7565b5b90600052602060002090600c020190505b6117658160010154610db7565b6117a4576040517f08c379a000000000000000000000000000000000000000000000000000000000815260040161179b90614578565b60405180910390fd5b80600501543410156117eb576040517f08c379a00000000000000000000000000000000000000000000000000000000081526004016117e2906145e4565b60405180910390fd5b3373ffffffffffffffffffffffffffffffffffffffff168160000160009054906101000a900473ffffffffffffffffffffffffffffffffffffffff1673ffffffffffffffffffffffffffffffffffffffff160361187d576040517f08c379a000000000000000000000000000000000000000000000000000000000815260040161187490614650565b60405180910390fd5b3481600701600082825461189191906141c6565b92505081905550600760009054906101000a900473ffffffffffffffffffffffffffffffffffffffff1673ffffffffffffffffffffffffffffffffffffffff166313f2da7b8260010154308460000160009054906101000a900473ffffffffffffffffffffffffffffffffffffffff16336040518563ffffffff1660e01b81526004016119219493929190614691565b600060405180830381600087803b15801561193b57600080fd5b505af115801561194f573d6000803e3d6000fd5b50505050600960003373ffffffffffffffffffffffffffffffffffffffff1673ffffffffffffffffffffffffffffffffffffffff1681526020019081526020016000208290806001815401808255809150506001900390600052602060002001600090919091909150557f04d30d6ef2c1b6dc4fb27350a8a71229ea6d6a3220be9db153486f9bbda5e6ec82336040516119ea9291906146d6565b60405180910390a15050565b6119fe61203c565b73ffffffffffffffffffffffffffffffffffffffff168573ffffffffffffffffffffffffffffffffffffffff161480611a445750611a4385611a3e61203c565b611593565b5b611a83576040517f08c379a0000000000000000000000000000000000000000000000000000000008152600401611a7a90613efb565b60405180910390fd5b611a90858585858561270a565b5050505050565b600080600283611aa79190613f4a565b14611b3057611ab582610db7565b611af4576040517f08c379a0000000000000000000000000000000000000000000000000000000008152600401611aeb90613fc7565b60405180910390fd5b600a600b60008481526020019081526020016000205481548110611b1b57611b1a613fe7565b5b90600052602060002090600c02019050611bc8565b611b45600183611b409190614045565b610db7565b611b84576040517f08c379a0000000000000000000000000000000000000000000000000000000008152600401611b7b90613fc7565b60405180910390fd5b600a600b6000600185611b979190614045565b81526020019081526020016000205481548110611bb757611bb6613fe7565b5b90600052602060002090600c020190505b8060030154816004015410611c12576040517f08c379a0000000000000000000000000000000000000000000000000000000008152600401611c0990614722565b60405180910390fd5b8060060154341015611c59576040517f08c379a0000000000000000000000000000000000000000000000000000000008152600401611c50906145e4565b60405180910390fd5b3373ffffffffffffffffffffffffffffffffffffffff168160000160009054906101000a900473ffffffffffffffffffffffffffffffffffffffff1673ffffffffffffffffffffffffffffffffffffffff1603611ceb576040517f08c379a0000000000000000000000000000000000000000000000000000000008152600401611ce290614650565b60405180910390fd5b6001816004016000828254611d0091906141c6565b9250508190555034816008016000828254611d1b91906141c6565b9250508190555080600b01339080600181540180825580915050600190039060005260206000200160009091909190916101000a81548173ffffffffffffffffffffffffffffffffffffffff021916908373ffffffffffffffffffffffffffffffffffffffff160217905550600760009054906101000a900473ffffffffffffffffffffffffffffffffffffffff1673ffffffffffffffffffffffffffffffffffffffff166313f2da7b8260020154308460000160009054906101000a900473ffffffffffffffffffffffffffffffffffffffff16336040518563ffffffff1660e01b8152600401611e109493929190614691565b600060405180830381600087803b158015611e2a57600080fd5b505af1158015611e3e573d6000803e3d6000fd5b50505050600960003373ffffffffffffffffffffffffffffffffffffffff1673ffffffffffffffffffffffffffffffffffffffff168152602001908152602001600020816002015490806001815401808255809150506001900390600052602060002001600090919091909150557f535d4bf1d4fd06876e3bed38c167c7631c9c1c0f1bab9b408655c7a724e4b2f7816002015433604051611ee19291906146d6565b60405180910390a15050565b60007f01ffc9a7000000000000000000000000000000000000000000000000000000007bffffffffffffffffffffffffffffffffffffffffffffffffffffffff1916827bffffffffffffffffffffffffffffffffffffffffffffffffffffffff1916149050919050565b60606000600460008481526020019081526020016000208054611f7990614771565b80601f0160208091040260200160405190810160405280929190818152602001828054611fa590614771565b8015611ff25780601f10611fc757610100808354040283529160200191611ff2565b820191906000526020600020905b815481529060010190602001808311611fd557829003601f168201915b5050505050905060008151116120105761200b836129a5565b612034565b600381604051602001612024929190614876565b6040516020818303038152906040525b915050919050565b600033905090565b8151835114612088576040517f08c379a000000000000000000000000000000000000000000000000000000000815260040161207f9061490c565b60405180910390fd5b600073ffffffffffffffffffffffffffffffffffffffff168473ffffffffffffffffffffffffffffffffffffffff16036120f7576040517f08c379a00000000000000000000000000000000000000000000000000000000081526004016120ee9061499e565b60405180910390fd5b600061210161203c565b9050612111818787878787612a39565b60005b84518110156122c257600085828151811061213257612131613fe7565b5b60200260200101519050600085838151811061215157612150613fe7565b5b60200260200101519050600080600084815260200190815260200160002060008b73ffffffffffffffffffffffffffffffffffffffff1673ffffffffffffffffffffffffffffffffffffffff168152602001908152602001600020549050818110156121f2576040517f08c379a00000000000000000000000000000000000000000000000000000000081526004016121e990614a30565b60405180910390fd5b81810360008085815260200190815260200160002060008c73ffffffffffffffffffffffffffffffffffffffff1673ffffffffffffffffffffffffffffffffffffffff168152602001908152602001600020819055508160008085815260200190815260200160002060008b73ffffffffffffffffffffffffffffffffffffffff1673ffffffffffffffffffffffffffffffffffffffff16815260200190815260200160002060008282546122a791906141c6565b92505081905550505050806122bb9061410b565b9050612114565b508473ffffffffffffffffffffffffffffffffffffffff168673ffffffffffffffffffffffffffffffffffffffff168273ffffffffffffffffffffffffffffffffffffffff167f4a39dc06d4c0dbc64b70af90fd698a233a518aa5d07e595d983b8c0526c8f7fb8787604051612339929190614a50565b60405180910390a461234f818787878787612a4f565b61235d818787878787612a57565b505050505050565b600081600001549050919050565b6001816000016000828254019250508190555050565b600073ffffffffffffffffffffffffffffffffffffffff168473ffffffffffffffffffffffffffffffffffffffff16036123f8576040517f08c379a00000000000000000000000000000000000000000000000000000000081526004016123ef90614af9565b60405180910390fd5b600061240261203c565b9050600061240f85612c2e565b9050600061241c85612c2e565b905061242d83600089858589612a39565b8460008088815260200190815260200160002060008973ffffffffffffffffffffffffffffffffffffffff1673ffffffffffffffffffffffffffffffffffffffff168152602001908152602001600020600082825461248c91906141c6565b925050819055508673ffffffffffffffffffffffffffffffffffffffff16600073ffffffffffffffffffffffffffffffffffffffff168473ffffffffffffffffffffffffffffffffffffffff167fc3d58168c5ae7397731d063d5bbf3d657854427343f4c083240f7aacaa2d0f62898960405161250a929190614b19565b60405180910390a461252183600089858589612a4f565b61253083600089898989612ca8565b50505050505050565b806004600084815260200190815260200160002090816125599190614cd9565b50817f6bb7ff708619ba0610cba295a58592e0451dee2622938c8755667688daf3529b61258584610726565b604051612592919061337b565b60405180910390a25050565b8173ffffffffffffffffffffffffffffffffffffffff168373ffffffffffffffffffffffffffffffffffffffff160361260c576040517f08c379a000000000000000000000000000000000000000000000000000000000815260040161260390614e1d565b60405180910390fd5b80600160008573ffffffffffffffffffffffffffffffffffffffff1673ffffffffffffffffffffffffffffffffffffffff16815260200190815260200160002060008473ffffffffffffffffffffffffffffffffffffffff1673ffffffffffffffffffffffffffffffffffffffff16815260200190815260200160002060006101000a81548160ff0219169083151502179055508173ffffffffffffffffffffffffffffffffffffffff168373ffffffffffffffffffffffffffffffffffffffff167f17307eab39ab6107e8899845ad3d59bd9653f200f220920489ca2b5937696c31836040516126fd91906132a3565b60405180910390a3505050565b600073ffffffffffffffffffffffffffffffffffffffff168473ffffffffffffffffffffffffffffffffffffffff1603612779576040517f08c379a00000000000000000000000000000000000000000000000000000000081526004016127709061499e565b60405180910390fd5b600061278361203c565b9050600061279085612c2e565b9050600061279d85612c2e565b90506127ad838989858589612a39565b600080600088815260200190815260200160002060008a73ffffffffffffffffffffffffffffffffffffffff1673ffffffffffffffffffffffffffffffffffffffff16815260200190815260200160002054905085811015612844576040517f08c379a000000000000000000000000000000000000000000000000000000000815260040161283b90614a30565b60405180910390fd5b85810360008089815260200190815260200160002060008b73ffffffffffffffffffffffffffffffffffffffff1673ffffffffffffffffffffffffffffffffffffffff168152602001908152602001600020819055508560008089815260200190815260200160002060008a73ffffffffffffffffffffffffffffffffffffffff1673ffffffffffffffffffffffffffffffffffffffff16815260200190815260200160002060008282546128f991906141c6565b925050819055508773ffffffffffffffffffffffffffffffffffffffff168973ffffffffffffffffffffffffffffffffffffffff168573ffffffffffffffffffffffffffffffffffffffff167fc3d58168c5ae7397731d063d5bbf3d657854427343f4c083240f7aacaa2d0f628a8a604051612976929190614b19565b60405180910390a461298c848a8a86868a612a4f565b61299a848a8a8a8a8a612ca8565b505050505050505050565b6060600280546129b490614771565b80601f01602080910402602001604051908101604052809291908181526020018280546129e090614771565b8015612a2d5780601f10612a0257610100808354040283529160200191612a2d565b820191906000526020600020905b815481529060010190602001808311612a1057829003601f168201915b50505050509050919050565b612a47868686868686612e7f565b505050505050565b505050505050565b612a768473ffffffffffffffffffffffffffffffffffffffff1661304f565b15612c26578373ffffffffffffffffffffffffffffffffffffffff1663bc197c8187878686866040518663ffffffff1660e01b8152600401612abc959493929190614e92565b6020604051808303816000875af1925050508015612af857506040513d601f19601f82011682018060405250810190612af59190614f0f565b60015b612b9d57612b04614f49565b806308c379a003612b605750612b18614f6b565b80612b235750612b62565b806040517f08c379a0000000000000000000000000000000000000000000000000000000008152600401612b57919061337b565b60405180910390fd5b505b6040517f08c379a0000000000000000000000000000000000000000000000000000000008152600401612b949061506d565b60405180910390fd5b63bc197c8160e01b7bffffffffffffffffffffffffffffffffffffffffffffffffffffffff1916817bffffffffffffffffffffffffffffffffffffffffffffffffffffffff191614612c24576040517f08c379a0000000000000000000000000000000000000000000000000000000008152600401612c1b906150ff565b60405180910390fd5b505b505050505050565b60606000600167ffffffffffffffff811115612c4d57612c4c6133a2565b5b604051908082528060200260200182016040528015612c7b5781602001602082028036833780820191505090505b5090508281600081518110612c9357612c92613fe7565b5b60200260200101818152505080915050919050565b612cc78473ffffffffffffffffffffffffffffffffffffffff1661304f565b15612e77578373ffffffffffffffffffffffffffffffffffffffff1663f23a6e6187878686866040518663ffffffff1660e01b8152600401612d0d95949392919061511f565b6020604051808303816000875af1925050508015612d4957506040513d601f19601f82011682018060405250810190612d469190614f0f565b60015b612dee57612d55614f49565b806308c379a003612db15750612d69614f6b565b80612d745750612db3565b806040517f08c379a0000000000000000000000000000000000000000000000000000000008152600401612da8919061337b565b60405180910390fd5b505b6040517f08c379a0000000000000000000000000000000000000000000000000000000008152600401612de59061506d565b60405180910390fd5b63f23a6e6160e01b7bffffffffffffffffffffffffffffffffffffffffffffffffffffffff1916817bffffffffffffffffffffffffffffffffffffffffffffffffffffffff191614612e75576040517f08c379a0000000000000000000000000000000000000000000000000000000008152600401612e6c906150ff565b60405180910390fd5b505b505050505050565b612e8d868686868686613072565b600073ffffffffffffffffffffffffffffffffffffffff168573ffffffffffffffffffffffffffffffffffffffff1603612f3e5760005b8351811015612f3c57828181518110612ee057612edf613fe7565b5b602002602001015160056000868481518110612eff57612efe613fe7565b5b602002602001015181526020019081526020016000206000828254612f2491906141c6565b9250508190555080612f359061410b565b9050612ec4565b505b600073ffffffffffffffffffffffffffffffffffffffff168473ffffffffffffffffffffffffffffffffffffffff16036130475760005b8351811015613045576000848281518110612f9357612f92613fe7565b5b602002602001015190506000848381518110612fb257612fb1613fe7565b5b6020026020010151905060006005600084815260200190815260200160002054905081811015613017576040517f08c379a000000000000000000000000000000000000000000000000000000000815260040161300e906151eb565b60405180910390fd5b81810360056000858152602001908152602001600020819055505050508061303e9061410b565b9050612f75565b505b505050505050565b6000808273ffffffffffffffffffffffffffffffffffffffff163b119050919050565b505050505050565b604051806101800160405280600073ffffffffffffffffffffffffffffffffffffffff16815260200160008152602001600081526020016000815260200160008152602001600081526020016000815260200160008152602001600081526020016000815260200160008152602001606081525090565b6000604051905090565b600080fd5b600080fd5b600073ffffffffffffffffffffffffffffffffffffffff82169050919050565b600061313082613105565b9050919050565b61314081613125565b811461314b57600080fd5b50565b60008135905061315d81613137565b92915050565b6000819050919050565b61317681613163565b811461318157600080fd5b50565b6000813590506131938161316d565b92915050565b600080604083850312156131b0576131af6130fb565b5b60006131be8582860161314e565b92505060206131cf85828601613184565b9150509250929050565b6131e281613163565b82525050565b60006020820190506131fd60008301846131d9565b92915050565b60007fffffffff0000000000000000000000000000000000000000000000000000000082169050919050565b61323881613203565b811461324357600080fd5b50565b6000813590506132558161322f565b92915050565b600060208284031215613271576132706130fb565b5b600061327f84828501613246565b91505092915050565b60008115159050919050565b61329d81613288565b82525050565b60006020820190506132b86000830184613294565b92915050565b6000602082840312156132d4576132d36130fb565b5b60006132e284828501613184565b91505092915050565b600081519050919050565b600082825260208201905092915050565b60005b8381101561332557808201518184015260208101905061330a565b60008484015250505050565b6000601f19601f8301169050919050565b600061334d826132eb565b61335781856132f6565b9350613367818560208601613307565b61337081613331565b840191505092915050565b600060208201905081810360008301526133958184613342565b905092915050565b600080fd5b7f4e487b7100000000000000000000000000000000000000000000000000000000600052604160045260246000fd5b6133da82613331565b810181811067ffffffffffffffff821117156133f9576133f86133a2565b5b80604052505050565b600061340c6130f1565b905061341882826133d1565b919050565b600067ffffffffffffffff821115613438576134376133a2565b5b602082029050602081019050919050565b600080fd5b600061346161345c8461341d565b613402565b9050808382526020820190506020840283018581111561348457613483613449565b5b835b818110156134ad57806134998882613184565b845260208401935050602081019050613486565b5050509392505050565b600082601f8301126134cc576134cb61339d565b5b81356134dc84826020860161344e565b91505092915050565b600080fd5b600067ffffffffffffffff821115613505576135046133a2565b5b61350e82613331565b9050602081019050919050565b82818337600083830152505050565b600061353d613538846134ea565b613402565b905082815260208101848484011115613559576135586134e5565b5b61356484828561351b565b509392505050565b600082601f8301126135815761358061339d565b5b813561359184826020860161352a565b91505092915050565b600080600080600060a086880312156135b6576135b56130fb565b5b60006135c48882890161314e565b95505060206135d58882890161314e565b945050604086013567ffffffffffffffff8111156135f6576135f5613100565b5b613602888289016134b7565b935050606086013567ffffffffffffffff81111561362357613622613100565b5b61362f888289016134b7565b925050608086013567ffffffffffffffff8111156136505761364f613100565b5b61365c8882890161356c565b9150509295509295909350565b61367281613125565b82525050565b61368181613163565b82525050565b600081519050919050565b600082825260208201905092915050565b6000819050602082019050919050565b60006136bf8383613669565b60208301905092915050565b6000602082019050919050565b60006136e382613687565b6136ed8185613692565b93506136f8836136a3565b8060005b8381101561372957815161371088826136b3565b975061371b836136cb565b9250506001810190506136fc565b5085935050505092915050565b60006101808301600083015161374f6000860182613669565b5060208301516137626020860182613678565b5060408301516137756040860182613678565b5060608301516137886060860182613678565b50608083015161379b6080860182613678565b5060a08301516137ae60a0860182613678565b5060c08301516137c160c0860182613678565b5060e08301516137d460e0860182613678565b506101008301516137e9610100860182613678565b506101208301516137fe610120860182613678565b50610140830151613813610140860182613678565b5061016083015184820361016086015261382d82826136d8565b9150508091505092915050565b600060208201905081810360008301526138548184613736565b905092915050565b600060208284031215613872576138716130fb565b5b60006138808482850161314e565b91505092915050565b600081519050919050565b600082825260208201905092915050565b6000819050602082019050919050565b60006138c18383613678565b60208301905092915050565b6000602082019050919050565b60006138e582613889565b6138ef8185613894565b93506138fa836138a5565b8060005b8381101561392b57815161391288826138b5565b975061391d836138cd565b9250506001810190506138fe565b5085935050505092915050565b6000602082019050818103600083015261395281846138da565b905092915050565b600067ffffffffffffffff821115613975576139746133a2565b5b602082029050602081019050919050565b60006139996139948461395a565b613402565b905080838252602082019050602084028301858111156139bc576139bb613449565b5b835b818110156139e557806139d1888261314e565b8452602084019350506020810190506139be565b5050509392505050565b600082601f830112613a0457613a0361339d565b5b8135613a14848260208601613986565b91505092915050565b60008060408385031215613a3457613a336130fb565b5b600083013567ffffffffffffffff811115613a5257613a51613100565b5b613a5e858286016139ef565b925050602083013567ffffffffffffffff811115613a7f57613a7e613100565b5b613a8b858286016134b7565b9150509250929050565b600067ffffffffffffffff821115613ab057613aaf6133a2565b5b613ab982613331565b9050602081019050919050565b6000613ad9613ad484613a95565b613402565b905082815260208101848484011115613af557613af46134e5565b5b613b0084828561351b565b509392505050565b600082601f830112613b1d57613b1c61339d565b5b8135613b2d848260208601613ac6565b91505092915050565b60008060008060008060c08789031215613b5357613b526130fb565b5b6000613b6189828a01613184565b9650506020613b7289828a01613184565b9550506040613b8389828a01613184565b945050606087013567ffffffffffffffff811115613ba457613ba3613100565b5b613bb089828a01613b08565b9350506080613bc189828a01613184565b92505060a0613bd289828a01613184565b9150509295509295509295565b613be881613288565b8114613bf357600080fd5b50565b600081359050613c0581613bdf565b92915050565b60008060408385031215613c2257613c216130fb565b5b6000613c308582860161314e565b9250506020613c4185828601613bf6565b9150509250929050565b613c5481613125565b82525050565b6000602082019050613c6f6000830184613c4b565b92915050565b600061016082019050613c8b600083018e613c4b565b613c98602083018d6131d9565b613ca5604083018c6131d9565b613cb2606083018b6131d9565b613cbf608083018a6131d9565b613ccc60a08301896131d9565b613cd960c08301886131d9565b613ce660e08301876131d9565b613cf46101008301866131d9565b613d026101208301856131d9565b613d106101408301846131d9565b9c9b505050505050505050505050565b60008060408385031215613d3757613d366130fb565b5b6000613d458582860161314e565b9250506020613d568582860161314e565b9150509250929050565b600080600080600060a08688031215613d7c57613d7b6130fb565b5b6000613d8a8882890161314e565b9550506020613d9b8882890161314e565b9450506040613dac88828901613184565b9350506060613dbd88828901613184565b925050608086013567ffffffffffffffff811115613dde57613ddd613100565b5b613dea8882890161356c565b9150509295509295909350565b7f455243313135353a2061646472657373207a65726f206973206e6f742061207660008201527f616c6964206f776e657200000000000000000000000000000000000000000000602082015250565b6000613e53602a836132f6565b9150613e5e82613df7565b604082019050919050565b60006020820190508181036000830152613e8281613e46565b9050919050565b7f455243313135353a2063616c6c6572206973206e6f7420746f6b656e206f776e60008201527f6572206f7220617070726f766564000000000000000000000000000000000000602082015250565b6000613ee5602e836132f6565b9150613ef082613e89565b604082019050919050565b60006020820190508181036000830152613f1481613ed8565b9050919050565b7f4e487b7100000000000000000000000000000000000000000000000000000000600052601260045260246000fd5b6000613f5582613163565b9150613f6083613163565b925082613f7057613f6f613f1b565b5b828206905092915050565b7f74686520736f6e6720646f65736e277420657869737473000000000000000000600082015250565b6000613fb16017836132f6565b9150613fbc82613f7b565b602082019050919050565b60006020820190508181036000830152613fe081613fa4565b9050919050565b7f4e487b7100000000000000000000000000000000000000000000000000000000600052603260045260246000fd5b7f4e487b7100000000000000000000000000000000000000000000000000000000600052601160045260246000fd5b600061405082613163565b915061405b83613163565b925082820390508181111561407357614072614016565b5b92915050565b7f455243313135353a206163636f756e747320616e6420696473206c656e67746860008201527f206d69736d617463680000000000000000000000000000000000000000000000602082015250565b60006140d56029836132f6565b91506140e082614079565b604082019050919050565b60006020820190508181036000830152614104816140c8565b9050919050565b600061411682613163565b91507fffffffffffffffffffffffffffffffffffffffffffffffffffffffffffffffff820361414857614147614016565b5b600182019050919050565b600061415e82613163565b915061416983613163565b92508261417957614178613f1b565b5b828204905092915050565b600061418f82613163565b915061419a83613163565b92508282026141a881613163565b915082820484148315176141bf576141be614016565b5b5092915050565b60006141d182613163565b91506141dc83613163565b92508282019050808211156141f4576141f3614016565b5b92915050565b600081905092915050565b50565b60006142156000836141fa565b915061422082614205565b600082019050919050565b600061423682614208565b9150819050919050565b7f6661696c656420746f2064697372696275746520726f79616c6974696573207460008201527f6f20746865206172746973740000000000000000000000000000000000000000602082015250565b600061429c602c836132f6565b91506142a782614240565b604082019050919050565b600060208201905081810360008301526142cb8161428f565b9050919050565b7f6661696c656420746f2064697372696275746520726f79616c6974696573207460008201527f6f2074686520737570657266616e000000000000000000000000000000000000602082015250565b600061432e602e836132f6565b9150614339826142d2565b604082019050919050565b6000602082019050818103600083015261435d81614321565b9050919050565b7f6661696c656420746f2064697372696275746520726f79616c6974696573207460008201527f6f2074686520706c61666f726d204f776e657200000000000000000000000000602082015250565b60006143c06033836132f6565b91506143cb82614364565b604082019050919050565b600060208201905081810360008301526143ef816143b3565b9050919050565b7f4c696d6974656420737570706c79206d7573742062652067726561746572207460008201527f68616e2030000000000000000000000000000000000000000000000000000000602082015250565b60006144526025836132f6565b915061445d826143f6565b604082019050919050565b6000602082019050818103600083015261448181614445565b9050919050565b60006101008201905061449e600083018b6131d9565b6144ab602083018a6131d9565b6144b86040830189613c4b565b6144c560608301886131d9565b6144d260808301876131d9565b6144df60a08301866131d9565b6144ec60c08301856131d9565b6144f960e08301846131d9565b9998505050505050505050565b7f74686520736f6e67496420646f65736e277420657869737473206f72206e6f7460008201527f2076616c69640000000000000000000000000000000000000000000000000000602082015250565b60006145626026836132f6565b915061456d82614506565b604082019050919050565b6000602082019050818103600083015261459181614555565b9050919050565b7f506c6561736520706179207468652066756c6c20616d6f756e74000000000000600082015250565b60006145ce601a836132f6565b91506145d982614598565b602082019050919050565b600060208201905081810360008301526145fd816145c1565b9050919050565b7f796f752063616e6e6f742062757920796f7572206f776e20736f6e6700000000600082015250565b600061463a601c836132f6565b915061464582614604565b602082019050919050565b600060208201905081810360008301526146698161462d565b9050919050565b600061467b82613105565b9050919050565b61468b81614670565b82525050565b60006080820190506146a660008301876131d9565b6146b36020830186614682565b6146c06040830185613c4b565b6146cd6060830184613c4b565b95945050505050565b60006040820190506146eb60008301856131d9565b6146f86020830184613c4b565b9392505050565b600061470c6000836132f6565b915061471782614205565b600082019050919050565b6000602082019050818103600083015261473b816146ff565b9050919050565b7f4e487b7100000000000000000000000000000000000000000000000000000000600052602260045260246000fd5b6000600282049050600182168061478957607f821691505b60208210810361479c5761479b614742565b5b50919050565b600081905092915050565b60008190508160005260206000209050919050565b600081546147cf81614771565b6147d981866147a2565b945060018216600081146147f457600181146148095761483c565b60ff198316865281151582028601935061483c565b614812856147ad565b60005b8381101561483457815481890152600182019150602081019050614815565b838801955050505b50505092915050565b6000614850826132eb565b61485a81856147a2565b935061486a818560208601613307565b80840191505092915050565b600061488282856147c2565b915061488e8284614845565b91508190509392505050565b7f455243313135353a2069647320616e6420616d6f756e7473206c656e6774682060008201527f6d69736d61746368000000000000000000000000000000000000000000000000602082015250565b60006148f66028836132f6565b91506149018261489a565b604082019050919050565b60006020820190508181036000830152614925816148e9565b9050919050565b7f455243313135353a207472616e7366657220746f20746865207a65726f20616460008201527f6472657373000000000000000000000000000000000000000000000000000000602082015250565b60006149886025836132f6565b91506149938261492c565b604082019050919050565b600060208201905081810360008301526149b78161497b565b9050919050565b7f455243313135353a20696e73756666696369656e742062616c616e636520666f60008201527f72207472616e7366657200000000000000000000000000000000000000000000602082015250565b6000614a1a602a836132f6565b9150614a25826149be565b604082019050919050565b60006020820190508181036000830152614a4981614a0d565b9050919050565b60006040820190508181036000830152614a6a81856138da565b90508181036020830152614a7e81846138da565b90509392505050565b7f455243313135353a206d696e7420746f20746865207a65726f2061646472657360008201527f7300000000000000000000000000000000000000000000000000000000000000602082015250565b6000614ae36021836132f6565b9150614aee82614a87565b604082019050919050565b60006020820190508181036000830152614b1281614ad6565b9050919050565b6000604082019050614b2e60008301856131d9565b614b3b60208301846131d9565b9392505050565b60006020601f8301049050919050565b600082821b905092915050565b600060088302614b8f7fffffffffffffffffffffffffffffffffffffffffffffffffffffffffffffffff82614b52565b614b998683614b52565b95508019841693508086168417925050509392505050565b6000819050919050565b6000614bd6614bd1614bcc84613163565b614bb1565b613163565b9050919050565b6000819050919050565b614bf083614bbb565b614c04614bfc82614bdd565b848454614b5f565b825550505050565b600090565b614c19614c0c565b614c24818484614be7565b505050565b5b81811015614c4857614c3d600082614c11565b600181019050614c2a565b5050565b601f821115614c8d57614c5e816147ad565b614c6784614b42565b81016020851015614c76578190505b614c8a614c8285614b42565b830182614c29565b50505b505050565b600082821c905092915050565b6000614cb060001984600802614c92565b1980831691505092915050565b6000614cc98383614c9f565b9150826002028217905092915050565b614ce2826132eb565b67ffffffffffffffff811115614cfb57614cfa6133a2565b5b614d058254614771565b614d10828285614c4c565b600060209050601f831160018114614d435760008415614d31578287015190505b614d3b8582614cbd565b865550614da3565b601f198416614d51866147ad565b60005b82811015614d7957848901518255600182019150602085019450602081019050614d54565b86831015614d965784890151614d92601f891682614c9f565b8355505b6001600288020188555050505b505050505050565b7f455243313135353a2073657474696e6720617070726f76616c2073746174757360008201527f20666f722073656c660000000000000000000000000000000000000000000000602082015250565b6000614e076029836132f6565b9150614e1282614dab565b604082019050919050565b60006020820190508181036000830152614e3681614dfa565b9050919050565b600081519050919050565b600082825260208201905092915050565b6000614e6482614e3d565b614e6e8185614e48565b9350614e7e818560208601613307565b614e8781613331565b840191505092915050565b600060a082019050614ea76000830188613c4b565b614eb46020830187613c4b565b8181036040830152614ec681866138da565b90508181036060830152614eda81856138da565b90508181036080830152614eee8184614e59565b90509695505050505050565b600081519050614f098161322f565b92915050565b600060208284031215614f2557614f246130fb565b5b6000614f3384828501614efa565b91505092915050565b60008160e01c9050919050565b600060033d1115614f685760046000803e614f65600051614f3c565b90505b90565b600060443d10614ff857614f7d6130f1565b60043d036004823e80513d602482011167ffffffffffffffff82111715614fa5575050614ff8565b808201805167ffffffffffffffff811115614fc35750505050614ff8565b80602083010160043d038501811115614fe0575050505050614ff8565b614fef826020018501866133d1565b82955050505050505b90565b7f455243313135353a207472616e7366657220746f206e6f6e2d4552433131353560008201527f526563656976657220696d706c656d656e746572000000000000000000000000602082015250565b60006150576034836132f6565b915061506282614ffb565b604082019050919050565b600060208201905081810360008301526150868161504a565b9050919050565b7f455243313135353a204552433131353552656365697665722072656a6563746560008201527f6420746f6b656e73000000000000000000000000000000000000000000000000602082015250565b60006150e96028836132f6565b91506150f48261508d565b604082019050919050565b60006020820190508181036000830152615118816150dc565b9050919050565b600060a0820190506151346000830188613c4b565b6151416020830187613c4b565b61514e60408301866131d9565b61515b60608301856131d9565b818103608083015261516d8184614e59565b90509695505050505050565b7f455243313135353a206275726e20616d6f756e74206578636565647320746f7460008201527f616c537570706c79000000000000000000000000000000000000000000000000602082015250565b60006151d56028836132f6565b91506151e082615179565b604082019050919050565b60006020820190508181036000830152615204816151c8565b905091905056fea26469706673582212203563f81a275f305af9c2e18bdefa6f7e400567fe6baf79ecf38e41a3ad14a6b764736f6c63430008110033",
  "linkReferences": {},
  "deployedLinkReferences": {}
}