{
  "_format": "hh-sol-artifact-1",
  "contractName": "Radiohead",
  "sourceName": "contracts/Radiohead.sol",
  "abi": [
    {
      "inputs": [
        {
          "internalType": "address",
          "name": "_escrow",
          "type": "address"
        }
      ],
      "stateMutability": "nonpayable",
      "type": "constructor"
    },
    {
      "anonymous": false,
      "inputs": [
        {
          "indexed": true,
          "internalType": "address",
          "name": "account",
          "type": "address"
        },
        {
          "indexed": true,
          "internalType": "address",
          "name": "operator",
          "type": "address"
        },
        {
          "indexed": false,
          "internalType": "bool",
          "name": "approved",
          "type": "bool"
        }
      ],
      "name": "ApprovalForAll",
      "type": "event"
    },
    {
      "anonymous": false,
      "inputs": [
        {
          "indexed": true,
          "internalType": "address",
          "name": "operator",
          "type": "address"
        },
        {
          "indexed": true,
          "internalType": "address",
          "name": "from",
          "type": "address"
        },
        {
          "indexed": true,
          "internalType": "address",
          "name": "to",
          "type": "address"
        },
        {
          "indexed": false,
          "internalType": "uint256[]",
          "name": "ids",
          "type": "uint256[]"
        },
        {
          "indexed": false,
          "internalType": "uint256[]",
          "name": "values",
          "type": "uint256[]"
        }
      ],
      "name": "TransferBatch",
      "type": "event"
    },
    {
      "anonymous": false,
      "inputs": [
        {
          "indexed": true,
          "internalType": "address",
          "name": "operator",
          "type": "address"
        },
        {
          "indexed": true,
          "internalType": "address",
          "name": "from",
          "type": "address"
        },
        {
          "indexed": true,
          "internalType": "address",
          "name": "to",
          "type": "address"
        },
        {
          "indexed": false,
          "internalType": "uint256",
          "name": "id",
          "type": "uint256"
        },
        {
          "indexed": false,
          "internalType": "uint256",
          "name": "value",
          "type": "uint256"
        }
      ],
      "name": "TransferSingle",
      "type": "event"
    },
    {
      "anonymous": false,
      "inputs": [
        {
          "indexed": false,
          "internalType": "string",
          "name": "value",
          "type": "string"
        },
        {
          "indexed": true,
          "internalType": "uint256",
          "name": "id",
          "type": "uint256"
        }
      ],
      "name": "URI",
      "type": "event"
    },
    {
      "anonymous": false,
      "inputs": [
        {
          "indexed": false,
          "internalType": "uint256",
          "name": "id",
          "type": "uint256"
        },
        {
          "indexed": false,
          "internalType": "address",
          "name": "superfan",
          "type": "address"
        }
      ],
      "name": "limitedSongBought",
      "type": "event"
    },
    {
      "anonymous": false,
      "inputs": [
        {
          "indexed": false,
          "internalType": "uint256",
          "name": "id",
          "type": "uint256"
        },
        {
          "indexed": false,
          "internalType": "address",
          "name": "buyer",
          "type": "address"
        }
      ],
      "name": "regularSongBought",
      "type": "event"
    },
    {
      "anonymous": false,
      "inputs": [
        {
          "indexed": false,
          "internalType": "uint256",
          "name": "songId",
          "type": "uint256"
        },
        {
          "indexed": false,
          "internalType": "uint256",
          "name": "ltdSongId",
          "type": "uint256"
        },
        {
          "indexed": false,
          "internalType": "address",
          "name": "artist",
          "type": "address"
        },
        {
          "indexed": false,
          "internalType": "uint256",
          "name": "limitedSupply",
          "type": "uint256"
        },
        {
          "indexed": false,
          "internalType": "uint256",
          "name": "regularPrice",
          "type": "uint256"
        },
        {
          "indexed": false,
          "internalType": "uint256",
          "name": "limitedPrice",
          "type": "uint256"
        },
        {
          "indexed": false,
          "internalType": "uint256",
          "name": "platformRoyality",
          "type": "uint256"
        },
        {
          "indexed": false,
          "internalType": "uint256",
          "name": "superfanRoyality",
          "type": "uint256"
        }
      ],
      "name": "songCreated",
      "type": "event"
    },
    {
      "anonymous": false,
      "inputs": [
        {
          "indexed": false,
          "internalType": "address",
          "name": "caller",
          "type": "address"
        }
      ],
      "name": "withdrawnFunds",
      "type": "event"
    },
    {
      "inputs": [],
      "name": "Owner",
      "outputs": [
        {
          "internalType": "address",
          "name": "",
          "type": "address"
        }
      ],
      "stateMutability": "view",
      "type": "function"
    },
    {
      "inputs": [
        {
          "internalType": "address",
          "name": "account",
          "type": "address"
        },
        {
          "internalType": "uint256",
          "name": "id",
          "type": "uint256"
        }
      ],
      "name": "balanceOf",
      "outputs": [
        {
          "internalType": "uint256",
          "name": "",
          "type": "uint256"
        }
      ],
      "stateMutability": "view",
      "type": "function"
    },
    {
      "inputs": [
        {
          "internalType": "address[]",
          "name": "accounts",
          "type": "address[]"
        },
        {
          "internalType": "uint256[]",
          "name": "ids",
          "type": "uint256[]"
        }
      ],
      "name": "balanceOfBatch",
      "outputs": [
        {
          "internalType": "uint256[]",
          "name": "",
          "type": "uint256[]"
        }
      ],
      "stateMutability": "view",
      "type": "function"
    },
    {
      "inputs": [
        {
          "internalType": "uint256",
          "name": "songId",
          "type": "uint256"
        }
      ],
      "name": "buyLimitedSong",
      "outputs": [],
      "stateMutability": "payable",
      "type": "function"
    },
    {
      "inputs": [
        {
          "internalType": "uint256",
          "name": "songId",
          "type": "uint256"
        }
      ],
      "name": "buyRegularSong",
      "outputs": [],
      "stateMutability": "payable",
      "type": "function"
    },
    {
      "inputs": [
        {
          "internalType": "uint256",
          "name": "_limitedSupply",
          "type": "uint256"
        },
        {
          "internalType": "uint256",
          "name": "_regularSongPrice",
          "type": "uint256"
        },
        {
          "internalType": "uint256",
          "name": "_limitedSongPrice",
          "type": "uint256"
        },
        {
          "internalType": "string",
          "name": "_songURI",
          "type": "string"
        },
        {
          "internalType": "uint256",
          "name": "_platformRoyality",
          "type": "uint256"
        },
        {
          "internalType": "uint256",
          "name": "_superfanRoyality",
          "type": "uint256"
        }
      ],
      "name": "createSong",
      "outputs": [
        {
          "internalType": "uint256",
          "name": "songId",
          "type": "uint256"
        }
      ],
      "stateMutability": "nonpayable",
      "type": "function"
    },
    {
      "inputs": [
        {
          "internalType": "uint256",
          "name": "id",
          "type": "uint256"
        }
      ],
      "name": "exists",
      "outputs": [
        {
          "internalType": "bool",
          "name": "",
          "type": "bool"
        }
      ],
      "stateMutability": "view",
      "type": "function"
    },
    {
      "inputs": [],
      "name": "getCurrentSongId",
      "outputs": [
        {
          "internalType": "uint256",
          "name": "current",
          "type": "uint256"
        }
      ],
      "stateMutability": "view",
      "type": "function"
    },
    {
      "inputs": [
        {
          "internalType": "uint256",
          "name": "id",
          "type": "uint256"
        }
      ],
      "name": "getSong",
      "outputs": [
        {
          "components": [
            {
              "internalType": "address",
              "name": "artist",
              "type": "address"
            },
            {
              "internalType": "uint256",
              "name": "songId",
              "type": "uint256"
            },
            {
              "internalType": "uint256",
              "name": "ltdSongId",
              "type": "uint256"
            },
            {
              "internalType": "uint256",
              "name": "limitedSupply",
              "type": "uint256"
            },
            {
              "internalType": "uint256",
              "name": "limitedSongMinted",
              "type": "uint256"
            },
            {
              "internalType": "uint256",
              "name": "regularPrice",
              "type": "uint256"
            },
            {
              "internalType": "uint256",
              "name": "limitedPrice",
              "type": "uint256"
            },
            {
              "internalType": "uint256",
              "name": "regularRevenue",
              "type": "uint256"
            },
            {
              "internalType": "uint256",
              "name": "ltdRevenue",
              "type": "uint256"
            },
            {
              "internalType": "uint256",
              "name": "platformRoyality",
              "type": "uint256"
            },
            {
              "internalType": "uint256",
              "name": "superfanRoyality",
              "type": "uint256"
            },
            {
              "internalType": "address[]",
              "name": "superfans",
              "type": "address[]"
            }
          ],
          "internalType": "struct Radiohead.Song",
          "name": "song",
          "type": "tuple"
        }
      ],
      "stateMutability": "view",
      "type": "function"
    },
    {
      "inputs": [],
      "name": "getSongs",
      "outputs": [
        {
          "components": [
            {
              "internalType": "address",
              "name": "artist",
              "type": "address"
            },
            {
              "internalType": "uint256",
              "name": "songId",
              "type": "uint256"
            },
            {
              "internalType": "uint256",
              "name": "ltdSongId",
              "type": "uint256"
            },
            {
              "internalType": "uint256",
              "name": "limitedSupply",
              "type": "uint256"
            },
            {
              "internalType": "uint256",
              "name": "limitedSongMinted",
              "type": "uint256"
            },
            {
              "internalType": "uint256",
              "name": "regularPrice",
              "type": "uint256"
            },
            {
              "internalType": "uint256",
              "name": "limitedPrice",
              "type": "uint256"
            },
            {
              "internalType": "uint256",
              "name": "regularRevenue",
              "type": "uint256"
            },
            {
              "internalType": "uint256",
              "name": "ltdRevenue",
              "type": "uint256"
            },
            {
              "internalType": "uint256",
              "name": "platformRoyality",
              "type": "uint256"
            },
            {
              "internalType": "uint256",
              "name": "superfanRoyality",
              "type": "uint256"
            },
            {
              "internalType": "address[]",
              "name": "superfans",
              "type": "address[]"
            }
          ],
          "internalType": "struct Radiohead.Song[]",
          "name": "gaane",
          "type": "tuple[]"
        }
      ],
      "stateMutability": "view",
      "type": "function"
    },
    {
      "inputs": [
        {
          "internalType": "address",
          "name": "account",
          "type": "address"
        },
        {
          "internalType": "address",
          "name": "operator",
          "type": "address"
        }
      ],
      "name": "isApprovedForAll",
      "outputs": [
        {
          "internalType": "bool",
          "name": "",
          "type": "bool"
        }
      ],
      "stateMutability": "view",
      "type": "function"
    },
    {
      "inputs": [],
      "name": "name",
      "outputs": [
        {
          "internalType": "string",
          "name": "",
          "type": "string"
        }
      ],
      "stateMutability": "view",
      "type": "function"
    },
    {
      "inputs": [
        {
          "internalType": "address",
          "name": "from",
          "type": "address"
        },
        {
          "internalType": "address",
          "name": "to",
          "type": "address"
        },
        {
          "internalType": "uint256[]",
          "name": "ids",
          "type": "uint256[]"
        },
        {
          "internalType": "uint256[]",
          "name": "amounts",
          "type": "uint256[]"
        },
        {
          "internalType": "bytes",
          "name": "data",
          "type": "bytes"
        }
      ],
      "name": "safeBatchTransferFrom",
      "outputs": [],
      "stateMutability": "nonpayable",
      "type": "function"
    },
    {
      "inputs": [
        {
          "internalType": "address",
          "name": "from",
          "type": "address"
        },
        {
          "internalType": "address",
          "name": "to",
          "type": "address"
        },
        {
          "internalType": "uint256",
          "name": "id",
          "type": "uint256"
        },
        {
          "internalType": "uint256",
          "name": "amount",
          "type": "uint256"
        },
        {
          "internalType": "bytes",
          "name": "data",
          "type": "bytes"
        }
      ],
      "name": "safeTransferFrom",
      "outputs": [],
      "stateMutability": "nonpayable",
      "type": "function"
    },
    {
      "inputs": [
        {
          "internalType": "address",
          "name": "operator",
          "type": "address"
        },
        {
          "internalType": "bool",
          "name": "approved",
          "type": "bool"
        }
      ],
      "name": "setApprovalForAll",
      "outputs": [],
      "stateMutability": "nonpayable",
      "type": "function"
    },
    {
      "inputs": [
        {
          "internalType": "uint256",
          "name": "",
          "type": "uint256"
        }
      ],
      "name": "songIndex",
      "outputs": [
        {
          "internalType": "uint256",
          "name": "",
          "type": "uint256"
        }
      ],
      "stateMutability": "view",
      "type": "function"
    },
    {
      "inputs": [
        {
          "internalType": "uint256",
          "name": "",
          "type": "uint256"
        }
      ],
      "name": "songsArray",
      "outputs": [
        {
          "internalType": "address",
          "name": "artist",
          "type": "address"
        },
        {
          "internalType": "uint256",
          "name": "songId",
          "type": "uint256"
        },
        {
          "internalType": "uint256",
          "name": "ltdSongId",
          "type": "uint256"
        },
        {
          "internalType": "uint256",
          "name": "limitedSupply",
          "type": "uint256"
        },
        {
          "internalType": "uint256",
          "name": "limitedSongMinted",
          "type": "uint256"
        },
        {
          "internalType": "uint256",
          "name": "regularPrice",
          "type": "uint256"
        },
        {
          "internalType": "uint256",
          "name": "limitedPrice",
          "type": "uint256"
        },
        {
          "internalType": "uint256",
          "name": "regularRevenue",
          "type": "uint256"
        },
        {
          "internalType": "uint256",
          "name": "ltdRevenue",
          "type": "uint256"
        },
        {
          "internalType": "uint256",
          "name": "platformRoyality",
          "type": "uint256"
        },
        {
          "internalType": "uint256",
          "name": "superfanRoyality",
          "type": "uint256"
        }
      ],
      "stateMutability": "view",
      "type": "function"
    },
    {
      "inputs": [
        {
          "internalType": "bytes4",
          "name": "interfaceId",
          "type": "bytes4"
        }
      ],
      "name": "supportsInterface",
      "outputs": [
        {
          "internalType": "bool",
          "name": "",
          "type": "bool"
        }
      ],
      "stateMutability": "view",
      "type": "function"
    },
    {
      "inputs": [
        {
          "internalType": "uint256",
          "name": "id",
          "type": "uint256"
        }
      ],
      "name": "totalSupply",
      "outputs": [
        {
          "internalType": "uint256",
          "name": "",
          "type": "uint256"
        }
      ],
      "stateMutability": "view",
      "type": "function"
    },
    {
      "inputs": [
        {
          "internalType": "uint256",
          "name": "tokenId",
          "type": "uint256"
        }
      ],
      "name": "uri",
      "outputs": [
        {
          "internalType": "string",
          "name": "",
          "type": "string"
        }
      ],
      "stateMutability": "view",
      "type": "function"
    },
    {
      "inputs": [],
      "name": "withdrawRoyalities",
      "outputs": [],
      "stateMutability": "nonpayable",
      "type": "function"
    },
    {
      "stateMutability": "payable",
      "type": "receive"
    }
  ],
  "bytecode": "0x60806040526040518060200160405280600081525060039081620000249190620003d9565b506040518060400160405280600981526020017f526164696f686561640000000000000000000000000000000000000000000000815250600690816200006b9190620003d9565b503480156200007957600080fd5b5060405162005d3d38038062005d3d83398181016040528101906200009f91906200052a565b60405180602001604052806000815250620000c0816200014a60201b60201c565b5080600860006101000a81548173ffffffffffffffffffffffffffffffffffffffff021916908373ffffffffffffffffffffffffffffffffffffffff16021790555033600960006101000a81548173ffffffffffffffffffffffffffffffffffffffff021916908373ffffffffffffffffffffffffffffffffffffffff160217905550506200055c565b80600290816200015b9190620003d9565b5050565b600081519050919050565b7f4e487b7100000000000000000000000000000000000000000000000000000000600052604160045260246000fd5b7f4e487b7100000000000000000000000000000000000000000000000000000000600052602260045260246000fd5b60006002820490506001821680620001e157607f821691505b602082108103620001f757620001f662000199565b5b50919050565b60008190508160005260206000209050919050565b60006020601f8301049050919050565b600082821b905092915050565b600060088302620002617fffffffffffffffffffffffffffffffffffffffffffffffffffffffffffffffff8262000222565b6200026d868362000222565b95508019841693508086168417925050509392505050565b6000819050919050565b6000819050919050565b6000620002ba620002b4620002ae8462000285565b6200028f565b62000285565b9050919050565b6000819050919050565b620002d68362000299565b620002ee620002e582620002c1565b8484546200022f565b825550505050565b600090565b62000305620002f6565b62000312818484620002cb565b505050565b5b818110156200033a576200032e600082620002fb565b60018101905062000318565b5050565b601f82111562000389576200035381620001fd565b6200035e8462000212565b810160208510156200036e578190505b620003866200037d8562000212565b83018262000317565b50505b505050565b600082821c905092915050565b6000620003ae600019846008026200038e565b1980831691505092915050565b6000620003c983836200039b565b9150826002028217905092915050565b620003e4826200015f565b67ffffffffffffffff8111156200040057620003ff6200016a565b5b6200040c8254620001c8565b620004198282856200033e565b600060209050601f8311600181146200045157600084156200043c578287015190505b620004488582620003bb565b865550620004b8565b601f1984166200046186620001fd565b60005b828110156200048b5784890151825560018201915060208501945060208101905062000464565b86831015620004ab5784890151620004a7601f8916826200039b565b8355505b6001600288020188555050505b505050505050565b600080fd5b600073ffffffffffffffffffffffffffffffffffffffff82169050919050565b6000620004f282620004c5565b9050919050565b6200050481620004e5565b81146200051057600080fd5b50565b6000815190506200052481620004f9565b92915050565b600060208284031215620005435762000542620004c0565b5b6000620005538482850162000513565b91505092915050565b6157d1806200056c6000396000f3fe60806040526004361061012d5760003560e01c80635fe34985116100ab578063b9414d311161006f578063b9414d3114610436578063bd85b0391461047d578063e985e9c5146104ba578063eea7eaf6146104f7578063f242432a14610513578063fad00ac21461053c57610134565b80635fe34985146103635780637c76c2321461038e5780637d048509146103a5578063a22cb465146103e2578063b4a99a4e1461040b57610134565b80632eb2c2d6116100f25780632eb2c2d61461025857806342acaa66146102815780634e1273f4146102be5780634f558e79146102fb5780635565f6601461033857610134565b8062fdd58e1461013957806301ffc9a71461017657806306fdde03146101b35780630e89341c146101de5780632b9c27601461021b57610134565b3661013457005b600080fd5b34801561014557600080fd5b50610160600480360381019061015b91906134dc565b610558565b60405161016d919061352b565b60405180910390f35b34801561018257600080fd5b5061019d6004803603810190610198919061359e565b610620565b6040516101aa91906135e6565b60405180910390f35b3480156101bf57600080fd5b506101c8610702565b6040516101d59190613691565b60405180910390f35b3480156101ea57600080fd5b50610205600480360381019061020091906136b3565b610790565b6040516102129190613691565b60405180910390f35b34801561022757600080fd5b50610242600480360381019061023d91906136b3565b6107a2565b60405161024f919061352b565b60405180910390f35b34801561026457600080fd5b5061027f600480360381019061027a91906138dd565b6107ba565b005b34801561028d57600080fd5b506102a860048036038101906102a391906136b3565b61085b565b6040516102b59190613b7d565b60405180910390f35b3480156102ca57600080fd5b506102e560048036038101906102e09190613c62565b610c40565b6040516102f29190613d89565b60405180910390f35b34801561030757600080fd5b50610322600480360381019061031d91906136b3565b610d59565b60405161032f91906135e6565b60405180910390f35b34801561034457600080fd5b5061034d610d6d565b60405161035a9190613f71565b60405180910390f35b34801561036f57600080fd5b50610378610f15565b604051610385919061352b565b60405180910390f35b34801561039a57600080fd5b506103a3610f26565b005b3480156103b157600080fd5b506103cc60048036038101906103c79190614034565b611644565b6040516103d9919061352b565b60405180910390f35b3480156103ee57600080fd5b5061040960048036038101906104049190614109565b6118c3565b005b34801561041757600080fd5b506104206118d9565b60405161042d9190614158565b60405180910390f35b34801561044257600080fd5b5061045d600480360381019061045891906136b3565b6118ff565b6040516104749b9a99989796959493929190614173565b60405180910390f35b34801561048957600080fd5b506104a4600480360381019061049f91906136b3565b611989565b6040516104b1919061352b565b60405180910390f35b3480156104c657600080fd5b506104e160048036038101906104dc919061421e565b6119a6565b6040516104ee91906135e6565b60405180910390f35b610511600480360381019061050c91906136b3565b611a3a565b005b34801561051f57600080fd5b5061053a6004803603810190610535919061425e565b611da3565b005b610556600480360381019061055191906136b3565b611e44565b005b60008073ffffffffffffffffffffffffffffffffffffffff168373ffffffffffffffffffffffffffffffffffffffff16036105c8576040517f08c379a00000000000000000000000000000000000000000000000000000000081526004016105bf90614367565b60405180910390fd5b60008083815260200190815260200160002060008473ffffffffffffffffffffffffffffffffffffffff1673ffffffffffffffffffffffffffffffffffffffff16815260200190815260200160002054905092915050565b60007fd9b67a26000000000000000000000000000000000000000000000000000000007bffffffffffffffffffffffffffffffffffffffffffffffffffffffff1916827bffffffffffffffffffffffffffffffffffffffffffffffffffffffff191614806106eb57507f0e89341c000000000000000000000000000000000000000000000000000000007bffffffffffffffffffffffffffffffffffffffffffffffffffffffff1916827bffffffffffffffffffffffffffffffffffffffffffffffffffffffff1916145b806106fb57506106fa82612230565b5b9050919050565b6006805461070f906143b6565b80601f016020809104026020016040519081016040528092919081815260200182805461073b906143b6565b80156107885780601f1061075d57610100808354040283529160200191610788565b820191906000526020600020905b81548152906001019060200180831161076b57829003601f168201915b505050505081565b606061079b8261229a565b9050919050565b600b6020528060005260406000206000915090505481565b6107c261237f565b73ffffffffffffffffffffffffffffffffffffffff168573ffffffffffffffffffffffffffffffffffffffff16148061080857506108078561080261237f565b6119a6565b5b610847576040517f08c379a000000000000000000000000000000000000000000000000000000000815260040161083e90614459565b60405180910390fd5b6108548585858585612387565b5050505050565b6108636133bd565b600060028361087291906144a8565b14610a4f5761088082610d59565b6108bf576040517f08c379a00000000000000000000000000000000000000000000000000000000081526004016108b690614525565b60405180910390fd5b600a600b600084815260200190815260200160002054815481106108e6576108e5614545565b5b90600052602060002090600c0201604051806101800160405290816000820160009054906101000a900473ffffffffffffffffffffffffffffffffffffffff1673ffffffffffffffffffffffffffffffffffffffff1673ffffffffffffffffffffffffffffffffffffffff168152602001600182015481526020016002820154815260200160038201548152602001600482015481526020016005820154815260200160068201548152602001600782015481526020016008820154815260200160098201548152602001600a8201548152602001600b8201805480602002602001604051908101604052809291908181526020018280548015610a3f57602002820191906000526020600020905b8160009054906101000a900473ffffffffffffffffffffffffffffffffffffffff1673ffffffffffffffffffffffffffffffffffffffff16815260200190600101908083116109f5575b5050505050815250509050610c3b565b610a64600183610a5f91906145a3565b610d59565b610aa3576040517f08c379a0000000000000000000000000000000000000000000000000000000008152600401610a9a90614525565b60405180910390fd5b600a600b6000600185610ab691906145a3565b81526020019081526020016000205481548110610ad657610ad5614545565b5b90600052602060002090600c0201604051806101800160405290816000820160009054906101000a900473ffffffffffffffffffffffffffffffffffffffff1673ffffffffffffffffffffffffffffffffffffffff1673ffffffffffffffffffffffffffffffffffffffff168152602001600182015481526020016002820154815260200160038201548152602001600482015481526020016005820154815260200160068201548152602001600782015481526020016008820154815260200160098201548152602001600a8201548152602001600b8201805480602002602001604051908101604052809291908181526020018280548015610c2f57602002820191906000526020600020905b8160009054906101000a900473ffffffffffffffffffffffffffffffffffffffff1673ffffffffffffffffffffffffffffffffffffffff1681526020019060010190808311610be5575b50505050508152505090505b919050565b60608151835114610c86576040517f08c379a0000000000000000000000000000000000000000000000000000000008152600401610c7d90614649565b60405180910390fd5b6000835167ffffffffffffffff811115610ca357610ca26136e5565b5b604051908082528060200260200182016040528015610cd15781602001602082028036833780820191505090505b50905060005b8451811015610d4e57610d1e858281518110610cf657610cf5614545565b5b6020026020010151858381518110610d1157610d10614545565b5b6020026020010151610558565b828281518110610d3157610d30614545565b5b60200260200101818152505080610d4790614669565b9050610cd7565b508091505092915050565b600080610d6583611989565b119050919050565b6060600a805480602002602001604051908101604052809291908181526020016000905b82821015610f0c57838290600052602060002090600c0201604051806101800160405290816000820160009054906101000a900473ffffffffffffffffffffffffffffffffffffffff1673ffffffffffffffffffffffffffffffffffffffff1673ffffffffffffffffffffffffffffffffffffffff168152602001600182015481526020016002820154815260200160038201548152602001600482015481526020016005820154815260200160068201548152602001600782015481526020016008820154815260200160098201548152602001600a8201548152602001600b8201805480602002602001604051908101604052809291908181526020018280548015610ef457602002820191906000526020600020905b8160009054906101000a900473ffffffffffffffffffffffffffffffffffffffff1673ffffffffffffffffffffffffffffffffffffffff1681526020019060010190808311610eaa575b50505050508152505081526020019060010190610d91565b50505050905090565b6000610f2160076126a8565b905090565b6000805b600a8054905081101561111f576000600a8281548110610f4d57610f4c614545565b5b90600052602060002090600c0201604051806101800160405290816000820160009054906101000a900473ffffffffffffffffffffffffffffffffffffffff1673ffffffffffffffffffffffffffffffffffffffff1673ffffffffffffffffffffffffffffffffffffffff168152602001600182015481526020016002820154815260200160038201548152602001600482015481526020016005820154815260200160068201548152602001600782015481526020016008820154815260200160098201548152602001600a8201548152602001600b82018054806020026020016040519081016040528092919081815260200182805480156110a657602002820191906000526020600020905b8160009054906101000a900473ffffffffffffffffffffffffffffffffffffffff1673ffffffffffffffffffffffffffffffffffffffff168152602001906001019080831161105c575b505050505081525050905060006110c1338360400151610558565b11806110fc57503373ffffffffffffffffffffffffffffffffffffffff16816000015173ffffffffffffffffffffffffffffffffffffffff16145b1561110b57600192505061111f565b50808061111790614669565b915050610f2a565b50600960009054906101000a900473ffffffffffffffffffffffffffffffffffffffff1673ffffffffffffffffffffffffffffffffffffffff163373ffffffffffffffffffffffffffffffffffffffff160361117a57600190505b806111ba576040517f08c379a00000000000000000000000000000000000000000000000000000000081526004016111b190614723565b60405180910390fd5b60005b600a8054905081101561153a576000600a82815481106111e0576111df614545565b5b90600052602060002090600c0201905060008160090154606483600701546112089190614743565b6112129190614774565b9050600081836007015461122691906145a3565b905060008360090154606485600801546112409190614743565b61124a9190614774565b9050600081856008015461125e91906145a3565b9050600085600b018054806020026020016040519081016040528092919081815260200182805480156112e657602002820191906000526020600020905b8160009054906101000a900473ffffffffffffffffffffffffffffffffffffffff1673ffffffffffffffffffffffffffffffffffffffff168152602001906001019080831161129c575b505050505090506000866003015487600a01546064896007015461130a9190614743565b6113149190614774565b61131e9190614743565b9050600082518261132f9190614774565b9050600081858861134091906147b6565b61134a91906145a3565b9050600089600701819055506000896008018190555060008960000160009054906101000a900473ffffffffffffffffffffffffffffffffffffffff1673ffffffffffffffffffffffffffffffffffffffff16826040516113aa9061481b565b60006040518083038185875af1925050503d80600081146113e7576040519150601f19603f3d011682016040523d82523d6000602084013e6113ec565b606091505b5050905080611430576040517f08c379a0000000000000000000000000000000000000000000000000000000008152600401611427906148a2565b60405180910390fd5b60005b855181101561151c576000868d8151811061145157611450614545565b5b6020026020010151905060008173ffffffffffffffffffffffffffffffffffffffff16876040516114819061481b565b60006040518083038185875af1925050503d80600081146114be576040519150601f19603f3d011682016040523d82523d6000602084013e6114c3565b606091505b5050905080611507576040517f08c379a00000000000000000000000000000000000000000000000000000000081526004016114fe90614934565b60405180910390fd5b5050808061151490614669565b915050611433565b5050505050505050505050808061153290614669565b9150506111bd565b506000600960009054906101000a900473ffffffffffffffffffffffffffffffffffffffff1673ffffffffffffffffffffffffffffffffffffffff16476040516115839061481b565b60006040518083038185875af1925050503d80600081146115c0576040519150601f19603f3d011682016040523d82523d6000602084013e6115c5565b606091505b5050905080611609576040517f08c379a0000000000000000000000000000000000000000000000000000000008152600401611600906149c6565b60405180910390fd5b7f0d6b85ae024a6a6596815f1c1c2f8d5bf382f93d8e56c3c88b3b58bbbca20b7d336040516116389190614158565b60405180910390a15050565b6000808711611688576040517f08c379a000000000000000000000000000000000000000000000000000000000815260040161167f90614a58565b60405180910390fd5b61169260076126b6565b61169c60076126a8565b90506116be338264e8d4a51000604051806020016040528060008152506126cc565b6116c8818561287c565b6000600a6001816001815401808255809150500390600052602060002090600c02019050338160000160006101000a81548173ffffffffffffffffffffffffffffffffffffffff021916908373ffffffffffffffffffffffffffffffffffffffff1602179055508181600101819055508781600301819055508681600501819055508581600601819055508381600901819055508281600a018190555061176f60076126b6565b600061177b60076126a8565b905061179833828b604051806020016040528060008152506126cc565b6117a2818761287c565b8082600201819055506117d733600860009054906101000a900473ffffffffffffffffffffffffffffffffffffffff166119a6565b61180957611808600860009054906101000a900473ffffffffffffffffffffffffffffffffffffffff1660016118c3565b5b6001600a8054905061181b91906145a3565b600b6000858152602001908152602001600020819055507fe44a95d90db666eec698ee335d929af1295456ef22acf300487f3b13cee736f1826001015483600201548460000160009054906101000a900473ffffffffffffffffffffffffffffffffffffffff16856003015486600501548760060154886009015489600a01546040516118af989796959493929190614a78565b60405180910390a150509695505050505050565b6118d56118ce61237f565b83836128e1565b5050565b600960009054906101000a900473ffffffffffffffffffffffffffffffffffffffff1681565b600a818154811061190f57600080fd5b90600052602060002090600c02016000915090508060000160009054906101000a900473ffffffffffffffffffffffffffffffffffffffff169080600101549080600201549080600301549080600401549080600501549080600601549080600701549080600801549080600901549080600a015490508b565b600060056000838152602001908152602001600020549050919050565b6000600160008473ffffffffffffffffffffffffffffffffffffffff1673ffffffffffffffffffffffffffffffffffffffff16815260200190815260200160002060008373ffffffffffffffffffffffffffffffffffffffff1673ffffffffffffffffffffffffffffffffffffffff16815260200190815260200160002060009054906101000a900460ff16905092915050565b600080600283611a4a91906144a8565b14611ad357611a5882610d59565b611a97576040517f08c379a0000000000000000000000000000000000000000000000000000000008152600401611a8e90614525565b60405180910390fd5b600a600b60008481526020019081526020016000205481548110611abe57611abd614545565b5b90600052602060002090600c02019050611b6b565b611ae8600183611ae391906145a3565b610d59565b611b27576040517f08c379a0000000000000000000000000000000000000000000000000000000008152600401611b1e90614525565b60405180910390fd5b600a600b6000600185611b3a91906145a3565b81526020019081526020016000205481548110611b5a57611b59614545565b5b90600052602060002090600c020190505b611b788160010154610d59565b611bb7576040517f08c379a0000000000000000000000000000000000000000000000000000000008152600401611bae90614b68565b60405180910390fd5b8060050154341015611bfe576040517f08c379a0000000000000000000000000000000000000000000000000000000008152600401611bf590614bd4565b60405180910390fd5b3373ffffffffffffffffffffffffffffffffffffffff168160000160009054906101000a900473ffffffffffffffffffffffffffffffffffffffff1673ffffffffffffffffffffffffffffffffffffffff1603611c90576040517f08c379a0000000000000000000000000000000000000000000000000000000008152600401611c8790614c40565b60405180910390fd5b34816007016000828254611ca491906147b6565b92505081905550600860009054906101000a900473ffffffffffffffffffffffffffffffffffffffff1673ffffffffffffffffffffffffffffffffffffffff166313f2da7b8260010154308460000160009054906101000a900473ffffffffffffffffffffffffffffffffffffffff16336040518563ffffffff1660e01b8152600401611d349493929190614c81565b600060405180830381600087803b158015611d4e57600080fd5b505af1158015611d62573d6000803e3d6000fd5b505050507f04d30d6ef2c1b6dc4fb27350a8a71229ea6d6a3220be9db153486f9bbda5e6ec8233604051611d97929190614cc6565b60405180910390a15050565b611dab61237f565b73ffffffffffffffffffffffffffffffffffffffff168573ffffffffffffffffffffffffffffffffffffffff161480611df15750611df085611deb61237f565b6119a6565b5b611e30576040517f08c379a0000000000000000000000000000000000000000000000000000000008152600401611e2790614459565b60405180910390fd5b611e3d8585858585612a4d565b5050505050565b600080600283611e5491906144a8565b14611edd57611e6282610d59565b611ea1576040517f08c379a0000000000000000000000000000000000000000000000000000000008152600401611e9890614525565b60405180910390fd5b600a600b60008481526020019081526020016000205481548110611ec857611ec7614545565b5b90600052602060002090600c02019050611f75565b611ef2600183611eed91906145a3565b610d59565b611f31576040517f08c379a0000000000000000000000000000000000000000000000000000000008152600401611f2890614525565b60405180910390fd5b600a600b6000600185611f4491906145a3565b81526020019081526020016000205481548110611f6457611f63614545565b5b90600052602060002090600c020190505b8060030154816004015410611fbf576040517f08c379a0000000000000000000000000000000000000000000000000000000008152600401611fb690614d12565b60405180910390fd5b8060060154341015612006576040517f08c379a0000000000000000000000000000000000000000000000000000000008152600401611ffd90614bd4565b60405180910390fd5b3373ffffffffffffffffffffffffffffffffffffffff168160000160009054906101000a900473ffffffffffffffffffffffffffffffffffffffff1673ffffffffffffffffffffffffffffffffffffffff1603612098576040517f08c379a000000000000000000000000000000000000000000000000000000000815260040161208f90614c40565b60405180910390fd5b60018160040160008282546120ad91906147b6565b92505081905550348160080160008282546120c891906147b6565b9250508190555080600b01339080600181540180825580915050600190039060005260206000200160009091909190916101000a81548173ffffffffffffffffffffffffffffffffffffffff021916908373ffffffffffffffffffffffffffffffffffffffff160217905550600860009054906101000a900473ffffffffffffffffffffffffffffffffffffffff1673ffffffffffffffffffffffffffffffffffffffff166313f2da7b8260020154308460000160009054906101000a900473ffffffffffffffffffffffffffffffffffffffff16336040518563ffffffff1660e01b81526004016121bd9493929190614c81565b600060405180830381600087803b1580156121d757600080fd5b505af11580156121eb573d6000803e3d6000fd5b505050507f535d4bf1d4fd06876e3bed38c167c7631c9c1c0f1bab9b408655c7a724e4b2f7816002015433604051612224929190614cc6565b60405180910390a15050565b60007f01ffc9a7000000000000000000000000000000000000000000000000000000007bffffffffffffffffffffffffffffffffffffffffffffffffffffffff1916827bffffffffffffffffffffffffffffffffffffffffffffffffffffffff1916149050919050565b606060006004600084815260200190815260200160002080546122bc906143b6565b80601f01602080910402602001604051908101604052809291908181526020018280546122e8906143b6565b80156123355780601f1061230a57610100808354040283529160200191612335565b820191906000526020600020905b81548152906001019060200180831161231857829003601f168201915b5050505050905060008151116123535761234e83612ce8565b612377565b600381604051602001612367929190614e06565b6040516020818303038152906040525b915050919050565b600033905090565b81518351146123cb576040517f08c379a00000000000000000000000000000000000000000000000000000000081526004016123c290614e9c565b60405180910390fd5b600073ffffffffffffffffffffffffffffffffffffffff168473ffffffffffffffffffffffffffffffffffffffff160361243a576040517f08c379a000000000000000000000000000000000000000000000000000000000815260040161243190614f2e565b60405180910390fd5b600061244461237f565b9050612454818787878787612d7c565b60005b845181101561260557600085828151811061247557612474614545565b5b60200260200101519050600085838151811061249457612493614545565b5b60200260200101519050600080600084815260200190815260200160002060008b73ffffffffffffffffffffffffffffffffffffffff1673ffffffffffffffffffffffffffffffffffffffff16815260200190815260200160002054905081811015612535576040517f08c379a000000000000000000000000000000000000000000000000000000000815260040161252c90614fc0565b60405180910390fd5b81810360008085815260200190815260200160002060008c73ffffffffffffffffffffffffffffffffffffffff1673ffffffffffffffffffffffffffffffffffffffff168152602001908152602001600020819055508160008085815260200190815260200160002060008b73ffffffffffffffffffffffffffffffffffffffff1673ffffffffffffffffffffffffffffffffffffffff16815260200190815260200160002060008282546125ea91906147b6565b92505081905550505050806125fe90614669565b9050612457565b508473ffffffffffffffffffffffffffffffffffffffff168673ffffffffffffffffffffffffffffffffffffffff168273ffffffffffffffffffffffffffffffffffffffff167f4a39dc06d4c0dbc64b70af90fd698a233a518aa5d07e595d983b8c0526c8f7fb878760405161267c929190614fe0565b60405180910390a4612692818787878787612d92565b6126a0818787878787612d9a565b505050505050565b600081600001549050919050565b6001816000016000828254019250508190555050565b600073ffffffffffffffffffffffffffffffffffffffff168473ffffffffffffffffffffffffffffffffffffffff160361273b576040517f08c379a000000000000000000000000000000000000000000000000000000000815260040161273290615089565b60405180910390fd5b600061274561237f565b9050600061275285612f71565b9050600061275f85612f71565b905061277083600089858589612d7c565b8460008088815260200190815260200160002060008973ffffffffffffffffffffffffffffffffffffffff1673ffffffffffffffffffffffffffffffffffffffff16815260200190815260200160002060008282546127cf91906147b6565b925050819055508673ffffffffffffffffffffffffffffffffffffffff16600073ffffffffffffffffffffffffffffffffffffffff168473ffffffffffffffffffffffffffffffffffffffff167fc3d58168c5ae7397731d063d5bbf3d657854427343f4c083240f7aacaa2d0f62898960405161284d9291906150a9565b60405180910390a461286483600089858589612d92565b61287383600089898989612feb565b50505050505050565b8060046000848152602001908152602001600020908161289c9190615269565b50817f6bb7ff708619ba0610cba295a58592e0451dee2622938c8755667688daf3529b6128c884610790565b6040516128d59190613691565b60405180910390a25050565b8173ffffffffffffffffffffffffffffffffffffffff168373ffffffffffffffffffffffffffffffffffffffff160361294f576040517f08c379a0000000000000000000000000000000000000000000000000000000008152600401612946906153ad565b60405180910390fd5b80600160008573ffffffffffffffffffffffffffffffffffffffff1673ffffffffffffffffffffffffffffffffffffffff16815260200190815260200160002060008473ffffffffffffffffffffffffffffffffffffffff1673ffffffffffffffffffffffffffffffffffffffff16815260200190815260200160002060006101000a81548160ff0219169083151502179055508173ffffffffffffffffffffffffffffffffffffffff168373ffffffffffffffffffffffffffffffffffffffff167f17307eab39ab6107e8899845ad3d59bd9653f200f220920489ca2b5937696c3183604051612a4091906135e6565b60405180910390a3505050565b600073ffffffffffffffffffffffffffffffffffffffff168473ffffffffffffffffffffffffffffffffffffffff1603612abc576040517f08c379a0000000000000000000000000000000000000000000000000000000008152600401612ab390614f2e565b60405180910390fd5b6000612ac661237f565b90506000612ad385612f71565b90506000612ae085612f71565b9050612af0838989858589612d7c565b600080600088815260200190815260200160002060008a73ffffffffffffffffffffffffffffffffffffffff1673ffffffffffffffffffffffffffffffffffffffff16815260200190815260200160002054905085811015612b87576040517f08c379a0000000000000000000000000000000000000000000000000000000008152600401612b7e90614fc0565b60405180910390fd5b85810360008089815260200190815260200160002060008b73ffffffffffffffffffffffffffffffffffffffff1673ffffffffffffffffffffffffffffffffffffffff168152602001908152602001600020819055508560008089815260200190815260200160002060008a73ffffffffffffffffffffffffffffffffffffffff1673ffffffffffffffffffffffffffffffffffffffff1681526020019081526020016000206000828254612c3c91906147b6565b925050819055508773ffffffffffffffffffffffffffffffffffffffff168973ffffffffffffffffffffffffffffffffffffffff168573ffffffffffffffffffffffffffffffffffffffff167fc3d58168c5ae7397731d063d5bbf3d657854427343f4c083240f7aacaa2d0f628a8a604051612cb99291906150a9565b60405180910390a4612ccf848a8a86868a612d92565b612cdd848a8a8a8a8a612feb565b505050505050505050565b606060028054612cf7906143b6565b80601f0160208091040260200160405190810160405280929190818152602001828054612d23906143b6565b8015612d705780601f10612d4557610100808354040283529160200191612d70565b820191906000526020600020905b815481529060010190602001808311612d5357829003601f168201915b50505050509050919050565b612d8a8686868686866131c2565b505050505050565b505050505050565b612db98473ffffffffffffffffffffffffffffffffffffffff16613392565b15612f69578373ffffffffffffffffffffffffffffffffffffffff1663bc197c8187878686866040518663ffffffff1660e01b8152600401612dff959493929190615422565b6020604051808303816000875af1925050508015612e3b57506040513d601f19601f82011682018060405250810190612e38919061549f565b60015b612ee057612e476154d9565b806308c379a003612ea35750612e5b6154fb565b80612e665750612ea5565b806040517f08c379a0000000000000000000000000000000000000000000000000000000008152600401612e9a9190613691565b60405180910390fd5b505b6040517f08c379a0000000000000000000000000000000000000000000000000000000008152600401612ed7906155fd565b60405180910390fd5b63bc197c8160e01b7bffffffffffffffffffffffffffffffffffffffffffffffffffffffff1916817bffffffffffffffffffffffffffffffffffffffffffffffffffffffff191614612f67576040517f08c379a0000000000000000000000000000000000000000000000000000000008152600401612f5e9061568f565b60405180910390fd5b505b505050505050565b60606000600167ffffffffffffffff811115612f9057612f8f6136e5565b5b604051908082528060200260200182016040528015612fbe5781602001602082028036833780820191505090505b5090508281600081518110612fd657612fd5614545565b5b60200260200101818152505080915050919050565b61300a8473ffffffffffffffffffffffffffffffffffffffff16613392565b156131ba578373ffffffffffffffffffffffffffffffffffffffff1663f23a6e6187878686866040518663ffffffff1660e01b81526004016130509594939291906156af565b6020604051808303816000875af192505050801561308c57506040513d601f19601f82011682018060405250810190613089919061549f565b60015b613131576130986154d9565b806308c379a0036130f457506130ac6154fb565b806130b757506130f6565b806040517f08c379a00000000000000000000000000000000000000000000000000000000081526004016130eb9190613691565b60405180910390fd5b505b6040517f08c379a0000000000000000000000000000000000000000000000000000000008152600401613128906155fd565b60405180910390fd5b63f23a6e6160e01b7bffffffffffffffffffffffffffffffffffffffffffffffffffffffff1916817bffffffffffffffffffffffffffffffffffffffffffffffffffffffff1916146131b8576040517f08c379a00000000000000000000000000000000000000000000000000000000081526004016131af9061568f565b60405180910390fd5b505b505050505050565b6131d08686868686866133b5565b600073ffffffffffffffffffffffffffffffffffffffff168573ffffffffffffffffffffffffffffffffffffffff16036132815760005b835181101561327f5782818151811061322357613222614545565b5b60200260200101516005600086848151811061324257613241614545565b5b60200260200101518152602001908152602001600020600082825461326791906147b6565b925050819055508061327890614669565b9050613207565b505b600073ffffffffffffffffffffffffffffffffffffffff168473ffffffffffffffffffffffffffffffffffffffff160361338a5760005b83518110156133885760008482815181106132d6576132d5614545565b5b6020026020010151905060008483815181106132f5576132f4614545565b5b602002602001015190506000600560008481526020019081526020016000205490508181101561335a576040517f08c379a00000000000000000000000000000000000000000000000000000000081526004016133519061577b565b60405180910390fd5b81810360056000858152602001908152602001600020819055505050508061338190614669565b90506132b8565b505b505050505050565b6000808273ffffffffffffffffffffffffffffffffffffffff163b119050919050565b505050505050565b604051806101800160405280600073ffffffffffffffffffffffffffffffffffffffff16815260200160008152602001600081526020016000815260200160008152602001600081526020016000815260200160008152602001600081526020016000815260200160008152602001606081525090565b6000604051905090565b600080fd5b600080fd5b600073ffffffffffffffffffffffffffffffffffffffff82169050919050565b600061347382613448565b9050919050565b61348381613468565b811461348e57600080fd5b50565b6000813590506134a08161347a565b92915050565b6000819050919050565b6134b9816134a6565b81146134c457600080fd5b50565b6000813590506134d6816134b0565b92915050565b600080604083850312156134f3576134f261343e565b5b600061350185828601613491565b9250506020613512858286016134c7565b9150509250929050565b613525816134a6565b82525050565b6000602082019050613540600083018461351c565b92915050565b60007fffffffff0000000000000000000000000000000000000000000000000000000082169050919050565b61357b81613546565b811461358657600080fd5b50565b60008135905061359881613572565b92915050565b6000602082840312156135b4576135b361343e565b5b60006135c284828501613589565b91505092915050565b60008115159050919050565b6135e0816135cb565b82525050565b60006020820190506135fb60008301846135d7565b92915050565b600081519050919050565b600082825260208201905092915050565b60005b8381101561363b578082015181840152602081019050613620565b60008484015250505050565b6000601f19601f8301169050919050565b600061366382613601565b61366d818561360c565b935061367d81856020860161361d565b61368681613647565b840191505092915050565b600060208201905081810360008301526136ab8184613658565b905092915050565b6000602082840312156136c9576136c861343e565b5b60006136d7848285016134c7565b91505092915050565b600080fd5b7f4e487b7100000000000000000000000000000000000000000000000000000000600052604160045260246000fd5b61371d82613647565b810181811067ffffffffffffffff8211171561373c5761373b6136e5565b5b80604052505050565b600061374f613434565b905061375b8282613714565b919050565b600067ffffffffffffffff82111561377b5761377a6136e5565b5b602082029050602081019050919050565b600080fd5b60006137a461379f84613760565b613745565b905080838252602082019050602084028301858111156137c7576137c661378c565b5b835b818110156137f057806137dc88826134c7565b8452602084019350506020810190506137c9565b5050509392505050565b600082601f83011261380f5761380e6136e0565b5b813561381f848260208601613791565b91505092915050565b600080fd5b600067ffffffffffffffff821115613848576138476136e5565b5b61385182613647565b9050602081019050919050565b82818337600083830152505050565b600061388061387b8461382d565b613745565b90508281526020810184848401111561389c5761389b613828565b5b6138a784828561385e565b509392505050565b600082601f8301126138c4576138c36136e0565b5b81356138d484826020860161386d565b91505092915050565b600080600080600060a086880312156138f9576138f861343e565b5b600061390788828901613491565b955050602061391888828901613491565b945050604086013567ffffffffffffffff81111561393957613938613443565b5b613945888289016137fa565b935050606086013567ffffffffffffffff81111561396657613965613443565b5b613972888289016137fa565b925050608086013567ffffffffffffffff81111561399357613992613443565b5b61399f888289016138af565b9150509295509295909350565b6139b581613468565b82525050565b6139c4816134a6565b82525050565b600081519050919050565b600082825260208201905092915050565b6000819050602082019050919050565b6000613a0283836139ac565b60208301905092915050565b6000602082019050919050565b6000613a26826139ca565b613a3081856139d5565b9350613a3b836139e6565b8060005b83811015613a6c578151613a5388826139f6565b9750613a5e83613a0e565b925050600181019050613a3f565b5085935050505092915050565b600061018083016000830151613a9260008601826139ac565b506020830151613aa560208601826139bb565b506040830151613ab860408601826139bb565b506060830151613acb60608601826139bb565b506080830151613ade60808601826139bb565b5060a0830151613af160a08601826139bb565b5060c0830151613b0460c08601826139bb565b5060e0830151613b1760e08601826139bb565b50610100830151613b2c6101008601826139bb565b50610120830151613b416101208601826139bb565b50610140830151613b566101408601826139bb565b50610160830151848203610160860152613b708282613a1b565b9150508091505092915050565b60006020820190508181036000830152613b978184613a79565b905092915050565b600067ffffffffffffffff821115613bba57613bb96136e5565b5b602082029050602081019050919050565b6000613bde613bd984613b9f565b613745565b90508083825260208201905060208402830185811115613c0157613c0061378c565b5b835b81811015613c2a5780613c168882613491565b845260208401935050602081019050613c03565b5050509392505050565b600082601f830112613c4957613c486136e0565b5b8135613c59848260208601613bcb565b91505092915050565b60008060408385031215613c7957613c7861343e565b5b600083013567ffffffffffffffff811115613c9757613c96613443565b5b613ca385828601613c34565b925050602083013567ffffffffffffffff811115613cc457613cc3613443565b5b613cd0858286016137fa565b9150509250929050565b600081519050919050565b600082825260208201905092915050565b6000819050602082019050919050565b6000613d1283836139bb565b60208301905092915050565b6000602082019050919050565b6000613d3682613cda565b613d408185613ce5565b9350613d4b83613cf6565b8060005b83811015613d7c578151613d638882613d06565b9750613d6e83613d1e565b925050600181019050613d4f565b5085935050505092915050565b60006020820190508181036000830152613da38184613d2b565b905092915050565b600081519050919050565b600082825260208201905092915050565b6000819050602082019050919050565b600061018083016000830151613df060008601826139ac565b506020830151613e0360208601826139bb565b506040830151613e1660408601826139bb565b506060830151613e2960608601826139bb565b506080830151613e3c60808601826139bb565b5060a0830151613e4f60a08601826139bb565b5060c0830151613e6260c08601826139bb565b5060e0830151613e7560e08601826139bb565b50610100830151613e8a6101008601826139bb565b50610120830151613e9f6101208601826139bb565b50610140830151613eb46101408601826139bb565b50610160830151848203610160860152613ece8282613a1b565b9150508091505092915050565b6000613ee78383613dd7565b905092915050565b6000602082019050919050565b6000613f0782613dab565b613f118185613db6565b935083602082028501613f2385613dc7565b8060005b85811015613f5f5784840389528151613f408582613edb565b9450613f4b83613eef565b925060208a01995050600181019050613f27565b50829750879550505050505092915050565b60006020820190508181036000830152613f8b8184613efc565b905092915050565b600067ffffffffffffffff821115613fae57613fad6136e5565b5b613fb782613647565b9050602081019050919050565b6000613fd7613fd284613f93565b613745565b905082815260208101848484011115613ff357613ff2613828565b5b613ffe84828561385e565b509392505050565b600082601f83011261401b5761401a6136e0565b5b813561402b848260208601613fc4565b91505092915050565b60008060008060008060c087890312156140515761405061343e565b5b600061405f89828a016134c7565b965050602061407089828a016134c7565b955050604061408189828a016134c7565b945050606087013567ffffffffffffffff8111156140a2576140a1613443565b5b6140ae89828a01614006565b93505060806140bf89828a016134c7565b92505060a06140d089828a016134c7565b9150509295509295509295565b6140e6816135cb565b81146140f157600080fd5b50565b600081359050614103816140dd565b92915050565b600080604083850312156141205761411f61343e565b5b600061412e85828601613491565b925050602061413f858286016140f4565b9150509250929050565b61415281613468565b82525050565b600060208201905061416d6000830184614149565b92915050565b600061016082019050614189600083018e614149565b614196602083018d61351c565b6141a3604083018c61351c565b6141b0606083018b61351c565b6141bd608083018a61351c565b6141ca60a083018961351c565b6141d760c083018861351c565b6141e460e083018761351c565b6141f261010083018661351c565b61420061012083018561351c565b61420e61014083018461351c565b9c9b505050505050505050505050565b600080604083850312156142355761423461343e565b5b600061424385828601613491565b925050602061425485828601613491565b9150509250929050565b600080600080600060a0868803121561427a5761427961343e565b5b600061428888828901613491565b955050602061429988828901613491565b94505060406142aa888289016134c7565b93505060606142bb888289016134c7565b925050608086013567ffffffffffffffff8111156142dc576142db613443565b5b6142e8888289016138af565b9150509295509295909350565b7f455243313135353a2061646472657373207a65726f206973206e6f742061207660008201527f616c6964206f776e657200000000000000000000000000000000000000000000602082015250565b6000614351602a8361360c565b915061435c826142f5565b604082019050919050565b6000602082019050818103600083015261438081614344565b9050919050565b7f4e487b7100000000000000000000000000000000000000000000000000000000600052602260045260246000fd5b600060028204905060018216806143ce57607f821691505b6020821081036143e1576143e0614387565b5b50919050565b7f455243313135353a2063616c6c6572206973206e6f7420746f6b656e206f776e60008201527f6572206f7220617070726f766564000000000000000000000000000000000000602082015250565b6000614443602e8361360c565b915061444e826143e7565b604082019050919050565b6000602082019050818103600083015261447281614436565b9050919050565b7f4e487b7100000000000000000000000000000000000000000000000000000000600052601260045260246000fd5b60006144b3826134a6565b91506144be836134a6565b9250826144ce576144cd614479565b5b828206905092915050565b7f74686520736f6e6720646f65736e277420657869737473000000000000000000600082015250565b600061450f60178361360c565b915061451a826144d9565b602082019050919050565b6000602082019050818103600083015261453e81614502565b9050919050565b7f4e487b7100000000000000000000000000000000000000000000000000000000600052603260045260246000fd5b7f4e487b7100000000000000000000000000000000000000000000000000000000600052601160045260246000fd5b60006145ae826134a6565b91506145b9836134a6565b92508282039050818111156145d1576145d0614574565b5b92915050565b7f455243313135353a206163636f756e747320616e6420696473206c656e67746860008201527f206d69736d617463680000000000000000000000000000000000000000000000602082015250565b600061463360298361360c565b915061463e826145d7565b604082019050919050565b6000602082019050818103600083015261466281614626565b9050919050565b6000614674826134a6565b91507fffffffffffffffffffffffffffffffffffffffffffffffffffffffffffffffff82036146a6576146a5614574565b5b600182019050919050565b7f4f6e6c79206172746973747320616e6420737570657266616e732063616e206960008201527f6e746974696174652077697468647261772070726f6365737300000000000000602082015250565b600061470d60398361360c565b9150614718826146b1565b604082019050919050565b6000602082019050818103600083015261473c81614700565b9050919050565b600061474e826134a6565b9150614759836134a6565b92508261476957614768614479565b5b828204905092915050565b600061477f826134a6565b915061478a836134a6565b9250828202614798816134a6565b915082820484148315176147af576147ae614574565b5b5092915050565b60006147c1826134a6565b91506147cc836134a6565b92508282019050808211156147e4576147e3614574565b5b92915050565b600081905092915050565b50565b60006148056000836147ea565b9150614810826147f5565b600082019050919050565b6000614826826147f8565b9150819050919050565b7f6661696c656420746f2064697372696275746520726f79616c6974696573207460008201527f6f20746865206172746973740000000000000000000000000000000000000000602082015250565b600061488c602c8361360c565b915061489782614830565b604082019050919050565b600060208201905081810360008301526148bb8161487f565b9050919050565b7f6661696c656420746f2064697372696275746520726f79616c6974696573207460008201527f6f2074686520737570657266616e000000000000000000000000000000000000602082015250565b600061491e602e8361360c565b9150614929826148c2565b604082019050919050565b6000602082019050818103600083015261494d81614911565b9050919050565b7f6661696c656420746f2064697372696275746520726f79616c6974696573207460008201527f6f2074686520706c61666f726d204f776e657200000000000000000000000000602082015250565b60006149b060338361360c565b91506149bb82614954565b604082019050919050565b600060208201905081810360008301526149df816149a3565b9050919050565b7f4c696d6974656420737570706c79206d7573742062652067726561746572207460008201527f68616e2030000000000000000000000000000000000000000000000000000000602082015250565b6000614a4260258361360c565b9150614a4d826149e6565b604082019050919050565b60006020820190508181036000830152614a7181614a35565b9050919050565b600061010082019050614a8e600083018b61351c565b614a9b602083018a61351c565b614aa86040830189614149565b614ab5606083018861351c565b614ac2608083018761351c565b614acf60a083018661351c565b614adc60c083018561351c565b614ae960e083018461351c565b9998505050505050505050565b7f74686520736f6e67496420646f65736e277420657869737473206f72206e6f7460008201527f2076616c69640000000000000000000000000000000000000000000000000000602082015250565b6000614b5260268361360c565b9150614b5d82614af6565b604082019050919050565b60006020820190508181036000830152614b8181614b45565b9050919050565b7f506c6561736520706179207468652066756c6c20616d6f756e74000000000000600082015250565b6000614bbe601a8361360c565b9150614bc982614b88565b602082019050919050565b60006020820190508181036000830152614bed81614bb1565b9050919050565b7f796f752063616e6e6f742062757920796f7572206f776e20736f6e6700000000600082015250565b6000614c2a601c8361360c565b9150614c3582614bf4565b602082019050919050565b60006020820190508181036000830152614c5981614c1d565b9050919050565b6000614c6b82613448565b9050919050565b614c7b81614c60565b82525050565b6000608082019050614c96600083018761351c565b614ca36020830186614c72565b614cb06040830185614149565b614cbd6060830184614149565b95945050505050565b6000604082019050614cdb600083018561351c565b614ce86020830184614149565b9392505050565b6000614cfc60008361360c565b9150614d07826147f5565b600082019050919050565b60006020820190508181036000830152614d2b81614cef565b9050919050565b600081905092915050565b60008190508160005260206000209050919050565b60008154614d5f816143b6565b614d698186614d32565b94506001821660008114614d845760018114614d9957614dcc565b60ff1983168652811515820286019350614dcc565b614da285614d3d565b60005b83811015614dc457815481890152600182019150602081019050614da5565b838801955050505b50505092915050565b6000614de082613601565b614dea8185614d32565b9350614dfa81856020860161361d565b80840191505092915050565b6000614e128285614d52565b9150614e1e8284614dd5565b91508190509392505050565b7f455243313135353a2069647320616e6420616d6f756e7473206c656e6774682060008201527f6d69736d61746368000000000000000000000000000000000000000000000000602082015250565b6000614e8660288361360c565b9150614e9182614e2a565b604082019050919050565b60006020820190508181036000830152614eb581614e79565b9050919050565b7f455243313135353a207472616e7366657220746f20746865207a65726f20616460008201527f6472657373000000000000000000000000000000000000000000000000000000602082015250565b6000614f1860258361360c565b9150614f2382614ebc565b604082019050919050565b60006020820190508181036000830152614f4781614f0b565b9050919050565b7f455243313135353a20696e73756666696369656e742062616c616e636520666f60008201527f72207472616e7366657200000000000000000000000000000000000000000000602082015250565b6000614faa602a8361360c565b9150614fb582614f4e565b604082019050919050565b60006020820190508181036000830152614fd981614f9d565b9050919050565b60006040820190508181036000830152614ffa8185613d2b565b9050818103602083015261500e8184613d2b565b90509392505050565b7f455243313135353a206d696e7420746f20746865207a65726f2061646472657360008201527f7300000000000000000000000000000000000000000000000000000000000000602082015250565b600061507360218361360c565b915061507e82615017565b604082019050919050565b600060208201905081810360008301526150a281615066565b9050919050565b60006040820190506150be600083018561351c565b6150cb602083018461351c565b9392505050565b60006020601f8301049050919050565b600082821b905092915050565b60006008830261511f7fffffffffffffffffffffffffffffffffffffffffffffffffffffffffffffffff826150e2565b61512986836150e2565b95508019841693508086168417925050509392505050565b6000819050919050565b600061516661516161515c846134a6565b615141565b6134a6565b9050919050565b6000819050919050565b6151808361514b565b61519461518c8261516d565b8484546150ef565b825550505050565b600090565b6151a961519c565b6151b4818484615177565b505050565b5b818110156151d8576151cd6000826151a1565b6001810190506151ba565b5050565b601f82111561521d576151ee81614d3d565b6151f7846150d2565b81016020851015615206578190505b61521a615212856150d2565b8301826151b9565b50505b505050565b600082821c905092915050565b600061524060001984600802615222565b1980831691505092915050565b6000615259838361522f565b9150826002028217905092915050565b61527282613601565b67ffffffffffffffff81111561528b5761528a6136e5565b5b61529582546143b6565b6152a08282856151dc565b600060209050601f8311600181146152d357600084156152c1578287015190505b6152cb858261524d565b865550615333565b601f1984166152e186614d3d565b60005b82811015615309578489015182556001820191506020850194506020810190506152e4565b868310156153265784890151615322601f89168261522f565b8355505b6001600288020188555050505b505050505050565b7f455243313135353a2073657474696e6720617070726f76616c2073746174757360008201527f20666f722073656c660000000000000000000000000000000000000000000000602082015250565b600061539760298361360c565b91506153a28261533b565b604082019050919050565b600060208201905081810360008301526153c68161538a565b9050919050565b600081519050919050565b600082825260208201905092915050565b60006153f4826153cd565b6153fe81856153d8565b935061540e81856020860161361d565b61541781613647565b840191505092915050565b600060a0820190506154376000830188614149565b6154446020830187614149565b81810360408301526154568186613d2b565b9050818103606083015261546a8185613d2b565b9050818103608083015261547e81846153e9565b90509695505050505050565b60008151905061549981613572565b92915050565b6000602082840312156154b5576154b461343e565b5b60006154c38482850161548a565b91505092915050565b60008160e01c9050919050565b600060033d11156154f85760046000803e6154f56000516154cc565b90505b90565b600060443d106155885761550d613434565b60043d036004823e80513d602482011167ffffffffffffffff82111715615535575050615588565b808201805167ffffffffffffffff8111156155535750505050615588565b80602083010160043d038501811115615570575050505050615588565b61557f82602001850186613714565b82955050505050505b90565b7f455243313135353a207472616e7366657220746f206e6f6e2d4552433131353560008201527f526563656976657220696d706c656d656e746572000000000000000000000000602082015250565b60006155e760348361360c565b91506155f28261558b565b604082019050919050565b60006020820190508181036000830152615616816155da565b9050919050565b7f455243313135353a204552433131353552656365697665722072656a6563746560008201527f6420746f6b656e73000000000000000000000000000000000000000000000000602082015250565b600061567960288361360c565b91506156848261561d565b604082019050919050565b600060208201905081810360008301526156a88161566c565b9050919050565b600060a0820190506156c46000830188614149565b6156d16020830187614149565b6156de604083018661351c565b6156eb606083018561351c565b81810360808301526156fd81846153e9565b90509695505050505050565b7f455243313135353a206275726e20616d6f756e74206578636565647320746f7460008201527f616c537570706c79000000000000000000000000000000000000000000000000602082015250565b600061576560288361360c565b915061577082615709565b604082019050919050565b6000602082019050818103600083015261579481615758565b905091905056fea2646970667358221220737ce8ed193eae3794ccce2273cc419e8834ff1c0e72b4f7b5599caaf3ed6da964736f6c63430008110033",
  "linkReferences": {},
  "deployedLinkReferences": {}
}